{
  "contractName": "Marketplace",
  "abi": [
    {
      "inputs": [
        {
          "internalType": "address",
          "name": "trustedForwarder",
          "type": "address"
        },
        {
          "internalType": "contract IMelandSwapFactory",
          "name": "_factory",
          "type": "address"
        }
      ],
      "stateMutability": "nonpayable",
      "type": "constructor"
    },
    {
      "anonymous": false,
      "inputs": [
        {
          "indexed": false,
          "internalType": "address",
          "name": "previousAdmin",
          "type": "address"
        },
        {
          "indexed": false,
          "internalType": "address",
          "name": "newAdmin",
          "type": "address"
        }
      ],
      "name": "AdminChanged",
      "type": "event"
    },
    {
      "anonymous": false,
      "inputs": [
        {
          "indexed": true,
          "internalType": "address",
          "name": "beacon",
          "type": "address"
        }
      ],
      "name": "BeaconUpgraded",
      "type": "event"
    },
    {
      "anonymous": false,
      "inputs": [
        {
          "indexed": false,
          "internalType": "uint256",
          "name": "ownerCutPerMillion",
          "type": "uint256"
        }
      ],
      "name": "ChangedOwnerCutPerMillion",
      "type": "event"
    },
    {
      "anonymous": false,
      "inputs": [
        {
          "indexed": false,
          "internalType": "uint8",
          "name": "version",
          "type": "uint8"
        }
      ],
      "name": "Initialized",
      "type": "event"
    },
    {
      "anonymous": false,
      "inputs": [
        {
          "indexed": false,
          "internalType": "uint256",
          "name": "id",
          "type": "uint256"
        }
      ],
      "name": "OrderCanceled",
      "type": "event"
    },
    {
      "anonymous": false,
      "inputs": [
        {
          "indexed": false,
          "internalType": "uint256",
          "name": "id",
          "type": "uint256"
        },
        {
          "indexed": true,
          "internalType": "bytes32",
          "name": "productId",
          "type": "bytes32"
        },
        {
          "components": [
            {
              "internalType": "uint256",
              "name": "id",
              "type": "uint256"
            },
            {
              "internalType": "address",
              "name": "seller",
              "type": "address"
            },
            {
              "internalType": "uint256",
              "name": "tokenId",
              "type": "uint256"
            },
            {
              "internalType": "uint256",
              "name": "amount",
              "type": "uint256"
            },
            {
              "internalType": "address",
              "name": "nft",
              "type": "address"
            },
            {
              "internalType": "uint256",
              "name": "priceInWeiForUnit",
              "type": "uint256"
            },
            {
              "internalType": "contract IERC20Upgradeable",
              "name": "acceptedToken",
              "type": "address"
            }
          ],
          "indexed": false,
          "internalType": "struct IMarketplace.Order",
          "name": "order",
          "type": "tuple"
        }
      ],
      "name": "OrderCreated",
      "type": "event"
    },
    {
      "anonymous": false,
      "inputs": [
        {
          "indexed": false,
          "internalType": "uint256",
          "name": "id",
          "type": "uint256"
        },
        {
          "indexed": false,
          "internalType": "uint256",
          "name": "amount",
          "type": "uint256"
        },
        {
          "indexed": false,
          "internalType": "uint256",
          "name": "tknRate",
          "type": "uint256"
        },
        {
          "indexed": false,
          "internalType": "bool",
          "name": "isSellout",
          "type": "bool"
        },
        {
          "indexed": false,
          "internalType": "address",
          "name": "buyer",
          "type": "address"
        }
      ],
      "name": "OrderSellout",
      "type": "event"
    },
    {
      "anonymous": false,
      "inputs": [
        {
          "indexed": false,
          "internalType": "uint256",
          "name": "id",
          "type": "uint256"
        }
      ],
      "name": "OrderUpdated",
      "type": "event"
    },
    {
      "anonymous": false,
      "inputs": [
        {
          "indexed": true,
          "internalType": "bytes32",
          "name": "role",
          "type": "bytes32"
        },
        {
          "indexed": true,
          "internalType": "bytes32",
          "name": "previousAdminRole",
          "type": "bytes32"
        },
        {
          "indexed": true,
          "internalType": "bytes32",
          "name": "newAdminRole",
          "type": "bytes32"
        }
      ],
      "name": "RoleAdminChanged",
      "type": "event"
    },
    {
      "anonymous": false,
      "inputs": [
        {
          "indexed": true,
          "internalType": "bytes32",
          "name": "role",
          "type": "bytes32"
        },
        {
          "indexed": true,
          "internalType": "address",
          "name": "account",
          "type": "address"
        },
        {
          "indexed": true,
          "internalType": "address",
          "name": "sender",
          "type": "address"
        }
      ],
      "name": "RoleGranted",
      "type": "event"
    },
    {
      "anonymous": false,
      "inputs": [
        {
          "indexed": true,
          "internalType": "bytes32",
          "name": "role",
          "type": "bytes32"
        },
        {
          "indexed": true,
          "internalType": "address",
          "name": "account",
          "type": "address"
        },
        {
          "indexed": true,
          "internalType": "address",
          "name": "sender",
          "type": "address"
        }
      ],
      "name": "RoleRevoked",
      "type": "event"
    },
    {
      "anonymous": false,
      "inputs": [
        {
          "indexed": true,
          "internalType": "address",
          "name": "implementation",
          "type": "address"
        }
      ],
      "name": "Upgraded",
      "type": "event"
    },
    {
      "inputs": [],
      "name": "DEFAULT_ADMIN_ROLE",
      "outputs": [
        {
          "internalType": "bytes32",
          "name": "",
          "type": "bytes32"
        }
      ],
      "stateMutability": "view",
      "type": "function",
      "constant": true
    },
    {
      "inputs": [],
      "name": "DOMAIN_SEPARATOR",
      "outputs": [
        {
          "internalType": "bytes32",
          "name": "",
          "type": "bytes32"
        }
      ],
      "stateMutability": "view",
      "type": "function",
      "constant": true
    },
    {
      "inputs": [],
      "name": "GM_ROLE",
      "outputs": [
        {
          "internalType": "bytes32",
          "name": "",
          "type": "bytes32"
        }
      ],
      "stateMutability": "view",
      "type": "function",
      "constant": true
    },
    {
      "inputs": [],
      "name": "MINTER_ROLE",
      "outputs": [
        {
          "internalType": "bytes32",
          "name": "",
          "type": "bytes32"
        }
      ],
      "stateMutability": "view",
      "type": "function",
      "constant": true
    },
    {
      "inputs": [],
      "name": "UPGRADER_ROLE",
      "outputs": [
        {
          "internalType": "bytes32",
          "name": "",
          "type": "bytes32"
        }
      ],
      "stateMutability": "view",
      "type": "function",
      "constant": true
    },
    {
      "inputs": [],
      "name": "factory",
      "outputs": [
        {
          "internalType": "contract IMelandSwapFactory",
          "name": "",
          "type": "address"
        }
      ],
      "stateMutability": "view",
      "type": "function",
      "constant": true
    },
    {
      "inputs": [
        {
          "internalType": "bytes32",
          "name": "role",
          "type": "bytes32"
        }
      ],
      "name": "getRoleAdmin",
      "outputs": [
        {
          "internalType": "bytes32",
          "name": "",
          "type": "bytes32"
        }
      ],
      "stateMutability": "view",
      "type": "function",
      "constant": true
    },
    {
      "inputs": [
        {
          "internalType": "bytes32",
          "name": "role",
          "type": "bytes32"
        },
        {
          "internalType": "address",
          "name": "account",
          "type": "address"
        }
      ],
      "name": "grantRole",
      "outputs": [],
      "stateMutability": "nonpayable",
      "type": "function"
    },
    {
      "inputs": [
        {
          "internalType": "bytes32",
          "name": "role",
          "type": "bytes32"
        },
        {
          "internalType": "address",
          "name": "account",
          "type": "address"
        }
      ],
      "name": "hasRole",
      "outputs": [
        {
          "internalType": "bool",
          "name": "",
          "type": "bool"
        }
      ],
      "stateMutability": "view",
      "type": "function",
      "constant": true
    },
    {
      "inputs": [
        {
          "internalType": "address",
          "name": "forwarder",
          "type": "address"
        }
      ],
      "name": "isTrustedForwarder",
      "outputs": [
        {
          "internalType": "bool",
          "name": "",
          "type": "bool"
        }
      ],
      "stateMutability": "view",
      "type": "function",
      "constant": true
    },
    {
      "inputs": [
        {
          "internalType": "uint256",
          "name": "",
          "type": "uint256"
        }
      ],
      "name": "orderById",
      "outputs": [
        {
          "internalType": "uint256",
          "name": "id",
          "type": "uint256"
        },
        {
          "internalType": "address",
          "name": "seller",
          "type": "address"
        },
        {
          "internalType": "uint256",
          "name": "tokenId",
          "type": "uint256"
        },
        {
          "internalType": "uint256",
          "name": "amount",
          "type": "uint256"
        },
        {
          "internalType": "address",
          "name": "nft",
          "type": "address"
        },
        {
          "internalType": "uint256",
          "name": "priceInWeiForUnit",
          "type": "uint256"
        },
        {
          "internalType": "contract IERC20Upgradeable",
          "name": "acceptedToken",
          "type": "address"
        }
      ],
      "stateMutability": "view",
      "type": "function",
      "constant": true
    },
    {
      "inputs": [],
      "name": "ownerCutPerMillion",
      "outputs": [
        {
          "internalType": "uint256",
          "name": "",
          "type": "uint256"
        }
      ],
      "stateMutability": "view",
      "type": "function",
      "constant": true
    },
    {
      "inputs": [],
      "name": "productManager",
      "outputs": [
        {
          "internalType": "contract IProductManager",
          "name": "",
          "type": "address"
        }
      ],
      "stateMutability": "view",
      "type": "function",
      "constant": true
    },
    {
      "inputs": [],
      "name": "proxiableUUID",
      "outputs": [
        {
          "internalType": "bytes32",
          "name": "",
          "type": "bytes32"
        }
      ],
      "stateMutability": "view",
      "type": "function",
      "constant": true
    },
    {
      "inputs": [
        {
          "internalType": "bytes32",
          "name": "role",
          "type": "bytes32"
        },
        {
          "internalType": "address",
          "name": "account",
          "type": "address"
        }
      ],
      "name": "renounceRole",
      "outputs": [],
      "stateMutability": "nonpayable",
      "type": "function"
    },
    {
      "inputs": [
        {
          "internalType": "bytes32",
          "name": "role",
          "type": "bytes32"
        },
        {
          "internalType": "address",
          "name": "account",
          "type": "address"
        }
      ],
      "name": "revokeRole",
      "outputs": [],
      "stateMutability": "nonpayable",
      "type": "function"
    },
    {
      "inputs": [
        {
          "internalType": "address",
          "name": "newImplementation",
          "type": "address"
        }
      ],
      "name": "upgradeTo",
      "outputs": [],
      "stateMutability": "nonpayable",
      "type": "function"
    },
    {
      "inputs": [
        {
          "internalType": "address",
          "name": "newImplementation",
          "type": "address"
        },
        {
          "internalType": "bytes",
          "name": "data",
          "type": "bytes"
        }
      ],
      "name": "upgradeToAndCall",
      "outputs": [],
      "stateMutability": "payable",
      "type": "function",
      "payable": true
    },
    {
      "inputs": [
        {
          "internalType": "address",
          "name": "mpc",
          "type": "address"
        },
        {
          "internalType": "contract IProductManager",
          "name": "_pm",
          "type": "address"
        }
      ],
      "name": "initialize",
      "outputs": [],
      "stateMutability": "nonpayable",
      "type": "function"
    },
    {
      "inputs": [
        {
          "internalType": "uint256",
          "name": "_ownerCutPerMillion",
          "type": "uint256"
        }
      ],
      "name": "setOwnerCutPerMillion",
      "outputs": [],
      "stateMutability": "nonpayable",
      "type": "function"
    },
    {
      "inputs": [
        {
          "internalType": "uint256",
          "name": "orderId",
          "type": "uint256"
        },
        {
          "internalType": "uint256",
          "name": "tknRate",
          "type": "uint256"
        },
        {
          "internalType": "uint256",
          "name": "amount",
          "type": "uint256"
        },
        {
          "internalType": "uint256",
          "name": "priceInWeiForUnit",
          "type": "uint256"
        },
        {
          "internalType": "uint256",
          "name": "deadline",
          "type": "uint256"
        },
        {
          "internalType": "uint8",
          "name": "v",
          "type": "uint8"
        },
        {
          "internalType": "bytes32",
          "name": "r",
          "type": "bytes32"
        },
        {
          "internalType": "bytes32",
          "name": "s",
          "type": "bytes32"
        }
      ],
      "name": "executeOrderPremit",
      "outputs": [],
      "stateMutability": "nonpayable",
      "type": "function"
    },
    {
      "inputs": [
        {
          "internalType": "uint256",
          "name": "orderId",
          "type": "uint256"
        },
        {
          "internalType": "uint256",
          "name": "tknRate",
          "type": "uint256"
        },
        {
          "internalType": "uint256",
          "name": "amount",
          "type": "uint256"
        },
        {
          "internalType": "uint256",
          "name": "priceInWeiForUnit",
          "type": "uint256"
        }
      ],
      "name": "executeOrder",
      "outputs": [],
      "stateMutability": "nonpayable",
      "type": "function"
    },
    {
      "inputs": [
        {
          "internalType": "uint256",
          "name": "orderId",
          "type": "uint256"
        },
        {
          "internalType": "uint256",
          "name": "priceInWeiForUnit",
          "type": "uint256"
        }
      ],
      "name": "updateOrder",
      "outputs": [],
      "stateMutability": "nonpayable",
      "type": "function"
    },
    {
      "inputs": [
        {
          "internalType": "bytes32",
          "name": "productId",
          "type": "bytes32"
        },
        {
          "internalType": "uint256",
          "name": "tknRate",
          "type": "uint256"
        },
        {
          "internalType": "contract IERC20Upgradeable",
          "name": "erc20token",
          "type": "address"
        },
        {
          "internalType": "uint256",
          "name": "amount",
          "type": "uint256"
        },
        {
          "internalType": "uint256",
          "name": "totalPrice",
          "type": "uint256"
        },
        {
          "internalType": "bool",
          "name": "usePool",
          "type": "bool"
        }
      ],
      "name": "autoBuy",
      "outputs": [],
      "stateMutability": "nonpayable",
      "type": "function"
    },
    {
      "inputs": [
        {
          "internalType": "bytes32",
          "name": "productId",
          "type": "bytes32"
        },
        {
          "internalType": "contract IERC20Upgradeable",
          "name": "erc20token",
          "type": "address"
        }
      ],
      "name": "getProductLowestPrice",
      "outputs": [
        {
          "internalType": "uint256",
          "name": "",
          "type": "uint256"
        }
      ],
      "stateMutability": "view",
      "type": "function",
      "constant": true
    },
    {
      "inputs": [
        {
          "internalType": "bytes32",
          "name": "productId",
          "type": "bytes32"
        },
        {
          "internalType": "address",
          "name": "erc20token",
          "type": "address"
        },
        {
          "internalType": "uint256",
          "name": "neededAmount",
          "type": "uint256"
        },
        {
          "internalType": "bool",
          "name": "usePool",
          "type": "bool"
        }
      ],
      "name": "autoBuyPrice",
      "outputs": [
        {
          "components": [
            {
              "internalType": "uint256[]",
              "name": "execOrderIds",
              "type": "uint256[]"
            },
            {
              "internalType": "uint256[]",
              "name": "execOrderAmounts",
              "type": "uint256[]"
            },
            {
              "internalType": "uint256",
              "name": "poolBuyAmount",
              "type": "uint256"
            },
            {
              "internalType": "uint256",
              "name": "poolBuyPrice",
              "type": "uint256"
            },
            {
              "internalType": "uint256",
              "name": "needTotalPrice",
              "type": "uint256"
            }
          ],
          "internalType": "struct IMarketplace.AutoBuyFixStack2deepReturns",
          "name": "",
          "type": "tuple"
        }
      ],
      "stateMutability": "view",
      "type": "function",
      "constant": true
    },
    {
      "inputs": [
        {
          "internalType": "uint256",
          "name": "orderId",
          "type": "uint256"
        }
      ],
      "name": "cancelOrder",
      "outputs": [],
      "stateMutability": "nonpayable",
      "type": "function"
    },
    {
      "inputs": [
        {
          "internalType": "bytes4",
          "name": "interfaceId",
          "type": "bytes4"
        }
      ],
      "name": "supportsInterface",
      "outputs": [
        {
          "internalType": "bool",
          "name": "",
          "type": "bool"
        }
      ],
      "stateMutability": "view",
      "type": "function",
      "constant": true
    },
    {
      "inputs": [
        {
          "internalType": "address",
          "name": "",
          "type": "address"
        },
        {
          "internalType": "address",
          "name": "_from",
          "type": "address"
        },
        {
          "internalType": "uint256[]",
          "name": "_ids",
          "type": "uint256[]"
        },
        {
          "internalType": "uint256[]",
          "name": "_amounts",
          "type": "uint256[]"
        },
        {
          "internalType": "bytes",
          "name": "_data",
          "type": "bytes"
        }
      ],
      "name": "onERC1155BatchReceived",
      "outputs": [
        {
          "internalType": "bytes4",
          "name": "",
          "type": "bytes4"
        }
      ],
      "stateMutability": "nonpayable",
      "type": "function"
    },
    {
      "inputs": [
        {
          "internalType": "address",
          "name": "_operator",
          "type": "address"
        },
        {
          "internalType": "address",
          "name": "_from",
          "type": "address"
        },
        {
          "internalType": "uint256",
          "name": "_id",
          "type": "uint256"
        },
        {
          "internalType": "uint256",
          "name": "_amount",
          "type": "uint256"
        },
        {
          "internalType": "bytes",
          "name": "_data",
          "type": "bytes"
        }
      ],
      "name": "onERC1155Received",
      "outputs": [
        {
          "internalType": "bytes4",
          "name": "",
          "type": "bytes4"
        }
      ],
      "stateMutability": "nonpayable",
      "type": "function"
    }
  ],
  "bytecode": "0x60e0604052306080523480156200001557600080fd5b5060405162004e3e38038062004e3e833981016040819052620000389162000069565b6001600160a01b0391821660a0521660c052620000a8565b6001600160a01b03811681146200006657600080fd5b50565b600080604083850312156200007d57600080fd5b82516200008a8162000050565b60208401519092506200009d8162000050565b809150509250929050565b60805160a05160c051614d19620001256000396000818161058401528181610b1201528181610cbe01528181611035015281816119c101528181611a480152611b050152600081816103e301526138ff015260008181610976015281816109b6015281816112b0015281816112f001526116620152614d196000f3fe6080604052600436106101cd5760003560e01c8063587b71a6116100f7578063c45a015511610095578063f23a6e6111610064578063f23a6e6114610632578063f426306f14610652578063f72c0d8b14610673578063f8b50517146106a757600080fd5b8063c45a015514610572578063c73f1bd0146105be578063d5391393146105de578063d547741f1461061257600080fd5b8063a01f79d4116100d1578063a01f79d4146104f9578063a217fddf14610510578063a977115014610525578063bc197c811461054557600080fd5b8063587b71a6146104135780638d77eba51461043357806391d14854146104d957600080fd5b806336568abe1161016f5780634f1ef2861161013e5780634f1ef2861461037e578063514fcac71461039157806352d1902d146103b1578063572b6c05146103c657600080fd5b806336568abe146102f15780633659cfe6146103115780633ce2741014610331578063485cc9551461035e57600080fd5b8063248a9ca3116101ab578063248a9ca3146102575780632f2ff15d1461028757806330c7be2c146102a75780633644e515146102db57600080fd5b806301ffc9a7146101d257806319dad16d1461020757806320af3ba714610229575b600080fd5b3480156101de57600080fd5b506101f26101ed36600461436a565b6106c7565b60405190151581526020015b60405180910390f35b34801561021357600080fd5b50610227610222366004614394565b61070d565b005b34801561023557600080fd5b506102496102443660046143c2565b610744565b6040519081526020016101fe565b34801561026357600080fd5b50610249610272366004614394565b60009081526065602052604090206001015490565b34801561029357600080fd5b506102276102a23660046143c2565b6108b2565b3480156102b357600080fd5b506102497ff5eb84615c2a00ecaf817d13794ebd6299c9e01c395bf4018453f13f577f544981565b3480156102e757600080fd5b5061024960975481565b3480156102fd57600080fd5b5061022761030c3660046143c2565b6108dc565b34801561031d57600080fd5b5061022761032c3660046143f2565b61096b565b34801561033d57600080fd5b5061035161034c36600461441d565b610a4b565b6040516101fe91906144a2565b34801561036a57600080fd5b50610227610379366004614506565b611163565b61022761038c36600461457b565b6112a5565b34801561039d57600080fd5b506102276103ac366004614394565b611372565b3480156103bd57600080fd5b50610249611655565b3480156103d257600080fd5b506101f26103e13660046143f2565b7f00000000000000000000000000000000000000000000000000000000000000006001600160a01b0390811691161490565b34801561041f57600080fd5b5061022761042e366004614623565b611708565b34801561043f57600080fd5b5061049a61044e366004614394565b61016360205260009081526040902080546001820154600283015460038401546004850154600586015460069096015494956001600160a01b0394851695939492939183169290911687565b604080519788526001600160a01b03968716602089015287019490945260608601929092528316608085015260a08401521660c082015260e0016101fe565b3480156104e557600080fd5b506101f26104f43660046143c2565b61171f565b34801561050557600080fd5b506102496101625481565b34801561051c57600080fd5b50610249600081565b34801561053157600080fd5b50610227610540366004614645565b61174a565b34801561055157600080fd5b5061056561056036600461476c565b611b6f565b6040516101fe9190614820565b34801561057e57600080fd5b506105a67f000000000000000000000000000000000000000000000000000000000000000081565b6040516001600160a01b0390911681526020016101fe565b3480156105ca57600080fd5b506102276105d9366004614835565b611d6d565b3480156105ea57600080fd5b506102497f9f2df0fed2c77648de5860a4cc508cd0818c85b8b8a1ab4ceeef8d981c8956a681565b34801561061e57600080fd5b5061022761062d3660046143c2565b611d8d565b34801561063e57600080fd5b5061056561064d366004614867565b611db2565b34801561065e57600080fd5b50610161546105a6906001600160a01b031681565b34801561067f57600080fd5b506102497f189ab7a9244df0848122154315af71fe140f3db0fe014031783b0946b8c9d2e381565b3480156106b357600080fd5b506102276106c23660046148d1565b611ee4565b60006001600160e01b0319821663da8def7360e01b14806106f857506001600160e01b031982166301ffc9a760e01b145b80610707575061070782612010565b92915050565b7ff5eb84615c2a00ecaf817d13794ebd6299c9e01c395bf4018453f13f577f544961073781612035565b61074082612046565b5050565b6000828152610164602090815260408083206001600160a01b03851684528252808320805482518185028101850190935280835284938301828280156107a957602002820191906000526020600020905b815481526020019060010190808311610795575b505050505090508051600014156107c4576000915050610707565b805160011415610808576101636000826000815181106107e6576107e661493f565b6020026020010151815260200190815260200160002060050154915050610707565b60006101636000836000815181106108225761082261493f565b602002602001015181526020019081526020016000206005015490506000600190505b82518110156108a95760008382815181106108625761086261493f565b60200260200101519050600081111561089657600081815261016360205260409020600501546108928482612120565b9350505b50806108a18161496b565b915050610845565b50949350505050565b6000828152606560205260409020600101546108cd81612035565b6108d78383612138565b505050565b6108e46121bf565b6001600160a01b0316816001600160a01b0316146109615760405162461bcd60e51b815260206004820152602f60248201527f416363657373436f6e74726f6c3a2063616e206f6e6c792072656e6f756e636560448201526e103937b632b9903337b91039b2b63360891b60648201526084015b60405180910390fd5b61074082826121ce565b306001600160a01b037f00000000000000000000000000000000000000000000000000000000000000001614156109b45760405162461bcd60e51b815260040161095890614986565b7f00000000000000000000000000000000000000000000000000000000000000006001600160a01b03166109fd600080516020614c9d833981519152546001600160a01b031690565b6001600160a01b031614610a235760405162461bcd60e51b8152600401610958906149d2565b610a2c81612253565b60408051600080825260208201909252610a489183919061227d565b50565b610a7d6040518060a0016040528060608152602001606081526020016000815260200160008152602001600081525090565b6000858152610164602090815260408083206001600160a01b0388168452825280832080548251818502810185019093528083529192909190830182828015610ae557602002820191906000526020600020905b815481526020019060010190808311610ad1575b5050604051628d493160e71b8152600481018b90526001600160a01b038a811660248301529495506000947f00000000000000000000000000000000000000000000000000000000000000001693506346a498809250604401905060206040518083038186803b158015610b5857600080fd5b505afa158015610b6c573d6000803e3d6000fd5b505050506040513d601f19601f82011682018060405250810190610b909190614a1e565b905060006040518060800160405280610ba98885612120565b815260200160008152602001600081526020016000815250905084610bcd57600081525b60006040518060a00160405280855167ffffffffffffffff811115610bf457610bf4614534565b604051908082528060200260200182016040528015610c1d578160200160208202803683370190505b508152602001855167ffffffffffffffff811115610c3d57610c3d614534565b604051908082528060200260200182016040528015610c66578160200160208202803683370190505b50815283516020808301919091528401805160408084019190915290516060909201919091528351905163391c364560e11b8152600481018c90526001600160a01b038b8116602483015260448201929092529192507f000000000000000000000000000000000000000000000000000000000000000016906372386c8a9060640160206040518083038186803b158015610d0057600080fd5b505afa158015610d14573d6000803e3d6000fd5b505050506040513d601f19601f82011682018060405250810190610d389190614a1e565b60208301528351610da2578151871115610d6c57600060408201819052606082018190526080820152935061115b92505050565b81516040808301919091526020830180516060840152908301519051610d929190614a37565b6080820152935061115b92505050565b600087118015610db3575060008451115b1561112a576000610163600086600081518110610dd257610dd261493f565b60209081029190910181015182528181019290925260409081016000908120825160e0810184528154815260018201546001600160a01b039081169582019590955260028201549381019390935260038101546060840152600481015484166080840152600581015460a08401526006015490921660c08201529150805b8651811015610f2f5760006101636000898481518110610e7257610e7261493f565b6020908102919091018101518252818101929092526040908101600020815160e0810183528154815260018201546001600160a01b0390811694820194909452600282015492810192909252600381015460608301819052600482015484166080840152600582015460a084015260069091015490921660c08201529150610efa5750610f1d565b60a081015115610f1b578360a001518160a001511015610f1b578093508192505b505b80610f278161496b565b915050610e50565b50610f4382856020015186600001516123f7565b158015610f51575083518911155b15610f8f5783516040808501919091526020850180516060860152908501519051610f7c9190614a37565b60808401525090945061115b9350505050565b6000610f9f8a8460600151612120565b85519091508a1415610fd25784518111610fcd578085600001818151610fc59190614a4f565b905250610fd2565b600085525b610fdc818b614a4f565b9950808360a00151610fee9190614a66565b8560400151610ffd9190614a37565b6040868101919091528551905163391c364560e11b8152600481018e90526001600160a01b038d8116602483015260448201929092527f0000000000000000000000000000000000000000000000000000000000000000909116906372386c8a9060640160206040518083038186803b15801561107957600080fd5b505afa15801561108d573d6000803e3d6000fd5b505050506040513d601f19601f820116820180604052508101906110b19190614a1e565b6020860152825184516060870151815181106110cf576110cf61493f565b6020026020010181815250508084602001518660600151815181106110f6576110f661493f565b60200260200101818152505061110c878361246a565b60608601805191985061111e8261496b565b81525050505050610da2565b815160408083019190915260208301805160608401529083015190516111509190614a37565b608082015293505050505b949350505050565b600054610100900460ff16158080156111835750600054600160ff909116105b8061119d5750303b15801561119d575060005460ff166001145b6112005760405162461bcd60e51b815260206004820152602e60248201527f496e697469616c697a61626c653a20636f6e747261637420697320616c72656160448201526d191e481a5b9a5d1a585b1a5e995960921b6064820152608401610958565b6000805460ff191660011790558015611223576000805461ff0019166101001790555b61122c8361257a565b6112346126db565b61016180546001600160a01b0319166001600160a01b03841617905561125b61c350612046565b80156108d7576000805461ff0019169055604051600181527f7f26b83ff96e1f2b6a682f133852f6798a09c465da95921460cefb38474024989060200160405180910390a1505050565b306001600160a01b037f00000000000000000000000000000000000000000000000000000000000000001614156112ee5760405162461bcd60e51b815260040161095890614986565b7f00000000000000000000000000000000000000000000000000000000000000006001600160a01b0316611337600080516020614c9d833981519152546001600160a01b031690565b6001600160a01b03161461135d5760405162461bcd60e51b8152600401610958906149d2565b61136682612253565b6107408282600161227d565b600061137c6121bf565b60008381526101636020908152604091829020825160e0810184528154815260018201546001600160a01b0390811693820184905260028301549482019490945260038201546060820152600482015484166080820152600582015460a0820152600690910154831660c0820152929350908316146114635760405162461bcd60e51b815260206004820152603e60248201527f4d656c616e642e4d61726b6574706c6163652363616e63656c4f726465723a2060448201527f546865206f70657261746f72206973206e6f74207468652073656c6c657200006064820152608401610958565b60008160600151116114dd5760405162461bcd60e51b815260206004820152603d60248201527f4d656c616e642e4d61726b6574706c6163652363616e63656c4f726465723a2060448201527f546865206f7264657220697320616c72656164792065786563757465640000006064820152608401610958565b6080810151604080830151610161549151631e3d5cd960e21b81526001600160a01b03808516600483015260248201839052919260009216906378f573649060440160206040518083038186803b15801561153757600080fd5b505afa15801561154b573d6000803e3d6000fd5b505050506040513d601f19601f8201168201806040525081019061156f9190614a1e565b9050611582838330888860600151612748565b600060608501818152878252610163602090815260409283902087518155908701516001820180546001600160a01b03199081166001600160a01b0393841617909155938801516002830155915160038201556080870151600482018054851691841691909117905560a0870151600582015560c0870151600690910180549093169181169190911790915561161a90829088612977565b6040518681527fc41f4ceb2938876c35e61b705e9d2f18a02c4a26ce5e049a6308a943d46851b39060200160405180910390a1505050505050565b6000306001600160a01b037f000000000000000000000000000000000000000000000000000000000000000016146116f55760405162461bcd60e51b815260206004820152603860248201527f555550535570677261646561626c653a206d757374206e6f742062652063616c60448201527f6c6564207468726f7567682064656c656761746563616c6c00000000000000006064820152608401610958565b50600080516020614c9d83398151915290565b60006117126121bf565b90506108d7838383612bb4565b60009182526065602090815260408084206001600160a01b0393909316845291905290205460ff1690565b600061175887868685610a4b565b905060006117646121bf565b905061271061177585612774614a66565b61177f9190614a85565b826080015111156117f85760405162461bcd60e51b815260206004820152603a60248201527f4d656c616e642e4d61726b6574706c616365236175746f4275793a205468652060448201527f746f74616c207072696365206973206e6f7420636f72726563740000000000006064820152608401610958565b604051636eb1769f60e11b81526001600160a01b0382811660048301523060248301526000919088169063dd62ed3e9060440160206040518083038186803b15801561184357600080fd5b505afa158015611857573d6000803e3d6000fd5b505050506040513d601f19601f8201168201806040525081019061187b9190614a1e565b905082608001518110156118f75760405162461bcd60e51b815260206004820152603760248201527f4d656c616e642e4d61726b6574706c616365236175746f4275793a205468652060448201527f616c6c6f77616e6365206973206e6f7420656e6f7567680000000000000000006064820152608401610958565b60005b8351518110156119905760008460000151828151811061191c5761191c61493f565b60200260200101519050600081111561197d576000856020015183815181106119475761194761493f565b602002602001015190506000610163600084815260200190815260200160002060050154905061197a838d888585612d55565b50505b50806119888161496b565b9150506118fa565b50604083015115611b64576040516344d662f760e01b8152600481018a90526001600160a01b0388811660248301527f000000000000000000000000000000000000000000000000000000000000000016906344d662f790604401600060405180830381600087803b158015611a0557600080fd5b505af1158015611a19573d6000803e3d6000fd5b50505060608401516040516323b872dd60e01b81526001600160a01b038a1692506323b872dd91611a709186917f000000000000000000000000000000000000000000000000000000000000000091600401614aa7565b602060405180830381600087803b158015611a8a57600080fd5b505af1158015611a9e573d6000803e3d6000fd5b505050506040513d601f19601f82011682018060405250810190611ac29190614acb565b506040838101519051632d79471160e01b8152600481018b90526001600160a01b03898116602483015284811660448301526064820192909252608481018a90527f000000000000000000000000000000000000000000000000000000000000000090911690632d7947119060a401600060405180830381600087803b158015611b4b57600080fd5b505af1158015611b5f573d6000803e3d6000fd5b505050505b505050505050505050565b600080611b7f6004828587614ae8565b611b8891614b12565b90506001600160e01b03198116635a7ec86f60e11b14611c1f5760405162461bcd60e51b815260206004820152604660248201527f4d656c616e642e4d61726b6574706c616365236f6e455243313135354261746360448201527f685265636569766564353a20496e76616c69642066756e6374696f6e207369676064820152656e617475726560d01b608482015260a401610958565b600080611c2f8560048189614ae8565b810190611c3c91906143c2565b90925090506001600160a01b0381163b611cd75760405162461bcd60e51b815260206004820152605060248201527f4d656c616e642e4d61726b6574706c616365236f6e455243313135354261746360448201527f685265636569766564313a2054686520616363657074656420746f6b656e206960648201526f1cc81b9bdd08184818dbdb9d1c9858dd60821b608482015260a401610958565b60005b8851811015611d5657611d44611cee6121bf565b8b8b8481518110611d0157611d0161493f565b60200260200101518b8581518110611d1b57611d1b61493f565b60200260200101518c8681518110611d3557611d3561493f565b602002602001015188886133b7565b80611d4e8161496b565b915050611cda565b5063bc197c8160e01b9a9950505050505050505050565b6000611d776121bf565b9050611d868585838686612d55565b5050505050565b600082815260656020526040902060010154611da881612035565b6108d783836121ce565b6040805160018082528183019092526000918291906020808301908036833750506040805160018082528183019092529293506000929150602080830190803683370190505090508682600081518110611e0e57611e0e61493f565b6020026020010181815250508581600081518110611e2e57611e2e61493f565b602002602001018181525050611e48898984848989611b6f565b6001600160e01b03191663bc197c8160e01b14611ecf576040805162461bcd60e51b81526020600482015260248101919091527f4d656c616e642e4d61726b6574706c616365236f6e455243313135355265636560448201527f697665643a20494e56414c49445f4f4e52454345495645445f4d4553534147456064820152608401610958565b5063f23a6e6160e01b98975050505050505050565b600088815261016360209081526040808320815160e0810183528154815260018201546001600160a01b039081169482019490945260028201549281019290925260038101546060830152600481015483166080830152600581015460a08301526006015490911660c082015290611f5a6121bf565b90506000611f68888a614a66565b60c084015160405163d505accf60e01b81526001600160a01b03858116600483015230602483015260448201849052606482018b905260ff8a16608483015260a4820189905260c4820188905292935091169063d505accf9060e401600060405180830381600087803b158015611fde57600080fd5b505af1158015611ff2573d6000803e3d6000fd5b505050506120038b8b848c8c612d55565b5050505050505050505050565b60006001600160e01b03198216630271189760e51b1480610707575061070782613862565b610a48816120416121bf565b613897565b620f424081106120e45760405162461bcd60e51b815260206004820152605860248201527f4d656c616e642e4d61726b6574706c616365235f7365744f776e65724375745060448201527f65724d696c6c696f6e3a20546865206f776e6572206375742073686f756c642060648201527f6265206265747765656e203020616e64203939392c3939390000000000000000608482015260a401610958565b6101628190556040518181527ffa406a120a9e7f2b332bfb7a43d3bf1c3f079262202907a6b69c94b2821a02c69060200160405180910390a150565b600081831015612131575081610707565b5080610707565b612142828261171f565b6107405760008281526065602090815260408083206001600160a01b03851684529091529020805460ff1916600117905561217b6121bf565b6001600160a01b0316816001600160a01b0316837f2f8788117e7eff1d82e926ec794901d17c78024a50270940304540a733656f0d60405160405180910390a45050565b60006121c96138fb565b905090565b6121d8828261171f565b156107405760008281526065602090815260408083206001600160a01b03851684529091529020805460ff1916905561220f6121bf565b6001600160a01b0316816001600160a01b0316837ff6391f5c32d9c69d2a47ea670b442974b53935d1edc7fd64eb21e047a839171b60405160405180910390a45050565b7f189ab7a9244df0848122154315af71fe140f3db0fe014031783b0946b8c9d2e361074081612035565b7f4910fdfa16fed3260ed0e7147f7cc6da11a60208b5b9406d12a635614ffd91435460ff16156122b0576108d783613940565b826001600160a01b03166352d1902d6040518163ffffffff1660e01b815260040160206040518083038186803b1580156122e957600080fd5b505afa925050508015612319575060408051601f3d908101601f1916820190925261231691810190614a1e565b60015b61237c5760405162461bcd60e51b815260206004820152602e60248201527f45524331393637557067726164653a206e657720696d706c656d656e7461746960448201526d6f6e206973206e6f74205555505360901b6064820152608401610958565b600080516020614c9d83398151915281146123eb5760405162461bcd60e51b815260206004820152602960248201527f45524331393637557067726164653a20756e737570706f727465642070726f786044820152681a58589b195555525160ba1b6064820152608401610958565b506108d78383836139dc565b60008161240657506001612463565b60a084015161016254600090620f4240906124219084614a66565b61242b9190614a85565b90506124378183614a37565b915060006124458587614a85565b90508083101561245b5760019350505050612463565b600093505050505b9392505050565b606060006001845161247c9190614a4f565b67ffffffffffffffff81111561249457612494614534565b6040519080825280602002602001820160405280156124bd578160200160208202803683370190505b50905060005b8151811015612572578381141580156124db57508381105b1561251d578481815181106124f2576124f261493f565b602002602001015182828151811061250c5761250c61493f565b602002602001018181525050612560565b84612529826001614a37565b815181106125395761253961493f565b60200260200101518282815181106125535761255361493f565b6020026020010181815250505b8061256a8161496b565b9150506124c3565b509392505050565b6125826126db565b61258d600082612138565b6125b77ff5eb84615c2a00ecaf817d13794ebd6299c9e01c395bf4018453f13f577f544982612138565b6125e17f9f2df0fed2c77648de5860a4cc508cd0818c85b8b8a1ab4ceeef8d981c8956a682612138565b61260b7f189ab7a9244df0848122154315af71fe140f3db0fe014031783b0946b8c9d2e333612138565b5060408051808201825260068152651b595b185b9960d21b6020918201528151808301835260018152603160f81b9082015281517f8b73c3c69bb8fe3d512ecc4cf759cc79239f7b179b0ffacaa9a75d522b39400f818301527f314ed1331a8d68d6e7c652158abe27c46bf91bd45ef86ab66f92d6500b1056eb818401527fc89efdaa54c0f20c7adf612882df0950f5a951637e0307cdcb4c672f298b8bc660608201524660808201523060a0808301919091528351808303909101815260c09091019092528151910120609755565b600054610100900460ff166127465760405162461bcd60e51b815260206004820152602b60248201527f496e697469616c697a61626c653a20636f6e7472616374206973206e6f74206960448201526a6e697469616c697a696e6760a81b6064820152608401610958565b565b6040516301ffc9a760e01b815285906001600160a01b038216906301ffc9a79061277d906380ac58cd60e01b90600401614820565b60206040518083038186803b15801561279557600080fd5b505afa1580156127a9573d6000803e3d6000fd5b505050506040513d601f19601f820116820180604052508101906127cd9190614acb565b1561283957604051632142170760e11b81526001600160a01b038716906342842e0e9061280290879087908a90600401614aa7565b600060405180830381600087803b15801561281c57600080fd5b505af1158015612830573d6000803e3d6000fd5b5050505061296f565b6040516301ffc9a760e01b81526001600160a01b038216906301ffc9a79061286c90636cdb3d1360e11b90600401614820565b60206040518083038186803b15801561288457600080fd5b505afa158015612898573d6000803e3d6000fd5b505050506040513d601f19601f820116820180604052508101906128bc9190614acb565b1561291357604051637921219560e11b81526001600160a01b0385811660048301528481166024830152604482018790526064820184905260a06084830152600060a483015287169063f242432a9060c401612802565b60405162461bcd60e51b815260206004820152603f6024820152600080516020614c7d83398151915260448201527f3a206e6674206d75737420626520657263373231206f722065726331313535006064820152608401610958565b505050505050565b6000838152610164602090815260408083206001600160a01b0386168452909152812054815b81811015612a08576000868152610164602090815260408083206001600160a01b038916845290915290208054859190839081106129dd576129dd61493f565b906000526020600020015414156129f657809250612a08565b80612a008161496b565b91505061299d565b506000858152610164602090815260408083206001600160a01b03881684529091529020805484919084908110612a4157612a4161493f565b906000526020600020015414612ad85760405162461bcd60e51b815260206004820152605060248201527f4d656c616e642e4d61726b6574706c616365235f72656d6f76654f726465724960448201527f6473427950726f647563744964416e644552433230416464726573733a20206f60648201526f1c99195c9259081b9bdd08199bdd5b9960821b608482015260a401610958565b6000858152610164602090815260408083206001600160a01b03881684529091528120612b06600184614a4f565b81548110612b1657612b1661493f565b6000918252602080832090910154888352610164825260408084206001600160a01b038a16855290925291208054919250829185908110612b5957612b5961493f565b6000918252602080832090910192909255878152610164825260408082206001600160a01b038916835290925220805480612b9657612b96614b42565b60019003818190600052602060002001600090559055505050505050565b60008381526101636020908152604091829020825160e0810184528154815260018201546001600160a01b0390811693820184905260028301549482019490945260038201546060820152600482015484166080820152600582015460a0820152600690910154831660c082015291831614612c985760405162461bcd60e51b815260206004820152603f60248201527f4d656c616e642e4d61726b6574706c616365235f7570646174654f726465723a60448201527f20546865206f70657261746f72206973206e6f74207468652073656c6c6572006064820152608401610958565b60a081018381526000858152610163602090815260409182902084518155818501516001820180546001600160a01b03199081166001600160a01b039384161790915584870151600284015560608701516003840155608087015160048401805483169184169190911790559451600583015560c086015160069092018054909516911617909255518581527fb8b459bc0688c37baf5f735d17f1711684bc14ab7db116f88bc18bf409b9309a910160405180910390a150505050565b60008581526101636020908152604091829020825160e0810184528154815260018201546001600160a01b0390811693820193909352600282015493810193909352600381015460608401819052600482015483166080850152600582015460a085015260069091015490911660c0830152612e3b5760405162461bcd60e51b815260206004820152604b6024820152600080516020614c7d83398151915260448201527f3a20546865206f7264657220616d6f756e742073686f756c642062652067726560648201526a061746572207468616e20360ac1b608482015260a401610958565b60008160a0015111612eb65760405162461bcd60e51b815260206004820152604a6024820152600080516020614c7d83398151915260448201527f3a20546865206f726465722070726963652073686f756c6420626520677265616064820152690746572207468616e20360b41b608482015260a401610958565b8281606001511015612f295760405162461bcd60e51b81526020600482015260426024820152600080516020614c7d83398151915260448201527f3a20496e73756666696369656e742072656d61696e696e67207175616e74697460648201526103c960f51b608482015260a401610958565b60c0810151604051636eb1769f60e11b81526001600160a01b038681166004830152306024830152600092169063dd62ed3e9060440160206040518083038186803b158015612f7757600080fd5b505afa158015612f8b573d6000803e3d6000fd5b505050506040513d601f19601f82011682018060405250810190612faf9190614a1e565b90506000612fbd8486614a66565b9050808210156130235760405162461bcd60e51b81526020600482015260386024820152600080516020614c7d83398151915260448201527f3a20496e73756666696369656e7420616c6c6f77616e636500000000000000006064820152608401610958565b84836060018181516130359190614a4f565b90525060008881526101636020908152604080832086518155918601516001830180546001600160a01b03199081166001600160a01b0393841617909155918701516002840155606087015160038401556080870151600484018054841691831691909117905560a0870151600584015560c08701516006909301805490921692169190911790556101625415613174576130e9620f42406130e36101625485613a0790919063ffffffff16565b90613a13565b60c08501516040516323b872dd60e01b81529192506001600160a01b0316906323b872dd90613120908a9030908690600401614aa7565b602060405180830381600087803b15801561313a57600080fd5b505af115801561314e573d6000803e3d6000fd5b505050506040513d601f19601f820116820180604052508101906131729190614acb565b505b8360c001516001600160a01b03166323b872dd8886602001516131a08587613a1f90919063ffffffff16565b6040518463ffffffff1660e01b81526004016131be93929190614aa7565b602060405180830381600087803b1580156131d857600080fd5b505af11580156131ec573d6000803e3d6000fd5b505050506040513d601f19601f820116820180604052508101906132109190614acb565b61328b5760405162461bcd60e51b81526020600482015260526024820152600080516020614c7d83398151915260448201527f3a205472616e73666572696e67207468652073616c6520616d6f756e7420746f606482015271081d1a19481cd95b1b195c8819985a5b195960721b608482015260a401610958565b608084015160408501516132a28282308c8c612748565b61016154604051631e3d5cd960e21b81526001600160a01b0384811660048301526024820184905260009216906378f573649060440160206040518083038186803b1580156132f057600080fd5b505afa158015613304573d6000803e3d6000fd5b505050506040513d601f19601f820116820180604052508101906133289190614a1e565b905086606001516000141561334a5761334a818860c001518960000151612977565b606080880151604080518f8152602081018d90529081018e90529015918101919091526001600160a01b038b1660808201527f569ef66fe6ae3e6eb50dcc1e105d224ac35859bc2e8f0db8751259ef848a3f4f9060a00160405180910390a1505050505050505050505050565b6133c661016080546001019055565b6001600160a01b0387163b61341d5760405162461bcd60e51b815260206004820152601960248201527f546865206e6674206973206e6f74206120636f6e7472616374000000000000006044820152606401610958565b6000821161346d5760405162461bcd60e51b815260206004820152601d60248201527f50726963652073686f756c6420626520626967676572207468616e20300000006044820152606401610958565b6040516301ffc9a760e01b815287906001600160a01b038216906301ffc9a7906134a2906380ac58cd60e01b90600401614820565b60206040518083038186803b1580156134ba57600080fd5b505afa1580156134ce573d6000803e3d6000fd5b505050506040513d601f19601f820116820180604052508101906134f29190614acb565b15613508576135038887878a613a2b565b61360b565b6040516301ffc9a760e01b81526001600160a01b038216906301ffc9a79061353b90636cdb3d1360e11b90600401614820565b60206040518083038186803b15801561355357600080fd5b505afa158015613567573d6000803e3d6000fd5b505050506040513d601f19601f8201168201806040525081019061358b9190614acb565b1561359d57613503888787878b613d47565b60405162461bcd60e51b815260206004820152603e60248201527f4d656c616e642e4d61726b6574706c616365235f6372656174654f726465723a60448201527f206e6674206d75737420626520657263373231206f72206572633131353500006064820152608401610958565b61016154604051631e3d5cd960e21b81526001600160a01b038a811660048301526024820189905260009216906378f573649060440160206040518083038186803b15801561365957600080fd5b505afa15801561366d573d6000803e3d6000fd5b505050506040513d601f19601f820116820180604052508101906136919190614a1e565b9050600061369f6101605490565b905060006040518060e001604052808381526020018b6001600160a01b031681526020018a81526020018981526020018c6001600160a01b03168152602001878152602001866001600160a01b031681525090508061016360008481526020019081526020016000206000820151816000015560208201518160010160006101000a8154816001600160a01b0302191690836001600160a01b03160217905550604082015181600201556060820151816003015560808201518160040160006101000a8154816001600160a01b0302191690836001600160a01b0316021790555060a0820151816005015560c08201518160060160006101000a8154816001600160a01b0302191690836001600160a01b031602179055509050506137c5838684613f68565b6040805183815282516020808301919091528301516001600160a01b039081168284015283830151606080840191909152840151608080840191909152840151811660a08084019190915284015160c0808401919091528401511660e0820152905184917f7143c15ea91a043a495258cbcdf26cc5e0c5697d3e0c2b67bfbf4432cbe5975891908190036101000190a25050505050505050505050565b60006001600160e01b03198216637965db0b60e01b148061070757506301ffc9a760e01b6001600160e01b0319831614610707565b6138a1828261171f565b610740576138b9816001600160a01b03166014614001565b6138c4836020614001565b6040516020016138d5929190614b84565b60408051601f198184030181529082905262461bcd60e51b825261095891600401614bf9565b60007f00000000000000000000000000000000000000000000000000000000000000006001600160a01b031633141561393b575060131936013560601c90565b503390565b6001600160a01b0381163b6139ad5760405162461bcd60e51b815260206004820152602d60248201527f455243313936373a206e657720696d706c656d656e746174696f6e206973206e60448201526c1bdd08184818dbdb9d1c9858dd609a1b6064820152608401610958565b600080516020614c9d83398151915280546001600160a01b0319166001600160a01b0392909216919091179055565b6139e58361419d565b6000825111806139f25750805b156108d757613a0183836141dd565b50505050565b60006124638284614a66565b60006124638284614a85565b60006124638284614a4f565b6040516331a9108f60e11b8152600481018490526001600160a01b038083169190861690636352211e9060240160206040518083038186803b158015613a7057600080fd5b505afa158015613a84573d6000803e3d6000fd5b505050506040513d601f19601f82011682018060405250810190613aa89190614c2c565b6001600160a01b031614613b385760405162461bcd60e51b815260206004820152604b60248201527f4d656c616e642e4d61726b6574706c6163652365726337323176616c6964617460448201527f653a205468652073656e646572206973206e6f7420746865206f776e6572206f60648201526a33103a3432903a37b5b2b760a91b608482015260a401610958565b60405163020604bf60e21b81526004810184905230906001600160a01b0386169063081812fc9060240160206040518083038186803b158015613b7a57600080fd5b505afa158015613b8e573d6000803e3d6000fd5b505050506040513d601f19601f82011682018060405250810190613bb29190614c2c565b6001600160a01b03161480613c41575060405163e985e9c560e01b81526001600160a01b03828116600483015230602483015285169063e985e9c59060440160206040518083038186803b158015613c0957600080fd5b505afa158015613c1d573d6000803e3d6000fd5b505050506040513d601f19601f82011682018060405250810190613c419190614acb565b613cd15760405162461bcd60e51b815260206004820152605560248201527f4d656c616e642e4d61726b6574706c6163652365726337323176616c6964617460448201527f653a2054686520636f6e7472616374206973206e6f7420617574686f72697a6560648201527419081d1bc81b585b9859d9481d1a1948185cdcd95d605a1b608482015260a401610958565b81600114613a015760405162461bcd60e51b815260206004820152603960248201527f4d656c616e642e4d61726b6574706c6163652365726337323176616c6964617460448201527f653a2054686520616d6f756e742073686f756c642062652031000000000000006064820152608401610958565b818314611d8657604051627eeac760e11b81526001600160a01b038281166004830152602482018690526000919087169062fdd58e9060440160206040518083038186803b158015613d9857600080fd5b505afa158015613dac573d6000803e3d6000fd5b505050506040513d601f19601f82011682018060405250810190613dd09190614a1e565b11613e515760405162461bcd60e51b815260206004820152604560248201527f4d656c616e642e4d61726b6574706c616365235f6572633131353576616c696460448201527f6174653a204f6e6c7920746865206f776e65722063616e20637265617465206f606482015264726465727360d81b608482015260a401610958565b60405163e985e9c560e01b81526001600160a01b03828116600483015230602483015286169063e985e9c59060440160206040518083038186803b158015613e9857600080fd5b505afa158015613eac573d6000803e3d6000fd5b505050506040513d601f19601f82011682018060405250810190613ed09190614acb565b611d865760405162461bcd60e51b815260206004820152605760248201527f4d656c616e642e4d61726b6574706c616365235f6572633131353576616c696460448201527f6174653a2054686520636f6e7472616374206973206e6f7420617574686f726960648201527f7a656420746f206d616e61676520746865206173736574000000000000000000608482015260a401610958565b6000838152610164602090815260408083206001600160a01b0386168452909152902054613fc9576040805160208082018352838252600086815261016482528381206001600160a01b038716825290915291909120613a0191600161430a565b6000838152610164602090815260408083206001600160a01b0386168452825282208054600181018255908352912001819055505050565b60606000614010836002614a66565b61401b906002614a37565b67ffffffffffffffff81111561403357614033614534565b6040519080825280601f01601f19166020018201604052801561405d576020820181803683370190505b509050600360fc1b816000815181106140785761407861493f565b60200101906001600160f81b031916908160001a905350600f60fb1b816001815181106140a7576140a761493f565b60200101906001600160f81b031916908160001a90535060006140cb846002614a66565b6140d6906001614a37565b90505b600181111561414e576f181899199a1a9b1b9c1cb0b131b232b360811b85600f166010811061410a5761410a61493f565b1a60f81b8282815181106141205761412061493f565b60200101906001600160f81b031916908160001a90535060049490941c9361414781614c49565b90506140d9565b5083156124635760405162461bcd60e51b815260206004820181905260248201527f537472696e67733a20686578206c656e67746820696e73756666696369656e746044820152606401610958565b6141a681613940565b6040516001600160a01b038216907fbc7cd75a20ee27fd9adebab32041f755214dbc6bffa90cc0225b39da2e5c2d3b90600090a250565b60606001600160a01b0383163b6142455760405162461bcd60e51b815260206004820152602660248201527f416464726573733a2064656c65676174652063616c6c20746f206e6f6e2d636f6044820152651b9d1c9858dd60d21b6064820152608401610958565b600080846001600160a01b0316846040516142609190614c60565b600060405180830381855af49150503d806000811461429b576040519150601f19603f3d011682016040523d82523d6000602084013e6142a0565b606091505b50915091506142c88282604051806060016040528060278152602001614cbd602791396142d1565b95945050505050565b606083156142e0575081612463565b8251156142f05782518084602001fd5b8160405162461bcd60e51b81526004016109589190614bf9565b828054828255906000526020600020908101928215614345579160200282015b8281111561434557825182559160200191906001019061432a565b50614351929150614355565b5090565b5b808211156143515760008155600101614356565b60006020828403121561437c57600080fd5b81356001600160e01b03198116811461246357600080fd5b6000602082840312156143a657600080fd5b5035919050565b6001600160a01b0381168114610a4857600080fd5b600080604083850312156143d557600080fd5b8235915060208301356143e7816143ad565b809150509250929050565b60006020828403121561440457600080fd5b8135612463816143ad565b8015158114610a4857600080fd5b6000806000806080858703121561443357600080fd5b843593506020850135614445816143ad565b925060408501359150606085013561445c8161440f565b939692955090935050565b600081518084526020808501945080840160005b838110156144975781518752958201959082019060010161447b565b509495945050505050565b602081526000825160a060208401526144be60c0840182614467565b90506020840151601f198483030160408501526144db8282614467565b9150506040840151606084015260608401516080840152608084015160a08401528091505092915050565b6000806040838503121561451957600080fd5b8235614524816143ad565b915060208301356143e7816143ad565b634e487b7160e01b600052604160045260246000fd5b604051601f8201601f1916810167ffffffffffffffff8111828210171561457357614573614534565b604052919050565b6000806040838503121561458e57600080fd5b8235614599816143ad565b915060208381013567ffffffffffffffff808211156145b757600080fd5b818601915086601f8301126145cb57600080fd5b8135818111156145dd576145dd614534565b6145ef601f8201601f1916850161454a565b9150808252878482850101111561460557600080fd5b80848401858401376000848284010152508093505050509250929050565b6000806040838503121561463657600080fd5b50508035926020909101359150565b60008060008060008060c0878903121561465e57600080fd5b86359550602087013594506040870135614677816143ad565b9350606087013592506080870135915060a08701356146958161440f565b809150509295509295509295565b600082601f8301126146b457600080fd5b8135602067ffffffffffffffff8211156146d0576146d0614534565b8160051b6146df82820161454a565b92835284810182019282810190878511156146f957600080fd5b83870192505b84831015614718578235825291830191908301906146ff565b979650505050505050565b60008083601f84011261473557600080fd5b50813567ffffffffffffffff81111561474d57600080fd5b60208301915083602082850101111561476557600080fd5b9250929050565b60008060008060008060a0878903121561478557600080fd5b8635614790816143ad565b955060208701356147a0816143ad565b9450604087013567ffffffffffffffff808211156147bd57600080fd5b6147c98a838b016146a3565b955060608901359150808211156147df57600080fd5b6147eb8a838b016146a3565b9450608089013591508082111561480157600080fd5b5061480e89828a01614723565b979a9699509497509295939492505050565b6001600160e01b031991909116815260200190565b6000806000806080858703121561484b57600080fd5b5050823594602084013594506040840135936060013592509050565b60008060008060008060a0878903121561488057600080fd5b863561488b816143ad565b9550602087013561489b816143ad565b94506040870135935060608701359250608087013567ffffffffffffffff8111156148c557600080fd5b61480e89828a01614723565b600080600080600080600080610100898b0312156148ee57600080fd5b883597506020890135965060408901359550606089013594506080890135935060a089013560ff8116811461492257600080fd5b979a969950949793969295929450505060c08201359160e0013590565b634e487b7160e01b600052603260045260246000fd5b634e487b7160e01b600052601160045260246000fd5b600060001982141561497f5761497f614955565b5060010190565b6020808252602c908201527f46756e6374696f6e206d7573742062652063616c6c6564207468726f7567682060408201526b19195b1959d85d1958d85b1b60a21b606082015260800190565b6020808252602c908201527f46756e6374696f6e206d7573742062652063616c6c6564207468726f7567682060408201526b6163746976652070726f787960a01b606082015260800190565b600060208284031215614a3057600080fd5b5051919050565b60008219821115614a4a57614a4a614955565b500190565b600082821015614a6157614a61614955565b500390565b6000816000190483118215151615614a8057614a80614955565b500290565b600082614aa257634e487b7160e01b600052601260045260246000fd5b500490565b6001600160a01b039384168152919092166020820152604081019190915260600190565b600060208284031215614add57600080fd5b81516124638161440f565b60008085851115614af857600080fd5b83861115614b0557600080fd5b5050820193919092039150565b6001600160e01b03198135818116916004851015614b3a5780818660040360031b1b83161692505b505092915050565b634e487b7160e01b600052603160045260246000fd5b60005b83811015614b73578181015183820152602001614b5b565b83811115613a015750506000910152565b7f416363657373436f6e74726f6c3a206163636f756e7420000000000000000000815260008351614bbc816017850160208801614b58565b7001034b99036b4b9b9b4b733903937b6329607d1b6017918401918201528351614bed816028840160208801614b58565b01602801949350505050565b6020815260008251806020840152614c18816040850160208701614b58565b601f01601f19169190910160400192915050565b600060208284031215614c3e57600080fd5b8151612463816143ad565b600081614c5857614c58614955565b506000190190565b60008251614c72818460208701614b58565b919091019291505056fe4d656c616e642e4d61726b6574706c616365235f657865637574654f72646572360894a13ba1a3210667c828492db98dca3e2076cc3735a920a3ca505d382bbc416464726573733a206c6f772d6c6576656c2064656c65676174652063616c6c206661696c6564a2646970667358221220be5810f3885b02a0d8d02a93f5069c0040ef4482266f1f79639da585452060fd64736f6c63430008090033",
  "immutableReferences": {
    "566": [
      {
        "length": 32,
        "start": 995
      },
      {
        "length": 32,
        "start": 14591
      }
    ],
    "1390": [
      {
        "length": 32,
        "start": 2422
      },
      {
        "length": 32,
        "start": 2486
      },
      {
        "length": 32,
        "start": 4784
      },
      {
        "length": 32,
        "start": 4848
      },
      {
        "length": 32,
        "start": 5730
      }
    ],
    "6742": [
      {
        "length": 32,
        "start": 1412
      },
      {
        "length": 32,
        "start": 2834
      },
      {
        "length": 32,
        "start": 3262
      },
      {
        "length": 32,
        "start": 4149
      },
      {
        "length": 32,
        "start": 6593
      },
      {
        "length": 32,
        "start": 6728
      },
      {
        "length": 32,
        "start": 6917
      }
    ]
  },
  "source": "// SPDX-License-Identifier: MIT\npragma solidity 0.8.9;\n\nimport \"@openzeppelin/contracts-upgradeable/access/AccessControlUpgradeable.sol\";\nimport \"@openzeppelin/contracts-upgradeable/proxy/utils/Initializable.sol\";\nimport \"@openzeppelin/contracts-upgradeable/proxy/utils/UUPSUpgradeable.sol\";\nimport \"@openzeppelin/contracts-upgradeable/token/ERC20/IERC20Upgradeable.sol\";\nimport \"@openzeppelin/contracts-upgradeable/token/ERC20/extensions/draft-IERC20PermitUpgradeable.sol\";\nimport \"@openzeppelin/contracts-upgradeable/token/ERC721/IERC721Upgradeable.sol\";\nimport \"@openzeppelin/contracts-upgradeable/token/ERC1155/IERC1155Upgradeable.sol\";\nimport \"@openzeppelin/contracts-upgradeable/token/ERC1155/utils/ERC1155ReceiverUpgradeable.sol\";\nimport \"@openzeppelin/contracts-upgradeable/security/PausableUpgradeable.sol\";\nimport \"@openzeppelin/contracts-upgradeable/metatx/ERC2771ContextUpgradeable.sol\";\nimport \"@openzeppelin/contracts-upgradeable/utils/CountersUpgradeable.sol\";\nimport \"@openzeppelin/contracts/token/ERC20/extensions/IERC20Metadata.sol\";\nimport \"@openzeppelin/contracts-upgradeable/utils/math/SafeMathUpgradeable.sol\";\nimport \"@openzeppelin/contracts-upgradeable/utils/AddressUpgradeable.sol\";\nimport \"../common/MelandAccessRoles.sol\";\nimport \"../nft/IProductManager.sol\";\nimport \"./IMarketplace.sol\";\nimport \"../swap/IMelandSwapFactory.sol\";\n\ncontract Marketplace is\n    Initializable,\n    IMarketplace,\n    MelandAccessRoles,\n    UUPSUpgradeable,\n    ERC2771ContextUpgradeable,\n    ERC1155ReceiverUpgradeable\n{\n    IMelandSwapFactory public immutable factory;\n\n    bytes4 internal constant ERC1155_RECEIVED_VALUE = 0xf23a6e61;\n    bytes4 internal constant ERC1155_BATCH_RECEIVED_VALUE = 0xbc197c81;\n\n    using AddressUpgradeable for address;\n    using SafeMathUpgradeable for uint256;\n    using CountersUpgradeable for CountersUpgradeable.Counter;\n\n    CountersUpgradeable.Counter private _orderIdCounter;\n\n    IProductManager public productManager;\n\n    uint256 public ownerCutPerMillion;\n\n    mapping(uint256 => Order) public orderById;\n\n    mapping(bytes32 => mapping(address => uint256[]))\n        private _orderIdsByProductIdAndERC20Address;\n\n    /// @custom:oz-upgrades-unsafe-allow constructor\n    constructor(address trustedForwarder, IMelandSwapFactory _factory)\n        ERC2771ContextUpgradeable(trustedForwarder)\n    {\n        factory = _factory;\n    }\n\n    function initialize(address mpc, IProductManager _pm) public initializer {\n        __MelandAccessRoles_init(mpc);\n        __UUPSUpgradeable_init();\n        productManager = _pm;\n        _setOwnerCutPerMillion(50000);\n    }\n\n    // 50000 = 5%\n    // 500000 = 50%\n    function setOwnerCutPerMillion(uint256 _ownerCutPerMillion)\n        public\n        onlyRole(GM_ROLE)\n    {\n        _setOwnerCutPerMillion(_ownerCutPerMillion);\n    }\n\n    function _addOrderIdsByProductIdAndERC20Address(\n        bytes32 productId,\n        address token,\n        uint256 orderId\n    ) private {\n        if (_orderIdsByProductIdAndERC20Address[productId][token].length == 0) {\n            _orderIdsByProductIdAndERC20Address[productId][token] = [orderId];\n        } else {\n            _orderIdsByProductIdAndERC20Address[productId][token].push(orderId);\n        }\n    }\n\n    function _removeOrderIdsByProductIdAndERC20Address(\n        bytes32 productId,\n        address token,\n        uint256 orderId\n    ) private {\n        uint256 index;\n        uint256 length = _orderIdsByProductIdAndERC20Address[productId][token]\n            .length;\n        for (uint256 i = 0; i < length; i++) {\n            if (\n                _orderIdsByProductIdAndERC20Address[productId][token][i] ==\n                orderId\n            ) {\n                index = i;\n                break;\n            }\n        }\n        require(\n            _orderIdsByProductIdAndERC20Address[productId][token][index] ==\n                orderId,\n            \"Meland.Marketplace#_removeOrderIdsByProductIdAndERC20Address:  orderId not found\"\n        );\n        uint256 lastOrderId = _orderIdsByProductIdAndERC20Address[productId][\n            token\n        ][length - 1];\n\n        _orderIdsByProductIdAndERC20Address[productId][token][\n            index\n        ] = lastOrderId;\n\n        _orderIdsByProductIdAndERC20Address[productId][token].pop();\n    }\n\n    function _setOwnerCutPerMillion(uint256 _ownerCutPerMillion) internal {\n        require(\n            _ownerCutPerMillion < 1000000,\n            \"Meland.Marketplace#_setOwnerCutPerMillion: The owner cut should be between 0 and 999,999\"\n        );\n\n        ownerCutPerMillion = _ownerCutPerMillion;\n        emit ChangedOwnerCutPerMillion(ownerCutPerMillion);\n    }\n\n    function _erc721validate(\n        IERC721Upgradeable nft,\n        uint256 tokenId,\n        uint256 amount,\n        address sender\n    ) internal view {\n        require(\n            nft.ownerOf(tokenId) == sender,\n            \"Meland.Marketplace#erc721validate: The sender is not the owner of the token\"\n        );\n\n        require(\n            nft.getApproved(tokenId) == address(this) ||\n                nft.isApprovedForAll(sender, address(this)),\n            \"Meland.Marketplace#erc721validate: The contract is not authorized to manage the asset\"\n        );\n\n        require(\n            amount == 1,\n            \"Meland.Marketplace#erc721validate: The amount should be 1\"\n        );\n    }\n\n    function _erc1155validate(\n        IERC1155Upgradeable nft,\n        uint256 tokenId,\n        uint256 amount,\n        uint256 erc1155recivedAmount,\n        address sender\n    ) internal view {\n        if (amount != erc1155recivedAmount) {\n            require(\n                nft.balanceOf(sender, tokenId) > 0,\n                \"Meland.Marketplace#_erc1155validate: Only the owner can create orders\"\n            );\n            require(\n                nft.isApprovedForAll(sender, address(this)),\n                \"Meland.Marketplace#_erc1155validate: The contract is not authorized to manage the asset\"\n            );\n        }\n    }\n\n    function executeOrderPremit(\n        uint256 orderId,\n        uint256 tknRate,\n        uint256 amount,\n        uint256 priceInWeiForUnit,\n        uint256 deadline,\n        uint8 v,\n        bytes32 r,\n        bytes32 s\n    ) external {\n        Order memory order = orderById[orderId];\n        address buyer = _msgSender();\n        uint256 totalPrice = amount * priceInWeiForUnit;\n        IERC20PermitUpgradeable(address(order.acceptedToken)).permit(\n            buyer,\n            address(this),\n            totalPrice,\n            deadline,\n            v,\n            r,\n            s\n        );\n        _executeOrder(orderId, tknRate, buyer, amount, priceInWeiForUnit);\n    }\n\n    function executeOrder(\n        uint256 orderId,\n        uint256 tknRate,\n        uint256 amount,\n        uint256 priceInWeiForUnit\n    ) external {\n        address buyer = _msgSender();\n        _executeOrder(orderId, tknRate, buyer, amount, priceInWeiForUnit);\n    }\n\n    function updateOrder(uint256 orderId, uint256 priceInWeiForUnit) external {\n        address operator = _msgSender();\n        _updateOrder(orderId, priceInWeiForUnit, operator);\n    }\n\n    function _updateOrder(\n        uint256 orderId,\n        uint256 priceInWeiForUnit,\n        address operator\n    ) internal {\n        Order memory order = orderById[orderId];\n        require(\n            order.seller == operator,\n            \"Meland.Marketplace#_updateOrder: The operator is not the seller\"\n        );\n\n        order.priceInWeiForUnit = priceInWeiForUnit;\n        orderById[orderId] = order;\n\n        emit OrderUpdated(orderId);\n    }\n\n    function _min(uint256 a, uint256 b) private pure returns (uint256) {\n        if (a < b) {\n            return a;\n        } else {\n            return b;\n        }\n    }\n\n    function _removeArrayIndex(uint256[] memory elements, uint256 index)\n        private\n        pure\n        returns (uint256[] memory)\n    {\n        uint256[] memory newElements = new uint256[](elements.length - 1);\n        for (uint256 i = 0; i < newElements.length; i++) {\n            if (i != index && i < index) {\n                newElements[i] = elements[i];\n            } else {\n                newElements[i] = elements[i + 1];\n            }\n        }\n        return newElements;\n    }\n\n    function autoBuy(\n        bytes32 productId,\n        uint256 tknRate,\n        IERC20Upgradeable erc20token,\n        uint256 amount,\n        uint256 totalPrice,\n        bool usePool\n    ) external {\n        AutoBuyFixStack2deepReturns memory ret = autoBuyPrice(\n            productId,\n            address(erc20token),\n            amount,\n            usePool\n        );\n        address buyer = _msgSender();\n        require(\n            ret.needTotalPrice <= (totalPrice * 10100) / 10000,\n            \"Meland.Marketplace#autoBuy: The total price is not correct\"\n        );\n\n        uint256 allowance = erc20token.allowance(buyer, address(this));\n        require(\n            allowance >= ret.needTotalPrice,\n            \"Meland.Marketplace#autoBuy: The allowance is not enough\"\n        );\n\n        for (uint256 i = 0; i < ret.execOrderIds.length; i++) {\n            uint256 orderId = ret.execOrderIds[i];\n            if (orderId > 0) {\n                uint256 orderAmount = ret.execOrderAmounts[i];\n                uint256 priceInWeiForUnit = orderById[orderId]\n                    .priceInWeiForUnit;\n                _executeOrder(\n                    orderId,\n                    tknRate,\n                    buyer,\n                    orderAmount,\n                    priceInWeiForUnit\n                );\n            }\n        }\n\n        if (ret.poolBuyAmount > 0) {\n            // bytes32 productId, IERC20Metadata erc20token, address buyer, uint256 buyamount, uint256 tknRate\n            factory.beginBuy(productId, IERC20Metadata(address(erc20token)));\n            erc20token.transferFrom(buyer, address(factory), ret.poolBuyPrice);\n            factory.buy(\n                productId,\n                IERC20Metadata(address(erc20token)),\n                buyer,\n                ret.poolBuyAmount,\n                tknRate\n            );\n        }\n    }\n\n    function getProductLowestPrice(\n        bytes32 productId,\n        IERC20Upgradeable erc20token\n    ) external view returns (uint256) {\n        uint256[] memory orderIds = _orderIdsByProductIdAndERC20Address[\n            productId\n        ][address(erc20token)];\n\n        if (orderIds.length == 0) {\n            return 0;\n        }\n\n        if (orderIds.length == 1) {\n            return orderById[orderIds[0]].priceInWeiForUnit;\n        }\n\n        uint256 lowestPrice = orderById[orderIds[0]].priceInWeiForUnit;\n        for (uint256 i = 1; i < orderIds.length; i++) {\n            uint256 orderId = orderIds[i];\n            if (orderId > 0) {\n                uint256 priceInWeiForUnit = orderById[orderId]\n                    .priceInWeiForUnit;\n                lowestPrice = _min(lowestPrice, priceInWeiForUnit);\n            }\n        }\n\n        return lowestPrice;\n    }\n\n    function _comparePrice(\n        Order memory order,\n        uint256 poolPrice,\n        uint256 poolAmount\n    ) internal view returns (bool) {\n        if (poolAmount == 0) {\n            return true;\n        }\n        uint256 priceInWeiForUnit = order.priceInWeiForUnit;\n        uint256 fees = (priceInWeiForUnit * ownerCutPerMillion) / 1000000;\n        priceInWeiForUnit += fees;\n        uint256 poolUnitPrice = poolPrice / poolAmount;\n\n        if (priceInWeiForUnit < poolUnitPrice) {\n            return true;\n        }\n\n        return false;\n    }\n\n    // Help users find the cheapest orders\n    function autoBuyPrice(\n        bytes32 productId,\n        address erc20token,\n        uint256 neededAmount,\n        bool usePool\n    ) public view returns (AutoBuyFixStack2deepReturns memory) {\n        uint256[] memory orderIds = _orderIdsByProductIdAndERC20Address[\n            productId\n        ][erc20token];\n        uint256 poolStock = factory.getStock(\n            productId,\n            IERC20Metadata(erc20token)\n        );\n        AutoBuyFixStack2deep memory params = AutoBuyFixStack2deep(\n            _min(neededAmount, poolStock),\n            0,\n            0,\n            0\n        );\n\n        if (!usePool) {\n            params.poolBuyAmount = 0;\n        }\n\n        AutoBuyFixStack2deepReturns memory ret = AutoBuyFixStack2deepReturns(\n            new uint256[](orderIds.length),\n            new uint256[](orderIds.length),\n            params.poolBuyAmount,\n            params.poolBuyPrice,\n            params.poolBuyPrice\n        );\n        \n        params.poolBuyPrice = factory.getBuyPrice(\n            productId,\n            IERC20Metadata(erc20token),\n            params.poolBuyAmount\n        );\n        \n        if (orderIds.length == 0) {\n            if (params.poolBuyAmount < neededAmount) {\n                ret.poolBuyAmount = 0;\n                ret.poolBuyPrice = 0;\n                ret.needTotalPrice = 0;\n                return ret;\n            }\n            ret.poolBuyAmount = params.poolBuyAmount;\n            ret.poolBuyPrice = params.poolBuyPrice;\n            ret.needTotalPrice = params.poolBuyPrice + params.totalPrice;\n            return ret;\n        }\n\n        while (neededAmount > 0 && orderIds.length > 0) {\n            Order memory order = orderById[orderIds[0]];\n            uint256 matchOrderIndex = 0;\n\n            for (uint256 i = 0; i < orderIds.length; i++) {\n                Order memory newOrder = orderById[orderIds[i]];\n                if (newOrder.amount == 0) {\n                    continue;\n                }\n                if (newOrder.priceInWeiForUnit > 0) {\n                    if (newOrder.priceInWeiForUnit < order.priceInWeiForUnit) {\n                        order = newOrder;\n                        matchOrderIndex = i;\n                    }\n                }\n            }\n\n            // , \n            if (\n                !_comparePrice(\n                    order,\n                    params.poolBuyPrice,\n                    params.poolBuyAmount\n                ) && params.poolBuyAmount >= neededAmount\n            ) {\n                ret.poolBuyAmount = params.poolBuyAmount;\n                ret.poolBuyPrice = params.poolBuyPrice;\n                ret.needTotalPrice = params.poolBuyPrice + params.totalPrice;\n                return ret;\n            }\n\n            uint256 amount = _min(neededAmount, order.amount);\n\n            if (neededAmount == params.poolBuyAmount) {\n                if (params.poolBuyAmount >= amount) {\n                    params.poolBuyAmount -= amount;\n                } else {\n                    params.poolBuyAmount = 0;\n                }\n            }\n\n            neededAmount -= amount;\n            \n            params.totalPrice =\n                params.totalPrice +\n                order.priceInWeiForUnit *\n                amount;\n            params.poolBuyPrice = factory.getBuyPrice(\n                productId,\n                IERC20Metadata(erc20token),\n                params.poolBuyAmount\n            );\n            ret.execOrderIds[params.index] = order.id;\n            ret.execOrderAmounts[params.index] = amount;\n            // Remove the order from the list\n            orderIds = _removeArrayIndex(orderIds, matchOrderIndex);\n            params.index++;\n        }\n\n        ret.poolBuyAmount = params.poolBuyAmount;\n        ret.poolBuyPrice = params.poolBuyPrice;\n        ret.needTotalPrice = params.poolBuyPrice + params.totalPrice;\n        return ret;\n    }\n\n    // cancel order\n    function cancelOrder(uint256 orderId) external {\n        address operator = _msgSender();\n        Order memory order = orderById[orderId];\n        require(\n            order.seller == operator,\n            \"Meland.Marketplace#cancelOrder: The operator is not the seller\"\n        );\n        require(\n            order.amount > 0,\n            \"Meland.Marketplace#cancelOrder: The order is already executed\"\n        );\n        address nft = order.nft;\n        uint256 tokenId = order.tokenId;\n        bytes32 productId = productManager.getProductId(nft, tokenId);\n        _nftTransfer(nft, tokenId, address(this), operator, order.amount);\n        order.amount = 0;\n        orderById[orderId] = order;\n        _removeOrderIdsByProductIdAndERC20Address(\n            productId,\n            address(order.acceptedToken),\n            orderId\n        );\n        emit OrderCanceled(orderId);\n    }\n\n    function _nftTransfer(\n        address nft,\n        uint256 tokenId,\n        address from,\n        address to,\n        uint256 amount\n    ) private {\n        ERC165Upgradeable nftDetect = ERC165Upgradeable(nft);\n\n        if (nftDetect.supportsInterface(type(IERC721Upgradeable).interfaceId)) {\n            IERC721Upgradeable(nft).safeTransferFrom(from, to, tokenId);\n        } else if (\n            nftDetect.supportsInterface(type(IERC1155Upgradeable).interfaceId)\n        ) {\n            IERC1155Upgradeable(nft).safeTransferFrom(\n                from,\n                to,\n                tokenId,\n                amount,\n                \"\"\n            );\n        } else {\n            revert(\n                \"Meland.Marketplace#_executeOrder: nft must be erc721 or erc1155\"\n            );\n        }\n    }\n\n    function _executeOrder(\n        uint256 orderId,\n        uint256 tknRate,\n        address buyer,\n        uint256 amount,\n        uint256 priceInWeiForUnit\n    ) internal {\n        Order memory order = orderById[orderId];\n        require(\n            order.amount > 0,\n            \"Meland.Marketplace#_executeOrder: The order amount should be greater than 0\"\n        );\n        require(\n            order.priceInWeiForUnit > 0,\n            \"Meland.Marketplace#_executeOrder: The order price should be greater than 0\"\n        );\n        require(\n            order.amount >= amount,\n            \"Meland.Marketplace#_executeOrder: Insufficient remaining quantity \"\n        );\n        uint256 allowance = order.acceptedToken.allowance(buyer, address(this));\n        uint256 totalPrice = amount * priceInWeiForUnit;\n        require(\n            allowance >= totalPrice,\n            \"Meland.Marketplace#_executeOrder: Insufficient allowance\"\n        );\n\n        order.amount -= amount;\n        orderById[orderId] = order;\n\n        uint256 saleShareAmount = 0;\n        if (ownerCutPerMillion > 0) {\n            // Calculate sale share\n            saleShareAmount = totalPrice.mul(ownerCutPerMillion).div(1000000);\n\n            // TODO\n            // Send to meland.ai\n            order.acceptedToken.transferFrom(\n                buyer,\n                address(this),\n                saleShareAmount\n            );\n        }\n\n        require(\n            order.acceptedToken.transferFrom(\n                buyer,\n                order.seller,\n                totalPrice.sub(saleShareAmount)\n            ),\n            \"Meland.Marketplace#_executeOrder: Transfering the sale amount to the seller failed\"\n        );\n\n        address nft = order.nft;\n        uint256 tokenId = order.tokenId;\n\n        _nftTransfer(nft, tokenId, address(this), buyer, amount);\n\n        bytes32 productId = productManager.getProductId(nft, tokenId);\n\n        if (order.amount == 0) {\n            _removeOrderIdsByProductIdAndERC20Address(\n                productId,\n                address(order.acceptedToken),\n                order.id\n            );\n        }\n\n        emit OrderSellout(orderId, amount, tknRate, order.amount == 0, buyer);\n    }\n\n    function _createOrder(\n        address nft,\n        address sender,\n        uint256 tokenId,\n        uint256 amount,\n        uint256 erc1155recivedAmount,\n        uint256 priceInWeiForUnit,\n        IERC20Upgradeable acceptedToken\n    ) internal {\n        _orderIdCounter.increment();\n        require(nft.isContract(), \"The nft is not a contract\");\n        require(priceInWeiForUnit > 0, \"Price should be bigger than 0\");\n        ERC165Upgradeable nftDetect = ERC165Upgradeable(nft);\n\n        if (nftDetect.supportsInterface(type(IERC721Upgradeable).interfaceId)) {\n            _erc721validate(IERC721Upgradeable(nft), tokenId, amount, sender);\n        } else if (\n            nftDetect.supportsInterface(type(IERC1155Upgradeable).interfaceId)\n        ) {\n            _erc1155validate(\n                IERC1155Upgradeable(nft),\n                tokenId,\n                amount,\n                erc1155recivedAmount,\n                sender\n            );\n        } else {\n            revert(\n                \"Meland.Marketplace#_createOrder: nft must be erc721 or erc1155\"\n            );\n        }\n\n        bytes32 productId = productManager.getProductId(nft, tokenId);\n        uint256 orderId = _orderIdCounter.current();\n\n        Order memory order = Order(\n            orderId,\n            sender,\n            tokenId,\n            amount,\n            nft,\n            priceInWeiForUnit,\n            acceptedToken\n        );\n\n        orderById[orderId] = order;\n\n        _addOrderIdsByProductIdAndERC20Address(\n            productId,\n            address(acceptedToken),\n            orderId\n        );\n\n        emit OrderCreated(orderId, productId, order);\n    }\n\n    /**\n     * @dev See {IERC165-supportsInterface}.\n     */\n    function supportsInterface(bytes4 interfaceId)\n        public\n        view\n        virtual\n        override(\n            AccessControlUpgradeable,\n            ERC1155ReceiverUpgradeable,\n            IERC165Upgradeable\n        )\n        returns (bool)\n    {\n        return\n            interfaceId == type(AccessControlUpgradeable).interfaceId ||\n            interfaceId == type(ERC1155ReceiverUpgradeable).interfaceId ||\n            super.supportsInterface(interfaceId);\n    }\n\n    bytes4 internal constant CREATE_ORDER_SIG =\n        bytes4(keccak256(\"_createOrder(uint256,address)\"));\n\n    function onERC1155BatchReceived(\n        address, // _operator,\n        address _from,\n        uint256[] memory _ids,\n        uint256[] memory _amounts,\n        bytes calldata _data\n    ) public override returns (bytes4) {\n        // This function assumes that the ERC-1155 token contract can\n        // only call `onERC1155BatchReceived()` via a valid token transfer.\n        // Users must be responsible and only use this Niftyswap exchange\n        // contract with ERC-1155 compliant token contracts.\n        // Obtain method to call via object signature\n        bytes4 functionSignature = bytes4(_data[:4]);\n        require(\n            functionSignature == CREATE_ORDER_SIG,\n            \"Meland.Marketplace#onERC1155BatchReceived5: Invalid function signature\"\n        );\n        uint256 priceInWeiForUnit;\n        address acceptedToken;\n        (priceInWeiForUnit, acceptedToken) = abi.decode(\n            _data[4:],\n            (uint256, address)\n        );\n        require(\n            acceptedToken.isContract(),\n            \"Meland.Marketplace#onERC1155BatchReceived1: The accepted token is not a contract\"\n        );\n        for (uint256 i = 0; i < _ids.length; i++) {\n            _createOrder(\n                _msgSender(),\n                _from,\n                _ids[i],\n                _amounts[i],\n                _amounts[i],\n                priceInWeiForUnit,\n                IERC20Upgradeable(acceptedToken)\n            );\n        }\n        return ERC1155_BATCH_RECEIVED_VALUE;\n    }\n\n    /**\n     * @dev Will pass to onERC115Batch5Received\n     */\n    function onERC1155Received(\n        address _operator,\n        address _from,\n        uint256 _id,\n        uint256 _amount,\n        bytes calldata _data\n    ) public override returns (bytes4) {\n        uint256[] memory ids = new uint256[](1);\n        uint256[] memory amounts = new uint256[](1);\n\n        ids[0] = _id;\n        amounts[0] = _amount;\n\n        require(\n            ERC1155_BATCH_RECEIVED_VALUE ==\n                onERC1155BatchReceived(_operator, _from, ids, amounts, _data),\n            \"Meland.Marketplace#onERC1155Received: INVALID_ONRECEIVED_MESSAGE\"\n        );\n\n        return ERC1155_RECEIVED_VALUE;\n    }\n\n    function _authorizeUpgrade(address newImplementation)\n        internal\n        override\n        onlyRole(UPGRADER_ROLE)\n    {}\n\n    function _msgData()\n        internal\n        view\n        virtual\n        override(ContextUpgradeable, ERC2771ContextUpgradeable)\n        returns (bytes calldata)\n    {\n        return ERC2771ContextUpgradeable._msgData();\n    }\n\n    function _msgSender()\n        internal\n        view\n        virtual\n        override(ContextUpgradeable, ERC2771ContextUpgradeable)\n        returns (address)\n    {\n        return ERC2771ContextUpgradeable._msgSender();\n    }\n}\n",
  "sourcePath": "/Users/alberthuang/code/contracts-v2/contracts/marketplace/Marketplace.sol",
  "compiler": {
    "name": "solc",
    "version": "0.8.9+commit.e5eed63a.Emscripten.clang"
  },
  "schemaVersion": "3.4.8",
  "updatedAt": "2022-07-13T06:10:37.325Z",
  "networkType": "ethereum",
  "devdoc": {
    "kind": "dev",
    "methods": {
      "constructor": {
        "custom:oz-upgrades-unsafe-allow": "constructor"
      },
      "getRoleAdmin(bytes32)": {
        "details": "Returns the admin role that controls `role`. See {grantRole} and {revokeRole}. To change a role's admin, use {_setRoleAdmin}."
      },
      "grantRole(bytes32,address)": {
        "details": "Grants `role` to `account`. If `account` had not been already granted `role`, emits a {RoleGranted} event. Requirements: - the caller must have ``role``'s admin role. May emit a {RoleGranted} event."
      },
      "hasRole(bytes32,address)": {
        "details": "Returns `true` if `account` has been granted `role`."
      },
      "onERC1155Received(address,address,uint256,uint256,bytes)": {
        "details": "Will pass to onERC115Batch5Received"
      },
      "proxiableUUID()": {
        "details": "Implementation of the ERC1822 {proxiableUUID} function. This returns the storage slot used by the implementation. It is used to validate that the this implementation remains valid after an upgrade. IMPORTANT: A proxy pointing at a proxiable contract should not be considered proxiable itself, because this risks bricking a proxy that upgrades to it, by delegating to itself until out of gas. Thus it is critical that this function revert if invoked through a proxy. This is guaranteed by the `notDelegated` modifier."
      },
      "renounceRole(bytes32,address)": {
        "details": "Revokes `role` from the calling account. Roles are often managed via {grantRole} and {revokeRole}: this function's purpose is to provide a mechanism for accounts to lose their privileges if they are compromised (such as when a trusted device is misplaced). If the calling account had been revoked `role`, emits a {RoleRevoked} event. Requirements: - the caller must be `account`. May emit a {RoleRevoked} event."
      },
      "revokeRole(bytes32,address)": {
        "details": "Revokes `role` from `account`. If `account` had been granted `role`, emits a {RoleRevoked} event. Requirements: - the caller must have ``role``'s admin role. May emit a {RoleRevoked} event."
      },
      "supportsInterface(bytes4)": {
        "details": "See {IERC165-supportsInterface}."
      },
      "upgradeTo(address)": {
        "details": "Upgrade the implementation of the proxy to `newImplementation`. Calls {_authorizeUpgrade}. Emits an {Upgraded} event."
      },
      "upgradeToAndCall(address,bytes)": {
        "details": "Upgrade the implementation of the proxy to `newImplementation`, and subsequently execute the function call encoded in `data`. Calls {_authorizeUpgrade}. Emits an {Upgraded} event."
      }
    },
    "version": 1
  },
  "userdoc": {
    "kind": "user",
    "methods": {},
    "version": 1
  }
}