{
  "contractName": "Marketplace",
  "abi": [
    {
      "inputs": [
        {
          "internalType": "address",
          "name": "trustedForwarder",
          "type": "address"
        }
      ],
      "stateMutability": "nonpayable",
      "type": "constructor"
    },
    {
      "anonymous": false,
      "inputs": [
        {
          "indexed": false,
          "internalType": "address",
          "name": "previousAdmin",
          "type": "address"
        },
        {
          "indexed": false,
          "internalType": "address",
          "name": "newAdmin",
          "type": "address"
        }
      ],
      "name": "AdminChanged",
      "type": "event"
    },
    {
      "anonymous": false,
      "inputs": [
        {
          "indexed": true,
          "internalType": "address",
          "name": "beacon",
          "type": "address"
        }
      ],
      "name": "BeaconUpgraded",
      "type": "event"
    },
    {
      "anonymous": false,
      "inputs": [
        {
          "indexed": false,
          "internalType": "uint256",
          "name": "ownerCutPerMillion",
          "type": "uint256"
        }
      ],
      "name": "ChangedOwnerCutPerMillion",
      "type": "event"
    },
    {
      "anonymous": false,
      "inputs": [
        {
          "indexed": false,
          "internalType": "uint8",
          "name": "version",
          "type": "uint8"
        }
      ],
      "name": "Initialized",
      "type": "event"
    },
    {
      "anonymous": false,
      "inputs": [
        {
          "indexed": false,
          "internalType": "uint256",
          "name": "id",
          "type": "uint256"
        }
      ],
      "name": "OrderCanceled",
      "type": "event"
    },
    {
      "anonymous": false,
      "inputs": [
        {
          "indexed": false,
          "internalType": "uint256",
          "name": "id",
          "type": "uint256"
        },
        {
          "indexed": true,
          "internalType": "bytes32",
          "name": "productId",
          "type": "bytes32"
        },
        {
          "indexed": false,
          "internalType": "string",
          "name": "category",
          "type": "string"
        },
        {
          "components": [
            {
              "internalType": "uint256",
              "name": "id",
              "type": "uint256"
            },
            {
              "internalType": "address",
              "name": "seller",
              "type": "address"
            },
            {
              "internalType": "uint256",
              "name": "tokenId",
              "type": "uint256"
            },
            {
              "internalType": "uint256",
              "name": "amount",
              "type": "uint256"
            },
            {
              "internalType": "address",
              "name": "nft",
              "type": "address"
            },
            {
              "internalType": "uint256",
              "name": "priceInWeiForUnit",
              "type": "uint256"
            },
            {
              "internalType": "contract IERC20Upgradeable",
              "name": "acceptedToken",
              "type": "address"
            }
          ],
          "indexed": false,
          "internalType": "struct IMarketplace.Order",
          "name": "order",
          "type": "tuple"
        }
      ],
      "name": "OrderCreated",
      "type": "event"
    },
    {
      "anonymous": false,
      "inputs": [
        {
          "indexed": false,
          "internalType": "uint256",
          "name": "id",
          "type": "uint256"
        },
        {
          "indexed": false,
          "internalType": "uint256",
          "name": "amount",
          "type": "uint256"
        },
        {
          "indexed": false,
          "internalType": "bool",
          "name": "isSellout",
          "type": "bool"
        }
      ],
      "name": "OrderSellout",
      "type": "event"
    },
    {
      "anonymous": false,
      "inputs": [
        {
          "indexed": true,
          "internalType": "bytes32",
          "name": "role",
          "type": "bytes32"
        },
        {
          "indexed": true,
          "internalType": "bytes32",
          "name": "previousAdminRole",
          "type": "bytes32"
        },
        {
          "indexed": true,
          "internalType": "bytes32",
          "name": "newAdminRole",
          "type": "bytes32"
        }
      ],
      "name": "RoleAdminChanged",
      "type": "event"
    },
    {
      "anonymous": false,
      "inputs": [
        {
          "indexed": true,
          "internalType": "bytes32",
          "name": "role",
          "type": "bytes32"
        },
        {
          "indexed": true,
          "internalType": "address",
          "name": "account",
          "type": "address"
        },
        {
          "indexed": true,
          "internalType": "address",
          "name": "sender",
          "type": "address"
        }
      ],
      "name": "RoleGranted",
      "type": "event"
    },
    {
      "anonymous": false,
      "inputs": [
        {
          "indexed": true,
          "internalType": "bytes32",
          "name": "role",
          "type": "bytes32"
        },
        {
          "indexed": true,
          "internalType": "address",
          "name": "account",
          "type": "address"
        },
        {
          "indexed": true,
          "internalType": "address",
          "name": "sender",
          "type": "address"
        }
      ],
      "name": "RoleRevoked",
      "type": "event"
    },
    {
      "anonymous": false,
      "inputs": [
        {
          "indexed": true,
          "internalType": "address",
          "name": "implementation",
          "type": "address"
        }
      ],
      "name": "Upgraded",
      "type": "event"
    },
    {
      "inputs": [],
      "name": "DEFAULT_ADMIN_ROLE",
      "outputs": [
        {
          "internalType": "bytes32",
          "name": "",
          "type": "bytes32"
        }
      ],
      "stateMutability": "view",
      "type": "function"
    },
    {
      "inputs": [],
      "name": "DOMAIN_SEPARATOR",
      "outputs": [
        {
          "internalType": "bytes32",
          "name": "",
          "type": "bytes32"
        }
      ],
      "stateMutability": "view",
      "type": "function"
    },
    {
      "inputs": [],
      "name": "GM_ROLE",
      "outputs": [
        {
          "internalType": "bytes32",
          "name": "",
          "type": "bytes32"
        }
      ],
      "stateMutability": "view",
      "type": "function"
    },
    {
      "inputs": [],
      "name": "MINTER_ROLE",
      "outputs": [
        {
          "internalType": "bytes32",
          "name": "",
          "type": "bytes32"
        }
      ],
      "stateMutability": "view",
      "type": "function"
    },
    {
      "inputs": [],
      "name": "UPGRADER_ROLE",
      "outputs": [
        {
          "internalType": "bytes32",
          "name": "",
          "type": "bytes32"
        }
      ],
      "stateMutability": "view",
      "type": "function"
    },
    {
      "inputs": [
        {
          "internalType": "bytes32",
          "name": "role",
          "type": "bytes32"
        }
      ],
      "name": "getRoleAdmin",
      "outputs": [
        {
          "internalType": "bytes32",
          "name": "",
          "type": "bytes32"
        }
      ],
      "stateMutability": "view",
      "type": "function"
    },
    {
      "inputs": [
        {
          "internalType": "bytes32",
          "name": "role",
          "type": "bytes32"
        },
        {
          "internalType": "address",
          "name": "account",
          "type": "address"
        }
      ],
      "name": "grantRole",
      "outputs": [],
      "stateMutability": "nonpayable",
      "type": "function"
    },
    {
      "inputs": [
        {
          "internalType": "bytes32",
          "name": "role",
          "type": "bytes32"
        },
        {
          "internalType": "address",
          "name": "account",
          "type": "address"
        }
      ],
      "name": "hasRole",
      "outputs": [
        {
          "internalType": "bool",
          "name": "",
          "type": "bool"
        }
      ],
      "stateMutability": "view",
      "type": "function"
    },
    {
      "inputs": [
        {
          "internalType": "address",
          "name": "forwarder",
          "type": "address"
        }
      ],
      "name": "isTrustedForwarder",
      "outputs": [
        {
          "internalType": "bool",
          "name": "",
          "type": "bool"
        }
      ],
      "stateMutability": "view",
      "type": "function"
    },
    {
      "inputs": [
        {
          "internalType": "uint256",
          "name": "",
          "type": "uint256"
        }
      ],
      "name": "orderById",
      "outputs": [
        {
          "internalType": "uint256",
          "name": "id",
          "type": "uint256"
        },
        {
          "internalType": "address",
          "name": "seller",
          "type": "address"
        },
        {
          "internalType": "uint256",
          "name": "tokenId",
          "type": "uint256"
        },
        {
          "internalType": "uint256",
          "name": "amount",
          "type": "uint256"
        },
        {
          "internalType": "address",
          "name": "nft",
          "type": "address"
        },
        {
          "internalType": "uint256",
          "name": "priceInWeiForUnit",
          "type": "uint256"
        },
        {
          "internalType": "contract IERC20Upgradeable",
          "name": "acceptedToken",
          "type": "address"
        }
      ],
      "stateMutability": "view",
      "type": "function"
    },
    {
      "inputs": [],
      "name": "ownerCutPerMillion",
      "outputs": [
        {
          "internalType": "uint256",
          "name": "",
          "type": "uint256"
        }
      ],
      "stateMutability": "view",
      "type": "function"
    },
    {
      "inputs": [],
      "name": "productManager",
      "outputs": [
        {
          "internalType": "contract IProductManager",
          "name": "",
          "type": "address"
        }
      ],
      "stateMutability": "view",
      "type": "function"
    },
    {
      "inputs": [],
      "name": "proxiableUUID",
      "outputs": [
        {
          "internalType": "bytes32",
          "name": "",
          "type": "bytes32"
        }
      ],
      "stateMutability": "view",
      "type": "function"
    },
    {
      "inputs": [
        {
          "internalType": "bytes32",
          "name": "role",
          "type": "bytes32"
        },
        {
          "internalType": "address",
          "name": "account",
          "type": "address"
        }
      ],
      "name": "renounceRole",
      "outputs": [],
      "stateMutability": "nonpayable",
      "type": "function"
    },
    {
      "inputs": [
        {
          "internalType": "bytes32",
          "name": "role",
          "type": "bytes32"
        },
        {
          "internalType": "address",
          "name": "account",
          "type": "address"
        }
      ],
      "name": "revokeRole",
      "outputs": [],
      "stateMutability": "nonpayable",
      "type": "function"
    },
    {
      "inputs": [
        {
          "internalType": "address",
          "name": "newImplementation",
          "type": "address"
        }
      ],
      "name": "upgradeTo",
      "outputs": [],
      "stateMutability": "nonpayable",
      "type": "function"
    },
    {
      "inputs": [
        {
          "internalType": "address",
          "name": "newImplementation",
          "type": "address"
        },
        {
          "internalType": "bytes",
          "name": "data",
          "type": "bytes"
        }
      ],
      "name": "upgradeToAndCall",
      "outputs": [],
      "stateMutability": "payable",
      "type": "function"
    },
    {
      "inputs": [
        {
          "internalType": "address",
          "name": "mpc",
          "type": "address"
        },
        {
          "internalType": "contract IProductManager",
          "name": "_pm",
          "type": "address"
        }
      ],
      "name": "initialize",
      "outputs": [],
      "stateMutability": "nonpayable",
      "type": "function"
    },
    {
      "inputs": [
        {
          "internalType": "uint256",
          "name": "_ownerCutPerMillion",
          "type": "uint256"
        }
      ],
      "name": "setOwnerCutPerMillion",
      "outputs": [],
      "stateMutability": "nonpayable",
      "type": "function"
    },
    {
      "inputs": [
        {
          "internalType": "bytes4",
          "name": "interfaceId",
          "type": "bytes4"
        }
      ],
      "name": "supportsInterface",
      "outputs": [
        {
          "internalType": "bool",
          "name": "",
          "type": "bool"
        }
      ],
      "stateMutability": "view",
      "type": "function"
    },
    {
      "inputs": [
        {
          "internalType": "address",
          "name": "",
          "type": "address"
        },
        {
          "internalType": "address",
          "name": "_from",
          "type": "address"
        },
        {
          "internalType": "uint256[]",
          "name": "_ids",
          "type": "uint256[]"
        },
        {
          "internalType": "uint256[]",
          "name": "_amounts",
          "type": "uint256[]"
        },
        {
          "internalType": "bytes",
          "name": "_data",
          "type": "bytes"
        }
      ],
      "name": "onERC1155BatchReceived",
      "outputs": [
        {
          "internalType": "bytes4",
          "name": "",
          "type": "bytes4"
        }
      ],
      "stateMutability": "nonpayable",
      "type": "function"
    },
    {
      "inputs": [
        {
          "internalType": "address",
          "name": "_operator",
          "type": "address"
        },
        {
          "internalType": "address",
          "name": "_from",
          "type": "address"
        },
        {
          "internalType": "uint256",
          "name": "_id",
          "type": "uint256"
        },
        {
          "internalType": "uint256",
          "name": "_amount",
          "type": "uint256"
        },
        {
          "internalType": "bytes",
          "name": "_data",
          "type": "bytes"
        }
      ],
      "name": "onERC1155Received",
      "outputs": [
        {
          "internalType": "bytes4",
          "name": "",
          "type": "bytes4"
        }
      ],
      "stateMutability": "nonpayable",
      "type": "function"
    }
  ],
  "bytecode": "0x60c0604052306080523480156200001557600080fd5b5060405162002bf838038062002bf883398101604081905262000038916200004a565b6001600160a01b031660a0526200007c565b6000602082840312156200005d57600080fd5b81516001600160a01b03811681146200007557600080fd5b9392505050565b60805160a051612b33620000c5600039600081816102de015261187b01526000818161065b0152818161069b015281816107e10152818161082101526108b00152612b336000f3fe6080604052600436106101355760003560e01c8063572b6c05116100ab578063bc197c811161006f578063bc197c8114610400578063d539139314610439578063d547741f1461046d578063f23a6e611461048d578063f426306f146104ad578063f72c0d8b146104e657600080fd5b8063572b6c05146102c15780638d77eba51461030e57806391d14854146103b4578063a01f79d4146103d4578063a217fddf146103eb57600080fd5b80633644e515116100fd5780633644e5151461022357806336568abe146102395780633659cfe614610259578063485cc955146102795780634f1ef2861461029957806352d1902d146102ac57600080fd5b806301ffc9a71461013a57806319dad16d1461016f578063248a9ca3146101915780632f2ff15d146101cf57806330c7be2c146101ef575b600080fd5b34801561014657600080fd5b5061015a6101553660046122f2565b61051a565b60405190151581526020015b60405180910390f35b34801561017b57600080fd5b5061018f61018a36600461230f565b610560565b005b34801561019d57600080fd5b506101c16101ac36600461230f565b60009081526065602052604090206001015490565b604051908152602001610166565b3480156101db57600080fd5b5061018f6101ea36600461233d565b610597565b3480156101fb57600080fd5b506101c17ff5eb84615c2a00ecaf817d13794ebd6299c9e01c395bf4018453f13f577f544981565b34801561022f57600080fd5b506101c160975481565b34801561024557600080fd5b5061018f61025436600461233d565b6105c1565b34801561026557600080fd5b5061018f61027436600461236d565b610650565b34801561028557600080fd5b5061018f61029436600461238a565b610730565b61018f6102a736600461247d565b6107d6565b3480156102b857600080fd5b506101c16108a3565b3480156102cd57600080fd5b5061015a6102dc36600461236d565b7f00000000000000000000000000000000000000000000000000000000000000006001600160a01b0390811691161490565b34801561031a57600080fd5b5061037561032936600461230f565b61016360205260009081526040902080546001820154600283015460038401546004850154600586015460069096015494956001600160a01b0394851695939492939183169290911687565b604080519788526001600160a01b03968716602089015287019490945260608601929092528316608085015260a08401521660c082015260e001610166565b3480156103c057600080fd5b5061015a6103cf36600461233d565b610956565b3480156103e057600080fd5b506101c16101625481565b3480156103f757600080fd5b506101c1600081565b34801561040c57600080fd5b5061042061041b36600461254d565b610981565b6040516001600160e01b03199091168152602001610166565b34801561044557600080fd5b506101c17f9f2df0fed2c77648de5860a4cc508cd0818c85b8b8a1ab4ceeef8d981c8956a681565b34801561047957600080fd5b5061018f61048836600461233d565b610b92565b34801561049957600080fd5b506104206104a83660046125fb565b610bb7565b3480156104b957600080fd5b50610161546104ce906001600160a01b031681565b6040516001600160a01b039091168152602001610166565b3480156104f257600080fd5b506101c17f189ab7a9244df0848122154315af71fe140f3db0fe014031783b0946b8c9d2e381565b60006001600160e01b0319821663da8def7360e01b148061054b57506001600160e01b031982166301ffc9a760e01b145b8061055a575061055a82610ce7565b92915050565b7ff5eb84615c2a00ecaf817d13794ebd6299c9e01c395bf4018453f13f577f544961058a81610d0c565b61059382610d1d565b5050565b6000828152606560205260409020600101546105b281610d0c565b6105bc8383610df7565b505050565b6105c9610e7e565b6001600160a01b0316816001600160a01b0316146106465760405162461bcd60e51b815260206004820152602f60248201527f416363657373436f6e74726f6c3a2063616e206f6e6c792072656e6f756e636560448201526e103937b632b9903337b91039b2b63360891b60648201526084015b60405180910390fd5b6105938282610e8d565b306001600160a01b037f00000000000000000000000000000000000000000000000000000000000000001614156106995760405162461bcd60e51b815260040161063d90612664565b7f00000000000000000000000000000000000000000000000000000000000000006001600160a01b03166106e2600080516020612ab7833981519152546001600160a01b031690565b6001600160a01b0316146107085760405162461bcd60e51b815260040161063d906126b0565b61071181610f12565b6040805160008082526020820190925261072d91839190610f3c565b50565b600061073c60016110b6565b90508015610754576000805461ff0019166101001790555b61075d8361113e565b61076561129f565b61016180546001600160a01b0319166001600160a01b03841617905561078c61c350610d1d565b80156105bc576000805461ff0019169055604051600181527f7f26b83ff96e1f2b6a682f133852f6798a09c465da95921460cefb38474024989060200160405180910390a1505050565b306001600160a01b037f000000000000000000000000000000000000000000000000000000000000000016141561081f5760405162461bcd60e51b815260040161063d90612664565b7f00000000000000000000000000000000000000000000000000000000000000006001600160a01b0316610868600080516020612ab7833981519152546001600160a01b031690565b6001600160a01b03161461088e5760405162461bcd60e51b815260040161063d906126b0565b61089782610f12565b61059382826001610f3c565b6000306001600160a01b037f000000000000000000000000000000000000000000000000000000000000000016146109435760405162461bcd60e51b815260206004820152603860248201527f555550535570677261646561626c653a206d757374206e6f742062652063616c60448201527f6c6564207468726f7567682064656c656761746563616c6c0000000000000000606482015260840161063d565b50600080516020612ab783398151915290565b60009182526065602090815260408084206001600160a01b0393909316845291905290205460ff1690565b6000808280602001905181019061099891906126fc565b90506001600160e01b03198116635a7ec86f60e11b14610a2e5760405162461bcd60e51b815260206004820152604560248201527f4d656c616e642e4d61726b6574706c616365236f6e455243313135354261746360448201527f6852656365697665643a20496e76616c69642066756e6374696f6e207369676e606482015264617475726560d81b608482015260a40161063d565b604080518082019091526000808252602082015283806020019051810190610a569190612719565b60208101519092506001600160a01b03163b15159050610af65760405162461bcd60e51b815260206004820152604f60248201527f4d656c616e642e4d61726b6574706c616365236f6e455243313135354261746360448201527f6852656365697665643a2054686520616363657074656420746f6b656e20697360648201526e081b9bdd08184818dbdb9d1c9858dd608a1b608482015260a40161063d565b60005b8651811015610b7d57610b6b610b0d610e7e565b89898481518110610b2057610b20612798565b6020026020010151898581518110610b3a57610b3a612798565b60200260200101518a8681518110610b5457610b54612798565b60200260200101518760000151886020015161130c565b80610b75816127c4565b915050610af9565b5063bc197c8160e01b98975050505050505050565b600082815260656020526040902060010154610bad81610d0c565b6105bc8383610e8d565b6040805160018082528183019092526000918291906020808301908036833750506040805160018082528183019092529293506000929150602080830190803683370190505090508582600081518110610c1357610c13612798565b6020026020010181815250508481600081518110610c3357610c33612798565b602002602001018181525050610c4c8888848488610981565b6001600160e01b03191663bc197c8160e01b14610cd3576040805162461bcd60e51b81526020600482015260248101919091527f4d656c616e642e4d61726b6574706c616365236f6e455243313135355265636560448201527f697665643a20494e56414c49445f4f4e52454345495645445f4d455353414745606482015260840161063d565b5063f23a6e6160e01b979650505050505050565b60006001600160e01b03198216630271189760e51b148061055a575061055a826117de565b61072d81610d18610e7e565b611813565b620f42408110610dbb5760405162461bcd60e51b815260206004820152605860248201527f4d656c616e642e4d61726b6574706c616365235f7365744f776e65724375745060448201527f65724d696c6c696f6e3a20546865206f776e6572206375742073686f756c642060648201527f6265206265747765656e203020616e64203939392c3939390000000000000000608482015260a40161063d565b6101628190556040518181527ffa406a120a9e7f2b332bfb7a43d3bf1c3f079262202907a6b69c94b2821a02c69060200160405180910390a150565b610e018282610956565b6105935760008281526065602090815260408083206001600160a01b03851684529091529020805460ff19166001179055610e3a610e7e565b6001600160a01b0316816001600160a01b0316837f2f8788117e7eff1d82e926ec794901d17c78024a50270940304540a733656f0d60405160405180910390a45050565b6000610e88611877565b905090565b610e978282610956565b156105935760008281526065602090815260408083206001600160a01b03851684529091529020805460ff19169055610ece610e7e565b6001600160a01b0316816001600160a01b0316837ff6391f5c32d9c69d2a47ea670b442974b53935d1edc7fd64eb21e047a839171b60405160405180910390a45050565b7f189ab7a9244df0848122154315af71fe140f3db0fe014031783b0946b8c9d2e361059381610d0c565b7f4910fdfa16fed3260ed0e7147f7cc6da11a60208b5b9406d12a635614ffd91435460ff1615610f6f576105bc836118bc565b826001600160a01b03166352d1902d6040518163ffffffff1660e01b815260040160206040518083038186803b158015610fa857600080fd5b505afa925050508015610fd8575060408051601f3d908101601f19168201909252610fd5918101906127df565b60015b61103b5760405162461bcd60e51b815260206004820152602e60248201527f45524331393637557067726164653a206e657720696d706c656d656e7461746960448201526d6f6e206973206e6f74205555505360901b606482015260840161063d565b600080516020612ab783398151915281146110aa5760405162461bcd60e51b815260206004820152602960248201527f45524331393637557067726164653a20756e737570706f727465642070726f786044820152681a58589b195555525160ba1b606482015260840161063d565b506105bc838383611958565b60008054610100900460ff16156110fd578160ff1660011480156110d95750303b155b6110f55760405162461bcd60e51b815260040161063d906127f8565b506000919050565b60005460ff8084169116106111245760405162461bcd60e51b815260040161063d906127f8565b506000805460ff191660ff92909216919091179055600190565b61114661129f565b611151600082610df7565b61117b7ff5eb84615c2a00ecaf817d13794ebd6299c9e01c395bf4018453f13f577f544982610df7565b6111a57f9f2df0fed2c77648de5860a4cc508cd0818c85b8b8a1ab4ceeef8d981c8956a682610df7565b6111cf7f189ab7a9244df0848122154315af71fe140f3db0fe014031783b0946b8c9d2e333610df7565b5060408051808201825260068152651b595b185b9960d21b6020918201528151808301835260018152603160f81b9082015281517f8b73c3c69bb8fe3d512ecc4cf759cc79239f7b179b0ffacaa9a75d522b39400f818301527f314ed1331a8d68d6e7c652158abe27c46bf91bd45ef86ab66f92d6500b1056eb818401527fc89efdaa54c0f20c7adf612882df0950f5a951637e0307cdcb4c672f298b8bc660608201524660808201523060a0808301919091528351808303909101815260c09091019092528151910120609755565b600054610100900460ff1661130a5760405162461bcd60e51b815260206004820152602b60248201527f496e697469616c697a61626c653a20636f6e7472616374206973206e6f74206960448201526a6e697469616c697a696e6760a81b606482015260840161063d565b565b61131b61016080546001019055565b6001600160a01b0387163b6113725760405162461bcd60e51b815260206004820152601960248201527f546865206e6674206973206e6f74206120636f6e747261637400000000000000604482015260640161063d565b600082116113c25760405162461bcd60e51b815260206004820152601d60248201527f50726963652073686f756c6420626520626967676572207468616e2030000000604482015260640161063d565b6040516301ffc9a760e01b81526380ac58cd60e01b600482015287906001600160a01b038216906301ffc9a79060240160206040518083038186803b15801561140a57600080fd5b505afa15801561141e573d6000803e3d6000fd5b505050506040513d601f19601f820116820180604052508101906114429190612846565b15611458576114538887878a611983565b611556565b6040516301ffc9a760e01b8152636cdb3d1360e11b60048201526001600160a01b038216906301ffc9a79060240160206040518083038186803b15801561149e57600080fd5b505afa1580156114b2573d6000803e3d6000fd5b505050506040513d601f19601f820116820180604052508101906114d69190612846565b156114e857611453888787878b611c9f565b60405162461bcd60e51b815260206004820152603e60248201527f4d656c616e642e4d61726b6574706c616365235f6372656174654f726465723a60448201527f206e6674206d75737420626520657263373231206f7220657263313135350000606482015260840161063d565b61016154604051631e3d5cd960e21b81526001600160a01b038a811660048301526024820189905260009216906378f573649060440160206040518083038186803b1580156115a457600080fd5b505afa1580156115b8573d6000803e3d6000fd5b505050506040513d601f19601f820116820180604052508101906115dc91906127df565b61016154604051637e4613d560e11b81526001600160a01b038c81166004830152602482018b90529293506000929091169063fc8c27aa9060440160006040518083038186803b15801561162f57600080fd5b505afa158015611643573d6000803e3d6000fd5b505050506040513d6000823e601f3d908101601f1916820160405261166b9190810190612894565b905060006116796101605490565b905060006040518060e001604052808381526020018c6001600160a01b031681526020018b81526020018a81526020018d6001600160a01b03168152602001888152602001876001600160a01b031681525090508061016360008481526020019081526020016000206000820151816000015560208201518160010160006101000a8154816001600160a01b0302191690836001600160a01b03160217905550604082015181600201556060820151816003015560808201518160040160006101000a8154816001600160a01b0302191690836001600160a01b0316021790555060a0820151816005015560c08201518160060160006101000a8154816001600160a01b0302191690836001600160a01b03160217905550905050837f833ed270a8383fbd7cc3f5d55cbca3d48a4e3ba096672964bdb0727e2f9aa8188385846040516117c89392919061292e565b60405180910390a2505050505050505050505050565b60006001600160e01b03198216637965db0b60e01b148061055a57506301ffc9a760e01b6001600160e01b031983161461055a565b61181d8282610956565b61059357611835816001600160a01b03166014611fcc565b611840836020611fcc565b6040516020016118519291906129a7565b60408051601f198184030181529082905262461bcd60e51b825261063d91600401612a1c565b60007f00000000000000000000000000000000000000000000000000000000000000006001600160a01b03163314156118b7575060131936013560601c90565b503390565b6001600160a01b0381163b6119295760405162461bcd60e51b815260206004820152602d60248201527f455243313936373a206e657720696d706c656d656e746174696f6e206973206e60448201526c1bdd08184818dbdb9d1c9858dd609a1b606482015260840161063d565b600080516020612ab783398151915280546001600160a01b0319166001600160a01b0392909216919091179055565b6119618361216f565b60008251118061196e5750805b156105bc5761197d83836121af565b50505050565b6040516331a9108f60e11b8152600481018490526001600160a01b038083169190861690636352211e9060240160206040518083038186803b1580156119c857600080fd5b505afa1580156119dc573d6000803e3d6000fd5b505050506040513d601f19601f82011682018060405250810190611a009190612a2f565b6001600160a01b031614611a905760405162461bcd60e51b815260206004820152604b60248201527f4d656c616e642e4d61726b6574706c6163652365726337323176616c6964617460448201527f653a205468652073656e646572206973206e6f7420746865206f776e6572206f60648201526a33103a3432903a37b5b2b760a91b608482015260a40161063d565b60405163020604bf60e21b81526004810184905230906001600160a01b0386169063081812fc9060240160206040518083038186803b158015611ad257600080fd5b505afa158015611ae6573d6000803e3d6000fd5b505050506040513d601f19601f82011682018060405250810190611b0a9190612a2f565b6001600160a01b03161480611b99575060405163e985e9c560e01b81526001600160a01b03828116600483015230602483015285169063e985e9c59060440160206040518083038186803b158015611b6157600080fd5b505afa158015611b75573d6000803e3d6000fd5b505050506040513d601f19601f82011682018060405250810190611b999190612846565b611c295760405162461bcd60e51b815260206004820152605560248201527f4d656c616e642e4d61726b6574706c6163652365726337323176616c6964617460448201527f653a2054686520636f6e7472616374206973206e6f7420617574686f72697a6560648201527419081d1bc81b585b9859d9481d1a1948185cdcd95d605a1b608482015260a40161063d565b8160011461197d5760405162461bcd60e51b815260206004820152603960248201527f4d656c616e642e4d61726b6574706c6163652365726337323176616c6964617460448201527f653a2054686520616d6f756e742073686f756c64206265203100000000000000606482015260840161063d565b818314611ec557604051627eeac760e11b81526001600160a01b038281166004830152602482018690526000919087169062fdd58e9060440160206040518083038186803b158015611cf057600080fd5b505afa158015611d04573d6000803e3d6000fd5b505050506040513d601f19601f82011682018060405250810190611d2891906127df565b11611da95760405162461bcd60e51b815260206004820152604560248201527f4d656c616e642e4d61726b6574706c616365235f6572633131353576616c696460448201527f6174653a204f6e6c7920746865206f776e65722063616e20637265617465206f606482015264726465727360d81b608482015260a40161063d565b60405163e985e9c560e01b81526001600160a01b03828116600483015230602483015286169063e985e9c59060440160206040518083038186803b158015611df057600080fd5b505afa158015611e04573d6000803e3d6000fd5b505050506040513d601f19601f82011682018060405250810190611e289190612846565b611ec05760405162461bcd60e51b815260206004820152605760248201527f4d656c616e642e4d61726b6574706c616365235f6572633131353576616c696460448201527f6174653a2054686520636f6e7472616374206973206e6f7420617574686f726960648201527f7a656420746f206d616e61676520746865206173736574000000000000000000608482015260a40161063d565b611fc5565b604051627eeac760e11b81523060048201526024810185905282906001600160a01b0387169062fdd58e9060440160206040518083038186803b158015611f0b57600080fd5b505afa158015611f1f573d6000803e3d6000fd5b505050506040513d601f19601f82011682018060405250810190611f4391906127df565b1015611fc55760405162461bcd60e51b815260206004820152604560248201527f4d656c616e642e4d61726b6574706c616365235f6572633131353576616c696460448201527f6174653a204d61726b6574706c61636520616d6f756e74206973206e6f7420656064820152640dcdeeaced60db1b608482015260a40161063d565b5050505050565b60606000611fdb836002612a4c565b611fe6906002612a6b565b67ffffffffffffffff811115611ffe57611ffe6123b8565b6040519080825280601f01601f191660200182016040528015612028576020820181803683370190505b509050600360fc1b8160008151811061204357612043612798565b60200101906001600160f81b031916908160001a905350600f60fb1b8160018151811061207257612072612798565b60200101906001600160f81b031916908160001a9053506000612096846002612a4c565b6120a1906001612a6b565b90505b6001811115612119576f181899199a1a9b1b9c1cb0b131b232b360811b85600f16601081106120d5576120d5612798565b1a60f81b8282815181106120eb576120eb612798565b60200101906001600160f81b031916908160001a90535060049490941c9361211281612a83565b90506120a4565b5083156121685760405162461bcd60e51b815260206004820181905260248201527f537472696e67733a20686578206c656e67746820696e73756666696369656e74604482015260640161063d565b9392505050565b612178816118bc565b6040516001600160a01b038216907fbc7cd75a20ee27fd9adebab32041f755214dbc6bffa90cc0225b39da2e5c2d3b90600090a250565b60606001600160a01b0383163b6122175760405162461bcd60e51b815260206004820152602660248201527f416464726573733a2064656c65676174652063616c6c20746f206e6f6e2d636f6044820152651b9d1c9858dd60d21b606482015260840161063d565b600080846001600160a01b0316846040516122329190612a9a565b600060405180830381855af49150503d806000811461226d576040519150601f19603f3d011682016040523d82523d6000602084013e612272565b606091505b509150915061229a8282604051806060016040528060278152602001612ad7602791396122a3565b95945050505050565b606083156122b2575081612168565b8251156122c25782518084602001fd5b8160405162461bcd60e51b815260040161063d9190612a1c565b6001600160e01b03198116811461072d57600080fd5b60006020828403121561230457600080fd5b8135612168816122dc565b60006020828403121561232157600080fd5b5035919050565b6001600160a01b038116811461072d57600080fd5b6000806040838503121561235057600080fd5b82359150602083013561236281612328565b809150509250929050565b60006020828403121561237f57600080fd5b813561216881612328565b6000806040838503121561239d57600080fd5b82356123a881612328565b9150602083013561236281612328565b634e487b7160e01b600052604160045260246000fd5b604051601f8201601f1916810167ffffffffffffffff811182821017156123f7576123f76123b8565b604052919050565b600067ffffffffffffffff821115612419576124196123b8565b50601f01601f191660200190565b600082601f83011261243857600080fd5b813561244b612446826123ff565b6123ce565b81815284602083860101111561246057600080fd5b816020850160208301376000918101602001919091529392505050565b6000806040838503121561249057600080fd5b823561249b81612328565b9150602083013567ffffffffffffffff8111156124b757600080fd5b6124c385828601612427565b9150509250929050565b600082601f8301126124de57600080fd5b8135602067ffffffffffffffff8211156124fa576124fa6123b8565b8160051b6125098282016123ce565b928352848101820192828101908785111561252357600080fd5b83870192505b8483101561254257823582529183019190830190612529565b979650505050505050565b600080600080600060a0868803121561256557600080fd5b853561257081612328565b9450602086013561258081612328565b9350604086013567ffffffffffffffff8082111561259d57600080fd5b6125a989838a016124cd565b945060608801359150808211156125bf57600080fd5b6125cb89838a016124cd565b935060808801359150808211156125e157600080fd5b506125ee88828901612427565b9150509295509295909350565b600080600080600060a0868803121561261357600080fd5b853561261e81612328565b9450602086013561262e81612328565b93506040860135925060608601359150608086013567ffffffffffffffff81111561265857600080fd5b6125ee88828901612427565b6020808252602c908201527f46756e6374696f6e206d7573742062652063616c6c6564207468726f7567682060408201526b19195b1959d85d1958d85b1b60a21b606082015260800190565b6020808252602c908201527f46756e6374696f6e206d7573742062652063616c6c6564207468726f7567682060408201526b6163746976652070726f787960a01b606082015260800190565b60006020828403121561270e57600080fd5b8151612168816122dc565b600080828403606081121561272d57600080fd5b8351612738816122dc565b92506040601f198201121561274c57600080fd5b506040516040810181811067ffffffffffffffff82111715612770576127706123b8565b60409081526020850151825284015161278881612328565b6020820152919491935090915050565b634e487b7160e01b600052603260045260246000fd5b634e487b7160e01b600052601160045260246000fd5b60006000198214156127d8576127d86127ae565b5060010190565b6000602082840312156127f157600080fd5b5051919050565b6020808252602e908201527f496e697469616c697a61626c653a20636f6e747261637420697320616c72656160408201526d191e481a5b9a5d1a585b1a5e995960921b606082015260800190565b60006020828403121561285857600080fd5b8151801515811461216857600080fd5b60005b8381101561288357818101518382015260200161286b565b8381111561197d5750506000910152565b6000602082840312156128a657600080fd5b815167ffffffffffffffff8111156128bd57600080fd5b8201601f810184136128ce57600080fd5b80516128dc612446826123ff565b8181528560208385010111156128f157600080fd5b61229a826020830160208601612868565b6000815180845261291a816020860160208601612868565b601f01601f19169290920160200192915050565b600061012085835280602084015261294881840186612902565b91505082516040830152602083015160018060a01b03808216606085015260408501516080850152606085015160a08501528060808601511660c085015260a085015160e08501528060c0860151166101008501525050949350505050565b7f416363657373436f6e74726f6c3a206163636f756e74200000000000000000008152600083516129df816017850160208801612868565b7001034b99036b4b9b9b4b733903937b6329607d1b6017918401918201528351612a10816028840160208801612868565b01602801949350505050565b6020815260006121686020830184612902565b600060208284031215612a4157600080fd5b815161216881612328565b6000816000190483118215151615612a6657612a666127ae565b500290565b60008219821115612a7e57612a7e6127ae565b500190565b600081612a9257612a926127ae565b506000190190565b60008251612aac818460208701612868565b919091019291505056fe360894a13ba1a3210667c828492db98dca3e2076cc3735a920a3ca505d382bbc416464726573733a206c6f772d6c6576656c2064656c65676174652063616c6c206661696c6564a2646970667358221220087b431c27c7b79a28bfa708988d8872d803899734aee45df0a850d66f018d6964736f6c63430008090033",
  "immutableReferences": {
    "434": [
      {
        "length": 32,
        "start": 734
      },
      {
        "length": 32,
        "start": 6267
      }
    ],
    "1061": [
      {
        "length": 32,
        "start": 1627
      },
      {
        "length": 32,
        "start": 1691
      },
      {
        "length": 32,
        "start": 2017
      },
      {
        "length": 32,
        "start": 2081
      },
      {
        "length": 32,
        "start": 2224
      }
    ]
  },
  "source": "// SPDX-License-Identifier: MIT\npragma solidity 0.8.9;\n\nimport \"@openzeppelin/contracts-upgradeable/access/AccessControlUpgradeable.sol\";\nimport \"@openzeppelin/contracts-upgradeable/proxy/utils/Initializable.sol\";\nimport \"@openzeppelin/contracts-upgradeable/proxy/utils/UUPSUpgradeable.sol\";\nimport \"@openzeppelin/contracts-upgradeable/token/ERC20/IERC20Upgradeable.sol\";\nimport \"@openzeppelin/contracts-upgradeable/token/ERC721/IERC721Upgradeable.sol\";\nimport \"@openzeppelin/contracts-upgradeable/token/ERC1155/IERC1155Upgradeable.sol\";\nimport \"@openzeppelin/contracts-upgradeable/token/ERC1155/utils/ERC1155ReceiverUpgradeable.sol\";\nimport \"@openzeppelin/contracts-upgradeable/security/PausableUpgradeable.sol\";\nimport \"@openzeppelin/contracts-upgradeable/metatx/ERC2771ContextUpgradeable.sol\";\nimport \"@openzeppelin/contracts-upgradeable/utils/CountersUpgradeable.sol\";\nimport \"@openzeppelin/contracts-upgradeable/utils/math/SafeMathUpgradeable.sol\";\nimport \"@openzeppelin/contracts-upgradeable/utils/AddressUpgradeable.sol\";\nimport \"../common/MelandAccessRoles.sol\";\nimport \"../nft/IProductManager.sol\";\nimport \"./IMarketplace.sol\";\n\ncontract Marketplace is\n    Initializable,\n    IMarketplace,\n    MelandAccessRoles,\n    UUPSUpgradeable,\n    ERC2771ContextUpgradeable,\n    ERC1155ReceiverUpgradeable\n{\n    bytes4 internal constant ERC1155_RECEIVED_VALUE = 0xf23a6e61;\n    bytes4 internal constant ERC1155_BATCH_RECEIVED_VALUE = 0xbc197c81;\n\n    using AddressUpgradeable for address;\n    using SafeMathUpgradeable for uint256;\n    using CountersUpgradeable for CountersUpgradeable.Counter;\n\n    CountersUpgradeable.Counter private _orderIdCounter;\n\n    IProductManager public productManager;\n\n    uint256 public ownerCutPerMillion;\n\n    mapping(uint256 => Order) public orderById;\n\n    /// @custom:oz-upgrades-unsafe-allow constructor\n    constructor(address trustedForwarder)\n        ERC2771ContextUpgradeable(trustedForwarder)\n    {\n    }\n\n    function initialize(address mpc, IProductManager _pm) public initializer {\n        __MelandAccessRoles_init(mpc);\n        __UUPSUpgradeable_init();\n        productManager = _pm;\n        _setOwnerCutPerMillion(50000);\n    }\n\n    // 50000 = 5%\n    // 500000 = 50%\n    function setOwnerCutPerMillion(uint256 _ownerCutPerMillion)\n        public\n        onlyRole(GM_ROLE)\n    {\n        _setOwnerCutPerMillion(_ownerCutPerMillion);\n    }\n\n    function _setOwnerCutPerMillion(uint256 _ownerCutPerMillion) internal {\n        require(\n            _ownerCutPerMillion < 1000000,\n            \"Meland.Marketplace#_setOwnerCutPerMillion: The owner cut should be between 0 and 999,999\"\n        );\n\n        ownerCutPerMillion = _ownerCutPerMillion;\n        emit ChangedOwnerCutPerMillion(ownerCutPerMillion);\n    }\n\n    function _erc721validate(\n        IERC721Upgradeable nft,\n        uint256 tokenId,\n        uint256 amount,\n        address sender\n    ) internal view {\n        require(\n            nft.ownerOf(tokenId) == sender,\n            \"Meland.Marketplace#erc721validate: The sender is not the owner of the token\"\n        );\n\n        require(\n            nft.getApproved(tokenId) == address(this) ||\n                nft.isApprovedForAll(sender, address(this)),\n            \"Meland.Marketplace#erc721validate: The contract is not authorized to manage the asset\"\n        );\n\n        require(\n            amount == 1,\n            \"Meland.Marketplace#erc721validate: The amount should be 1\"\n        );\n    }\n\n    function _erc1155validate(\n        IERC1155Upgradeable nft,\n        uint256 tokenId,\n        uint256 amount,\n        uint256 erc1155recivedAmount,\n        address sender\n    ) internal view {\n        if (amount != erc1155recivedAmount) {\n            require(\n                nft.balanceOf(sender, tokenId) > 0,\n                \"Meland.Marketplace#_erc1155validate: Only the owner can create orders\"\n            );\n            require(\n                nft.isApprovedForAll(sender, address(this)),\n                \"Meland.Marketplace#_erc1155validate: The contract is not authorized to manage the asset\"\n            );\n        } else {\n            require(\n                nft.balanceOf(address(this), tokenId) >= erc1155recivedAmount,\n                \"Meland.Marketplace#_erc1155validate: Marketplace amount is not enough\"\n            );\n        }\n    }\n\n    function _createOrder(\n        address nft,\n        address sender,\n        uint256 tokenId,\n        uint256 amount,\n        uint256 erc1155recivedAmount,\n        uint256 priceInWeiForUnit,\n        IERC20Upgradeable acceptedToken\n    ) internal {\n        _orderIdCounter.increment();\n        require(nft.isContract(), \"The nft is not a contract\");\n        require(priceInWeiForUnit > 0, \"Price should be bigger than 0\");\n        ERC165Upgradeable nftDetect = ERC165Upgradeable(nft);\n\n        if (nftDetect.supportsInterface(type(IERC721Upgradeable).interfaceId)) {\n            _erc721validate(IERC721Upgradeable(nft), tokenId, amount, sender);\n        } else if (\n            nftDetect.supportsInterface(type(IERC1155Upgradeable).interfaceId)\n        ) {\n            _erc1155validate(\n                IERC1155Upgradeable(nft),\n                tokenId,\n                amount,\n                erc1155recivedAmount,\n                sender\n            );\n        } else {\n            revert(\n                \"Meland.Marketplace#_createOrder: nft must be erc721 or erc1155\"\n            );\n        }\n\n        bytes32 productId = productManager.getProductId(nft, tokenId);\n        string memory category = productManager.getCategory(nft, tokenId);\n        uint256 orderId = _orderIdCounter.current();\n\n        Order memory order = Order(\n            orderId,\n            sender,\n            tokenId,\n            amount,\n            nft,\n            priceInWeiForUnit,\n            acceptedToken\n        );\n\n        orderById[orderId] = order;\n\n        emit OrderCreated(orderId, productId, category, order);\n    }\n\n    /**\n     * @dev See {IERC165-supportsInterface}.\n     */\n    function supportsInterface(bytes4 interfaceId)\n        public\n        view\n        virtual\n        override(\n            AccessControlUpgradeable,\n            ERC1155ReceiverUpgradeable,\n            IERC165Upgradeable\n        )\n        returns (bool)\n    {\n        return\n            interfaceId == type(AccessControlUpgradeable).interfaceId ||\n            interfaceId == type(ERC1155ReceiverUpgradeable).interfaceId ||\n            super.supportsInterface(interfaceId);\n    }\n\n    bytes4 internal constant CREATE_ORDER_SIG = bytes4(\n        keccak256(\"_createOrder(uint256,address)\")\n    );\n    function onERC1155BatchReceived(\n        address, // _operator,\n        address _from,\n        uint256[] memory _ids,\n        uint256[] memory _amounts,\n        bytes memory _data\n    ) public override returns (bytes4) {\n        // This function assumes that the ERC-1155 token contract can\n        // only call `onERC1155BatchReceived()` via a valid token transfer.\n        // Users must be responsible and only use this Niftyswap exchange\n        // contract with ERC-1155 compliant token contracts.\n\n        // Obtain method to call via object signature\n        bytes4 functionSignature = abi.decode(_data, (bytes4));\n        require(functionSignature == CREATE_ORDER_SIG, \"Meland.Marketplace#onERC1155BatchReceived: Invalid function signature\");\n        CreateOrderParamsWithERCRecived memory params;\n        (, params) = abi.decode(_data, (bytes4, CreateOrderParamsWithERCRecived));\n        require(params.acceptedToken.isContract(), \"Meland.Marketplace#onERC1155BatchReceived: The accepted token is not a contract\");\n\n        for (uint i = 0; i < _ids.length; i++) {\n            _createOrder(\n                _msgSender(),\n                _from,\n                _ids[i],\n                _amounts[i],\n                _amounts[i],\n                params.priceInWeiForUnit,\n                IERC20Upgradeable(params.acceptedToken)\n            );\n        }\n        return ERC1155_BATCH_RECEIVED_VALUE;\n    }\n\n    /**\n     * @dev Will pass to onERC115Batch5Received\n     */\n    function onERC1155Received(\n        address _operator,\n        address _from,\n        uint256 _id,\n        uint256 _amount,\n        bytes memory _data\n    ) public override returns (bytes4) {\n        uint256[] memory ids = new uint256[](1);\n        uint256[] memory amounts = new uint256[](1);\n\n        ids[0] = _id;\n        amounts[0] = _amount;\n\n        require(\n            ERC1155_BATCH_RECEIVED_VALUE ==\n                onERC1155BatchReceived(_operator, _from, ids, amounts, _data),\n            \"Meland.Marketplace#onERC1155Received: INVALID_ONRECEIVED_MESSAGE\"\n        );\n\n        return ERC1155_RECEIVED_VALUE;\n    }\n\n    function _authorizeUpgrade(address newImplementation)\n        internal\n        override\n        onlyRole(UPGRADER_ROLE)\n    {}\n\n    function _msgData()\n        internal\n        view\n        virtual\n        override(ContextUpgradeable, ERC2771ContextUpgradeable)\n        returns (bytes calldata)\n    {\n        return ERC2771ContextUpgradeable._msgData();\n    }\n\n    function _msgSender()\n        internal\n        view\n        virtual\n        override(ContextUpgradeable, ERC2771ContextUpgradeable)\n        returns (address)\n    {\n        return ERC2771ContextUpgradeable._msgSender();\n    }\n}\n",
  "sourcePath": "/Users/alberthuang/code/contracts-v2/contracts/marketplace/Marketplace.sol",
  "compiler": {
    "name": "solc",
    "version": "0.8.9+commit.e5eed63a.Emscripten.clang"
  },
  "schemaVersion": "3.4.5",
  "updatedAt": "2022-05-25T07:00:07.333Z",
  "devdoc": {
    "kind": "dev",
    "methods": {
      "constructor": {
        "custom:oz-upgrades-unsafe-allow": "constructor"
      },
      "getRoleAdmin(bytes32)": {
        "details": "Returns the admin role that controls `role`. See {grantRole} and {revokeRole}. To change a role's admin, use {_setRoleAdmin}."
      },
      "grantRole(bytes32,address)": {
        "details": "Grants `role` to `account`. If `account` had not been already granted `role`, emits a {RoleGranted} event. Requirements: - the caller must have ``role``'s admin role."
      },
      "hasRole(bytes32,address)": {
        "details": "Returns `true` if `account` has been granted `role`."
      },
      "onERC1155Received(address,address,uint256,uint256,bytes)": {
        "details": "Will pass to onERC115Batch5Received"
      },
      "proxiableUUID()": {
        "details": "Implementation of the ERC1822 {proxiableUUID} function. This returns the storage slot used by the implementation. It is used to validate that the this implementation remains valid after an upgrade. IMPORTANT: A proxy pointing at a proxiable contract should not be considered proxiable itself, because this risks bricking a proxy that upgrades to it, by delegating to itself until out of gas. Thus it is critical that this function revert if invoked through a proxy. This is guaranteed by the `notDelegated` modifier."
      },
      "renounceRole(bytes32,address)": {
        "details": "Revokes `role` from the calling account. Roles are often managed via {grantRole} and {revokeRole}: this function's purpose is to provide a mechanism for accounts to lose their privileges if they are compromised (such as when a trusted device is misplaced). If the calling account had been revoked `role`, emits a {RoleRevoked} event. Requirements: - the caller must be `account`."
      },
      "revokeRole(bytes32,address)": {
        "details": "Revokes `role` from `account`. If `account` had been granted `role`, emits a {RoleRevoked} event. Requirements: - the caller must have ``role``'s admin role."
      },
      "supportsInterface(bytes4)": {
        "details": "See {IERC165-supportsInterface}."
      },
      "upgradeTo(address)": {
        "details": "Upgrade the implementation of the proxy to `newImplementation`. Calls {_authorizeUpgrade}. Emits an {Upgraded} event."
      },
      "upgradeToAndCall(address,bytes)": {
        "details": "Upgrade the implementation of the proxy to `newImplementation`, and subsequently execute the function call encoded in `data`. Calls {_authorizeUpgrade}. Emits an {Upgraded} event."
      }
    },
    "version": 1
  },
  "userdoc": {
    "kind": "user",
    "methods": {},
    "version": 1
  }
}