{
  "contractName": "MelandChainERC1155",
  "abi": [
    {
      "inputs": [
        {
          "internalType": "address",
          "name": "trustedForwarder",
          "type": "address"
        }
      ],
      "stateMutability": "nonpayable",
      "type": "constructor"
    },
    {
      "anonymous": false,
      "inputs": [
        {
          "indexed": false,
          "internalType": "address",
          "name": "previousAdmin",
          "type": "address"
        },
        {
          "indexed": false,
          "internalType": "address",
          "name": "newAdmin",
          "type": "address"
        }
      ],
      "name": "AdminChanged",
      "type": "event"
    },
    {
      "anonymous": false,
      "inputs": [
        {
          "indexed": true,
          "internalType": "address",
          "name": "account",
          "type": "address"
        },
        {
          "indexed": true,
          "internalType": "address",
          "name": "operator",
          "type": "address"
        },
        {
          "indexed": false,
          "internalType": "bool",
          "name": "approved",
          "type": "bool"
        }
      ],
      "name": "ApprovalForAll",
      "type": "event"
    },
    {
      "anonymous": false,
      "inputs": [
        {
          "indexed": true,
          "internalType": "address",
          "name": "beacon",
          "type": "address"
        }
      ],
      "name": "BeaconUpgraded",
      "type": "event"
    },
    {
      "anonymous": false,
      "inputs": [
        {
          "indexed": false,
          "internalType": "uint8",
          "name": "version",
          "type": "uint8"
        }
      ],
      "name": "Initialized",
      "type": "event"
    },
    {
      "anonymous": false,
      "inputs": [
        {
          "indexed": true,
          "internalType": "bytes32",
          "name": "signKeccak256",
          "type": "bytes32"
        }
      ],
      "name": "RefundSwapin",
      "type": "event"
    },
    {
      "anonymous": false,
      "inputs": [
        {
          "indexed": true,
          "internalType": "bytes32",
          "name": "role",
          "type": "bytes32"
        },
        {
          "indexed": true,
          "internalType": "bytes32",
          "name": "previousAdminRole",
          "type": "bytes32"
        },
        {
          "indexed": true,
          "internalType": "bytes32",
          "name": "newAdminRole",
          "type": "bytes32"
        }
      ],
      "name": "RoleAdminChanged",
      "type": "event"
    },
    {
      "anonymous": false,
      "inputs": [
        {
          "indexed": true,
          "internalType": "bytes32",
          "name": "role",
          "type": "bytes32"
        },
        {
          "indexed": true,
          "internalType": "address",
          "name": "account",
          "type": "address"
        },
        {
          "indexed": true,
          "internalType": "address",
          "name": "sender",
          "type": "address"
        }
      ],
      "name": "RoleGranted",
      "type": "event"
    },
    {
      "anonymous": false,
      "inputs": [
        {
          "indexed": true,
          "internalType": "bytes32",
          "name": "role",
          "type": "bytes32"
        },
        {
          "indexed": true,
          "internalType": "address",
          "name": "account",
          "type": "address"
        },
        {
          "indexed": true,
          "internalType": "address",
          "name": "sender",
          "type": "address"
        }
      ],
      "name": "RoleRevoked",
      "type": "event"
    },
    {
      "anonymous": false,
      "inputs": [
        {
          "indexed": true,
          "internalType": "bytes32",
          "name": "signKeccak256",
          "type": "bytes32"
        },
        {
          "indexed": false,
          "internalType": "address",
          "name": "to",
          "type": "address"
        },
        {
          "indexed": false,
          "internalType": "uint256",
          "name": "tokenId",
          "type": "uint256"
        },
        {
          "indexed": false,
          "internalType": "uint256",
          "name": "value",
          "type": "uint256"
        }
      ],
      "name": "SwapinWithTokenId",
      "type": "event"
    },
    {
      "anonymous": false,
      "inputs": [
        {
          "indexed": true,
          "internalType": "address",
          "name": "to",
          "type": "address"
        },
        {
          "indexed": false,
          "internalType": "uint256",
          "name": "tokenId",
          "type": "uint256"
        },
        {
          "indexed": false,
          "internalType": "uint256",
          "name": "value",
          "type": "uint256"
        }
      ],
      "name": "SwapoutWithTokenId",
      "type": "event"
    },
    {
      "anonymous": false,
      "inputs": [
        {
          "indexed": true,
          "internalType": "address",
          "name": "operator",
          "type": "address"
        },
        {
          "indexed": true,
          "internalType": "address",
          "name": "from",
          "type": "address"
        },
        {
          "indexed": true,
          "internalType": "address",
          "name": "to",
          "type": "address"
        },
        {
          "indexed": false,
          "internalType": "uint256[]",
          "name": "ids",
          "type": "uint256[]"
        },
        {
          "indexed": false,
          "internalType": "uint256[]",
          "name": "values",
          "type": "uint256[]"
        }
      ],
      "name": "TransferBatch",
      "type": "event"
    },
    {
      "anonymous": false,
      "inputs": [
        {
          "indexed": true,
          "internalType": "address",
          "name": "operator",
          "type": "address"
        },
        {
          "indexed": true,
          "internalType": "address",
          "name": "from",
          "type": "address"
        },
        {
          "indexed": true,
          "internalType": "address",
          "name": "to",
          "type": "address"
        },
        {
          "indexed": false,
          "internalType": "uint256",
          "name": "id",
          "type": "uint256"
        },
        {
          "indexed": false,
          "internalType": "uint256",
          "name": "value",
          "type": "uint256"
        }
      ],
      "name": "TransferSingle",
      "type": "event"
    },
    {
      "anonymous": false,
      "inputs": [
        {
          "indexed": false,
          "internalType": "string",
          "name": "value",
          "type": "string"
        },
        {
          "indexed": true,
          "internalType": "uint256",
          "name": "id",
          "type": "uint256"
        }
      ],
      "name": "URI",
      "type": "event"
    },
    {
      "anonymous": false,
      "inputs": [
        {
          "indexed": true,
          "internalType": "address",
          "name": "implementation",
          "type": "address"
        }
      ],
      "name": "Upgraded",
      "type": "event"
    },
    {
      "inputs": [],
      "name": "DEFAULT_ADMIN_ROLE",
      "outputs": [
        {
          "internalType": "bytes32",
          "name": "",
          "type": "bytes32"
        }
      ],
      "stateMutability": "view",
      "type": "function"
    },
    {
      "inputs": [],
      "name": "DOMAIN_SEPARATOR",
      "outputs": [
        {
          "internalType": "bytes32",
          "name": "",
          "type": "bytes32"
        }
      ],
      "stateMutability": "view",
      "type": "function"
    },
    {
      "inputs": [],
      "name": "GM_ROLE",
      "outputs": [
        {
          "internalType": "bytes32",
          "name": "",
          "type": "bytes32"
        }
      ],
      "stateMutability": "view",
      "type": "function"
    },
    {
      "inputs": [],
      "name": "MINTER_ROLE",
      "outputs": [
        {
          "internalType": "bytes32",
          "name": "",
          "type": "bytes32"
        }
      ],
      "stateMutability": "view",
      "type": "function"
    },
    {
      "inputs": [],
      "name": "UPGRADER_ROLE",
      "outputs": [
        {
          "internalType": "bytes32",
          "name": "",
          "type": "bytes32"
        }
      ],
      "stateMutability": "view",
      "type": "function"
    },
    {
      "inputs": [
        {
          "internalType": "address",
          "name": "account",
          "type": "address"
        },
        {
          "internalType": "uint256",
          "name": "id",
          "type": "uint256"
        }
      ],
      "name": "balanceOf",
      "outputs": [
        {
          "internalType": "uint256",
          "name": "",
          "type": "uint256"
        }
      ],
      "stateMutability": "view",
      "type": "function"
    },
    {
      "inputs": [
        {
          "internalType": "address[]",
          "name": "accounts",
          "type": "address[]"
        },
        {
          "internalType": "uint256[]",
          "name": "ids",
          "type": "uint256[]"
        }
      ],
      "name": "balanceOfBatch",
      "outputs": [
        {
          "internalType": "uint256[]",
          "name": "",
          "type": "uint256[]"
        }
      ],
      "stateMutability": "view",
      "type": "function"
    },
    {
      "inputs": [
        {
          "internalType": "bytes32",
          "name": "role",
          "type": "bytes32"
        }
      ],
      "name": "getRoleAdmin",
      "outputs": [
        {
          "internalType": "bytes32",
          "name": "",
          "type": "bytes32"
        }
      ],
      "stateMutability": "view",
      "type": "function"
    },
    {
      "inputs": [
        {
          "internalType": "bytes32",
          "name": "role",
          "type": "bytes32"
        },
        {
          "internalType": "address",
          "name": "account",
          "type": "address"
        }
      ],
      "name": "grantRole",
      "outputs": [],
      "stateMutability": "nonpayable",
      "type": "function"
    },
    {
      "inputs": [
        {
          "internalType": "bytes32",
          "name": "role",
          "type": "bytes32"
        },
        {
          "internalType": "address",
          "name": "account",
          "type": "address"
        }
      ],
      "name": "hasRole",
      "outputs": [
        {
          "internalType": "bool",
          "name": "",
          "type": "bool"
        }
      ],
      "stateMutability": "view",
      "type": "function"
    },
    {
      "inputs": [
        {
          "internalType": "uint256",
          "name": "",
          "type": "uint256"
        }
      ],
      "name": "holders",
      "outputs": [
        {
          "internalType": "address",
          "name": "",
          "type": "address"
        }
      ],
      "stateMutability": "view",
      "type": "function"
    },
    {
      "inputs": [
        {
          "internalType": "address",
          "name": "account",
          "type": "address"
        },
        {
          "internalType": "address",
          "name": "operator",
          "type": "address"
        }
      ],
      "name": "isApprovedForAll",
      "outputs": [
        {
          "internalType": "bool",
          "name": "",
          "type": "bool"
        }
      ],
      "stateMutability": "view",
      "type": "function"
    },
    {
      "inputs": [
        {
          "internalType": "address",
          "name": "",
          "type": "address"
        }
      ],
      "name": "isHolder",
      "outputs": [
        {
          "internalType": "bool",
          "name": "",
          "type": "bool"
        }
      ],
      "stateMutability": "view",
      "type": "function"
    },
    {
      "inputs": [
        {
          "internalType": "address",
          "name": "forwarder",
          "type": "address"
        }
      ],
      "name": "isTrustedForwarder",
      "outputs": [
        {
          "internalType": "bool",
          "name": "",
          "type": "bool"
        }
      ],
      "stateMutability": "view",
      "type": "function"
    },
    {
      "inputs": [],
      "name": "proxiableUUID",
      "outputs": [
        {
          "internalType": "bytes32",
          "name": "",
          "type": "bytes32"
        }
      ],
      "stateMutability": "view",
      "type": "function"
    },
    {
      "inputs": [
        {
          "internalType": "bytes32",
          "name": "role",
          "type": "bytes32"
        },
        {
          "internalType": "address",
          "name": "account",
          "type": "address"
        }
      ],
      "name": "renounceRole",
      "outputs": [],
      "stateMutability": "nonpayable",
      "type": "function"
    },
    {
      "inputs": [
        {
          "internalType": "bytes32",
          "name": "role",
          "type": "bytes32"
        },
        {
          "internalType": "address",
          "name": "account",
          "type": "address"
        }
      ],
      "name": "revokeRole",
      "outputs": [],
      "stateMutability": "nonpayable",
      "type": "function"
    },
    {
      "inputs": [
        {
          "internalType": "address",
          "name": "from",
          "type": "address"
        },
        {
          "internalType": "address",
          "name": "to",
          "type": "address"
        },
        {
          "internalType": "uint256[]",
          "name": "ids",
          "type": "uint256[]"
        },
        {
          "internalType": "uint256[]",
          "name": "amounts",
          "type": "uint256[]"
        },
        {
          "internalType": "bytes",
          "name": "data",
          "type": "bytes"
        }
      ],
      "name": "safeBatchTransferFrom",
      "outputs": [],
      "stateMutability": "nonpayable",
      "type": "function"
    },
    {
      "inputs": [
        {
          "internalType": "address",
          "name": "from",
          "type": "address"
        },
        {
          "internalType": "address",
          "name": "to",
          "type": "address"
        },
        {
          "internalType": "uint256",
          "name": "id",
          "type": "uint256"
        },
        {
          "internalType": "uint256",
          "name": "amount",
          "type": "uint256"
        },
        {
          "internalType": "bytes",
          "name": "data",
          "type": "bytes"
        }
      ],
      "name": "safeTransferFrom",
      "outputs": [],
      "stateMutability": "nonpayable",
      "type": "function"
    },
    {
      "inputs": [
        {
          "internalType": "address",
          "name": "operator",
          "type": "address"
        },
        {
          "internalType": "bool",
          "name": "approved",
          "type": "bool"
        }
      ],
      "name": "setApprovalForAll",
      "outputs": [],
      "stateMutability": "nonpayable",
      "type": "function"
    },
    {
      "inputs": [
        {
          "internalType": "address",
          "name": "newImplementation",
          "type": "address"
        }
      ],
      "name": "upgradeTo",
      "outputs": [],
      "stateMutability": "nonpayable",
      "type": "function"
    },
    {
      "inputs": [
        {
          "internalType": "address",
          "name": "newImplementation",
          "type": "address"
        },
        {
          "internalType": "bytes",
          "name": "data",
          "type": "bytes"
        }
      ],
      "name": "upgradeToAndCall",
      "outputs": [],
      "stateMutability": "payable",
      "type": "function"
    },
    {
      "inputs": [
        {
          "internalType": "uint256",
          "name": "",
          "type": "uint256"
        }
      ],
      "name": "uri",
      "outputs": [
        {
          "internalType": "string",
          "name": "",
          "type": "string"
        }
      ],
      "stateMutability": "view",
      "type": "function"
    },
    {
      "inputs": [
        {
          "internalType": "address",
          "name": "mpc",
          "type": "address"
        }
      ],
      "name": "initialize",
      "outputs": [],
      "stateMutability": "nonpayable",
      "type": "function"
    },
    {
      "inputs": [
        {
          "internalType": "bytes4",
          "name": "interfaceId",
          "type": "bytes4"
        }
      ],
      "name": "supportsInterface",
      "outputs": [
        {
          "internalType": "bool",
          "name": "",
          "type": "bool"
        }
      ],
      "stateMutability": "view",
      "type": "function"
    },
    {
      "inputs": [
        {
          "internalType": "address",
          "name": "holder",
          "type": "address"
        }
      ],
      "name": "addHolder",
      "outputs": [],
      "stateMutability": "nonpayable",
      "type": "function"
    },
    {
      "inputs": [
        {
          "internalType": "address",
          "name": "to",
          "type": "address"
        },
        {
          "internalType": "uint256",
          "name": "tokenId",
          "type": "uint256"
        },
        {
          "internalType": "uint256",
          "name": "value",
          "type": "uint256"
        }
      ],
      "name": "callSwapoutWithTokenId",
      "outputs": [],
      "stateMutability": "nonpayable",
      "type": "function"
    },
    {
      "inputs": [],
      "name": "test",
      "outputs": [],
      "stateMutability": "nonpayable",
      "type": "function"
    },
    {
      "inputs": [
        {
          "components": [
            {
              "internalType": "uint8",
              "name": "v",
              "type": "uint8"
            },
            {
              "internalType": "bytes32",
              "name": "r",
              "type": "bytes32"
            },
            {
              "internalType": "bytes32",
              "name": "s",
              "type": "bytes32"
            }
          ],
          "internalType": "struct IMelandAccessRoles.MPCPermit",
          "name": "signature",
          "type": "tuple"
        },
        {
          "components": [
            {
              "internalType": "address",
              "name": "to",
              "type": "address"
            },
            {
              "internalType": "uint256",
              "name": "tokenId",
              "type": "uint256"
            },
            {
              "internalType": "uint256",
              "name": "cid",
              "type": "uint256"
            },
            {
              "internalType": "uint256",
              "name": "value",
              "type": "uint256"
            },
            {
              "internalType": "bytes",
              "name": "data",
              "type": "bytes"
            }
          ],
          "internalType": "struct IMelandChainERC1155.SwapinParams",
          "name": "swapinparams",
          "type": "tuple"
        }
      ],
      "name": "callSwapinWithTokenId",
      "outputs": [],
      "stateMutability": "nonpayable",
      "type": "function"
    },
    {
      "inputs": [
        {
          "internalType": "uint256",
          "name": "tokenId",
          "type": "uint256"
        }
      ],
      "name": "getCidByTokenId",
      "outputs": [
        {
          "internalType": "uint256",
          "name": "",
          "type": "uint256"
        }
      ],
      "stateMutability": "view",
      "type": "function"
    }
  ],
  "bytecode": "0x60c0604052306080523480156200001557600080fd5b50604051620031043803806200310483398101604081905262000038916200004a565b6001600160a01b031660a0526200007c565b6000602082840312156200005d57600080fd5b81516001600160a01b03811681146200007557600080fd5b9392505050565b60805160a05161303f620000c5600039600081816104350152611adf015260008181610990015281816109d001528181610b9901528181610bd90152610c68015261303f6000f3fe6080604052600436106101cc5760003560e01c8063572b6c05116100f7578063d4d7b19a11610095578063e985e9c511610064578063e985e9c5146105bf578063f242432a14610608578063f72c0d8b14610628578063f8a8fd6d1461065c57600080fd5b8063d4d7b19a1461051a578063d53913931461054b578063d547741f1461057f578063e80227a01461059f57600080fd5b8063a22cb465116100d1578063a22cb4651461049a578063a7edb5de146104ba578063ac1e17df146104da578063c4d66de8146104fa57600080fd5b8063572b6c051461041857806391d1485414610465578063a217fddf1461048557600080fd5b806330c7be2c1161016f5780633ef780bc1161013e5780633ef780bc146103955780634e1273f4146103c35780634f1ef286146103f057806352d1902d1461040357600080fd5b806330c7be2c1461030b5780633644e5151461033f57806336568abe146103555780633659cfe61461037557600080fd5b8063248a9ca3116101ab578063248a9ca3146102615780632a11ced0146102915780632eb2c2d6146102c95780632f2ff15d146102eb57600080fd5b8062fdd58e146101d157806301ffc9a7146102045780630e89341c14610234575b600080fd5b3480156101dd57600080fd5b506101f16101ec36600461242b565b61066b565b6040519081526020015b60405180910390f35b34801561021057600080fd5b5061022461021f36600461246b565b610704565b60405190151581526020016101fb565b34801561024057600080fd5b5061025461024f366004612488565b610765565b6040516101fb91906124f9565b34801561026d57600080fd5b506101f161027c366004612488565b60009081526065602052604090206001015490565b34801561029d57600080fd5b506102b16102ac366004612488565b6107f9565b6040516001600160a01b0390911681526020016101fb565b3480156102d557600080fd5b506102e96102e4366004612699565b610824565b005b3480156102f757600080fd5b506102e9610306366004612742565b6108cd565b34801561031757600080fd5b506101f17ff5eb84615c2a00ecaf817d13794ebd6299c9e01c395bf4018453f13f577f544981565b34801561034b57600080fd5b506101f160975481565b34801561036157600080fd5b506102e9610370366004612742565b6108f7565b34801561038157600080fd5b506102e961039036600461276e565b610985565b3480156103a157600080fd5b506101f16103b0366004612488565b6000908152610162602052604090205490565b3480156103cf57600080fd5b506103e36103de366004612789565b610a65565b6040516101fb919061288e565b6102e96103fe3660046128a1565b610b8e565b34801561040f57600080fd5b506101f1610c5b565b34801561042457600080fd5b5061022461043336600461276e565b7f00000000000000000000000000000000000000000000000000000000000000006001600160a01b0390811691161490565b34801561047157600080fd5b50610224610480366004612742565b610d0f565b34801561049157600080fd5b506101f1600081565b3480156104a657600080fd5b506102e96104b53660046128e4565b610d3a565b3480156104c657600080fd5b506102e96104d5366004612920565b610d4c565b3480156104e657600080fd5b506102e96104f536600461276e565b610d57565b34801561050657600080fd5b506102e961051536600461276e565b610dea565b34801561052657600080fd5b5061022461053536600461276e565b6101606020526000908152604090205460ff1681565b34801561055757600080fd5b506101f17f9f2df0fed2c77648de5860a4cc508cd0818c85b8b8a1ab4ceeef8d981c8956a681565b34801561058b57600080fd5b506102e961059a366004612742565b610e68565b3480156105ab57600080fd5b506102e96105ba366004612953565b610e8d565b3480156105cb57600080fd5b506102246105da366004612a3d565b6001600160a01b03918216600090815260996020908152604080832093909416825291909152205460ff1690565b34801561061457600080fd5b506102e9610623366004612a67565b61102d565b34801561063457600080fd5b506101f17f189ab7a9244df0848122154315af71fe140f3db0fe014031783b0946b8c9d2e381565b34801561066857600080fd5b50005b60006001600160a01b0383166106dc5760405162461bcd60e51b815260206004820152602b60248201527f455243313135353a2062616c616e636520717565727920666f7220746865207a60448201526a65726f206164647265737360a81b60648201526084015b60405180910390fd5b5060009081526098602090815260408083206001600160a01b03949094168352929052205490565b60006001600160e01b03198216636cdb3d1360e11b148061073557506001600160e01b031982166303a24d0760e21b145b8061075057506001600160e01b031982166327f7c93f60e11b145b8061075f575061075f826110c8565b92915050565b6060609a805461077490612acb565b80601f01602080910402602001604051908101604052809291908181526020018280546107a090612acb565b80156107ed5780601f106107c2576101008083540402835291602001916107ed565b820191906000526020600020905b8154815290600101906020018083116107d057829003601f168201915b50505050509050919050565b610161818154811061080a57600080fd5b6000918252602090912001546001600160a01b0316905081565b61082c611108565b6001600160a01b0316856001600160a01b031614806108525750610852856105da611108565b6108b95760405162461bcd60e51b815260206004820152603260248201527f455243313135353a207472616e736665722063616c6c6572206973206e6f74206044820152711bdddb995c881b9bdc88185c1c1c9bdd995960721b60648201526084016106d3565b6108c68585858585611117565b5050505050565b6000828152606560205260409020600101546108e881611310565b6108f28383611321565b505050565b6108ff611108565b6001600160a01b0316816001600160a01b0316146109775760405162461bcd60e51b815260206004820152602f60248201527f416363657373436f6e74726f6c3a2063616e206f6e6c792072656e6f756e636560448201526e103937b632b9903337b91039b2b63360891b60648201526084016106d3565b61098182826113a8565b5050565b306001600160a01b037f00000000000000000000000000000000000000000000000000000000000000001614156109ce5760405162461bcd60e51b81526004016106d390612b06565b7f00000000000000000000000000000000000000000000000000000000000000006001600160a01b0316610a17600080516020612fc3833981519152546001600160a01b031690565b6001600160a01b031614610a3d5760405162461bcd60e51b81526004016106d390612b52565b610a468161142d565b60408051600080825260208201909252610a6291839190611457565b50565b60608151835114610aca5760405162461bcd60e51b815260206004820152602960248201527f455243313135353a206163636f756e747320616e6420696473206c656e677468604482015268040dad2e6dac2e8c6d60bb1b60648201526084016106d3565b600083516001600160401b03811115610ae557610ae561250c565b604051908082528060200260200182016040528015610b0e578160200160208202803683370190505b50905060005b8451811015610b8657610b59858281518110610b3257610b32612b9e565b6020026020010151858381518110610b4c57610b4c612b9e565b602002602001015161066b565b828281518110610b6b57610b6b612b9e565b6020908102919091010152610b7f81612bca565b9050610b14565b509392505050565b306001600160a01b037f0000000000000000000000000000000000000000000000000000000000000000161415610bd75760405162461bcd60e51b81526004016106d390612b06565b7f00000000000000000000000000000000000000000000000000000000000000006001600160a01b0316610c20600080516020612fc3833981519152546001600160a01b031690565b6001600160a01b031614610c465760405162461bcd60e51b81526004016106d390612b52565b610c4f8261142d565b61098182826001611457565b6000306001600160a01b037f00000000000000000000000000000000000000000000000000000000000000001614610cfb5760405162461bcd60e51b815260206004820152603860248201527f555550535570677261646561626c653a206d757374206e6f742062652063616c60448201527f6c6564207468726f7567682064656c656761746563616c6c000000000000000060648201526084016106d3565b50600080516020612fc38339815191525b90565b60009182526065602090815260408084206001600160a01b0393909316845291905290205460ff1690565b610981610d45611108565b83836115d1565b6108f28383836116b2565b7ff5eb84615c2a00ecaf817d13794ebd6299c9e01c395bf4018453f13f577f5449610d8181611310565b506001600160a01b0316600081815261016060205260408120805460ff19166001908117909155610161805491820181559091527fafbb1c043347995df017ce3291b765e028ad5f784d2aa00c3f5e073760a4de8b0180546001600160a01b0319169091179055565b6000610df66001611706565b90508015610e0e576000805461ff0019166101001790555b610e1782611793565b610e1f6118f4565b8015610981576000805461ff0019169055604051600181527f7f26b83ff96e1f2b6a682f133852f6798a09c465da95921460cefb38474024989060200160405180910390a15050565b600082815260656020526040902060010154610e8381611310565b6108f283836113a8565b60208281015160408085015185518251808601949094528383019190915260f81b6001600160f81b0319166060830152805180830360410181526061909201905280519101206000306001600160a01b03168360000151846020015185606001518660800151604051602401610f069493929190612be5565b60408051601f198184030181529181526020820180516001600160e01b03166316537a6d60e11b17905251610f3b9190612c1c565b6000604051808303816000865af19150503d8060008114610f78576040519150601f19603f3d011682016040523d82523d6000602084013e610f7d565b606091505b505090508015610ffb576040808401516020808601805160009081526101628352849020929092558551915160608088015185516001600160a01b039095168552928401919091529282015283917fc3918c655f8ff86af93d311c098b5a4ef906fcb2ea62c45ca4480f1ae2a7446d910160405180910390a2611027565b60405182907f13209c0f35b838fc09b954da39cf644f270717a40f849eb51230f03d3ab0993f90600090a25b50505050565b611035611108565b6001600160a01b0316856001600160a01b0316148061105b575061105b856105da611108565b6110b95760405162461bcd60e51b815260206004820152602960248201527f455243313135353a2063616c6c6572206973206e6f74206f776e6572206e6f7260448201526808185c1c1c9bdd995960ba1b60648201526084016106d3565b6108c6858585858561195f565b565b60006001600160e01b03198216636cdb3d1360e11b14806110f957506001600160e01b031982166303a24d0760e21b145b8061075f575061075f82611aa6565b6000611112611adb565b905090565b81518351146111795760405162461bcd60e51b815260206004820152602860248201527f455243313135353a2069647320616e6420616d6f756e7473206c656e677468206044820152670dad2e6dac2e8c6d60c31b60648201526084016106d3565b6001600160a01b03841661119f5760405162461bcd60e51b81526004016106d390612c38565b60006111a9611108565b90506111b9818787878787611b20565b60005b84518110156112a25760008582815181106111d9576111d9612b9e565b6020026020010151905060008583815181106111f7576111f7612b9e565b60209081029190910181015160008481526098835260408082206001600160a01b038e1683529093529190912054909150818110156112485760405162461bcd60e51b81526004016106d390612c7d565b60008381526098602090815260408083206001600160a01b038e8116855292528083208585039055908b16825281208054849290611287908490612cc7565b925050819055505050508061129b90612bca565b90506111bc565b50846001600160a01b0316866001600160a01b0316826001600160a01b03167f4a39dc06d4c0dbc64b70af90fd698a233a518aa5d07e595d983b8c0526c8f7fb87876040516112f2929190612cdf565b60405180910390a4611308818787878787611bb8565b505050505050565b610a628161131c611108565b611d2c565b61132b8282610d0f565b6109815760008281526065602090815260408083206001600160a01b03851684529091529020805460ff19166001179055611364611108565b6001600160a01b0316816001600160a01b0316837f2f8788117e7eff1d82e926ec794901d17c78024a50270940304540a733656f0d60405160405180910390a45050565b6113b28282610d0f565b156109815760008281526065602090815260408083206001600160a01b03851684529091529020805460ff191690556113e9611108565b6001600160a01b0316816001600160a01b0316837ff6391f5c32d9c69d2a47ea670b442974b53935d1edc7fd64eb21e047a839171b60405160405180910390a45050565b7f189ab7a9244df0848122154315af71fe140f3db0fe014031783b0946b8c9d2e361098181611310565b7f4910fdfa16fed3260ed0e7147f7cc6da11a60208b5b9406d12a635614ffd91435460ff161561148a576108f283611d90565b826001600160a01b03166352d1902d6040518163ffffffff1660e01b815260040160206040518083038186803b1580156114c357600080fd5b505afa9250505080156114f3575060408051601f3d908101601f191682019092526114f091810190612d04565b60015b6115565760405162461bcd60e51b815260206004820152602e60248201527f45524331393637557067726164653a206e657720696d706c656d656e7461746960448201526d6f6e206973206e6f74205555505360901b60648201526084016106d3565b600080516020612fc383398151915281146115c55760405162461bcd60e51b815260206004820152602960248201527f45524331393637557067726164653a20756e737570706f727465642070726f786044820152681a58589b195555525160ba1b60648201526084016106d3565b506108f2838383611e2c565b816001600160a01b0316836001600160a01b031614156116455760405162461bcd60e51b815260206004820152602960248201527f455243313135353a2073657474696e6720617070726f76616c20737461747573604482015268103337b91039b2b63360b91b60648201526084016106d3565b6001600160a01b03838116600081815260996020908152604080832094871680845294825291829020805460ff191686151590811790915591519182527f17307eab39ab6107e8899845ad3d59bd9653f200f220920489ca2b5937696c31910160405180910390a3505050565b6116bd338383611e51565b60408051838152602081018390526001600160a01b038516917f1ec25b5cb6b929928b07334300639c678b32a51550e0e63d57ffb623cd2ce27b910160405180910390a2505050565b60008054610100900460ff161561174d578160ff1660011480156117295750303b155b6117455760405162461bcd60e51b81526004016106d390612d1d565b506000919050565b60005460ff8084169116106117745760405162461bcd60e51b81526004016106d390612d1d565b506000805460ff191660ff92909216919091179055600190565b919050565b61179b6118f4565b6117a6600082611321565b6117d07ff5eb84615c2a00ecaf817d13794ebd6299c9e01c395bf4018453f13f577f544982611321565b6117fa7f9f2df0fed2c77648de5860a4cc508cd0818c85b8b8a1ab4ceeef8d981c8956a682611321565b6118247f189ab7a9244df0848122154315af71fe140f3db0fe014031783b0946b8c9d2e333611321565b5060408051808201825260068152651b595b185b9960d21b6020918201528151808301835260018152603160f81b9082015281517f8b73c3c69bb8fe3d512ecc4cf759cc79239f7b179b0ffacaa9a75d522b39400f818301527f314ed1331a8d68d6e7c652158abe27c46bf91bd45ef86ab66f92d6500b1056eb818401527fc89efdaa54c0f20c7adf612882df0950f5a951637e0307cdcb4c672f298b8bc660608201524660808201523060a0808301919091528351808303909101815260c09091019092528151910120609755565b600054610100900460ff166110c65760405162461bcd60e51b815260206004820152602b60248201527f496e697469616c697a61626c653a20636f6e7472616374206973206e6f74206960448201526a6e697469616c697a696e6760a81b60648201526084016106d3565b6001600160a01b0384166119855760405162461bcd60e51b81526004016106d390612c38565b600061198f611108565b9050600061199c85611ff0565b905060006119a985611ff0565b90506119b9838989858589611b20565b60008681526098602090815260408083206001600160a01b038c168452909152902054858110156119fc5760405162461bcd60e51b81526004016106d390612c7d565b60008781526098602090815260408083206001600160a01b038d8116855292528083208985039055908a16825281208054889290611a3b908490612cc7565b909155505060408051888152602081018890526001600160a01b03808b16928c821692918816917fc3d58168c5ae7397731d063d5bbf3d657854427343f4c083240f7aacaa2d0f62910160405180910390a4611a9b848a8a8a8a8a61203b565b505050505050505050565b60006001600160e01b03198216637965db0b60e01b148061075f57506301ffc9a760e01b6001600160e01b031983161461075f565b60007f00000000000000000000000000000000000000000000000000000000000000006001600160a01b0316331415611b1b575060131936013560601c90565b503390565b6001600160a01b03841615801590611b5157506001600160a01b0384166000908152610160602052604090205460ff165b15611bb35760005b8351811015611bb157611b9f85858381518110611b7857611b78612b9e565b6020026020010151858481518110611b9257611b92612b9e565b60200260200101516116b2565b80611ba981612bca565b915050611b59565b505b611308565b6001600160a01b0384163b156113085760405163bc197c8160e01b81526001600160a01b0385169063bc197c8190611bfc9089908990889088908890600401612d6b565b602060405180830381600087803b158015611c1657600080fd5b505af1925050508015611c46575060408051601f3d908101601f19168201909252611c4391810190612dc9565b60015b611cf357611c52612de6565b806308c379a01415611c8c5750611c67612e01565b80611c725750611c8e565b8060405162461bcd60e51b81526004016106d391906124f9565b505b60405162461bcd60e51b815260206004820152603460248201527f455243313135353a207472616e7366657220746f206e6f6e20455243313135356044820152732932b1b2b4bb32b91034b6b83632b6b2b73a32b960611b60648201526084016106d3565b6001600160e01b0319811663bc197c8160e01b14611d235760405162461bcd60e51b81526004016106d390612e8a565b50505050505050565b611d368282610d0f565b61098157611d4e816001600160a01b03166014612105565b611d59836020612105565b604051602001611d6a929190612ed2565b60408051601f198184030181529082905262461bcd60e51b82526106d3916004016124f9565b6001600160a01b0381163b611dfd5760405162461bcd60e51b815260206004820152602d60248201527f455243313936373a206e657720696d706c656d656e746174696f6e206973206e60448201526c1bdd08184818dbdb9d1c9858dd609a1b60648201526084016106d3565b600080516020612fc383398151915280546001600160a01b0319166001600160a01b0392909216919091179055565b611e35836122a7565b600082511180611e425750805b156108f25761102783836122e7565b6001600160a01b038316611eb35760405162461bcd60e51b815260206004820152602360248201527f455243313135353a206275726e2066726f6d20746865207a65726f206164647260448201526265737360e81b60648201526084016106d3565b6000611ebd611108565b90506000611eca84611ff0565b90506000611ed784611ff0565b9050611ef783876000858560405180602001604052806000815250611b20565b60008581526098602090815260408083206001600160a01b038a16845290915290205484811015611f765760405162461bcd60e51b8152602060048201526024808201527f455243313135353a206275726e20616d6f756e7420657863656564732062616c604482015263616e636560e01b60648201526084016106d3565b60008681526098602090815260408083206001600160a01b038b81168086529184528285208a8703905582518b81529384018a90529092908816917fc3d58168c5ae7397731d063d5bbf3d657854427343f4c083240f7aacaa2d0f62910160405180910390a4604080516020810190915260009052611d23565b6040805160018082528183019092526060916000919060208083019080368337019050509050828160008151811061202a5761202a612b9e565b602090810291909101015292915050565b6001600160a01b0384163b156113085760405163f23a6e6160e01b81526001600160a01b0385169063f23a6e619061207f9089908990889088908890600401612f47565b602060405180830381600087803b15801561209957600080fd5b505af19250505080156120c9575060408051601f3d908101601f191682019092526120c691810190612dc9565b60015b6120d557611c52612de6565b6001600160e01b0319811663f23a6e6160e01b14611d235760405162461bcd60e51b81526004016106d390612e8a565b60606000612114836002612f8c565b61211f906002612cc7565b6001600160401b038111156121365761213661250c565b6040519080825280601f01601f191660200182016040528015612160576020820181803683370190505b509050600360fc1b8160008151811061217b5761217b612b9e565b60200101906001600160f81b031916908160001a905350600f60fb1b816001815181106121aa576121aa612b9e565b60200101906001600160f81b031916908160001a90535060006121ce846002612f8c565b6121d9906001612cc7565b90505b6001811115612251576f181899199a1a9b1b9c1cb0b131b232b360811b85600f166010811061220d5761220d612b9e565b1a60f81b82828151811061222357612223612b9e565b60200101906001600160f81b031916908160001a90535060049490941c9361224a81612fab565b90506121dc565b5083156122a05760405162461bcd60e51b815260206004820181905260248201527f537472696e67733a20686578206c656e67746820696e73756666696369656e7460448201526064016106d3565b9392505050565b6122b081611d90565b6040516001600160a01b038216907fbc7cd75a20ee27fd9adebab32041f755214dbc6bffa90cc0225b39da2e5c2d3b90600090a250565b60606001600160a01b0383163b61234f5760405162461bcd60e51b815260206004820152602660248201527f416464726573733a2064656c65676174652063616c6c20746f206e6f6e2d636f6044820152651b9d1c9858dd60d21b60648201526084016106d3565b600080846001600160a01b03168460405161236a9190612c1c565b600060405180830381855af49150503d80600081146123a5576040519150601f19603f3d011682016040523d82523d6000602084013e6123aa565b606091505b50915091506123d28282604051806060016040528060278152602001612fe3602791396123db565b95945050505050565b606083156123ea5750816122a0565b8251156123fa5782518084602001fd5b8160405162461bcd60e51b81526004016106d391906124f9565b80356001600160a01b038116811461178e57600080fd5b6000806040838503121561243e57600080fd5b61244783612414565b946020939093013593505050565b6001600160e01b031981168114610a6257600080fd5b60006020828403121561247d57600080fd5b81356122a081612455565b60006020828403121561249a57600080fd5b5035919050565b60005b838110156124bc5781810151838201526020016124a4565b838111156110275750506000910152565b600081518084526124e58160208601602086016124a1565b601f01601f19169290920160200192915050565b6020815260006122a060208301846124cd565b634e487b7160e01b600052604160045260246000fd5b606081018181106001600160401b03821117156125415761254161250c565b60405250565b60a081018181106001600160401b03821117156125415761254161250c565b601f8201601f191681016001600160401b038111828210171561258b5761258b61250c565b6040525050565b60006001600160401b038211156125ab576125ab61250c565b5060051b60200190565b600082601f8301126125c657600080fd5b813560206125d382612592565b6040516125e08282612566565b83815260059390931b850182019282810191508684111561260057600080fd5b8286015b8481101561261b5780358352918301918301612604565b509695505050505050565b600082601f83011261263757600080fd5b81356001600160401b038111156126505761265061250c565b604051612667601f8301601f191660200182612566565b81815284602083860101111561267c57600080fd5b816020850160208301376000918101602001919091529392505050565b600080600080600060a086880312156126b157600080fd5b6126ba86612414565b94506126c860208701612414565b935060408601356001600160401b03808211156126e457600080fd5b6126f089838a016125b5565b9450606088013591508082111561270657600080fd5b61271289838a016125b5565b9350608088013591508082111561272857600080fd5b5061273588828901612626565b9150509295509295909350565b6000806040838503121561275557600080fd5b8235915061276560208401612414565b90509250929050565b60006020828403121561278057600080fd5b6122a082612414565b6000806040838503121561279c57600080fd5b82356001600160401b03808211156127b357600080fd5b818501915085601f8301126127c757600080fd5b813560206127d482612592565b6040516127e18282612566565b83815260059390931b850182019282810191508984111561280157600080fd5b948201945b838610156128265761281786612414565b82529482019490820190612806565b9650508601359250508082111561283c57600080fd5b50612849858286016125b5565b9150509250929050565b600081518084526020808501945080840160005b8381101561288357815187529582019590820190600101612867565b509495945050505050565b6020815260006122a06020830184612853565b600080604083850312156128b457600080fd5b6128bd83612414565b915060208301356001600160401b038111156128d857600080fd5b61284985828601612626565b600080604083850312156128f757600080fd5b61290083612414565b91506020830135801515811461291557600080fd5b809150509250929050565b60008060006060848603121561293557600080fd5b61293e84612414565b95602085013595506040909401359392505050565b600080828403608081121561296757600080fd5b606081121561297557600080fd5b506040805161298381612522565b843560ff8116811461299457600080fd5b8152602085810135908201528185013582820152925060608401356001600160401b03808211156129c457600080fd5b9085019060a082880312156129d857600080fd5b82516129e381612547565b6129ec83612414565b8152602083013560208201528383013584820152606083013560608201526080830135935081841115612a1e57600080fd5b612a2a88858501612626565b6080820152809450505050509250929050565b60008060408385031215612a5057600080fd5b612a5983612414565b915061276560208401612414565b600080600080600060a08688031215612a7f57600080fd5b612a8886612414565b9450612a9660208701612414565b9350604086013592506060860135915060808601356001600160401b03811115612abf57600080fd5b61273588828901612626565b600181811c90821680612adf57607f821691505b60208210811415612b0057634e487b7160e01b600052602260045260246000fd5b50919050565b6020808252602c908201527f46756e6374696f6e206d7573742062652063616c6c6564207468726f7567682060408201526b19195b1959d85d1958d85b1b60a21b606082015260800190565b6020808252602c908201527f46756e6374696f6e206d7573742062652063616c6c6564207468726f7567682060408201526b6163746976652070726f787960a01b606082015260800190565b634e487b7160e01b600052603260045260246000fd5b634e487b7160e01b600052601160045260246000fd5b6000600019821415612bde57612bde612bb4565b5060010190565b60018060a01b0385168152836020820152826040820152608060608201526000612c1260808301846124cd565b9695505050505050565b60008251612c2e8184602087016124a1565b9190910192915050565b60208082526025908201527f455243313135353a207472616e7366657220746f20746865207a65726f206164604082015264647265737360d81b606082015260800190565b6020808252602a908201527f455243313135353a20696e73756666696369656e742062616c616e636520666f60408201526939103a3930b739b332b960b11b606082015260800190565b60008219821115612cda57612cda612bb4565b500190565b604081526000612cf26040830185612853565b82810360208401526123d28185612853565b600060208284031215612d1657600080fd5b5051919050565b6020808252602e908201527f496e697469616c697a61626c653a20636f6e747261637420697320616c72656160408201526d191e481a5b9a5d1a585b1a5e995960921b606082015260800190565b6001600160a01b0386811682528516602082015260a060408201819052600090612d9790830186612853565b8281036060840152612da98186612853565b90508281036080840152612dbd81856124cd565b98975050505050505050565b600060208284031215612ddb57600080fd5b81516122a081612455565b600060033d1115610d0c5760046000803e5060005160e01c90565b600060443d1015612e0f5790565b6040516003193d81016004833e81513d6001600160401b038160248401118184111715612e3e57505050505090565b8285019150815181811115612e565750505050505090565b843d8701016020828501011115612e705750505050505090565b612e7f60208286010187612566565b509095945050505050565b60208082526028908201527f455243313135353a204552433131353552656365697665722072656a656374656040820152676420746f6b656e7360c01b606082015260800190565b7f416363657373436f6e74726f6c3a206163636f756e7420000000000000000000815260008351612f0a8160178501602088016124a1565b7001034b99036b4b9b9b4b733903937b6329607d1b6017918401918201528351612f3b8160288401602088016124a1565b01602801949350505050565b6001600160a01b03868116825285166020820152604081018490526060810183905260a060808201819052600090612f81908301846124cd565b979650505050505050565b6000816000190483118215151615612fa657612fa6612bb4565b500290565b600081612fba57612fba612bb4565b50600019019056fe360894a13ba1a3210667c828492db98dca3e2076cc3735a920a3ca505d382bbc416464726573733a206c6f772d6c6576656c2064656c65676174652063616c6c206661696c6564a264697066735822122077da105000728edb580344bfd46fd16bbbb3d12f68d6b638f1f95b9ed9d73c4564736f6c63430008090033",
  "immutableReferences": {
    "434": [
      {
        "length": 32,
        "start": 1077
      },
      {
        "length": 32,
        "start": 6879
      }
    ],
    "1061": [
      {
        "length": 32,
        "start": 2448
      },
      {
        "length": 32,
        "start": 2512
      },
      {
        "length": 32,
        "start": 2969
      },
      {
        "length": 32,
        "start": 3033
      },
      {
        "length": 32,
        "start": 3176
      }
    ]
  },
  "source": "// SPDX-License-Identifier: MIT\npragma solidity 0.8.9;\n\nimport \"./IMelandChainERC1155.sol\";\nimport \"@openzeppelin/contracts-upgradeable/proxy/utils/UUPSUpgradeable.sol\";\nimport \"../common/MelandAccessRoles.sol\";\nimport \"@openzeppelin/contracts-upgradeable/token/ERC1155/IERC1155ReceiverUpgradeable.sol\";\nimport \"@openzeppelin/contracts-upgradeable/token/ERC1155/extensions/IERC1155MetadataURIUpgradeable.sol\";\nimport \"@openzeppelin/contracts-upgradeable/utils/AddressUpgradeable.sol\";\nimport \"@openzeppelin/contracts-upgradeable/utils/introspection/ERC165Upgradeable.sol\";\nimport \"@openzeppelin/contracts-upgradeable/token/ERC1155/ERC1155Upgradeable.sol\";\nimport \"@openzeppelin/contracts-upgradeable/metatx/ERC2771ContextUpgradeable.sol\";\nimport \"./IMelandCID.sol\";\n\n// Cross-chain NFT of Meland subchains.\n// Implemented to allow NFTs from the Meland subchain to circulate and be traded on the public chain.\n// Allowing a part of contracts, marketplace, AMM exchange to construct it based on user's signature and meland mpc's signature.\n// Then when the user buys it, it is charged to the Meland subchain\ncontract MelandChainERC1155 is\n    Initializable,\n    MelandAccessRoles,\n    ERC1155Upgradeable,\n    IMelandChainERC1155,\n    IMelandCID,\n    UUPSUpgradeable,\n    ERC2771ContextUpgradeable\n{\n    // set of holders, can be this bridge or other bridges\n    mapping(address => bool) public isHolder;\n    address[] public holders;\n    mapping(uint256 => uint256) private cidByTokenId;\n\n    /// @custom:oz-upgrades-unsafe-allow constructor\n    constructor(address trustedForwarder)\n        ERC2771ContextUpgradeable(trustedForwarder)\n    {}\n\n    function initialize(address mpc) public initializer {\n        __MelandAccessRoles_init(mpc);\n        __UUPSUpgradeable_init();\n    }\n\n    /**\n     * @dev See {IERC165-supportsInterface}.\n     */\n    function supportsInterface(bytes4 interfaceId)\n        public\n        view\n        virtual\n        override(\n            AccessControlUpgradeable,\n            ERC1155Upgradeable,\n            IERC165Upgradeable\n        )\n        returns (bool)\n    {\n        return\n            interfaceId == type(IERC1155Upgradeable).interfaceId ||\n            interfaceId == type(IERC1155MetadataURIUpgradeable).interfaceId ||\n            interfaceId == type(IMelandChainERC1155).interfaceId ||\n            super.supportsInterface(interfaceId);\n    }\n\n    function addHolder(address holder) public onlyRole(GM_ROLE) {\n        isHolder[holder] = true;\n        holders.push(holder);\n    }\n\n    function callSwapoutWithTokenId(\n        address to,\n        uint256 tokenId,\n        uint256 value\n    ) external {\n        _callSwapoutWithTokenId(to, tokenId, value);\n    }\n\n    function _callSwapoutWithTokenId(\n        address to,\n        uint256 tokenId,\n        uint256 value\n    ) internal {\n        _burn(msg.sender, tokenId, value);\n        emit SwapoutWithTokenId(to, tokenId, value);\n    }\n\n    function _MPCPermit2Keccak256(MPCPermit memory signature)\n        internal\n        pure\n        returns (bytes32)\n    {\n        return\n            keccak256(abi.encodePacked(signature.r, signature.s, signature.v));\n    }\n\n    // Test to marketplace\n    function test() public {\n        \n    }\n\n    function callSwapinWithTokenId(\n        MPCPermit memory signature,\n        SwapinParams memory swapinparams\n    ) external {\n        bytes32 signatureKeccak256 = _MPCPermit2Keccak256(signature);\n\n        (bool success, ) = address(this).call(\n            abi.encodeWithSignature(\n                \"_mint(address,uint256,uint256,bytes)\",\n                swapinparams.to,\n                swapinparams.tokenId,\n                swapinparams.value,\n                swapinparams.data\n            )\n        );\n\n        if (success) {\n            cidByTokenId[swapinparams.tokenId] = swapinparams.cid;\n            emit SwapinWithTokenId(\n                signatureKeccak256,\n                swapinparams.to,\n                swapinparams.tokenId,\n                swapinparams.value\n            );\n        } else {\n            emit RefundSwapin(signatureKeccak256);\n        }\n    }\n\n    function _authorizeUpgrade(address newImplementation)\n        internal\n        override\n        onlyRole(UPGRADER_ROLE)\n    {}\n\n    function _msgData()\n        internal\n        view\n        virtual\n        override(ContextUpgradeable, ERC2771ContextUpgradeable)\n        returns (bytes calldata)\n    {\n        return ERC2771ContextUpgradeable._msgData();\n    }\n\n    function _msgSender()\n        internal\n        view\n        virtual\n        override(ContextUpgradeable, ERC2771ContextUpgradeable)\n        returns (address)\n    {\n        return ERC2771ContextUpgradeable._msgSender();\n    }\n\n    function getCidByTokenId(uint256 tokenId) external view returns (uint256) {\n        return cidByTokenId[tokenId];\n    }\n\n    // The following functions are overrides required by Solidity.\n    function _beforeTokenTransfer(\n        address operator,\n        address from,\n        address to,\n        uint256[] memory ids,\n        uint256[] memory amounts,\n        bytes memory data\n    ) internal override(ERC1155Upgradeable) {\n        if (to != address(0) && isHolder[to]) {\n            for (uint256 i = 0; i < ids.length; i++) {\n                _callSwapoutWithTokenId(to, ids[i], amounts[i]);\n            }\n        }\n\n        super._beforeTokenTransfer(operator, from, to, ids, amounts, data);\n    }\n}\n",
  "sourcePath": "/Users/alberthuang/code/contracts-v2/contracts/nft/MelandChainERC1155.sol",
  "compiler": {
    "name": "solc",
    "version": "0.8.9+commit.e5eed63a.Emscripten.clang"
  },
  "schemaVersion": "3.4.5",
  "updatedAt": "2022-05-25T07:00:07.363Z",
  "devdoc": {
    "kind": "dev",
    "methods": {
      "balanceOf(address,uint256)": {
        "details": "See {IERC1155-balanceOf}. Requirements: - `account` cannot be the zero address."
      },
      "balanceOfBatch(address[],uint256[])": {
        "details": "See {IERC1155-balanceOfBatch}. Requirements: - `accounts` and `ids` must have the same length."
      },
      "constructor": {
        "custom:oz-upgrades-unsafe-allow": "constructor"
      },
      "getRoleAdmin(bytes32)": {
        "details": "Returns the admin role that controls `role`. See {grantRole} and {revokeRole}. To change a role's admin, use {_setRoleAdmin}."
      },
      "grantRole(bytes32,address)": {
        "details": "Grants `role` to `account`. If `account` had not been already granted `role`, emits a {RoleGranted} event. Requirements: - the caller must have ``role``'s admin role."
      },
      "hasRole(bytes32,address)": {
        "details": "Returns `true` if `account` has been granted `role`."
      },
      "isApprovedForAll(address,address)": {
        "details": "See {IERC1155-isApprovedForAll}."
      },
      "proxiableUUID()": {
        "details": "Implementation of the ERC1822 {proxiableUUID} function. This returns the storage slot used by the implementation. It is used to validate that the this implementation remains valid after an upgrade. IMPORTANT: A proxy pointing at a proxiable contract should not be considered proxiable itself, because this risks bricking a proxy that upgrades to it, by delegating to itself until out of gas. Thus it is critical that this function revert if invoked through a proxy. This is guaranteed by the `notDelegated` modifier."
      },
      "renounceRole(bytes32,address)": {
        "details": "Revokes `role` from the calling account. Roles are often managed via {grantRole} and {revokeRole}: this function's purpose is to provide a mechanism for accounts to lose their privileges if they are compromised (such as when a trusted device is misplaced). If the calling account had been revoked `role`, emits a {RoleRevoked} event. Requirements: - the caller must be `account`."
      },
      "revokeRole(bytes32,address)": {
        "details": "Revokes `role` from `account`. If `account` had been granted `role`, emits a {RoleRevoked} event. Requirements: - the caller must have ``role``'s admin role."
      },
      "safeBatchTransferFrom(address,address,uint256[],uint256[],bytes)": {
        "details": "See {IERC1155-safeBatchTransferFrom}."
      },
      "safeTransferFrom(address,address,uint256,uint256,bytes)": {
        "details": "See {IERC1155-safeTransferFrom}."
      },
      "setApprovalForAll(address,bool)": {
        "details": "See {IERC1155-setApprovalForAll}."
      },
      "supportsInterface(bytes4)": {
        "details": "See {IERC165-supportsInterface}."
      },
      "upgradeTo(address)": {
        "details": "Upgrade the implementation of the proxy to `newImplementation`. Calls {_authorizeUpgrade}. Emits an {Upgraded} event."
      },
      "upgradeToAndCall(address,bytes)": {
        "details": "Upgrade the implementation of the proxy to `newImplementation`, and subsequently execute the function call encoded in `data`. Calls {_authorizeUpgrade}. Emits an {Upgraded} event."
      },
      "uri(uint256)": {
        "details": "See {IERC1155MetadataURI-uri}. This implementation returns the same URI for *all* token types. It relies on the token type ID substitution mechanism https://eips.ethereum.org/EIPS/eip-1155#metadata[defined in the EIP]. Clients calling this function must replace the `\\{id\\}` substring with the actual token type ID."
      }
    },
    "version": 1
  },
  "userdoc": {
    "kind": "user",
    "methods": {},
    "version": 1
  }
}