{
  "contractName": "MelandAccessRoles",
  "abi": [
    {
      "anonymous": false,
      "inputs": [
        {
          "indexed": false,
          "internalType": "uint8",
          "name": "version",
          "type": "uint8"
        }
      ],
      "name": "Initialized",
      "type": "event"
    },
    {
      "anonymous": false,
      "inputs": [
        {
          "indexed": true,
          "internalType": "bytes32",
          "name": "role",
          "type": "bytes32"
        },
        {
          "indexed": true,
          "internalType": "bytes32",
          "name": "previousAdminRole",
          "type": "bytes32"
        },
        {
          "indexed": true,
          "internalType": "bytes32",
          "name": "newAdminRole",
          "type": "bytes32"
        }
      ],
      "name": "RoleAdminChanged",
      "type": "event"
    },
    {
      "anonymous": false,
      "inputs": [
        {
          "indexed": true,
          "internalType": "bytes32",
          "name": "role",
          "type": "bytes32"
        },
        {
          "indexed": true,
          "internalType": "address",
          "name": "account",
          "type": "address"
        },
        {
          "indexed": true,
          "internalType": "address",
          "name": "sender",
          "type": "address"
        }
      ],
      "name": "RoleGranted",
      "type": "event"
    },
    {
      "anonymous": false,
      "inputs": [
        {
          "indexed": true,
          "internalType": "bytes32",
          "name": "role",
          "type": "bytes32"
        },
        {
          "indexed": true,
          "internalType": "address",
          "name": "account",
          "type": "address"
        },
        {
          "indexed": true,
          "internalType": "address",
          "name": "sender",
          "type": "address"
        }
      ],
      "name": "RoleRevoked",
      "type": "event"
    },
    {
      "inputs": [],
      "name": "DEFAULT_ADMIN_ROLE",
      "outputs": [
        {
          "internalType": "bytes32",
          "name": "",
          "type": "bytes32"
        }
      ],
      "stateMutability": "view",
      "type": "function"
    },
    {
      "inputs": [],
      "name": "DOMAIN_SEPARATOR",
      "outputs": [
        {
          "internalType": "bytes32",
          "name": "",
          "type": "bytes32"
        }
      ],
      "stateMutability": "view",
      "type": "function"
    },
    {
      "inputs": [],
      "name": "GM_ROLE",
      "outputs": [
        {
          "internalType": "bytes32",
          "name": "",
          "type": "bytes32"
        }
      ],
      "stateMutability": "view",
      "type": "function"
    },
    {
      "inputs": [],
      "name": "MINTER_ROLE",
      "outputs": [
        {
          "internalType": "bytes32",
          "name": "",
          "type": "bytes32"
        }
      ],
      "stateMutability": "view",
      "type": "function"
    },
    {
      "inputs": [],
      "name": "UPGRADER_ROLE",
      "outputs": [
        {
          "internalType": "bytes32",
          "name": "",
          "type": "bytes32"
        }
      ],
      "stateMutability": "view",
      "type": "function"
    },
    {
      "inputs": [
        {
          "internalType": "bytes32",
          "name": "role",
          "type": "bytes32"
        }
      ],
      "name": "getRoleAdmin",
      "outputs": [
        {
          "internalType": "bytes32",
          "name": "",
          "type": "bytes32"
        }
      ],
      "stateMutability": "view",
      "type": "function"
    },
    {
      "inputs": [
        {
          "internalType": "bytes32",
          "name": "role",
          "type": "bytes32"
        },
        {
          "internalType": "address",
          "name": "account",
          "type": "address"
        }
      ],
      "name": "grantRole",
      "outputs": [],
      "stateMutability": "nonpayable",
      "type": "function"
    },
    {
      "inputs": [
        {
          "internalType": "bytes32",
          "name": "role",
          "type": "bytes32"
        },
        {
          "internalType": "address",
          "name": "account",
          "type": "address"
        }
      ],
      "name": "hasRole",
      "outputs": [
        {
          "internalType": "bool",
          "name": "",
          "type": "bool"
        }
      ],
      "stateMutability": "view",
      "type": "function"
    },
    {
      "inputs": [
        {
          "internalType": "bytes32",
          "name": "role",
          "type": "bytes32"
        },
        {
          "internalType": "address",
          "name": "account",
          "type": "address"
        }
      ],
      "name": "renounceRole",
      "outputs": [],
      "stateMutability": "nonpayable",
      "type": "function"
    },
    {
      "inputs": [
        {
          "internalType": "bytes32",
          "name": "role",
          "type": "bytes32"
        },
        {
          "internalType": "address",
          "name": "account",
          "type": "address"
        }
      ],
      "name": "revokeRole",
      "outputs": [],
      "stateMutability": "nonpayable",
      "type": "function"
    },
    {
      "inputs": [
        {
          "internalType": "bytes4",
          "name": "interfaceId",
          "type": "bytes4"
        }
      ],
      "name": "supportsInterface",
      "outputs": [
        {
          "internalType": "bool",
          "name": "",
          "type": "bool"
        }
      ],
      "stateMutability": "view",
      "type": "function"
    }
  ],
  "bytecode": "0x608060405234801561001057600080fd5b5061082d806100206000396000f3fe608060405234801561001057600080fd5b50600436106100a95760003560e01c806336568abe1161007157806336568abe1461014c57806391d148541461015f578063a217fddf14610172578063d53913931461017a578063d547741f146101a1578063f72c0d8b146101b457600080fd5b806301ffc9a7146100ae578063248a9ca3146100d65780632f2ff15d1461010757806330c7be2c1461011c5780633644e51514610143575b600080fd5b6100c16100bc366004610610565b6101db565b60405190151581526020015b60405180910390f35b6100f96100e436600461063a565b60009081526065602052604090206001015490565b6040519081526020016100cd565b61011a610115366004610653565b610212565b005b6100f97ff5eb84615c2a00ecaf817d13794ebd6299c9e01c395bf4018453f13f577f544981565b6100f960975481565b61011a61015a366004610653565b61023c565b6100c161016d366004610653565b6102bf565b6100f9600081565b6100f97f9f2df0fed2c77648de5860a4cc508cd0818c85b8b8a1ab4ceeef8d981c8956a681565b61011a6101af366004610653565b6102ea565b6100f97f189ab7a9244df0848122154315af71fe140f3db0fe014031783b0946b8c9d2e381565b60006001600160e01b03198216637965db0b60e01b148061020c57506301ffc9a760e01b6001600160e01b03198316145b92915050565b60008281526065602052604090206001015461022d8161030f565b610237838361031c565b505050565b6001600160a01b03811633146102b15760405162461bcd60e51b815260206004820152602f60248201527f416363657373436f6e74726f6c3a2063616e206f6e6c792072656e6f756e636560448201526e103937b632b9903337b91039b2b63360891b60648201526084015b60405180910390fd5b6102bb82826103a2565b5050565b60009182526065602090815260408084206001600160a01b0393909316845291905290205460ff1690565b6000828152606560205260409020600101546103058161030f565b61023783836103a2565b6103198133610409565b50565b61032682826102bf565b6102bb5760008281526065602090815260408083206001600160a01b03851684529091529020805460ff1916600117905561035e3390565b6001600160a01b0316816001600160a01b0316837f2f8788117e7eff1d82e926ec794901d17c78024a50270940304540a733656f0d60405160405180910390a45050565b6103ac82826102bf565b156102bb5760008281526065602090815260408083206001600160a01b0385168085529252808320805460ff1916905551339285917ff6391f5c32d9c69d2a47ea670b442974b53935d1edc7fd64eb21e047a839171b9190a45050565b61041382826102bf565b6102bb5761042b816001600160a01b0316601461046d565b61043683602061046d565b6040516020016104479291906106bf565b60408051601f198184030181529082905262461bcd60e51b82526102a891600401610734565b6060600061047c83600261077d565b61048790600261079c565b67ffffffffffffffff81111561049f5761049f6107b4565b6040519080825280601f01601f1916602001820160405280156104c9576020820181803683370190505b509050600360fc1b816000815181106104e4576104e46107ca565b60200101906001600160f81b031916908160001a905350600f60fb1b81600181518110610513576105136107ca565b60200101906001600160f81b031916908160001a905350600061053784600261077d565b61054290600161079c565b90505b60018111156105ba576f181899199a1a9b1b9c1cb0b131b232b360811b85600f1660108110610576576105766107ca565b1a60f81b82828151811061058c5761058c6107ca565b60200101906001600160f81b031916908160001a90535060049490941c936105b3816107e0565b9050610545565b5083156106095760405162461bcd60e51b815260206004820181905260248201527f537472696e67733a20686578206c656e67746820696e73756666696369656e7460448201526064016102a8565b9392505050565b60006020828403121561062257600080fd5b81356001600160e01b03198116811461060957600080fd5b60006020828403121561064c57600080fd5b5035919050565b6000806040838503121561066657600080fd5b8235915060208301356001600160a01b038116811461068457600080fd5b809150509250929050565b60005b838110156106aa578181015183820152602001610692565b838111156106b9576000848401525b50505050565b7f416363657373436f6e74726f6c3a206163636f756e74200000000000000000008152600083516106f781601785016020880161068f565b7001034b99036b4b9b9b4b733903937b6329607d1b601791840191820152835161072881602884016020880161068f565b01602801949350505050565b602081526000825180602084015261075381604085016020870161068f565b601f01601f19169190910160400192915050565b634e487b7160e01b600052601160045260246000fd5b600081600019048311821515161561079757610797610767565b500290565b600082198211156107af576107af610767565b500190565b634e487b7160e01b600052604160045260246000fd5b634e487b7160e01b600052603260045260246000fd5b6000816107ef576107ef610767565b50600019019056fea264697066735822122060ee265d13221f585e44589bfbd94980e26e7a7d45ffdef4caa135f385674db864736f6c63430008090033",
  "immutableReferences": {},
  "source": "// SPDX-License-Identifier: MIT\npragma solidity 0.8.9;\n\nimport \"@openzeppelin/contracts-upgradeable/access/AccessControlUpgradeable.sol\";\nimport \"./IMelandAccessRoles.sol\";\n\ncontract MelandAccessRoles is AccessControlUpgradeable, IMelandAccessRoles {\n    bytes32 public constant GM_ROLE = keccak256(\"GM_ROLE\");\n    bytes32 public constant MINTER_ROLE = keccak256(\"MINTER_ROLE\");\n    bytes32 public constant UPGRADER_ROLE = keccak256(\"UPGRADER_ROLE\");\n    bytes32 public DOMAIN_SEPARATOR;\n\n    function __MelandAccessRoles_init(address _mpc) internal {\n        __AccessControl_init();\n        _grantRole(DEFAULT_ADMIN_ROLE, _mpc);\n        _grantRole(GM_ROLE, _mpc);\n        _grantRole(MINTER_ROLE, _mpc);\n        _grantRole(UPGRADER_ROLE, msg.sender);\n\n        uint256 chainId;\n        assembly {chainId := chainid()}\n        DOMAIN_SEPARATOR = keccak256(\n            abi.encode(\n                keccak256(\n                    \"EIP712Domain(string name,string version,uint256 chainId,address verifyingContract)\"\n                ),\n                keccak256(bytes(\"meland\")),\n                keccak256(bytes(\"1\")),\n                chainId,\n                address(this)\n            )\n        );\n    }\n\n    function verifyEIP712(\n        address target,\n        bytes32 hashStruct,\n        uint8 v,\n        bytes32 r,\n        bytes32 s\n    ) internal view returns (bool) {\n        bytes32 hash = keccak256(\n            abi.encodePacked(\"\\x19\\x01\", DOMAIN_SEPARATOR, hashStruct)\n        );\n        address signer = ecrecover(hash, v, r, s);\n        return (signer != address(0) && signer == target);\n    }\n\n    function verifyPersonalSign(\n        address target,\n        bytes32 hashStruct,\n        uint8 v,\n        bytes32 r,\n        bytes32 s\n    ) internal view returns (bool) {\n        bytes32 hash = prefixed(hashStruct);\n        address signer = ecrecover(hash, v, r, s);\n        return (signer != address(0) && signer == target);\n    }\n\n    // Builds a prefixed hash to mimic the behavior of eth_sign.\n    function prefixed(bytes32 hash) internal view returns (bytes32) {\n        return\n            keccak256(\n                abi.encodePacked(\n                    \"\\x19Ethereum Signed Message:\\n32\",\n                    DOMAIN_SEPARATOR,\n                    hash\n                )\n            );\n    }\n}\n",
  "sourcePath": "/Users/alberthuang/code/contracts-v2/contracts/common/MelandAccessRoles.sol",
  "compiler": {
    "name": "solc",
    "version": "0.8.9+commit.e5eed63a.Emscripten.clang"
  },
  "schemaVersion": "3.4.5",
  "updatedAt": "2022-07-01T06:31:00.093Z",
  "devdoc": {
    "kind": "dev",
    "methods": {
      "getRoleAdmin(bytes32)": {
        "details": "Returns the admin role that controls `role`. See {grantRole} and {revokeRole}. To change a role's admin, use {_setRoleAdmin}."
      },
      "grantRole(bytes32,address)": {
        "details": "Grants `role` to `account`. If `account` had not been already granted `role`, emits a {RoleGranted} event. Requirements: - the caller must have ``role``'s admin role."
      },
      "hasRole(bytes32,address)": {
        "details": "Returns `true` if `account` has been granted `role`."
      },
      "renounceRole(bytes32,address)": {
        "details": "Revokes `role` from the calling account. Roles are often managed via {grantRole} and {revokeRole}: this function's purpose is to provide a mechanism for accounts to lose their privileges if they are compromised (such as when a trusted device is misplaced). If the calling account had been revoked `role`, emits a {RoleRevoked} event. Requirements: - the caller must be `account`."
      },
      "revokeRole(bytes32,address)": {
        "details": "Revokes `role` from `account`. If `account` had been granted `role`, emits a {RoleRevoked} event. Requirements: - the caller must have ``role``'s admin role."
      },
      "supportsInterface(bytes4)": {
        "details": "See {IERC165-supportsInterface}."
      }
    },
    "version": 1
  },
  "userdoc": {
    "kind": "user",
    "methods": {},
    "version": 1
  }
}