{
  "contractName": "MelandChainERC1155CID",
  "abi": [
    {
      "inputs": [
        {
          "internalType": "address",
          "name": "trustedForwarder",
          "type": "address"
        },
        {
          "internalType": "contract IMelandSwapFactory",
          "name": "swapFactory",
          "type": "address"
        }
      ],
      "stateMutability": "nonpayable",
      "type": "constructor"
    },
    {
      "anonymous": false,
      "inputs": [
        {
          "indexed": false,
          "internalType": "address",
          "name": "previousAdmin",
          "type": "address"
        },
        {
          "indexed": false,
          "internalType": "address",
          "name": "newAdmin",
          "type": "address"
        }
      ],
      "name": "AdminChanged",
      "type": "event"
    },
    {
      "anonymous": false,
      "inputs": [
        {
          "indexed": true,
          "internalType": "address",
          "name": "account",
          "type": "address"
        },
        {
          "indexed": true,
          "internalType": "address",
          "name": "operator",
          "type": "address"
        },
        {
          "indexed": false,
          "internalType": "bool",
          "name": "approved",
          "type": "bool"
        }
      ],
      "name": "ApprovalForAll",
      "type": "event"
    },
    {
      "anonymous": false,
      "inputs": [
        {
          "indexed": true,
          "internalType": "address",
          "name": "beacon",
          "type": "address"
        }
      ],
      "name": "BeaconUpgraded",
      "type": "event"
    },
    {
      "anonymous": false,
      "inputs": [
        {
          "indexed": false,
          "internalType": "uint8",
          "name": "version",
          "type": "uint8"
        }
      ],
      "name": "Initialized",
      "type": "event"
    },
    {
      "anonymous": false,
      "inputs": [
        {
          "indexed": true,
          "internalType": "bytes32",
          "name": "signKeccak256",
          "type": "bytes32"
        }
      ],
      "name": "RefundSwapin",
      "type": "event"
    },
    {
      "anonymous": false,
      "inputs": [
        {
          "indexed": true,
          "internalType": "bytes32",
          "name": "role",
          "type": "bytes32"
        },
        {
          "indexed": true,
          "internalType": "bytes32",
          "name": "previousAdminRole",
          "type": "bytes32"
        },
        {
          "indexed": true,
          "internalType": "bytes32",
          "name": "newAdminRole",
          "type": "bytes32"
        }
      ],
      "name": "RoleAdminChanged",
      "type": "event"
    },
    {
      "anonymous": false,
      "inputs": [
        {
          "indexed": true,
          "internalType": "bytes32",
          "name": "role",
          "type": "bytes32"
        },
        {
          "indexed": true,
          "internalType": "address",
          "name": "account",
          "type": "address"
        },
        {
          "indexed": true,
          "internalType": "address",
          "name": "sender",
          "type": "address"
        }
      ],
      "name": "RoleGranted",
      "type": "event"
    },
    {
      "anonymous": false,
      "inputs": [
        {
          "indexed": true,
          "internalType": "bytes32",
          "name": "role",
          "type": "bytes32"
        },
        {
          "indexed": true,
          "internalType": "address",
          "name": "account",
          "type": "address"
        },
        {
          "indexed": true,
          "internalType": "address",
          "name": "sender",
          "type": "address"
        }
      ],
      "name": "RoleRevoked",
      "type": "event"
    },
    {
      "anonymous": false,
      "inputs": [
        {
          "indexed": true,
          "internalType": "bytes32",
          "name": "signKeccak256",
          "type": "bytes32"
        },
        {
          "indexed": false,
          "internalType": "address",
          "name": "to",
          "type": "address"
        },
        {
          "indexed": false,
          "internalType": "uint256",
          "name": "cid",
          "type": "uint256"
        },
        {
          "indexed": false,
          "internalType": "uint256",
          "name": "value",
          "type": "uint256"
        }
      ],
      "name": "SwapinWithCID",
      "type": "event"
    },
    {
      "anonymous": false,
      "inputs": [
        {
          "indexed": true,
          "internalType": "address",
          "name": "to",
          "type": "address"
        },
        {
          "indexed": false,
          "internalType": "uint256",
          "name": "cid",
          "type": "uint256"
        },
        {
          "indexed": false,
          "internalType": "uint256",
          "name": "value",
          "type": "uint256"
        }
      ],
      "name": "SwapoutWithCID",
      "type": "event"
    },
    {
      "anonymous": false,
      "inputs": [
        {
          "indexed": true,
          "internalType": "address",
          "name": "operator",
          "type": "address"
        },
        {
          "indexed": true,
          "internalType": "address",
          "name": "from",
          "type": "address"
        },
        {
          "indexed": true,
          "internalType": "address",
          "name": "to",
          "type": "address"
        },
        {
          "indexed": false,
          "internalType": "uint256[]",
          "name": "ids",
          "type": "uint256[]"
        },
        {
          "indexed": false,
          "internalType": "uint256[]",
          "name": "values",
          "type": "uint256[]"
        }
      ],
      "name": "TransferBatch",
      "type": "event"
    },
    {
      "anonymous": false,
      "inputs": [
        {
          "indexed": true,
          "internalType": "address",
          "name": "operator",
          "type": "address"
        },
        {
          "indexed": true,
          "internalType": "address",
          "name": "from",
          "type": "address"
        },
        {
          "indexed": true,
          "internalType": "address",
          "name": "to",
          "type": "address"
        },
        {
          "indexed": false,
          "internalType": "uint256",
          "name": "id",
          "type": "uint256"
        },
        {
          "indexed": false,
          "internalType": "uint256",
          "name": "value",
          "type": "uint256"
        }
      ],
      "name": "TransferSingle",
      "type": "event"
    },
    {
      "anonymous": false,
      "inputs": [
        {
          "indexed": false,
          "internalType": "string",
          "name": "value",
          "type": "string"
        },
        {
          "indexed": true,
          "internalType": "uint256",
          "name": "id",
          "type": "uint256"
        }
      ],
      "name": "URI",
      "type": "event"
    },
    {
      "anonymous": false,
      "inputs": [
        {
          "indexed": true,
          "internalType": "address",
          "name": "implementation",
          "type": "address"
        }
      ],
      "name": "Upgraded",
      "type": "event"
    },
    {
      "inputs": [],
      "name": "DEFAULT_ADMIN_ROLE",
      "outputs": [
        {
          "internalType": "bytes32",
          "name": "",
          "type": "bytes32"
        }
      ],
      "stateMutability": "view",
      "type": "function",
      "constant": true
    },
    {
      "inputs": [],
      "name": "DOMAIN_SEPARATOR",
      "outputs": [
        {
          "internalType": "bytes32",
          "name": "",
          "type": "bytes32"
        }
      ],
      "stateMutability": "view",
      "type": "function",
      "constant": true
    },
    {
      "inputs": [],
      "name": "GM_ROLE",
      "outputs": [
        {
          "internalType": "bytes32",
          "name": "",
          "type": "bytes32"
        }
      ],
      "stateMutability": "view",
      "type": "function",
      "constant": true
    },
    {
      "inputs": [],
      "name": "MINTER_ROLE",
      "outputs": [
        {
          "internalType": "bytes32",
          "name": "",
          "type": "bytes32"
        }
      ],
      "stateMutability": "view",
      "type": "function",
      "constant": true
    },
    {
      "inputs": [],
      "name": "UPGRADER_ROLE",
      "outputs": [
        {
          "internalType": "bytes32",
          "name": "",
          "type": "bytes32"
        }
      ],
      "stateMutability": "view",
      "type": "function",
      "constant": true
    },
    {
      "inputs": [
        {
          "internalType": "address",
          "name": "account",
          "type": "address"
        },
        {
          "internalType": "uint256",
          "name": "id",
          "type": "uint256"
        }
      ],
      "name": "balanceOf",
      "outputs": [
        {
          "internalType": "uint256",
          "name": "",
          "type": "uint256"
        }
      ],
      "stateMutability": "view",
      "type": "function",
      "constant": true
    },
    {
      "inputs": [
        {
          "internalType": "address[]",
          "name": "accounts",
          "type": "address[]"
        },
        {
          "internalType": "uint256[]",
          "name": "ids",
          "type": "uint256[]"
        }
      ],
      "name": "balanceOfBatch",
      "outputs": [
        {
          "internalType": "uint256[]",
          "name": "",
          "type": "uint256[]"
        }
      ],
      "stateMutability": "view",
      "type": "function",
      "constant": true
    },
    {
      "inputs": [
        {
          "internalType": "bytes32",
          "name": "role",
          "type": "bytes32"
        }
      ],
      "name": "getRoleAdmin",
      "outputs": [
        {
          "internalType": "bytes32",
          "name": "",
          "type": "bytes32"
        }
      ],
      "stateMutability": "view",
      "type": "function",
      "constant": true
    },
    {
      "inputs": [
        {
          "internalType": "bytes32",
          "name": "role",
          "type": "bytes32"
        },
        {
          "internalType": "address",
          "name": "account",
          "type": "address"
        }
      ],
      "name": "grantRole",
      "outputs": [],
      "stateMutability": "nonpayable",
      "type": "function"
    },
    {
      "inputs": [
        {
          "internalType": "bytes32",
          "name": "role",
          "type": "bytes32"
        },
        {
          "internalType": "address",
          "name": "account",
          "type": "address"
        }
      ],
      "name": "hasRole",
      "outputs": [
        {
          "internalType": "bool",
          "name": "",
          "type": "bool"
        }
      ],
      "stateMutability": "view",
      "type": "function",
      "constant": true
    },
    {
      "inputs": [
        {
          "internalType": "uint256",
          "name": "",
          "type": "uint256"
        }
      ],
      "name": "holders",
      "outputs": [
        {
          "internalType": "address",
          "name": "",
          "type": "address"
        }
      ],
      "stateMutability": "view",
      "type": "function",
      "constant": true
    },
    {
      "inputs": [
        {
          "internalType": "address",
          "name": "account",
          "type": "address"
        },
        {
          "internalType": "address",
          "name": "operator",
          "type": "address"
        }
      ],
      "name": "isApprovedForAll",
      "outputs": [
        {
          "internalType": "bool",
          "name": "",
          "type": "bool"
        }
      ],
      "stateMutability": "view",
      "type": "function",
      "constant": true
    },
    {
      "inputs": [
        {
          "internalType": "address",
          "name": "",
          "type": "address"
        }
      ],
      "name": "isHolder",
      "outputs": [
        {
          "internalType": "bool",
          "name": "",
          "type": "bool"
        }
      ],
      "stateMutability": "view",
      "type": "function",
      "constant": true
    },
    {
      "inputs": [
        {
          "internalType": "address",
          "name": "forwarder",
          "type": "address"
        }
      ],
      "name": "isTrustedForwarder",
      "outputs": [
        {
          "internalType": "bool",
          "name": "",
          "type": "bool"
        }
      ],
      "stateMutability": "view",
      "type": "function",
      "constant": true
    },
    {
      "inputs": [],
      "name": "proxiableUUID",
      "outputs": [
        {
          "internalType": "bytes32",
          "name": "",
          "type": "bytes32"
        }
      ],
      "stateMutability": "view",
      "type": "function",
      "constant": true
    },
    {
      "inputs": [
        {
          "internalType": "bytes32",
          "name": "role",
          "type": "bytes32"
        },
        {
          "internalType": "address",
          "name": "account",
          "type": "address"
        }
      ],
      "name": "renounceRole",
      "outputs": [],
      "stateMutability": "nonpayable",
      "type": "function"
    },
    {
      "inputs": [
        {
          "internalType": "bytes32",
          "name": "role",
          "type": "bytes32"
        },
        {
          "internalType": "address",
          "name": "account",
          "type": "address"
        }
      ],
      "name": "revokeRole",
      "outputs": [],
      "stateMutability": "nonpayable",
      "type": "function"
    },
    {
      "inputs": [
        {
          "internalType": "address",
          "name": "from",
          "type": "address"
        },
        {
          "internalType": "address",
          "name": "to",
          "type": "address"
        },
        {
          "internalType": "uint256[]",
          "name": "ids",
          "type": "uint256[]"
        },
        {
          "internalType": "uint256[]",
          "name": "amounts",
          "type": "uint256[]"
        },
        {
          "internalType": "bytes",
          "name": "data",
          "type": "bytes"
        }
      ],
      "name": "safeBatchTransferFrom",
      "outputs": [],
      "stateMutability": "nonpayable",
      "type": "function"
    },
    {
      "inputs": [
        {
          "internalType": "address",
          "name": "from",
          "type": "address"
        },
        {
          "internalType": "address",
          "name": "to",
          "type": "address"
        },
        {
          "internalType": "uint256",
          "name": "id",
          "type": "uint256"
        },
        {
          "internalType": "uint256",
          "name": "amount",
          "type": "uint256"
        },
        {
          "internalType": "bytes",
          "name": "data",
          "type": "bytes"
        }
      ],
      "name": "safeTransferFrom",
      "outputs": [],
      "stateMutability": "nonpayable",
      "type": "function"
    },
    {
      "inputs": [
        {
          "internalType": "address",
          "name": "operator",
          "type": "address"
        },
        {
          "internalType": "bool",
          "name": "approved",
          "type": "bool"
        }
      ],
      "name": "setApprovalForAll",
      "outputs": [],
      "stateMutability": "nonpayable",
      "type": "function"
    },
    {
      "inputs": [
        {
          "internalType": "address",
          "name": "newImplementation",
          "type": "address"
        }
      ],
      "name": "upgradeTo",
      "outputs": [],
      "stateMutability": "nonpayable",
      "type": "function"
    },
    {
      "inputs": [
        {
          "internalType": "address",
          "name": "newImplementation",
          "type": "address"
        },
        {
          "internalType": "bytes",
          "name": "data",
          "type": "bytes"
        }
      ],
      "name": "upgradeToAndCall",
      "outputs": [],
      "stateMutability": "payable",
      "type": "function",
      "payable": true
    },
    {
      "inputs": [
        {
          "internalType": "uint256",
          "name": "",
          "type": "uint256"
        }
      ],
      "name": "uri",
      "outputs": [
        {
          "internalType": "string",
          "name": "",
          "type": "string"
        }
      ],
      "stateMutability": "view",
      "type": "function",
      "constant": true
    },
    {
      "inputs": [
        {
          "internalType": "address",
          "name": "mpc",
          "type": "address"
        }
      ],
      "name": "initialize",
      "outputs": [],
      "stateMutability": "nonpayable",
      "type": "function"
    },
    {
      "inputs": [
        {
          "internalType": "address",
          "name": "from",
          "type": "address"
        }
      ],
      "name": "getNonce",
      "outputs": [
        {
          "internalType": "uint256",
          "name": "",
          "type": "uint256"
        }
      ],
      "stateMutability": "view",
      "type": "function",
      "constant": true
    },
    {
      "inputs": [
        {
          "internalType": "bytes4",
          "name": "interfaceId",
          "type": "bytes4"
        }
      ],
      "name": "supportsInterface",
      "outputs": [
        {
          "internalType": "bool",
          "name": "",
          "type": "bool"
        }
      ],
      "stateMutability": "view",
      "type": "function",
      "constant": true
    },
    {
      "inputs": [
        {
          "internalType": "address",
          "name": "holder",
          "type": "address"
        }
      ],
      "name": "addHolder",
      "outputs": [],
      "stateMutability": "nonpayable",
      "type": "function"
    },
    {
      "inputs": [
        {
          "internalType": "address",
          "name": "to",
          "type": "address"
        },
        {
          "internalType": "uint256",
          "name": "cid",
          "type": "uint256"
        },
        {
          "internalType": "uint256",
          "name": "value",
          "type": "uint256"
        }
      ],
      "name": "callSwapoutWithCID",
      "outputs": [],
      "stateMutability": "nonpayable",
      "type": "function"
    },
    {
      "inputs": [
        {
          "components": [
            {
              "internalType": "address",
              "name": "from",
              "type": "address"
            },
            {
              "internalType": "address",
              "name": "to",
              "type": "address"
            },
            {
              "internalType": "uint256",
              "name": "cid",
              "type": "uint256"
            },
            {
              "internalType": "uint256",
              "name": "value",
              "type": "uint256"
            },
            {
              "internalType": "uint256",
              "name": "nonce",
              "type": "uint256"
            },
            {
              "internalType": "bytes",
              "name": "data",
              "type": "bytes"
            }
          ],
          "internalType": "struct IMelandChainERC1155CID.SwapinParams",
          "name": "swapinparams",
          "type": "tuple"
        },
        {
          "internalType": "bytes",
          "name": "signature",
          "type": "bytes"
        }
      ],
      "name": "verify",
      "outputs": [
        {
          "internalType": "bool",
          "name": "",
          "type": "bool"
        }
      ],
      "stateMutability": "view",
      "type": "function",
      "constant": true
    },
    {
      "inputs": [
        {
          "internalType": "bytes",
          "name": "signature",
          "type": "bytes"
        },
        {
          "components": [
            {
              "internalType": "address",
              "name": "from",
              "type": "address"
            },
            {
              "internalType": "address",
              "name": "to",
              "type": "address"
            },
            {
              "internalType": "uint256",
              "name": "cid",
              "type": "uint256"
            },
            {
              "internalType": "uint256",
              "name": "value",
              "type": "uint256"
            },
            {
              "internalType": "uint256",
              "name": "nonce",
              "type": "uint256"
            },
            {
              "internalType": "bytes",
              "name": "data",
              "type": "bytes"
            }
          ],
          "internalType": "struct IMelandChainERC1155CID.SwapinParams",
          "name": "swapinparams",
          "type": "tuple"
        }
      ],
      "name": "callSwapinWithCID",
      "outputs": [],
      "stateMutability": "nonpayable",
      "type": "function"
    },
    {
      "inputs": [
        {
          "internalType": "uint256",
          "name": "tokenId",
          "type": "uint256"
        }
      ],
      "name": "getCidByTokenId",
      "outputs": [
        {
          "internalType": "uint256",
          "name": "",
          "type": "uint256"
        }
      ],
      "stateMutability": "pure",
      "type": "function",
      "constant": true
    }
  ],
  "bytecode": "0x60e0604052306080523480156200001557600080fd5b506040516200388d3803806200388d8339810160408190526200003891620000bf565b6001600160a01b0380831660a052811660c08190526200009e5760405162461bcd60e51b815260206004820152601760248201527f5377617020666163746f7279206973206e6f7420736574000000000000000000604482015260640160405180910390fd5b5050620000fe565b6001600160a01b0381168114620000bc57600080fd5b50565b60008060408385031215620000d357600080fd5b8251620000e081620000a6565b6020840151909250620000f381620000a6565b809150509250929050565b60805160a05160c0516137356200015860003960008181611e73015261269f0152600081816104670152611de30152600081816109ee01528181610a2e01528181610bf701528181610c370152610cc601526137356000f3fe6080604052600436106101d75760003560e01c806352d1902d11610102578063bf5d3bdb11610095578063d547741f11610064578063d547741f146105f1578063e985e9c514610611578063f242432a1461065a578063f72c0d8b1461067a57600080fd5b8063bf5d3bdb1461054c578063c4d66de81461056c578063d4d7b19a1461058c578063d5391393146105bd57600080fd5b8063a22cb465116100d1578063a22cb465146104cc578063aa21bfaa146104ec578063ac1e17df1461050c578063b07d8b721461052c57600080fd5b806352d1902d14610435578063572b6c051461044a57806391d1485414610497578063a217fddf146104b757600080fd5b80632f2ff15d1161017a5780633659cfe6116101495780633659cfe6146103b75780633ef780bc146103d75780634e1273f4146103f55780634f1ef2861461042257600080fd5b80632f2ff15d1461032d57806330c7be2c1461034d5780633644e5151461038157806336568abe1461039757600080fd5b8063248a9ca3116101b6578063248a9ca31461026c5780632a11ced01461029c5780632d0335ab146102d45780632eb2c2d61461030b57600080fd5b8062fdd58e146101dc57806301ffc9a71461020f5780630e89341c1461023f575b600080fd5b3480156101e857600080fd5b506101fc6101f7366004612a3d565b6106ae565b6040519081526020015b60405180910390f35b34801561021b57600080fd5b5061022f61022a366004612a7d565b610747565b6040519015158152602001610206565b34801561024b57600080fd5b5061025f61025a366004612a9a565b6107c3565b6040516102069190612b0b565b34801561027857600080fd5b506101fc610287366004612a9a565b60009081526065602052604090206001015490565b3480156102a857600080fd5b506102bc6102b7366004612a9a565b610857565b6040516001600160a01b039091168152602001610206565b3480156102e057600080fd5b506101fc6102ef366004612b1e565b6001600160a01b03166000908152610196602052604090205490565b34801561031757600080fd5b5061032b610326366004612c82565b610882565b005b34801561033957600080fd5b5061032b610348366004612d2b565b61092b565b34801561035957600080fd5b506101fc7ff5eb84615c2a00ecaf817d13794ebd6299c9e01c395bf4018453f13f577f544981565b34801561038d57600080fd5b506101fc60975481565b3480156103a357600080fd5b5061032b6103b2366004612d2b565b610955565b3480156103c357600080fd5b5061032b6103d2366004612b1e565b6109e3565b3480156103e357600080fd5b506101fc6103f2366004612a9a565b90565b34801561040157600080fd5b50610415610410366004612d57565b610ac3565b6040516102069190612e5c565b61032b610430366004612e6f565b610bec565b34801561044157600080fd5b506101fc610cb9565b34801561045657600080fd5b5061022f610465366004612b1e565b7f00000000000000000000000000000000000000000000000000000000000000006001600160a01b0390811691161490565b3480156104a357600080fd5b5061022f6104b2366004612d2b565b610d6c565b3480156104c357600080fd5b506101fc600081565b3480156104d857600080fd5b5061032b6104e7366004612ec0565b610d97565b3480156104f857600080fd5b5061032b610507366004612fdc565b610da9565b34801561051857600080fd5b5061032b610527366004612b1e565b611023565b34801561053857600080fd5b5061032b610547366004613044565b6110dc565b34801561055857600080fd5b5061022f610567366004613077565b6110fa565b34801561057857600080fd5b5061032b610587366004612b1e565b61110c565b34801561059857600080fd5b5061022f6105a7366004612b1e565b6101946020526000908152604090205460ff1681565b3480156105c957600080fd5b506101fc7f9f2df0fed2c77648de5860a4cc508cd0818c85b8b8a1ab4ceeef8d981c8956a681565b3480156105fd57600080fd5b5061032b61060c366004612d2b565b611276565b34801561061d57600080fd5b5061022f61062c3660046130df565b6001600160a01b03918216600090815260996020908152604080832093909416825291909152205460ff1690565b34801561066657600080fd5b5061032b610675366004613109565b61129b565b34801561068657600080fd5b506101fc7f189ab7a9244df0848122154315af71fe140f3db0fe014031783b0946b8c9d2e381565b60006001600160a01b03831661071f5760405162461bcd60e51b815260206004820152602b60248201527f455243313135353a2062616c616e636520717565727920666f7220746865207a60448201526a65726f206164647265737360a81b60648201526084015b60405180910390fd5b5060009081526098602090815260408083206001600160a01b03949094168352929052205490565b60006001600160e01b03198216636cdb3d1360e11b148061077857506001600160e01b031982166303a24d0760e21b145b8061079357506001600160e01b03198216630fbde02f60e21b145b806107ae57506001600160e01b0319821663034b869b60e31b145b806107bd57506107bd82611334565b92915050565b6060609a80546107d29061316d565b80601f01602080910402602001604051908101604052809291908181526020018280546107fe9061316d565b801561084b5780601f106108205761010080835404028352916020019161084b565b820191906000526020600020905b81548152906001019060200180831161082e57829003601f168201915b50505050509050919050565b610195818154811061086857600080fd5b6000918252602090912001546001600160a01b0316905081565b61088a611374565b6001600160a01b0316856001600160a01b031614806108b057506108b08561062c611374565b6109175760405162461bcd60e51b815260206004820152603260248201527f455243313135353a207472616e736665722063616c6c6572206973206e6f74206044820152711bdddb995c881b9bdc88185c1c1c9bdd995960721b6064820152608401610716565b6109248585858585611383565b5050505050565b60008281526065602052604090206001015461094681611582565b6109508383611593565b505050565b61095d611374565b6001600160a01b0316816001600160a01b0316146109d55760405162461bcd60e51b815260206004820152602f60248201527f416363657373436f6e74726f6c3a2063616e206f6e6c792072656e6f756e636560448201526e103937b632b9903337b91039b2b63360891b6064820152608401610716565b6109df828261161a565b5050565b306001600160a01b037f0000000000000000000000000000000000000000000000000000000000000000161415610a2c5760405162461bcd60e51b8152600401610716906131a8565b7f00000000000000000000000000000000000000000000000000000000000000006001600160a01b0316610a756000805160206136b9833981519152546001600160a01b031690565b6001600160a01b031614610a9b5760405162461bcd60e51b8152600401610716906131f4565b610aa48161169f565b60408051600080825260208201909252610ac0918391906116c9565b50565b60608151835114610b285760405162461bcd60e51b815260206004820152602960248201527f455243313135353a206163636f756e747320616e6420696473206c656e677468604482015268040dad2e6dac2e8c6d60bb1b6064820152608401610716565b600083516001600160401b03811115610b4357610b43612b39565b604051908082528060200260200182016040528015610b6c578160200160208202803683370190505b50905060005b8451811015610be457610bb7858281518110610b9057610b90613240565b6020026020010151858381518110610baa57610baa613240565b60200260200101516106ae565b828281518110610bc957610bc9613240565b6020908102919091010152610bdd8161326c565b9050610b72565b509392505050565b306001600160a01b037f0000000000000000000000000000000000000000000000000000000000000000161415610c355760405162461bcd60e51b8152600401610716906131a8565b7f00000000000000000000000000000000000000000000000000000000000000006001600160a01b0316610c7e6000805160206136b9833981519152546001600160a01b031690565b6001600160a01b031614610ca45760405162461bcd60e51b8152600401610716906131f4565b610cad8261169f565b6109df828260016116c9565b6000306001600160a01b037f00000000000000000000000000000000000000000000000000000000000000001614610d595760405162461bcd60e51b815260206004820152603860248201527f555550535570677261646561626c653a206d757374206e6f742062652063616c60448201527f6c6564207468726f7567682064656c656761746563616c6c00000000000000006064820152608401610716565b506000805160206136b983398151915290565b60009182526065602090815260408084206001600160a01b0393909316845291905290205460ff1690565b6109df610da2611374565b8383611843565b610db48184846110fa565b610e345760405162461bcd60e51b815260206004820152604560248201527f4d656c616e642e61692e4d656c616e64436861696e455243313135352363616c60448201527f6c53776170696e57697468546f6b656e49643a20496e76616c6964207369676e606482015264617475726560d81b608482015260a401610716565b6080810151610e44906001613287565b81516001600160a01b031660009081526101966020526040812091909155610e6c8484611924565b9050600060019050610e9583600001518460200151856040015186606001518760a00151611946565b8015610f0457817f77d2051d61801046ee26f37a3676175052464d74691a17a1599be1cfc33b3cb4846020015185604001518660600151604051610ef7939291906001600160a01b039390931683526020830191909152604082015260600190565b60405180910390a2610f30565b60405182907f13209c0f35b838fc09b954da39cf644f270717a40f849eb51230f03d3ab0993f90600090a25b33803b15158015610fba57506040516301ffc9a760e01b8152633ec5c3f360e21b60048201526001600160a01b038216906301ffc9a79060240160206040518083038186803b158015610f8257600080fd5b505afa158015610f96573d6000803e3d6000fd5b505050506040513d601f19601f82011682018060405250810190610fba919061329f565b1561101b57604051633ec5c3f360e21b815282151560048201526001600160a01b0382169063fb170fcc90602401600060405180830381600087803b15801561100257600080fd5b505af1158015611016573d6000803e3d6000fd5b505050505b505050505050565b7ff5eb84615c2a00ecaf817d13794ebd6299c9e01c395bf4018453f13f577f544961104d81611582565b6001600160a01b0382166000908152610194602052604090205460ff1615611073575050565b506001600160a01b0316600081815261019460205260408120805460ff19166001908117909155610195805491820181559091527f54034dca961b61bc2a3147cc0c1986762915b42723ed64155364f17a2e2967700180546001600160a01b0319169091179055565b60006110e6611374565b90506110f481858585611a57565b50505050565b6001611105565b9150505b9392505050565b600054610100900460ff161580801561112c5750600054600160ff909116105b806111465750303b158015611146575060005460ff166001145b6111a95760405162461bcd60e51b815260206004820152602e60248201527f496e697469616c697a61626c653a20636f6e747261637420697320616c72656160448201526d191e481a5b9a5d1a585b1a5e995960921b6064820152608401610716565b6000805460ff1916600117905580156111cc576000805461ff0019166101001790555b6111d582611aac565b6111dd611c0d565b61122d6040518060400160405280601581526020017413595b185b9910da185a5b915490cc4c4d4d50d251605a1b815250604051806040016040528060018152602001603160f81b815250611c36565b80156109df576000805461ff0019169055604051600181527f7f26b83ff96e1f2b6a682f133852f6798a09c465da95921460cefb38474024989060200160405180910390a15050565b60008281526065602052604090206001015461129181611582565b610950838361161a565b6112a3611374565b6001600160a01b0316856001600160a01b031614806112c957506112c98561062c611374565b6113275760405162461bcd60e51b815260206004820152602960248201527f455243313135353a2063616c6c6572206973206e6f74206f776e6572206e6f7260448201526808185c1c1c9bdd995960ba1b6064820152608401610716565b6109248585858585611c67565b60006001600160e01b03198216636cdb3d1360e11b148061136557506001600160e01b031982166303a24d0760e21b145b806107bd57506107bd82611daa565b600061137e611ddf565b905090565b81518351146113e55760405162461bcd60e51b815260206004820152602860248201527f455243313135353a2069647320616e6420616d6f756e7473206c656e677468206044820152670dad2e6dac2e8c6d60c31b6064820152608401610716565b6001600160a01b03841661140b5760405162461bcd60e51b8152600401610716906132bc565b6000611415611374565b9050611425818787878787611e24565b60005b845181101561150e57600085828151811061144557611445613240565b60200260200101519050600085838151811061146357611463613240565b60209081029190910181015160008481526098835260408082206001600160a01b038e1683529093529190912054909150818110156114b45760405162461bcd60e51b815260040161071690613301565b60008381526098602090815260408083206001600160a01b038e8116855292528083208585039055908b168252812080548492906114f3908490613287565b92505081905550505050806115079061326c565b9050611428565b50846001600160a01b0316866001600160a01b0316826001600160a01b03167f4a39dc06d4c0dbc64b70af90fd698a233a518aa5d07e595d983b8c0526c8f7fb878760405161155e92919061334b565b60405180910390a4611574818787878787611f58565b61101b818787878787611fde565b610ac08161158e611374565b612149565b61159d8282610d6c565b6109df5760008281526065602090815260408083206001600160a01b03851684529091529020805460ff191660011790556115d6611374565b6001600160a01b0316816001600160a01b0316837f2f8788117e7eff1d82e926ec794901d17c78024a50270940304540a733656f0d60405160405180910390a45050565b6116248282610d6c565b156109df5760008281526065602090815260408083206001600160a01b03851684529091529020805460ff1916905561165b611374565b6001600160a01b0316816001600160a01b0316837ff6391f5c32d9c69d2a47ea670b442974b53935d1edc7fd64eb21e047a839171b60405160405180910390a45050565b7f189ab7a9244df0848122154315af71fe140f3db0fe014031783b0946b8c9d2e36109df81611582565b7f4910fdfa16fed3260ed0e7147f7cc6da11a60208b5b9406d12a635614ffd91435460ff16156116fc57610950836121ad565b826001600160a01b03166352d1902d6040518163ffffffff1660e01b815260040160206040518083038186803b15801561173557600080fd5b505afa925050508015611765575060408051601f3d908101601f1916820190925261176291810190613370565b60015b6117c85760405162461bcd60e51b815260206004820152602e60248201527f45524331393637557067726164653a206e657720696d706c656d656e7461746960448201526d6f6e206973206e6f74205555505360901b6064820152608401610716565b6000805160206136b983398151915281146118375760405162461bcd60e51b815260206004820152602960248201527f45524331393637557067726164653a20756e737570706f727465642070726f786044820152681a58589b195555525160ba1b6064820152608401610716565b50610950838383612249565b816001600160a01b0316836001600160a01b031614156118b75760405162461bcd60e51b815260206004820152602960248201527f455243313135353a2073657474696e6720617070726f76616c20737461747573604482015268103337b91039b2b63360b91b6064820152608401610716565b6001600160a01b03838116600081815260996020908152604080832094871680845294825291829020805460ff191686151590811790915591519182527f17307eab39ab6107e8899845ad3d59bd9653f200f220920489ca2b5937696c31910160405180910390a3505050565b60008282604051611936929190613389565b6040518091039020905092915050565b6001600160a01b03841661196c5760405162461bcd60e51b815260040161071690613399565b836001600160a01b0316856001600160a01b0316141561198b57600094505b6000611995611374565b905060006119a28561226e565b905060006119af8561226e565b90506119bf838989858589611e24565b60008681526098602090815260408083206001600160a01b038b168452909152812080548792906119f1908490613287565b909155505060408051878152602081018790526001600160a01b03808a16928b82169291871691600080516020613699833981519152910160405180910390a4611a3f838989858589611f58565b611a4d8389898989896122b9565b5050505050505050565b611a62848383612383565b60408051838152602081018390526001600160a01b038516917f4f9d7b3a312c5863548705185c993b332e99b9e30cbc3fc3f7abcc9345d16af8910160405180910390a250505050565b611ab4611c0d565b611abf600082611593565b611ae97ff5eb84615c2a00ecaf817d13794ebd6299c9e01c395bf4018453f13f577f544982611593565b611b137f9f2df0fed2c77648de5860a4cc508cd0818c85b8b8a1ab4ceeef8d981c8956a682611593565b611b3d7f189ab7a9244df0848122154315af71fe140f3db0fe014031783b0946b8c9d2e333611593565b5060408051808201825260068152651b595b185b9960d21b6020918201528151808301835260018152603160f81b9082015281517f8b73c3c69bb8fe3d512ecc4cf759cc79239f7b179b0ffacaa9a75d522b39400f818301527f314ed1331a8d68d6e7c652158abe27c46bf91bd45ef86ab66f92d6500b1056eb818401527fc89efdaa54c0f20c7adf612882df0950f5a951637e0307cdcb4c672f298b8bc660608201524660808201523060a0808301919091528351808303909101815260c09091019092528151910120609755565b600054610100900460ff16611c345760405162461bcd60e51b8152600401610716906133da565b565b600054610100900460ff16611c5d5760405162461bcd60e51b8152600401610716906133da565b6109df8282612521565b6001600160a01b038416611c8d5760405162461bcd60e51b8152600401610716906132bc565b6000611c97611374565b90506000611ca48561226e565b90506000611cb18561226e565b9050611cc1838989858589611e24565b60008681526098602090815260408083206001600160a01b038c16845290915290205485811015611d045760405162461bcd60e51b815260040161071690613301565b60008781526098602090815260408083206001600160a01b038d8116855292528083208985039055908a16825281208054889290611d43908490613287565b909155505060408051888152602081018890526001600160a01b03808b16928c82169291881691600080516020613699833981519152910160405180910390a4611d91848a8a86868a611f58565b611d9f848a8a8a8a8a6122b9565b505050505050505050565b60006001600160e01b03198216637965db0b60e01b14806107bd57506301ffc9a760e01b6001600160e01b03198316146107bd565b60007f00000000000000000000000000000000000000000000000000000000000000006001600160a01b0316331415611e1f575060131936013560601c90565b503390565b611e4e7f9f2df0fed2c77648de5860a4cc508cd0818c85b8b8a1ab4ceeef8d981c8956a686610d6c565b80611eed5750604051635b16ebb760e01b81526001600160a01b0386811660048301527f00000000000000000000000000000000000000000000000000000000000000001690635b16ebb79060240160206040518083038186803b158015611eb557600080fd5b505afa158015611ec9573d6000803e3d6000fd5b505050506040513d601f19601f82011682018060405250810190611eed919061329f565b1561101b5760005b8351811015611f4f57611f3d8687868481518110611f1557611f15613240565b6020026020010151868581518110611f2f57611f2f613240565b602002602001015186612564565b80611f478161326c565b915050611ef5565b50505050505050565b6001600160a01b03841615801590611f765750611f748461265d565b155b15611fd95760005b8351811015611fd757611fc58586868481518110611f9e57611f9e613240565b6020026020010151868581518110611fb857611fb8613240565b6020026020010151611a57565b80611fcf8161326c565b915050611f7e565b505b61101b565b6001600160a01b0384163b1561101b5760405163bc197c8160e01b81526001600160a01b0385169063bc197c81906120229089908990889088908890600401613425565b602060405180830381600087803b15801561203c57600080fd5b505af192505050801561206c575060408051601f3d908101601f1916820190925261206991810190613483565b60015b612119576120786134a0565b806308c379a014156120b2575061208d6134bb565b8061209857506120b4565b8060405162461bcd60e51b81526004016107169190612b0b565b505b60405162461bcd60e51b815260206004820152603460248201527f455243313135353a207472616e7366657220746f206e6f6e20455243313135356044820152732932b1b2b4bb32b91034b6b83632b6b2b73a32b960611b6064820152608401610716565b6001600160e01b0319811663bc197c8160e01b14611f4f5760405162461bcd60e51b815260040161071690613544565b6121538282610d6c565b6109df5761216b816001600160a01b03166014612719565b612176836020612719565b60405160200161218792919061358c565b60408051601f198184030181529082905262461bcd60e51b825261071691600401612b0b565b6001600160a01b0381163b61221a5760405162461bcd60e51b815260206004820152602d60248201527f455243313936373a206e657720696d706c656d656e746174696f6e206973206e60448201526c1bdd08184818dbdb9d1c9858dd609a1b6064820152608401610716565b6000805160206136b983398151915280546001600160a01b0319166001600160a01b0392909216919091179055565b612252836128b4565b60008251118061225f5750805b15610950576110f483836128f4565b604080516001808252818301909252606091600091906020808301908036833701905050905082816000815181106122a8576122a8613240565b602090810291909101015292915050565b6001600160a01b0384163b1561101b5760405163f23a6e6160e01b81526001600160a01b0385169063f23a6e61906122fd9089908990889088908890600401613601565b602060405180830381600087803b15801561231757600080fd5b505af1925050508015612347575060408051601f3d908101601f1916820190925261234491810190613483565b60015b612353576120786134a0565b6001600160e01b0319811663f23a6e6160e01b14611f4f5760405162461bcd60e51b815260040161071690613544565b6001600160a01b0383166123e55760405162461bcd60e51b815260206004820152602360248201527f455243313135353a206275726e2066726f6d20746865207a65726f206164647260448201526265737360e81b6064820152608401610716565b60006123ef611374565b905060006123fc8461226e565b905060006124098461226e565b905061242983876000858560405180602001604052806000815250611e24565b60008581526098602090815260408083206001600160a01b038a168452909152902054848110156124a85760405162461bcd60e51b8152602060048201526024808201527f455243313135353a206275726e20616d6f756e7420657863656564732062616c604482015263616e636560e01b6064820152608401610716565b60008681526098602090815260408083206001600160a01b038b81168086529184528285208a8703905582518b81529384018a9052909290881691600080516020613699833981519152910160405180910390a4611f4f84886000868660405180602001604052806000815250611f58565b9250929050565b600054610100900460ff166125485760405162461bcd60e51b8152600401610716906133da565b81516020928301208151919092012061012e9190915561012f55565b6001600160a01b03841661258a5760405162461bcd60e51b815260040161071690613399565b836001600160a01b0316856001600160a01b031614156125a957600094505b60006125b3611374565b905060006125c08561226e565b905060006125cd8561226e565b90506125dd838989858589611e24565b60008681526098602090815260408083206001600160a01b038b1684529091528120805487929061260f908490613287565b909155505060408051878152602081018790526001600160a01b03808a16928b82169291871691600080516020613699833981519152910160405180910390a4611a4d838989858589611f58565b6001600160a01b0381166000908152610194602052604081205460ff16806107bd5750604051635b16ebb760e01b81526001600160a01b0383811660048301527f00000000000000000000000000000000000000000000000000000000000000001690635b16ebb79060240160206040518083038186803b1580156126e157600080fd5b505afa1580156126f5573d6000803e3d6000fd5b505050506040513d601f19601f820116820180604052508101906107bd919061329f565b60606000612728836002613646565b612733906002613287565b6001600160401b0381111561274a5761274a612b39565b6040519080825280601f01601f191660200182016040528015612774576020820181803683370190505b509050600360fc1b8160008151811061278f5761278f613240565b60200101906001600160f81b031916908160001a905350600f60fb1b816001815181106127be576127be613240565b60200101906001600160f81b031916908160001a90535060006127e2846002613646565b6127ed906001613287565b90505b6001811115612865576f181899199a1a9b1b9c1cb0b131b232b360811b85600f166010811061282157612821613240565b1a60f81b82828151811061283757612837613240565b60200101906001600160f81b031916908160001a90535060049490941c9361285e81613665565b90506127f0565b5083156111055760405162461bcd60e51b815260206004820181905260248201527f537472696e67733a20686578206c656e67746820696e73756666696369656e746044820152606401610716565b6128bd816121ad565b6040516001600160a01b038216907fbc7cd75a20ee27fd9adebab32041f755214dbc6bffa90cc0225b39da2e5c2d3b90600090a250565b60606001600160a01b0383163b61295c5760405162461bcd60e51b815260206004820152602660248201527f416464726573733a2064656c65676174652063616c6c20746f206e6f6e2d636f6044820152651b9d1c9858dd60d21b6064820152608401610716565b600080846001600160a01b031684604051612977919061367c565b600060405180830381855af49150503d80600081146129b2576040519150601f19603f3d011682016040523d82523d6000602084013e6129b7565b606091505b50915091506129df82826040518060600160405280602781526020016136d9602791396129e8565b95945050505050565b606083156129f7575081611105565b825115612a075782518084602001fd5b8160405162461bcd60e51b81526004016107169190612b0b565b80356001600160a01b0381168114612a3857600080fd5b919050565b60008060408385031215612a5057600080fd5b612a5983612a21565b946020939093013593505050565b6001600160e01b031981168114610ac057600080fd5b600060208284031215612a8f57600080fd5b813561110581612a67565b600060208284031215612aac57600080fd5b5035919050565b60005b83811015612ace578181015183820152602001612ab6565b838111156110f45750506000910152565b60008151808452612af7816020860160208601612ab3565b601f01601f19169290920160200192915050565b6020815260006111056020830184612adf565b600060208284031215612b3057600080fd5b61110582612a21565b634e487b7160e01b600052604160045260246000fd5b601f8201601f191681016001600160401b0381118282101715612b7457612b74612b39565b6040525050565b60006001600160401b03821115612b9457612b94612b39565b5060051b60200190565b600082601f830112612baf57600080fd5b81356020612bbc82612b7b565b604051612bc98282612b4f565b83815260059390931b8501820192828101915086841115612be957600080fd5b8286015b84811015612c045780358352918301918301612bed565b509695505050505050565b600082601f830112612c2057600080fd5b81356001600160401b03811115612c3957612c39612b39565b604051612c50601f8301601f191660200182612b4f565b818152846020838601011115612c6557600080fd5b816020850160208301376000918101602001919091529392505050565b600080600080600060a08688031215612c9a57600080fd5b612ca386612a21565b9450612cb160208701612a21565b935060408601356001600160401b0380821115612ccd57600080fd5b612cd989838a01612b9e565b94506060880135915080821115612cef57600080fd5b612cfb89838a01612b9e565b93506080880135915080821115612d1157600080fd5b50612d1e88828901612c0f565b9150509295509295909350565b60008060408385031215612d3e57600080fd5b82359150612d4e60208401612a21565b90509250929050565b60008060408385031215612d6a57600080fd5b82356001600160401b0380821115612d8157600080fd5b818501915085601f830112612d9557600080fd5b81356020612da282612b7b565b604051612daf8282612b4f565b83815260059390931b8501820192828101915089841115612dcf57600080fd5b948201945b83861015612df457612de586612a21565b82529482019490820190612dd4565b96505086013592505080821115612e0a57600080fd5b50612e1785828601612b9e565b9150509250929050565b600081518084526020808501945080840160005b83811015612e5157815187529582019590820190600101612e35565b509495945050505050565b6020815260006111056020830184612e21565b60008060408385031215612e8257600080fd5b612e8b83612a21565b915060208301356001600160401b03811115612ea657600080fd5b612e1785828601612c0f565b8015158114610ac057600080fd5b60008060408385031215612ed357600080fd5b612edc83612a21565b91506020830135612eec81612eb2565b809150509250929050565b60008083601f840112612f0957600080fd5b5081356001600160401b03811115612f2057600080fd5b60208301915083602082850101111561251a57600080fd5b600060c08284031215612f4a57600080fd5b60405160c081016001600160401b038282108183111715612f6d57612f6d612b39565b81604052829350612f7d85612a21565b8352612f8b60208601612a21565b602084015260408501356040840152606085013560608401526080850135608084015260a0850135915080821115612fc257600080fd5b50612fcf85828601612c0f565b60a0830152505092915050565b600080600060408486031215612ff157600080fd5b83356001600160401b038082111561300857600080fd5b61301487838801612ef7565b9095509350602086013591508082111561302d57600080fd5b5061303a86828701612f38565b9150509250925092565b60008060006060848603121561305957600080fd5b61306284612a21565b95602085013595506040909401359392505050565b60008060006040848603121561308c57600080fd5b83356001600160401b03808211156130a357600080fd5b6130af87838801612f38565b945060208601359150808211156130c557600080fd5b506130d286828701612ef7565b9497909650939450505050565b600080604083850312156130f257600080fd5b6130fb83612a21565b9150612d4e60208401612a21565b600080600080600060a0868803121561312157600080fd5b61312a86612a21565b945061313860208701612a21565b9350604086013592506060860135915060808601356001600160401b0381111561316157600080fd5b612d1e88828901612c0f565b600181811c9082168061318157607f821691505b602082108114156131a257634e487b7160e01b600052602260045260246000fd5b50919050565b6020808252602c908201527f46756e6374696f6e206d7573742062652063616c6c6564207468726f7567682060408201526b19195b1959d85d1958d85b1b60a21b606082015260800190565b6020808252602c908201527f46756e6374696f6e206d7573742062652063616c6c6564207468726f7567682060408201526b6163746976652070726f787960a01b606082015260800190565b634e487b7160e01b600052603260045260246000fd5b634e487b7160e01b600052601160045260246000fd5b600060001982141561328057613280613256565b5060010190565b6000821982111561329a5761329a613256565b500190565b6000602082840312156132b157600080fd5b815161110581612eb2565b60208082526025908201527f455243313135353a207472616e7366657220746f20746865207a65726f206164604082015264647265737360d81b606082015260800190565b6020808252602a908201527f455243313135353a20696e73756666696369656e742062616c616e636520666f60408201526939103a3930b739b332b960b11b606082015260800190565b60408152600061335e6040830185612e21565b82810360208401526111018185612e21565b60006020828403121561338257600080fd5b5051919050565b8183823760009101908152919050565b60208082526021908201527f455243313135353a206d696e7420746f20746865207a65726f206164647265736040820152607360f81b606082015260800190565b6020808252602b908201527f496e697469616c697a61626c653a20636f6e7472616374206973206e6f74206960408201526a6e697469616c697a696e6760a81b606082015260800190565b6001600160a01b0386811682528516602082015260a06040820181905260009061345190830186612e21565b82810360608401526134638186612e21565b905082810360808401526134778185612adf565b98975050505050505050565b60006020828403121561349557600080fd5b815161110581612a67565b600060033d11156103f25760046000803e5060005160e01c90565b600060443d10156134c95790565b6040516003193d81016004833e81513d6001600160401b0381602484011181841117156134f857505050505090565b82850191508151818111156135105750505050505090565b843d870101602082850101111561352a5750505050505090565b61353960208286010187612b4f565b509095945050505050565b60208082526028908201527f455243313135353a204552433131353552656365697665722072656a656374656040820152676420746f6b656e7360c01b606082015260800190565b7f416363657373436f6e74726f6c3a206163636f756e74200000000000000000008152600083516135c4816017850160208801612ab3565b7001034b99036b4b9b9b4b733903937b6329607d1b60179184019182015283516135f5816028840160208801612ab3565b01602801949350505050565b6001600160a01b03868116825285166020820152604081018490526060810183905260a06080820181905260009061363b90830184612adf565b979650505050505050565b600081600019048311821515161561366057613660613256565b500290565b60008161367457613674613256565b506000190190565b6000825161368e818460208701612ab3565b919091019291505056fec3d58168c5ae7397731d063d5bbf3d657854427343f4c083240f7aacaa2d0f62360894a13ba1a3210667c828492db98dca3e2076cc3735a920a3ca505d382bbc416464726573733a206c6f772d6c6576656c2064656c65676174652063616c6c206661696c6564a26469706673582212200b6ad020aa5a81352e6ada6eab82710fedf98eabbf2f812918373578b1de26f564736f6c63430008090033",
  "immutableReferences": {
    "566": [
      {
        "length": 32,
        "start": 1127
      },
      {
        "length": 32,
        "start": 7651
      }
    ],
    "1390": [
      {
        "length": 32,
        "start": 2542
      },
      {
        "length": 32,
        "start": 2606
      },
      {
        "length": 32,
        "start": 3063
      },
      {
        "length": 32,
        "start": 3127
      },
      {
        "length": 32,
        "start": 3270
      }
    ],
    "10945": [
      {
        "length": 32,
        "start": 7795
      },
      {
        "length": 32,
        "start": 9887
      }
    ]
  },
  "source": "// SPDX-License-Identifier: MIT\npragma solidity 0.8.9;\n\nimport \"./IMelandChainERC1155CID.sol\";\nimport \"../common/MelandAccessRoles.sol\";\nimport \"@openzeppelin/contracts-upgradeable/proxy/utils/UUPSUpgradeable.sol\";\nimport \"@openzeppelin/contracts-upgradeable/token/ERC1155/IERC1155ReceiverUpgradeable.sol\";\nimport \"@openzeppelin/contracts-upgradeable/token/ERC1155/extensions/IERC1155MetadataURIUpgradeable.sol\";\nimport \"@openzeppelin/contracts-upgradeable/utils/AddressUpgradeable.sol\";\nimport \"@openzeppelin/contracts-upgradeable/utils/introspection/ERC165Upgradeable.sol\";\nimport \"@openzeppelin/contracts-upgradeable/metatx/ERC2771ContextUpgradeable.sol\";\nimport \"@openzeppelin/contracts-upgradeable/utils/cryptography/ECDSAUpgradeable.sol\";\nimport \"@openzeppelin/contracts-upgradeable/utils/cryptography/draft-EIP712Upgradeable.sol\";\nimport \"./IMelandCID.sol\";\nimport \"./ERC1155Upgradeable.sol\";\nimport \"../metatx/IMelandForwarder.sol\";\nimport \"../swap/IMelandSwapFactory.sol\";\n\n// Cross-chain NFT of Meland subchains.\n// For AMM Convert NFT to CID for storage, then mint when charging to private chain.\ncontract MelandChainERC1155CID is\n    Initializable,\n    MelandAccessRoles,\n    ERC1155Upgradeable,\n    IMelandChainERC1155CID,\n    IMelandCID,\n    UUPSUpgradeable,\n    EIP712Upgradeable,\n    ERC2771ContextUpgradeable\n{\n    using ECDSAUpgradeable for bytes32;\n    using AddressUpgradeable for address;\n\n    bytes32 private constant _TYPEHASH =\n        keccak256(\n            \"SwapinParams(address from,address to,uint256 cid,uint256 value,uint256 nonce,bytes data)\"\n        );\n    \n    IMelandSwapFactory private immutable _swapFactory;\n\n    // set of holders, can be this bridge or other bridges\n    mapping(address => bool) public isHolder;\n    address[] public holders;\n\n    mapping(address => uint256) private _nonces;\n\n    /// @custom:oz-upgrades-unsafe-allow constructor\n    constructor(\n        address trustedForwarder,\n        IMelandSwapFactory swapFactory\n    )\n        ERC2771ContextUpgradeable(trustedForwarder)\n    {\n        _swapFactory = swapFactory;\n        require(address(_swapFactory) != address(0), \"Swap factory is not set\");\n    }\n\n    function initialize(address mpc) public initializer {\n        __MelandAccessRoles_init(mpc);\n        __UUPSUpgradeable_init();\n        __EIP712_init(\"MelandChainERC1155CID\", \"1\");\n    }\n\n    function getNonce(address from) public view returns (uint256) {\n        return _nonces[from];\n    }\n\n    /**\n     * @dev See {IERC165-supportsInterface}.\n     */\n    function supportsInterface(bytes4 interfaceId)\n        public\n        view\n        virtual\n        override(\n            AccessControlUpgradeable,\n            ERC1155Upgradeable,\n            IERC165Upgradeable\n        )\n        returns (bool)\n    {\n        return\n            interfaceId == type(IERC1155Upgradeable).interfaceId ||\n            interfaceId == type(IERC1155MetadataURIUpgradeable).interfaceId ||\n            interfaceId == type(IMelandCID).interfaceId ||\n            interfaceId == type(IMelandChainERC1155CID).interfaceId ||\n            super.supportsInterface(interfaceId);\n    }\n\n    function addHolder(address holder) public onlyRole(GM_ROLE) {\n        if (isHolder[holder]) {\n            return;\n        }\n        isHolder[holder] = true;\n        holders.push(holder);\n    }\n\n    function callSwapoutWithCID(\n        address to,\n        uint256 cid,\n        uint256 value\n    ) external {\n        address from = _msgSender();\n        _callSwapoutWithCID(from, to, cid, value);\n    }\n\n    function _callSwapoutWithCID(\n        address from,\n        address to,\n        uint256 cid,\n        uint256 value\n    ) internal {\n        _burn(from, cid, value);\n        emit SwapoutWithCID(to, cid, value);\n    }\n\n    function _MPCPermit2Keccak256(bytes calldata signature)\n        internal\n        pure\n        returns (bytes32)\n    {\n        return keccak256(signature);\n    }\n\n    function verify(SwapinParams memory swapinparams, bytes calldata signature)\n        public\n        view\n        returns (bool)\n    {\n        // TODO\n        return true;\n        address signer = _hashTypedDataV4(\n            keccak256(\n                abi.encode(\n                    _TYPEHASH,\n                    swapinparams.from,\n                    swapinparams.to,\n                    swapinparams.cid,\n                    swapinparams.value,\n                    swapinparams.nonce,\n                    keccak256(swapinparams.data)\n                )\n            )\n        ).recover(signature);\n        return\n            _nonces[swapinparams.from] == swapinparams.nonce &&\n            hasRole(MINTER_ROLE, signer);\n    }\n\n    // According to the MPC signature of the main Meland network, mint\n    function callSwapinWithCID(\n        bytes calldata signature,\n        SwapinParams memory swapinparams\n    ) external {\n        require(\n            verify(swapinparams, signature),\n            \"Meland.ai.MelandChainERC1155#callSwapinWithTokenId: Invalid signature\"\n        );\n        _nonces[swapinparams.from] = swapinparams.nonce + 1;\n        bytes32 signatureKeccak256 = _MPCPermit2Keccak256(signature);\n        // TODO test\n        bool success = true;\n        _mint(\n            swapinparams.from,\n            swapinparams.to,\n            swapinparams.cid,\n            swapinparams.value,\n            swapinparams.data\n        );\n        if (success) {\n            emit SwapinWithCID(\n                signatureKeccak256,\n                swapinparams.to,\n                swapinparams.cid,\n                swapinparams.value\n            );\n        } else {\n            emit RefundSwapin(signatureKeccak256);\n        }\n\n        address realsender = msg.sender;\n        if (\n            realsender.isContract() &&\n            IERC165Upgradeable(realsender).supportsInterface(\n                type(IMelandForwarder).interfaceId\n            )\n        ) {\n            IMelandForwarder(realsender).setExecuted(success);\n        }\n    }\n\n    function _authorizeUpgrade(address newImplementation)\n        internal\n        override\n        onlyRole(UPGRADER_ROLE)\n    {}\n\n    function _msgData()\n        internal\n        view\n        virtual\n        override(ContextUpgradeable, ERC2771ContextUpgradeable)\n        returns (bytes calldata)\n    {\n        return ERC2771ContextUpgradeable._msgData();\n    }\n\n    function _msgSender()\n        internal\n        view\n        virtual\n        override(ContextUpgradeable, ERC2771ContextUpgradeable)\n        returns (address)\n    {\n        return ERC2771ContextUpgradeable._msgSender();\n    }\n\n    function getCidByTokenId(uint256 tokenId) external pure returns (uint256) {\n        return tokenId;\n    }\n\n    // TODO Test\n    function _beforeTokenTransfer(\n        address operator,\n        address from,\n        address to,\n        uint256[] memory ids,\n        uint256[] memory amounts,\n        bytes memory data\n    ) internal override(ERC1155Upgradeable) {\n        if (hasRole(MINTER_ROLE, from)\n            || _swapFactory.isPool(from)\n        ) {\n             for (uint256 i = 0; i < ids.length; i++) {\n                _mintNoCheck(from, from, ids[i], amounts[i], data);\n            }\n        }\n    }\n\n    function _isHolderAddress(address account) internal view returns(bool) {\n        return isHolder[account] || _swapFactory.isPool(account);\n    }\n\n    // The following functions are overrides required by Solidity.\n    function _afterTokenTransfer(\n        address operator,\n        address from,\n        address to,\n        uint256[] memory ids,\n        uint256[] memory amounts,\n        bytes memory data\n    ) internal override(ERC1155Upgradeable) {\n        if (to != address(0) && !_isHolderAddress(to)) {\n            for (uint256 i = 0; i < ids.length; i++) {\n                _callSwapoutWithCID(to, to, ids[i], amounts[i]);\n            }\n        }\n\n        super._afterTokenTransfer(operator, from, to, ids, amounts, data);\n    }\n}\n",
  "sourcePath": "/Users/alberthuang/code/contracts-v2/contracts/nft/MelandChainERC1155CID.sol",
  "compiler": {
    "name": "solc",
    "version": "0.8.9+commit.e5eed63a.Emscripten.clang"
  },
  "schemaVersion": "3.4.8",
  "updatedAt": "2022-07-13T06:12:17.332Z",
  "networkType": "ethereum",
  "devdoc": {
    "kind": "dev",
    "methods": {
      "balanceOf(address,uint256)": {
        "details": "See {IERC1155-balanceOf}. Requirements: - `account` cannot be the zero address."
      },
      "balanceOfBatch(address[],uint256[])": {
        "details": "See {IERC1155-balanceOfBatch}. Requirements: - `accounts` and `ids` must have the same length."
      },
      "constructor": {
        "custom:oz-upgrades-unsafe-allow": "constructor"
      },
      "getRoleAdmin(bytes32)": {
        "details": "Returns the admin role that controls `role`. See {grantRole} and {revokeRole}. To change a role's admin, use {_setRoleAdmin}."
      },
      "grantRole(bytes32,address)": {
        "details": "Grants `role` to `account`. If `account` had not been already granted `role`, emits a {RoleGranted} event. Requirements: - the caller must have ``role``'s admin role. May emit a {RoleGranted} event."
      },
      "hasRole(bytes32,address)": {
        "details": "Returns `true` if `account` has been granted `role`."
      },
      "isApprovedForAll(address,address)": {
        "details": "See {IERC1155-isApprovedForAll}."
      },
      "proxiableUUID()": {
        "details": "Implementation of the ERC1822 {proxiableUUID} function. This returns the storage slot used by the implementation. It is used to validate that the this implementation remains valid after an upgrade. IMPORTANT: A proxy pointing at a proxiable contract should not be considered proxiable itself, because this risks bricking a proxy that upgrades to it, by delegating to itself until out of gas. Thus it is critical that this function revert if invoked through a proxy. This is guaranteed by the `notDelegated` modifier."
      },
      "renounceRole(bytes32,address)": {
        "details": "Revokes `role` from the calling account. Roles are often managed via {grantRole} and {revokeRole}: this function's purpose is to provide a mechanism for accounts to lose their privileges if they are compromised (such as when a trusted device is misplaced). If the calling account had been revoked `role`, emits a {RoleRevoked} event. Requirements: - the caller must be `account`. May emit a {RoleRevoked} event."
      },
      "revokeRole(bytes32,address)": {
        "details": "Revokes `role` from `account`. If `account` had been granted `role`, emits a {RoleRevoked} event. Requirements: - the caller must have ``role``'s admin role. May emit a {RoleRevoked} event."
      },
      "safeBatchTransferFrom(address,address,uint256[],uint256[],bytes)": {
        "details": "See {IERC1155-safeBatchTransferFrom}."
      },
      "safeTransferFrom(address,address,uint256,uint256,bytes)": {
        "details": "See {IERC1155-safeTransferFrom}."
      },
      "setApprovalForAll(address,bool)": {
        "details": "See {IERC1155-setApprovalForAll}."
      },
      "supportsInterface(bytes4)": {
        "details": "See {IERC165-supportsInterface}."
      },
      "upgradeTo(address)": {
        "details": "Upgrade the implementation of the proxy to `newImplementation`. Calls {_authorizeUpgrade}. Emits an {Upgraded} event."
      },
      "upgradeToAndCall(address,bytes)": {
        "details": "Upgrade the implementation of the proxy to `newImplementation`, and subsequently execute the function call encoded in `data`. Calls {_authorizeUpgrade}. Emits an {Upgraded} event."
      },
      "uri(uint256)": {
        "details": "See {IERC1155MetadataURI-uri}. This implementation returns the same URI for *all* token types. It relies on the token type ID substitution mechanism https://eips.ethereum.org/EIPS/eip-1155#metadata[defined in the EIP]. Clients calling this function must replace the `\\{id\\}` substring with the actual token type ID."
      }
    },
    "version": 1
  },
  "userdoc": {
    "kind": "user",
    "methods": {},
    "version": 1
  }
}