{
  "contractName": "MelandChainERC1155CID",
  "abi": [
    {
      "inputs": [
        {
          "internalType": "address",
          "name": "trustedForwarder",
          "type": "address"
        }
      ],
      "stateMutability": "nonpayable",
      "type": "constructor"
    },
    {
      "anonymous": false,
      "inputs": [
        {
          "indexed": false,
          "internalType": "address",
          "name": "previousAdmin",
          "type": "address"
        },
        {
          "indexed": false,
          "internalType": "address",
          "name": "newAdmin",
          "type": "address"
        }
      ],
      "name": "AdminChanged",
      "type": "event"
    },
    {
      "anonymous": false,
      "inputs": [
        {
          "indexed": true,
          "internalType": "address",
          "name": "account",
          "type": "address"
        },
        {
          "indexed": true,
          "internalType": "address",
          "name": "operator",
          "type": "address"
        },
        {
          "indexed": false,
          "internalType": "bool",
          "name": "approved",
          "type": "bool"
        }
      ],
      "name": "ApprovalForAll",
      "type": "event"
    },
    {
      "anonymous": false,
      "inputs": [
        {
          "indexed": true,
          "internalType": "address",
          "name": "beacon",
          "type": "address"
        }
      ],
      "name": "BeaconUpgraded",
      "type": "event"
    },
    {
      "anonymous": false,
      "inputs": [
        {
          "indexed": false,
          "internalType": "uint8",
          "name": "version",
          "type": "uint8"
        }
      ],
      "name": "Initialized",
      "type": "event"
    },
    {
      "anonymous": false,
      "inputs": [
        {
          "indexed": true,
          "internalType": "bytes32",
          "name": "signKeccak256",
          "type": "bytes32"
        }
      ],
      "name": "RefundSwapin",
      "type": "event"
    },
    {
      "anonymous": false,
      "inputs": [
        {
          "indexed": true,
          "internalType": "bytes32",
          "name": "role",
          "type": "bytes32"
        },
        {
          "indexed": true,
          "internalType": "bytes32",
          "name": "previousAdminRole",
          "type": "bytes32"
        },
        {
          "indexed": true,
          "internalType": "bytes32",
          "name": "newAdminRole",
          "type": "bytes32"
        }
      ],
      "name": "RoleAdminChanged",
      "type": "event"
    },
    {
      "anonymous": false,
      "inputs": [
        {
          "indexed": true,
          "internalType": "bytes32",
          "name": "role",
          "type": "bytes32"
        },
        {
          "indexed": true,
          "internalType": "address",
          "name": "account",
          "type": "address"
        },
        {
          "indexed": true,
          "internalType": "address",
          "name": "sender",
          "type": "address"
        }
      ],
      "name": "RoleGranted",
      "type": "event"
    },
    {
      "anonymous": false,
      "inputs": [
        {
          "indexed": true,
          "internalType": "bytes32",
          "name": "role",
          "type": "bytes32"
        },
        {
          "indexed": true,
          "internalType": "address",
          "name": "account",
          "type": "address"
        },
        {
          "indexed": true,
          "internalType": "address",
          "name": "sender",
          "type": "address"
        }
      ],
      "name": "RoleRevoked",
      "type": "event"
    },
    {
      "anonymous": false,
      "inputs": [
        {
          "indexed": true,
          "internalType": "bytes32",
          "name": "signKeccak256",
          "type": "bytes32"
        },
        {
          "indexed": false,
          "internalType": "address",
          "name": "to",
          "type": "address"
        },
        {
          "indexed": false,
          "internalType": "uint256",
          "name": "cid",
          "type": "uint256"
        },
        {
          "indexed": false,
          "internalType": "uint256",
          "name": "value",
          "type": "uint256"
        }
      ],
      "name": "SwapinWithCID",
      "type": "event"
    },
    {
      "anonymous": false,
      "inputs": [
        {
          "indexed": true,
          "internalType": "address",
          "name": "to",
          "type": "address"
        },
        {
          "indexed": false,
          "internalType": "uint256",
          "name": "cid",
          "type": "uint256"
        },
        {
          "indexed": false,
          "internalType": "uint256",
          "name": "value",
          "type": "uint256"
        }
      ],
      "name": "SwapoutWithCID",
      "type": "event"
    },
    {
      "anonymous": false,
      "inputs": [
        {
          "indexed": true,
          "internalType": "address",
          "name": "operator",
          "type": "address"
        },
        {
          "indexed": true,
          "internalType": "address",
          "name": "from",
          "type": "address"
        },
        {
          "indexed": true,
          "internalType": "address",
          "name": "to",
          "type": "address"
        },
        {
          "indexed": false,
          "internalType": "uint256[]",
          "name": "ids",
          "type": "uint256[]"
        },
        {
          "indexed": false,
          "internalType": "uint256[]",
          "name": "values",
          "type": "uint256[]"
        }
      ],
      "name": "TransferBatch",
      "type": "event"
    },
    {
      "anonymous": false,
      "inputs": [
        {
          "indexed": true,
          "internalType": "address",
          "name": "operator",
          "type": "address"
        },
        {
          "indexed": true,
          "internalType": "address",
          "name": "from",
          "type": "address"
        },
        {
          "indexed": true,
          "internalType": "address",
          "name": "to",
          "type": "address"
        },
        {
          "indexed": false,
          "internalType": "uint256",
          "name": "id",
          "type": "uint256"
        },
        {
          "indexed": false,
          "internalType": "uint256",
          "name": "value",
          "type": "uint256"
        }
      ],
      "name": "TransferSingle",
      "type": "event"
    },
    {
      "anonymous": false,
      "inputs": [
        {
          "indexed": false,
          "internalType": "string",
          "name": "value",
          "type": "string"
        },
        {
          "indexed": true,
          "internalType": "uint256",
          "name": "id",
          "type": "uint256"
        }
      ],
      "name": "URI",
      "type": "event"
    },
    {
      "anonymous": false,
      "inputs": [
        {
          "indexed": true,
          "internalType": "address",
          "name": "implementation",
          "type": "address"
        }
      ],
      "name": "Upgraded",
      "type": "event"
    },
    {
      "inputs": [],
      "name": "DEFAULT_ADMIN_ROLE",
      "outputs": [
        {
          "internalType": "bytes32",
          "name": "",
          "type": "bytes32"
        }
      ],
      "stateMutability": "view",
      "type": "function"
    },
    {
      "inputs": [],
      "name": "DOMAIN_SEPARATOR",
      "outputs": [
        {
          "internalType": "bytes32",
          "name": "",
          "type": "bytes32"
        }
      ],
      "stateMutability": "view",
      "type": "function"
    },
    {
      "inputs": [],
      "name": "GM_ROLE",
      "outputs": [
        {
          "internalType": "bytes32",
          "name": "",
          "type": "bytes32"
        }
      ],
      "stateMutability": "view",
      "type": "function"
    },
    {
      "inputs": [],
      "name": "MINTER_ROLE",
      "outputs": [
        {
          "internalType": "bytes32",
          "name": "",
          "type": "bytes32"
        }
      ],
      "stateMutability": "view",
      "type": "function"
    },
    {
      "inputs": [],
      "name": "UPGRADER_ROLE",
      "outputs": [
        {
          "internalType": "bytes32",
          "name": "",
          "type": "bytes32"
        }
      ],
      "stateMutability": "view",
      "type": "function"
    },
    {
      "inputs": [
        {
          "internalType": "address",
          "name": "account",
          "type": "address"
        },
        {
          "internalType": "uint256",
          "name": "id",
          "type": "uint256"
        }
      ],
      "name": "balanceOf",
      "outputs": [
        {
          "internalType": "uint256",
          "name": "",
          "type": "uint256"
        }
      ],
      "stateMutability": "view",
      "type": "function"
    },
    {
      "inputs": [
        {
          "internalType": "address[]",
          "name": "accounts",
          "type": "address[]"
        },
        {
          "internalType": "uint256[]",
          "name": "ids",
          "type": "uint256[]"
        }
      ],
      "name": "balanceOfBatch",
      "outputs": [
        {
          "internalType": "uint256[]",
          "name": "",
          "type": "uint256[]"
        }
      ],
      "stateMutability": "view",
      "type": "function"
    },
    {
      "inputs": [
        {
          "internalType": "bytes32",
          "name": "role",
          "type": "bytes32"
        }
      ],
      "name": "getRoleAdmin",
      "outputs": [
        {
          "internalType": "bytes32",
          "name": "",
          "type": "bytes32"
        }
      ],
      "stateMutability": "view",
      "type": "function"
    },
    {
      "inputs": [
        {
          "internalType": "bytes32",
          "name": "role",
          "type": "bytes32"
        },
        {
          "internalType": "address",
          "name": "account",
          "type": "address"
        }
      ],
      "name": "grantRole",
      "outputs": [],
      "stateMutability": "nonpayable",
      "type": "function"
    },
    {
      "inputs": [
        {
          "internalType": "bytes32",
          "name": "role",
          "type": "bytes32"
        },
        {
          "internalType": "address",
          "name": "account",
          "type": "address"
        }
      ],
      "name": "hasRole",
      "outputs": [
        {
          "internalType": "bool",
          "name": "",
          "type": "bool"
        }
      ],
      "stateMutability": "view",
      "type": "function"
    },
    {
      "inputs": [
        {
          "internalType": "uint256",
          "name": "",
          "type": "uint256"
        }
      ],
      "name": "holders",
      "outputs": [
        {
          "internalType": "address",
          "name": "",
          "type": "address"
        }
      ],
      "stateMutability": "view",
      "type": "function"
    },
    {
      "inputs": [
        {
          "internalType": "address",
          "name": "account",
          "type": "address"
        },
        {
          "internalType": "address",
          "name": "operator",
          "type": "address"
        }
      ],
      "name": "isApprovedForAll",
      "outputs": [
        {
          "internalType": "bool",
          "name": "",
          "type": "bool"
        }
      ],
      "stateMutability": "view",
      "type": "function"
    },
    {
      "inputs": [
        {
          "internalType": "address",
          "name": "",
          "type": "address"
        }
      ],
      "name": "isHolder",
      "outputs": [
        {
          "internalType": "bool",
          "name": "",
          "type": "bool"
        }
      ],
      "stateMutability": "view",
      "type": "function"
    },
    {
      "inputs": [
        {
          "internalType": "address",
          "name": "forwarder",
          "type": "address"
        }
      ],
      "name": "isTrustedForwarder",
      "outputs": [
        {
          "internalType": "bool",
          "name": "",
          "type": "bool"
        }
      ],
      "stateMutability": "view",
      "type": "function"
    },
    {
      "inputs": [],
      "name": "proxiableUUID",
      "outputs": [
        {
          "internalType": "bytes32",
          "name": "",
          "type": "bytes32"
        }
      ],
      "stateMutability": "view",
      "type": "function"
    },
    {
      "inputs": [
        {
          "internalType": "bytes32",
          "name": "role",
          "type": "bytes32"
        },
        {
          "internalType": "address",
          "name": "account",
          "type": "address"
        }
      ],
      "name": "renounceRole",
      "outputs": [],
      "stateMutability": "nonpayable",
      "type": "function"
    },
    {
      "inputs": [
        {
          "internalType": "bytes32",
          "name": "role",
          "type": "bytes32"
        },
        {
          "internalType": "address",
          "name": "account",
          "type": "address"
        }
      ],
      "name": "revokeRole",
      "outputs": [],
      "stateMutability": "nonpayable",
      "type": "function"
    },
    {
      "inputs": [
        {
          "internalType": "address",
          "name": "from",
          "type": "address"
        },
        {
          "internalType": "address",
          "name": "to",
          "type": "address"
        },
        {
          "internalType": "uint256[]",
          "name": "ids",
          "type": "uint256[]"
        },
        {
          "internalType": "uint256[]",
          "name": "amounts",
          "type": "uint256[]"
        },
        {
          "internalType": "bytes",
          "name": "data",
          "type": "bytes"
        }
      ],
      "name": "safeBatchTransferFrom",
      "outputs": [],
      "stateMutability": "nonpayable",
      "type": "function"
    },
    {
      "inputs": [
        {
          "internalType": "address",
          "name": "from",
          "type": "address"
        },
        {
          "internalType": "address",
          "name": "to",
          "type": "address"
        },
        {
          "internalType": "uint256",
          "name": "id",
          "type": "uint256"
        },
        {
          "internalType": "uint256",
          "name": "amount",
          "type": "uint256"
        },
        {
          "internalType": "bytes",
          "name": "data",
          "type": "bytes"
        }
      ],
      "name": "safeTransferFrom",
      "outputs": [],
      "stateMutability": "nonpayable",
      "type": "function"
    },
    {
      "inputs": [
        {
          "internalType": "address",
          "name": "operator",
          "type": "address"
        },
        {
          "internalType": "bool",
          "name": "approved",
          "type": "bool"
        }
      ],
      "name": "setApprovalForAll",
      "outputs": [],
      "stateMutability": "nonpayable",
      "type": "function"
    },
    {
      "inputs": [
        {
          "internalType": "address",
          "name": "newImplementation",
          "type": "address"
        }
      ],
      "name": "upgradeTo",
      "outputs": [],
      "stateMutability": "nonpayable",
      "type": "function"
    },
    {
      "inputs": [
        {
          "internalType": "address",
          "name": "newImplementation",
          "type": "address"
        },
        {
          "internalType": "bytes",
          "name": "data",
          "type": "bytes"
        }
      ],
      "name": "upgradeToAndCall",
      "outputs": [],
      "stateMutability": "payable",
      "type": "function"
    },
    {
      "inputs": [
        {
          "internalType": "uint256",
          "name": "",
          "type": "uint256"
        }
      ],
      "name": "uri",
      "outputs": [
        {
          "internalType": "string",
          "name": "",
          "type": "string"
        }
      ],
      "stateMutability": "view",
      "type": "function"
    },
    {
      "inputs": [
        {
          "internalType": "address",
          "name": "mpc",
          "type": "address"
        }
      ],
      "name": "initialize",
      "outputs": [],
      "stateMutability": "nonpayable",
      "type": "function"
    },
    {
      "inputs": [
        {
          "internalType": "bytes4",
          "name": "interfaceId",
          "type": "bytes4"
        }
      ],
      "name": "supportsInterface",
      "outputs": [
        {
          "internalType": "bool",
          "name": "",
          "type": "bool"
        }
      ],
      "stateMutability": "view",
      "type": "function"
    },
    {
      "inputs": [
        {
          "internalType": "address",
          "name": "holder",
          "type": "address"
        }
      ],
      "name": "addHolder",
      "outputs": [],
      "stateMutability": "nonpayable",
      "type": "function"
    },
    {
      "inputs": [
        {
          "internalType": "address",
          "name": "to",
          "type": "address"
        },
        {
          "internalType": "uint256",
          "name": "cid",
          "type": "uint256"
        },
        {
          "internalType": "uint256",
          "name": "value",
          "type": "uint256"
        }
      ],
      "name": "callSwapoutWithCID",
      "outputs": [],
      "stateMutability": "nonpayable",
      "type": "function"
    },
    {
      "inputs": [
        {
          "components": [
            {
              "internalType": "uint8",
              "name": "v",
              "type": "uint8"
            },
            {
              "internalType": "bytes32",
              "name": "r",
              "type": "bytes32"
            },
            {
              "internalType": "bytes32",
              "name": "s",
              "type": "bytes32"
            }
          ],
          "internalType": "struct IMelandAccessRoles.MPCPermit",
          "name": "signature",
          "type": "tuple"
        },
        {
          "components": [
            {
              "internalType": "address",
              "name": "to",
              "type": "address"
            },
            {
              "internalType": "uint256",
              "name": "cid",
              "type": "uint256"
            },
            {
              "internalType": "uint256",
              "name": "value",
              "type": "uint256"
            },
            {
              "internalType": "bytes",
              "name": "data",
              "type": "bytes"
            }
          ],
          "internalType": "struct IMelandChainERC1155CID.SwapinParams",
          "name": "swapinparams",
          "type": "tuple"
        }
      ],
      "name": "callSwapinWithCID",
      "outputs": [],
      "stateMutability": "nonpayable",
      "type": "function"
    },
    {
      "inputs": [
        {
          "internalType": "uint256",
          "name": "tokenId",
          "type": "uint256"
        }
      ],
      "name": "getCidByTokenId",
      "outputs": [
        {
          "internalType": "uint256",
          "name": "",
          "type": "uint256"
        }
      ],
      "stateMutability": "pure",
      "type": "function"
    }
  ],
  "bytecode": "0x60c0604052306080523480156200001557600080fd5b50604051620030c0380380620030c083398101604081905262000038916200004a565b6001600160a01b031660a0526200007c565b6000602082840312156200005d57600080fd5b81516001600160a01b03811681146200007557600080fd5b9392505050565b60805160a051612ffb620000c56000396000818161043a0152611d2d015260008181610a0901528181610a4901528181610c1201528181610c520152610ce10152612ffb6000f3fe6080604052600436106101c15760003560e01c80634f1ef286116100f7578063b07d8b7211610095578063d547741f11610064578063d547741f14610584578063e985e9c5146105a4578063f242432a146105ed578063f72c0d8b1461060d57600080fd5b8063b07d8b72146104df578063c4d66de8146104ff578063d4d7b19a1461051f578063d53913931461055057600080fd5b806391d14854116100d157806391d148541461046a578063a217fddf1461048a578063a22cb4651461049f578063ac1e17df146104bf57600080fd5b80634f1ef286146103f557806352d1902d14610408578063572b6c051461041d57600080fd5b80632f2ff15d1161016457806336568abe1161013e57806336568abe1461036a5780633659cfe61461038a5780633ef780bc146103aa5780634e1273f4146103c857600080fd5b80632f2ff15d1461030057806330c7be2c146103205780633644e5151461035457600080fd5b8063248a9ca3116101a0578063248a9ca31461025657806327b59cbd146102865780632a11ced0146102a85780632eb2c2d6146102e057600080fd5b8062fdd58e146101c657806301ffc9a7146101f95780630e89341c14610229575b600080fd5b3480156101d257600080fd5b506101e66101e1366004612428565b610641565b6040519081526020015b60405180910390f35b34801561020557600080fd5b50610219610214366004612468565b6106da565b60405190151581526020016101f0565b34801561023557600080fd5b50610249610244366004612485565b610720565b6040516101f091906124f6565b34801561026257600080fd5b506101e6610271366004612485565b60009081526065602052604090206001015490565b34801561029257600080fd5b506102a66102a1366004612602565b6107b4565b005b3480156102b457600080fd5b506102c86102c3366004612485565b610872565b6040516001600160a01b0390911681526020016101f0565b3480156102ec57600080fd5b506102a66102fb366004612776565b61089d565b34801561030c57600080fd5b506102a661031b36600461281f565b610946565b34801561032c57600080fd5b506101e67ff5eb84615c2a00ecaf817d13794ebd6299c9e01c395bf4018453f13f577f544981565b34801561036057600080fd5b506101e660975481565b34801561037657600080fd5b506102a661038536600461281f565b610970565b34801561039657600080fd5b506102a66103a536600461284b565b6109fe565b3480156103b657600080fd5b506101e66103c5366004612485565b90565b3480156103d457600080fd5b506103e86103e3366004612866565b610ade565b6040516101f0919061296b565b6102a661040336600461297e565b610c07565b34801561041457600080fd5b506101e6610cd4565b34801561042957600080fd5b5061021961043836600461284b565b7f00000000000000000000000000000000000000000000000000000000000000006001600160a01b0390811691161490565b34801561047657600080fd5b5061021961048536600461281f565b610d87565b34801561049657600080fd5b506101e6600081565b3480156104ab57600080fd5b506102a66104ba3660046129c1565b610db2565b3480156104cb57600080fd5b506102a66104da36600461284b565b610dc4565b3480156104eb57600080fd5b506102a66104fa3660046129fd565b610e57565b34801561050b57600080fd5b506102a661051a36600461284b565b610e62565b34801561052b57600080fd5b5061021961053a36600461284b565b6101606020526000908152604090205460ff1681565b34801561055c57600080fd5b506101e67f9f2df0fed2c77648de5860a4cc508cd0818c85b8b8a1ab4ceeef8d981c8956a681565b34801561059057600080fd5b506102a661059f36600461281f565b610ee0565b3480156105b057600080fd5b506102196105bf366004612a30565b6001600160a01b03918216600090815260996020908152604080832093909416825291909152205460ff1690565b3480156105f957600080fd5b506102a6610608366004612a5a565b610f05565b34801561061957600080fd5b506101e67f189ab7a9244df0848122154315af71fe140f3db0fe014031783b0946b8c9d2e381565b60006001600160a01b0383166106b25760405162461bcd60e51b815260206004820152602b60248201527f455243313135353a2062616c616e636520717565727920666f7220746865207a60448201526a65726f206164647265737360a81b60648201526084015b60405180910390fd5b5060009081526098602090815260408083206001600160a01b03949094168352929052205490565b60006001600160e01b03198216636cdb3d1360e11b148061070b57506001600160e01b031982166303a24d0760e21b145b8061071a575061071a82610f9e565b92915050565b6060609a805461072f90612abe565b80601f016020809104026020016040519081016040528092919081815260200182805461075b90612abe565b80156107a85780601f1061077d576101008083540402835291602001916107a8565b820191906000526020600020905b81548152906001019060200180831161078b57829003601f168201915b50505050509050919050565b60208281015160408085015185518251808601949094528383019190915260f81b6001600160f81b0319166060830152805180830360410181526061909201905280519101206108168260000151836020015184604001518560600151610fde565b815160208084015160408086015181516001600160a01b0390951685529284019190915282015281907f77d2051d61801046ee26f37a3676175052464d74691a17a1599be1cfc33b3cb4906060015b60405180910390a2505050565b610161818154811061088357600080fd5b6000918252602090912001546001600160a01b0316905081565b6108a561110e565b6001600160a01b0316856001600160a01b031614806108cb57506108cb856105bf61110e565b6109325760405162461bcd60e51b815260206004820152603260248201527f455243313135353a207472616e736665722063616c6c6572206973206e6f74206044820152711bdddb995c881b9bdc88185c1c1c9bdd995960721b60648201526084016106a9565b61093f858585858561111d565b5050505050565b60008281526065602052604090206001015461096181611316565b61096b8383611327565b505050565b61097861110e565b6001600160a01b0316816001600160a01b0316146109f05760405162461bcd60e51b815260206004820152602f60248201527f416363657373436f6e74726f6c3a2063616e206f6e6c792072656e6f756e636560448201526e103937b632b9903337b91039b2b63360891b60648201526084016106a9565b6109fa82826113ae565b5050565b306001600160a01b037f0000000000000000000000000000000000000000000000000000000000000000161415610a475760405162461bcd60e51b81526004016106a990612af9565b7f00000000000000000000000000000000000000000000000000000000000000006001600160a01b0316610a90600080516020612f7f833981519152546001600160a01b031690565b6001600160a01b031614610ab65760405162461bcd60e51b81526004016106a990612b45565b610abf81611433565b60408051600080825260208201909252610adb9183919061145d565b50565b60608151835114610b435760405162461bcd60e51b815260206004820152602960248201527f455243313135353a206163636f756e747320616e6420696473206c656e677468604482015268040dad2e6dac2e8c6d60bb1b60648201526084016106a9565b600083516001600160401b03811115610b5e57610b5e612509565b604051908082528060200260200182016040528015610b87578160200160208202803683370190505b50905060005b8451811015610bff57610bd2858281518110610bab57610bab612b91565b6020026020010151858381518110610bc557610bc5612b91565b6020026020010151610641565b828281518110610be457610be4612b91565b6020908102919091010152610bf881612bbd565b9050610b8d565b509392505050565b306001600160a01b037f0000000000000000000000000000000000000000000000000000000000000000161415610c505760405162461bcd60e51b81526004016106a990612af9565b7f00000000000000000000000000000000000000000000000000000000000000006001600160a01b0316610c99600080516020612f7f833981519152546001600160a01b031690565b6001600160a01b031614610cbf5760405162461bcd60e51b81526004016106a990612b45565b610cc882611433565b6109fa8282600161145d565b6000306001600160a01b037f00000000000000000000000000000000000000000000000000000000000000001614610d745760405162461bcd60e51b815260206004820152603860248201527f555550535570677261646561626c653a206d757374206e6f742062652063616c60448201527f6c6564207468726f7567682064656c656761746563616c6c000000000000000060648201526084016106a9565b50600080516020612f7f83398151915290565b60009182526065602090815260408084206001600160a01b0393909316845291905290205460ff1690565b6109fa610dbd61110e565b83836115d7565b7ff5eb84615c2a00ecaf817d13794ebd6299c9e01c395bf4018453f13f577f5449610dee81611316565b506001600160a01b0316600081815261016060205260408120805460ff19166001908117909155610161805491820181559091527fafbb1c043347995df017ce3291b765e028ad5f784d2aa00c3f5e073760a4de8b0180546001600160a01b0319169091179055565b61096b8383836116b8565b6000610e6e6001611704565b90508015610e86576000805461ff0019166101001790555b610e8f82611791565b610e976118f2565b80156109fa576000805461ff0019169055604051600181527f7f26b83ff96e1f2b6a682f133852f6798a09c465da95921460cefb38474024989060200160405180910390a15050565b600082815260656020526040902060010154610efb81611316565b61096b83836113ae565b610f0d61110e565b6001600160a01b0316856001600160a01b03161480610f335750610f33856105bf61110e565b610f915760405162461bcd60e51b815260206004820152602960248201527f455243313135353a2063616c6c6572206973206e6f74206f776e6572206e6f7260448201526808185c1c1c9bdd995960ba1b60648201526084016106a9565b61093f858585858561195f565b60006001600160e01b03198216636cdb3d1360e11b1480610fcf57506001600160e01b031982166303a24d0760e21b145b8061071a575061071a82611aa6565b6001600160a01b03841661103e5760405162461bcd60e51b815260206004820152602160248201527f455243313135353a206d696e7420746f20746865207a65726f206164647265736044820152607360f81b60648201526084016106a9565b600061104861110e565b9050600061105585611adb565b9050600061106285611adb565b905061107383600089858589611b26565b60008681526098602090815260408083206001600160a01b038b168452909152812080548792906110a5908490612bd8565b909155505060408051878152602081018790526001600160a01b03808a1692600092918716917fc3d58168c5ae7397731d063d5bbf3d657854427343f4c083240f7aacaa2d0f62910160405180910390a461110583600089898989611bbe565b50505050505050565b6000611118611d29565b905090565b815183511461117f5760405162461bcd60e51b815260206004820152602860248201527f455243313135353a2069647320616e6420616d6f756e7473206c656e677468206044820152670dad2e6dac2e8c6d60c31b60648201526084016106a9565b6001600160a01b0384166111a55760405162461bcd60e51b81526004016106a990612bf0565b60006111af61110e565b90506111bf818787878787611b26565b60005b84518110156112a85760008582815181106111df576111df612b91565b6020026020010151905060008583815181106111fd576111fd612b91565b60209081029190910181015160008481526098835260408082206001600160a01b038e16835290935291909120549091508181101561124e5760405162461bcd60e51b81526004016106a990612c35565b60008381526098602090815260408083206001600160a01b038e8116855292528083208585039055908b1682528120805484929061128d908490612bd8565b92505081905550505050806112a190612bbd565b90506111c2565b50846001600160a01b0316866001600160a01b0316826001600160a01b03167f4a39dc06d4c0dbc64b70af90fd698a233a518aa5d07e595d983b8c0526c8f7fb87876040516112f8929190612c7f565b60405180910390a461130e818787878787611d6e565b505050505050565b610adb8161132261110e565b611e38565b6113318282610d87565b6109fa5760008281526065602090815260408083206001600160a01b03851684529091529020805460ff1916600117905561136a61110e565b6001600160a01b0316816001600160a01b0316837f2f8788117e7eff1d82e926ec794901d17c78024a50270940304540a733656f0d60405160405180910390a45050565b6113b88282610d87565b156109fa5760008281526065602090815260408083206001600160a01b03851684529091529020805460ff191690556113ef61110e565b6001600160a01b0316816001600160a01b0316837ff6391f5c32d9c69d2a47ea670b442974b53935d1edc7fd64eb21e047a839171b60405160405180910390a45050565b7f189ab7a9244df0848122154315af71fe140f3db0fe014031783b0946b8c9d2e36109fa81611316565b7f4910fdfa16fed3260ed0e7147f7cc6da11a60208b5b9406d12a635614ffd91435460ff16156114905761096b83611e9c565b826001600160a01b03166352d1902d6040518163ffffffff1660e01b815260040160206040518083038186803b1580156114c957600080fd5b505afa9250505080156114f9575060408051601f3d908101601f191682019092526114f691810190612ca4565b60015b61155c5760405162461bcd60e51b815260206004820152602e60248201527f45524331393637557067726164653a206e657720696d706c656d656e7461746960448201526d6f6e206973206e6f74205555505360901b60648201526084016106a9565b600080516020612f7f83398151915281146115cb5760405162461bcd60e51b815260206004820152602960248201527f45524331393637557067726164653a20756e737570706f727465642070726f786044820152681a58589b195555525160ba1b60648201526084016106a9565b5061096b838383611f38565b816001600160a01b0316836001600160a01b0316141561164b5760405162461bcd60e51b815260206004820152602960248201527f455243313135353a2073657474696e6720617070726f76616c20737461747573604482015268103337b91039b2b63360b91b60648201526084016106a9565b6001600160a01b03838116600081815260996020908152604080832094871680845294825291829020805460ff191686151590811790915591519182527f17307eab39ab6107e8899845ad3d59bd9653f200f220920489ca2b5937696c31910160405180910390a3505050565b6116c3338383611f63565b60408051838152602081018390526001600160a01b038516917f4f9d7b3a312c5863548705185c993b332e99b9e30cbc3fc3f7abcc9345d16af89101610865565b60008054610100900460ff161561174b578160ff1660011480156117275750303b155b6117435760405162461bcd60e51b81526004016106a990612cbd565b506000919050565b60005460ff8084169116106117725760405162461bcd60e51b81526004016106a990612cbd565b506000805460ff191660ff92909216919091179055600190565b919050565b6117996118f2565b6117a4600082611327565b6117ce7ff5eb84615c2a00ecaf817d13794ebd6299c9e01c395bf4018453f13f577f544982611327565b6117f87f9f2df0fed2c77648de5860a4cc508cd0818c85b8b8a1ab4ceeef8d981c8956a682611327565b6118227f189ab7a9244df0848122154315af71fe140f3db0fe014031783b0946b8c9d2e333611327565b5060408051808201825260068152651b595b185b9960d21b6020918201528151808301835260018152603160f81b9082015281517f8b73c3c69bb8fe3d512ecc4cf759cc79239f7b179b0ffacaa9a75d522b39400f818301527f314ed1331a8d68d6e7c652158abe27c46bf91bd45ef86ab66f92d6500b1056eb818401527fc89efdaa54c0f20c7adf612882df0950f5a951637e0307cdcb4c672f298b8bc660608201524660808201523060a0808301919091528351808303909101815260c09091019092528151910120609755565b600054610100900460ff1661195d5760405162461bcd60e51b815260206004820152602b60248201527f496e697469616c697a61626c653a20636f6e7472616374206973206e6f74206960448201526a6e697469616c697a696e6760a81b60648201526084016106a9565b565b6001600160a01b0384166119855760405162461bcd60e51b81526004016106a990612bf0565b600061198f61110e565b9050600061199c85611adb565b905060006119a985611adb565b90506119b9838989858589611b26565b60008681526098602090815260408083206001600160a01b038c168452909152902054858110156119fc5760405162461bcd60e51b81526004016106a990612c35565b60008781526098602090815260408083206001600160a01b038d8116855292528083208985039055908a16825281208054889290611a3b908490612bd8565b909155505060408051888152602081018890526001600160a01b03808b16928c821692918816917fc3d58168c5ae7397731d063d5bbf3d657854427343f4c083240f7aacaa2d0f62910160405180910390a4611a9b848a8a8a8a8a611bbe565b505050505050505050565b60006001600160e01b03198216637965db0b60e01b148061071a57506301ffc9a760e01b6001600160e01b031983161461071a565b60408051600180825281830190925260609160009190602080830190803683370190505090508281600081518110611b1557611b15612b91565b602090810291909101015292915050565b6001600160a01b03841615801590611b5757506001600160a01b0384166000908152610160602052604090205460ff165b15611bb95760005b8351811015611bb757611ba585858381518110611b7e57611b7e612b91565b6020026020010151858481518110611b9857611b98612b91565b60200260200101516116b8565b80611baf81612bbd565b915050611b5f565b505b61130e565b6001600160a01b0384163b1561130e5760405163f23a6e6160e01b81526001600160a01b0385169063f23a6e6190611c029089908990889088908890600401612d0b565b602060405180830381600087803b158015611c1c57600080fd5b505af1925050508015611c4c575060408051601f3d908101601f19168201909252611c4991810190612d50565b60015b611cf957611c58612d6d565b806308c379a01415611c925750611c6d612d88565b80611c785750611c94565b8060405162461bcd60e51b81526004016106a991906124f6565b505b60405162461bcd60e51b815260206004820152603460248201527f455243313135353a207472616e7366657220746f206e6f6e20455243313135356044820152732932b1b2b4bb32b91034b6b83632b6b2b73a32b960611b60648201526084016106a9565b6001600160e01b0319811663f23a6e6160e01b146111055760405162461bcd60e51b81526004016106a990612e11565b60007f00000000000000000000000000000000000000000000000000000000000000006001600160a01b0316331415611d69575060131936013560601c90565b503390565b6001600160a01b0384163b1561130e5760405163bc197c8160e01b81526001600160a01b0385169063bc197c8190611db29089908990889088908890600401612e59565b602060405180830381600087803b158015611dcc57600080fd5b505af1925050508015611dfc575060408051601f3d908101601f19168201909252611df991810190612d50565b60015b611e0857611c58612d6d565b6001600160e01b0319811663bc197c8160e01b146111055760405162461bcd60e51b81526004016106a990612e11565b611e428282610d87565b6109fa57611e5a816001600160a01b03166014612102565b611e65836020612102565b604051602001611e76929190612eb7565b60408051601f198184030181529082905262461bcd60e51b82526106a9916004016124f6565b6001600160a01b0381163b611f095760405162461bcd60e51b815260206004820152602d60248201527f455243313936373a206e657720696d706c656d656e746174696f6e206973206e60448201526c1bdd08184818dbdb9d1c9858dd609a1b60648201526084016106a9565b600080516020612f7f83398151915280546001600160a01b0319166001600160a01b0392909216919091179055565b611f41836122a4565b600082511180611f4e5750805b1561096b57611f5d83836122e4565b50505050565b6001600160a01b038316611fc55760405162461bcd60e51b815260206004820152602360248201527f455243313135353a206275726e2066726f6d20746865207a65726f206164647260448201526265737360e81b60648201526084016106a9565b6000611fcf61110e565b90506000611fdc84611adb565b90506000611fe984611adb565b905061200983876000858560405180602001604052806000815250611b26565b60008581526098602090815260408083206001600160a01b038a168452909152902054848110156120885760405162461bcd60e51b8152602060048201526024808201527f455243313135353a206275726e20616d6f756e7420657863656564732062616c604482015263616e636560e01b60648201526084016106a9565b60008681526098602090815260408083206001600160a01b038b81168086529184528285208a8703905582518b81529384018a90529092908816917fc3d58168c5ae7397731d063d5bbf3d657854427343f4c083240f7aacaa2d0f62910160405180910390a4604080516020810190915260009052611105565b60606000612111836002612f2c565b61211c906002612bd8565b6001600160401b0381111561213357612133612509565b6040519080825280601f01601f19166020018201604052801561215d576020820181803683370190505b509050600360fc1b8160008151811061217857612178612b91565b60200101906001600160f81b031916908160001a905350600f60fb1b816001815181106121a7576121a7612b91565b60200101906001600160f81b031916908160001a90535060006121cb846002612f2c565b6121d6906001612bd8565b90505b600181111561224e576f181899199a1a9b1b9c1cb0b131b232b360811b85600f166010811061220a5761220a612b91565b1a60f81b82828151811061222057612220612b91565b60200101906001600160f81b031916908160001a90535060049490941c9361224781612f4b565b90506121d9565b50831561229d5760405162461bcd60e51b815260206004820181905260248201527f537472696e67733a20686578206c656e67746820696e73756666696369656e7460448201526064016106a9565b9392505050565b6122ad81611e9c565b6040516001600160a01b038216907fbc7cd75a20ee27fd9adebab32041f755214dbc6bffa90cc0225b39da2e5c2d3b90600090a250565b60606001600160a01b0383163b61234c5760405162461bcd60e51b815260206004820152602660248201527f416464726573733a2064656c65676174652063616c6c20746f206e6f6e2d636f6044820152651b9d1c9858dd60d21b60648201526084016106a9565b600080846001600160a01b0316846040516123679190612f62565b600060405180830381855af49150503d80600081146123a2576040519150601f19603f3d011682016040523d82523d6000602084013e6123a7565b606091505b50915091506123cf8282604051806060016040528060278152602001612f9f602791396123d8565b95945050505050565b606083156123e757508161229d565b8251156123f75782518084602001fd5b8160405162461bcd60e51b81526004016106a991906124f6565b80356001600160a01b038116811461178c57600080fd5b6000806040838503121561243b57600080fd5b61244483612411565b946020939093013593505050565b6001600160e01b031981168114610adb57600080fd5b60006020828403121561247a57600080fd5b813561229d81612452565b60006020828403121561249757600080fd5b5035919050565b60005b838110156124b95781810151838201526020016124a1565b83811115611f5d5750506000910152565b600081518084526124e281602086016020860161249e565b601f01601f19169290920160200192915050565b60208152600061229d60208301846124ca565b634e487b7160e01b600052604160045260246000fd5b606081018181106001600160401b038211171561253e5761253e612509565b60405250565b608081018181106001600160401b038211171561253e5761253e612509565b601f8201601f191681016001600160401b038111828210171561258857612588612509565b6040525050565b600082601f8301126125a057600080fd5b81356001600160401b038111156125b9576125b9612509565b6040516125d0601f8301601f191660200182612563565b8181528460208386010111156125e557600080fd5b816020850160208301376000918101602001919091529392505050565b600080828403608081121561261657600080fd5b606081121561262457600080fd5b50604080516126328161251f565b843560ff8116811461264357600080fd5b8152602085810135908201528185013582820152925060608401356001600160401b038082111561267357600080fd5b908501906080828803121561268757600080fd5b825161269281612544565b61269b83612411565b815260208301356020820152838301358482015260608301359350818411156126c357600080fd5b6126cf8885850161258f565b6060820152809450505050509250929050565b60006001600160401b038211156126fb576126fb612509565b5060051b60200190565b600082601f83011261271657600080fd5b81356020612723826126e2565b6040516127308282612563565b83815260059390931b850182019282810191508684111561275057600080fd5b8286015b8481101561276b5780358352918301918301612754565b509695505050505050565b600080600080600060a0868803121561278e57600080fd5b61279786612411565b94506127a560208701612411565b935060408601356001600160401b03808211156127c157600080fd5b6127cd89838a01612705565b945060608801359150808211156127e357600080fd5b6127ef89838a01612705565b9350608088013591508082111561280557600080fd5b506128128882890161258f565b9150509295509295909350565b6000806040838503121561283257600080fd5b8235915061284260208401612411565b90509250929050565b60006020828403121561285d57600080fd5b61229d82612411565b6000806040838503121561287957600080fd5b82356001600160401b038082111561289057600080fd5b818501915085601f8301126128a457600080fd5b813560206128b1826126e2565b6040516128be8282612563565b83815260059390931b85018201928281019150898411156128de57600080fd5b948201945b83861015612903576128f486612411565b825294820194908201906128e3565b9650508601359250508082111561291957600080fd5b5061292685828601612705565b9150509250929050565b600081518084526020808501945080840160005b8381101561296057815187529582019590820190600101612944565b509495945050505050565b60208152600061229d6020830184612930565b6000806040838503121561299157600080fd5b61299a83612411565b915060208301356001600160401b038111156129b557600080fd5b6129268582860161258f565b600080604083850312156129d457600080fd5b6129dd83612411565b9150602083013580151581146129f257600080fd5b809150509250929050565b600080600060608486031215612a1257600080fd5b612a1b84612411565b95602085013595506040909401359392505050565b60008060408385031215612a4357600080fd5b612a4c83612411565b915061284260208401612411565b600080600080600060a08688031215612a7257600080fd5b612a7b86612411565b9450612a8960208701612411565b9350604086013592506060860135915060808601356001600160401b03811115612ab257600080fd5b6128128882890161258f565b600181811c90821680612ad257607f821691505b60208210811415612af357634e487b7160e01b600052602260045260246000fd5b50919050565b6020808252602c908201527f46756e6374696f6e206d7573742062652063616c6c6564207468726f7567682060408201526b19195b1959d85d1958d85b1b60a21b606082015260800190565b6020808252602c908201527f46756e6374696f6e206d7573742062652063616c6c6564207468726f7567682060408201526b6163746976652070726f787960a01b606082015260800190565b634e487b7160e01b600052603260045260246000fd5b634e487b7160e01b600052601160045260246000fd5b6000600019821415612bd157612bd1612ba7565b5060010190565b60008219821115612beb57612beb612ba7565b500190565b60208082526025908201527f455243313135353a207472616e7366657220746f20746865207a65726f206164604082015264647265737360d81b606082015260800190565b6020808252602a908201527f455243313135353a20696e73756666696369656e742062616c616e636520666f60408201526939103a3930b739b332b960b11b606082015260800190565b604081526000612c926040830185612930565b82810360208401526123cf8185612930565b600060208284031215612cb657600080fd5b5051919050565b6020808252602e908201527f496e697469616c697a61626c653a20636f6e747261637420697320616c72656160408201526d191e481a5b9a5d1a585b1a5e995960921b606082015260800190565b6001600160a01b03868116825285166020820152604081018490526060810183905260a060808201819052600090612d45908301846124ca565b979650505050505050565b600060208284031215612d6257600080fd5b815161229d81612452565b600060033d11156103c55760046000803e5060005160e01c90565b600060443d1015612d965790565b6040516003193d81016004833e81513d6001600160401b038160248401118184111715612dc557505050505090565b8285019150815181811115612ddd5750505050505090565b843d8701016020828501011115612df75750505050505090565b612e0660208286010187612563565b509095945050505050565b60208082526028908201527f455243313135353a204552433131353552656365697665722072656a656374656040820152676420746f6b656e7360c01b606082015260800190565b6001600160a01b0386811682528516602082015260a060408201819052600090612e8590830186612930565b8281036060840152612e978186612930565b90508281036080840152612eab81856124ca565b98975050505050505050565b7f416363657373436f6e74726f6c3a206163636f756e7420000000000000000000815260008351612eef81601785016020880161249e565b7001034b99036b4b9b9b4b733903937b6329607d1b6017918401918201528351612f2081602884016020880161249e565b01602801949350505050565b6000816000190483118215151615612f4657612f46612ba7565b500290565b600081612f5a57612f5a612ba7565b506000190190565b60008251612f7481846020870161249e565b919091019291505056fe360894a13ba1a3210667c828492db98dca3e2076cc3735a920a3ca505d382bbc416464726573733a206c6f772d6c6576656c2064656c65676174652063616c6c206661696c6564a26469706673582212208bd9f082b2fa80311f7cb3fae03eb27191727d2c1d9a09927f5e722f6c5ce51264736f6c63430008090033",
  "immutableReferences": {
    "434": [
      {
        "length": 32,
        "start": 1082
      },
      {
        "length": 32,
        "start": 7469
      }
    ],
    "1061": [
      {
        "length": 32,
        "start": 2569
      },
      {
        "length": 32,
        "start": 2633
      },
      {
        "length": 32,
        "start": 3090
      },
      {
        "length": 32,
        "start": 3154
      },
      {
        "length": 32,
        "start": 3297
      }
    ]
  },
  "source": "// SPDX-License-Identifier: MIT\npragma solidity 0.8.9;\n\nimport \"./IMelandChainERC1155CID.sol\";\nimport \"../common/MelandAccessRoles.sol\";\nimport \"@openzeppelin/contracts-upgradeable/proxy/utils/UUPSUpgradeable.sol\";\nimport \"@openzeppelin/contracts-upgradeable/token/ERC1155/IERC1155ReceiverUpgradeable.sol\";\nimport \"@openzeppelin/contracts-upgradeable/token/ERC1155/extensions/IERC1155MetadataURIUpgradeable.sol\";\nimport \"@openzeppelin/contracts-upgradeable/utils/AddressUpgradeable.sol\";\nimport \"@openzeppelin/contracts-upgradeable/utils/introspection/ERC165Upgradeable.sol\";\nimport \"@openzeppelin/contracts-upgradeable/token/ERC1155/ERC1155Upgradeable.sol\";\nimport \"@openzeppelin/contracts-upgradeable/metatx/ERC2771ContextUpgradeable.sol\";\nimport \"./IMelandCID.sol\";\n\n// Cross-chain NFT of Meland subchains.\n// For AMM Convert NFT to CID for storage, then mint when charging to private chain.\ncontract MelandChainERC1155CID is\n    Initializable,\n    MelandAccessRoles,\n    ERC1155Upgradeable,\n    IMelandChainERC1155CID,\n    IMelandCID,\n    UUPSUpgradeable,\n    ERC2771ContextUpgradeable\n{\n    // set of holders, can be this bridge or other bridges\n    mapping(address => bool) public isHolder;\n    address[] public holders;\n\n    /// @custom:oz-upgrades-unsafe-allow constructor\n    constructor(address trustedForwarder) ERC2771ContextUpgradeable(trustedForwarder) {\n\n    }\n\n    function initialize(address mpc) public initializer {\n        __MelandAccessRoles_init(mpc);\n        __UUPSUpgradeable_init();\n    }\n\n    /**\n     * @dev See {IERC165-supportsInterface}.\n     */\n    function supportsInterface(bytes4 interfaceId)\n        public\n        view\n        virtual\n        override(\n            AccessControlUpgradeable,\n            ERC1155Upgradeable,\n            IERC165Upgradeable\n        )\n        returns (bool)\n    {\n        return\n            interfaceId == type(IERC1155Upgradeable).interfaceId ||\n            interfaceId == type(IERC1155MetadataURIUpgradeable).interfaceId ||\n            super.supportsInterface(interfaceId);\n    }\n\n    function addHolder(address holder) public onlyRole(GM_ROLE) {\n        isHolder[holder] = true;\n        holders.push(holder);\n    }\n\n    function callSwapoutWithCID(\n        address to,\n        uint256 cid,\n        uint256 value\n    ) external {\n        _callSwapoutWithCID(to, cid, value);\n    }\n\n    function _callSwapoutWithCID(\n        address to,\n        uint256 cid,\n        uint256 value\n    ) internal {\n        _burn(msg.sender, cid, value);\n        emit SwapoutWithCID(to, cid, value);\n    }\n\n    function _MPCPermit2Keccak256(MPCPermit memory signature)\n        internal\n        pure\n        returns (bytes32)\n    {\n        return keccak256(abi.encodePacked(signature.r, signature.s, signature.v));\n    }\n\n    // According to the MPC signature of the main Meland network, mint\n    function callSwapinWithCID(\n        MPCPermit memory signature,\n        SwapinParams memory swapinparams\n    ) external {\n        // TODO\n        // verify signature.\n        bytes32 signatureKeccak256 = _MPCPermit2Keccak256(signature);\n        _mint(\n            swapinparams.to,\n            swapinparams.cid,\n            swapinparams.value,\n            swapinparams.data\n        );\n        emit SwapinWithCID(\n            signatureKeccak256,\n            swapinparams.to,\n            swapinparams.cid,\n            swapinparams.value\n        );\n    }\n\n    function _authorizeUpgrade(address newImplementation)\n        internal\n        override\n        onlyRole(UPGRADER_ROLE)\n    {}\n\n    function _msgData()\n        internal\n        view\n        virtual\n        override(ContextUpgradeable, ERC2771ContextUpgradeable)\n        returns (bytes calldata)\n    {\n        return ERC2771ContextUpgradeable._msgData();\n    }\n\n    function _msgSender()\n        internal\n        view\n        virtual\n        override(ContextUpgradeable, ERC2771ContextUpgradeable)\n        returns (address)\n    {\n        return ERC2771ContextUpgradeable._msgSender();\n    }\n\n    function getCidByTokenId(uint256 tokenId) external pure returns (uint256) {\n        return tokenId;\n    }\n\n    // The following functions are overrides required by Solidity.\n    function _beforeTokenTransfer(\n        address operator,\n        address from,\n        address to,\n        uint256[] memory ids,\n        uint256[] memory amounts,\n        bytes memory data\n    ) internal override(ERC1155Upgradeable) {\n        if (to != address(0) && isHolder[to]) {\n            for (uint256 i = 0; i < ids.length; i++) {\n                _callSwapoutWithCID(to, ids[i], amounts[i]);\n            }\n        }\n\n        super._beforeTokenTransfer(operator, from, to, ids, amounts, data);\n    }\n}\n",
  "sourcePath": "/Users/alberthuang/code/contracts-v2/contracts/nft/MelandChainERC1155CID.sol",
  "compiler": {
    "name": "solc",
    "version": "0.8.9+commit.e5eed63a.Emscripten.clang"
  },
  "schemaVersion": "3.4.5",
  "updatedAt": "2022-05-25T07:00:07.370Z",
  "devdoc": {
    "kind": "dev",
    "methods": {
      "balanceOf(address,uint256)": {
        "details": "See {IERC1155-balanceOf}. Requirements: - `account` cannot be the zero address."
      },
      "balanceOfBatch(address[],uint256[])": {
        "details": "See {IERC1155-balanceOfBatch}. Requirements: - `accounts` and `ids` must have the same length."
      },
      "constructor": {
        "custom:oz-upgrades-unsafe-allow": "constructor"
      },
      "getRoleAdmin(bytes32)": {
        "details": "Returns the admin role that controls `role`. See {grantRole} and {revokeRole}. To change a role's admin, use {_setRoleAdmin}."
      },
      "grantRole(bytes32,address)": {
        "details": "Grants `role` to `account`. If `account` had not been already granted `role`, emits a {RoleGranted} event. Requirements: - the caller must have ``role``'s admin role."
      },
      "hasRole(bytes32,address)": {
        "details": "Returns `true` if `account` has been granted `role`."
      },
      "isApprovedForAll(address,address)": {
        "details": "See {IERC1155-isApprovedForAll}."
      },
      "proxiableUUID()": {
        "details": "Implementation of the ERC1822 {proxiableUUID} function. This returns the storage slot used by the implementation. It is used to validate that the this implementation remains valid after an upgrade. IMPORTANT: A proxy pointing at a proxiable contract should not be considered proxiable itself, because this risks bricking a proxy that upgrades to it, by delegating to itself until out of gas. Thus it is critical that this function revert if invoked through a proxy. This is guaranteed by the `notDelegated` modifier."
      },
      "renounceRole(bytes32,address)": {
        "details": "Revokes `role` from the calling account. Roles are often managed via {grantRole} and {revokeRole}: this function's purpose is to provide a mechanism for accounts to lose their privileges if they are compromised (such as when a trusted device is misplaced). If the calling account had been revoked `role`, emits a {RoleRevoked} event. Requirements: - the caller must be `account`."
      },
      "revokeRole(bytes32,address)": {
        "details": "Revokes `role` from `account`. If `account` had been granted `role`, emits a {RoleRevoked} event. Requirements: - the caller must have ``role``'s admin role."
      },
      "safeBatchTransferFrom(address,address,uint256[],uint256[],bytes)": {
        "details": "See {IERC1155-safeBatchTransferFrom}."
      },
      "safeTransferFrom(address,address,uint256,uint256,bytes)": {
        "details": "See {IERC1155-safeTransferFrom}."
      },
      "setApprovalForAll(address,bool)": {
        "details": "See {IERC1155-setApprovalForAll}."
      },
      "supportsInterface(bytes4)": {
        "details": "See {IERC165-supportsInterface}."
      },
      "upgradeTo(address)": {
        "details": "Upgrade the implementation of the proxy to `newImplementation`. Calls {_authorizeUpgrade}. Emits an {Upgraded} event."
      },
      "upgradeToAndCall(address,bytes)": {
        "details": "Upgrade the implementation of the proxy to `newImplementation`, and subsequently execute the function call encoded in `data`. Calls {_authorizeUpgrade}. Emits an {Upgraded} event."
      },
      "uri(uint256)": {
        "details": "See {IERC1155MetadataURI-uri}. This implementation returns the same URI for *all* token types. It relies on the token type ID substitution mechanism https://eips.ethereum.org/EIPS/eip-1155#metadata[defined in the EIP]. Clients calling this function must replace the `\\{id\\}` substring with the actual token type ID."
      }
    },
    "version": 1
  },
  "userdoc": {
    "kind": "user",
    "methods": {},
    "version": 1
  }
}