{
  "contractName": "MelandSwapExchangePool20T1155",
  "abi": [
    {
      "inputs": [
        {
          "internalType": "contract IERC1155",
          "name": "_erc1155token",
          "type": "address"
        },
        {
          "internalType": "contract IERC20Metadata",
          "name": "_erc20token",
          "type": "address"
        },
        {
          "internalType": "uint256",
          "name": "_tokenId",
          "type": "uint256"
        },
        {
          "internalType": "bytes32",
          "name": "_productId",
          "type": "bytes32"
        },
        {
          "internalType": "string",
          "name": "_category",
          "type": "string"
        },
        {
          "internalType": "address",
          "name": "trustedForwarder",
          "type": "address"
        }
      ],
      "stateMutability": "nonpayable",
      "type": "constructor"
    },
    {
      "anonymous": false,
      "inputs": [
        {
          "indexed": true,
          "internalType": "address",
          "name": "owner",
          "type": "address"
        },
        {
          "indexed": true,
          "internalType": "address",
          "name": "spender",
          "type": "address"
        },
        {
          "indexed": false,
          "internalType": "uint256",
          "name": "value",
          "type": "uint256"
        }
      ],
      "name": "Approval",
      "type": "event"
    },
    {
      "anonymous": false,
      "inputs": [
        {
          "indexed": true,
          "internalType": "address",
          "name": "provider",
          "type": "address"
        },
        {
          "indexed": false,
          "internalType": "uint256",
          "name": "erc1155Amount",
          "type": "uint256"
        },
        {
          "indexed": false,
          "internalType": "uint256",
          "name": "erc20amount",
          "type": "uint256"
        }
      ],
      "name": "LiquidityAdded",
      "type": "event"
    },
    {
      "anonymous": false,
      "inputs": [
        {
          "indexed": true,
          "internalType": "address",
          "name": "from",
          "type": "address"
        },
        {
          "indexed": true,
          "internalType": "address",
          "name": "to",
          "type": "address"
        },
        {
          "indexed": false,
          "internalType": "uint256",
          "name": "value",
          "type": "uint256"
        }
      ],
      "name": "Transfer",
      "type": "event"
    },
    {
      "inputs": [
        {
          "internalType": "address",
          "name": "owner",
          "type": "address"
        },
        {
          "internalType": "address",
          "name": "spender",
          "type": "address"
        }
      ],
      "name": "allowance",
      "outputs": [
        {
          "internalType": "uint256",
          "name": "",
          "type": "uint256"
        }
      ],
      "stateMutability": "view",
      "type": "function"
    },
    {
      "inputs": [
        {
          "internalType": "address",
          "name": "spender",
          "type": "address"
        },
        {
          "internalType": "uint256",
          "name": "amount",
          "type": "uint256"
        }
      ],
      "name": "approve",
      "outputs": [
        {
          "internalType": "bool",
          "name": "",
          "type": "bool"
        }
      ],
      "stateMutability": "nonpayable",
      "type": "function"
    },
    {
      "inputs": [
        {
          "internalType": "address",
          "name": "account",
          "type": "address"
        }
      ],
      "name": "balanceOf",
      "outputs": [
        {
          "internalType": "uint256",
          "name": "",
          "type": "uint256"
        }
      ],
      "stateMutability": "view",
      "type": "function"
    },
    {
      "inputs": [],
      "name": "category",
      "outputs": [
        {
          "internalType": "string",
          "name": "",
          "type": "string"
        }
      ],
      "stateMutability": "view",
      "type": "function"
    },
    {
      "inputs": [],
      "name": "decimals",
      "outputs": [
        {
          "internalType": "uint8",
          "name": "",
          "type": "uint8"
        }
      ],
      "stateMutability": "view",
      "type": "function"
    },
    {
      "inputs": [
        {
          "internalType": "address",
          "name": "spender",
          "type": "address"
        },
        {
          "internalType": "uint256",
          "name": "subtractedValue",
          "type": "uint256"
        }
      ],
      "name": "decreaseAllowance",
      "outputs": [
        {
          "internalType": "bool",
          "name": "",
          "type": "bool"
        }
      ],
      "stateMutability": "nonpayable",
      "type": "function"
    },
    {
      "inputs": [],
      "name": "factory",
      "outputs": [
        {
          "internalType": "address",
          "name": "",
          "type": "address"
        }
      ],
      "stateMutability": "view",
      "type": "function"
    },
    {
      "inputs": [
        {
          "internalType": "address",
          "name": "spender",
          "type": "address"
        },
        {
          "internalType": "uint256",
          "name": "addedValue",
          "type": "uint256"
        }
      ],
      "name": "increaseAllowance",
      "outputs": [
        {
          "internalType": "bool",
          "name": "",
          "type": "bool"
        }
      ],
      "stateMutability": "nonpayable",
      "type": "function"
    },
    {
      "inputs": [
        {
          "internalType": "address",
          "name": "forwarder",
          "type": "address"
        }
      ],
      "name": "isTrustedForwarder",
      "outputs": [
        {
          "internalType": "bool",
          "name": "",
          "type": "bool"
        }
      ],
      "stateMutability": "view",
      "type": "function"
    },
    {
      "inputs": [],
      "name": "name",
      "outputs": [
        {
          "internalType": "string",
          "name": "",
          "type": "string"
        }
      ],
      "stateMutability": "view",
      "type": "function"
    },
    {
      "inputs": [],
      "name": "productId",
      "outputs": [
        {
          "internalType": "bytes32",
          "name": "",
          "type": "bytes32"
        }
      ],
      "stateMutability": "view",
      "type": "function"
    },
    {
      "inputs": [],
      "name": "symbol",
      "outputs": [
        {
          "internalType": "string",
          "name": "",
          "type": "string"
        }
      ],
      "stateMutability": "view",
      "type": "function"
    },
    {
      "inputs": [],
      "name": "tokenId",
      "outputs": [
        {
          "internalType": "uint256",
          "name": "",
          "type": "uint256"
        }
      ],
      "stateMutability": "view",
      "type": "function"
    },
    {
      "inputs": [],
      "name": "totalSupply",
      "outputs": [
        {
          "internalType": "uint256",
          "name": "",
          "type": "uint256"
        }
      ],
      "stateMutability": "view",
      "type": "function"
    },
    {
      "inputs": [
        {
          "internalType": "address",
          "name": "to",
          "type": "address"
        },
        {
          "internalType": "uint256",
          "name": "amount",
          "type": "uint256"
        }
      ],
      "name": "transfer",
      "outputs": [
        {
          "internalType": "bool",
          "name": "",
          "type": "bool"
        }
      ],
      "stateMutability": "nonpayable",
      "type": "function"
    },
    {
      "inputs": [
        {
          "internalType": "address",
          "name": "from",
          "type": "address"
        },
        {
          "internalType": "address",
          "name": "to",
          "type": "address"
        },
        {
          "internalType": "uint256",
          "name": "amount",
          "type": "uint256"
        }
      ],
      "name": "transferFrom",
      "outputs": [
        {
          "internalType": "bool",
          "name": "",
          "type": "bool"
        }
      ],
      "stateMutability": "nonpayable",
      "type": "function"
    },
    {
      "inputs": [],
      "name": "totalSupplie",
      "outputs": [
        {
          "internalType": "uint256",
          "name": "",
          "type": "uint256"
        }
      ],
      "stateMutability": "view",
      "type": "function"
    },
    {
      "inputs": [],
      "name": "getERC20AvailableSpace",
      "outputs": [
        {
          "internalType": "uint256",
          "name": "",
          "type": "uint256"
        }
      ],
      "stateMutability": "view",
      "type": "function"
    }
  ],
  "bytecode": "0x6101406040523480156200001257600080fd5b50604051620010a3380380620010a383398101604081905262000035916200037a565b806040518060400160405280601181526020017013595b185b990c8c150c4c4d4d541bdbdb607a1b815250866001600160a01b03166306fdde036040518163ffffffff1660e01b815260040160006040518083038186803b1580156200009a57600080fd5b505afa158015620000af573d6000803e3d6000fd5b505050506040513d6000823e601f3d908101601f19168201604052620000d991908101906200040f565b85604051602001620000ed9291906200044f565b60408051601f19818403018152919052815162000112906003906020850190620001e1565b50805162000128906004906020840190620001e1565b5050506001600160a01b0390811660805286811660a052851660c05260e08490526200015362000188565b6001600160a01b03166101005261012083905281516200017b906005906020850190620001e1565b50505050505050620004bb565b60006200019f620001a460201b620005b51760201c565b905090565b6080516000906001600160a01b0316331415620001c8575060131936013560601c90565b6200019f620001dd60201b620005fa1760201c565b3390565b828054620001ef906200047e565b90600052602060002090601f0160209004810192826200021357600085556200025e565b82601f106200022e57805160ff19168380011785556200025e565b828001600101855582156200025e579182015b828111156200025e57825182559160200191906001019062000241565b506200026c92915062000270565b5090565b5b808211156200026c576000815560010162000271565b6001600160a01b03811681146200029d57600080fd5b50565b634e487b7160e01b600052604160045260246000fd5b60005b83811015620002d3578181015183820152602001620002b9565b83811115620002e3576000848401525b50505050565b600082601f830112620002fb57600080fd5b81516001600160401b0380821115620003185762000318620002a0565b604051601f8301601f19908116603f01168101908282118183101715620003435762000343620002a0565b816040528381528660208588010111156200035d57600080fd5b62000370846020830160208901620002b6565b9695505050505050565b60008060008060008060c087890312156200039457600080fd5b8651620003a18162000287565b6020880151909650620003b48162000287565b6040880151606089015160808a015192975090955093506001600160401b03811115620003e057600080fd5b620003ee89828a01620002e9565b92505060a0870151620004018162000287565b809150509295509295509295565b6000602082840312156200042257600080fd5b81516001600160401b038111156200043957600080fd5b6200044784828501620002e9565b949350505050565b6000835162000463818460208801620002b6565b602d60f81b9201918252506001810191909152602101919050565b600181811c908216806200049357607f821691505b60208210811415620004b557634e487b7160e01b600052602260045260246000fd5b50919050565b60805160a05160c05160e0516101005161012051610b976200050c60003960006102b90152600061027a0152600061016101526000505060005050600081816101e601526105b90152610b976000f3fe608060405234801561001057600080fd5b50600436106101165760003560e01c80635ca2e0ae116100a2578063a9059cbb11610071578063a9059cbb14610262578063c45a015514610275578063c5ce3911146102b4578063dd62ed3e146102db578063ef430aa6146102ee57600080fd5b80635ca2e0ae1461021657806370a082311461021e57806395d89b4114610247578063a457c2d71461024f57600080fd5b806323b872dd116100e957806323b872dd14610199578063313ce567146101ac57806339509351146101bb57806350c9f529146101ce578063572b6c05146101d657600080fd5b806306fdde031461011b578063095ea7b31461013957806317d70f7c1461015c57806318160ddd14610191575b600080fd5b6101236102f6565b6040516101309190610974565b60405180910390f35b61014c6101473660046109e5565b610388565b6040519015158152602001610130565b6101837f000000000000000000000000000000000000000000000000000000000000000081565b604051908152602001610130565b600254610183565b61014c6101a7366004610a0f565b6103aa565b60405160128152602001610130565b61014c6101c93660046109e5565b6103d8565b610183610404565b61014c6101e4366004610a4b565b7f00000000000000000000000000000000000000000000000000000000000000006001600160a01b0390811691161490565b61018361043a565b61018361022c366004610a4b565b6001600160a01b031660009081526020819052604090205490565b61012361044a565b61014c61025d3660046109e5565b610459565b61014c6102703660046109e5565b6104e4565b61029c7f000000000000000000000000000000000000000000000000000000000000000081565b6040516001600160a01b039091168152602001610130565b6101837f000000000000000000000000000000000000000000000000000000000000000081565b6101836102e9366004610a6d565b6104fc565b610123610527565b60606003805461030590610aa0565b80601f016020809104026020016040519081016040528092919081815260200182805461033190610aa0565b801561037e5780601f106103535761010080835404028352916020019161037e565b820191906000526020600020905b81548152906001019060200180831161036157829003601f168201915b5050505050905090565b6000806103936105fe565b90506103a0818585610608565b5060019392505050565b6000806103b56105fe565b90506103c285828561072c565b6103cd8585856107a6565b506001949350505050565b6000806103e36105fe565b90506103a08185856103f585896104fc565b6103ff9190610af1565b610608565b6000806008546007546104179190610b09565b90506008546006548261042a9190610b20565b6104349190610b3f565b91505090565b600061044560025490565b905090565b60606004805461030590610aa0565b6000806104646105fe565b9050600061047282866104fc565b9050838110156104d75760405162461bcd60e51b815260206004820152602560248201527f45524332303a2064656372656173656420616c6c6f77616e63652062656c6f77604482015264207a65726f60d81b60648201526084015b60405180910390fd5b6103cd8286868403610608565b6000806104ef6105fe565b90506103a08185856107a6565b6001600160a01b03918216600090815260016020908152604080832093909416825291909152205490565b6005805461053490610aa0565b80601f016020809104026020016040519081016040528092919081815260200182805461056090610aa0565b80156105ad5780601f10610582576101008083540402835291602001916105ad565b820191906000526020600020905b81548152906001019060200180831161059057829003601f168201915b505050505081565b60007f00000000000000000000000000000000000000000000000000000000000000006001600160a01b03163314156105f5575060131936013560601c90565b503390565b3390565b60006104456105b5565b6001600160a01b03831661066a5760405162461bcd60e51b8152602060048201526024808201527f45524332303a20617070726f76652066726f6d20746865207a65726f206164646044820152637265737360e01b60648201526084016104ce565b6001600160a01b0382166106cb5760405162461bcd60e51b815260206004820152602260248201527f45524332303a20617070726f766520746f20746865207a65726f206164647265604482015261737360f01b60648201526084016104ce565b6001600160a01b0383811660008181526001602090815260408083209487168084529482529182902085905590518481527f8c5be1e5ebec7d5bd14f71427d1e84f3dd0314c0f7b2291e5b200ac8c7c3b925910160405180910390a3505050565b600061073884846104fc565b905060001981146107a057818110156107935760405162461bcd60e51b815260206004820152601d60248201527f45524332303a20696e73756666696369656e7420616c6c6f77616e636500000060448201526064016104ce565b6107a08484848403610608565b50505050565b6001600160a01b03831661080a5760405162461bcd60e51b815260206004820152602560248201527f45524332303a207472616e736665722066726f6d20746865207a65726f206164604482015264647265737360d81b60648201526084016104ce565b6001600160a01b03821661086c5760405162461bcd60e51b815260206004820152602360248201527f45524332303a207472616e7366657220746f20746865207a65726f206164647260448201526265737360e81b60648201526084016104ce565b6001600160a01b038316600090815260208190526040902054818110156108e45760405162461bcd60e51b815260206004820152602660248201527f45524332303a207472616e7366657220616d6f756e7420657863656564732062604482015265616c616e636560d01b60648201526084016104ce565b6001600160a01b0380851660009081526020819052604080822085850390559185168152908120805484929061091b908490610af1565b92505081905550826001600160a01b0316846001600160a01b03167fddf252ad1be2c89b69c2b068fc378daa952ba7f163c4a11628f55a4df523b3ef8460405161096791815260200190565b60405180910390a36107a0565b600060208083528351808285015260005b818110156109a157858101830151858201604001528201610985565b818111156109b3576000604083870101525b50601f01601f1916929092016040019392505050565b80356001600160a01b03811681146109e057600080fd5b919050565b600080604083850312156109f857600080fd5b610a01836109c9565b946020939093013593505050565b600080600060608486031215610a2457600080fd5b610a2d846109c9565b9250610a3b602085016109c9565b9150604084013590509250925092565b600060208284031215610a5d57600080fd5b610a66826109c9565b9392505050565b60008060408385031215610a8057600080fd5b610a89836109c9565b9150610a97602084016109c9565b90509250929050565b600181811c90821680610ab457607f821691505b60208210811415610ad557634e487b7160e01b600052602260045260246000fd5b50919050565b634e487b7160e01b600052601160045260246000fd5b60008219821115610b0457610b04610adb565b500190565b600082821015610b1b57610b1b610adb565b500390565b6000816000190483118215151615610b3a57610b3a610adb565b500290565b600082610b5c57634e487b7160e01b600052601260045260246000fd5b50049056fea264697066735822122055d3ab98c68389b4c5b90f3806e664fa693f6ef8e867f14d636e60872521d53f64736f6c63430008090033",
  "immutableReferences": {
    "3957": [
      {
        "length": 32,
        "start": 486
      },
      {
        "length": 32,
        "start": 1465
      }
    ],
    "7868": [
      {
        "length": 32,
        "start": 353
      }
    ],
    "7870": [
      {
        "length": 32,
        "start": 634
      }
    ],
    "7872": [
      {
        "length": 32,
        "start": 697
      }
    ]
  },
  "source": "// SPDX-License-Identifier: MIT\npragma solidity 0.8.9;\n\nimport \"@openzeppelin/contracts/token/ERC1155/IERC1155.sol\";\nimport \"@openzeppelin/contracts/token/ERC20/extensions/IERC20Metadata.sol\";\nimport \"@openzeppelin/contracts/token/ERC20/ERC20.sol\";\nimport \"@openzeppelin/contracts/metatx/ERC2771Context.sol\";\nimport \"./IMelandSwapExchangePool.sol\";\nimport \"../nft/IProductManager.sol\";\n\ncontract MelandSwapExchangePool20T1155 is\n    ERC20,\n    ERC2771Context,\n    IMelandSwapExchangePool\n{\n    // Variables\n    IERC1155 internal immutable erc1155token;\n\n    IERC20Metadata internal immutable erc20token;\n\n    // ERC1155 token id\n    uint256 public immutable tokenId;\n\n    address public immutable factory;\n\n    bytes32 public immutable productId;\n    string public category;\n\n    // erc20 token reserve\n    uint256 internal erc20Reserve;\n\n    // erc1155 token reserve\n    uint256 internal erc1155Reserve;\n\n    uint256 internal erc1155ReserveActivated;\n\n    uint256 internal constant ownerCutPerMillion = 50000;\n\n    constructor(\n        IERC1155 _erc1155token,\n        IERC20Metadata _erc20token,\n        uint256 _tokenId,\n        bytes32 _productId,\n        string memory _category,\n        address trustedForwarder\n    )\n        ERC20(\n            \"Meland20T1155Pool\",\n            string(abi.encodePacked(_erc20token.name(), \"-\", _productId))\n        )\n        ERC2771Context(trustedForwarder)\n    {\n        erc1155token = _erc1155token;\n        erc20token = _erc20token;\n        tokenId = _tokenId;\n        factory = _msgSender();\n\n        productId = _productId;\n        category = _category;\n    }\n\n    function totalSupplie() public view returns (uint256) {\n        return totalSupply();\n    }\n\n    // token.\n    function _initLiquidity(\n        address provider,\n        uint256 erc20Amount,\n        uint256 erc1155Amount\n    ) internal {\n        require(\n            erc20Amount > 1000 * 10**erc20token.decimals(),\n            \"MelandSwapExchangePool20T1155: initLiquidity: erc20Amount must be greater than 1000\"\n        );\n        require(\n            erc1155Amount > 0,\n            \"Meland.Swap.ExchangePool20T1155.initLiquidity: erc1155Amount must be greater than 0\"\n        );\n        require(\n            totalSupplie() == 0,\n            \"Meland.Swap.ExchangePool20T1155#initLiquidity: already initialized\"\n        );\n        require(\n            erc20token.allowance(provider, address(this)) >= erc20Amount,\n            \"Meland.Swap.ExchangePool20T1155#initLiquidity: provider does not have enough allowance\"\n        );\n\n        erc1155ReserveActivated = erc1155Amount;\n        erc1155Reserve = erc1155Amount;\n        erc20Reserve = erc20Amount;\n        erc20token.transferFrom(provider, address(this), erc20Amount);\n\n        // mint lp token\n        _mint(provider, erc20Amount);\n\n        // TODO.\n        // Mint MF token.\n\n        // emit event\n        emit LiquidityAdded(provider, erc1155Amount, erc20Amount);\n    }\n\n    // erc20 token\n    function getERC20AvailableSpace() public view returns (uint256) {\n        uint256 preActivate1155Reserve = erc1155Reserve -\n            erc1155ReserveActivated;\n        return\n            (preActivate1155Reserve * erc20Reserve) / erc1155ReserveActivated;\n    }\n\n    function _addERC20Liquidity(address provider, uint256 erc20Amount)\n        internal\n    {\n        require(\n            totalSupplie() > 0,\n            \"Meland.Swap.ExchangePool20T1155#addERC20Liquidity: not initialized\"\n        );\n        require(\n            erc20Amount <= getERC20AvailableSpace(),\n            \"Meland.Swap.ExchangePool20T1155#addERC20Liquidity: not enough space\"\n        );\n        require(\n            erc20token.allowance(provider, address(this)) >= erc20Amount,\n            \"Meland.Swap.ExchangePool20T1155#initLiquidity: provider does not have enough allowance\"\n        );\n\n        // erc20token, nft\n        uint256 erc1155Activate = (erc20Amount / erc20Reserve) * erc1155ReserveActivated;\n        erc1155ReserveActivated += erc1155Activate;\n\n        require(erc1155Reserve >= erc1155ReserveActivated, \"Meland.Swap.ExchangePool20T1155#addERC20Liquidity: erc1155ReserveActivated must be less than erc1155Reserve\");\n\n        uint256 liquidityToMint = (erc20Amount * totalSupplie()) / erc20Reserve;\n\n        erc20token.transferFrom(provider, address(this), erc20Amount);\n        erc20Reserve += erc20Amount;\n\n        // mint lp token\n        _mint(provider, liquidityToMint);\n\n        // TODO.\n        // Mint MF token.\n\n        // emit event\n        emit LiquidityAdded(provider, 0, erc20Amount);\n    }\n\n    function _addERC1155Liquidity(address provider, uint256 erc1155Amount)\n        internal\n    {\n        \n    }\n\n    function _msgData()\n        internal\n        view\n        virtual\n        override(ERC2771Context, Context)\n        returns (bytes calldata)\n    {\n        return ERC2771Context._msgData();\n    }\n\n    function _msgSender()\n        internal\n        view\n        virtual\n        override(ERC2771Context, Context)\n        returns (address)\n    {\n        return ERC2771Context._msgSender();\n    }\n}\n",
  "sourcePath": "/Users/alberthuang/code/contracts-v2/contracts/swap/MelandSwapExchangePool.sol",
  "compiler": {
    "name": "solc",
    "version": "0.8.9+commit.e5eed63a.Emscripten.clang"
  },
  "schemaVersion": "3.4.5",
  "updatedAt": "2022-05-25T07:00:07.380Z",
  "devdoc": {
    "kind": "dev",
    "methods": {
      "allowance(address,address)": {
        "details": "See {IERC20-allowance}."
      },
      "approve(address,uint256)": {
        "details": "See {IERC20-approve}. NOTE: If `amount` is the maximum `uint256`, the allowance is not updated on `transferFrom`. This is semantically equivalent to an infinite approval. Requirements: - `spender` cannot be the zero address."
      },
      "balanceOf(address)": {
        "details": "See {IERC20-balanceOf}."
      },
      "decimals()": {
        "details": "Returns the number of decimals used to get its user representation. For example, if `decimals` equals `2`, a balance of `505` tokens should be displayed to a user as `5.05` (`505 / 10 ** 2`). Tokens usually opt for a value of 18, imitating the relationship between Ether and Wei. This is the value {ERC20} uses, unless this function is overridden; NOTE: This information is only used for _display_ purposes: it in no way affects any of the arithmetic of the contract, including {IERC20-balanceOf} and {IERC20-transfer}."
      },
      "decreaseAllowance(address,uint256)": {
        "details": "Atomically decreases the allowance granted to `spender` by the caller. This is an alternative to {approve} that can be used as a mitigation for problems described in {IERC20-approve}. Emits an {Approval} event indicating the updated allowance. Requirements: - `spender` cannot be the zero address. - `spender` must have allowance for the caller of at least `subtractedValue`."
      },
      "increaseAllowance(address,uint256)": {
        "details": "Atomically increases the allowance granted to `spender` by the caller. This is an alternative to {approve} that can be used as a mitigation for problems described in {IERC20-approve}. Emits an {Approval} event indicating the updated allowance. Requirements: - `spender` cannot be the zero address."
      },
      "name()": {
        "details": "Returns the name of the token."
      },
      "symbol()": {
        "details": "Returns the symbol of the token, usually a shorter version of the name."
      },
      "totalSupply()": {
        "details": "See {IERC20-totalSupply}."
      },
      "transfer(address,uint256)": {
        "details": "See {IERC20-transfer}. Requirements: - `to` cannot be the zero address. - the caller must have a balance of at least `amount`."
      },
      "transferFrom(address,address,uint256)": {
        "details": "See {IERC20-transferFrom}. Emits an {Approval} event indicating the updated allowance. This is not required by the EIP. See the note at the beginning of {ERC20}. NOTE: Does not update the allowance if the current allowance is the maximum `uint256`. Requirements: - `from` and `to` cannot be the zero address. - `from` must have a balance of at least `amount`. - the caller must have allowance for ``from``'s tokens of at least `amount`."
      }
    },
    "version": 1
  },
  "userdoc": {
    "kind": "user",
    "methods": {},
    "version": 1
  }
}