{
  "contractName": "MelandChainERC1155CID",
  "abi": [
    {
      "inputs": [
        {
          "internalType": "address",
          "name": "trustedForwarder",
          "type": "address"
        },
        {
          "internalType": "contract IMelandSwapFactory",
          "name": "swapFactory",
          "type": "address"
        }
      ],
      "stateMutability": "nonpayable",
      "type": "constructor"
    },
    {
      "anonymous": false,
      "inputs": [
        {
          "indexed": false,
          "internalType": "address",
          "name": "previousAdmin",
          "type": "address"
        },
        {
          "indexed": false,
          "internalType": "address",
          "name": "newAdmin",
          "type": "address"
        }
      ],
      "name": "AdminChanged",
      "type": "event"
    },
    {
      "anonymous": false,
      "inputs": [
        {
          "indexed": true,
          "internalType": "address",
          "name": "account",
          "type": "address"
        },
        {
          "indexed": true,
          "internalType": "address",
          "name": "operator",
          "type": "address"
        },
        {
          "indexed": false,
          "internalType": "bool",
          "name": "approved",
          "type": "bool"
        }
      ],
      "name": "ApprovalForAll",
      "type": "event"
    },
    {
      "anonymous": false,
      "inputs": [
        {
          "indexed": true,
          "internalType": "address",
          "name": "beacon",
          "type": "address"
        }
      ],
      "name": "BeaconUpgraded",
      "type": "event"
    },
    {
      "anonymous": false,
      "inputs": [
        {
          "indexed": false,
          "internalType": "uint8",
          "name": "version",
          "type": "uint8"
        }
      ],
      "name": "Initialized",
      "type": "event"
    },
    {
      "anonymous": false,
      "inputs": [
        {
          "indexed": true,
          "internalType": "bytes32",
          "name": "signKeccak256",
          "type": "bytes32"
        }
      ],
      "name": "RefundSwapin",
      "type": "event"
    },
    {
      "anonymous": false,
      "inputs": [
        {
          "indexed": true,
          "internalType": "bytes32",
          "name": "role",
          "type": "bytes32"
        },
        {
          "indexed": true,
          "internalType": "bytes32",
          "name": "previousAdminRole",
          "type": "bytes32"
        },
        {
          "indexed": true,
          "internalType": "bytes32",
          "name": "newAdminRole",
          "type": "bytes32"
        }
      ],
      "name": "RoleAdminChanged",
      "type": "event"
    },
    {
      "anonymous": false,
      "inputs": [
        {
          "indexed": true,
          "internalType": "bytes32",
          "name": "role",
          "type": "bytes32"
        },
        {
          "indexed": true,
          "internalType": "address",
          "name": "account",
          "type": "address"
        },
        {
          "indexed": true,
          "internalType": "address",
          "name": "sender",
          "type": "address"
        }
      ],
      "name": "RoleGranted",
      "type": "event"
    },
    {
      "anonymous": false,
      "inputs": [
        {
          "indexed": true,
          "internalType": "bytes32",
          "name": "role",
          "type": "bytes32"
        },
        {
          "indexed": true,
          "internalType": "address",
          "name": "account",
          "type": "address"
        },
        {
          "indexed": true,
          "internalType": "address",
          "name": "sender",
          "type": "address"
        }
      ],
      "name": "RoleRevoked",
      "type": "event"
    },
    {
      "anonymous": false,
      "inputs": [
        {
          "indexed": true,
          "internalType": "bytes32",
          "name": "signKeccak256",
          "type": "bytes32"
        },
        {
          "indexed": false,
          "internalType": "address",
          "name": "to",
          "type": "address"
        },
        {
          "indexed": false,
          "internalType": "uint256",
          "name": "cid",
          "type": "uint256"
        },
        {
          "indexed": false,
          "internalType": "uint256",
          "name": "value",
          "type": "uint256"
        }
      ],
      "name": "SwapinWithCID",
      "type": "event"
    },
    {
      "anonymous": false,
      "inputs": [
        {
          "indexed": true,
          "internalType": "address",
          "name": "to",
          "type": "address"
        },
        {
          "indexed": false,
          "internalType": "uint256",
          "name": "cid",
          "type": "uint256"
        },
        {
          "indexed": false,
          "internalType": "uint256",
          "name": "value",
          "type": "uint256"
        }
      ],
      "name": "SwapoutWithCID",
      "type": "event"
    },
    {
      "anonymous": false,
      "inputs": [
        {
          "indexed": true,
          "internalType": "address",
          "name": "operator",
          "type": "address"
        },
        {
          "indexed": true,
          "internalType": "address",
          "name": "from",
          "type": "address"
        },
        {
          "indexed": true,
          "internalType": "address",
          "name": "to",
          "type": "address"
        },
        {
          "indexed": false,
          "internalType": "uint256[]",
          "name": "ids",
          "type": "uint256[]"
        },
        {
          "indexed": false,
          "internalType": "uint256[]",
          "name": "values",
          "type": "uint256[]"
        }
      ],
      "name": "TransferBatch",
      "type": "event"
    },
    {
      "anonymous": false,
      "inputs": [
        {
          "indexed": true,
          "internalType": "address",
          "name": "operator",
          "type": "address"
        },
        {
          "indexed": true,
          "internalType": "address",
          "name": "from",
          "type": "address"
        },
        {
          "indexed": true,
          "internalType": "address",
          "name": "to",
          "type": "address"
        },
        {
          "indexed": false,
          "internalType": "uint256",
          "name": "id",
          "type": "uint256"
        },
        {
          "indexed": false,
          "internalType": "uint256",
          "name": "value",
          "type": "uint256"
        }
      ],
      "name": "TransferSingle",
      "type": "event"
    },
    {
      "anonymous": false,
      "inputs": [
        {
          "indexed": false,
          "internalType": "string",
          "name": "value",
          "type": "string"
        },
        {
          "indexed": true,
          "internalType": "uint256",
          "name": "id",
          "type": "uint256"
        }
      ],
      "name": "URI",
      "type": "event"
    },
    {
      "anonymous": false,
      "inputs": [
        {
          "indexed": true,
          "internalType": "address",
          "name": "implementation",
          "type": "address"
        }
      ],
      "name": "Upgraded",
      "type": "event"
    },
    {
      "inputs": [],
      "name": "DEFAULT_ADMIN_ROLE",
      "outputs": [
        {
          "internalType": "bytes32",
          "name": "",
          "type": "bytes32"
        }
      ],
      "stateMutability": "view",
      "type": "function"
    },
    {
      "inputs": [],
      "name": "DOMAIN_SEPARATOR",
      "outputs": [
        {
          "internalType": "bytes32",
          "name": "",
          "type": "bytes32"
        }
      ],
      "stateMutability": "view",
      "type": "function"
    },
    {
      "inputs": [],
      "name": "GM_ROLE",
      "outputs": [
        {
          "internalType": "bytes32",
          "name": "",
          "type": "bytes32"
        }
      ],
      "stateMutability": "view",
      "type": "function"
    },
    {
      "inputs": [],
      "name": "MINTER_ROLE",
      "outputs": [
        {
          "internalType": "bytes32",
          "name": "",
          "type": "bytes32"
        }
      ],
      "stateMutability": "view",
      "type": "function"
    },
    {
      "inputs": [],
      "name": "UPGRADER_ROLE",
      "outputs": [
        {
          "internalType": "bytes32",
          "name": "",
          "type": "bytes32"
        }
      ],
      "stateMutability": "view",
      "type": "function"
    },
    {
      "inputs": [
        {
          "internalType": "address",
          "name": "account",
          "type": "address"
        },
        {
          "internalType": "uint256",
          "name": "id",
          "type": "uint256"
        }
      ],
      "name": "balanceOf",
      "outputs": [
        {
          "internalType": "uint256",
          "name": "",
          "type": "uint256"
        }
      ],
      "stateMutability": "view",
      "type": "function"
    },
    {
      "inputs": [
        {
          "internalType": "address[]",
          "name": "accounts",
          "type": "address[]"
        },
        {
          "internalType": "uint256[]",
          "name": "ids",
          "type": "uint256[]"
        }
      ],
      "name": "balanceOfBatch",
      "outputs": [
        {
          "internalType": "uint256[]",
          "name": "",
          "type": "uint256[]"
        }
      ],
      "stateMutability": "view",
      "type": "function"
    },
    {
      "inputs": [
        {
          "internalType": "bytes32",
          "name": "role",
          "type": "bytes32"
        }
      ],
      "name": "getRoleAdmin",
      "outputs": [
        {
          "internalType": "bytes32",
          "name": "",
          "type": "bytes32"
        }
      ],
      "stateMutability": "view",
      "type": "function"
    },
    {
      "inputs": [
        {
          "internalType": "bytes32",
          "name": "role",
          "type": "bytes32"
        },
        {
          "internalType": "address",
          "name": "account",
          "type": "address"
        }
      ],
      "name": "grantRole",
      "outputs": [],
      "stateMutability": "nonpayable",
      "type": "function"
    },
    {
      "inputs": [
        {
          "internalType": "bytes32",
          "name": "role",
          "type": "bytes32"
        },
        {
          "internalType": "address",
          "name": "account",
          "type": "address"
        }
      ],
      "name": "hasRole",
      "outputs": [
        {
          "internalType": "bool",
          "name": "",
          "type": "bool"
        }
      ],
      "stateMutability": "view",
      "type": "function"
    },
    {
      "inputs": [
        {
          "internalType": "uint256",
          "name": "",
          "type": "uint256"
        }
      ],
      "name": "holders",
      "outputs": [
        {
          "internalType": "address",
          "name": "",
          "type": "address"
        }
      ],
      "stateMutability": "view",
      "type": "function"
    },
    {
      "inputs": [
        {
          "internalType": "address",
          "name": "account",
          "type": "address"
        },
        {
          "internalType": "address",
          "name": "operator",
          "type": "address"
        }
      ],
      "name": "isApprovedForAll",
      "outputs": [
        {
          "internalType": "bool",
          "name": "",
          "type": "bool"
        }
      ],
      "stateMutability": "view",
      "type": "function"
    },
    {
      "inputs": [
        {
          "internalType": "address",
          "name": "",
          "type": "address"
        }
      ],
      "name": "isHolder",
      "outputs": [
        {
          "internalType": "bool",
          "name": "",
          "type": "bool"
        }
      ],
      "stateMutability": "view",
      "type": "function"
    },
    {
      "inputs": [
        {
          "internalType": "address",
          "name": "forwarder",
          "type": "address"
        }
      ],
      "name": "isTrustedForwarder",
      "outputs": [
        {
          "internalType": "bool",
          "name": "",
          "type": "bool"
        }
      ],
      "stateMutability": "view",
      "type": "function"
    },
    {
      "inputs": [],
      "name": "proxiableUUID",
      "outputs": [
        {
          "internalType": "bytes32",
          "name": "",
          "type": "bytes32"
        }
      ],
      "stateMutability": "view",
      "type": "function"
    },
    {
      "inputs": [
        {
          "internalType": "bytes32",
          "name": "role",
          "type": "bytes32"
        },
        {
          "internalType": "address",
          "name": "account",
          "type": "address"
        }
      ],
      "name": "renounceRole",
      "outputs": [],
      "stateMutability": "nonpayable",
      "type": "function"
    },
    {
      "inputs": [
        {
          "internalType": "bytes32",
          "name": "role",
          "type": "bytes32"
        },
        {
          "internalType": "address",
          "name": "account",
          "type": "address"
        }
      ],
      "name": "revokeRole",
      "outputs": [],
      "stateMutability": "nonpayable",
      "type": "function"
    },
    {
      "inputs": [
        {
          "internalType": "address",
          "name": "from",
          "type": "address"
        },
        {
          "internalType": "address",
          "name": "to",
          "type": "address"
        },
        {
          "internalType": "uint256[]",
          "name": "ids",
          "type": "uint256[]"
        },
        {
          "internalType": "uint256[]",
          "name": "amounts",
          "type": "uint256[]"
        },
        {
          "internalType": "bytes",
          "name": "data",
          "type": "bytes"
        }
      ],
      "name": "safeBatchTransferFrom",
      "outputs": [],
      "stateMutability": "nonpayable",
      "type": "function"
    },
    {
      "inputs": [
        {
          "internalType": "address",
          "name": "from",
          "type": "address"
        },
        {
          "internalType": "address",
          "name": "to",
          "type": "address"
        },
        {
          "internalType": "uint256",
          "name": "id",
          "type": "uint256"
        },
        {
          "internalType": "uint256",
          "name": "amount",
          "type": "uint256"
        },
        {
          "internalType": "bytes",
          "name": "data",
          "type": "bytes"
        }
      ],
      "name": "safeTransferFrom",
      "outputs": [],
      "stateMutability": "nonpayable",
      "type": "function"
    },
    {
      "inputs": [
        {
          "internalType": "address",
          "name": "operator",
          "type": "address"
        },
        {
          "internalType": "bool",
          "name": "approved",
          "type": "bool"
        }
      ],
      "name": "setApprovalForAll",
      "outputs": [],
      "stateMutability": "nonpayable",
      "type": "function"
    },
    {
      "inputs": [
        {
          "internalType": "address",
          "name": "newImplementation",
          "type": "address"
        }
      ],
      "name": "upgradeTo",
      "outputs": [],
      "stateMutability": "nonpayable",
      "type": "function"
    },
    {
      "inputs": [
        {
          "internalType": "address",
          "name": "newImplementation",
          "type": "address"
        },
        {
          "internalType": "bytes",
          "name": "data",
          "type": "bytes"
        }
      ],
      "name": "upgradeToAndCall",
      "outputs": [],
      "stateMutability": "payable",
      "type": "function"
    },
    {
      "inputs": [
        {
          "internalType": "uint256",
          "name": "",
          "type": "uint256"
        }
      ],
      "name": "uri",
      "outputs": [
        {
          "internalType": "string",
          "name": "",
          "type": "string"
        }
      ],
      "stateMutability": "view",
      "type": "function"
    },
    {
      "inputs": [
        {
          "internalType": "address",
          "name": "mpc",
          "type": "address"
        }
      ],
      "name": "initialize",
      "outputs": [],
      "stateMutability": "nonpayable",
      "type": "function"
    },
    {
      "inputs": [
        {
          "internalType": "address",
          "name": "from",
          "type": "address"
        }
      ],
      "name": "getNonce",
      "outputs": [
        {
          "internalType": "uint256",
          "name": "",
          "type": "uint256"
        }
      ],
      "stateMutability": "view",
      "type": "function"
    },
    {
      "inputs": [
        {
          "internalType": "bytes4",
          "name": "interfaceId",
          "type": "bytes4"
        }
      ],
      "name": "supportsInterface",
      "outputs": [
        {
          "internalType": "bool",
          "name": "",
          "type": "bool"
        }
      ],
      "stateMutability": "view",
      "type": "function"
    },
    {
      "inputs": [
        {
          "internalType": "address",
          "name": "holder",
          "type": "address"
        }
      ],
      "name": "addHolder",
      "outputs": [],
      "stateMutability": "nonpayable",
      "type": "function"
    },
    {
      "inputs": [
        {
          "internalType": "address",
          "name": "to",
          "type": "address"
        },
        {
          "internalType": "uint256",
          "name": "cid",
          "type": "uint256"
        },
        {
          "internalType": "uint256",
          "name": "value",
          "type": "uint256"
        }
      ],
      "name": "callSwapoutWithCID",
      "outputs": [],
      "stateMutability": "nonpayable",
      "type": "function"
    },
    {
      "inputs": [
        {
          "components": [
            {
              "internalType": "address",
              "name": "from",
              "type": "address"
            },
            {
              "internalType": "address",
              "name": "to",
              "type": "address"
            },
            {
              "internalType": "uint256",
              "name": "cid",
              "type": "uint256"
            },
            {
              "internalType": "uint256",
              "name": "value",
              "type": "uint256"
            },
            {
              "internalType": "uint256",
              "name": "nonce",
              "type": "uint256"
            },
            {
              "internalType": "bytes",
              "name": "data",
              "type": "bytes"
            }
          ],
          "internalType": "struct IMelandChainERC1155CID.SwapinParams",
          "name": "swapinparams",
          "type": "tuple"
        },
        {
          "internalType": "bytes",
          "name": "signature",
          "type": "bytes"
        }
      ],
      "name": "verify",
      "outputs": [
        {
          "internalType": "bool",
          "name": "",
          "type": "bool"
        }
      ],
      "stateMutability": "view",
      "type": "function"
    },
    {
      "inputs": [
        {
          "internalType": "bytes",
          "name": "signature",
          "type": "bytes"
        },
        {
          "components": [
            {
              "internalType": "address",
              "name": "from",
              "type": "address"
            },
            {
              "internalType": "address",
              "name": "to",
              "type": "address"
            },
            {
              "internalType": "uint256",
              "name": "cid",
              "type": "uint256"
            },
            {
              "internalType": "uint256",
              "name": "value",
              "type": "uint256"
            },
            {
              "internalType": "uint256",
              "name": "nonce",
              "type": "uint256"
            },
            {
              "internalType": "bytes",
              "name": "data",
              "type": "bytes"
            }
          ],
          "internalType": "struct IMelandChainERC1155CID.SwapinParams",
          "name": "swapinparams",
          "type": "tuple"
        }
      ],
      "name": "callSwapinWithCID",
      "outputs": [],
      "stateMutability": "nonpayable",
      "type": "function"
    },
    {
      "inputs": [
        {
          "internalType": "uint256",
          "name": "tokenId",
          "type": "uint256"
        }
      ],
      "name": "getCidByTokenId",
      "outputs": [
        {
          "internalType": "uint256",
          "name": "",
          "type": "uint256"
        }
      ],
      "stateMutability": "pure",
      "type": "function"
    }
  ],
  "bytecode": "0x60e0604052306080523480156200001557600080fd5b50604051620038c7380380620038c78339810160408190526200003891620000bf565b6001600160a01b0380831660a052811660c08190526200009e5760405162461bcd60e51b815260206004820152601760248201527f5377617020666163746f7279206973206e6f7420736574000000000000000000604482015260640160405180910390fd5b5050620000fe565b6001600160a01b0381168114620000bc57600080fd5b50565b60008060408385031215620000d357600080fd5b8251620000e081620000a6565b6020840151909250620000f381620000a6565b809150509250929050565b60805160a05160c05161376f6200015860003960008181611e6401526126900152600081816104670152611dd40152600081816109ee01528181610a2e01528181610bf701528181610c370152610cc6015261376f6000f3fe6080604052600436106101d75760003560e01c806352d1902d11610102578063bf5d3bdb11610095578063d547741f11610064578063d547741f146105f1578063e985e9c514610611578063f242432a1461065a578063f72c0d8b1461067a57600080fd5b8063bf5d3bdb1461054c578063c4d66de81461056c578063d4d7b19a1461058c578063d5391393146105bd57600080fd5b8063a22cb465116100d1578063a22cb465146104cc578063aa21bfaa146104ec578063ac1e17df1461050c578063b07d8b721461052c57600080fd5b806352d1902d14610435578063572b6c051461044a57806391d1485414610497578063a217fddf146104b757600080fd5b80632f2ff15d1161017a5780633659cfe6116101495780633659cfe6146103b75780633ef780bc146103d75780634e1273f4146103f55780634f1ef2861461042257600080fd5b80632f2ff15d1461032d57806330c7be2c1461034d5780633644e5151461038157806336568abe1461039757600080fd5b8063248a9ca3116101b6578063248a9ca31461026c5780632a11ced01461029c5780632d0335ab146102d45780632eb2c2d61461030b57600080fd5b8062fdd58e146101dc57806301ffc9a71461020f5780630e89341c1461023f575b600080fd5b3480156101e857600080fd5b506101fc6101f7366004612a29565b6106ae565b6040519081526020015b60405180910390f35b34801561021b57600080fd5b5061022f61022a366004612a69565b610747565b6040519015158152602001610206565b34801561024b57600080fd5b5061025f61025a366004612a86565b6107c3565b6040516102069190612af7565b34801561027857600080fd5b506101fc610287366004612a86565b60009081526065602052604090206001015490565b3480156102a857600080fd5b506102bc6102b7366004612a86565b610857565b6040516001600160a01b039091168152602001610206565b3480156102e057600080fd5b506101fc6102ef366004612b0a565b6001600160a01b03166000908152610196602052604090205490565b34801561031757600080fd5b5061032b610326366004612c6e565b610882565b005b34801561033957600080fd5b5061032b610348366004612d17565b61092b565b34801561035957600080fd5b506101fc7ff5eb84615c2a00ecaf817d13794ebd6299c9e01c395bf4018453f13f577f544981565b34801561038d57600080fd5b506101fc60975481565b3480156103a357600080fd5b5061032b6103b2366004612d17565b610955565b3480156103c357600080fd5b5061032b6103d2366004612b0a565b6109e3565b3480156103e357600080fd5b506101fc6103f2366004612a86565b90565b34801561040157600080fd5b50610415610410366004612d43565b610ac3565b6040516102069190612e48565b61032b610430366004612e5b565b610bec565b34801561044157600080fd5b506101fc610cb9565b34801561045657600080fd5b5061022f610465366004612b0a565b7f00000000000000000000000000000000000000000000000000000000000000006001600160a01b0390811691161490565b3480156104a357600080fd5b5061022f6104b2366004612d17565b610d6c565b3480156104c357600080fd5b506101fc600081565b3480156104d857600080fd5b5061032b6104e7366004612eac565b610d97565b3480156104f857600080fd5b5061032b610507366004612fc8565b610da9565b34801561051857600080fd5b5061032b610527366004612b0a565b611023565b34801561053857600080fd5b5061032b610547366004613030565b6110dc565b34801561055857600080fd5b5061022f610567366004613063565b6110fa565b34801561057857600080fd5b5061032b610587366004612b0a565b61110c565b34801561059857600080fd5b5061022f6105a7366004612b0a565b6101946020526000908152604090205460ff1681565b3480156105c957600080fd5b506101fc7f9f2df0fed2c77648de5860a4cc508cd0818c85b8b8a1ab4ceeef8d981c8956a681565b3480156105fd57600080fd5b5061032b61060c366004612d17565b6111da565b34801561061d57600080fd5b5061022f61062c3660046130cb565b6001600160a01b03918216600090815260996020908152604080832093909416825291909152205460ff1690565b34801561066657600080fd5b5061032b6106753660046130f5565b6111ff565b34801561068657600080fd5b506101fc7f189ab7a9244df0848122154315af71fe140f3db0fe014031783b0946b8c9d2e381565b60006001600160a01b03831661071f5760405162461bcd60e51b815260206004820152602b60248201527f455243313135353a2062616c616e636520717565727920666f7220746865207a60448201526a65726f206164647265737360a81b60648201526084015b60405180910390fd5b5060009081526098602090815260408083206001600160a01b03949094168352929052205490565b60006001600160e01b03198216636cdb3d1360e11b148061077857506001600160e01b031982166303a24d0760e21b145b8061079357506001600160e01b03198216630fbde02f60e21b145b806107ae57506001600160e01b0319821663034b869b60e31b145b806107bd57506107bd82611298565b92915050565b6060609a80546107d290613159565b80601f01602080910402602001604051908101604052809291908181526020018280546107fe90613159565b801561084b5780601f106108205761010080835404028352916020019161084b565b820191906000526020600020905b81548152906001019060200180831161082e57829003601f168201915b50505050509050919050565b610195818154811061086857600080fd5b6000918252602090912001546001600160a01b0316905081565b61088a6112d8565b6001600160a01b0316856001600160a01b031614806108b057506108b08561062c6112d8565b6109175760405162461bcd60e51b815260206004820152603260248201527f455243313135353a207472616e736665722063616c6c6572206973206e6f74206044820152711bdddb995c881b9bdc88185c1c1c9bdd995960721b6064820152608401610716565b61092485858585856112e7565b5050505050565b600082815260656020526040902060010154610946816114e6565b61095083836114f7565b505050565b61095d6112d8565b6001600160a01b0316816001600160a01b0316146109d55760405162461bcd60e51b815260206004820152602f60248201527f416363657373436f6e74726f6c3a2063616e206f6e6c792072656e6f756e636560448201526e103937b632b9903337b91039b2b63360891b6064820152608401610716565b6109df828261157e565b5050565b306001600160a01b037f0000000000000000000000000000000000000000000000000000000000000000161415610a2c5760405162461bcd60e51b815260040161071690613194565b7f00000000000000000000000000000000000000000000000000000000000000006001600160a01b0316610a756000805160206136f3833981519152546001600160a01b031690565b6001600160a01b031614610a9b5760405162461bcd60e51b8152600401610716906131e0565b610aa481611603565b60408051600080825260208201909252610ac09183919061162d565b50565b60608151835114610b285760405162461bcd60e51b815260206004820152602960248201527f455243313135353a206163636f756e747320616e6420696473206c656e677468604482015268040dad2e6dac2e8c6d60bb1b6064820152608401610716565b600083516001600160401b03811115610b4357610b43612b25565b604051908082528060200260200182016040528015610b6c578160200160208202803683370190505b50905060005b8451811015610be457610bb7858281518110610b9057610b9061322c565b6020026020010151858381518110610baa57610baa61322c565b60200260200101516106ae565b828281518110610bc957610bc961322c565b6020908102919091010152610bdd81613258565b9050610b72565b509392505050565b306001600160a01b037f0000000000000000000000000000000000000000000000000000000000000000161415610c355760405162461bcd60e51b815260040161071690613194565b7f00000000000000000000000000000000000000000000000000000000000000006001600160a01b0316610c7e6000805160206136f3833981519152546001600160a01b031690565b6001600160a01b031614610ca45760405162461bcd60e51b8152600401610716906131e0565b610cad82611603565b6109df8282600161162d565b6000306001600160a01b037f00000000000000000000000000000000000000000000000000000000000000001614610d595760405162461bcd60e51b815260206004820152603860248201527f555550535570677261646561626c653a206d757374206e6f742062652063616c60448201527f6c6564207468726f7567682064656c656761746563616c6c00000000000000006064820152608401610716565b506000805160206136f383398151915290565b60009182526065602090815260408084206001600160a01b0393909316845291905290205460ff1690565b6109df610da26112d8565b83836117a7565b610db48184846110fa565b610e345760405162461bcd60e51b815260206004820152604560248201527f4d656c616e642e61692e4d656c616e64436861696e455243313135352363616c60448201527f6c53776170696e57697468546f6b656e49643a20496e76616c6964207369676e606482015264617475726560d81b608482015260a401610716565b6080810151610e44906001613273565b81516001600160a01b031660009081526101966020526040812091909155610e6c8484611888565b9050600060019050610e9583600001518460200151856040015186606001518760a001516118aa565b8015610f0457817f77d2051d61801046ee26f37a3676175052464d74691a17a1599be1cfc33b3cb4846020015185604001518660600151604051610ef7939291906001600160a01b039390931683526020830191909152604082015260600190565b60405180910390a2610f30565b60405182907f13209c0f35b838fc09b954da39cf644f270717a40f849eb51230f03d3ab0993f90600090a25b33803b15158015610fba57506040516301ffc9a760e01b8152633ec5c3f360e21b60048201526001600160a01b038216906301ffc9a79060240160206040518083038186803b158015610f8257600080fd5b505afa158015610f96573d6000803e3d6000fd5b505050506040513d601f19601f82011682018060405250810190610fba919061328b565b1561101b57604051633ec5c3f360e21b815282151560048201526001600160a01b0382169063fb170fcc90602401600060405180830381600087803b15801561100257600080fd5b505af1158015611016573d6000803e3d6000fd5b505050505b505050505050565b7ff5eb84615c2a00ecaf817d13794ebd6299c9e01c395bf4018453f13f577f544961104d816114e6565b6001600160a01b0382166000908152610194602052604090205460ff1615611073575050565b506001600160a01b0316600081815261019460205260408120805460ff19166001908117909155610195805491820181559091527f54034dca961b61bc2a3147cc0c1986762915b42723ed64155364f17a2e2967700180546001600160a01b0319169091179055565b60006110e66112d8565b90506110f4818585856119bb565b50505050565b6001611105565b9150505b9392505050565b60006111186001611a10565b90508015611130576000805461ff0019166101001790555b61113982611a9d565b611141611bfe565b6111916040518060400160405280601581526020017413595b185b9910da185a5b915490cc4c4d4d50d251605a1b815250604051806040016040528060018152602001603160f81b815250611c27565b80156109df576000805461ff0019169055604051600181527f7f26b83ff96e1f2b6a682f133852f6798a09c465da95921460cefb38474024989060200160405180910390a15050565b6000828152606560205260409020600101546111f5816114e6565b610950838361157e565b6112076112d8565b6001600160a01b0316856001600160a01b0316148061122d575061122d8561062c6112d8565b61128b5760405162461bcd60e51b815260206004820152602960248201527f455243313135353a2063616c6c6572206973206e6f74206f776e6572206e6f7260448201526808185c1c1c9bdd995960ba1b6064820152608401610716565b6109248585858585611c58565b60006001600160e01b03198216636cdb3d1360e11b14806112c957506001600160e01b031982166303a24d0760e21b145b806107bd57506107bd82611d9b565b60006112e2611dd0565b905090565b81518351146113495760405162461bcd60e51b815260206004820152602860248201527f455243313135353a2069647320616e6420616d6f756e7473206c656e677468206044820152670dad2e6dac2e8c6d60c31b6064820152608401610716565b6001600160a01b03841661136f5760405162461bcd60e51b8152600401610716906132a8565b60006113796112d8565b9050611389818787878787611e15565b60005b84518110156114725760008582815181106113a9576113a961322c565b6020026020010151905060008583815181106113c7576113c761322c565b60209081029190910181015160008481526098835260408082206001600160a01b038e1683529093529190912054909150818110156114185760405162461bcd60e51b8152600401610716906132ed565b60008381526098602090815260408083206001600160a01b038e8116855292528083208585039055908b16825281208054849290611457908490613273565b925050819055505050508061146b90613258565b905061138c565b50846001600160a01b0316866001600160a01b0316826001600160a01b03167f4a39dc06d4c0dbc64b70af90fd698a233a518aa5d07e595d983b8c0526c8f7fb87876040516114c2929190613337565b60405180910390a46114d8818787878787611f49565b61101b818787878787611fcf565b610ac0816114f26112d8565b61213a565b6115018282610d6c565b6109df5760008281526065602090815260408083206001600160a01b03851684529091529020805460ff1916600117905561153a6112d8565b6001600160a01b0316816001600160a01b0316837f2f8788117e7eff1d82e926ec794901d17c78024a50270940304540a733656f0d60405160405180910390a45050565b6115888282610d6c565b156109df5760008281526065602090815260408083206001600160a01b03851684529091529020805460ff191690556115bf6112d8565b6001600160a01b0316816001600160a01b0316837ff6391f5c32d9c69d2a47ea670b442974b53935d1edc7fd64eb21e047a839171b60405160405180910390a45050565b7f189ab7a9244df0848122154315af71fe140f3db0fe014031783b0946b8c9d2e36109df816114e6565b7f4910fdfa16fed3260ed0e7147f7cc6da11a60208b5b9406d12a635614ffd91435460ff1615611660576109508361219e565b826001600160a01b03166352d1902d6040518163ffffffff1660e01b815260040160206040518083038186803b15801561169957600080fd5b505afa9250505080156116c9575060408051601f3d908101601f191682019092526116c69181019061335c565b60015b61172c5760405162461bcd60e51b815260206004820152602e60248201527f45524331393637557067726164653a206e657720696d706c656d656e7461746960448201526d6f6e206973206e6f74205555505360901b6064820152608401610716565b6000805160206136f3833981519152811461179b5760405162461bcd60e51b815260206004820152602960248201527f45524331393637557067726164653a20756e737570706f727465642070726f786044820152681a58589b195555525160ba1b6064820152608401610716565b5061095083838361223a565b816001600160a01b0316836001600160a01b0316141561181b5760405162461bcd60e51b815260206004820152602960248201527f455243313135353a2073657474696e6720617070726f76616c20737461747573604482015268103337b91039b2b63360b91b6064820152608401610716565b6001600160a01b03838116600081815260996020908152604080832094871680845294825291829020805460ff191686151590811790915591519182527f17307eab39ab6107e8899845ad3d59bd9653f200f220920489ca2b5937696c31910160405180910390a3505050565b6000828260405161189a929190613375565b6040518091039020905092915050565b6001600160a01b0384166118d05760405162461bcd60e51b815260040161071690613385565b836001600160a01b0316856001600160a01b031614156118ef57600094505b60006118f96112d8565b905060006119068561225f565b905060006119138561225f565b9050611923838989858589611e15565b60008681526098602090815260408083206001600160a01b038b16845290915281208054879290611955908490613273565b909155505060408051878152602081018790526001600160a01b03808a16928b821692918716916000805160206136d3833981519152910160405180910390a46119a3838989858589611f49565b6119b18389898989896122aa565b5050505050505050565b6119c6848383612374565b60408051838152602081018390526001600160a01b038516917f4f9d7b3a312c5863548705185c993b332e99b9e30cbc3fc3f7abcc9345d16af8910160405180910390a250505050565b60008054610100900460ff1615611a57578160ff166001148015611a335750303b155b611a4f5760405162461bcd60e51b8152600401610716906133c6565b506000919050565b60005460ff808416911610611a7e5760405162461bcd60e51b8152600401610716906133c6565b506000805460ff191660ff92909216919091179055600190565b919050565b611aa5611bfe565b611ab06000826114f7565b611ada7ff5eb84615c2a00ecaf817d13794ebd6299c9e01c395bf4018453f13f577f5449826114f7565b611b047f9f2df0fed2c77648de5860a4cc508cd0818c85b8b8a1ab4ceeef8d981c8956a6826114f7565b611b2e7f189ab7a9244df0848122154315af71fe140f3db0fe014031783b0946b8c9d2e3336114f7565b5060408051808201825260068152651b595b185b9960d21b6020918201528151808301835260018152603160f81b9082015281517f8b73c3c69bb8fe3d512ecc4cf759cc79239f7b179b0ffacaa9a75d522b39400f818301527f314ed1331a8d68d6e7c652158abe27c46bf91bd45ef86ab66f92d6500b1056eb818401527fc89efdaa54c0f20c7adf612882df0950f5a951637e0307cdcb4c672f298b8bc660608201524660808201523060a0808301919091528351808303909101815260c09091019092528151910120609755565b600054610100900460ff16611c255760405162461bcd60e51b815260040161071690613414565b565b600054610100900460ff16611c4e5760405162461bcd60e51b815260040161071690613414565b6109df8282612512565b6001600160a01b038416611c7e5760405162461bcd60e51b8152600401610716906132a8565b6000611c886112d8565b90506000611c958561225f565b90506000611ca28561225f565b9050611cb2838989858589611e15565b60008681526098602090815260408083206001600160a01b038c16845290915290205485811015611cf55760405162461bcd60e51b8152600401610716906132ed565b60008781526098602090815260408083206001600160a01b038d8116855292528083208985039055908a16825281208054889290611d34908490613273565b909155505060408051888152602081018890526001600160a01b03808b16928c821692918816916000805160206136d3833981519152910160405180910390a4611d82848a8a86868a611f49565b611d90848a8a8a8a8a6122aa565b505050505050505050565b60006001600160e01b03198216637965db0b60e01b14806107bd57506301ffc9a760e01b6001600160e01b03198316146107bd565b60007f00000000000000000000000000000000000000000000000000000000000000006001600160a01b0316331415611e10575060131936013560601c90565b503390565b611e3f7f9f2df0fed2c77648de5860a4cc508cd0818c85b8b8a1ab4ceeef8d981c8956a686610d6c565b80611ede5750604051635b16ebb760e01b81526001600160a01b0386811660048301527f00000000000000000000000000000000000000000000000000000000000000001690635b16ebb79060240160206040518083038186803b158015611ea657600080fd5b505afa158015611eba573d6000803e3d6000fd5b505050506040513d601f19601f82011682018060405250810190611ede919061328b565b1561101b5760005b8351811015611f4057611f2e8687868481518110611f0657611f0661322c565b6020026020010151868581518110611f2057611f2061322c565b602002602001015186612555565b80611f3881613258565b915050611ee6565b50505050505050565b6001600160a01b03841615801590611f675750611f658461264e565b155b15611fca5760005b8351811015611fc857611fb68586868481518110611f8f57611f8f61322c565b6020026020010151868581518110611fa957611fa961322c565b60200260200101516119bb565b80611fc081613258565b915050611f6f565b505b61101b565b6001600160a01b0384163b1561101b5760405163bc197c8160e01b81526001600160a01b0385169063bc197c8190612013908990899088908890889060040161345f565b602060405180830381600087803b15801561202d57600080fd5b505af192505050801561205d575060408051601f3d908101601f1916820190925261205a918101906134bd565b60015b61210a576120696134da565b806308c379a014156120a3575061207e6134f5565b8061208957506120a5565b8060405162461bcd60e51b81526004016107169190612af7565b505b60405162461bcd60e51b815260206004820152603460248201527f455243313135353a207472616e7366657220746f206e6f6e20455243313135356044820152732932b1b2b4bb32b91034b6b83632b6b2b73a32b960611b6064820152608401610716565b6001600160e01b0319811663bc197c8160e01b14611f405760405162461bcd60e51b81526004016107169061357e565b6121448282610d6c565b6109df5761215c816001600160a01b0316601461270a565b61216783602061270a565b6040516020016121789291906135c6565b60408051601f198184030181529082905262461bcd60e51b825261071691600401612af7565b6001600160a01b0381163b61220b5760405162461bcd60e51b815260206004820152602d60248201527f455243313936373a206e657720696d706c656d656e746174696f6e206973206e60448201526c1bdd08184818dbdb9d1c9858dd609a1b6064820152608401610716565b6000805160206136f383398151915280546001600160a01b0319166001600160a01b0392909216919091179055565b612243836128a5565b6000825111806122505750805b15610950576110f483836128e5565b604080516001808252818301909252606091600091906020808301908036833701905050905082816000815181106122995761229961322c565b602090810291909101015292915050565b6001600160a01b0384163b1561101b5760405163f23a6e6160e01b81526001600160a01b0385169063f23a6e61906122ee908990899088908890889060040161363b565b602060405180830381600087803b15801561230857600080fd5b505af1925050508015612338575060408051601f3d908101601f19168201909252612335918101906134bd565b60015b612344576120696134da565b6001600160e01b0319811663f23a6e6160e01b14611f405760405162461bcd60e51b81526004016107169061357e565b6001600160a01b0383166123d65760405162461bcd60e51b815260206004820152602360248201527f455243313135353a206275726e2066726f6d20746865207a65726f206164647260448201526265737360e81b6064820152608401610716565b60006123e06112d8565b905060006123ed8461225f565b905060006123fa8461225f565b905061241a83876000858560405180602001604052806000815250611e15565b60008581526098602090815260408083206001600160a01b038a168452909152902054848110156124995760405162461bcd60e51b8152602060048201526024808201527f455243313135353a206275726e20616d6f756e7420657863656564732062616c604482015263616e636560e01b6064820152608401610716565b60008681526098602090815260408083206001600160a01b038b81168086529184528285208a8703905582518b81529384018a90529092908816916000805160206136d3833981519152910160405180910390a4611f4084886000868660405180602001604052806000815250611f49565b9250929050565b600054610100900460ff166125395760405162461bcd60e51b815260040161071690613414565b81516020928301208151919092012061012e9190915561012f55565b6001600160a01b03841661257b5760405162461bcd60e51b815260040161071690613385565b836001600160a01b0316856001600160a01b0316141561259a57600094505b60006125a46112d8565b905060006125b18561225f565b905060006125be8561225f565b90506125ce838989858589611e15565b60008681526098602090815260408083206001600160a01b038b16845290915281208054879290612600908490613273565b909155505060408051878152602081018790526001600160a01b03808a16928b821692918716916000805160206136d3833981519152910160405180910390a46119b1838989858589611f49565b6001600160a01b0381166000908152610194602052604081205460ff16806107bd5750604051635b16ebb760e01b81526001600160a01b0383811660048301527f00000000000000000000000000000000000000000000000000000000000000001690635b16ebb79060240160206040518083038186803b1580156126d257600080fd5b505afa1580156126e6573d6000803e3d6000fd5b505050506040513d601f19601f820116820180604052508101906107bd919061328b565b60606000612719836002613680565b612724906002613273565b6001600160401b0381111561273b5761273b612b25565b6040519080825280601f01601f191660200182016040528015612765576020820181803683370190505b509050600360fc1b816000815181106127805761278061322c565b60200101906001600160f81b031916908160001a905350600f60fb1b816001815181106127af576127af61322c565b60200101906001600160f81b031916908160001a90535060006127d3846002613680565b6127de906001613273565b90505b6001811115612856576f181899199a1a9b1b9c1cb0b131b232b360811b85600f16601081106128125761281261322c565b1a60f81b8282815181106128285761282861322c565b60200101906001600160f81b031916908160001a90535060049490941c9361284f8161369f565b90506127e1565b5083156111055760405162461bcd60e51b815260206004820181905260248201527f537472696e67733a20686578206c656e67746820696e73756666696369656e746044820152606401610716565b6128ae8161219e565b6040516001600160a01b038216907fbc7cd75a20ee27fd9adebab32041f755214dbc6bffa90cc0225b39da2e5c2d3b90600090a250565b60606001600160a01b0383163b61294d5760405162461bcd60e51b815260206004820152602660248201527f416464726573733a2064656c65676174652063616c6c20746f206e6f6e2d636f6044820152651b9d1c9858dd60d21b6064820152608401610716565b600080846001600160a01b03168460405161296891906136b6565b600060405180830381855af49150503d80600081146129a3576040519150601f19603f3d011682016040523d82523d6000602084013e6129a8565b606091505b50915091506129d08282604051806060016040528060278152602001613713602791396129d9565b95945050505050565b606083156129e8575081611105565b8251156129f85782518084602001fd5b8160405162461bcd60e51b81526004016107169190612af7565b80356001600160a01b0381168114611a9857600080fd5b60008060408385031215612a3c57600080fd5b612a4583612a12565b946020939093013593505050565b6001600160e01b031981168114610ac057600080fd5b600060208284031215612a7b57600080fd5b813561110581612a53565b600060208284031215612a9857600080fd5b5035919050565b60005b83811015612aba578181015183820152602001612aa2565b838111156110f45750506000910152565b60008151808452612ae3816020860160208601612a9f565b601f01601f19169290920160200192915050565b6020815260006111056020830184612acb565b600060208284031215612b1c57600080fd5b61110582612a12565b634e487b7160e01b600052604160045260246000fd5b601f8201601f191681016001600160401b0381118282101715612b6057612b60612b25565b6040525050565b60006001600160401b03821115612b8057612b80612b25565b5060051b60200190565b600082601f830112612b9b57600080fd5b81356020612ba882612b67565b604051612bb58282612b3b565b83815260059390931b8501820192828101915086841115612bd557600080fd5b8286015b84811015612bf05780358352918301918301612bd9565b509695505050505050565b600082601f830112612c0c57600080fd5b81356001600160401b03811115612c2557612c25612b25565b604051612c3c601f8301601f191660200182612b3b565b818152846020838601011115612c5157600080fd5b816020850160208301376000918101602001919091529392505050565b600080600080600060a08688031215612c8657600080fd5b612c8f86612a12565b9450612c9d60208701612a12565b935060408601356001600160401b0380821115612cb957600080fd5b612cc589838a01612b8a565b94506060880135915080821115612cdb57600080fd5b612ce789838a01612b8a565b93506080880135915080821115612cfd57600080fd5b50612d0a88828901612bfb565b9150509295509295909350565b60008060408385031215612d2a57600080fd5b82359150612d3a60208401612a12565b90509250929050565b60008060408385031215612d5657600080fd5b82356001600160401b0380821115612d6d57600080fd5b818501915085601f830112612d8157600080fd5b81356020612d8e82612b67565b604051612d9b8282612b3b565b83815260059390931b8501820192828101915089841115612dbb57600080fd5b948201945b83861015612de057612dd186612a12565b82529482019490820190612dc0565b96505086013592505080821115612df657600080fd5b50612e0385828601612b8a565b9150509250929050565b600081518084526020808501945080840160005b83811015612e3d57815187529582019590820190600101612e21565b509495945050505050565b6020815260006111056020830184612e0d565b60008060408385031215612e6e57600080fd5b612e7783612a12565b915060208301356001600160401b03811115612e9257600080fd5b612e0385828601612bfb565b8015158114610ac057600080fd5b60008060408385031215612ebf57600080fd5b612ec883612a12565b91506020830135612ed881612e9e565b809150509250929050565b60008083601f840112612ef557600080fd5b5081356001600160401b03811115612f0c57600080fd5b60208301915083602082850101111561250b57600080fd5b600060c08284031215612f3657600080fd5b60405160c081016001600160401b038282108183111715612f5957612f59612b25565b81604052829350612f6985612a12565b8352612f7760208601612a12565b602084015260408501356040840152606085013560608401526080850135608084015260a0850135915080821115612fae57600080fd5b50612fbb85828601612bfb565b60a0830152505092915050565b600080600060408486031215612fdd57600080fd5b83356001600160401b0380821115612ff457600080fd5b61300087838801612ee3565b9095509350602086013591508082111561301957600080fd5b5061302686828701612f24565b9150509250925092565b60008060006060848603121561304557600080fd5b61304e84612a12565b95602085013595506040909401359392505050565b60008060006040848603121561307857600080fd5b83356001600160401b038082111561308f57600080fd5b61309b87838801612f24565b945060208601359150808211156130b157600080fd5b506130be86828701612ee3565b9497909650939450505050565b600080604083850312156130de57600080fd5b6130e783612a12565b9150612d3a60208401612a12565b600080600080600060a0868803121561310d57600080fd5b61311686612a12565b945061312460208701612a12565b9350604086013592506060860135915060808601356001600160401b0381111561314d57600080fd5b612d0a88828901612bfb565b600181811c9082168061316d57607f821691505b6020821081141561318e57634e487b7160e01b600052602260045260246000fd5b50919050565b6020808252602c908201527f46756e6374696f6e206d7573742062652063616c6c6564207468726f7567682060408201526b19195b1959d85d1958d85b1b60a21b606082015260800190565b6020808252602c908201527f46756e6374696f6e206d7573742062652063616c6c6564207468726f7567682060408201526b6163746976652070726f787960a01b606082015260800190565b634e487b7160e01b600052603260045260246000fd5b634e487b7160e01b600052601160045260246000fd5b600060001982141561326c5761326c613242565b5060010190565b6000821982111561328657613286613242565b500190565b60006020828403121561329d57600080fd5b815161110581612e9e565b60208082526025908201527f455243313135353a207472616e7366657220746f20746865207a65726f206164604082015264647265737360d81b606082015260800190565b6020808252602a908201527f455243313135353a20696e73756666696369656e742062616c616e636520666f60408201526939103a3930b739b332b960b11b606082015260800190565b60408152600061334a6040830185612e0d565b82810360208401526111018185612e0d565b60006020828403121561336e57600080fd5b5051919050565b8183823760009101908152919050565b60208082526021908201527f455243313135353a206d696e7420746f20746865207a65726f206164647265736040820152607360f81b606082015260800190565b6020808252602e908201527f496e697469616c697a61626c653a20636f6e747261637420697320616c72656160408201526d191e481a5b9a5d1a585b1a5e995960921b606082015260800190565b6020808252602b908201527f496e697469616c697a61626c653a20636f6e7472616374206973206e6f74206960408201526a6e697469616c697a696e6760a81b606082015260800190565b6001600160a01b0386811682528516602082015260a06040820181905260009061348b90830186612e0d565b828103606084015261349d8186612e0d565b905082810360808401526134b18185612acb565b98975050505050505050565b6000602082840312156134cf57600080fd5b815161110581612a53565b600060033d11156103f25760046000803e5060005160e01c90565b600060443d10156135035790565b6040516003193d81016004833e81513d6001600160401b03816024840111818411171561353257505050505090565b828501915081518181111561354a5750505050505090565b843d87010160208285010111156135645750505050505090565b61357360208286010187612b3b565b509095945050505050565b60208082526028908201527f455243313135353a204552433131353552656365697665722072656a656374656040820152676420746f6b656e7360c01b606082015260800190565b7f416363657373436f6e74726f6c3a206163636f756e74200000000000000000008152600083516135fe816017850160208801612a9f565b7001034b99036b4b9b9b4b733903937b6329607d1b601791840191820152835161362f816028840160208801612a9f565b01602801949350505050565b6001600160a01b03868116825285166020820152604081018490526060810183905260a06080820181905260009061367590830184612acb565b979650505050505050565b600081600019048311821515161561369a5761369a613242565b500290565b6000816136ae576136ae613242565b506000190190565b600082516136c8818460208701612a9f565b919091019291505056fec3d58168c5ae7397731d063d5bbf3d657854427343f4c083240f7aacaa2d0f62360894a13ba1a3210667c828492db98dca3e2076cc3735a920a3ca505d382bbc416464726573733a206c6f772d6c6576656c2064656c65676174652063616c6c206661696c6564a2646970667358221220ba62069dc280dbf5916029511bbbd2bc28e5dbab4b2a69389910e5df619947a064736f6c63430008090033",
  "immutableReferences": {
    "434": [
      {
        "length": 32,
        "start": 1127
      },
      {
        "length": 32,
        "start": 7636
      }
    ],
    "1249": [
      {
        "length": 32,
        "start": 2542
      },
      {
        "length": 32,
        "start": 2606
      },
      {
        "length": 32,
        "start": 3063
      },
      {
        "length": 32,
        "start": 3127
      },
      {
        "length": 32,
        "start": 3270
      }
    ],
    "5044": [
      {
        "length": 32,
        "start": 7780
      },
      {
        "length": 32,
        "start": 9872
      }
    ]
  },
  "source": "// SPDX-License-Identifier: MIT\npragma solidity 0.8.9;\n\nimport \"./IMelandChainERC1155CID.sol\";\nimport \"../common/MelandAccessRoles.sol\";\nimport \"@openzeppelin/contracts-upgradeable/proxy/utils/UUPSUpgradeable.sol\";\nimport \"@openzeppelin/contracts-upgradeable/token/ERC1155/IERC1155ReceiverUpgradeable.sol\";\nimport \"@openzeppelin/contracts-upgradeable/token/ERC1155/extensions/IERC1155MetadataURIUpgradeable.sol\";\nimport \"@openzeppelin/contracts-upgradeable/utils/AddressUpgradeable.sol\";\nimport \"@openzeppelin/contracts-upgradeable/utils/introspection/ERC165Upgradeable.sol\";\nimport \"@openzeppelin/contracts-upgradeable/metatx/ERC2771ContextUpgradeable.sol\";\nimport \"@openzeppelin/contracts-upgradeable/utils/cryptography/ECDSAUpgradeable.sol\";\nimport \"@openzeppelin/contracts-upgradeable/utils/cryptography/draft-EIP712Upgradeable.sol\";\nimport \"./IMelandCID.sol\";\nimport \"./ERC1155Upgradeable.sol\";\nimport \"../metatx/IMelandForwarder.sol\";\nimport \"../swap/IMelandSwapFactory.sol\";\n\n// Cross-chain NFT of Meland subchains.\n// For AMM Convert NFT to CID for storage, then mint when charging to private chain.\ncontract MelandChainERC1155CID is\n    Initializable,\n    MelandAccessRoles,\n    ERC1155Upgradeable,\n    IMelandChainERC1155CID,\n    IMelandCID,\n    UUPSUpgradeable,\n    EIP712Upgradeable,\n    ERC2771ContextUpgradeable\n{\n    using ECDSAUpgradeable for bytes32;\n    using AddressUpgradeable for address;\n\n    bytes32 private constant _TYPEHASH =\n        keccak256(\n            \"SwapinParams(address from,address to,uint256 cid,uint256 value,uint256 nonce,bytes data)\"\n        );\n    \n    IMelandSwapFactory private immutable _swapFactory;\n\n    // set of holders, can be this bridge or other bridges\n    mapping(address => bool) public isHolder;\n    address[] public holders;\n\n    mapping(address => uint256) private _nonces;\n\n    /// @custom:oz-upgrades-unsafe-allow constructor\n    constructor(\n        address trustedForwarder,\n        IMelandSwapFactory swapFactory\n    )\n        ERC2771ContextUpgradeable(trustedForwarder)\n    {\n        _swapFactory = swapFactory;\n        require(address(_swapFactory) != address(0), \"Swap factory is not set\");\n    }\n\n    function initialize(address mpc) public initializer {\n        __MelandAccessRoles_init(mpc);\n        __UUPSUpgradeable_init();\n        __EIP712_init(\"MelandChainERC1155CID\", \"1\");\n    }\n\n    function getNonce(address from) public view returns (uint256) {\n        return _nonces[from];\n    }\n\n    /**\n     * @dev See {IERC165-supportsInterface}.\n     */\n    function supportsInterface(bytes4 interfaceId)\n        public\n        view\n        virtual\n        override(\n            AccessControlUpgradeable,\n            ERC1155Upgradeable,\n            IERC165Upgradeable\n        )\n        returns (bool)\n    {\n        return\n            interfaceId == type(IERC1155Upgradeable).interfaceId ||\n            interfaceId == type(IERC1155MetadataURIUpgradeable).interfaceId ||\n            interfaceId == type(IMelandCID).interfaceId ||\n            interfaceId == type(IMelandChainERC1155CID).interfaceId ||\n            super.supportsInterface(interfaceId);\n    }\n\n    function addHolder(address holder) public onlyRole(GM_ROLE) {\n        if (isHolder[holder]) {\n            return;\n        }\n        isHolder[holder] = true;\n        holders.push(holder);\n    }\n\n    function callSwapoutWithCID(\n        address to,\n        uint256 cid,\n        uint256 value\n    ) external {\n        address from = _msgSender();\n        _callSwapoutWithCID(from, to, cid, value);\n    }\n\n    function _callSwapoutWithCID(\n        address from,\n        address to,\n        uint256 cid,\n        uint256 value\n    ) internal {\n        _burn(from, cid, value);\n        emit SwapoutWithCID(to, cid, value);\n    }\n\n    function _MPCPermit2Keccak256(bytes calldata signature)\n        internal\n        pure\n        returns (bytes32)\n    {\n        return keccak256(signature);\n    }\n\n    function verify(SwapinParams memory swapinparams, bytes calldata signature)\n        public\n        view\n        returns (bool)\n    {\n        // TODO\n        return true;\n        address signer = _hashTypedDataV4(\n            keccak256(\n                abi.encode(\n                    _TYPEHASH,\n                    swapinparams.from,\n                    swapinparams.to,\n                    swapinparams.cid,\n                    swapinparams.value,\n                    swapinparams.nonce,\n                    keccak256(swapinparams.data)\n                )\n            )\n        ).recover(signature);\n        return\n            _nonces[swapinparams.from] == swapinparams.nonce &&\n            hasRole(MINTER_ROLE, signer);\n    }\n\n    // According to the MPC signature of the main Meland network, mint\n    function callSwapinWithCID(\n        bytes calldata signature,\n        SwapinParams memory swapinparams\n    ) external {\n        require(\n            verify(swapinparams, signature),\n            \"Meland.ai.MelandChainERC1155#callSwapinWithTokenId: Invalid signature\"\n        );\n        _nonces[swapinparams.from] = swapinparams.nonce + 1;\n        bytes32 signatureKeccak256 = _MPCPermit2Keccak256(signature);\n        // TODO test\n        bool success = true;\n        _mint(\n            swapinparams.from,\n            swapinparams.to,\n            swapinparams.cid,\n            swapinparams.value,\n            swapinparams.data\n        );\n        if (success) {\n            emit SwapinWithCID(\n                signatureKeccak256,\n                swapinparams.to,\n                swapinparams.cid,\n                swapinparams.value\n            );\n        } else {\n            emit RefundSwapin(signatureKeccak256);\n        }\n\n        address realsender = msg.sender;\n        if (\n            realsender.isContract() &&\n            IERC165Upgradeable(realsender).supportsInterface(\n                type(IMelandForwarder).interfaceId\n            )\n        ) {\n            IMelandForwarder(realsender).setExecuted(success);\n        }\n    }\n\n    function _authorizeUpgrade(address newImplementation)\n        internal\n        override\n        onlyRole(UPGRADER_ROLE)\n    {}\n\n    function _msgData()\n        internal\n        view\n        virtual\n        override(ContextUpgradeable, ERC2771ContextUpgradeable)\n        returns (bytes calldata)\n    {\n        return ERC2771ContextUpgradeable._msgData();\n    }\n\n    function _msgSender()\n        internal\n        view\n        virtual\n        override(ContextUpgradeable, ERC2771ContextUpgradeable)\n        returns (address)\n    {\n        return ERC2771ContextUpgradeable._msgSender();\n    }\n\n    function getCidByTokenId(uint256 tokenId) external pure returns (uint256) {\n        return tokenId;\n    }\n\n    // TODO Test\n    function _beforeTokenTransfer(\n        address operator,\n        address from,\n        address to,\n        uint256[] memory ids,\n        uint256[] memory amounts,\n        bytes memory data\n    ) internal override(ERC1155Upgradeable) {\n        if (hasRole(MINTER_ROLE, from)\n            || _swapFactory.isPool(from)\n        ) {\n             for (uint256 i = 0; i < ids.length; i++) {\n                _mintNoCheck(from, from, ids[i], amounts[i], data);\n            }\n        }\n    }\n\n    function _isHolderAddress(address account) internal view returns(bool) {\n        return isHolder[account] || _swapFactory.isPool(account);\n    }\n\n    // The following functions are overrides required by Solidity.\n    function _afterTokenTransfer(\n        address operator,\n        address from,\n        address to,\n        uint256[] memory ids,\n        uint256[] memory amounts,\n        bytes memory data\n    ) internal override(ERC1155Upgradeable) {\n        if (to != address(0) && !_isHolderAddress(to)) {\n            for (uint256 i = 0; i < ids.length; i++) {\n                _callSwapoutWithCID(to, to, ids[i], amounts[i]);\n            }\n        }\n\n        super._afterTokenTransfer(operator, from, to, ids, amounts, data);\n    }\n}\n",
  "sourcePath": "/Users/alberthuang/code/contracts-v2/contracts/nft/MelandChainERC1155CID.sol",
  "compiler": {
    "name": "solc",
    "version": "0.8.9+commit.e5eed63a.Emscripten.clang"
  },
  "schemaVersion": "3.4.5",
  "updatedAt": "2022-07-04T14:08:58.086Z",
  "devdoc": {
    "kind": "dev",
    "methods": {
      "balanceOf(address,uint256)": {
        "details": "See {IERC1155-balanceOf}. Requirements: - `account` cannot be the zero address."
      },
      "balanceOfBatch(address[],uint256[])": {
        "details": "See {IERC1155-balanceOfBatch}. Requirements: - `accounts` and `ids` must have the same length."
      },
      "constructor": {
        "custom:oz-upgrades-unsafe-allow": "constructor"
      },
      "getRoleAdmin(bytes32)": {
        "details": "Returns the admin role that controls `role`. See {grantRole} and {revokeRole}. To change a role's admin, use {_setRoleAdmin}."
      },
      "grantRole(bytes32,address)": {
        "details": "Grants `role` to `account`. If `account` had not been already granted `role`, emits a {RoleGranted} event. Requirements: - the caller must have ``role``'s admin role."
      },
      "hasRole(bytes32,address)": {
        "details": "Returns `true` if `account` has been granted `role`."
      },
      "isApprovedForAll(address,address)": {
        "details": "See {IERC1155-isApprovedForAll}."
      },
      "proxiableUUID()": {
        "details": "Implementation of the ERC1822 {proxiableUUID} function. This returns the storage slot used by the implementation. It is used to validate that the this implementation remains valid after an upgrade. IMPORTANT: A proxy pointing at a proxiable contract should not be considered proxiable itself, because this risks bricking a proxy that upgrades to it, by delegating to itself until out of gas. Thus it is critical that this function revert if invoked through a proxy. This is guaranteed by the `notDelegated` modifier."
      },
      "renounceRole(bytes32,address)": {
        "details": "Revokes `role` from the calling account. Roles are often managed via {grantRole} and {revokeRole}: this function's purpose is to provide a mechanism for accounts to lose their privileges if they are compromised (such as when a trusted device is misplaced). If the calling account had been revoked `role`, emits a {RoleRevoked} event. Requirements: - the caller must be `account`."
      },
      "revokeRole(bytes32,address)": {
        "details": "Revokes `role` from `account`. If `account` had been granted `role`, emits a {RoleRevoked} event. Requirements: - the caller must have ``role``'s admin role."
      },
      "safeBatchTransferFrom(address,address,uint256[],uint256[],bytes)": {
        "details": "See {IERC1155-safeBatchTransferFrom}."
      },
      "safeTransferFrom(address,address,uint256,uint256,bytes)": {
        "details": "See {IERC1155-safeTransferFrom}."
      },
      "setApprovalForAll(address,bool)": {
        "details": "See {IERC1155-setApprovalForAll}."
      },
      "supportsInterface(bytes4)": {
        "details": "See {IERC165-supportsInterface}."
      },
      "upgradeTo(address)": {
        "details": "Upgrade the implementation of the proxy to `newImplementation`. Calls {_authorizeUpgrade}. Emits an {Upgraded} event."
      },
      "upgradeToAndCall(address,bytes)": {
        "details": "Upgrade the implementation of the proxy to `newImplementation`, and subsequently execute the function call encoded in `data`. Calls {_authorizeUpgrade}. Emits an {Upgraded} event."
      },
      "uri(uint256)": {
        "details": "See {IERC1155MetadataURI-uri}. This implementation returns the same URI for *all* token types. It relies on the token type ID substitution mechanism https://eips.ethereum.org/EIPS/eip-1155#metadata[defined in the EIP]. Clients calling this function must replace the `\\{id\\}` substring with the actual token type ID."
      }
    },
    "version": 1
  },
  "userdoc": {
    "kind": "user",
    "methods": {},
    "version": 1
  }
}