{
  "contractName": "MelandChainERC1155",
  "abi": [
    {
      "inputs": [
        {
          "internalType": "address",
          "name": "trustedForwarder",
          "type": "address"
        }
      ],
      "stateMutability": "nonpayable",
      "type": "constructor"
    },
    {
      "anonymous": false,
      "inputs": [
        {
          "indexed": false,
          "internalType": "address",
          "name": "previousAdmin",
          "type": "address"
        },
        {
          "indexed": false,
          "internalType": "address",
          "name": "newAdmin",
          "type": "address"
        }
      ],
      "name": "AdminChanged",
      "type": "event"
    },
    {
      "anonymous": false,
      "inputs": [
        {
          "indexed": true,
          "internalType": "address",
          "name": "account",
          "type": "address"
        },
        {
          "indexed": true,
          "internalType": "address",
          "name": "operator",
          "type": "address"
        },
        {
          "indexed": false,
          "internalType": "bool",
          "name": "approved",
          "type": "bool"
        }
      ],
      "name": "ApprovalForAll",
      "type": "event"
    },
    {
      "anonymous": false,
      "inputs": [
        {
          "indexed": true,
          "internalType": "address",
          "name": "beacon",
          "type": "address"
        }
      ],
      "name": "BeaconUpgraded",
      "type": "event"
    },
    {
      "anonymous": false,
      "inputs": [
        {
          "indexed": false,
          "internalType": "uint8",
          "name": "version",
          "type": "uint8"
        }
      ],
      "name": "Initialized",
      "type": "event"
    },
    {
      "anonymous": false,
      "inputs": [
        {
          "indexed": true,
          "internalType": "bytes32",
          "name": "signKeccak256",
          "type": "bytes32"
        },
        {
          "indexed": false,
          "internalType": "bytes",
          "name": "returndata",
          "type": "bytes"
        }
      ],
      "name": "RefundSwapin",
      "type": "event"
    },
    {
      "anonymous": false,
      "inputs": [
        {
          "indexed": true,
          "internalType": "bytes32",
          "name": "role",
          "type": "bytes32"
        },
        {
          "indexed": true,
          "internalType": "bytes32",
          "name": "previousAdminRole",
          "type": "bytes32"
        },
        {
          "indexed": true,
          "internalType": "bytes32",
          "name": "newAdminRole",
          "type": "bytes32"
        }
      ],
      "name": "RoleAdminChanged",
      "type": "event"
    },
    {
      "anonymous": false,
      "inputs": [
        {
          "indexed": true,
          "internalType": "bytes32",
          "name": "role",
          "type": "bytes32"
        },
        {
          "indexed": true,
          "internalType": "address",
          "name": "account",
          "type": "address"
        },
        {
          "indexed": true,
          "internalType": "address",
          "name": "sender",
          "type": "address"
        }
      ],
      "name": "RoleGranted",
      "type": "event"
    },
    {
      "anonymous": false,
      "inputs": [
        {
          "indexed": true,
          "internalType": "bytes32",
          "name": "role",
          "type": "bytes32"
        },
        {
          "indexed": true,
          "internalType": "address",
          "name": "account",
          "type": "address"
        },
        {
          "indexed": true,
          "internalType": "address",
          "name": "sender",
          "type": "address"
        }
      ],
      "name": "RoleRevoked",
      "type": "event"
    },
    {
      "anonymous": false,
      "inputs": [
        {
          "indexed": true,
          "internalType": "bytes32",
          "name": "signKeccak256",
          "type": "bytes32"
        },
        {
          "indexed": false,
          "internalType": "address",
          "name": "to",
          "type": "address"
        },
        {
          "indexed": false,
          "internalType": "uint256",
          "name": "tokenId",
          "type": "uint256"
        },
        {
          "indexed": false,
          "internalType": "uint256",
          "name": "value",
          "type": "uint256"
        }
      ],
      "name": "SwapinWithTokenId",
      "type": "event"
    },
    {
      "anonymous": false,
      "inputs": [
        {
          "indexed": true,
          "internalType": "address",
          "name": "to",
          "type": "address"
        },
        {
          "indexed": false,
          "internalType": "uint256",
          "name": "tokenId",
          "type": "uint256"
        },
        {
          "indexed": false,
          "internalType": "uint256",
          "name": "value",
          "type": "uint256"
        }
      ],
      "name": "SwapoutWithTokenId",
      "type": "event"
    },
    {
      "anonymous": false,
      "inputs": [
        {
          "indexed": true,
          "internalType": "address",
          "name": "operator",
          "type": "address"
        },
        {
          "indexed": true,
          "internalType": "address",
          "name": "from",
          "type": "address"
        },
        {
          "indexed": true,
          "internalType": "address",
          "name": "to",
          "type": "address"
        },
        {
          "indexed": false,
          "internalType": "uint256[]",
          "name": "ids",
          "type": "uint256[]"
        },
        {
          "indexed": false,
          "internalType": "uint256[]",
          "name": "values",
          "type": "uint256[]"
        }
      ],
      "name": "TransferBatch",
      "type": "event"
    },
    {
      "anonymous": false,
      "inputs": [
        {
          "indexed": true,
          "internalType": "address",
          "name": "operator",
          "type": "address"
        },
        {
          "indexed": true,
          "internalType": "address",
          "name": "from",
          "type": "address"
        },
        {
          "indexed": true,
          "internalType": "address",
          "name": "to",
          "type": "address"
        },
        {
          "indexed": false,
          "internalType": "uint256",
          "name": "id",
          "type": "uint256"
        },
        {
          "indexed": false,
          "internalType": "uint256",
          "name": "value",
          "type": "uint256"
        }
      ],
      "name": "TransferSingle",
      "type": "event"
    },
    {
      "anonymous": false,
      "inputs": [
        {
          "indexed": false,
          "internalType": "string",
          "name": "value",
          "type": "string"
        },
        {
          "indexed": true,
          "internalType": "uint256",
          "name": "id",
          "type": "uint256"
        }
      ],
      "name": "URI",
      "type": "event"
    },
    {
      "anonymous": false,
      "inputs": [
        {
          "indexed": true,
          "internalType": "address",
          "name": "implementation",
          "type": "address"
        }
      ],
      "name": "Upgraded",
      "type": "event"
    },
    {
      "inputs": [],
      "name": "DEFAULT_ADMIN_ROLE",
      "outputs": [
        {
          "internalType": "bytes32",
          "name": "",
          "type": "bytes32"
        }
      ],
      "stateMutability": "view",
      "type": "function",
      "constant": true
    },
    {
      "inputs": [],
      "name": "DOMAIN_SEPARATOR",
      "outputs": [
        {
          "internalType": "bytes32",
          "name": "",
          "type": "bytes32"
        }
      ],
      "stateMutability": "view",
      "type": "function",
      "constant": true
    },
    {
      "inputs": [],
      "name": "GM_ROLE",
      "outputs": [
        {
          "internalType": "bytes32",
          "name": "",
          "type": "bytes32"
        }
      ],
      "stateMutability": "view",
      "type": "function",
      "constant": true
    },
    {
      "inputs": [],
      "name": "MINTER_ROLE",
      "outputs": [
        {
          "internalType": "bytes32",
          "name": "",
          "type": "bytes32"
        }
      ],
      "stateMutability": "view",
      "type": "function",
      "constant": true
    },
    {
      "inputs": [],
      "name": "UPGRADER_ROLE",
      "outputs": [
        {
          "internalType": "bytes32",
          "name": "",
          "type": "bytes32"
        }
      ],
      "stateMutability": "view",
      "type": "function",
      "constant": true
    },
    {
      "inputs": [
        {
          "internalType": "address",
          "name": "account",
          "type": "address"
        },
        {
          "internalType": "uint256",
          "name": "id",
          "type": "uint256"
        }
      ],
      "name": "balanceOf",
      "outputs": [
        {
          "internalType": "uint256",
          "name": "",
          "type": "uint256"
        }
      ],
      "stateMutability": "view",
      "type": "function",
      "constant": true
    },
    {
      "inputs": [
        {
          "internalType": "address[]",
          "name": "accounts",
          "type": "address[]"
        },
        {
          "internalType": "uint256[]",
          "name": "ids",
          "type": "uint256[]"
        }
      ],
      "name": "balanceOfBatch",
      "outputs": [
        {
          "internalType": "uint256[]",
          "name": "",
          "type": "uint256[]"
        }
      ],
      "stateMutability": "view",
      "type": "function",
      "constant": true
    },
    {
      "inputs": [
        {
          "internalType": "bytes32",
          "name": "role",
          "type": "bytes32"
        }
      ],
      "name": "getRoleAdmin",
      "outputs": [
        {
          "internalType": "bytes32",
          "name": "",
          "type": "bytes32"
        }
      ],
      "stateMutability": "view",
      "type": "function",
      "constant": true
    },
    {
      "inputs": [
        {
          "internalType": "bytes32",
          "name": "role",
          "type": "bytes32"
        },
        {
          "internalType": "address",
          "name": "account",
          "type": "address"
        }
      ],
      "name": "grantRole",
      "outputs": [],
      "stateMutability": "nonpayable",
      "type": "function"
    },
    {
      "inputs": [
        {
          "internalType": "bytes32",
          "name": "role",
          "type": "bytes32"
        },
        {
          "internalType": "address",
          "name": "account",
          "type": "address"
        }
      ],
      "name": "hasRole",
      "outputs": [
        {
          "internalType": "bool",
          "name": "",
          "type": "bool"
        }
      ],
      "stateMutability": "view",
      "type": "function",
      "constant": true
    },
    {
      "inputs": [
        {
          "internalType": "uint256",
          "name": "",
          "type": "uint256"
        }
      ],
      "name": "holders",
      "outputs": [
        {
          "internalType": "address",
          "name": "",
          "type": "address"
        }
      ],
      "stateMutability": "view",
      "type": "function",
      "constant": true
    },
    {
      "inputs": [
        {
          "internalType": "address",
          "name": "account",
          "type": "address"
        },
        {
          "internalType": "address",
          "name": "operator",
          "type": "address"
        }
      ],
      "name": "isApprovedForAll",
      "outputs": [
        {
          "internalType": "bool",
          "name": "",
          "type": "bool"
        }
      ],
      "stateMutability": "view",
      "type": "function",
      "constant": true
    },
    {
      "inputs": [
        {
          "internalType": "address",
          "name": "",
          "type": "address"
        }
      ],
      "name": "isHolder",
      "outputs": [
        {
          "internalType": "bool",
          "name": "",
          "type": "bool"
        }
      ],
      "stateMutability": "view",
      "type": "function",
      "constant": true
    },
    {
      "inputs": [
        {
          "internalType": "address",
          "name": "forwarder",
          "type": "address"
        }
      ],
      "name": "isTrustedForwarder",
      "outputs": [
        {
          "internalType": "bool",
          "name": "",
          "type": "bool"
        }
      ],
      "stateMutability": "view",
      "type": "function",
      "constant": true
    },
    {
      "inputs": [],
      "name": "proxiableUUID",
      "outputs": [
        {
          "internalType": "bytes32",
          "name": "",
          "type": "bytes32"
        }
      ],
      "stateMutability": "view",
      "type": "function",
      "constant": true
    },
    {
      "inputs": [
        {
          "internalType": "bytes32",
          "name": "role",
          "type": "bytes32"
        },
        {
          "internalType": "address",
          "name": "account",
          "type": "address"
        }
      ],
      "name": "renounceRole",
      "outputs": [],
      "stateMutability": "nonpayable",
      "type": "function"
    },
    {
      "inputs": [
        {
          "internalType": "bytes32",
          "name": "role",
          "type": "bytes32"
        },
        {
          "internalType": "address",
          "name": "account",
          "type": "address"
        }
      ],
      "name": "revokeRole",
      "outputs": [],
      "stateMutability": "nonpayable",
      "type": "function"
    },
    {
      "inputs": [
        {
          "internalType": "address",
          "name": "from",
          "type": "address"
        },
        {
          "internalType": "address",
          "name": "to",
          "type": "address"
        },
        {
          "internalType": "uint256[]",
          "name": "ids",
          "type": "uint256[]"
        },
        {
          "internalType": "uint256[]",
          "name": "amounts",
          "type": "uint256[]"
        },
        {
          "internalType": "bytes",
          "name": "data",
          "type": "bytes"
        }
      ],
      "name": "safeBatchTransferFrom",
      "outputs": [],
      "stateMutability": "nonpayable",
      "type": "function"
    },
    {
      "inputs": [
        {
          "internalType": "address",
          "name": "from",
          "type": "address"
        },
        {
          "internalType": "address",
          "name": "to",
          "type": "address"
        },
        {
          "internalType": "uint256",
          "name": "id",
          "type": "uint256"
        },
        {
          "internalType": "uint256",
          "name": "amount",
          "type": "uint256"
        },
        {
          "internalType": "bytes",
          "name": "data",
          "type": "bytes"
        }
      ],
      "name": "safeTransferFrom",
      "outputs": [],
      "stateMutability": "nonpayable",
      "type": "function"
    },
    {
      "inputs": [
        {
          "internalType": "address",
          "name": "operator",
          "type": "address"
        },
        {
          "internalType": "bool",
          "name": "approved",
          "type": "bool"
        }
      ],
      "name": "setApprovalForAll",
      "outputs": [],
      "stateMutability": "nonpayable",
      "type": "function"
    },
    {
      "inputs": [
        {
          "internalType": "address",
          "name": "newImplementation",
          "type": "address"
        }
      ],
      "name": "upgradeTo",
      "outputs": [],
      "stateMutability": "nonpayable",
      "type": "function"
    },
    {
      "inputs": [
        {
          "internalType": "address",
          "name": "newImplementation",
          "type": "address"
        },
        {
          "internalType": "bytes",
          "name": "data",
          "type": "bytes"
        }
      ],
      "name": "upgradeToAndCall",
      "outputs": [],
      "stateMutability": "payable",
      "type": "function",
      "payable": true
    },
    {
      "inputs": [
        {
          "internalType": "uint256",
          "name": "",
          "type": "uint256"
        }
      ],
      "name": "uri",
      "outputs": [
        {
          "internalType": "string",
          "name": "",
          "type": "string"
        }
      ],
      "stateMutability": "view",
      "type": "function",
      "constant": true
    },
    {
      "inputs": [
        {
          "internalType": "address",
          "name": "mpc",
          "type": "address"
        }
      ],
      "name": "initialize",
      "outputs": [],
      "stateMutability": "nonpayable",
      "type": "function"
    },
    {
      "inputs": [
        {
          "internalType": "address",
          "name": "from",
          "type": "address"
        }
      ],
      "name": "getNonce",
      "outputs": [
        {
          "internalType": "uint256",
          "name": "",
          "type": "uint256"
        }
      ],
      "stateMutability": "view",
      "type": "function",
      "constant": true
    },
    {
      "inputs": [
        {
          "internalType": "bytes4",
          "name": "interfaceId",
          "type": "bytes4"
        }
      ],
      "name": "supportsInterface",
      "outputs": [
        {
          "internalType": "bool",
          "name": "",
          "type": "bool"
        }
      ],
      "stateMutability": "view",
      "type": "function",
      "constant": true
    },
    {
      "inputs": [
        {
          "internalType": "address",
          "name": "holder",
          "type": "address"
        }
      ],
      "name": "addHolder",
      "outputs": [],
      "stateMutability": "nonpayable",
      "type": "function"
    },
    {
      "inputs": [
        {
          "internalType": "address",
          "name": "to",
          "type": "address"
        },
        {
          "internalType": "uint256",
          "name": "tokenId",
          "type": "uint256"
        },
        {
          "internalType": "uint256",
          "name": "value",
          "type": "uint256"
        }
      ],
      "name": "callSwapoutWithTokenId",
      "outputs": [],
      "stateMutability": "nonpayable",
      "type": "function"
    },
    {
      "inputs": [
        {
          "components": [
            {
              "internalType": "address",
              "name": "from",
              "type": "address"
            },
            {
              "internalType": "address",
              "name": "to",
              "type": "address"
            },
            {
              "internalType": "uint256",
              "name": "tokenId",
              "type": "uint256"
            },
            {
              "internalType": "uint256",
              "name": "cid",
              "type": "uint256"
            },
            {
              "internalType": "uint256",
              "name": "value",
              "type": "uint256"
            },
            {
              "internalType": "uint256",
              "name": "nonce",
              "type": "uint256"
            },
            {
              "internalType": "bytes",
              "name": "data",
              "type": "bytes"
            }
          ],
          "internalType": "struct IMelandChainERC1155.SwapinParams",
          "name": "swapinparams",
          "type": "tuple"
        },
        {
          "internalType": "bytes",
          "name": "signature",
          "type": "bytes"
        }
      ],
      "name": "verify",
      "outputs": [
        {
          "internalType": "bool",
          "name": "",
          "type": "bool"
        }
      ],
      "stateMutability": "view",
      "type": "function",
      "constant": true
    },
    {
      "inputs": [
        {
          "internalType": "bytes",
          "name": "signature",
          "type": "bytes"
        },
        {
          "components": [
            {
              "internalType": "address",
              "name": "from",
              "type": "address"
            },
            {
              "internalType": "address",
              "name": "to",
              "type": "address"
            },
            {
              "internalType": "uint256",
              "name": "tokenId",
              "type": "uint256"
            },
            {
              "internalType": "uint256",
              "name": "cid",
              "type": "uint256"
            },
            {
              "internalType": "uint256",
              "name": "value",
              "type": "uint256"
            },
            {
              "internalType": "uint256",
              "name": "nonce",
              "type": "uint256"
            },
            {
              "internalType": "bytes",
              "name": "data",
              "type": "bytes"
            }
          ],
          "internalType": "struct IMelandChainERC1155.SwapinParams",
          "name": "swapinparams",
          "type": "tuple"
        }
      ],
      "name": "callSwapinWithTokenId",
      "outputs": [],
      "stateMutability": "nonpayable",
      "type": "function"
    },
    {
      "inputs": [
        {
          "internalType": "uint256",
          "name": "tokenId",
          "type": "uint256"
        }
      ],
      "name": "getCidByTokenId",
      "outputs": [
        {
          "internalType": "uint256",
          "name": "",
          "type": "uint256"
        }
      ],
      "stateMutability": "view",
      "type": "function",
      "constant": true
    }
  ],
  "bytecode": "0x60c0604052306080523480156200001557600080fd5b50604051620035283803806200352883398101604081905262000038916200004a565b6001600160a01b031660a0526200007c565b6000602082840312156200005d57600080fd5b81516001600160a01b03811681146200007557600080fd5b9392505050565b60805160a051613463620000c5600039600081816104b7015261208c015260008181610cb701528181610cf701528181610ec001528181610f000152610f8f01526134636000f3fe6080604052600436106101d75760003560e01c80634e1273f411610102578063ac1e17df11610095578063d547741f11610064578063d547741f14610601578063e985e9c514610621578063f242432a1461066a578063f72c0d8b1461068a57600080fd5b8063ac1e17df1461055c578063c4d66de81461057c578063d4d7b19a1461059c578063d5391393146105cd57600080fd5b806391d14854116100d157806391d14854146104e7578063a217fddf14610507578063a22cb4651461051c578063a7edb5de1461053c57600080fd5b80634e1273f4146104455780634f1ef2861461047257806352d1902d14610485578063572b6c051461049a57600080fd5b80632d0335ab1161017a5780633644e515116101495780633644e515146103c157806336568abe146103d75780633659cfe6146103f75780633ef780bc1461041757600080fd5b80632d0335ab146103165780632eb2c2d61461034d5780632f2ff15d1461036d57806330c7be2c1461038d57600080fd5b80630e89341c116101b65780630e89341c14610261578063123422871461028e578063248a9ca3146102ae5780632a11ced0146102de57600080fd5b8062fdd58e146101dc57806301ffc9a71461020f5780630cdab6ec1461023f575b600080fd5b3480156101e857600080fd5b506101fc6101f73660046127b7565b6106be565b6040519081526020015b60405180910390f35b34801561021b57600080fd5b5061022f61022a3660046127f7565b610757565b6040519015158152602001610206565b34801561024b57600080fd5b5061025f61025a3660046129c3565b6107d3565b005b34801561026d57600080fd5b5061028161027c366004612a2b565b610a7a565b6040516102069190612a9c565b34801561029a57600080fd5b5061022f6102a9366004612aaf565b610b0e565b3480156102ba57600080fd5b506101fc6102c9366004612a2b565b60009081526065602052604090206001015490565b3480156102ea57600080fd5b506102fe6102f9366004612a2b565b610b20565b6040516001600160a01b039091168152602001610206565b34801561032257600080fd5b506101fc610331366004612b17565b6001600160a01b03166000908152610197602052604090205490565b34801561035957600080fd5b5061025f610368366004612bc6565b610b4b565b34801561037957600080fd5b5061025f610388366004612c6f565b610bf4565b34801561039957600080fd5b506101fc7ff5eb84615c2a00ecaf817d13794ebd6299c9e01c395bf4018453f13f577f544981565b3480156103cd57600080fd5b506101fc60975481565b3480156103e357600080fd5b5061025f6103f2366004612c6f565b610c1e565b34801561040357600080fd5b5061025f610412366004612b17565b610cac565b34801561042357600080fd5b506101fc610432366004612a2b565b6000908152610196602052604090205490565b34801561045157600080fd5b50610465610460366004612c9b565b610d8c565b6040516102069190612da0565b61025f610480366004612db3565b610eb5565b34801561049157600080fd5b506101fc610f82565b3480156104a657600080fd5b5061022f6104b5366004612b17565b7f00000000000000000000000000000000000000000000000000000000000000006001600160a01b0390811691161490565b3480156104f357600080fd5b5061022f610502366004612c6f565b611036565b34801561051357600080fd5b506101fc600081565b34801561052857600080fd5b5061025f610537366004612e04565b611061565b34801561054857600080fd5b5061025f610557366004612e3b565b611073565b34801561056857600080fd5b5061025f610577366004612b17565b611091565b34801561058857600080fd5b5061025f610597366004612b17565b611124565b3480156105a857600080fd5b5061022f6105b7366004612b17565b6101946020526000908152604090205460ff1681565b3480156105d957600080fd5b506101fc7f9f2df0fed2c77648de5860a4cc508cd0818c85b8b8a1ab4ceeef8d981c8956a681565b34801561060d57600080fd5b5061025f61061c366004612c6f565b61128b565b34801561062d57600080fd5b5061022f61063c366004612e6e565b6001600160a01b03918216600090815260996020908152604080832093909416825291909152205460ff1690565b34801561067657600080fd5b5061025f610685366004612e98565b6112b0565b34801561069657600080fd5b506101fc7f189ab7a9244df0848122154315af71fe140f3db0fe014031783b0946b8c9d2e381565b60006001600160a01b03831661072f5760405162461bcd60e51b815260206004820152602b60248201527f455243313135353a2062616c616e636520717565727920666f7220746865207a60448201526a65726f206164647265737360a81b60648201526084015b60405180910390fd5b5060009081526098602090815260408083206001600160a01b03949094168352929052205490565b60006001600160e01b03198216636cdb3d1360e11b148061078857506001600160e01b031982166303a24d0760e21b145b806107a357506001600160e01b0319821663559b819960e11b145b806107be57506001600160e01b03198216630fbde02f60e21b145b806107cd57506107cd82611349565b92915050565b6107de818484610b0e565b61085e5760405162461bcd60e51b815260206004820152604560248201527f4d656c616e642e61692e4d656c616e64436861696e455243313135352363616c60448201527f6c53776170696e57697468546f6b656e49643a20496e76616c6964207369676e606482015264617475726560d81b608482015260a401610726565b60a081015161086e906001612f12565b81516001600160a01b0316600090815261019760205260408120919091556108968484611389565b90508160600151610196600084604001518152602001908152602001600020819055506000600190506108e083600001518460200151856040015186608001518760c001516113ab565b801561094457602080840151604080860151608087015182516001600160a01b0390941684529383015281019190915282907fc3918c655f8ff86af93d311c098b5a4ef906fcb2ea62c45ca4480f1ae2a7446d9060600160405180910390a2610987565b817faca83ef47ce8a0118394ef5dfe68d0626c923f7e4eafb019a94c951079ad9dc360405161097e90602080825260009082015260400190565b60405180910390a25b33803b15158015610a1157506040516301ffc9a760e01b8152633ec5c3f360e21b60048201526001600160a01b038216906301ffc9a79060240160206040518083038186803b1580156109d957600080fd5b505afa1580156109ed573d6000803e3d6000fd5b505050506040513d601f19601f82011682018060405250810190610a119190612f2a565b15610a7257604051633ec5c3f360e21b815282151560048201526001600160a01b0382169063fb170fcc90602401600060405180830381600087803b158015610a5957600080fd5b505af1158015610a6d573d6000803e3d6000fd5b505050505b505050505050565b6060609a8054610a8990612f47565b80601f0160208091040260200160405190810160405280929190818152602001828054610ab590612f47565b8015610b025780601f10610ad757610100808354040283529160200191610b02565b820191906000526020600020905b815481529060010190602001808311610ae557829003601f168201915b50505050509050919050565b6001610b19565b9150505b9392505050565b6101958181548110610b3157600080fd5b6000918252602090912001546001600160a01b0316905081565b610b536114fa565b6001600160a01b0316856001600160a01b03161480610b795750610b798561063c6114fa565b610be05760405162461bcd60e51b815260206004820152603260248201527f455243313135353a207472616e736665722063616c6c6572206973206e6f74206044820152711bdddb995c881b9bdc88185c1c1c9bdd995960721b6064820152608401610726565b610bed8585858585611509565b5050505050565b600082815260656020526040902060010154610c0f816116fa565b610c19838361170b565b505050565b610c266114fa565b6001600160a01b0316816001600160a01b031614610c9e5760405162461bcd60e51b815260206004820152602f60248201527f416363657373436f6e74726f6c3a2063616e206f6e6c792072656e6f756e636560448201526e103937b632b9903337b91039b2b63360891b6064820152608401610726565b610ca88282611792565b5050565b306001600160a01b037f0000000000000000000000000000000000000000000000000000000000000000161415610cf55760405162461bcd60e51b815260040161072690612f82565b7f00000000000000000000000000000000000000000000000000000000000000006001600160a01b0316610d3e6000805160206133e7833981519152546001600160a01b031690565b6001600160a01b031614610d645760405162461bcd60e51b815260040161072690612fce565b610d6d81611817565b60408051600080825260208201909252610d8991839190611841565b50565b60608151835114610df15760405162461bcd60e51b815260206004820152602960248201527f455243313135353a206163636f756e747320616e6420696473206c656e677468604482015268040dad2e6dac2e8c6d60bb1b6064820152608401610726565b600083516001600160401b03811115610e0c57610e0c612855565b604051908082528060200260200182016040528015610e35578160200160208202803683370190505b50905060005b8451811015610ead57610e80858281518110610e5957610e5961301a565b6020026020010151858381518110610e7357610e7361301a565b60200260200101516106be565b828281518110610e9257610e9261301a565b6020908102919091010152610ea681613030565b9050610e3b565b509392505050565b306001600160a01b037f0000000000000000000000000000000000000000000000000000000000000000161415610efe5760405162461bcd60e51b815260040161072690612f82565b7f00000000000000000000000000000000000000000000000000000000000000006001600160a01b0316610f476000805160206133e7833981519152546001600160a01b031690565b6001600160a01b031614610f6d5760405162461bcd60e51b815260040161072690612fce565b610f7682611817565b610ca882826001611841565b6000306001600160a01b037f000000000000000000000000000000000000000000000000000000000000000016146110225760405162461bcd60e51b815260206004820152603860248201527f555550535570677261646561626c653a206d757374206e6f742062652063616c60448201527f6c6564207468726f7567682064656c656761746563616c6c00000000000000006064820152608401610726565b506000805160206133e78339815191525b90565b60009182526065602090815260408084206001600160a01b0393909316845291905290205460ff1690565b610ca861106c6114fa565b83836119bb565b600061107d6114fa565b905061108b81858585611a9c565b50505050565b7ff5eb84615c2a00ecaf817d13794ebd6299c9e01c395bf4018453f13f577f54496110bb816116fa565b506001600160a01b0316600081815261019460205260408120805460ff19166001908117909155610195805491820181559091527f54034dca961b61bc2a3147cc0c1986762915b42723ed64155364f17a2e2967700180546001600160a01b0319169091179055565b600054610100900460ff16158080156111445750600054600160ff909116105b8061115e5750303b15801561115e575060005460ff166001145b6111c15760405162461bcd60e51b815260206004820152602e60248201527f496e697469616c697a61626c653a20636f6e747261637420697320616c72656160448201526d191e481a5b9a5d1a585b1a5e995960921b6064820152608401610726565b6000805460ff1916600117905580156111e4576000805461ff0019166101001790555b6111ed82611af1565b6111f5611c52565b611242604051806040016040528060128152602001714d656c616e64436861696e4552433131353560701b815250604051806040016040528060018152602001603160f81b815250611c7b565b8015610ca8576000805461ff0019169055604051600181527f7f26b83ff96e1f2b6a682f133852f6798a09c465da95921460cefb38474024989060200160405180910390a15050565b6000828152606560205260409020600101546112a6816116fa565b610c198383611792565b6112b86114fa565b6001600160a01b0316856001600160a01b031614806112de57506112de8561063c6114fa565b61133c5760405162461bcd60e51b815260206004820152602960248201527f455243313135353a2063616c6c6572206973206e6f74206f776e6572206e6f7260448201526808185c1c1c9bdd995960ba1b6064820152608401610726565b610bed8585858585611cac565b60006001600160e01b03198216636cdb3d1360e11b148061137a57506001600160e01b031982166303a24d0760e21b145b806107cd57506107cd82611df3565b6000828260405161139b92919061304b565b6040518091039020905092915050565b6001600160a01b03841661140b5760405162461bcd60e51b815260206004820152602160248201527f455243313135353a206d696e7420746f20746865207a65726f206164647265736044820152607360f81b6064820152608401610726565b836001600160a01b0316856001600160a01b0316141561142a57600094505b60006114346114fa565b9050600061144185611e28565b9050600061144e85611e28565b905060008681526098602090815260408083206001600160a01b038b16845290915281208054879290611482908490612f12565b909155505060408051878152602081018790526001600160a01b03808a16928b821692918716917fc3d58168c5ae7397731d063d5bbf3d657854427343f4c083240f7aacaa2d0f62910160405180910390a46114e2838989858589611e73565b6114f0838989898989611f0d565b5050505050505050565b6000611504612088565b905090565b815183511461156b5760405162461bcd60e51b815260206004820152602860248201527f455243313135353a2069647320616e6420616d6f756e7473206c656e677468206044820152670dad2e6dac2e8c6d60c31b6064820152608401610726565b6001600160a01b0384166115915760405162461bcd60e51b81526004016107269061305b565b600061159b6114fa565b905060005b84518110156116865760008582815181106115bd576115bd61301a565b6020026020010151905060008583815181106115db576115db61301a565b60209081029190910181015160008481526098835260408082206001600160a01b038e16835290935291909120549091508181101561162c5760405162461bcd60e51b8152600401610726906130a0565b60008381526098602090815260408083206001600160a01b038e8116855292528083208585039055908b1682528120805484929061166b908490612f12565b925050819055505050508061167f90613030565b90506115a0565b50846001600160a01b0316866001600160a01b0316826001600160a01b03167f4a39dc06d4c0dbc64b70af90fd698a233a518aa5d07e595d983b8c0526c8f7fb87876040516116d69291906130ea565b60405180910390a46116ec818787878787611e73565b610a728187878787876120cd565b610d89816117066114fa565b612197565b6117158282611036565b610ca85760008281526065602090815260408083206001600160a01b03851684529091529020805460ff1916600117905561174e6114fa565b6001600160a01b0316816001600160a01b0316837f2f8788117e7eff1d82e926ec794901d17c78024a50270940304540a733656f0d60405160405180910390a45050565b61179c8282611036565b15610ca85760008281526065602090815260408083206001600160a01b03851684529091529020805460ff191690556117d36114fa565b6001600160a01b0316816001600160a01b0316837ff6391f5c32d9c69d2a47ea670b442974b53935d1edc7fd64eb21e047a839171b60405160405180910390a45050565b7f189ab7a9244df0848122154315af71fe140f3db0fe014031783b0946b8c9d2e3610ca8816116fa565b7f4910fdfa16fed3260ed0e7147f7cc6da11a60208b5b9406d12a635614ffd91435460ff161561187457610c19836121fb565b826001600160a01b03166352d1902d6040518163ffffffff1660e01b815260040160206040518083038186803b1580156118ad57600080fd5b505afa9250505080156118dd575060408051601f3d908101601f191682019092526118da9181019061310f565b60015b6119405760405162461bcd60e51b815260206004820152602e60248201527f45524331393637557067726164653a206e657720696d706c656d656e7461746960448201526d6f6e206973206e6f74205555505360901b6064820152608401610726565b6000805160206133e783398151915281146119af5760405162461bcd60e51b815260206004820152602960248201527f45524331393637557067726164653a20756e737570706f727465642070726f786044820152681a58589b195555525160ba1b6064820152608401610726565b50610c19838383612297565b816001600160a01b0316836001600160a01b03161415611a2f5760405162461bcd60e51b815260206004820152602960248201527f455243313135353a2073657474696e6720617070726f76616c20737461747573604482015268103337b91039b2b63360b91b6064820152608401610726565b6001600160a01b03838116600081815260996020908152604080832094871680845294825291829020805460ff191686151590811790915591519182527f17307eab39ab6107e8899845ad3d59bd9653f200f220920489ca2b5937696c31910160405180910390a3505050565b611aa78483836122bc565b60408051838152602081018390526001600160a01b038516917f1ec25b5cb6b929928b07334300639c678b32a51550e0e63d57ffb623cd2ce27b910160405180910390a250505050565b611af9611c52565b611b0460008261170b565b611b2e7ff5eb84615c2a00ecaf817d13794ebd6299c9e01c395bf4018453f13f577f54498261170b565b611b587f9f2df0fed2c77648de5860a4cc508cd0818c85b8b8a1ab4ceeef8d981c8956a68261170b565b611b827f189ab7a9244df0848122154315af71fe140f3db0fe014031783b0946b8c9d2e33361170b565b5060408051808201825260068152651b595b185b9960d21b6020918201528151808301835260018152603160f81b9082015281517f8b73c3c69bb8fe3d512ecc4cf759cc79239f7b179b0ffacaa9a75d522b39400f818301527f314ed1331a8d68d6e7c652158abe27c46bf91bd45ef86ab66f92d6500b1056eb818401527fc89efdaa54c0f20c7adf612882df0950f5a951637e0307cdcb4c672f298b8bc660608201524660808201523060a0808301919091528351808303909101815260c09091019092528151910120609755565b600054610100900460ff16611c795760405162461bcd60e51b815260040161072690613128565b565b600054610100900460ff16611ca25760405162461bcd60e51b815260040161072690613128565b610ca88282612450565b6001600160a01b038416611cd25760405162461bcd60e51b81526004016107269061305b565b6000611cdc6114fa565b90506000611ce985611e28565b90506000611cf685611e28565b905060008681526098602090815260408083206001600160a01b038c16845290915290205485811015611d3b5760405162461bcd60e51b8152600401610726906130a0565b60008781526098602090815260408083206001600160a01b038d8116855292528083208985039055908a16825281208054889290611d7a908490612f12565b909155505060408051888152602081018890526001600160a01b03808b16928c821692918816917fc3d58168c5ae7397731d063d5bbf3d657854427343f4c083240f7aacaa2d0f62910160405180910390a4611dda848a8a86868a611e73565b611de8848a8a8a8a8a611f0d565b505050505050505050565b60006001600160e01b03198216637965db0b60e01b14806107cd57506301ffc9a760e01b6001600160e01b03198316146107cd565b60408051600180825281830190925260609160009190602080830190803683370190505090508281600081518110611e6257611e6261301a565b602090810291909101015292915050565b6001600160a01b03841615801590611ea557506001600160a01b0384166000908152610194602052604090205460ff16155b15611f085760005b8351811015611f0657611ef48586868481518110611ecd57611ecd61301a565b6020026020010151868581518110611ee757611ee761301a565b6020026020010151611a9c565b80611efe81613030565b915050611ead565b505b610a72565b6001600160a01b0384163b15610a725760405163f23a6e6160e01b81526001600160a01b0385169063f23a6e6190611f519089908990889088908890600401613173565b602060405180830381600087803b158015611f6b57600080fd5b505af1925050508015611f9b575060408051601f3d908101601f19168201909252611f98918101906131b8565b60015b61204857611fa76131d5565b806308c379a01415611fe15750611fbc6131f0565b80611fc75750611fe3565b8060405162461bcd60e51b81526004016107269190612a9c565b505b60405162461bcd60e51b815260206004820152603460248201527f455243313135353a207472616e7366657220746f206e6f6e20455243313135356044820152732932b1b2b4bb32b91034b6b83632b6b2b73a32b960611b6064820152608401610726565b6001600160e01b0319811663f23a6e6160e01b146120785760405162461bcd60e51b815260040161072690613279565b50505050505050565b9250929050565b60007f00000000000000000000000000000000000000000000000000000000000000006001600160a01b03163314156120c8575060131936013560601c90565b503390565b6001600160a01b0384163b15610a725760405163bc197c8160e01b81526001600160a01b0385169063bc197c819061211190899089908890889088906004016132c1565b602060405180830381600087803b15801561212b57600080fd5b505af192505050801561215b575060408051601f3d908101601f19168201909252612158918101906131b8565b60015b61216757611fa76131d5565b6001600160e01b0319811663bc197c8160e01b146120785760405162461bcd60e51b815260040161072690613279565b6121a18282611036565b610ca8576121b9816001600160a01b03166014612493565b6121c4836020612493565b6040516020016121d592919061331f565b60408051601f198184030181529082905262461bcd60e51b825261072691600401612a9c565b6001600160a01b0381163b6122685760405162461bcd60e51b815260206004820152602d60248201527f455243313936373a206e657720696d706c656d656e746174696f6e206973206e60448201526c1bdd08184818dbdb9d1c9858dd609a1b6064820152608401610726565b6000805160206133e783398151915280546001600160a01b0319166001600160a01b0392909216919091179055565b6122a08361262e565b6000825111806122ad5750805b15610c195761108b838361266e565b6001600160a01b03831661231e5760405162461bcd60e51b815260206004820152602360248201527f455243313135353a206275726e2066726f6d20746865207a65726f206164647260448201526265737360e81b6064820152608401610726565b60006123286114fa565b9050600061233584611e28565b9050600061234284611e28565b6040805160208082018352600091829052888252609881528282206001600160a01b038b16835290522054909150848110156123cc5760405162461bcd60e51b8152602060048201526024808201527f455243313135353a206275726e20616d6f756e7420657863656564732062616c604482015263616e636560e01b6064820152608401610726565b60008681526098602090815260408083206001600160a01b038b81168086529184528285208a8703905582518b81529384018a90529092908816917fc3d58168c5ae7397731d063d5bbf3d657854427343f4c083240f7aacaa2d0f62910160405180910390a461207884886000868660405180602001604052806000815250611e73565b600054610100900460ff166124775760405162461bcd60e51b815260040161072690613128565b81516020928301208151919092012061012e9190915561012f55565b606060006124a2836002613394565b6124ad906002612f12565b6001600160401b038111156124c4576124c4612855565b6040519080825280601f01601f1916602001820160405280156124ee576020820181803683370190505b509050600360fc1b816000815181106125095761250961301a565b60200101906001600160f81b031916908160001a905350600f60fb1b816001815181106125385761253861301a565b60200101906001600160f81b031916908160001a905350600061255c846002613394565b612567906001612f12565b90505b60018111156125df576f181899199a1a9b1b9c1cb0b131b232b360811b85600f166010811061259b5761259b61301a565b1a60f81b8282815181106125b1576125b161301a565b60200101906001600160f81b031916908160001a90535060049490941c936125d8816133b3565b905061256a565b508315610b195760405162461bcd60e51b815260206004820181905260248201527f537472696e67733a20686578206c656e67746820696e73756666696369656e746044820152606401610726565b612637816121fb565b6040516001600160a01b038216907fbc7cd75a20ee27fd9adebab32041f755214dbc6bffa90cc0225b39da2e5c2d3b90600090a250565b60606001600160a01b0383163b6126d65760405162461bcd60e51b815260206004820152602660248201527f416464726573733a2064656c65676174652063616c6c20746f206e6f6e2d636f6044820152651b9d1c9858dd60d21b6064820152608401610726565b600080846001600160a01b0316846040516126f191906133ca565b600060405180830381855af49150503d806000811461272c576040519150601f19603f3d011682016040523d82523d6000602084013e612731565b606091505b5091509150612759828260405180606001604052806027815260200161340760279139612762565b95945050505050565b60608315612771575081610b19565b8251156127815782518084602001fd5b8160405162461bcd60e51b81526004016107269190612a9c565b80356001600160a01b03811681146127b257600080fd5b919050565b600080604083850312156127ca57600080fd5b6127d38361279b565b946020939093013593505050565b6001600160e01b031981168114610d8957600080fd5b60006020828403121561280957600080fd5b8135610b19816127e1565b60008083601f84011261282657600080fd5b5081356001600160401b0381111561283d57600080fd5b60208301915083602082850101111561208157600080fd5b634e487b7160e01b600052604160045260246000fd5b601f8201601f191681016001600160401b038111828210171561289057612890612855565b6040525050565b60405160e081016001600160401b03811182821017156128b9576128b9612855565b60405290565b600082601f8301126128d057600080fd5b81356001600160401b038111156128e9576128e9612855565b604051612900601f8301601f19166020018261286b565b81815284602083860101111561291557600080fd5b816020850160208301376000918101602001919091529392505050565b600060e0828403121561294457600080fd5b61294c612897565b90506129578261279b565b81526129656020830161279b565b602082015260408201356040820152606082013560608201526080820135608082015260a082013560a082015260c08201356001600160401b038111156129ab57600080fd5b6129b7848285016128bf565b60c08301525092915050565b6000806000604084860312156129d857600080fd5b83356001600160401b03808211156129ef57600080fd5b6129fb87838801612814565b90955093506020860135915080821115612a1457600080fd5b50612a2186828701612932565b9150509250925092565b600060208284031215612a3d57600080fd5b5035919050565b60005b83811015612a5f578181015183820152602001612a47565b8381111561108b5750506000910152565b60008151808452612a88816020860160208601612a44565b601f01601f19169290920160200192915050565b602081526000610b196020830184612a70565b600080600060408486031215612ac457600080fd5b83356001600160401b0380821115612adb57600080fd5b612ae787838801612932565b94506020860135915080821115612afd57600080fd5b50612b0a86828701612814565b9497909650939450505050565b600060208284031215612b2957600080fd5b610b198261279b565b60006001600160401b03821115612b4b57612b4b612855565b5060051b60200190565b600082601f830112612b6657600080fd5b81356020612b7382612b32565b604051612b80828261286b565b83815260059390931b8501820192828101915086841115612ba057600080fd5b8286015b84811015612bbb5780358352918301918301612ba4565b509695505050505050565b600080600080600060a08688031215612bde57600080fd5b612be78661279b565b9450612bf56020870161279b565b935060408601356001600160401b0380821115612c1157600080fd5b612c1d89838a01612b55565b94506060880135915080821115612c3357600080fd5b612c3f89838a01612b55565b93506080880135915080821115612c5557600080fd5b50612c62888289016128bf565b9150509295509295909350565b60008060408385031215612c8257600080fd5b82359150612c926020840161279b565b90509250929050565b60008060408385031215612cae57600080fd5b82356001600160401b0380821115612cc557600080fd5b818501915085601f830112612cd957600080fd5b81356020612ce682612b32565b604051612cf3828261286b565b83815260059390931b8501820192828101915089841115612d1357600080fd5b948201945b83861015612d3857612d298661279b565b82529482019490820190612d18565b96505086013592505080821115612d4e57600080fd5b50612d5b85828601612b55565b9150509250929050565b600081518084526020808501945080840160005b83811015612d9557815187529582019590820190600101612d79565b509495945050505050565b602081526000610b196020830184612d65565b60008060408385031215612dc657600080fd5b612dcf8361279b565b915060208301356001600160401b03811115612dea57600080fd5b612d5b858286016128bf565b8015158114610d8957600080fd5b60008060408385031215612e1757600080fd5b612e208361279b565b91506020830135612e3081612df6565b809150509250929050565b600080600060608486031215612e5057600080fd5b612e598461279b565b95602085013595506040909401359392505050565b60008060408385031215612e8157600080fd5b612e8a8361279b565b9150612c926020840161279b565b600080600080600060a08688031215612eb057600080fd5b612eb98661279b565b9450612ec76020870161279b565b9350604086013592506060860135915060808601356001600160401b03811115612ef057600080fd5b612c62888289016128bf565b634e487b7160e01b600052601160045260246000fd5b60008219821115612f2557612f25612efc565b500190565b600060208284031215612f3c57600080fd5b8151610b1981612df6565b600181811c90821680612f5b57607f821691505b60208210811415612f7c57634e487b7160e01b600052602260045260246000fd5b50919050565b6020808252602c908201527f46756e6374696f6e206d7573742062652063616c6c6564207468726f7567682060408201526b19195b1959d85d1958d85b1b60a21b606082015260800190565b6020808252602c908201527f46756e6374696f6e206d7573742062652063616c6c6564207468726f7567682060408201526b6163746976652070726f787960a01b606082015260800190565b634e487b7160e01b600052603260045260246000fd5b600060001982141561304457613044612efc565b5060010190565b8183823760009101908152919050565b60208082526025908201527f455243313135353a207472616e7366657220746f20746865207a65726f206164604082015264647265737360d81b606082015260800190565b6020808252602a908201527f455243313135353a20696e73756666696369656e742062616c616e636520666f60408201526939103a3930b739b332b960b11b606082015260800190565b6040815260006130fd6040830185612d65565b8281036020840152610b158185612d65565b60006020828403121561312157600080fd5b5051919050565b6020808252602b908201527f496e697469616c697a61626c653a20636f6e7472616374206973206e6f74206960408201526a6e697469616c697a696e6760a81b606082015260800190565b6001600160a01b03868116825285166020820152604081018490526060810183905260a0608082018190526000906131ad90830184612a70565b979650505050505050565b6000602082840312156131ca57600080fd5b8151610b19816127e1565b600060033d11156110335760046000803e5060005160e01c90565b600060443d10156131fe5790565b6040516003193d81016004833e81513d6001600160401b03816024840111818411171561322d57505050505090565b82850191508151818111156132455750505050505090565b843d870101602082850101111561325f5750505050505090565b61326e6020828601018761286b565b509095945050505050565b60208082526028908201527f455243313135353a204552433131353552656365697665722072656a656374656040820152676420746f6b656e7360c01b606082015260800190565b6001600160a01b0386811682528516602082015260a0604082018190526000906132ed90830186612d65565b82810360608401526132ff8186612d65565b905082810360808401526133138185612a70565b98975050505050505050565b7f416363657373436f6e74726f6c3a206163636f756e7420000000000000000000815260008351613357816017850160208801612a44565b7001034b99036b4b9b9b4b733903937b6329607d1b6017918401918201528351613388816028840160208801612a44565b01602801949350505050565b60008160001904831182151516156133ae576133ae612efc565b500290565b6000816133c2576133c2612efc565b506000190190565b600082516133dc818460208701612a44565b919091019291505056fe360894a13ba1a3210667c828492db98dca3e2076cc3735a920a3ca505d382bbc416464726573733a206c6f772d6c6576656c2064656c65676174652063616c6c206661696c6564a2646970667358221220eb18999afb114a0b9adf3ae7ef4aac343d40daf34e6318d4c78a7321d634c8d264736f6c63430008090033",
  "immutableReferences": {
    "566": [
      {
        "length": 32,
        "start": 1207
      },
      {
        "length": 32,
        "start": 8332
      }
    ],
    "1390": [
      {
        "length": 32,
        "start": 3255
      },
      {
        "length": 32,
        "start": 3319
      },
      {
        "length": 32,
        "start": 3776
      },
      {
        "length": 32,
        "start": 3840
      },
      {
        "length": 32,
        "start": 3983
      }
    ]
  },
  "source": "// SPDX-License-Identifier: MIT\npragma solidity 0.8.9;\n\nimport \"./IMelandChainERC1155.sol\";\nimport \"@openzeppelin/contracts-upgradeable/proxy/utils/UUPSUpgradeable.sol\";\nimport \"@openzeppelin/contracts-upgradeable/token/ERC1155/IERC1155ReceiverUpgradeable.sol\";\nimport \"@openzeppelin/contracts-upgradeable/token/ERC1155/extensions/IERC1155MetadataURIUpgradeable.sol\";\nimport \"@openzeppelin/contracts-upgradeable/utils/AddressUpgradeable.sol\";\nimport \"@openzeppelin/contracts-upgradeable/utils/introspection/ERC165Upgradeable.sol\";\nimport \"@openzeppelin/contracts-upgradeable/metatx/ERC2771ContextUpgradeable.sol\";\nimport \"@openzeppelin/contracts-upgradeable/utils/cryptography/ECDSAUpgradeable.sol\";\nimport \"@openzeppelin/contracts-upgradeable/utils/cryptography/draft-EIP712Upgradeable.sol\";\nimport \"./IMelandCID.sol\";\nimport \"../metatx/IMelandForwarder.sol\";\nimport \"./ERC1155Upgradeable.sol\";\nimport \"../common/MelandAccessRoles.sol\";\n\n// Cross-chain NFT of Meland subchains.\n// Implemented to allow NFTs from the Meland subchain to circulate and be traded on the public chain.\n// Allowing a part of contracts, marketplace, AMM exchange to construct it based on user's signature and meland mpc's signature.\n// Then when the user buys it, it is charged to the Meland subchain\ncontract MelandChainERC1155 is\n    Initializable,\n    MelandAccessRoles,\n    ERC1155Upgradeable,\n    IMelandChainERC1155,\n    IMelandCID,\n    UUPSUpgradeable,\n    EIP712Upgradeable,\n    ERC2771ContextUpgradeable\n{\n    using ECDSAUpgradeable for bytes32;\n    using AddressUpgradeable for address;\n\n    bytes32 private constant _TYPEHASH =\n        keccak256(\n            \"SwapinParams(address from,address to,uint256 tokenId,uint256 cid,uint256 value,uint256 nonce,bytes data)\"\n        );\n\n    // set of holders, can be this bridge or other bridges\n    mapping(address => bool) public isHolder;\n    address[] public holders;\n    mapping(uint256 => uint256) private cidByTokenId;\n\n    mapping(address => uint256) private _nonces;\n\n    /// @custom:oz-upgrades-unsafe-allow constructor\n    constructor(address trustedForwarder)\n        ERC2771ContextUpgradeable(trustedForwarder)\n    {}\n\n    function initialize(address mpc) public initializer {\n        __MelandAccessRoles_init(mpc);\n        __UUPSUpgradeable_init();\n        __EIP712_init(\"MelandChainERC1155\", \"1\");\n    }\n\n    function getNonce(address from) public view returns (uint256) {\n        return _nonces[from];\n    }\n\n    /**\n     * @dev See {IERC165-supportsInterface}.\n     */\n    function supportsInterface(bytes4 interfaceId)\n        public\n        view\n        virtual\n        override(\n            AccessControlUpgradeable,\n            ERC1155Upgradeable,\n            IERC165Upgradeable\n        )\n        returns (bool)\n    {\n        return\n            interfaceId == type(IERC1155Upgradeable).interfaceId ||\n            interfaceId == type(IERC1155MetadataURIUpgradeable).interfaceId ||\n            interfaceId == type(IMelandChainERC1155).interfaceId ||\n            interfaceId == type(IMelandCID).interfaceId ||\n            super.supportsInterface(interfaceId);\n    }\n\n    function addHolder(address holder) public onlyRole(GM_ROLE) {\n        isHolder[holder] = true;\n        holders.push(holder);\n    }\n\n    function callSwapoutWithTokenId(\n        address to,\n        uint256 tokenId,\n        uint256 value\n    ) external {\n        address from = _msgSender();\n        _callSwapoutWithTokenId(from, to, tokenId, value);\n    }\n\n    function _callSwapoutWithTokenId(\n        address from,\n        address to,\n        uint256 tokenId,\n        uint256 value\n    ) internal {\n        _burn(from, tokenId, value);\n        emit SwapoutWithTokenId(to, tokenId, value);\n    }\n\n    function _MPCPermit2Keccak256(bytes calldata signature)\n        internal\n        pure\n        returns (bytes32)\n    {\n        return keccak256(signature);\n    }\n\n    function verify(SwapinParams memory swapinparams, bytes calldata signature)\n        public\n        view\n        returns (bool)\n    {\n        // TODO\n        return true;\n        // \"SwapinParams(address from,address to,uint256 tokenId,uint256 cid,uint256 value,uint256 nonce,bytes data)\"\n        address signer = _hashTypedDataV4(\n            keccak256(\n                abi.encode(\n                    _TYPEHASH,\n                    swapinparams.from,\n                    swapinparams.to,\n                    swapinparams.tokenId,\n                    swapinparams.cid,\n                    swapinparams.value,\n                    swapinparams.nonce,\n                    keccak256(swapinparams.data)\n                )\n            )\n        ).recover(signature);\n        return\n            _nonces[swapinparams.from] == swapinparams.nonce &&\n            hasRole(MINTER_ROLE, signer);\n    }\n\n    function callSwapinWithTokenId(\n        bytes calldata signature,\n        SwapinParams memory swapinparams\n    ) external {\n        require(\n            verify(swapinparams, signature),\n            \"Meland.ai.MelandChainERC1155#callSwapinWithTokenId: Invalid signature\"\n        );\n        _nonces[swapinparams.from] = swapinparams.nonce + 1;\n        bytes32 signatureKeccak256 = _MPCPermit2Keccak256(signature);\n        cidByTokenId[swapinparams.tokenId] = swapinparams.cid;\n\n        // TODO test\n        bool success = true;\n        _mint(\n            swapinparams.from,\n            swapinparams.to,\n            swapinparams.tokenId,\n            swapinparams.value,\n            swapinparams.data\n        );\n        if (success) {\n            emit SwapinWithTokenId(\n                signatureKeccak256,\n                swapinparams.to,\n                swapinparams.tokenId,\n                swapinparams.value\n            );\n        } else {\n            emit RefundSwapin(signatureKeccak256, \"\");\n        }\n\n        address realsender = msg.sender;\n        if (\n            realsender.isContract() &&\n            IERC165Upgradeable(realsender).supportsInterface(\n                type(IMelandForwarder).interfaceId\n            )\n        ) {\n            IMelandForwarder(realsender).setExecuted(success);\n        }\n    }\n\n    function _authorizeUpgrade(address newImplementation)\n        internal\n        override\n        onlyRole(UPGRADER_ROLE)\n    {}\n\n    function _msgData()\n        internal\n        view\n        virtual\n        override(ContextUpgradeable, ERC2771ContextUpgradeable)\n        returns (bytes calldata)\n    {\n        return ERC2771ContextUpgradeable._msgData();\n    }\n\n    function _msgSender()\n        internal\n        view\n        virtual\n        override(ContextUpgradeable, ERC2771ContextUpgradeable)\n        returns (address)\n    {\n        return ERC2771ContextUpgradeable._msgSender();\n    }\n\n    function getCidByTokenId(uint256 tokenId) external view returns (uint256) {\n        return cidByTokenId[tokenId];\n    }\n\n    // The following functions are overrides required by Solidity.\n    function _afterTokenTransfer(\n        address operator,\n        address from,\n        address to,\n        uint256[] memory ids,\n        uint256[] memory amounts,\n        bytes memory data\n    ) internal override(ERC1155Upgradeable) {\n        if (to != address(0) && !isHolder[to]) {\n            for (uint256 i = 0; i < ids.length; i++) {\n                _callSwapoutWithTokenId(to, to, ids[i], amounts[i]);\n            }\n        }\n        super._afterTokenTransfer(operator, from, to, ids, amounts, data);\n    }\n}\n",
  "sourcePath": "/Users/alberthuang/code/contracts-v2/contracts/nft/MelandChainERC1155.sol",
  "compiler": {
    "name": "solc",
    "version": "0.8.9+commit.e5eed63a.Emscripten.clang"
  },
  "schemaVersion": "3.4.8",
  "updatedAt": "2022-07-13T06:11:37.559Z",
  "networkType": "ethereum",
  "devdoc": {
    "kind": "dev",
    "methods": {
      "balanceOf(address,uint256)": {
        "details": "See {IERC1155-balanceOf}. Requirements: - `account` cannot be the zero address."
      },
      "balanceOfBatch(address[],uint256[])": {
        "details": "See {IERC1155-balanceOfBatch}. Requirements: - `accounts` and `ids` must have the same length."
      },
      "constructor": {
        "custom:oz-upgrades-unsafe-allow": "constructor"
      },
      "getRoleAdmin(bytes32)": {
        "details": "Returns the admin role that controls `role`. See {grantRole} and {revokeRole}. To change a role's admin, use {_setRoleAdmin}."
      },
      "grantRole(bytes32,address)": {
        "details": "Grants `role` to `account`. If `account` had not been already granted `role`, emits a {RoleGranted} event. Requirements: - the caller must have ``role``'s admin role. May emit a {RoleGranted} event."
      },
      "hasRole(bytes32,address)": {
        "details": "Returns `true` if `account` has been granted `role`."
      },
      "isApprovedForAll(address,address)": {
        "details": "See {IERC1155-isApprovedForAll}."
      },
      "proxiableUUID()": {
        "details": "Implementation of the ERC1822 {proxiableUUID} function. This returns the storage slot used by the implementation. It is used to validate that the this implementation remains valid after an upgrade. IMPORTANT: A proxy pointing at a proxiable contract should not be considered proxiable itself, because this risks bricking a proxy that upgrades to it, by delegating to itself until out of gas. Thus it is critical that this function revert if invoked through a proxy. This is guaranteed by the `notDelegated` modifier."
      },
      "renounceRole(bytes32,address)": {
        "details": "Revokes `role` from the calling account. Roles are often managed via {grantRole} and {revokeRole}: this function's purpose is to provide a mechanism for accounts to lose their privileges if they are compromised (such as when a trusted device is misplaced). If the calling account had been revoked `role`, emits a {RoleRevoked} event. Requirements: - the caller must be `account`. May emit a {RoleRevoked} event."
      },
      "revokeRole(bytes32,address)": {
        "details": "Revokes `role` from `account`. If `account` had been granted `role`, emits a {RoleRevoked} event. Requirements: - the caller must have ``role``'s admin role. May emit a {RoleRevoked} event."
      },
      "safeBatchTransferFrom(address,address,uint256[],uint256[],bytes)": {
        "details": "See {IERC1155-safeBatchTransferFrom}."
      },
      "safeTransferFrom(address,address,uint256,uint256,bytes)": {
        "details": "See {IERC1155-safeTransferFrom}."
      },
      "setApprovalForAll(address,bool)": {
        "details": "See {IERC1155-setApprovalForAll}."
      },
      "supportsInterface(bytes4)": {
        "details": "See {IERC165-supportsInterface}."
      },
      "upgradeTo(address)": {
        "details": "Upgrade the implementation of the proxy to `newImplementation`. Calls {_authorizeUpgrade}. Emits an {Upgraded} event."
      },
      "upgradeToAndCall(address,bytes)": {
        "details": "Upgrade the implementation of the proxy to `newImplementation`, and subsequently execute the function call encoded in `data`. Calls {_authorizeUpgrade}. Emits an {Upgraded} event."
      },
      "uri(uint256)": {
        "details": "See {IERC1155MetadataURI-uri}. This implementation returns the same URI for *all* token types. It relies on the token type ID substitution mechanism https://eips.ethereum.org/EIPS/eip-1155#metadata[defined in the EIP]. Clients calling this function must replace the `\\{id\\}` substring with the actual token type ID."
      }
    },
    "version": 1
  },
  "userdoc": {
    "kind": "user",
    "methods": {},
    "version": 1
  }
}