{
  "contractName": "MelandSwapFactory",
  "abi": [
    {
      "inputs": [
        {
          "internalType": "address",
          "name": "trustedForwarder",
          "type": "address"
        }
      ],
      "stateMutability": "nonpayable",
      "type": "constructor"
    },
    {
      "anonymous": false,
      "inputs": [
        {
          "indexed": false,
          "internalType": "address",
          "name": "previousAdmin",
          "type": "address"
        },
        {
          "indexed": false,
          "internalType": "address",
          "name": "newAdmin",
          "type": "address"
        }
      ],
      "name": "AdminChanged",
      "type": "event"
    },
    {
      "anonymous": false,
      "inputs": [
        {
          "indexed": true,
          "internalType": "address",
          "name": "beacon",
          "type": "address"
        }
      ],
      "name": "BeaconUpgraded",
      "type": "event"
    },
    {
      "anonymous": false,
      "inputs": [
        {
          "indexed": true,
          "internalType": "address",
          "name": "pool",
          "type": "address"
        },
        {
          "indexed": false,
          "internalType": "address",
          "name": "erc20",
          "type": "address"
        },
        {
          "indexed": false,
          "internalType": "bytes32",
          "name": "productId",
          "type": "bytes32"
        }
      ],
      "name": "CreatePool",
      "type": "event"
    },
    {
      "anonymous": false,
      "inputs": [
        {
          "indexed": false,
          "internalType": "uint8",
          "name": "version",
          "type": "uint8"
        }
      ],
      "name": "Initialized",
      "type": "event"
    },
    {
      "anonymous": false,
      "inputs": [
        {
          "indexed": true,
          "internalType": "bytes32",
          "name": "role",
          "type": "bytes32"
        },
        {
          "indexed": true,
          "internalType": "bytes32",
          "name": "previousAdminRole",
          "type": "bytes32"
        },
        {
          "indexed": true,
          "internalType": "bytes32",
          "name": "newAdminRole",
          "type": "bytes32"
        }
      ],
      "name": "RoleAdminChanged",
      "type": "event"
    },
    {
      "anonymous": false,
      "inputs": [
        {
          "indexed": true,
          "internalType": "bytes32",
          "name": "role",
          "type": "bytes32"
        },
        {
          "indexed": true,
          "internalType": "address",
          "name": "account",
          "type": "address"
        },
        {
          "indexed": true,
          "internalType": "address",
          "name": "sender",
          "type": "address"
        }
      ],
      "name": "RoleGranted",
      "type": "event"
    },
    {
      "anonymous": false,
      "inputs": [
        {
          "indexed": true,
          "internalType": "bytes32",
          "name": "role",
          "type": "bytes32"
        },
        {
          "indexed": true,
          "internalType": "address",
          "name": "account",
          "type": "address"
        },
        {
          "indexed": true,
          "internalType": "address",
          "name": "sender",
          "type": "address"
        }
      ],
      "name": "RoleRevoked",
      "type": "event"
    },
    {
      "anonymous": false,
      "inputs": [
        {
          "indexed": true,
          "internalType": "address",
          "name": "implementation",
          "type": "address"
        }
      ],
      "name": "Upgraded",
      "type": "event"
    },
    {
      "inputs": [],
      "name": "DEFAULT_ADMIN_ROLE",
      "outputs": [
        {
          "internalType": "bytes32",
          "name": "",
          "type": "bytes32"
        }
      ],
      "stateMutability": "view",
      "type": "function"
    },
    {
      "inputs": [],
      "name": "DOMAIN_SEPARATOR",
      "outputs": [
        {
          "internalType": "bytes32",
          "name": "",
          "type": "bytes32"
        }
      ],
      "stateMutability": "view",
      "type": "function"
    },
    {
      "inputs": [],
      "name": "GM_ROLE",
      "outputs": [
        {
          "internalType": "bytes32",
          "name": "",
          "type": "bytes32"
        }
      ],
      "stateMutability": "view",
      "type": "function"
    },
    {
      "inputs": [],
      "name": "MINTER_ROLE",
      "outputs": [
        {
          "internalType": "bytes32",
          "name": "",
          "type": "bytes32"
        }
      ],
      "stateMutability": "view",
      "type": "function"
    },
    {
      "inputs": [],
      "name": "UPGRADER_ROLE",
      "outputs": [
        {
          "internalType": "bytes32",
          "name": "",
          "type": "bytes32"
        }
      ],
      "stateMutability": "view",
      "type": "function"
    },
    {
      "inputs": [
        {
          "internalType": "bytes32",
          "name": "role",
          "type": "bytes32"
        }
      ],
      "name": "getRoleAdmin",
      "outputs": [
        {
          "internalType": "bytes32",
          "name": "",
          "type": "bytes32"
        }
      ],
      "stateMutability": "view",
      "type": "function"
    },
    {
      "inputs": [
        {
          "internalType": "bytes32",
          "name": "role",
          "type": "bytes32"
        },
        {
          "internalType": "address",
          "name": "account",
          "type": "address"
        }
      ],
      "name": "grantRole",
      "outputs": [],
      "stateMutability": "nonpayable",
      "type": "function"
    },
    {
      "inputs": [
        {
          "internalType": "bytes32",
          "name": "role",
          "type": "bytes32"
        },
        {
          "internalType": "address",
          "name": "account",
          "type": "address"
        }
      ],
      "name": "hasRole",
      "outputs": [
        {
          "internalType": "bool",
          "name": "",
          "type": "bool"
        }
      ],
      "stateMutability": "view",
      "type": "function"
    },
    {
      "inputs": [
        {
          "internalType": "address",
          "name": "forwarder",
          "type": "address"
        }
      ],
      "name": "isTrustedForwarder",
      "outputs": [
        {
          "internalType": "bool",
          "name": "",
          "type": "bool"
        }
      ],
      "stateMutability": "view",
      "type": "function"
    },
    {
      "inputs": [],
      "name": "productManager",
      "outputs": [
        {
          "internalType": "contract IProductManager",
          "name": "",
          "type": "address"
        }
      ],
      "stateMutability": "view",
      "type": "function"
    },
    {
      "inputs": [],
      "name": "proxiableUUID",
      "outputs": [
        {
          "internalType": "bytes32",
          "name": "",
          "type": "bytes32"
        }
      ],
      "stateMutability": "view",
      "type": "function"
    },
    {
      "inputs": [
        {
          "internalType": "bytes32",
          "name": "role",
          "type": "bytes32"
        },
        {
          "internalType": "address",
          "name": "account",
          "type": "address"
        }
      ],
      "name": "renounceRole",
      "outputs": [],
      "stateMutability": "nonpayable",
      "type": "function"
    },
    {
      "inputs": [
        {
          "internalType": "bytes32",
          "name": "role",
          "type": "bytes32"
        },
        {
          "internalType": "address",
          "name": "account",
          "type": "address"
        }
      ],
      "name": "revokeRole",
      "outputs": [],
      "stateMutability": "nonpayable",
      "type": "function"
    },
    {
      "inputs": [
        {
          "internalType": "bytes4",
          "name": "interfaceId",
          "type": "bytes4"
        }
      ],
      "name": "supportsInterface",
      "outputs": [
        {
          "internalType": "bool",
          "name": "",
          "type": "bool"
        }
      ],
      "stateMutability": "view",
      "type": "function"
    },
    {
      "inputs": [
        {
          "internalType": "address",
          "name": "newImplementation",
          "type": "address"
        }
      ],
      "name": "upgradeTo",
      "outputs": [],
      "stateMutability": "nonpayable",
      "type": "function"
    },
    {
      "inputs": [
        {
          "internalType": "address",
          "name": "newImplementation",
          "type": "address"
        },
        {
          "internalType": "bytes",
          "name": "data",
          "type": "bytes"
        }
      ],
      "name": "upgradeToAndCall",
      "outputs": [],
      "stateMutability": "payable",
      "type": "function"
    },
    {
      "inputs": [
        {
          "internalType": "address",
          "name": "mpc",
          "type": "address"
        },
        {
          "internalType": "contract IProductManager",
          "name": "_pm",
          "type": "address"
        }
      ],
      "name": "initialize",
      "outputs": [],
      "stateMutability": "nonpayable",
      "type": "function"
    },
    {
      "inputs": [
        {
          "internalType": "address",
          "name": "mabyePool",
          "type": "address"
        }
      ],
      "name": "isPool",
      "outputs": [
        {
          "internalType": "bool",
          "name": "",
          "type": "bool"
        }
      ],
      "stateMutability": "view",
      "type": "function"
    },
    {
      "inputs": [
        {
          "internalType": "contract IERC1155",
          "name": "erc1155",
          "type": "address"
        },
        {
          "internalType": "uint256",
          "name": "tokenId",
          "type": "uint256"
        },
        {
          "internalType": "contract IERC20Metadata",
          "name": "erc20",
          "type": "address"
        },
        {
          "internalType": "uint256",
          "name": "erc20Amount",
          "type": "uint256"
        },
        {
          "internalType": "uint256",
          "name": "erc1155Amount",
          "type": "uint256"
        }
      ],
      "name": "createPoolByCommunity",
      "outputs": [],
      "stateMutability": "nonpayable",
      "type": "function"
    },
    {
      "inputs": [
        {
          "internalType": "bytes32",
          "name": "productId",
          "type": "bytes32"
        },
        {
          "internalType": "contract IERC20Metadata",
          "name": "erc20token",
          "type": "address"
        }
      ],
      "name": "getStock",
      "outputs": [
        {
          "internalType": "uint256",
          "name": "",
          "type": "uint256"
        }
      ],
      "stateMutability": "view",
      "type": "function"
    },
    {
      "inputs": [
        {
          "internalType": "bytes32",
          "name": "productId",
          "type": "bytes32"
        },
        {
          "internalType": "contract IERC20Metadata",
          "name": "erc20token",
          "type": "address"
        },
        {
          "internalType": "uint256",
          "name": "buyamount",
          "type": "uint256"
        }
      ],
      "name": "getBuyPrice",
      "outputs": [
        {
          "internalType": "uint256",
          "name": "",
          "type": "uint256"
        }
      ],
      "stateMutability": "view",
      "type": "function"
    },
    {
      "inputs": [
        {
          "internalType": "bytes32",
          "name": "",
          "type": "bytes32"
        },
        {
          "internalType": "contract IERC20Metadata",
          "name": "erc20token",
          "type": "address"
        }
      ],
      "name": "beginBuy",
      "outputs": [],
      "stateMutability": "nonpayable",
      "type": "function"
    },
    {
      "inputs": [
        {
          "internalType": "bytes32",
          "name": "productId",
          "type": "bytes32"
        },
        {
          "internalType": "contract IERC20Metadata",
          "name": "erc20token",
          "type": "address"
        },
        {
          "internalType": "address",
          "name": "buyer",
          "type": "address"
        },
        {
          "internalType": "uint256",
          "name": "buyamount",
          "type": "uint256"
        },
        {
          "internalType": "uint256",
          "name": "tknRate",
          "type": "uint256"
        }
      ],
      "name": "buy",
      "outputs": [],
      "stateMutability": "nonpayable",
      "type": "function"
    }
  ],
  "bytecode": "0x60e06040523060805234801561001457600080fd5b5060405162005fdd38038062005fdd8339810160408190526100359161004b565b6001600160a01b031660a081905260c05261007b565b60006020828403121561005d57600080fd5b81516001600160a01b038116811461007457600080fd5b9392505050565b60805160a05160c051615f0f620000ce600039600061180401526000818161038001526119840152600081816109b0015281816109f301528181610cfc01528181610d3f0152610dd70152615f0f6000f3fe6080604052600436106200015b5760003560e01c80634f1ef28611620000c5578063a217fddf1162000078578063a217fddf1462000438578063b5674881146200044f578063d53913931462000474578063d547741f14620004aa578063f426306f14620004cf578063f72c0d8b146200050b57600080fd5b80634f1ef286146200033057806352d1902d1462000347578063572b6c05146200035f5780635b16ebb714620003b057806372386c8a14620003ee57806391d14854146200041357600080fd5b80633644e515116200011e5780633644e515146200025f57806336568abe14620002775780633659cfe6146200029c57806344d662f714620002c157806346a4988014620002e6578063485cc955146200030b57600080fd5b806301ffc9a71462000160578063248a9ca3146200019a5780632d79471114620001dd5780632f2ff15d146200020457806330c7be2c1462000229575b600080fd5b3480156200016d57600080fd5b50620001856200017f36600462001dcc565b62000541565b60405190151581526020015b60405180910390f35b348015620001a757600080fd5b50620001ce620001b936600462001df8565b60009081526065602052604090206001015490565b60405190815260200162000191565b348015620001ea57600080fd5b5062000202620001fc36600462001e28565b62000579565b005b3480156200021157600080fd5b50620002026200022336600462001e7f565b620008e3565b3480156200023657600080fd5b50620001ce7ff5eb84615c2a00ecaf817d13794ebd6299c9e01c395bf4018453f13f577f544981565b3480156200026c57600080fd5b50620001ce60975481565b3480156200028457600080fd5b50620002026200029636600462001e7f565b62000911565b348015620002a957600080fd5b5062000202620002bb36600462001eb2565b620009a5565b348015620002ce57600080fd5b5062000202620002e036600462001e7f565b62000a91565b348015620002f357600080fd5b50620001ce6200030536600462001e7f565b62000b14565b3480156200031857600080fd5b50620002026200032a36600462001ed2565b62000c4e565b620002026200034136600462001f1b565b62000cf1565b3480156200035457600080fd5b50620001ce62000dca565b3480156200036c57600080fd5b50620001856200037e36600462001eb2565b7f00000000000000000000000000000000000000000000000000000000000000006001600160a01b0390811691161490565b348015620003bd57600080fd5b5062000185620003cf36600462001eb2565b6001600160a01b03166000908152610130602052604090205460ff1690565b348015620003fb57600080fd5b50620001ce6200040d36600462001feb565b62000e80565b3480156200042057600080fd5b50620001856200043236600462001e7f565b62000f59565b3480156200044557600080fd5b50620001ce600081565b3480156200045c57600080fd5b50620002026200046e36600462002026565b62000f84565b3480156200048157600080fd5b50620001ce7f9f2df0fed2c77648de5860a4cc508cd0818c85b8b8a1ab4ceeef8d981c8956a681565b348015620004b757600080fd5b5062000202620004c936600462001e7f565b6200115a565b348015620004dc57600080fd5b5061012e54620004f2906001600160a01b031681565b6040516001600160a01b03909116815260200162000191565b3480156200051857600080fd5b50620001ce7f189ab7a9244df0848122154315af71fe140f3db0fe014031783b0946b8c9d2e381565b60006001600160e01b03198216637965db0b60e01b14806200057357506301ffc9a760e01b6001600160e01b03198316145b92915050565b60008211620005df5760405162461bcd60e51b815260206004820152602760248201527f4d656c616e6453776170466163746f7279236275793a20627579616d6f756e74604482015266206c657373203160c81b60648201526084015b60405180910390fd5b6040516370a0823160e01b81523060048201526000906001600160a01b038616906370a082319060240160206040518083038186803b1580156200062257600080fd5b505afa15801562000637573d6000803e3d6000fd5b505050506040513d601f19601f820116820180604052508101906200065d919062002065565b600087815261012f602090815260408083206001600160a01b03808b1685529252909120549192501680620006e45760405162461bcd60e51b815260206004820152602660248201527f4d656c616e6453776170466163746f7279236275793a20706f6f6c206e6f742060448201526565786973747360d01b6064820152608401620005d6565b60405163023536c560e21b81526004810185905281906000906001600160a01b038316906308d4db149060240160606040518083038186803b1580156200072a57600080fd5b505afa1580156200073f573d6000803e3d6000fd5b505050506040513d601f19601f820116820180604052508101906200076591906200207f565b50509050600061013154856200077c9190620020c4565b9050818114620007df5760405162461bcd60e51b815260206004820152602760248201527f4d656c616e6453776170466163746f7279236275793a206e6f7420656e6f756760448201526634103a37b5b2b760c91b6064820152608401620005d6565b60405163095ea7b360e01b81526001600160a01b038581166004830152602482018490528a169063095ea7b390604401602060405180830381600087803b1580156200082a57600080fd5b505af11580156200083f573d6000803e3d6000fd5b505050506040513d601f19601f82011682018060405250810190620008659190620020de565b506040516370d9fb9d60e11b81526001600160a01b038981166004830152306024830152604482018990526064820188905284169063e1b3f73a90608401600060405180830381600087803b158015620008be57600080fd5b505af1158015620008d3573d6000803e3d6000fd5b5050505050505050505050505050565b600082815260656020526040902060010154620009008162001183565b6200090c838362001198565b505050565b6200091b62001224565b6001600160a01b0316816001600160a01b031614620009955760405162461bcd60e51b815260206004820152602f60248201527f416363657373436f6e74726f6c3a2063616e206f6e6c792072656e6f756e636560448201526e103937b632b9903337b91039b2b63360891b6064820152608401620005d6565b620009a1828262001235565b5050565b306001600160a01b037f0000000000000000000000000000000000000000000000000000000000000000161415620009f15760405162461bcd60e51b8152600401620005d69062002102565b7f00000000000000000000000000000000000000000000000000000000000000006001600160a01b031662000a3c60008051602062005e93833981519152546001600160a01b031690565b6001600160a01b03161462000a655760405162461bcd60e51b8152600401620005d6906200214e565b62000a7081620012bf565b6040805160008082526020820190925262000a8e91839190620012eb565b50565b6040516370a0823160e01b81523060048201526001600160a01b038216906370a082319060240160206040518083038186803b15801562000ad157600080fd5b505afa15801562000ae6573d6000803e3d6000fd5b505050506040513d601f19601f8201168201806040525081019062000b0c919062002065565b610131555050565b600082815261012f602090815260408083206001600160a01b0380861685529252822054168062000b4a57600091505062000573565b6000819050806001600160a01b03166338ce47436040518163ffffffff1660e01b815260040160206040518083038186803b15801562000b8957600080fd5b505afa15801562000b9e573d6000803e3d6000fd5b505050506040513d601f19601f8201168201806040525081019062000bc4919062002065565b816001600160a01b031663a4b59c256040518163ffffffff1660e01b815260040160206040518083038186803b15801562000bfe57600080fd5b505afa15801562000c13573d6000803e3d6000fd5b505050506040513d601f19601f8201168201806040525081019062000c39919062002065565b62000c4591906200219a565b95945050505050565b600062000c5c600162001473565b9050801562000c75576000805461ff0019166101001790555b62000c7f62001503565b62000c8a8362001572565b61012e80546001600160a01b0319166001600160a01b03841617905580156200090c576000805461ff0019169055604051600181527f7f26b83ff96e1f2b6a682f133852f6798a09c465da95921460cefb38474024989060200160405180910390a1505050565b306001600160a01b037f000000000000000000000000000000000000000000000000000000000000000016141562000d3d5760405162461bcd60e51b8152600401620005d69062002102565b7f00000000000000000000000000000000000000000000000000000000000000006001600160a01b031662000d8860008051602062005e93833981519152546001600160a01b031690565b6001600160a01b03161462000db15760405162461bcd60e51b8152600401620005d6906200214e565b62000dbc82620012bf565b620009a182826001620012eb565b6000306001600160a01b037f0000000000000000000000000000000000000000000000000000000000000000161462000e6c5760405162461bcd60e51b815260206004820152603860248201527f555550535570677261646561626c653a206d757374206e6f742062652063616c60448201527f6c6564207468726f7567682064656c656761746563616c6c00000000000000006064820152608401620005d6565b5060008051602062005e9383398151915290565b60008162000e915750600062000f52565b600084815261012f602090815260408083206001600160a01b038088168552925290912054168062000ec857600091505062000f52565b60405163023536c560e21b81526004810184905281906000906001600160a01b038316906308d4db149060240160606040518083038186803b15801562000f0e57600080fd5b505afa15801562000f23573d6000803e3d6000fd5b505050506040513d601f19601f8201168201806040525081019062000f4991906200207f565b50909450505050505b9392505050565b60009182526065602090815260408084206001600160a01b0393909316845291905290205460ff1690565b7ff5eb84615c2a00ecaf817d13794ebd6299c9e01c395bf4018453f13f577f544962000fb08162001183565b600062000fbc62001224565b9050600062000fcd888888620016dd565b60405163095ea7b360e01b81526001600160a01b038083166004830152602482018890529192509087169063095ea7b390604401602060405180830381600087803b1580156200101c57600080fd5b505af115801562001031573d6000803e3d6000fd5b505050506040513d601f19601f82011682018060405250810190620010579190620020de565b506040516323b872dd60e01b81526001600160a01b038381166004830152306024830152604482018790528716906323b872dd90606401602060405180830381600087803b158015620010a957600080fd5b505af1158015620010be573d6000803e3d6000fd5b505050506040513d601f19601f82011682018060405250810190620010e49190620020de565b5060405163525154fb60e11b81526001600160a01b038381166004830152602482018790526044820186905282169063a4a2a9f690606401600060405180830381600087803b1580156200113757600080fd5b505af11580156200114c573d6000803e3d6000fd5b505050505050505050505050565b600082815260656020526040902060010154620011778162001183565b6200090c838362001235565b62000a8e816200119262001224565b62001911565b620011a4828262000f59565b620009a15760008281526065602090815260408083206001600160a01b03851684529091529020805460ff19166001179055620011e062001224565b6001600160a01b0316816001600160a01b0316837f2f8788117e7eff1d82e926ec794901d17c78024a50270940304540a733656f0d60405160405180910390a45050565b60006200123062001980565b905090565b62001241828262000f59565b15620009a15760008281526065602090815260408083206001600160a01b03851684529091529020805460ff191690556200127b62001224565b6001600160a01b0316816001600160a01b0316837ff6391f5c32d9c69d2a47ea670b442974b53935d1edc7fd64eb21e047a839171b60405160405180910390a45050565b7f189ab7a9244df0848122154315af71fe140f3db0fe014031783b0946b8c9d2e3620009a18162001183565b7f4910fdfa16fed3260ed0e7147f7cc6da11a60208b5b9406d12a635614ffd91435460ff161562001321576200090c83620019c6565b826001600160a01b03166352d1902d6040518163ffffffff1660e01b815260040160206040518083038186803b1580156200135b57600080fd5b505afa9250505080156200138e575060408051601f3d908101601f191682019092526200138b9181019062002065565b60015b620013f35760405162461bcd60e51b815260206004820152602e60248201527f45524331393637557067726164653a206e657720696d706c656d656e7461746960448201526d6f6e206973206e6f74205555505360901b6064820152608401620005d6565b60008051602062005e938339815191528114620014655760405162461bcd60e51b815260206004820152602960248201527f45524331393637557067726164653a20756e737570706f727465642070726f786044820152681a58589b195555525160ba1b6064820152608401620005d6565b506200090c83838362001a65565b60008054610100900460ff1615620014bf578160ff166001148015620014985750303b155b620014b75760405162461bcd60e51b8152600401620005d690620021bd565b506000919050565b60005460ff808416911610620014e95760405162461bcd60e51b8152600401620005d690620021bd565b506000805460ff191660ff92909216919091179055600190565b600054610100900460ff16620015705760405162461bcd60e51b815260206004820152602b60248201527f496e697469616c697a61626c653a20636f6e7472616374206973206e6f74206960448201526a6e697469616c697a696e6760a81b6064820152608401620005d6565b565b6200157c62001503565b6200158960008262001198565b620015b57ff5eb84615c2a00ecaf817d13794ebd6299c9e01c395bf4018453f13f577f54498262001198565b620015e17f9f2df0fed2c77648de5860a4cc508cd0818c85b8b8a1ab4ceeef8d981c8956a68262001198565b6200160d7f189ab7a9244df0848122154315af71fe140f3db0fe014031783b0946b8c9d2e33362001198565b5060408051808201825260068152651b595b185b9960d21b6020918201528151808301835260018152603160f81b9082015281517f8b73c3c69bb8fe3d512ecc4cf759cc79239f7b179b0ffacaa9a75d522b39400f818301527f314ed1331a8d68d6e7c652158abe27c46bf91bd45ef86ab66f92d6500b1056eb818401527fc89efdaa54c0f20c7adf612882df0950f5a951637e0307cdcb4c672f298b8bc660608201524660808201523060a0808301919091528351808303909101815260c09091019092528151910120609755565b61012e54604051631e3d5cd960e21b81526001600160a01b0385811660048301526024820185905260009283929116906378f573649060440160206040518083038186803b1580156200172f57600080fd5b505afa15801562001744573d6000803e3d6000fd5b505050506040513d601f19601f820116820180604052508101906200176a919062002065565b600081815261012f602090815260408083206001600160a01b0388811685529252909120549192501615620017fc5760405162461bcd60e51b815260206004820152603160248201527f4d656c616e6453776170466163746f7279235f637265617465506f6f6c3a20446044820152703ab83634b1b0ba329031b932b0ba34b7b760791b6064820152608401620005d6565b6000858486847f0000000000000000000000000000000000000000000000000000000000000000604051620018319062001dbe565b6001600160a01b039586168152938516602085015260408401929092526060830152909116608082015260a001604051809103906000f0801580156200187b573d6000803e3d6000fd5b50600083815261012f602090815260408083206001600160a01b0389811680865291845282852080546001600160a01b0319169187169182179055808552610130845293829020805460ff19166001179055815190815291820186905292935090917f595dc58b445544a2bb0481b04e04cc98dd021b0fa8c62048c8941d5ff36434c5910160405180910390a295945050505050565b6200191d828262000f59565b620009a15762001938816001600160a01b0316601462001a96565b6200194583602062001a96565b604051602001620019589291906200223a565b60408051601f198184030181529082905262461bcd60e51b8252620005d691600401620022b3565b60007f00000000000000000000000000000000000000000000000000000000000000006001600160a01b0316331415620019c1575060131936013560601c90565b503390565b6001600160a01b0381163b62001a355760405162461bcd60e51b815260206004820152602d60248201527f455243313936373a206e657720696d706c656d656e746174696f6e206973206e60448201526c1bdd08184818dbdb9d1c9858dd609a1b6064820152608401620005d6565b60008051602062005e9383398151915280546001600160a01b0319166001600160a01b0392909216919091179055565b62001a708362001c50565b60008251118062001a7e5750805b156200090c5762001a90838362001c92565b50505050565b6060600062001aa7836002620022e8565b62001ab49060026200230a565b67ffffffffffffffff81111562001acf5762001acf62001f05565b6040519080825280601f01601f19166020018201604052801562001afa576020820181803683370190505b509050600360fc1b8160008151811062001b185762001b1862002325565b60200101906001600160f81b031916908160001a905350600f60fb1b8160018151811062001b4a5762001b4a62002325565b60200101906001600160f81b031916908160001a905350600062001b70846002620022e8565b62001b7d9060016200230a565b90505b600181111562001bff576f181899199a1a9b1b9c1cb0b131b232b360811b85600f166010811062001bb55762001bb562002325565b1a60f81b82828151811062001bce5762001bce62002325565b60200101906001600160f81b031916908160001a90535060049490941c9362001bf7816200233b565b905062001b80565b50831562000f525760405162461bcd60e51b815260206004820181905260248201527f537472696e67733a20686578206c656e67746820696e73756666696369656e746044820152606401620005d6565b62001c5b81620019c6565b6040516001600160a01b038216907fbc7cd75a20ee27fd9adebab32041f755214dbc6bffa90cc0225b39da2e5c2d3b90600090a250565b60606001600160a01b0383163b62001cfc5760405162461bcd60e51b815260206004820152602660248201527f416464726573733a2064656c65676174652063616c6c20746f206e6f6e2d636f6044820152651b9d1c9858dd60d21b6064820152608401620005d6565b600080846001600160a01b03168460405162001d19919062002355565b600060405180830381855af49150503d806000811462001d56576040519150601f19603f3d011682016040523d82523d6000602084013e62001d5b565b606091505b509150915062000c45828260405180606001604052806027815260200162005eb3602791396060831562001d9157508162000f52565b82511562001da25782518084602001fd5b8160405162461bcd60e51b8152600401620005d69190620022b3565b613b1f806200237483390190565b60006020828403121562001ddf57600080fd5b81356001600160e01b03198116811462000f5257600080fd5b60006020828403121562001e0b57600080fd5b5035919050565b6001600160a01b038116811462000a8e57600080fd5b600080600080600060a0868803121562001e4157600080fd5b85359450602086013562001e558162001e12565b9350604086013562001e678162001e12565b94979396509394606081013594506080013592915050565b6000806040838503121562001e9357600080fd5b82359150602083013562001ea78162001e12565b809150509250929050565b60006020828403121562001ec557600080fd5b813562000f528162001e12565b6000806040838503121562001ee657600080fd5b823562001ef38162001e12565b9150602083013562001ea78162001e12565b634e487b7160e01b600052604160045260246000fd5b6000806040838503121562001f2f57600080fd5b823562001f3c8162001e12565b9150602083013567ffffffffffffffff8082111562001f5a57600080fd5b818501915085601f83011262001f6f57600080fd5b81358181111562001f845762001f8462001f05565b604051601f8201601f19908116603f0116810190838211818310171562001faf5762001faf62001f05565b8160405282815288602084870101111562001fc957600080fd5b8260208601602083013760006020848301015280955050505050509250929050565b6000806000606084860312156200200157600080fd5b833592506020840135620020158162001e12565b929592945050506040919091013590565b600080600080600060a086880312156200203f57600080fd5b85356200204c8162001e12565b945060208601359350604086013562001e678162001e12565b6000602082840312156200207857600080fd5b5051919050565b6000806000606084860312156200209557600080fd5b8351925060208401519150604084015190509250925092565b634e487b7160e01b600052601160045260246000fd5b600082821015620020d957620020d9620020ae565b500390565b600060208284031215620020f157600080fd5b8151801515811462000f5257600080fd5b6020808252602c908201527f46756e6374696f6e206d7573742062652063616c6c6564207468726f7567682060408201526b19195b1959d85d1958d85b1b60a21b606082015260800190565b6020808252602c908201527f46756e6374696f6e206d7573742062652063616c6c6564207468726f7567682060408201526b6163746976652070726f787960a01b606082015260800190565b600082620021b857634e487b7160e01b600052601260045260246000fd5b500490565b6020808252602e908201527f496e697469616c697a61626c653a20636f6e747261637420697320616c72656160408201526d191e481a5b9a5d1a585b1a5e995960921b606082015260800190565b60005b83811015620022285781810151838201526020016200220e565b8381111562001a905750506000910152565b7f416363657373436f6e74726f6c3a206163636f756e7420000000000000000000815260008351620022748160178501602088016200220b565b7001034b99036b4b9b9b4b733903937b6329607d1b6017918401918201528351620022a78160288401602088016200220b565b01602801949350505050565b6020815260008251806020840152620022d48160408501602087016200220b565b601f01601f19169190910160400192915050565b6000816000190483118215151615620023055762002305620020ae565b500290565b60008219821115620023205762002320620020ae565b500190565b634e487b7160e01b600052603260045260246000fd5b6000816200234d576200234d620020ae565b506000190190565b60008251620023698184602087016200220b565b919091019291505056fe61014060405261c350600a55612710600b553480156200001e57600080fd5b5060405162003b1f38038062003b1f83398101604081905262000041916200045e565b60408051808201909152601181527013595b185b990c8c150c4c4d4d541bdbdb607a1b60208201528190620000778487620000e9565b81516200008c9060039060208501906200039f565b508051620000a29060049060208401906200039f565b5050506001600160a01b0390811660805285811660a052841660c05260e0839052620000cd62000346565b6001600160a01b0316610100525061012052506200074a915050565b6060826000620000fc60206002620004dd565b60ff166001600160401b0381111562000119576200011962000509565b6040519080825280601f01601f19166020018201604052801562000144576020820181803683370190505b5060408051808201909152601081526f181899199a1a9b1b9c1cb0b131b232b360811b602082015290915060005b60208110156200029e578182518583602081106200019457620001946200051f565b620001a29291901a6200054b565b81518110620001b557620001b56200051f565b01602001516001600160f81b03191683620001d283600262000562565b81518110620001e557620001e56200051f565b60200101906001600160f81b031916908160001a9053508182518583602081106200021457620002146200051f565b620002229291901a62000584565b815181106200023557620002356200051f565b01602001516001600160f81b031916836200025283600262000562565b6200025f9060016200059b565b815181106200027257620002726200051f565b60200101906001600160f81b031916908160001a905350806200029581620005b6565b91505062000172565b5081856001600160a01b03166306fdde036040518163ffffffff1660e01b815260040160006040518083038186803b158015620002da57600080fd5b505afa158015620002ef573d6000803e3d6000fd5b505050506040513d6000823e601f3d908101601f1916820160405262000319919081019062000607565b6040516020016200032c929190620006bf565b604051602081830303815290604052935050505092915050565b60006200035d6200036260201b620014eb1760201c565b905090565b6080516000906001600160a01b031633141562000386575060131936013560601c90565b6200035d6200039b60201b620015301760201c565b3390565b828054620003ad906200070d565b90600052602060002090601f016020900481019282620003d157600085556200041c565b82601f10620003ec57805160ff19168380011785556200041c565b828001600101855582156200041c579182015b828111156200041c578251825591602001919060010190620003ff565b506200042a9291506200042e565b5090565b5b808211156200042a57600081556001016200042f565b6001600160a01b03811681146200045b57600080fd5b50565b600080600080600060a086880312156200047757600080fd5b8551620004848162000445565b6020870151909550620004978162000445565b8094505060408601519250606086015191506080860151620004b98162000445565b809150509295509295909350565b634e487b7160e01b600052601160045260246000fd5b600060ff821660ff84168160ff0481118215151615620005015762000501620004c7565b029392505050565b634e487b7160e01b600052604160045260246000fd5b634e487b7160e01b600052603260045260246000fd5b634e487b7160e01b600052601260045260246000fd5b6000826200055d576200055d62000535565b500490565b60008160001904831182151516156200057f576200057f620004c7565b500290565b60008262000596576200059662000535565b500690565b60008219821115620005b157620005b1620004c7565b500190565b6000600019821415620005cd57620005cd620004c7565b5060010190565b60005b83811015620005f1578181015183820152602001620005d7565b8381111562000601576000848401525b50505050565b6000602082840312156200061a57600080fd5b81516001600160401b03808211156200063257600080fd5b818401915084601f8301126200064757600080fd5b8151818111156200065c576200065c62000509565b604051601f8201601f19908116603f0116810190838211818310171562000687576200068762000509565b81604052828152876020848701011115620006a157600080fd5b620006b4836020830160208801620005d4565b979650505050505050565b61060f60f31b815260008351620006de816002850160208801620005d4565b602d60f81b600291840191820152835162000701816003840160208801620005d4565b01600301949350505050565b600181811c908216806200072257607f821691505b602082108114156200074457634e487b7160e01b600052602260045260246000fd5b50919050565b60805160a05160c05160e051610100516101205161330e62000811600039600061056301526000818161053c01528181610be501526112c90152600081816102e7015281816109bd01528181610ecc0152611a58015260008181610316015281816111230152818161198901528181611c7f01528181611e8f01528181612024015281816121240152818161238601526124690152600081816104700152818161098c01528181610f0b0152611a270152600081816103bc01526114ef015261330e6000f3fe608060405234801561001057600080fd5b50600436106102485760003560e01c8063947236d51161013b578063c45a0155116100b8578063d79875eb1161007c578063d79875eb146105b4578063dd62ed3e146105c7578063e1b3f73a146105da578063f23a6e61146105ed578063f7083a761461060057600080fd5b8063c45a015514610537578063c5ce39111461055e578063c96b8bcc14610585578063cbfcd6051461058e578063d78276c6146105a157600080fd5b8063a4b59c25116100ff578063a4b59c25146104c9578063a9059cbb146104d2578063abfe8770146104e5578063ba730e53146104f8578063bc197c811461050b57600080fd5b8063947236d51461046b57806395d89b4114610492578063a01f79d41461049a578063a457c2d7146104a3578063a4a2a9f6146104b657600080fd5b806338ce4743116101c95780635ca2e0ae1161018d5780635ca2e0ae146103ec5780636014876d146103f4578063693eb135146104075780636d727d571461041a57806370a082311461044257600080fd5b806338ce474314610372578063395093511461037b57806340993b261461038e578063480b497f146103a3578063572b6c05146103ac57600080fd5b806317d70f7c1161021057806317d70f7c146102e257806318160ddd146103095780631dcea4271461031157806323b872dd14610350578063313ce5671461036357600080fd5b806301ffc9a71461024d57806306fdde031461027557806308d4db141461028a578063095ea7b3146102b857806312f40715146102cb575b600080fd5b61026061025b366004612993565b610613565b60405190151581526020015b60405180910390f35b61027d61064a565b60405161026c91906129bd565b61029d610298366004612a12565b6106dc565b6040805193845260208401929092529082015260600161026c565b6102606102c6366004612a47565b610795565b6102d460085481565b60405190815260200161026c565b6102d47f000000000000000000000000000000000000000000000000000000000000000081565b6002546102d4565b6103387f000000000000000000000000000000000000000000000000000000000000000081565b6040516001600160a01b03909116815260200161026c565b61026061035e366004612a71565b6107b7565b6040516012815260200161026c565b6102d4600b5481565b610260610389366004612a47565b6107e5565b6103a161039c366004612aad565b610811565b005b6102d460075481565b6102606103ba366004612ad9565b7f00000000000000000000000000000000000000000000000000000000000000006001600160a01b0390811691161490565b6102d46108d4565b6103a1610402366004612b05565b6108e4565b6103a1610415366004612a12565b610ae1565b61042d610428366004612ad9565b610afb565b6040805192835260208301919091520161026c565b6102d4610450366004612ad9565b6001600160a01b031660009081526020819052604090205490565b6103387f000000000000000000000000000000000000000000000000000000000000000081565b61027d610b4e565b6102d4600a5481565b6102606104b1366004612a47565b610b5d565b6103a16104c4366004612b3e565b610be3565b6102d460095481565b6102606104e0366004612a47565b610c59565b61042d6104f3366004612a12565b610c71565b61029d610506366004612a12565b610d10565b61051e610519366004612c64565b610dba565b6040516001600160e01b0319909116815260200161026c565b6103387f000000000000000000000000000000000000000000000000000000000000000081565b6102d47f000000000000000000000000000000000000000000000000000000000000000081565b6102d460055481565b6103a161059c366004612a12565b611077565b6103a16105af366004612a12565b61108d565b6103a16105c2366004612d14565b611278565b6102d46105d5366004612d36565b61129c565b6103a16105e8366004612d69565b6112c7565b61051e6105fb366004612dab565b61132b565b61029d61060e366004612e11565b611464565b60006001600160e01b03198216630271189760e51b148061064457506301ffc9a760e01b6001600160e01b03198316145b92915050565b60606003805461065990612e48565b80601f016020809104026020016040519081016040528092919081815260200182805461068590612e48565b80156106d25780601f106106a7576101008083540402835291602001916106d2565b820191906000526020600020905b8154815290600101906020018083116106b557829003601f168201915b5050505050905090565b60008080836106f35750600091508190508061078e565b60006106fe85611534565b9050621e8480600a54826107129190612e99565b61071c9190612ece565b9250600061072a8483612ee2565b905060008160075461073c9190612e99565b905060008260095461074e9190612efa565b9050600061075c8284612ece565b9050621e8480600a54826107709190612e99565b61077a9190612ece565b95506107868682612efa565b975050505050505b9193909250565b6000806107a0611544565b90506107ad81858561154e565b5060019392505050565b6000806107c2611544565b90506107cf858285611672565b6107da8585856116e6565b506001949350505050565b6000806107f0611544565b90506107ad818585610802858961129c565b61080c9190612ee2565b61154e565b600061081b611544565b90506000610828856106dc565b505090506127108361277461083d9190612e99565b6108479190612ece565b8111156108c15760405162461bcd60e51b815260206004820152603a60248201527f4d656c616e642e4d61726b6574706c616365236175746f4275793a205468652060448201527f746f74616c207072696365206973206e6f7420636f727265637400000000000060648201526084015b60405180910390fd5b6108cd828387876118b4565b5050505050565b60006108df60025490565b905090565b60006108ee611544565b90506000806108fd8385611464565b5091509150858210156109755760405162461bcd60e51b8152602060048201526046602482015260008051602061329983398151915260448201527f7769746864726177455243313135353a20496e73756666696369656e74202062606482015265616c616e636560d01b608482015260a4016108b8565b604051637921219560e11b81526001600160a01b037f0000000000000000000000000000000000000000000000000000000000000000169063f242432a906109e790309087907f0000000000000000000000000000000000000000000000000000000000000000908c90600401612f11565b600060405180830381600087803b158015610a0157600080fd5b505af1158015610a15573d6000803e3d6000fd5b505050506000610a2487611534565b9050610a308282612ee2565b90508060086000828254610a449190612efa565b909155505060085460055460009190610a5d9084612e99565b610a679190612ece565b9050610a738582611b70565b8215610a8457610a84858489611bc5565b60408051898152600060208201819052818301849052606082015290516001600160a01b038716917f8598e6b147330d38243f9c4cd33d61e208b9015719e977086fa42a0f73b1462b919081900360800190a25050505050505050565b6000610aeb611544565b9050610af78183611dc2565b5050565b6000806000610b1f846001600160a01b031660009081526020819052604090205490565b90506000610b2b6108d4565b600754610b389084612e99565b610b429190612ece565b95600095509350505050565b60606004805461065990612e48565b600080610b68611544565b90506000610b76828661129c565b905083811015610bd65760405162461bcd60e51b815260206004820152602560248201527f45524332303a2064656372656173656420616c6c6f77616e63652062656c6f77604482015264207a65726f60d81b60648201526084016108b8565b6107da828686840361154e565b7f00000000000000000000000000000000000000000000000000000000000000006001600160a01b0316610c15611544565b6001600160a01b031614610c3b5760405162461bcd60e51b81526004016108b890612f49565b6000610c45611544565b9050610c5384828585612122565b50505050565b600080610c64611544565b90506107ad8185856116e6565b60008060006008546009541015610c9557600954600854610c929190612efa565b90505b60095460009015610cbd57600954600754610cb09084612e99565b610cba9190612ece565b90505b600085821015610cf4576000610cd38388612efa565b905060075460095482610ce69190612e99565b610cf09190612ece565b9150505b6000610d01826001612550565b50929792965091945050505050565b6000808083610d275750600091508190508061078e565b621e8480600a5485610d399190612e99565b610d439190612ece565b91506000610d518386612efa565b9050600081600754610d639190612e99565b9050600082600954610d759190612ee2565b90506000610d838284612ece565b9050621e8480600a5482610d979190612e99565b610da19190612ece565b9450610dad8582612efa565b9650505050509193909250565b600080610dca6004828587612fa6565b610dd391612fd0565b90506001600160e01b03198116630a72b7c560e21b1480610e0457506001600160e01b0319811663e5d5876d60e01b145b610e8a5760405162461bcd60e51b815260206004820152605860248201526000805160206132b983398151915260448201527f31313535236f6e4552433131353542617463685265636569766564353a20496e60648201527f76616c69642066756e6374696f6e207369676e61747572650000000000000000608482015260a4016108b8565b8551600114610eab5760405162461bcd60e51b81526004016108b890613000565b600086600081518110610ec057610ec0613062565b602002602001015190507f00000000000000000000000000000000000000000000000000000000000000008114610f095760405162461bcd60e51b81526004016108b890613000565b7f00000000000000000000000000000000000000000000000000000000000000006001600160a01b0316610f3b611544565b6001600160a01b031614610fba5760405162461bcd60e51b815260206004820152604c60248201526000805160206132b983398151915260448201527f31313535236f6e4552433131353542617463685265636569766564353a20496e60648201526b3b30b634b21039b2b73232b960a11b608482015260a4016108b8565b6001600160e01b03198216630a72b7c560e21b1415610ffc57610ff78887600081518110610fea57610fea613062565b60200260200101516125a6565b611062565b6001600160e01b0319821663e5d5876d60e01b14156110625760006110248560048189612fa6565b8101906110319190612a12565b90506110608961105a8960008151811061104d5761104d613062565b6020026020010151611534565b83611bc5565b505b5063bc197c8160e01b98975050505050505050565b6000611081611544565b9050610af781836125a6565b6000611097611544565b90506000806110a583610afb565b91509150838210156111195760405162461bcd60e51b8152602060048201526043602482015260008051602061329983398151915260448201527f776974686472617745524332303a20496e73756666696369656e742062616c616064820152626e636560e81b608482015260a4016108b8565b6001600160a01b037f00000000000000000000000000000000000000000000000000000000000000001663a9059cbb846111538488612ee2565b6040516001600160e01b031960e085901b1681526001600160a01b0390921660048301526024820152604401602060405180830381600087803b15801561119957600080fd5b505af11580156111ad573d6000803e3d6000fd5b505050506040513d601f19601f820116820180604052508101906111d19190613078565b5083600760008282546111e49190612efa565b909155506111f3905084612669565b60006112126112006108d4565b61120a9087612e99565b60075461268b565b905061121e84826126c1565b60408051600080825260208201889052818301526060810183905290516001600160a01b038616917f8598e6b147330d38243f9c4cd33d61e208b9015719e977086fa42a0f73b1462b919081900360800190a25050505050565b6000611282611544565b90506112978161129185611534565b84611bc5565b505050565b6001600160a01b03918216600090815260016020908152604080832093909416825291909152205490565b7f00000000000000000000000000000000000000000000000000000000000000006001600160a01b03166112f9611544565b6001600160a01b03161461131f5760405162461bcd60e51b81526004016108b890612f49565b610c53848484846118b4565b604080516001808252818301909252600091829190602080830190803683375050604080516001808252818301909252929350600092915060208083019080368337019050509050868260008151811061138757611387613062565b60200260200101818152505085816000815181106113a7576113a7613062565b6020026020010181815250506113c1898984848989610dba565b6001600160e01b03191663bc197c8160e01b1461144f5760405162461bcd60e51b815260206004820152605260248201526000805160206132b983398151915260448201527f31313535236f6e4552433131353552656365697665643a20494e56414c49445f6064820152714f4e52454345495645445f4d45535341474560701b608482015260a4016108b8565b5063f23a6e6160e01b98975050505050505050565b6001600160a01b0382166000908152600660205260408120546005546008548392839290918391906114969084612e99565b6114a09190612ece565b905060006114af826000612550565b90965090506114be8183612efa565b94508680156114cd5750600085115b156114e1576114db85610d10565b50909450505b5050509250925092565b60007f00000000000000000000000000000000000000000000000000000000000000006001600160a01b031633141561152b575060131936013560601c90565b503390565b3390565b6000600b54826106449190612e99565b60006108df6114eb565b6001600160a01b0383166115b05760405162461bcd60e51b8152602060048201526024808201527f45524332303a20617070726f76652066726f6d20746865207a65726f206164646044820152637265737360e01b60648201526084016108b8565b6001600160a01b0382166116115760405162461bcd60e51b815260206004820152602260248201527f45524332303a20617070726f766520746f20746865207a65726f206164647265604482015261737360f01b60648201526084016108b8565b6001600160a01b0383811660008181526001602090815260408083209487168084529482529182902085905590518481527f8c5be1e5ebec7d5bd14f71427d1e84f3dd0314c0f7b2291e5b200ac8c7c3b925910160405180910390a3505050565b600061167e848461129c565b90506000198114610c5357818110156116d95760405162461bcd60e51b815260206004820152601d60248201527f45524332303a20696e73756666696369656e7420616c6c6f77616e636500000060448201526064016108b8565b610c53848484840361154e565b6001600160a01b03831661174a5760405162461bcd60e51b815260206004820152602560248201527f45524332303a207472616e736665722066726f6d20746865207a65726f206164604482015264647265737360d81b60648201526084016108b8565b6001600160a01b0382166117ac5760405162461bcd60e51b815260206004820152602360248201527f45524332303a207472616e7366657220746f20746865207a65726f206164647260448201526265737360e81b60648201526084016108b8565b6001600160a01b038316600090815260208190526040902054818110156118245760405162461bcd60e51b815260206004820152602660248201527f45524332303a207472616e7366657220616d6f756e7420657863656564732062604482015265616c616e636560d01b60648201526084016108b8565b6001600160a01b0380851660009081526020819052604080822085850390559185168152908120805484929061185b908490612ee2565b92505081905550826001600160a01b0316846001600160a01b03167fddf252ad1be2c89b69c2b068fc378daa952ba7f163c4a11628f55a4df523b3ef846040516118a791815260200190565b60405180910390a3610c53565b60006118bf83611534565b90508060095410156119275760405162461bcd60e51b815260206004820152603a602482015260008051602061329983398151915260448201527f5f6275793a20496e73756666696369656e742062616c616e636500000000000060648201526084016108b8565b6000806000611935866106dc565b9250925092506000806119478361280f565b915091506000806119578661280f565b6040516323b872dd60e01b81526001600160a01b038e81166004830152306024830152604482018b90529294509092507f0000000000000000000000000000000000000000000000000000000000000000909116906323b872dd90606401602060405180830381600087803b1580156119cf57600080fd5b505af11580156119e3573d6000803e3d6000fd5b505050506040513d601f19601f82011682018060405250810190611a079190613078565b50611a128388612efa565b600754611a1f9190612ee2565b6007819055507f00000000000000000000000000000000000000000000000000000000000000006001600160a01b031663f242432a308e7f00000000000000000000000000000000000000000000000000000000000000008e6040518563ffffffff1660e01b8152600401611a979493929190612f11565b600060405180830381600087803b158015611ab157600080fd5b505af1158015611ac5573d6000803e3d6000fd5b505050508088611ad59190612ee2565b600854611ae29190612efa565b600855611aef8689612ee2565b600954611afc9190612efa565b600955611b088461283c565b604080518981526020810189905290810185905260608101839052608081018a90526001600160a01b038d16907f178f20a8980b4e6cdc2c84f3ef670f5047f63638f90a8acc6b724b43f1da778d9060a00160405180910390a2505050505050505050505050565b80600554611b7e9190612efa565b6005556001600160a01b038216600090815260066020526040902054611ba5908290612efa565b6001600160a01b0390921660009081526006602052604090209190915550565b6000806000611bd385610d10565b9250925092508260075411611c375760405162461bcd60e51b8152602060048201526036602482015260008051602061329983398151915260448201527517dcd95b1b0e881b9bdd081a5b9a5d1a585b1a5e995960521b60648201526084016108b8565b600080611c438361280f565b91509150600080611c538661280f565b60405163a9059cbb60e01b81526001600160a01b038d81166004830152602482018b90529294509092507f00000000000000000000000000000000000000000000000000000000000000009091169063a9059cbb90604401602060405180830381600087803b158015611cc557600080fd5b505af1158015611cd9573d6000803e3d6000fd5b505050506040513d601f19601f82011682018060405250810190611cfd9190613078565b50611d088388612ee2565b60076000828254611d199190612efa565b90915550611d299050818a612efa565b600854611d369190612ee2565b600855611d43868a612efa565b600954611d509190612ee2565b600955611d5c8461283c565b604080518a81526020810189905290810185905260608101839052608081018990526001600160a01b038b16907f20a7fc03b19d7f251cc907f177ff82194c6aebe9a2b47e1cd734dcb6bf772cc29060a00160405180910390a250505050505050505050565b6000611dce6000610c71565b5090506000611ddb6108d4565b11611df85760405162461bcd60e51b81526004016108b890613095565b80821115611e685760405162461bcd60e51b8152602060048201526043602482015260008051602061329983398151915260448201527f61646445524332304c69717569646974793a206e6f7420656e6f75676820737060648201526261636560e81b608482015260a4016108b8565b604051636eb1769f60e11b81526001600160a01b03848116600483015230602483015283917f00000000000000000000000000000000000000000000000000000000000000009091169063dd62ed3e9060440160206040518083038186803b158015611ed357600080fd5b505afa158015611ee7573d6000803e3d6000fd5b505050506040513d601f19601f82011682018060405250810190611f0b91906130eb565b1015611f295760405162461bcd60e51b81526004016108b890613104565b611f328261283c565b6009546008541015611fd45760405162461bcd60e51b815260206004820152606b602482015260008051602061329983398151915260448201527f61646445524332304c69717569646974793a206572633131353552657365727660648201527f65416374697661746564206d757374206265206c657373207468616e2065726360848201526a313135355265736572766560a81b60a482015260c4016108b8565b6000600754611fe16108d4565b611feb9085612e99565b611ff59190612ece565b6040516323b872dd60e01b81526001600160a01b038681166004830152306024830152604482018690529192507f0000000000000000000000000000000000000000000000000000000000000000909116906323b872dd90606401602060405180830381600087803b15801561206a57600080fd5b505af115801561207e573d6000803e3d6000fd5b505050506040513d601f19601f820116820180604052508101906120a29190613078565b5082600760008282546120b59190612ee2565b909155506120c590508482612857565b6040805160008082526020820186905291810191909152606081018290526001600160a01b038516907f08d7621a09a86934f387f650007fa17f2413759ca5f2ae0681161b371583a5f5906080015b60405180910390a250505050565b7f00000000000000000000000000000000000000000000000000000000000000006001600160a01b031663313ce5676040518163ffffffff1660e01b815260040160206040518083038186803b15801561217b57600080fd5b505afa15801561218f573d6000803e3d6000fd5b505050506040513d601f19601f820116820180604052508101906121b3919061316e565b6121be90600a613275565b6121c9906064612e99565b8210156122595760405162461bcd60e51b815260206004820152605260248201527f4d656c616e645377617045786368616e6765506f6f6c3230543131353523696e60448201527f69744c69717569646974793a206572633230416d6f756e74206d75737420626560648201527102067726561746572207468616e20313030360741b608482015260a4016108b8565b600081116122eb5760405162461bcd60e51b815260206004820152605360248201527f4d656c616e642e537761702e45786368616e6765506f6f6c323054313135352e60448201527f696e69744c69717569646974793a2065726331313535416d6f756e74206d75736064820152720742062652067726561746572207468616e203606c1b608482015260a4016108b8565b6122f36108d4565b1561235f5760405162461bcd60e51b8152602060048201526042602482015260008051602061329983398151915260448201527f696e69744c69717569646974793a20616c726561647920696e697469616c697a606482015261195960f21b608482015260a4016108b8565b604051636eb1769f60e11b81526001600160a01b03848116600483015230602483015283917f00000000000000000000000000000000000000000000000000000000000000009091169063dd62ed3e9060440160206040518083038186803b1580156123ca57600080fd5b505afa1580156123de573d6000803e3d6000fd5b505050506040513d601f19601f8201168201806040525081019061240291906130eb565b10156124205760405162461bcd60e51b81526004016108b890613104565b61242981611534565b60085561243581611534565b60095560078290556040516323b872dd60e01b81526001600160a01b038481166004830152306024830152604482018490527f000000000000000000000000000000000000000000000000000000000000000016906323b872dd90606401602060405180830381600087803b1580156124ad57600080fd5b505af11580156124c1573d6000803e3d6000fd5b505050506040513d601f19601f820116820180604052508101906124e59190613078565b506124f08483612857565b6124fc84600854612861565b600854604080518381526020810185905290810191909152606081018390526001600160a01b038516907f08d7621a09a86934f387f650007fa17f2413759ca5f2ae0681161b371583a5f590608001612114565b6000806000600b54856125639190612ece565b905083801561257c5750600061257a606487613284565b115b1561258f5761258c816001612ee2565b90505b8061259982611534565b92509250505b9250929050565b6000600554116125c85760405162461bcd60e51b81526004016108b890613095565b60006125d382611534565b90506000600854600554836125e89190612e99565b6125f29190612ece565b905081600860008282546126069190612ee2565b9091555061261690508482612861565b6040805184815260006020820181905291810183905260608101919091526001600160a01b038516907f08d7621a09a86934f387f650007fa17f2413759ca5f2ae0681161b371583a5f590608001612114565b600061267482612896565b9050806009546126849190612efa565b6009555050565b6000806126988385612ece565b905060006126a68486613284565b11156126ba576126b7816001612ee2565b90505b9392505050565b6001600160a01b0382166127215760405162461bcd60e51b815260206004820152602160248201527f45524332303a206275726e2066726f6d20746865207a65726f206164647265736044820152607360f81b60648201526084016108b8565b6001600160a01b038216600090815260208190526040902054818110156127955760405162461bcd60e51b815260206004820152602260248201527f45524332303a206275726e20616d6f756e7420657863656564732062616c616e604482015261636560f01b60648201526084016108b8565b6001600160a01b03831660009081526020819052604081208383039055600280548492906127c4908490612efa565b90915550506040518281526000906001600160a01b038516907fddf252ad1be2c89b69c2b068fc378daa952ba7f163c4a11628f55a4df523b3ef9060200160405180910390a3505050565b600080606461281f846050612e99565b6128299190612ece565b91506128358284612efa565b9050915091565b600061284782612896565b9050806009546126849190612ee2565b610af782826128b4565b8060055461286f9190612ee2565b6005556001600160a01b038216600090815260066020526040902054611ba5908290612ee2565b600080600754600954846128aa9190612e99565b6126ba9190612ece565b6001600160a01b03821661290a5760405162461bcd60e51b815260206004820152601f60248201527f45524332303a206d696e7420746f20746865207a65726f20616464726573730060448201526064016108b8565b806002600082825461291c9190612ee2565b90915550506001600160a01b03821660009081526020819052604081208054839290612949908490612ee2565b90915550506040518181526001600160a01b038316906000907fddf252ad1be2c89b69c2b068fc378daa952ba7f163c4a11628f55a4df523b3ef9060200160405180910390a35050565b6000602082840312156129a557600080fd5b81356001600160e01b0319811681146126ba57600080fd5b600060208083528351808285015260005b818110156129ea578581018301518582016040015282016129ce565b818111156129fc576000604083870101525b50601f01601f1916929092016040019392505050565b600060208284031215612a2457600080fd5b5035919050565b80356001600160a01b0381168114612a4257600080fd5b919050565b60008060408385031215612a5a57600080fd5b612a6383612a2b565b946020939093013593505050565b600080600060608486031215612a8657600080fd5b612a8f84612a2b565b9250612a9d60208501612a2b565b9150604084013590509250925092565b600080600060608486031215612ac257600080fd5b505081359360208301359350604090920135919050565b600060208284031215612aeb57600080fd5b6126ba82612a2b565b8015158114612b0257600080fd5b50565b600080600060608486031215612b1a57600080fd5b83359250602084013591506040840135612b3381612af4565b809150509250925092565b600080600060608486031215612b5357600080fd5b612b5c84612a2b565b95602085013595506040909401359392505050565b634e487b7160e01b600052604160045260246000fd5b600082601f830112612b9857600080fd5b8135602067ffffffffffffffff80831115612bb557612bb5612b71565b8260051b604051601f19603f83011681018181108482111715612bda57612bda612b71565b604052938452858101830193838101925087851115612bf857600080fd5b83870191505b84821015612c1757813583529183019190830190612bfe565b979650505050505050565b60008083601f840112612c3457600080fd5b50813567ffffffffffffffff811115612c4c57600080fd5b60208301915083602082850101111561259f57600080fd5b60008060008060008060a08789031215612c7d57600080fd5b612c8687612a2b565b9550612c9460208801612a2b565b9450604087013567ffffffffffffffff80821115612cb157600080fd5b612cbd8a838b01612b87565b95506060890135915080821115612cd357600080fd5b612cdf8a838b01612b87565b94506080890135915080821115612cf557600080fd5b50612d0289828a01612c22565b979a9699509497509295939492505050565b60008060408385031215612d2757600080fd5b50508035926020909101359150565b60008060408385031215612d4957600080fd5b612d5283612a2b565b9150612d6060208401612a2b565b90509250929050565b60008060008060808587031215612d7f57600080fd5b612d8885612a2b565b9350612d9660208601612a2b565b93969395505050506040820135916060013590565b60008060008060008060a08789031215612dc457600080fd5b612dcd87612a2b565b9550612ddb60208801612a2b565b94506040870135935060608701359250608087013567ffffffffffffffff811115612e0557600080fd5b612d0289828a01612c22565b60008060408385031215612e2457600080fd5b612e2d83612a2b565b91506020830135612e3d81612af4565b809150509250929050565b600181811c90821680612e5c57607f821691505b60208210811415612e7d57634e487b7160e01b600052602260045260246000fd5b50919050565b634e487b7160e01b600052601160045260246000fd5b6000816000190483118215151615612eb357612eb3612e83565b500290565b634e487b7160e01b600052601260045260246000fd5b600082612edd57612edd612eb8565b500490565b60008219821115612ef557612ef5612e83565b500190565b600082821015612f0c57612f0c612e83565b500390565b6001600160a01b0394851681529290931660208301526040820152606081019190915260a06080820181905260009082015260c00190565b6020808252603b908201527f4d656c616e645377617045786368616e6765506f6f6c32305431313535236f6e60408201527f6c79466163746f72793a205065726d697373696f6e206572726f720000000000606082015260800190565b60008085851115612fb657600080fd5b83861115612fc357600080fd5b5050820193919092039150565b6001600160e01b03198135818116916004851015612ff85780818660040360031b1b83161692505b505092915050565b6020808252604e908201526000805160206132b983398151915260408201527f31313535236f6e4552433131353542617463685265636569766564353a20496e60608201526d1d985b1a59081d1bdad95b88125160921b608082015260a00190565b634e487b7160e01b600052603260045260246000fd5b60006020828403121561308a57600080fd5b81516126ba81612af4565b602080825260429082015260008051602061329983398151915260408201527f61646445524332304c69717569646974793a206e6f7420696e697469616c697a606082015261195960f21b608082015260a00190565b6000602082840312156130fd57600080fd5b5051919050565b602080825260569082015260008051602061329983398151915260408201527f696e69744c69717569646974793a2070726f766964657220646f6573206e6f74606082015275206861766520656e6f75676820616c6c6f77616e636560501b608082015260a00190565b60006020828403121561318057600080fd5b815160ff811681146126ba57600080fd5b600181815b808511156131cc5781600019048211156131b2576131b2612e83565b808516156131bf57918102915b93841c9390800290613196565b509250929050565b6000826131e357506001610644565b816131f057506000610644565b816001811461320657600281146132105761322c565b6001915050610644565b60ff84111561322157613221612e83565b50506001821b610644565b5060208310610133831016604e8410600b841016171561324f575081810a610644565b6132598383613191565b806000190482111561326d5761326d612e83565b029392505050565b60006126ba60ff8416836131d4565b60008261329357613293612eb8565b50069056fe4d656c616e642e537761702e45786368616e6765506f6f6c32305431313535234d656c616e642e4d656c616e645377617045786368616e6765506f6f6c323054a26469706673582212209f83044263759a66d4d8d3cac60a81c6542f0a14f0a4f211433b4133bef354f764736f6c63430008090033360894a13ba1a3210667c828492db98dca3e2076cc3735a920a3ca505d382bbc416464726573733a206c6f772d6c6576656c2064656c65676174652063616c6c206661696c6564a26469706673582212204873883afa686eca981b0d4aa13121fd235dae55d835ab90283b670c0fbb53d564736f6c63430008090033",
  "immutableReferences": {
    "434": [
      {
        "length": 32,
        "start": 896
      },
      {
        "length": 32,
        "start": 6532
      }
    ],
    "1061": [
      {
        "length": 32,
        "start": 2480
      },
      {
        "length": 32,
        "start": 2547
      },
      {
        "length": 32,
        "start": 3324
      },
      {
        "length": 32,
        "start": 3391
      },
      {
        "length": 32,
        "start": 3543
      }
    ],
    "4882": [
      {
        "length": 32,
        "start": 6148
      }
    ]
  },
  "source": "// SPDX-License-Identifier: MIT\npragma solidity 0.8.9;\n\nimport \"@openzeppelin/contracts-upgradeable/proxy/utils/UUPSUpgradeable.sol\";\nimport \"@openzeppelin/contracts-upgradeable/metatx/ERC2771ContextUpgradeable.sol\";\nimport \"@openzeppelin/contracts/token/ERC1155/IERC1155.sol\";\nimport \"@openzeppelin/contracts/token/ERC20/extensions/IERC20Metadata.sol\";\nimport \"./MelandSwapExchangePool20T1155.sol\";\nimport \"../common/MelandAccessRoles.sol\";\nimport \"../nft/IProductManager.sol\";\nimport \"./IMelandSwapFactory.sol\";\n\ncontract MelandSwapFactory is\n    MelandAccessRoles,\n    UUPSUpgradeable,\n    IMelandSwapFactory,\n    ERC2771ContextUpgradeable\n{\n    /// @custom:oz-upgrades-unsafe-allow state-variable-immutable\n    address private immutable xtrustedForwarder;\n\n    IProductManager public productManager;\n\n    mapping(bytes32 => mapping(address => address)) private _poolByProductIdAndTKNAddress;\n    mapping(address => bool) private _isPool;\n\n    uint256 internal tokenBanlance;\n\n    /// @custom:oz-upgrades-unsafe-allow constructor\n    constructor(address trustedForwarder)\n        ERC2771ContextUpgradeable(trustedForwarder)\n    {\n        xtrustedForwarder = trustedForwarder;\n    }\n\n    function initialize(address mpc, IProductManager _pm) public initializer {\n        __UUPSUpgradeable_init();\n        __MelandAccessRoles_init(mpc);\n        productManager = _pm;\n    }\n\n    function isPool(address mabyePool) external view returns(bool) {\n        return _isPool[mabyePool];\n    }\n\n    function createPoolByCommunity(\n        IERC1155 erc1155,\n        uint256 tokenId,\n        IERC20Metadata erc20,\n        uint256 erc20Amount,\n        uint256 erc1155Amount\n    ) external onlyRole(GM_ROLE) {\n        address creator = _msgSender();\n        MelandSwapExchangePool20T1155 pool = _createPool(erc1155, tokenId, erc20);\n        erc20.approve(address(pool), erc20Amount);\n        erc20.transferFrom(creator, address(this), erc20Amount);\n        pool.init(creator, erc20Amount, erc1155Amount);\n    }\n\n    function _createPool(\n        IERC1155 erc1155,\n        uint256 tokenId,\n        IERC20Metadata erc20\n    ) internal returns(MelandSwapExchangePool20T1155) {\n        bytes32 productId = productManager.getProductId(address(erc1155), tokenId);\n        require(_poolByProductIdAndTKNAddress[productId][address(erc20)] == address(0), \"MelandSwapFactory#_createPool: Duplicate creation\");\n        MelandSwapExchangePool20T1155 pool = new MelandSwapExchangePool20T1155(\n            erc1155,\n            erc20,\n            tokenId,\n            productId,\n            xtrustedForwarder\n        );\n        _poolByProductIdAndTKNAddress[productId][address(erc20)] = address(pool);\n        _isPool[address(pool)] = true;\n        emit CreatePool(\n            address(pool),\n            address(erc20),\n            productId\n        );\n        return pool;\n    }\n\n    function getStock(bytes32 productId, IERC20Metadata erc20token) external view returns(uint256) {\n        address pooladdress = _poolByProductIdAndTKNAddress[productId][address(erc20token)];\n        if (pooladdress == address(0)) {\n            return 0;\n        }\n        MelandSwapExchangePool20T1155 pool = MelandSwapExchangePool20T1155(pooladdress);\n        return pool.erc1155FragmentReservesActivated() / pool.nftfragments();\n    }\n\n    function getBuyPrice(bytes32 productId, IERC20Metadata erc20token, uint256 buyamount) external view returns(uint256) {\n        if (buyamount == 0) {\n            return 0;\n        }\n        address pooladdress = _poolByProductIdAndTKNAddress[productId][address(erc20token)];\n        if (pooladdress == address(0)) {\n            return 0;\n        }\n        MelandSwapExchangePool20T1155 pool = MelandSwapExchangePool20T1155(pooladdress);\n        (uint256 fromUserPrice,,) = pool.getBuyPrice(buyamount);\n        return fromUserPrice;\n    }\n\n    function beginBuy(bytes32, IERC20Metadata erc20token) external {\n        tokenBanlance = erc20token.balanceOf(address(this));\n    }\n\n    function buy(bytes32 productId, IERC20Metadata erc20token, address buyer, uint256 buyamount, uint256 tknRate) external {\n        require(buyamount > 0, \"MelandSwapFactory#buy: buyamount less 1\");\n        uint256 newTokenBanlance = erc20token.balanceOf(address(this));\n        address pooladdress = _poolByProductIdAndTKNAddress[productId][address(erc20token)];\n        require(pooladdress != address(0), \"MelandSwapFactory#buy: pool not exists\");\n        MelandSwapExchangePool20T1155 pool = MelandSwapExchangePool20T1155(pooladdress);\n        (uint256 fromUserPrice,,) = pool.getBuyPrice(buyamount);\n        uint256 diff = newTokenBanlance - tokenBanlance;\n        require(diff == fromUserPrice, \"MelandSwapFactory#buy: not enough token\");\n\n        erc20token.approve(pooladdress, fromUserPrice);\n\n        pool.autoBuy(buyer, address(this), buyamount, tknRate);\n    }\n\n    function _authorizeUpgrade(address newImplementation)\n        internal\n        override\n        onlyRole(UPGRADER_ROLE)\n    {\n        \n    }\n\n    function _msgData()\n        internal\n        view\n        virtual\n        override(ContextUpgradeable, ERC2771ContextUpgradeable)\n        returns (bytes calldata)\n    {\n        return ERC2771ContextUpgradeable._msgData();\n    }\n\n    function _msgSender()\n        internal\n        view\n        virtual\n        override(ContextUpgradeable, ERC2771ContextUpgradeable)\n        returns (address)\n    {\n        return ERC2771ContextUpgradeable._msgSender();\n    }\n}\n",
  "sourcePath": "/Users/alberthuang/code/contracts-v2/contracts/swap/MelandSwapFactory.sol",
  "compiler": {
    "name": "solc",
    "version": "0.8.9+commit.e5eed63a.Emscripten.clang"
  },
  "schemaVersion": "3.4.5",
  "updatedAt": "2022-07-05T01:22:34.066Z",
  "devdoc": {
    "kind": "dev",
    "methods": {
      "constructor": {
        "custom:oz-upgrades-unsafe-allow": "constructor"
      },
      "getRoleAdmin(bytes32)": {
        "details": "Returns the admin role that controls `role`. See {grantRole} and {revokeRole}. To change a role's admin, use {_setRoleAdmin}."
      },
      "grantRole(bytes32,address)": {
        "details": "Grants `role` to `account`. If `account` had not been already granted `role`, emits a {RoleGranted} event. Requirements: - the caller must have ``role``'s admin role."
      },
      "hasRole(bytes32,address)": {
        "details": "Returns `true` if `account` has been granted `role`."
      },
      "proxiableUUID()": {
        "details": "Implementation of the ERC1822 {proxiableUUID} function. This returns the storage slot used by the implementation. It is used to validate that the this implementation remains valid after an upgrade. IMPORTANT: A proxy pointing at a proxiable contract should not be considered proxiable itself, because this risks bricking a proxy that upgrades to it, by delegating to itself until out of gas. Thus it is critical that this function revert if invoked through a proxy. This is guaranteed by the `notDelegated` modifier."
      },
      "renounceRole(bytes32,address)": {
        "details": "Revokes `role` from the calling account. Roles are often managed via {grantRole} and {revokeRole}: this function's purpose is to provide a mechanism for accounts to lose their privileges if they are compromised (such as when a trusted device is misplaced). If the calling account had been revoked `role`, emits a {RoleRevoked} event. Requirements: - the caller must be `account`."
      },
      "revokeRole(bytes32,address)": {
        "details": "Revokes `role` from `account`. If `account` had been granted `role`, emits a {RoleRevoked} event. Requirements: - the caller must have ``role``'s admin role."
      },
      "supportsInterface(bytes4)": {
        "details": "See {IERC165-supportsInterface}."
      },
      "upgradeTo(address)": {
        "details": "Upgrade the implementation of the proxy to `newImplementation`. Calls {_authorizeUpgrade}. Emits an {Upgraded} event."
      },
      "upgradeToAndCall(address,bytes)": {
        "details": "Upgrade the implementation of the proxy to `newImplementation`, and subsequently execute the function call encoded in `data`. Calls {_authorizeUpgrade}. Emits an {Upgraded} event."
      }
    },
    "stateVariables": {
      "xtrustedForwarder": {
        "custom:oz-upgrades-unsafe-allow": "state-variable-immutable"
      }
    },
    "version": 1
  },
  "userdoc": {
    "kind": "user",
    "methods": {},
    "version": 1
  }
}