{
  "contractName": "MelandSwapFactory",
  "abi": [
    {
      "inputs": [
        {
          "internalType": "address",
          "name": "trustedForwarder",
          "type": "address"
        }
      ],
      "stateMutability": "nonpayable",
      "type": "constructor"
    },
    {
      "anonymous": false,
      "inputs": [
        {
          "indexed": false,
          "internalType": "address",
          "name": "previousAdmin",
          "type": "address"
        },
        {
          "indexed": false,
          "internalType": "address",
          "name": "newAdmin",
          "type": "address"
        }
      ],
      "name": "AdminChanged",
      "type": "event"
    },
    {
      "anonymous": false,
      "inputs": [
        {
          "indexed": true,
          "internalType": "address",
          "name": "beacon",
          "type": "address"
        }
      ],
      "name": "BeaconUpgraded",
      "type": "event"
    },
    {
      "anonymous": false,
      "inputs": [
        {
          "indexed": false,
          "internalType": "uint8",
          "name": "version",
          "type": "uint8"
        }
      ],
      "name": "Initialized",
      "type": "event"
    },
    {
      "anonymous": false,
      "inputs": [
        {
          "indexed": true,
          "internalType": "bytes32",
          "name": "role",
          "type": "bytes32"
        },
        {
          "indexed": true,
          "internalType": "bytes32",
          "name": "previousAdminRole",
          "type": "bytes32"
        },
        {
          "indexed": true,
          "internalType": "bytes32",
          "name": "newAdminRole",
          "type": "bytes32"
        }
      ],
      "name": "RoleAdminChanged",
      "type": "event"
    },
    {
      "anonymous": false,
      "inputs": [
        {
          "indexed": true,
          "internalType": "bytes32",
          "name": "role",
          "type": "bytes32"
        },
        {
          "indexed": true,
          "internalType": "address",
          "name": "account",
          "type": "address"
        },
        {
          "indexed": true,
          "internalType": "address",
          "name": "sender",
          "type": "address"
        }
      ],
      "name": "RoleGranted",
      "type": "event"
    },
    {
      "anonymous": false,
      "inputs": [
        {
          "indexed": true,
          "internalType": "bytes32",
          "name": "role",
          "type": "bytes32"
        },
        {
          "indexed": true,
          "internalType": "address",
          "name": "account",
          "type": "address"
        },
        {
          "indexed": true,
          "internalType": "address",
          "name": "sender",
          "type": "address"
        }
      ],
      "name": "RoleRevoked",
      "type": "event"
    },
    {
      "anonymous": false,
      "inputs": [
        {
          "indexed": true,
          "internalType": "address",
          "name": "implementation",
          "type": "address"
        }
      ],
      "name": "Upgraded",
      "type": "event"
    },
    {
      "inputs": [],
      "name": "DEFAULT_ADMIN_ROLE",
      "outputs": [
        {
          "internalType": "bytes32",
          "name": "",
          "type": "bytes32"
        }
      ],
      "stateMutability": "view",
      "type": "function"
    },
    {
      "inputs": [],
      "name": "DOMAIN_SEPARATOR",
      "outputs": [
        {
          "internalType": "bytes32",
          "name": "",
          "type": "bytes32"
        }
      ],
      "stateMutability": "view",
      "type": "function"
    },
    {
      "inputs": [],
      "name": "GM_ROLE",
      "outputs": [
        {
          "internalType": "bytes32",
          "name": "",
          "type": "bytes32"
        }
      ],
      "stateMutability": "view",
      "type": "function"
    },
    {
      "inputs": [],
      "name": "MINTER_ROLE",
      "outputs": [
        {
          "internalType": "bytes32",
          "name": "",
          "type": "bytes32"
        }
      ],
      "stateMutability": "view",
      "type": "function"
    },
    {
      "inputs": [],
      "name": "UPGRADER_ROLE",
      "outputs": [
        {
          "internalType": "bytes32",
          "name": "",
          "type": "bytes32"
        }
      ],
      "stateMutability": "view",
      "type": "function"
    },
    {
      "inputs": [
        {
          "internalType": "bytes32",
          "name": "role",
          "type": "bytes32"
        }
      ],
      "name": "getRoleAdmin",
      "outputs": [
        {
          "internalType": "bytes32",
          "name": "",
          "type": "bytes32"
        }
      ],
      "stateMutability": "view",
      "type": "function"
    },
    {
      "inputs": [
        {
          "internalType": "bytes32",
          "name": "role",
          "type": "bytes32"
        },
        {
          "internalType": "address",
          "name": "account",
          "type": "address"
        }
      ],
      "name": "grantRole",
      "outputs": [],
      "stateMutability": "nonpayable",
      "type": "function"
    },
    {
      "inputs": [
        {
          "internalType": "bytes32",
          "name": "role",
          "type": "bytes32"
        },
        {
          "internalType": "address",
          "name": "account",
          "type": "address"
        }
      ],
      "name": "hasRole",
      "outputs": [
        {
          "internalType": "bool",
          "name": "",
          "type": "bool"
        }
      ],
      "stateMutability": "view",
      "type": "function"
    },
    {
      "inputs": [
        {
          "internalType": "address",
          "name": "forwarder",
          "type": "address"
        }
      ],
      "name": "isTrustedForwarder",
      "outputs": [
        {
          "internalType": "bool",
          "name": "",
          "type": "bool"
        }
      ],
      "stateMutability": "view",
      "type": "function"
    },
    {
      "inputs": [],
      "name": "productManager",
      "outputs": [
        {
          "internalType": "contract IProductManager",
          "name": "",
          "type": "address"
        }
      ],
      "stateMutability": "view",
      "type": "function"
    },
    {
      "inputs": [],
      "name": "proxiableUUID",
      "outputs": [
        {
          "internalType": "bytes32",
          "name": "",
          "type": "bytes32"
        }
      ],
      "stateMutability": "view",
      "type": "function"
    },
    {
      "inputs": [
        {
          "internalType": "bytes32",
          "name": "role",
          "type": "bytes32"
        },
        {
          "internalType": "address",
          "name": "account",
          "type": "address"
        }
      ],
      "name": "renounceRole",
      "outputs": [],
      "stateMutability": "nonpayable",
      "type": "function"
    },
    {
      "inputs": [
        {
          "internalType": "bytes32",
          "name": "role",
          "type": "bytes32"
        },
        {
          "internalType": "address",
          "name": "account",
          "type": "address"
        }
      ],
      "name": "revokeRole",
      "outputs": [],
      "stateMutability": "nonpayable",
      "type": "function"
    },
    {
      "inputs": [
        {
          "internalType": "bytes4",
          "name": "interfaceId",
          "type": "bytes4"
        }
      ],
      "name": "supportsInterface",
      "outputs": [
        {
          "internalType": "bool",
          "name": "",
          "type": "bool"
        }
      ],
      "stateMutability": "view",
      "type": "function"
    },
    {
      "inputs": [
        {
          "internalType": "address",
          "name": "newImplementation",
          "type": "address"
        }
      ],
      "name": "upgradeTo",
      "outputs": [],
      "stateMutability": "nonpayable",
      "type": "function"
    },
    {
      "inputs": [
        {
          "internalType": "address",
          "name": "newImplementation",
          "type": "address"
        },
        {
          "internalType": "bytes",
          "name": "data",
          "type": "bytes"
        }
      ],
      "name": "upgradeToAndCall",
      "outputs": [],
      "stateMutability": "payable",
      "type": "function"
    },
    {
      "inputs": [
        {
          "internalType": "address",
          "name": "mpc",
          "type": "address"
        },
        {
          "internalType": "contract IProductManager",
          "name": "_pm",
          "type": "address"
        }
      ],
      "name": "initialize",
      "outputs": [],
      "stateMutability": "nonpayable",
      "type": "function"
    }
  ],
  "bytecode": "0x60c06040523060805234801561001457600080fd5b506040516116e13803806116e183398101604081905261003391610044565b6001600160a01b031660a052610074565b60006020828403121561005657600080fd5b81516001600160a01b038116811461006d57600080fd5b9392505050565b60805160a0516116256100bc600039600081816102870152610d7a0152600081816104ac015281816104ec015281816106270152818161066701526106f601526116256000f3fe6080604052600436106100fe5760003560e01c80634f1ef28611610095578063a217fddf11610064578063a217fddf146102d7578063d5391393146102ec578063d547741f14610320578063f426306f14610340578063f72c0d8b1461037957600080fd5b80634f1ef2861461024257806352d1902d14610255578063572b6c051461026a57806391d14854146102b757600080fd5b80633644e515116100d15780633644e515146101cc57806336568abe146101e25780633659cfe614610202578063485cc9551461022257600080fd5b806301ffc9a714610103578063248a9ca3146101385780632f2ff15d1461017657806330c7be2c14610198575b600080fd5b34801561010f57600080fd5b5061012361011e366004611192565b6103ad565b60405190151581526020015b60405180910390f35b34801561014457600080fd5b506101686101533660046111bc565b60009081526065602052604090206001015490565b60405190815260200161012f565b34801561018257600080fd5b506101966101913660046111ea565b6103e4565b005b3480156101a457600080fd5b506101687ff5eb84615c2a00ecaf817d13794ebd6299c9e01c395bf4018453f13f577f544981565b3480156101d857600080fd5b5061016860975481565b3480156101ee57600080fd5b506101966101fd3660046111ea565b61040e565b34801561020e57600080fd5b5061019661021d36600461121a565b6104a1565b34801561022e57600080fd5b5061019661023d366004611237565b610581565b61019661025036600461127b565b61061c565b34801561026157600080fd5b506101686106e9565b34801561027657600080fd5b5061012361028536600461121a565b7f00000000000000000000000000000000000000000000000000000000000000006001600160a01b0390811691161490565b3480156102c357600080fd5b506101236102d23660046111ea565b61079c565b3480156102e357600080fd5b50610168600081565b3480156102f857600080fd5b506101687f9f2df0fed2c77648de5860a4cc508cd0818c85b8b8a1ab4ceeef8d981c8956a681565b34801561032c57600080fd5b5061019661033b3660046111ea565b6107c7565b34801561034c57600080fd5b5061012e54610361906001600160a01b031681565b6040516001600160a01b03909116815260200161012f565b34801561038557600080fd5b506101687f189ab7a9244df0848122154315af71fe140f3db0fe014031783b0946b8c9d2e381565b60006001600160e01b03198216637965db0b60e01b14806103de57506301ffc9a760e01b6001600160e01b03198316145b92915050565b6000828152606560205260409020600101546103ff816107ec565b61040983836107fd565b505050565b610416610884565b6001600160a01b0316816001600160a01b0316146104935760405162461bcd60e51b815260206004820152602f60248201527f416363657373436f6e74726f6c3a2063616e206f6e6c792072656e6f756e636560448201526e103937b632b9903337b91039b2b63360891b60648201526084015b60405180910390fd5b61049d8282610893565b5050565b306001600160a01b037f00000000000000000000000000000000000000000000000000000000000000001614156104ea5760405162461bcd60e51b815260040161048a9061133f565b7f00000000000000000000000000000000000000000000000000000000000000006001600160a01b03166105336000805160206115a9833981519152546001600160a01b031690565b6001600160a01b0316146105595760405162461bcd60e51b815260040161048a9061138b565b61056281610918565b6040805160008082526020820190925261057e91839190610942565b50565b600061058d6001610abc565b905080156105a5576000805461ff0019166101001790555b6105ad610b44565b6105b683610bb1565b61012e80546001600160a01b0319166001600160a01b0384161790558015610409576000805461ff0019169055604051600181527f7f26b83ff96e1f2b6a682f133852f6798a09c465da95921460cefb38474024989060200160405180910390a1505050565b306001600160a01b037f00000000000000000000000000000000000000000000000000000000000000001614156106655760405162461bcd60e51b815260040161048a9061133f565b7f00000000000000000000000000000000000000000000000000000000000000006001600160a01b03166106ae6000805160206115a9833981519152546001600160a01b031690565b6001600160a01b0316146106d45760405162461bcd60e51b815260040161048a9061138b565b6106dd82610918565b61049d82826001610942565b6000306001600160a01b037f000000000000000000000000000000000000000000000000000000000000000016146107895760405162461bcd60e51b815260206004820152603860248201527f555550535570677261646561626c653a206d757374206e6f742062652063616c60448201527f6c6564207468726f7567682064656c656761746563616c6c0000000000000000606482015260840161048a565b506000805160206115a983398151915290565b60009182526065602090815260408084206001600160a01b0393909316845291905290205460ff1690565b6000828152606560205260409020600101546107e2816107ec565b6104098383610893565b61057e816107f8610884565b610d12565b610807828261079c565b61049d5760008281526065602090815260408083206001600160a01b03851684529091529020805460ff19166001179055610840610884565b6001600160a01b0316816001600160a01b0316837f2f8788117e7eff1d82e926ec794901d17c78024a50270940304540a733656f0d60405160405180910390a45050565b600061088e610d76565b905090565b61089d828261079c565b1561049d5760008281526065602090815260408083206001600160a01b03851684529091529020805460ff191690556108d4610884565b6001600160a01b0316816001600160a01b0316837ff6391f5c32d9c69d2a47ea670b442974b53935d1edc7fd64eb21e047a839171b60405160405180910390a45050565b7f189ab7a9244df0848122154315af71fe140f3db0fe014031783b0946b8c9d2e361049d816107ec565b7f4910fdfa16fed3260ed0e7147f7cc6da11a60208b5b9406d12a635614ffd91435460ff16156109755761040983610dbb565b826001600160a01b03166352d1902d6040518163ffffffff1660e01b815260040160206040518083038186803b1580156109ae57600080fd5b505afa9250505080156109de575060408051601f3d908101601f191682019092526109db918101906113d7565b60015b610a415760405162461bcd60e51b815260206004820152602e60248201527f45524331393637557067726164653a206e657720696d706c656d656e7461746960448201526d6f6e206973206e6f74205555505360901b606482015260840161048a565b6000805160206115a98339815191528114610ab05760405162461bcd60e51b815260206004820152602960248201527f45524331393637557067726164653a20756e737570706f727465642070726f786044820152681a58589b195555525160ba1b606482015260840161048a565b50610409838383610e57565b60008054610100900460ff1615610b03578160ff166001148015610adf5750303b155b610afb5760405162461bcd60e51b815260040161048a906113f0565b506000919050565b60005460ff808416911610610b2a5760405162461bcd60e51b815260040161048a906113f0565b506000805460ff191660ff92909216919091179055600190565b600054610100900460ff16610baf5760405162461bcd60e51b815260206004820152602b60248201527f496e697469616c697a61626c653a20636f6e7472616374206973206e6f74206960448201526a6e697469616c697a696e6760a81b606482015260840161048a565b565b610bb9610b44565b610bc46000826107fd565b610bee7ff5eb84615c2a00ecaf817d13794ebd6299c9e01c395bf4018453f13f577f5449826107fd565b610c187f9f2df0fed2c77648de5860a4cc508cd0818c85b8b8a1ab4ceeef8d981c8956a6826107fd565b610c427f189ab7a9244df0848122154315af71fe140f3db0fe014031783b0946b8c9d2e3336107fd565b5060408051808201825260068152651b595b185b9960d21b6020918201528151808301835260018152603160f81b9082015281517f8b73c3c69bb8fe3d512ecc4cf759cc79239f7b179b0ffacaa9a75d522b39400f818301527f314ed1331a8d68d6e7c652158abe27c46bf91bd45ef86ab66f92d6500b1056eb818401527fc89efdaa54c0f20c7adf612882df0950f5a951637e0307cdcb4c672f298b8bc660608201524660808201523060a0808301919091528351808303909101815260c09091019092528151910120609755565b610d1c828261079c565b61049d57610d34816001600160a01b03166014610e82565b610d3f836020610e82565b604051602001610d5092919061146a565b60408051601f198184030181529082905262461bcd60e51b825261048a916004016114df565b60007f00000000000000000000000000000000000000000000000000000000000000006001600160a01b0316331415610db6575060131936013560601c90565b503390565b6001600160a01b0381163b610e285760405162461bcd60e51b815260206004820152602d60248201527f455243313936373a206e657720696d706c656d656e746174696f6e206973206e60448201526c1bdd08184818dbdb9d1c9858dd609a1b606482015260840161048a565b6000805160206115a983398151915280546001600160a01b0319166001600160a01b0392909216919091179055565b610e6083611025565b600082511180610e6d5750805b1561040957610e7c8383611065565b50505050565b60606000610e91836002611528565b610e9c906002611547565b67ffffffffffffffff811115610eb457610eb4611265565b6040519080825280601f01601f191660200182016040528015610ede576020820181803683370190505b509050600360fc1b81600081518110610ef957610ef961155f565b60200101906001600160f81b031916908160001a905350600f60fb1b81600181518110610f2857610f2861155f565b60200101906001600160f81b031916908160001a9053506000610f4c846002611528565b610f57906001611547565b90505b6001811115610fcf576f181899199a1a9b1b9c1cb0b131b232b360811b85600f1660108110610f8b57610f8b61155f565b1a60f81b828281518110610fa157610fa161155f565b60200101906001600160f81b031916908160001a90535060049490941c93610fc881611575565b9050610f5a565b50831561101e5760405162461bcd60e51b815260206004820181905260248201527f537472696e67733a20686578206c656e67746820696e73756666696369656e74604482015260640161048a565b9392505050565b61102e81610dbb565b6040516001600160a01b038216907fbc7cd75a20ee27fd9adebab32041f755214dbc6bffa90cc0225b39da2e5c2d3b90600090a250565b60606001600160a01b0383163b6110cd5760405162461bcd60e51b815260206004820152602660248201527f416464726573733a2064656c65676174652063616c6c20746f206e6f6e2d636f6044820152651b9d1c9858dd60d21b606482015260840161048a565b600080846001600160a01b0316846040516110e8919061158c565b600060405180830381855af49150503d8060008114611123576040519150601f19603f3d011682016040523d82523d6000602084013e611128565b606091505b509150915061115082826040518060600160405280602781526020016115c960279139611159565b95945050505050565b6060831561116857508161101e565b8251156111785782518084602001fd5b8160405162461bcd60e51b815260040161048a91906114df565b6000602082840312156111a457600080fd5b81356001600160e01b03198116811461101e57600080fd5b6000602082840312156111ce57600080fd5b5035919050565b6001600160a01b038116811461057e57600080fd5b600080604083850312156111fd57600080fd5b82359150602083013561120f816111d5565b809150509250929050565b60006020828403121561122c57600080fd5b813561101e816111d5565b6000806040838503121561124a57600080fd5b8235611255816111d5565b9150602083013561120f816111d5565b634e487b7160e01b600052604160045260246000fd5b6000806040838503121561128e57600080fd5b8235611299816111d5565b9150602083013567ffffffffffffffff808211156112b657600080fd5b818501915085601f8301126112ca57600080fd5b8135818111156112dc576112dc611265565b604051601f8201601f19908116603f0116810190838211818310171561130457611304611265565b8160405282815288602084870101111561131d57600080fd5b8260208601602083013760006020848301015280955050505050509250929050565b6020808252602c908201527f46756e6374696f6e206d7573742062652063616c6c6564207468726f7567682060408201526b19195b1959d85d1958d85b1b60a21b606082015260800190565b6020808252602c908201527f46756e6374696f6e206d7573742062652063616c6c6564207468726f7567682060408201526b6163746976652070726f787960a01b606082015260800190565b6000602082840312156113e957600080fd5b5051919050565b6020808252602e908201527f496e697469616c697a61626c653a20636f6e747261637420697320616c72656160408201526d191e481a5b9a5d1a585b1a5e995960921b606082015260800190565b60005b83811015611459578181015183820152602001611441565b83811115610e7c5750506000910152565b7f416363657373436f6e74726f6c3a206163636f756e74200000000000000000008152600083516114a281601785016020880161143e565b7001034b99036b4b9b9b4b733903937b6329607d1b60179184019182015283516114d381602884016020880161143e565b01602801949350505050565b60208152600082518060208401526114fe81604085016020870161143e565b601f01601f19169190910160400192915050565b634e487b7160e01b600052601160045260246000fd5b600081600019048311821515161561154257611542611512565b500290565b6000821982111561155a5761155a611512565b500190565b634e487b7160e01b600052603260045260246000fd5b60008161158457611584611512565b506000190190565b6000825161159e81846020870161143e565b919091019291505056fe360894a13ba1a3210667c828492db98dca3e2076cc3735a920a3ca505d382bbc416464726573733a206c6f772d6c6576656c2064656c65676174652063616c6c206661696c6564a264697066735822122040c8fbb12fa2dc62f72c7bf74375c4e8702d1aea046789134261140bb63738b864736f6c63430008090033",
  "immutableReferences": {
    "434": [
      {
        "length": 32,
        "start": 647
      },
      {
        "length": 32,
        "start": 3450
      }
    ],
    "1061": [
      {
        "length": 32,
        "start": 1196
      },
      {
        "length": 32,
        "start": 1260
      },
      {
        "length": 32,
        "start": 1575
      },
      {
        "length": 32,
        "start": 1639
      },
      {
        "length": 32,
        "start": 1782
      }
    ]
  },
  "source": "// SPDX-License-Identifier: MIT\npragma solidity 0.8.9;\n\nimport \"../common/MelandAccessRoles.sol\";\nimport \"@openzeppelin/contracts-upgradeable/proxy/utils/UUPSUpgradeable.sol\";\nimport \"@openzeppelin/contracts-upgradeable/metatx/ERC2771ContextUpgradeable.sol\";\nimport \"../nft/IProductManager.sol\";\n\ncontract MelandSwapFactory is\n    MelandAccessRoles,\n    UUPSUpgradeable,\n    ERC2771ContextUpgradeable\n{\n    IProductManager public productManager;\n\n    /// @custom:oz-upgrades-unsafe-allow constructor\n    constructor(address trustedForwarder)\n        ERC2771ContextUpgradeable(trustedForwarder)\n    {\n        \n    }\n\n    function initialize(address mpc, IProductManager _pm) public initializer {\n        __UUPSUpgradeable_init();\n        __MelandAccessRoles_init(mpc);\n        productManager = _pm;\n    }\n\n    function _authorizeUpgrade(address newImplementation)\n        internal\n        override\n        onlyRole(UPGRADER_ROLE)\n    {}\n\n    function _msgData()\n        internal\n        view\n        virtual\n        override(ContextUpgradeable, ERC2771ContextUpgradeable)\n        returns (bytes calldata)\n    {\n        return ERC2771ContextUpgradeable._msgData();\n    }\n\n    function _msgSender()\n        internal\n        view\n        virtual\n        override(ContextUpgradeable, ERC2771ContextUpgradeable)\n        returns (address)\n    {\n        return ERC2771ContextUpgradeable._msgSender();\n    }\n}\n",
  "sourcePath": "/Users/alberthuang/code/contracts-v2/contracts/swap/MelandSwapFactory.sol",
  "compiler": {
    "name": "solc",
    "version": "0.8.9+commit.e5eed63a.Emscripten.clang"
  },
  "schemaVersion": "3.4.5",
  "updatedAt": "2022-05-25T07:00:07.384Z",
  "devdoc": {
    "kind": "dev",
    "methods": {
      "constructor": {
        "custom:oz-upgrades-unsafe-allow": "constructor"
      },
      "getRoleAdmin(bytes32)": {
        "details": "Returns the admin role that controls `role`. See {grantRole} and {revokeRole}. To change a role's admin, use {_setRoleAdmin}."
      },
      "grantRole(bytes32,address)": {
        "details": "Grants `role` to `account`. If `account` had not been already granted `role`, emits a {RoleGranted} event. Requirements: - the caller must have ``role``'s admin role."
      },
      "hasRole(bytes32,address)": {
        "details": "Returns `true` if `account` has been granted `role`."
      },
      "proxiableUUID()": {
        "details": "Implementation of the ERC1822 {proxiableUUID} function. This returns the storage slot used by the implementation. It is used to validate that the this implementation remains valid after an upgrade. IMPORTANT: A proxy pointing at a proxiable contract should not be considered proxiable itself, because this risks bricking a proxy that upgrades to it, by delegating to itself until out of gas. Thus it is critical that this function revert if invoked through a proxy. This is guaranteed by the `notDelegated` modifier."
      },
      "renounceRole(bytes32,address)": {
        "details": "Revokes `role` from the calling account. Roles are often managed via {grantRole} and {revokeRole}: this function's purpose is to provide a mechanism for accounts to lose their privileges if they are compromised (such as when a trusted device is misplaced). If the calling account had been revoked `role`, emits a {RoleRevoked} event. Requirements: - the caller must be `account`."
      },
      "revokeRole(bytes32,address)": {
        "details": "Revokes `role` from `account`. If `account` had been granted `role`, emits a {RoleRevoked} event. Requirements: - the caller must have ``role``'s admin role."
      },
      "supportsInterface(bytes4)": {
        "details": "See {IERC165-supportsInterface}."
      },
      "upgradeTo(address)": {
        "details": "Upgrade the implementation of the proxy to `newImplementation`. Calls {_authorizeUpgrade}. Emits an {Upgraded} event."
      },
      "upgradeToAndCall(address,bytes)": {
        "details": "Upgrade the implementation of the proxy to `newImplementation`, and subsequently execute the function call encoded in `data`. Calls {_authorizeUpgrade}. Emits an {Upgraded} event."
      }
    },
    "version": 1
  },
  "userdoc": {
    "kind": "user",
    "methods": {},
    "version": 1
  }
}