{
  "contractName": "MelandSwapExchangePool20T1155",
  "abi": [
    {
      "inputs": [
        {
          "internalType": "contract IERC1155",
          "name": "_erc1155token",
          "type": "address"
        },
        {
          "internalType": "contract IERC20Metadata",
          "name": "_erc20token",
          "type": "address"
        },
        {
          "internalType": "uint256",
          "name": "_tokenId",
          "type": "uint256"
        },
        {
          "internalType": "bytes32",
          "name": "_productId",
          "type": "bytes32"
        },
        {
          "internalType": "address",
          "name": "trustedForwarder",
          "type": "address"
        }
      ],
      "stateMutability": "nonpayable",
      "type": "constructor"
    },
    {
      "anonymous": false,
      "inputs": [
        {
          "indexed": true,
          "internalType": "address",
          "name": "owner",
          "type": "address"
        },
        {
          "indexed": true,
          "internalType": "address",
          "name": "spender",
          "type": "address"
        },
        {
          "indexed": false,
          "internalType": "uint256",
          "name": "value",
          "type": "uint256"
        }
      ],
      "name": "Approval",
      "type": "event"
    },
    {
      "anonymous": false,
      "inputs": [
        {
          "indexed": true,
          "internalType": "address",
          "name": "buyer",
          "type": "address"
        },
        {
          "indexed": false,
          "internalType": "uint256",
          "name": "buyFragments",
          "type": "uint256"
        },
        {
          "indexed": false,
          "internalType": "uint256",
          "name": "price",
          "type": "uint256"
        },
        {
          "indexed": false,
          "internalType": "uint256",
          "name": "fees",
          "type": "uint256"
        },
        {
          "indexed": false,
          "internalType": "uint256",
          "name": "nftfragmentfees",
          "type": "uint256"
        },
        {
          "indexed": false,
          "internalType": "uint256",
          "name": "tknRate",
          "type": "uint256"
        }
      ],
      "name": "Buy",
      "type": "event"
    },
    {
      "anonymous": false,
      "inputs": [
        {
          "indexed": true,
          "internalType": "address",
          "name": "provider",
          "type": "address"
        },
        {
          "indexed": false,
          "internalType": "uint256",
          "name": "erc1155Amount",
          "type": "uint256"
        },
        {
          "indexed": false,
          "internalType": "uint256",
          "name": "erc20amount",
          "type": "uint256"
        },
        {
          "indexed": false,
          "internalType": "uint256",
          "name": "erc1155LPAdded",
          "type": "uint256"
        },
        {
          "indexed": false,
          "internalType": "uint256",
          "name": "erc20LPAdded",
          "type": "uint256"
        }
      ],
      "name": "LiquidityAdded",
      "type": "event"
    },
    {
      "anonymous": false,
      "inputs": [
        {
          "indexed": true,
          "internalType": "address",
          "name": "provider",
          "type": "address"
        },
        {
          "indexed": false,
          "internalType": "uint256",
          "name": "erc1155Amount",
          "type": "uint256"
        },
        {
          "indexed": false,
          "internalType": "uint256",
          "name": "erc20amount",
          "type": "uint256"
        },
        {
          "indexed": false,
          "internalType": "uint256",
          "name": "erc1155LPRemoved",
          "type": "uint256"
        },
        {
          "indexed": false,
          "internalType": "uint256",
          "name": "erc20LPRemoved",
          "type": "uint256"
        }
      ],
      "name": "LiquidityRemoved",
      "type": "event"
    },
    {
      "anonymous": false,
      "inputs": [
        {
          "indexed": true,
          "internalType": "address",
          "name": "seller",
          "type": "address"
        },
        {
          "indexed": false,
          "internalType": "uint256",
          "name": "sellFragments",
          "type": "uint256"
        },
        {
          "indexed": false,
          "internalType": "uint256",
          "name": "price",
          "type": "uint256"
        },
        {
          "indexed": false,
          "internalType": "uint256",
          "name": "fees",
          "type": "uint256"
        },
        {
          "indexed": false,
          "internalType": "uint256",
          "name": "nftfragmentfees",
          "type": "uint256"
        },
        {
          "indexed": false,
          "internalType": "uint256",
          "name": "tknRate",
          "type": "uint256"
        }
      ],
      "name": "Sell",
      "type": "event"
    },
    {
      "anonymous": false,
      "inputs": [
        {
          "indexed": true,
          "internalType": "address",
          "name": "from",
          "type": "address"
        },
        {
          "indexed": true,
          "internalType": "address",
          "name": "to",
          "type": "address"
        },
        {
          "indexed": false,
          "internalType": "uint256",
          "name": "value",
          "type": "uint256"
        }
      ],
      "name": "Transfer",
      "type": "event"
    },
    {
      "anonymous": false,
      "inputs": [
        {
          "indexed": false,
          "internalType": "address",
          "name": "newPool",
          "type": "address"
        }
      ],
      "name": "Upgraded",
      "type": "event"
    },
    {
      "inputs": [
        {
          "internalType": "address",
          "name": "owner",
          "type": "address"
        },
        {
          "internalType": "address",
          "name": "spender",
          "type": "address"
        }
      ],
      "name": "allowance",
      "outputs": [
        {
          "internalType": "uint256",
          "name": "",
          "type": "uint256"
        }
      ],
      "stateMutability": "view",
      "type": "function"
    },
    {
      "inputs": [
        {
          "internalType": "address",
          "name": "spender",
          "type": "address"
        },
        {
          "internalType": "uint256",
          "name": "amount",
          "type": "uint256"
        }
      ],
      "name": "approve",
      "outputs": [
        {
          "internalType": "bool",
          "name": "",
          "type": "bool"
        }
      ],
      "stateMutability": "nonpayable",
      "type": "function"
    },
    {
      "inputs": [
        {
          "internalType": "address",
          "name": "account",
          "type": "address"
        }
      ],
      "name": "balanceOf",
      "outputs": [
        {
          "internalType": "uint256",
          "name": "",
          "type": "uint256"
        }
      ],
      "stateMutability": "view",
      "type": "function"
    },
    {
      "inputs": [],
      "name": "decimals",
      "outputs": [
        {
          "internalType": "uint8",
          "name": "",
          "type": "uint8"
        }
      ],
      "stateMutability": "view",
      "type": "function"
    },
    {
      "inputs": [
        {
          "internalType": "address",
          "name": "spender",
          "type": "address"
        },
        {
          "internalType": "uint256",
          "name": "subtractedValue",
          "type": "uint256"
        }
      ],
      "name": "decreaseAllowance",
      "outputs": [
        {
          "internalType": "bool",
          "name": "",
          "type": "bool"
        }
      ],
      "stateMutability": "nonpayable",
      "type": "function"
    },
    {
      "inputs": [],
      "name": "erc1155FragmentReserves",
      "outputs": [
        {
          "internalType": "uint256",
          "name": "",
          "type": "uint256"
        }
      ],
      "stateMutability": "view",
      "type": "function"
    },
    {
      "inputs": [],
      "name": "erc1155FragmentReservesActivated",
      "outputs": [
        {
          "internalType": "uint256",
          "name": "",
          "type": "uint256"
        }
      ],
      "stateMutability": "view",
      "type": "function"
    },
    {
      "inputs": [],
      "name": "erc1155LPTotal",
      "outputs": [
        {
          "internalType": "uint256",
          "name": "",
          "type": "uint256"
        }
      ],
      "stateMutability": "view",
      "type": "function"
    },
    {
      "inputs": [],
      "name": "erc1155token",
      "outputs": [
        {
          "internalType": "contract IERC1155",
          "name": "",
          "type": "address"
        }
      ],
      "stateMutability": "view",
      "type": "function"
    },
    {
      "inputs": [],
      "name": "erc20Reserve",
      "outputs": [
        {
          "internalType": "uint256",
          "name": "",
          "type": "uint256"
        }
      ],
      "stateMutability": "view",
      "type": "function"
    },
    {
      "inputs": [],
      "name": "erc20token",
      "outputs": [
        {
          "internalType": "contract IERC20Metadata",
          "name": "",
          "type": "address"
        }
      ],
      "stateMutability": "view",
      "type": "function"
    },
    {
      "inputs": [],
      "name": "factory",
      "outputs": [
        {
          "internalType": "address",
          "name": "",
          "type": "address"
        }
      ],
      "stateMutability": "view",
      "type": "function"
    },
    {
      "inputs": [
        {
          "internalType": "address",
          "name": "spender",
          "type": "address"
        },
        {
          "internalType": "uint256",
          "name": "addedValue",
          "type": "uint256"
        }
      ],
      "name": "increaseAllowance",
      "outputs": [
        {
          "internalType": "bool",
          "name": "",
          "type": "bool"
        }
      ],
      "stateMutability": "nonpayable",
      "type": "function"
    },
    {
      "inputs": [
        {
          "internalType": "address",
          "name": "forwarder",
          "type": "address"
        }
      ],
      "name": "isTrustedForwarder",
      "outputs": [
        {
          "internalType": "bool",
          "name": "",
          "type": "bool"
        }
      ],
      "stateMutability": "view",
      "type": "function"
    },
    {
      "inputs": [],
      "name": "name",
      "outputs": [
        {
          "internalType": "string",
          "name": "",
          "type": "string"
        }
      ],
      "stateMutability": "view",
      "type": "function"
    },
    {
      "inputs": [],
      "name": "nftfragments",
      "outputs": [
        {
          "internalType": "uint256",
          "name": "",
          "type": "uint256"
        }
      ],
      "stateMutability": "view",
      "type": "function"
    },
    {
      "inputs": [],
      "name": "ownerCutPerMillion",
      "outputs": [
        {
          "internalType": "uint256",
          "name": "",
          "type": "uint256"
        }
      ],
      "stateMutability": "view",
      "type": "function"
    },
    {
      "inputs": [],
      "name": "productId",
      "outputs": [
        {
          "internalType": "bytes32",
          "name": "",
          "type": "bytes32"
        }
      ],
      "stateMutability": "view",
      "type": "function"
    },
    {
      "inputs": [
        {
          "internalType": "bytes4",
          "name": "interfaceId",
          "type": "bytes4"
        }
      ],
      "name": "supportsInterface",
      "outputs": [
        {
          "internalType": "bool",
          "name": "",
          "type": "bool"
        }
      ],
      "stateMutability": "view",
      "type": "function"
    },
    {
      "inputs": [],
      "name": "symbol",
      "outputs": [
        {
          "internalType": "string",
          "name": "",
          "type": "string"
        }
      ],
      "stateMutability": "view",
      "type": "function"
    },
    {
      "inputs": [],
      "name": "tokenId",
      "outputs": [
        {
          "internalType": "uint256",
          "name": "",
          "type": "uint256"
        }
      ],
      "stateMutability": "view",
      "type": "function"
    },
    {
      "inputs": [],
      "name": "totalSupply",
      "outputs": [
        {
          "internalType": "uint256",
          "name": "",
          "type": "uint256"
        }
      ],
      "stateMutability": "view",
      "type": "function"
    },
    {
      "inputs": [
        {
          "internalType": "address",
          "name": "to",
          "type": "address"
        },
        {
          "internalType": "uint256",
          "name": "amount",
          "type": "uint256"
        }
      ],
      "name": "transfer",
      "outputs": [
        {
          "internalType": "bool",
          "name": "",
          "type": "bool"
        }
      ],
      "stateMutability": "nonpayable",
      "type": "function"
    },
    {
      "inputs": [
        {
          "internalType": "address",
          "name": "from",
          "type": "address"
        },
        {
          "internalType": "address",
          "name": "to",
          "type": "address"
        },
        {
          "internalType": "uint256",
          "name": "amount",
          "type": "uint256"
        }
      ],
      "name": "transferFrom",
      "outputs": [
        {
          "internalType": "bool",
          "name": "",
          "type": "bool"
        }
      ],
      "stateMutability": "nonpayable",
      "type": "function"
    },
    {
      "inputs": [],
      "name": "totalSupplie",
      "outputs": [
        {
          "internalType": "uint256",
          "name": "",
          "type": "uint256"
        }
      ],
      "stateMutability": "view",
      "type": "function"
    },
    {
      "inputs": [
        {
          "internalType": "address",
          "name": "provider",
          "type": "address"
        },
        {
          "internalType": "uint256",
          "name": "erc20Amount",
          "type": "uint256"
        },
        {
          "internalType": "uint256",
          "name": "erc1155Amount",
          "type": "uint256"
        }
      ],
      "name": "init",
      "outputs": [],
      "stateMutability": "nonpayable",
      "type": "function"
    },
    {
      "inputs": [
        {
          "internalType": "uint256",
          "name": "wantStakeAmount",
          "type": "uint256"
        }
      ],
      "name": "getERC20AvailableSpace",
      "outputs": [
        {
          "internalType": "uint256",
          "name": "",
          "type": "uint256"
        },
        {
          "internalType": "uint256",
          "name": "",
          "type": "uint256"
        }
      ],
      "stateMutability": "view",
      "type": "function"
    },
    {
      "inputs": [
        {
          "internalType": "uint256",
          "name": "erc20Amount",
          "type": "uint256"
        }
      ],
      "name": "addERC20Liquidity",
      "outputs": [],
      "stateMutability": "nonpayable",
      "type": "function"
    },
    {
      "inputs": [
        {
          "internalType": "uint256",
          "name": "amount",
          "type": "uint256"
        }
      ],
      "name": "addERC1155Liquidity",
      "outputs": [],
      "stateMutability": "nonpayable",
      "type": "function"
    },
    {
      "inputs": [
        {
          "internalType": "uint256",
          "name": "sellFragments",
          "type": "uint256"
        }
      ],
      "name": "getSellPrice",
      "outputs": [
        {
          "internalType": "uint256",
          "name": "toUserPrice",
          "type": "uint256"
        },
        {
          "internalType": "uint256",
          "name": "fragmentFees",
          "type": "uint256"
        },
        {
          "internalType": "uint256",
          "name": "erc20Fees",
          "type": "uint256"
        }
      ],
      "stateMutability": "view",
      "type": "function"
    },
    {
      "inputs": [
        {
          "internalType": "uint256",
          "name": "buyamount",
          "type": "uint256"
        }
      ],
      "name": "getBuyPrice",
      "outputs": [
        {
          "internalType": "uint256",
          "name": "fromUserPrice",
          "type": "uint256"
        },
        {
          "internalType": "uint256",
          "name": "fragmentFees",
          "type": "uint256"
        },
        {
          "internalType": "uint256",
          "name": "erc20Fees",
          "type": "uint256"
        }
      ],
      "stateMutability": "view",
      "type": "function"
    },
    {
      "inputs": [
        {
          "internalType": "address",
          "name": "account",
          "type": "address"
        }
      ],
      "name": "getWithdrawERC20",
      "outputs": [
        {
          "internalType": "uint256",
          "name": "",
          "type": "uint256"
        },
        {
          "internalType": "uint256",
          "name": "",
          "type": "uint256"
        }
      ],
      "stateMutability": "view",
      "type": "function"
    },
    {
      "inputs": [
        {
          "internalType": "address",
          "name": "account",
          "type": "address"
        },
        {
          "internalType": "bool",
          "name": "autoSwap",
          "type": "bool"
        }
      ],
      "name": "getWithdrawFragments",
      "outputs": [
        {
          "internalType": "uint256",
          "name": "nft",
          "type": "uint256"
        },
        {
          "internalType": "uint256",
          "name": "fragmentRemnants",
          "type": "uint256"
        },
        {
          "internalType": "uint256",
          "name": "toUserPrice",
          "type": "uint256"
        }
      ],
      "stateMutability": "view",
      "type": "function"
    },
    {
      "inputs": [
        {
          "internalType": "uint256",
          "name": "withdrawAmount",
          "type": "uint256"
        }
      ],
      "name": "withdrawERC20",
      "outputs": [],
      "stateMutability": "nonpayable",
      "type": "function"
    },
    {
      "inputs": [
        {
          "internalType": "uint256",
          "name": "withdrawAmount",
          "type": "uint256"
        },
        {
          "internalType": "uint256",
          "name": "tknRate",
          "type": "uint256"
        },
        {
          "internalType": "bool",
          "name": "autoSwap",
          "type": "bool"
        }
      ],
      "name": "withdrawERC1155",
      "outputs": [],
      "stateMutability": "nonpayable",
      "type": "function"
    },
    {
      "inputs": [
        {
          "internalType": "uint256",
          "name": "sellFragmentAmount",
          "type": "uint256"
        },
        {
          "internalType": "uint256",
          "name": "tknRate",
          "type": "uint256"
        }
      ],
      "name": "sell",
      "outputs": [],
      "stateMutability": "nonpayable",
      "type": "function"
    },
    {
      "inputs": [
        {
          "internalType": "uint256",
          "name": "buyamount",
          "type": "uint256"
        },
        {
          "internalType": "uint256",
          "name": "tknRate",
          "type": "uint256"
        },
        {
          "internalType": "uint256",
          "name": "fromUserPriceFromUI",
          "type": "uint256"
        }
      ],
      "name": "buy",
      "outputs": [],
      "stateMutability": "nonpayable",
      "type": "function"
    },
    {
      "inputs": [
        {
          "internalType": "address",
          "name": "buyer",
          "type": "address"
        },
        {
          "internalType": "address",
          "name": "fundsProvider",
          "type": "address"
        },
        {
          "internalType": "uint256",
          "name": "buyamount",
          "type": "uint256"
        },
        {
          "internalType": "uint256",
          "name": "tknRate",
          "type": "uint256"
        }
      ],
      "name": "autoBuy",
      "outputs": [],
      "stateMutability": "nonpayable",
      "type": "function"
    },
    {
      "inputs": [
        {
          "internalType": "address",
          "name": "",
          "type": "address"
        },
        {
          "internalType": "address",
          "name": "_from",
          "type": "address"
        },
        {
          "internalType": "uint256[]",
          "name": "_ids",
          "type": "uint256[]"
        },
        {
          "internalType": "uint256[]",
          "name": "_amounts",
          "type": "uint256[]"
        },
        {
          "internalType": "bytes",
          "name": "_data",
          "type": "bytes"
        }
      ],
      "name": "onERC1155BatchReceived",
      "outputs": [
        {
          "internalType": "bytes4",
          "name": "",
          "type": "bytes4"
        }
      ],
      "stateMutability": "nonpayable",
      "type": "function"
    },
    {
      "inputs": [
        {
          "internalType": "address",
          "name": "_operator",
          "type": "address"
        },
        {
          "internalType": "address",
          "name": "_from",
          "type": "address"
        },
        {
          "internalType": "uint256",
          "name": "_id",
          "type": "uint256"
        },
        {
          "internalType": "uint256",
          "name": "_amount",
          "type": "uint256"
        },
        {
          "internalType": "bytes",
          "name": "_data",
          "type": "bytes"
        }
      ],
      "name": "onERC1155Received",
      "outputs": [
        {
          "internalType": "bytes4",
          "name": "",
          "type": "bytes4"
        }
      ],
      "stateMutability": "nonpayable",
      "type": "function"
    }
  ],
  "bytecode": "0x61014060405261c350600a55612710600b553480156200001e57600080fd5b5060405162003bec38038062003bec83398101604081905262000041916200045e565b60408051808201909152601181527013595b185b990c8c150c4c4d4d541bdbdb607a1b60208201528190620000778487620000e9565b81516200008c9060039060208501906200039f565b508051620000a29060049060208401906200039f565b5050506001600160a01b0390811660805285811660a052841660c05260e0839052620000cd62000346565b6001600160a01b0316610100525061012052506200074a915050565b6060826000620000fc60206002620004dd565b60ff166001600160401b0381111562000119576200011962000509565b6040519080825280601f01601f19166020018201604052801562000144576020820181803683370190505b5060408051808201909152601081526f181899199a1a9b1b9c1cb0b131b232b360811b602082015290915060005b60208110156200029e578182518583602081106200019457620001946200051f565b620001a29291901a6200054b565b81518110620001b557620001b56200051f565b01602001516001600160f81b03191683620001d283600262000562565b81518110620001e557620001e56200051f565b60200101906001600160f81b031916908160001a9053508182518583602081106200021457620002146200051f565b620002229291901a62000584565b815181106200023557620002356200051f565b01602001516001600160f81b031916836200025283600262000562565b6200025f9060016200059b565b815181106200027257620002726200051f565b60200101906001600160f81b031916908160001a905350806200029581620005b6565b91505062000172565b5081856001600160a01b03166306fdde036040518163ffffffff1660e01b815260040160006040518083038186803b158015620002da57600080fd5b505afa158015620002ef573d6000803e3d6000fd5b505050506040513d6000823e601f3d908101601f1916820160405262000319919081019062000607565b6040516020016200032c929190620006bf565b604051602081830303815290604052935050505092915050565b60006200035d6200036260201b620015311760201c565b905090565b6080516000906001600160a01b031633141562000386575060131936013560601c90565b6200035d6200039b60201b620015761760201c565b3390565b828054620003ad906200070d565b90600052602060002090601f016020900481019282620003d157600085556200041c565b82601f10620003ec57805160ff19168380011785556200041c565b828001600101855582156200041c579182015b828111156200041c578251825591602001919060010190620003ff565b506200042a9291506200042e565b5090565b5b808211156200042a57600081556001016200042f565b6001600160a01b03811681146200045b57600080fd5b50565b600080600080600060a086880312156200047757600080fd5b8551620004848162000445565b6020870151909550620004978162000445565b8094505060408601519250606086015191506080860151620004b98162000445565b809150509295509295909350565b634e487b7160e01b600052601160045260246000fd5b600060ff821660ff84168160ff0481118215151615620005015762000501620004c7565b029392505050565b634e487b7160e01b600052604160045260246000fd5b634e487b7160e01b600052603260045260246000fd5b634e487b7160e01b600052601260045260246000fd5b6000826200055d576200055d62000535565b500490565b60008160001904831182151516156200057f576200057f620004c7565b500290565b60008262000596576200059662000535565b500690565b60008219821115620005b157620005b1620004c7565b500190565b6000600019821415620005cd57620005cd620004c7565b5060010190565b60005b83811015620005f1578181015183820152602001620005d7565b8381111562000601576000848401525b50505050565b6000602082840312156200061a57600080fd5b81516001600160401b03808211156200063257600080fd5b818401915084601f8301126200064757600080fd5b8151818111156200065c576200065c62000509565b604051601f8201601f19908116603f0116810190838211818310171562000687576200068762000509565b81604052828152876020848701011115620006a157600080fd5b620006b4836020830160208801620005d4565b979650505050505050565b61060f60f31b815260008351620006de816002850160208801620005d4565b602d60f81b600291840191820152835162000701816003840160208801620005d4565b01600301949350505050565b600181811c908216806200072257607f821691505b602082108114156200074457634e487b7160e01b600052602260045260246000fd5b50919050565b60805160a05160c05160e05161010051610120516133db62000811600039600061056301526000818161053c01528181610c05015261131b0152600081816102e7015281816109bd01528181610eec0152611a9e01526000818161031601528181611143015281816119cf01528181611d5301528181611f5c015281816120f1015281816121f10152818161245301526125360152600081816104700152818161098c01528181610f2b0152611a6d0152600081816103bc015261153501526133db6000f3fe608060405234801561001057600080fd5b50600436106102485760003560e01c8063947236d51161013b578063c45a0155116100b8578063d79875eb1161007c578063d79875eb146105b4578063dd62ed3e146105c7578063e1b3f73a146105da578063f23a6e61146105ed578063f7083a761461060057600080fd5b8063c45a015514610537578063c5ce39111461055e578063c96b8bcc14610585578063cbfcd6051461058e578063d78276c6146105a157600080fd5b8063a4b59c25116100ff578063a4b59c25146104c9578063a9059cbb146104d2578063abfe8770146104e5578063ba730e53146104f8578063bc197c811461050b57600080fd5b8063947236d51461046b57806395d89b4114610492578063a01f79d41461049a578063a457c2d7146104a3578063a4a2a9f6146104b657600080fd5b806338ce4743116101c95780635ca2e0ae1161018d5780635ca2e0ae146103ec5780636014876d146103f4578063693eb135146104075780636d727d571461041a57806370a082311461044257600080fd5b806338ce474314610372578063395093511461037b57806340993b261461038e578063480b497f146103a3578063572b6c05146103ac57600080fd5b806317d70f7c1161021057806317d70f7c146102e257806318160ddd146103095780631dcea4271461031157806323b872dd14610350578063313ce5671461036357600080fd5b806301ffc9a71461024d57806306fdde031461027557806308d4db141461028a578063095ea7b3146102b857806312f40715146102cb575b600080fd5b61026061025b366004612a60565b610613565b60405190151581526020015b60405180910390f35b61027d61064a565b60405161026c9190612a8a565b61029d610298366004612adf565b6106dc565b6040805193845260208401929092529082015260600161026c565b6102606102c6366004612b14565b610795565b6102d460085481565b60405190815260200161026c565b6102d47f000000000000000000000000000000000000000000000000000000000000000081565b6002546102d4565b6103387f000000000000000000000000000000000000000000000000000000000000000081565b6040516001600160a01b03909116815260200161026c565b61026061035e366004612b3e565b6107b7565b6040516012815260200161026c565b6102d4600b5481565b610260610389366004612b14565b6107e5565b6103a161039c366004612b7a565b610811565b005b6102d460075481565b6102606103ba366004612ba6565b7f00000000000000000000000000000000000000000000000000000000000000006001600160a01b0390811691161490565b6102d46108d4565b6103a1610402366004612bd2565b6108e4565b6103a1610415366004612adf565b610b01565b61042d610428366004612ba6565b610b1b565b6040805192835260208301919091520161026c565b6102d4610450366004612ba6565b6001600160a01b031660009081526020819052604090205490565b6103387f000000000000000000000000000000000000000000000000000000000000000081565b61027d610b6e565b6102d4600a5481565b6102606104b1366004612b14565b610b7d565b6103a16104c4366004612c0b565b610c03565b6102d460095481565b6102606104e0366004612b14565b610c79565b61042d6104f3366004612adf565b610c91565b61029d610506366004612adf565b610d30565b61051e610519366004612d31565b610dda565b6040516001600160e01b0319909116815260200161026c565b6103387f000000000000000000000000000000000000000000000000000000000000000081565b6102d47f000000000000000000000000000000000000000000000000000000000000000081565b6102d460055481565b6103a161059c366004612adf565b611097565b6103a16105af366004612adf565b6110ad565b6103a16105c2366004612de1565b6112d2565b6102d46105d5366004612e03565b6112ee565b6103a16105e8366004612e36565b611319565b61051e6105fb366004612e78565b61137d565b61029d61060e366004612ede565b6114b6565b60006001600160e01b03198216630271189760e51b148061064457506301ffc9a760e01b6001600160e01b03198316145b92915050565b60606003805461065990612f15565b80601f016020809104026020016040519081016040528092919081815260200182805461068590612f15565b80156106d25780601f106106a7576101008083540402835291602001916106d2565b820191906000526020600020905b8154815290600101906020018083116106b557829003601f168201915b5050505050905090565b60008080836106f35750600091508190508061078e565b60006106fe8561157a565b9050621e8480600a54826107129190612f66565b61071c9190612f9b565b9250600061072a8483612faf565b905060008160075461073c9190612f66565b905060008260095461074e9190612fc7565b9050600061075c8284612f9b565b9050621e8480600a54826107709190612f66565b61077a9190612f9b565b95506107868682612faf565b975050505050505b9193909250565b6000806107a061158a565b90506107ad818585611594565b5060019392505050565b6000806107c261158a565b90506107cf8582856116b8565b6107da85858561172c565b506001949350505050565b6000806107f061158a565b90506107ad81858561080285896112ee565b61080c9190612faf565b611594565b600061081b61158a565b90506000610828856106dc565b505090506127108361277461083d9190612f66565b6108479190612f9b565b8111156108c15760405162461bcd60e51b815260206004820152603a60248201527f4d656c616e642e4d61726b6574706c616365236175746f4275793a205468652060448201527f746f74616c207072696365206973206e6f7420636f727265637400000000000060648201526084015b60405180910390fd5b6108cd828387876118fa565b5050505050565b60006108df60025490565b905090565b60006108ee61158a565b90506000806108fd83856114b6565b5091509150858210156109755760405162461bcd60e51b8152602060048201526046602482015260008051602061336683398151915260448201527f7769746864726177455243313135353a20496e73756666696369656e74202062606482015265616c616e636560d01b608482015260a4016108b8565b604051637921219560e11b81526001600160a01b037f0000000000000000000000000000000000000000000000000000000000000000169063f242432a906109e790309087907f0000000000000000000000000000000000000000000000000000000000000000908c90600401612fde565b600060405180830381600087803b158015610a0157600080fd5b505af1158015610a15573d6000803e3d6000fd5b505050506000610a248761157a565b9050610a308282612faf565b9050600060085460055483610a459190612f66565b610a4f9190612f9b565b90508160086000828254610a639190612fc7565b90915550508515610a8957506001600160a01b0384166000908152600660205260409020545b610a938582611bb6565b8215610aa457610aa4858489611c99565b60408051898152600060208201819052818301849052606082015290516001600160a01b038716917f8598e6b147330d38243f9c4cd33d61e208b9015719e977086fa42a0f73b1462b919081900360800190a25050505050505050565b6000610b0b61158a565b9050610b178183611e8f565b5050565b6000806000610b3f846001600160a01b031660009081526020819052604090205490565b90506000610b4b6108d4565b600754610b589084612f66565b610b629190612f9b565b95600095509350505050565b60606004805461065990612f15565b600080610b8861158a565b90506000610b9682866112ee565b905083811015610bf65760405162461bcd60e51b815260206004820152602560248201527f45524332303a2064656372656173656420616c6c6f77616e63652062656c6f77604482015264207a65726f60d81b60648201526084016108b8565b6107da8286868403611594565b7f00000000000000000000000000000000000000000000000000000000000000006001600160a01b0316610c3561158a565b6001600160a01b031614610c5b5760405162461bcd60e51b81526004016108b890613016565b6000610c6561158a565b9050610c73848285856121ef565b50505050565b600080610c8461158a565b90506107ad81858561172c565b60008060006008546009541015610cb557600954600854610cb29190612fc7565b90505b60095460009015610cdd57600954600754610cd09084612f66565b610cda9190612f9b565b90505b600085821015610d14576000610cf38388612fc7565b905060075460095482610d069190612f66565b610d109190612f9b565b9150505b6000610d2182600161261d565b50929792965091945050505050565b6000808083610d475750600091508190508061078e565b621e8480600a5485610d599190612f66565b610d639190612f9b565b91506000610d718386612fc7565b9050600081600754610d839190612f66565b9050600082600954610d959190612faf565b90506000610da38284612f9b565b9050621e8480600a5482610db79190612f66565b610dc19190612f9b565b9450610dcd8582612fc7565b9650505050509193909250565b600080610dea6004828587613073565b610df39161309d565b90506001600160e01b03198116630a72b7c560e21b1480610e2457506001600160e01b0319811663e5d5876d60e01b145b610eaa5760405162461bcd60e51b8152602060048201526058602482015260008051602061338683398151915260448201527f31313535236f6e4552433131353542617463685265636569766564353a20496e60648201527f76616c69642066756e6374696f6e207369676e61747572650000000000000000608482015260a4016108b8565b8551600114610ecb5760405162461bcd60e51b81526004016108b8906130cd565b600086600081518110610ee057610ee061312f565b602002602001015190507f00000000000000000000000000000000000000000000000000000000000000008114610f295760405162461bcd60e51b81526004016108b8906130cd565b7f00000000000000000000000000000000000000000000000000000000000000006001600160a01b0316610f5b61158a565b6001600160a01b031614610fda5760405162461bcd60e51b815260206004820152604c602482015260008051602061338683398151915260448201527f31313535236f6e4552433131353542617463685265636569766564353a20496e60648201526b3b30b634b21039b2b73232b960a11b608482015260a4016108b8565b6001600160e01b03198216630a72b7c560e21b141561101c57611017888760008151811061100a5761100a61312f565b6020026020010151612673565b611082565b6001600160e01b0319821663e5d5876d60e01b14156110825760006110448560048189613073565b8101906110519190612adf565b90506110808961107a8960008151811061106d5761106d61312f565b602002602001015161157a565b83611c99565b505b5063bc197c8160e01b98975050505050505050565b60006110a161158a565b9050610b178183612673565b60006110b761158a565b90506000806110c583610b1b565b91509150838210156111395760405162461bcd60e51b8152602060048201526043602482015260008051602061336683398151915260448201527f776974686472617745524332303a20496e73756666696369656e742062616c616064820152626e636560e81b608482015260a4016108b8565b6001600160a01b037f00000000000000000000000000000000000000000000000000000000000000001663a9059cbb846111738488612faf565b6040516001600160e01b031960e085901b1681526001600160a01b0390921660048301526024820152604401602060405180830381600087803b1580156111b957600080fd5b505af11580156111cd573d6000803e3d6000fd5b505050506040513d601f19601f820116820180604052508101906111f19190613145565b506111fb84612736565b600061121a6112086108d4565b6112129087612f66565b600754612758565b9050846007600082825461122e9190612fc7565b90915550506001600160a01b03841660009081526020819052604090205481111561126e57506001600160a01b0383166000908152602081905260409020545b611278848261278e565b60408051600080825260208201889052818301526060810183905290516001600160a01b038616917f8598e6b147330d38243f9c4cd33d61e208b9015719e977086fa42a0f73b1462b919081900360800190a25050505050565b60006112dc61158a565b90506112e9818484611c99565b505050565b6001600160a01b03918216600090815260016020908152604080832093909416825291909152205490565b7f00000000000000000000000000000000000000000000000000000000000000006001600160a01b031661134b61158a565b6001600160a01b0316146113715760405162461bcd60e51b81526004016108b890613016565b610c73848484846118fa565b60408051600180825281830190925260009182919060208083019080368337505060408051600180825281830190925292935060009291506020808301908036833701905050905086826000815181106113d9576113d961312f565b60200260200101818152505085816000815181106113f9576113f961312f565b602002602001018181525050611413898984848989610dda565b6001600160e01b03191663bc197c8160e01b146114a15760405162461bcd60e51b8152602060048201526052602482015260008051602061338683398151915260448201527f31313535236f6e4552433131353552656365697665643a20494e56414c49445f6064820152714f4e52454345495645445f4d45535341474560701b608482015260a4016108b8565b5063f23a6e6160e01b98975050505050505050565b6001600160a01b0382166000908152600660205260408120546005546008548392839290918391906114e89084612f66565b6114f29190612f9b565b9050600061150182600061261d565b90965090508615611527576115168183612fc7565b945061152185610d30565b50909450505b5050509250925092565b60007f00000000000000000000000000000000000000000000000000000000000000006001600160a01b0316331415611571575060131936013560601c90565b503390565b3390565b6000600b54826106449190612f66565b60006108df611531565b6001600160a01b0383166115f65760405162461bcd60e51b8152602060048201526024808201527f45524332303a20617070726f76652066726f6d20746865207a65726f206164646044820152637265737360e01b60648201526084016108b8565b6001600160a01b0382166116575760405162461bcd60e51b815260206004820152602260248201527f45524332303a20617070726f766520746f20746865207a65726f206164647265604482015261737360f01b60648201526084016108b8565b6001600160a01b0383811660008181526001602090815260408083209487168084529482529182902085905590518481527f8c5be1e5ebec7d5bd14f71427d1e84f3dd0314c0f7b2291e5b200ac8c7c3b925910160405180910390a3505050565b60006116c484846112ee565b90506000198114610c73578181101561171f5760405162461bcd60e51b815260206004820152601d60248201527f45524332303a20696e73756666696369656e7420616c6c6f77616e636500000060448201526064016108b8565b610c738484848403611594565b6001600160a01b0383166117905760405162461bcd60e51b815260206004820152602560248201527f45524332303a207472616e736665722066726f6d20746865207a65726f206164604482015264647265737360d81b60648201526084016108b8565b6001600160a01b0382166117f25760405162461bcd60e51b815260206004820152602360248201527f45524332303a207472616e7366657220746f20746865207a65726f206164647260448201526265737360e81b60648201526084016108b8565b6001600160a01b0383166000908152602081905260409020548181101561186a5760405162461bcd60e51b815260206004820152602660248201527f45524332303a207472616e7366657220616d6f756e7420657863656564732062604482015265616c616e636560d01b60648201526084016108b8565b6001600160a01b038085166000908152602081905260408082208585039055918516815290812080548492906118a1908490612faf565b92505081905550826001600160a01b0316846001600160a01b03167fddf252ad1be2c89b69c2b068fc378daa952ba7f163c4a11628f55a4df523b3ef846040516118ed91815260200190565b60405180910390a3610c73565b60006119058361157a565b905080600954101561196d5760405162461bcd60e51b815260206004820152603a602482015260008051602061336683398151915260448201527f5f6275793a20496e73756666696369656e742062616c616e636500000000000060648201526084016108b8565b600080600061197b866106dc565b92509250925060008061198d836128dc565b9150915060008061199d866128dc565b6040516323b872dd60e01b81526001600160a01b038e81166004830152306024830152604482018b90529294509092507f0000000000000000000000000000000000000000000000000000000000000000909116906323b872dd90606401602060405180830381600087803b158015611a1557600080fd5b505af1158015611a29573d6000803e3d6000fd5b505050506040513d601f19601f82011682018060405250810190611a4d9190613145565b50611a588388612fc7565b600754611a659190612faf565b6007819055507f00000000000000000000000000000000000000000000000000000000000000006001600160a01b031663f242432a308e7f00000000000000000000000000000000000000000000000000000000000000008e6040518563ffffffff1660e01b8152600401611add9493929190612fde565b600060405180830381600087803b158015611af757600080fd5b505af1158015611b0b573d6000803e3d6000fd5b505050508088611b1b9190612faf565b600854611b289190612fc7565b600855611b358689612faf565b600954611b429190612fc7565b600955611b4e84612909565b604080518981526020810189905290810185905260608101839052608081018a90526001600160a01b038d16907f178f20a8980b4e6cdc2c84f3ef670f5047f63638f90a8acc6b724b43f1da778d9060a00160405180910390a2505050505050505050505050565b6001600160a01b038216600090815260066020526040902054811115611c445760405162461bcd60e51b815260206004820152603e60248201527f4d656c616e645377617045786368616e6765506f6f6c32305431313535235f6260448201527f75726e455243313135354c503a205065726d697373696f6e206572726f72000060648201526084016108b8565b80600554611c529190612fc7565b6005556001600160a01b038216600090815260066020526040902054611c79908290612fc7565b6001600160a01b0390921660009081526006602052604090209190915550565b6000806000611ca785610d30565b9250925092508260075411611d0b5760405162461bcd60e51b8152602060048201526036602482015260008051602061336683398151915260448201527517dcd95b1b0e881b9bdd081a5b9a5d1a585b1a5e995960521b60648201526084016108b8565b600080611d17836128dc565b91509150600080611d27866128dc565b60405163a9059cbb60e01b81526001600160a01b038d81166004830152602482018b90529294509092507f00000000000000000000000000000000000000000000000000000000000000009091169063a9059cbb90604401602060405180830381600087803b158015611d9957600080fd5b505af1158015611dad573d6000803e3d6000fd5b505050506040513d601f19601f82011682018060405250810190611dd19190613145565b50611ddc8388612faf565b600754611de99190612fc7565b600755611df6818a612fc7565b600854611e039190612faf565b600855611e10868a612fc7565b600954611e1d9190612faf565b600955611e2984612909565b604080518a81526020810189905290810185905260608101839052608081018990526001600160a01b038b16907f20a7fc03b19d7f251cc907f177ff82194c6aebe9a2b47e1cd734dcb6bf772cc29060a00160405180910390a250505050505050505050565b6000611e9b6000610c91565b5090506000611ea86108d4565b11611ec55760405162461bcd60e51b81526004016108b890613162565b80821115611f355760405162461bcd60e51b8152602060048201526043602482015260008051602061336683398151915260448201527f61646445524332304c69717569646974793a206e6f7420656e6f75676820737060648201526261636560e81b608482015260a4016108b8565b604051636eb1769f60e11b81526001600160a01b03848116600483015230602483015283917f00000000000000000000000000000000000000000000000000000000000000009091169063dd62ed3e9060440160206040518083038186803b158015611fa057600080fd5b505afa158015611fb4573d6000803e3d6000fd5b505050506040513d601f19601f82011682018060405250810190611fd891906131b8565b1015611ff65760405162461bcd60e51b81526004016108b8906131d1565b611fff82612909565b60095460085410156120a15760405162461bcd60e51b815260206004820152606b602482015260008051602061336683398151915260448201527f61646445524332304c69717569646974793a206572633131353552657365727660648201527f65416374697661746564206d757374206265206c657373207468616e2065726360848201526a313135355265736572766560a81b60a482015260c4016108b8565b60006007546120ae6108d4565b6120b89085612f66565b6120c29190612f9b565b6040516323b872dd60e01b81526001600160a01b038681166004830152306024830152604482018690529192507f0000000000000000000000000000000000000000000000000000000000000000909116906323b872dd90606401602060405180830381600087803b15801561213757600080fd5b505af115801561214b573d6000803e3d6000fd5b505050506040513d601f19601f8201168201806040525081019061216f9190613145565b5082600760008282546121829190612faf565b9091555061219290508482612924565b6040805160008082526020820186905291810191909152606081018290526001600160a01b038516907f08d7621a09a86934f387f650007fa17f2413759ca5f2ae0681161b371583a5f5906080015b60405180910390a250505050565b7f00000000000000000000000000000000000000000000000000000000000000006001600160a01b031663313ce5676040518163ffffffff1660e01b815260040160206040518083038186803b15801561224857600080fd5b505afa15801561225c573d6000803e3d6000fd5b505050506040513d601f19601f82011682018060405250810190612280919061323b565b61228b90600a613342565b612296906064612f66565b8210156123265760405162461bcd60e51b815260206004820152605260248201527f4d656c616e645377617045786368616e6765506f6f6c3230543131353523696e60448201527f69744c69717569646974793a206572633230416d6f756e74206d75737420626560648201527102067726561746572207468616e20313030360741b608482015260a4016108b8565b600081116123b85760405162461bcd60e51b815260206004820152605360248201527f4d656c616e642e537761702e45786368616e6765506f6f6c323054313135352e60448201527f696e69744c69717569646974793a2065726331313535416d6f756e74206d75736064820152720742062652067726561746572207468616e203606c1b608482015260a4016108b8565b6123c06108d4565b1561242c5760405162461bcd60e51b8152602060048201526042602482015260008051602061336683398151915260448201527f696e69744c69717569646974793a20616c726561647920696e697469616c697a606482015261195960f21b608482015260a4016108b8565b604051636eb1769f60e11b81526001600160a01b03848116600483015230602483015283917f00000000000000000000000000000000000000000000000000000000000000009091169063dd62ed3e9060440160206040518083038186803b15801561249757600080fd5b505afa1580156124ab573d6000803e3d6000fd5b505050506040513d601f19601f820116820180604052508101906124cf91906131b8565b10156124ed5760405162461bcd60e51b81526004016108b8906131d1565b6124f68161157a565b6008556125028161157a565b60095560078290556040516323b872dd60e01b81526001600160a01b038481166004830152306024830152604482018490527f000000000000000000000000000000000000000000000000000000000000000016906323b872dd90606401602060405180830381600087803b15801561257a57600080fd5b505af115801561258e573d6000803e3d6000fd5b505050506040513d601f19601f820116820180604052508101906125b29190613145565b506125bd8483612924565b6125c98460085461292e565b600854604080518381526020810185905290810191909152606081018390526001600160a01b038516907f08d7621a09a86934f387f650007fa17f2413759ca5f2ae0681161b371583a5f5906080016121e1565b6000806000600b54856126309190612f9b565b905083801561264957506000612647606487613351565b115b1561265c57612659816001612faf565b90505b806126668261157a565b92509250505b9250929050565b6000600554116126955760405162461bcd60e51b81526004016108b890613162565b60006126a08261157a565b90506000600854600554836126b59190612f66565b6126bf9190612f9b565b905081600860008282546126d39190612faf565b909155506126e39050848261292e565b6040805184815260006020820181905291810183905260608101919091526001600160a01b038516907f08d7621a09a86934f387f650007fa17f2413759ca5f2ae0681161b371583a5f5906080016121e1565b600061274182612963565b9050806009546127519190612fc7565b6009555050565b6000806127658385612f9b565b905060006127738486613351565b111561278757612784816001612faf565b90505b9392505050565b6001600160a01b0382166127ee5760405162461bcd60e51b815260206004820152602160248201527f45524332303a206275726e2066726f6d20746865207a65726f206164647265736044820152607360f81b60648201526084016108b8565b6001600160a01b038216600090815260208190526040902054818110156128625760405162461bcd60e51b815260206004820152602260248201527f45524332303a206275726e20616d6f756e7420657863656564732062616c616e604482015261636560f01b60648201526084016108b8565b6001600160a01b0383166000908152602081905260408120838303905560028054849290612891908490612fc7565b90915550506040518281526000906001600160a01b038516907fddf252ad1be2c89b69c2b068fc378daa952ba7f163c4a11628f55a4df523b3ef9060200160405180910390a3505050565b60008060646128ec846050612f66565b6128f69190612f9b565b91506129028284612fc7565b9050915091565b600061291482612963565b9050806009546127519190612faf565b610b178282612981565b8060055461293c9190612faf565b6005556001600160a01b038216600090815260066020526040902054611c79908290612faf565b600080600754600954846129779190612f66565b6127879190612f9b565b6001600160a01b0382166129d75760405162461bcd60e51b815260206004820152601f60248201527f45524332303a206d696e7420746f20746865207a65726f20616464726573730060448201526064016108b8565b80600260008282546129e99190612faf565b90915550506001600160a01b03821660009081526020819052604081208054839290612a16908490612faf565b90915550506040518181526001600160a01b038316906000907fddf252ad1be2c89b69c2b068fc378daa952ba7f163c4a11628f55a4df523b3ef9060200160405180910390a35050565b600060208284031215612a7257600080fd5b81356001600160e01b03198116811461278757600080fd5b600060208083528351808285015260005b81811015612ab757858101830151858201604001528201612a9b565b81811115612ac9576000604083870101525b50601f01601f1916929092016040019392505050565b600060208284031215612af157600080fd5b5035919050565b80356001600160a01b0381168114612b0f57600080fd5b919050565b60008060408385031215612b2757600080fd5b612b3083612af8565b946020939093013593505050565b600080600060608486031215612b5357600080fd5b612b5c84612af8565b9250612b6a60208501612af8565b9150604084013590509250925092565b600080600060608486031215612b8f57600080fd5b505081359360208301359350604090920135919050565b600060208284031215612bb857600080fd5b61278782612af8565b8015158114612bcf57600080fd5b50565b600080600060608486031215612be757600080fd5b83359250602084013591506040840135612c0081612bc1565b809150509250925092565b600080600060608486031215612c2057600080fd5b612c2984612af8565b95602085013595506040909401359392505050565b634e487b7160e01b600052604160045260246000fd5b600082601f830112612c6557600080fd5b8135602067ffffffffffffffff80831115612c8257612c82612c3e565b8260051b604051601f19603f83011681018181108482111715612ca757612ca7612c3e565b604052938452858101830193838101925087851115612cc557600080fd5b83870191505b84821015612ce457813583529183019190830190612ccb565b979650505050505050565b60008083601f840112612d0157600080fd5b50813567ffffffffffffffff811115612d1957600080fd5b60208301915083602082850101111561266c57600080fd5b60008060008060008060a08789031215612d4a57600080fd5b612d5387612af8565b9550612d6160208801612af8565b9450604087013567ffffffffffffffff80821115612d7e57600080fd5b612d8a8a838b01612c54565b95506060890135915080821115612da057600080fd5b612dac8a838b01612c54565b94506080890135915080821115612dc257600080fd5b50612dcf89828a01612cef565b979a9699509497509295939492505050565b60008060408385031215612df457600080fd5b50508035926020909101359150565b60008060408385031215612e1657600080fd5b612e1f83612af8565b9150612e2d60208401612af8565b90509250929050565b60008060008060808587031215612e4c57600080fd5b612e5585612af8565b9350612e6360208601612af8565b93969395505050506040820135916060013590565b60008060008060008060a08789031215612e9157600080fd5b612e9a87612af8565b9550612ea860208801612af8565b94506040870135935060608701359250608087013567ffffffffffffffff811115612ed257600080fd5b612dcf89828a01612cef565b60008060408385031215612ef157600080fd5b612efa83612af8565b91506020830135612f0a81612bc1565b809150509250929050565b600181811c90821680612f2957607f821691505b60208210811415612f4a57634e487b7160e01b600052602260045260246000fd5b50919050565b634e487b7160e01b600052601160045260246000fd5b6000816000190483118215151615612f8057612f80612f50565b500290565b634e487b7160e01b600052601260045260246000fd5b600082612faa57612faa612f85565b500490565b60008219821115612fc257612fc2612f50565b500190565b600082821015612fd957612fd9612f50565b500390565b6001600160a01b0394851681529290931660208301526040820152606081019190915260a06080820181905260009082015260c00190565b6020808252603b908201527f4d656c616e645377617045786368616e6765506f6f6c32305431313535236f6e60408201527f6c79466163746f72793a205065726d697373696f6e206572726f720000000000606082015260800190565b6000808585111561308357600080fd5b8386111561309057600080fd5b5050820193919092039150565b6001600160e01b031981358181169160048510156130c55780818660040360031b1b83161692505b505092915050565b6020808252604e9082015260008051602061338683398151915260408201527f31313535236f6e4552433131353542617463685265636569766564353a20496e60608201526d1d985b1a59081d1bdad95b88125160921b608082015260a00190565b634e487b7160e01b600052603260045260246000fd5b60006020828403121561315757600080fd5b815161278781612bc1565b602080825260429082015260008051602061336683398151915260408201527f61646445524332304c69717569646974793a206e6f7420696e697469616c697a606082015261195960f21b608082015260a00190565b6000602082840312156131ca57600080fd5b5051919050565b602080825260569082015260008051602061336683398151915260408201527f696e69744c69717569646974793a2070726f766964657220646f6573206e6f74606082015275206861766520656e6f75676820616c6c6f77616e636560501b608082015260a00190565b60006020828403121561324d57600080fd5b815160ff8116811461278757600080fd5b600181815b8085111561329957816000190482111561327f5761327f612f50565b8085161561328c57918102915b93841c9390800290613263565b509250929050565b6000826132b057506001610644565b816132bd57506000610644565b81600181146132d357600281146132dd576132f9565b6001915050610644565b60ff8411156132ee576132ee612f50565b50506001821b610644565b5060208310610133831016604e8410600b841016171561331c575081810a610644565b613326838361325e565b806000190482111561333a5761333a612f50565b029392505050565b600061278760ff8416836132a1565b60008261336057613360612f85565b50069056fe4d656c616e642e537761702e45786368616e6765506f6f6c32305431313535234d656c616e642e4d656c616e645377617045786368616e6765506f6f6c323054a2646970667358221220a1e6272464d09bc2a2111e42ac0ed901b4e9a03f9ddc7019dd3dd129266485cc64736f6c63430008090033",
  "immutableReferences": {
    "4373": [
      {
        "length": 32,
        "start": 956
      },
      {
        "length": 32,
        "start": 5429
      }
    ],
    "11833": [
      {
        "length": 32,
        "start": 1136
      },
      {
        "length": 32,
        "start": 2444
      },
      {
        "length": 32,
        "start": 3883
      },
      {
        "length": 32,
        "start": 6765
      }
    ],
    "11836": [
      {
        "length": 32,
        "start": 790
      },
      {
        "length": 32,
        "start": 4419
      },
      {
        "length": 32,
        "start": 6607
      },
      {
        "length": 32,
        "start": 7507
      },
      {
        "length": 32,
        "start": 8028
      },
      {
        "length": 32,
        "start": 8433
      },
      {
        "length": 32,
        "start": 8689
      },
      {
        "length": 32,
        "start": 9299
      },
      {
        "length": 32,
        "start": 9526
      }
    ],
    "11838": [
      {
        "length": 32,
        "start": 743
      },
      {
        "length": 32,
        "start": 2493
      },
      {
        "length": 32,
        "start": 3820
      },
      {
        "length": 32,
        "start": 6814
      }
    ],
    "11840": [
      {
        "length": 32,
        "start": 1340
      },
      {
        "length": 32,
        "start": 3077
      },
      {
        "length": 32,
        "start": 4891
      }
    ],
    "11842": [
      {
        "length": 32,
        "start": 1379
      }
    ]
  },
  "source": "// SPDX-License-Identifier: MIT\npragma solidity 0.8.9;\n\nimport \"@openzeppelin/contracts/token/ERC1155/IERC1155.sol\";\nimport \"@openzeppelin/contracts/token/ERC20/extensions/IERC20Metadata.sol\";\nimport \"@openzeppelin/contracts/token/ERC20/ERC20.sol\";\nimport \"@openzeppelin/contracts/metatx/ERC2771Context.sol\";\nimport \"@openzeppelin/contracts/token/ERC1155/utils/ERC1155Receiver.sol\";\nimport \"./IMelandSwapExchangePool.sol\";\nimport \"../nft/IProductManager.sol\";\n\ncontract MelandSwapExchangePool20T1155 is\n    ERC20,\n    ERC2771Context,\n    IMelandSwapExchangePool,\n    ERC1155Receiver\n{\n    bytes4 internal constant ERC1155_RECEIVED_VALUE = 0xf23a6e61;\n    bytes4 internal constant ERC1155_BATCH_RECEIVED_VALUE = 0xbc197c81;\n\n    // Variables\n    IERC1155 public immutable erc1155token;\n\n    IERC20Metadata public immutable erc20token;\n\n    // ERC1155 token id\n    uint256 public immutable tokenId;\n\n    address public immutable factory;\n\n    bytes32 public immutable productId;\n\n    uint256 public erc1155LPTotal;\n    mapping(address => uint256) erc1155LPByProvider;\n\n    // erc20 token reserve\n    uint256 public erc20Reserve;\n\n    // erc1155 token reserve\n    uint256 public erc1155FragmentReserves;\n\n    uint256 public erc1155FragmentReservesActivated;\n\n    uint256 public ownerCutPerMillion = 50000;\n\n    uint256 public nftfragments = 10000;\n\n    modifier onlyFactory() {\n        require(\n            _msgSender() == factory,\n            \"MelandSwapExchangePool20T1155#onlyFactory: Permission error\"\n        );\n        _;\n    }\n\n    constructor(\n        IERC1155 _erc1155token,\n        IERC20Metadata _erc20token,\n        uint256 _tokenId,\n        bytes32 _productId,\n        address trustedForwarder\n    )\n        ERC20(\"Meland20T1155Pool\", _poolname(_productId, _erc20token))\n        ERC2771Context(trustedForwarder)\n    {\n        erc1155token = _erc1155token;\n        erc20token = _erc20token;\n        tokenId = _tokenId;\n        factory = _msgSender();\n        productId = _productId;\n    }\n\n    function _poolname(bytes32 _productId, IERC20Metadata _erc20token)\n        internal\n        view\n        returns (string memory)\n    {\n        bytes32 buffer = _productId;\n        bytes memory converted = new bytes(buffer.length * 2);\n        bytes memory _base = \"0123456789abcdef\";\n\n        for (uint256 i = 0; i < buffer.length; i++) {\n            converted[i * 2] = _base[uint8(buffer[i]) / _base.length];\n            converted[i * 2 + 1] = _base[uint8(buffer[i]) % _base.length];\n        }\n        return\n            string(abi.encodePacked(\"0x\", converted, \"-\", _erc20token.name()));\n    }\n\n    function totalSupplie() public view returns (uint256) {\n        return totalSupply();\n    }\n\n    function _mintERC20LP(address to, uint256 amount) internal {\n        _mint(to, amount);\n    }\n\n    function _burnERC20LP(address from, uint256 amount) internal {\n        _burn(from, amount);\n    }\n\n    function _mintERC1155LP(address to, uint256 amount) internal {\n        erc1155LPTotal = erc1155LPTotal + amount;\n        erc1155LPByProvider[to] = erc1155LPByProvider[to] + amount;\n    }\n\n    function _burnERC1155LP(address from, uint256 amount) internal {\n        require(erc1155LPByProvider[from] >= amount, \"MelandSwapExchangePool20T1155#_burnERC1155LP: Permission error\");\n        erc1155LPTotal = erc1155LPTotal - amount;\n        erc1155LPByProvider[from] = erc1155LPByProvider[from] - amount;\n    }\n\n    function _toNFTFragments(uint256 amount) internal view returns (uint256) {\n        return amount * nftfragments;\n    }\n\n    function _toNFT(uint256 fragmentamount, bool round)\n        internal\n        view\n        returns (uint256, uint256)\n    {\n        uint256 nftamount = fragmentamount / nftfragments;\n\n        if (round && fragmentamount % 100 > 0) {\n            nftamount = nftamount + 1;\n        }\n\n        return (nftamount, _toNFTFragments(nftamount));\n    }\n\n    function _divRound(uint256 a, uint256 b) internal pure returns (uint256) {\n        uint256 result = a / b;\n\n        if (a % b > 0) {\n            result = result + 1;\n        }\n\n        return result;\n    }\n\n    function _convertNFTFragmentActives(uint256 erc20amount)\n        internal\n        view\n        returns (uint256)\n    {\n        uint256 erc1155FragmentActivate = (erc20amount *\n            erc1155FragmentReservesActivated) / erc20Reserve;\n        return erc1155FragmentActivate;\n    }\n\n    function _activeNFTFragments(uint256 erc20amount) internal {\n        uint256 erc1155FragmentActivate = _convertNFTFragmentActives(\n            erc20amount\n        );\n        erc1155FragmentReservesActivated =\n            erc1155FragmentReservesActivated +\n            erc1155FragmentActivate;\n    }\n\n    function _deactiveNFTFragments(uint256 erc20amount) internal {\n        uint256 erc1155FragmentActivate = _convertNFTFragmentActives(\n            erc20amount\n        );\n        erc1155FragmentReservesActivated =\n            erc1155FragmentReservesActivated -\n            erc1155FragmentActivate;\n    }\n\n    function _splitFees(uint256 fees)\n        internal\n        pure\n        returns (uint256 lpFees, uint256 networkFees)\n    {\n        lpFees = (fees * 80) / 100;\n        networkFees = fees - lpFees;\n    }\n\n    function init(\n        address provider,\n        uint256 erc20Amount,\n        uint256 erc1155Amount\n    ) public onlyFactory {\n        address fundsProvider = _msgSender();\n        _initLiquidity(provider, fundsProvider, erc20Amount, erc1155Amount);\n    }\n\n    // token.\n    function _initLiquidity(\n        address provider,\n        address fundsProvider,\n        uint256 erc20Amount,\n        uint256 erc1155Amount\n    ) internal {\n        require(\n            erc20Amount >= 100 * 10**erc20token.decimals(),\n            \"MelandSwapExchangePool20T1155#initLiquidity: erc20Amount must be greater than 1000\"\n        );\n        require(\n            erc1155Amount > 0,\n            \"Meland.Swap.ExchangePool20T1155.initLiquidity: erc1155Amount must be greater than 0\"\n        );\n        require(\n            totalSupplie() == 0,\n            \"Meland.Swap.ExchangePool20T1155#initLiquidity: already initialized\"\n        );\n        require(\n            erc20token.allowance(fundsProvider, address(this)) >= erc20Amount,\n            \"Meland.Swap.ExchangePool20T1155#initLiquidity: provider does not have enough allowance\"\n        );\n\n        erc1155FragmentReserves = _toNFTFragments(erc1155Amount);\n        erc1155FragmentReservesActivated = _toNFTFragments(erc1155Amount);\n        erc20Reserve = erc20Amount;\n        erc20token.transferFrom(fundsProvider, address(this), erc20Amount);\n\n        // mint lp token\n        _mintERC20LP(provider, erc20Amount);\n\n        // mint nft lp\n        _mintERC1155LP(provider, erc1155FragmentReserves);\n\n        // TODO.\n        // Mint MF token.\n\n        // emit event\n        emit LiquidityAdded(\n            provider,\n            erc1155Amount,\n            erc20Amount,\n            erc1155FragmentReserves,\n            erc20Amount\n        );\n    }\n\n    // erc20 token\n    function getERC20AvailableSpace(uint256 wantStakeAmount)\n        public\n        view\n        returns (uint256, uint256)\n    {\n        uint256 preActivate1155Reserve = 0;\n        if (erc1155FragmentReservesActivated < erc1155FragmentReserves) {\n            preActivate1155Reserve =\n                erc1155FragmentReserves -\n                erc1155FragmentReservesActivated;\n        }\n        uint256 availableSpace = 0;\n        if (erc1155FragmentReservesActivated > 0) {\n            availableSpace =\n                (preActivate1155Reserve * erc20Reserve) /\n                erc1155FragmentReservesActivated;\n        }\n        uint256 needOpenSpace = 0;\n\n        if (availableSpace < wantStakeAmount) {\n            uint256 diffAmount = wantStakeAmount - availableSpace;\n            needOpenSpace =\n                (diffAmount * erc1155FragmentReservesActivated) /\n                erc20Reserve;\n        }\n\n        (uint256 nftAmount, ) = _toNFT(needOpenSpace, true);\n\n        return (availableSpace, nftAmount);\n    }\n\n    function _addERC20Liquidity(address provider, uint256 erc20Amount)\n        internal\n    {\n        (uint256 availableSpace, ) = getERC20AvailableSpace(0);\n        require(\n            totalSupplie() > 0,\n            \"Meland.Swap.ExchangePool20T1155#addERC20Liquidity: not initialized\"\n        );\n        require(\n            erc20Amount <= availableSpace,\n            \"Meland.Swap.ExchangePool20T1155#addERC20Liquidity: not enough space\"\n        );\n        require(\n            erc20token.allowance(provider, address(this)) >= erc20Amount,\n            \"Meland.Swap.ExchangePool20T1155#initLiquidity: provider does not have enough allowance\"\n        );\n\n        // erc20token, nft\n        _activeNFTFragments(erc20Amount);\n\n        require(\n            erc1155FragmentReserves >= erc1155FragmentReservesActivated,\n            \"Meland.Swap.ExchangePool20T1155#addERC20Liquidity: erc1155ReserveActivated must be less than erc1155Reserve\"\n        );\n\n        uint256 liquidityToMint = (erc20Amount * totalSupplie()) / erc20Reserve;\n\n        erc20token.transferFrom(provider, address(this), erc20Amount);\n        erc20Reserve += erc20Amount;\n\n        // mint lp token\n        _mintERC20LP(provider, liquidityToMint);\n\n        // emit event\n        emit LiquidityAdded(provider, 0, erc20Amount, 0, liquidityToMint);\n    }\n\n    function _addERC1155Liquidity(address provider, uint256 erc1155Amount)\n        internal\n    {\n        require(\n            erc1155LPTotal > 0,\n            \"Meland.Swap.ExchangePool20T1155#addERC20Liquidity: not initialized\"\n        );\n        uint256 fragments = _toNFTFragments(erc1155Amount);\n\n        uint256 liquidityToMint = (fragments * erc1155LPTotal) /\n            erc1155FragmentReserves;\n        erc1155FragmentReserves += fragments;\n\n        _mintERC1155LP(provider, liquidityToMint);\n        // emit event\n        emit LiquidityAdded(provider, erc1155Amount, 0, liquidityToMint, 0);\n    }\n\n    function addERC20Liquidity(uint256 erc20Amount) public {\n        address sender = _msgSender();\n        _addERC20Liquidity(sender, erc20Amount);\n    }\n\n    function addERC1155Liquidity(uint256 amount) external {\n        address provider = _msgSender();\n        _addERC1155Liquidity(provider, amount);\n    }\n\n    function getSellPrice(uint256 sellFragments)\n        public\n        view\n        returns (\n            uint256 toUserPrice,\n            uint256 fragmentFees,\n            uint256 erc20Fees\n        )\n    {\n        if (sellFragments == 0) {\n            return (0, 0, 0);\n        }\n        fragmentFees = (sellFragments * ownerCutPerMillion) / 2000000;\n        uint256 sellWithoutFeeFragments = sellFragments - fragmentFees;\n        uint256 numerator = erc20Reserve * sellWithoutFeeFragments;\n        uint256 denominator = erc1155FragmentReservesActivated +\n            sellWithoutFeeFragments;\n        uint256 price = numerator / denominator;\n        erc20Fees = (price * ownerCutPerMillion) / 2000000;\n        toUserPrice = price - erc20Fees;\n    }\n\n    function getBuyPrice(uint256 buyamount)\n        public\n        view\n        returns (\n            uint256 fromUserPrice,\n            uint256 fragmentFees,\n            uint256 erc20Fees\n        )\n    {\n        if (buyamount == 0) {\n            return (0, 0, 0);\n        }\n        uint256 buyFragments = _toNFTFragments(buyamount);\n        fragmentFees = (buyFragments * ownerCutPerMillion) / 2000000;\n        uint256 buyWithFeeFragments = buyFragments + fragmentFees;\n\n        uint256 numerator = erc20Reserve * buyWithFeeFragments;\n        uint256 denominator = erc1155FragmentReservesActivated -\n            buyWithFeeFragments;\n        uint256 price = numerator / denominator;\n\n        erc20Fees = (price * ownerCutPerMillion) / 2000000;\n        fromUserPrice = price + erc20Fees;\n    }\n\n    function getWithdrawERC20(address account)\n        public\n        view\n        returns (uint256, uint256)\n    {\n        uint256 lp = balanceOf(account);\n        uint256 canerc20 = (lp * erc20Reserve) / totalSupplie();\n        return (canerc20, 0);\n    }\n\n    function getWithdrawFragments(address account, bool autoSwap)\n        public\n        view\n        returns (\n            uint256 nft,\n            uint256 fragmentRemnants,\n            uint256 toUserPrice\n        )\n    {\n        uint256 lp = erc1155LPByProvider[account];\n        uint256 myLPFragments = (lp * erc1155FragmentReserves) / erc1155LPTotal;\n\n        uint256 fragments = 0;\n        (nft, fragments) = _toNFT(myLPFragments, false);\n\n        if (autoSwap) {\n            fragmentRemnants = myLPFragments - fragments;\n            (toUserPrice, , ) = getSellPrice(fragmentRemnants);\n        }\n    }\n\n    function withdrawERC20(uint256 withdrawAmount) external {\n        address account = _msgSender();\n        (uint256 maxWithdrawAmount, uint256 fees) = getWithdrawERC20(account);\n        require(\n            maxWithdrawAmount >= withdrawAmount,\n            \"Meland.Swap.ExchangePool20T1155#withdrawERC20: Insufficient balance\"\n        );\n\n        erc20token.transfer(account, withdrawAmount + fees);\n        _deactiveNFTFragments(withdrawAmount);\n\n        // remove lp\n        uint256 liquidityToRemoved = _divRound(\n            withdrawAmount * totalSupplie(),\n            erc20Reserve\n        );\n        erc20Reserve -= withdrawAmount;\n        if (liquidityToRemoved > balanceOf(account)) {\n            liquidityToRemoved = balanceOf(account);\n        }\n        _burn(account, liquidityToRemoved);\n\n        emit LiquidityRemoved(\n            account,\n            0,\n            withdrawAmount,\n            0,\n            liquidityToRemoved\n        );\n    }\n\n    function withdrawERC1155(\n        uint256 withdrawAmount,\n        uint256 tknRate,\n        bool autoSwap\n    ) external {\n        address account = _msgSender();\n        (\n            uint256 maxWithdrawAmount,\n            uint256 fragmentRemnants,\n        ) = getWithdrawFragments(account, autoSwap);\n        require(\n            maxWithdrawAmount >= withdrawAmount,\n            \"Meland.Swap.ExchangePool20T1155#withdrawERC1155: Insufficient  balance\"\n        );\n\n        erc1155token.safeTransferFrom(\n            address(this),\n            account,\n            tokenId,\n            withdrawAmount,\n            \"\"\n        );\n        uint256 withdrawFragments = _toNFTFragments(withdrawAmount);\n        withdrawFragments += fragmentRemnants;\n        uint256 liquidityToRemoved = (withdrawFragments * erc1155LPTotal) /\n            erc1155FragmentReserves;\n        erc1155FragmentReserves -= withdrawFragments;\n\n        if (autoSwap) {\n            liquidityToRemoved = erc1155LPByProvider[account];\n        }\n\n        _burnERC1155LP(account, liquidityToRemoved);\n\n        if (fragmentRemnants > 0) {\n            _sell(account, fragmentRemnants, tknRate);\n        }\n\n        emit LiquidityRemoved(\n            account,\n            withdrawAmount,\n            0,\n            liquidityToRemoved,\n            0\n        );\n    }\n\n    function sell(uint256 sellFragmentAmount, uint256 tknRate) external {\n        address seller = _msgSender();\n        _sell(seller, sellFragmentAmount, tknRate);\n    }\n\n    function buy(\n        uint256 buyamount,\n        uint256 tknRate,\n        uint256 fromUserPriceFromUI\n    ) external {\n        address buyer = _msgSender();\n        (uint256 fromUserPrice, , ) = getBuyPrice(buyamount);\n        require(\n            fromUserPrice <= (fromUserPriceFromUI * 10100) / 10000,\n            \"Meland.Marketplace#autoBuy: The total price is not correct\"\n        );\n        _buy(buyer, buyer, buyamount, tknRate);\n    }\n\n    function autoBuy(\n        address buyer,\n        address fundsProvider,\n        uint256 buyamount,\n        uint256 tknRate\n    ) external onlyFactory {\n        _buy(buyer, fundsProvider, buyamount, tknRate);\n    }\n\n    function _sell(\n        address seller,\n        uint256 sellFragments,\n        uint256 tknRate\n    ) internal {\n        (\n            uint256 toUserPrice,\n            uint256 fragmentFees,\n            uint256 erc20Fees\n        ) = getSellPrice(sellFragments);\n        require(\n            erc20Reserve > toUserPrice,\n            \"Meland.Swap.ExchangePool20T1155#_sell: not initialized\"\n        );\n\n        (uint256 erc20LPFees, uint256 erc20NetworkFees) = _splitFees(erc20Fees);\n        (uint256 fragmentLPFees, uint256 fragmentNetworkFees) = _splitFees(\n            fragmentFees\n        );\n\n        erc20token.transfer(seller, toUserPrice);\n        erc20Reserve = erc20Reserve - (toUserPrice + erc20NetworkFees);\n\n        // Automatic compounding\n        erc1155FragmentReserves =\n            erc1155FragmentReserves +\n            (sellFragments - fragmentNetworkFees);\n        erc1155FragmentReservesActivated =\n            erc1155FragmentReservesActivated +\n            (sellFragments - fragmentFees);\n\n        _activeNFTFragments(erc20LPFees);\n\n        emit Sell(\n            seller,\n            sellFragments,\n            toUserPrice,\n            erc20LPFees,\n            fragmentLPFees,\n            tknRate\n        );\n    }\n\n    function _buy(\n        address buyer,\n        address funsProvider,\n        uint256 buyamount,\n        uint256 tknRate\n    ) internal {\n        uint256 buyfragments = _toNFTFragments(buyamount);\n        require(\n            erc1155FragmentReservesActivated >= buyfragments,\n            \"Meland.Swap.ExchangePool20T1155#_buy: Insufficient balance\"\n        );\n        (\n            uint256 fromUserPrice,\n            uint256 fragmentFees,\n            uint256 erc20Fees\n        ) = getBuyPrice(buyamount);\n        (uint256 erc20LPFees, uint256 erc20NetworkFees) = _splitFees(erc20Fees);\n        (uint256 fragmentLPFees, uint256 fragmentNetworkFees) = _splitFees(\n            fragmentFees\n        );\n        erc20token.transferFrom(funsProvider, address(this), fromUserPrice);\n        erc20Reserve = erc20Reserve + (fromUserPrice - erc20NetworkFees);\n\n        erc1155token.safeTransferFrom(\n            address(this),\n            buyer,\n            tokenId,\n            buyamount,\n            \"\"\n        );\n        erc1155FragmentReserves =\n            erc1155FragmentReserves -\n            (buyfragments + fragmentNetworkFees);\n        erc1155FragmentReservesActivated =\n            erc1155FragmentReservesActivated -\n            (buyfragments + fragmentFees);\n\n        _activeNFTFragments(erc20LPFees);\n\n        emit Buy(\n            buyer,\n            buyfragments,\n            fromUserPrice,\n            erc20LPFees,\n            fragmentLPFees,\n            tknRate\n        );\n    }\n\n    function _msgData()\n        internal\n        view\n        virtual\n        override(ERC2771Context, Context)\n        returns (bytes calldata)\n    {\n        return ERC2771Context._msgData();\n    }\n\n    function _msgSender()\n        internal\n        view\n        virtual\n        override(ERC2771Context, Context)\n        returns (address)\n    {\n        return ERC2771Context._msgSender();\n    }\n\n    bytes4 internal constant LIQUIDITY_SIG = bytes4(keccak256(\"_addERC1155Liquidity()\"));\n    bytes4 internal constant SELL_SIG = bytes4(keccak256(\"_sell(uint256)\"));\n\n    function onERC1155BatchReceived(\n        address, // _operator,\n        address _from,\n        uint256[] memory _ids,\n        uint256[] memory _amounts,\n        bytes calldata _data\n    ) public override returns (bytes4) {\n        // This function assumes that the ERC-1155 token contract can\n        // only call `onERC1155BatchReceived()` via a valid token transfer.\n        // Users must be responsible and only use this Niftyswap exchange\n        // contract with ERC-1155 compliant token contracts.\n        // Obtain method to call via object signature\n        bytes4 functionSignature = bytes4(_data[:4]);\n        require(\n            functionSignature == LIQUIDITY_SIG || functionSignature == SELL_SIG,\n            \"Meland.MelandSwapExchangePool20T1155#onERC1155BatchReceived5: Invalid function signature\"\n        );\n        require(\n            _ids.length == 1,\n            \"Meland.MelandSwapExchangePool20T1155#onERC1155BatchReceived5: Invalid token ID\"\n        );\n        uint256 id = _ids[0];\n        require(\n            id == tokenId,\n            \"Meland.MelandSwapExchangePool20T1155#onERC1155BatchReceived5: Invalid token ID\"\n        );\n        require(_msgSender() == address(erc1155token), \"Meland.MelandSwapExchangePool20T1155#onERC1155BatchReceived5: Invalid sender\");\n        if (functionSignature == LIQUIDITY_SIG) {\n            _addERC1155Liquidity(_from, _amounts[0]);\n        } else if (functionSignature == SELL_SIG) {\n            uint256 tknRate;\n            (tknRate) = abi.decode(\n                _data[4:],\n                (uint256)\n            );\n            _sell(_from, _toNFTFragments(_amounts[0]), tknRate);\n        }\n        return ERC1155_BATCH_RECEIVED_VALUE;\n    }\n\n    /**\n     * @dev Will pass to onERC115Batch5Received\n     */\n    function onERC1155Received(\n        address _operator,\n        address _from,\n        uint256 _id,\n        uint256 _amount,\n        bytes calldata _data\n    ) public override returns (bytes4) {\n        uint256[] memory ids = new uint256[](1);\n        uint256[] memory amounts = new uint256[](1);\n\n        ids[0] = _id;\n        amounts[0] = _amount;\n\n        require(\n            ERC1155_BATCH_RECEIVED_VALUE ==\n                onERC1155BatchReceived(_operator, _from, ids, amounts, _data),\n            \"Meland.MelandSwapExchangePool20T1155#onERC1155Received: INVALID_ONRECEIVED_MESSAGE\"\n        );\n\n        return ERC1155_RECEIVED_VALUE;\n    }\n}\n",
  "sourcePath": "/Users/alberthuang/code/contracts-v2/contracts/swap/MelandSwapExchangePool20T1155.sol",
  "compiler": {
    "name": "solc",
    "version": "0.8.9+commit.e5eed63a.Emscripten.clang"
  },
  "schemaVersion": "3.4.8",
  "updatedAt": "2022-07-13T06:01:47.645Z",
  "devdoc": {
    "kind": "dev",
    "methods": {
      "allowance(address,address)": {
        "details": "See {IERC20-allowance}."
      },
      "approve(address,uint256)": {
        "details": "See {IERC20-approve}. NOTE: If `amount` is the maximum `uint256`, the allowance is not updated on `transferFrom`. This is semantically equivalent to an infinite approval. Requirements: - `spender` cannot be the zero address."
      },
      "balanceOf(address)": {
        "details": "See {IERC20-balanceOf}."
      },
      "decimals()": {
        "details": "Returns the number of decimals used to get its user representation. For example, if `decimals` equals `2`, a balance of `505` tokens should be displayed to a user as `5.05` (`505 / 10 ** 2`). Tokens usually opt for a value of 18, imitating the relationship between Ether and Wei. This is the value {ERC20} uses, unless this function is overridden; NOTE: This information is only used for _display_ purposes: it in no way affects any of the arithmetic of the contract, including {IERC20-balanceOf} and {IERC20-transfer}."
      },
      "decreaseAllowance(address,uint256)": {
        "details": "Atomically decreases the allowance granted to `spender` by the caller. This is an alternative to {approve} that can be used as a mitigation for problems described in {IERC20-approve}. Emits an {Approval} event indicating the updated allowance. Requirements: - `spender` cannot be the zero address. - `spender` must have allowance for the caller of at least `subtractedValue`."
      },
      "increaseAllowance(address,uint256)": {
        "details": "Atomically increases the allowance granted to `spender` by the caller. This is an alternative to {approve} that can be used as a mitigation for problems described in {IERC20-approve}. Emits an {Approval} event indicating the updated allowance. Requirements: - `spender` cannot be the zero address."
      },
      "name()": {
        "details": "Returns the name of the token."
      },
      "onERC1155Received(address,address,uint256,uint256,bytes)": {
        "details": "Will pass to onERC115Batch5Received"
      },
      "supportsInterface(bytes4)": {
        "details": "See {IERC165-supportsInterface}."
      },
      "symbol()": {
        "details": "Returns the symbol of the token, usually a shorter version of the name."
      },
      "totalSupply()": {
        "details": "See {IERC20-totalSupply}."
      },
      "transfer(address,uint256)": {
        "details": "See {IERC20-transfer}. Requirements: - `to` cannot be the zero address. - the caller must have a balance of at least `amount`."
      },
      "transferFrom(address,address,uint256)": {
        "details": "See {IERC20-transferFrom}. Emits an {Approval} event indicating the updated allowance. This is not required by the EIP. See the note at the beginning of {ERC20}. NOTE: Does not update the allowance if the current allowance is the maximum `uint256`. Requirements: - `from` and `to` cannot be the zero address. - `from` must have a balance of at least `amount`. - the caller must have allowance for ``from``'s tokens of at least `amount`."
      }
    },
    "version": 1
  },
  "userdoc": {
    "kind": "user",
    "methods": {},
    "version": 1
  }
}