{
  "contractName": "MelandForwarder",
  "abi": [
    {
      "anonymous": false,
      "inputs": [
        {
          "indexed": false,
          "internalType": "address",
          "name": "previousAdmin",
          "type": "address"
        },
        {
          "indexed": false,
          "internalType": "address",
          "name": "newAdmin",
          "type": "address"
        }
      ],
      "name": "AdminChanged",
      "type": "event"
    },
    {
      "anonymous": false,
      "inputs": [
        {
          "indexed": true,
          "internalType": "address",
          "name": "beacon",
          "type": "address"
        }
      ],
      "name": "BeaconUpgraded",
      "type": "event"
    },
    {
      "anonymous": false,
      "inputs": [
        {
          "indexed": false,
          "internalType": "uint8",
          "name": "version",
          "type": "uint8"
        }
      ],
      "name": "Initialized",
      "type": "event"
    },
    {
      "anonymous": false,
      "inputs": [
        {
          "indexed": true,
          "internalType": "bytes32",
          "name": "role",
          "type": "bytes32"
        },
        {
          "indexed": true,
          "internalType": "bytes32",
          "name": "previousAdminRole",
          "type": "bytes32"
        },
        {
          "indexed": true,
          "internalType": "bytes32",
          "name": "newAdminRole",
          "type": "bytes32"
        }
      ],
      "name": "RoleAdminChanged",
      "type": "event"
    },
    {
      "anonymous": false,
      "inputs": [
        {
          "indexed": true,
          "internalType": "bytes32",
          "name": "role",
          "type": "bytes32"
        },
        {
          "indexed": true,
          "internalType": "address",
          "name": "account",
          "type": "address"
        },
        {
          "indexed": true,
          "internalType": "address",
          "name": "sender",
          "type": "address"
        }
      ],
      "name": "RoleGranted",
      "type": "event"
    },
    {
      "anonymous": false,
      "inputs": [
        {
          "indexed": true,
          "internalType": "bytes32",
          "name": "role",
          "type": "bytes32"
        },
        {
          "indexed": true,
          "internalType": "address",
          "name": "account",
          "type": "address"
        },
        {
          "indexed": true,
          "internalType": "address",
          "name": "sender",
          "type": "address"
        }
      ],
      "name": "RoleRevoked",
      "type": "event"
    },
    {
      "anonymous": false,
      "inputs": [
        {
          "indexed": true,
          "internalType": "address",
          "name": "implementation",
          "type": "address"
        }
      ],
      "name": "Upgraded",
      "type": "event"
    },
    {
      "inputs": [],
      "name": "DEFAULT_ADMIN_ROLE",
      "outputs": [
        {
          "internalType": "bytes32",
          "name": "",
          "type": "bytes32"
        }
      ],
      "stateMutability": "view",
      "type": "function"
    },
    {
      "inputs": [],
      "name": "DOMAIN_SEPARATOR",
      "outputs": [
        {
          "internalType": "bytes32",
          "name": "",
          "type": "bytes32"
        }
      ],
      "stateMutability": "view",
      "type": "function"
    },
    {
      "inputs": [],
      "name": "GM_ROLE",
      "outputs": [
        {
          "internalType": "bytes32",
          "name": "",
          "type": "bytes32"
        }
      ],
      "stateMutability": "view",
      "type": "function"
    },
    {
      "inputs": [],
      "name": "MINTER_ROLE",
      "outputs": [
        {
          "internalType": "bytes32",
          "name": "",
          "type": "bytes32"
        }
      ],
      "stateMutability": "view",
      "type": "function"
    },
    {
      "inputs": [],
      "name": "UPGRADER_ROLE",
      "outputs": [
        {
          "internalType": "bytes32",
          "name": "",
          "type": "bytes32"
        }
      ],
      "stateMutability": "view",
      "type": "function"
    },
    {
      "inputs": [
        {
          "components": [
            {
              "internalType": "address",
              "name": "from",
              "type": "address"
            },
            {
              "internalType": "address",
              "name": "to",
              "type": "address"
            },
            {
              "internalType": "uint256",
              "name": "value",
              "type": "uint256"
            },
            {
              "internalType": "uint256",
              "name": "gas",
              "type": "uint256"
            },
            {
              "internalType": "uint256",
              "name": "nonce",
              "type": "uint256"
            },
            {
              "internalType": "bytes",
              "name": "data",
              "type": "bytes"
            }
          ],
          "internalType": "struct MinimalForwarderUpgradeable.ForwardRequest",
          "name": "req",
          "type": "tuple"
        },
        {
          "internalType": "bytes",
          "name": "signature",
          "type": "bytes"
        }
      ],
      "name": "execute",
      "outputs": [
        {
          "internalType": "bool",
          "name": "",
          "type": "bool"
        },
        {
          "internalType": "bytes",
          "name": "",
          "type": "bytes"
        }
      ],
      "stateMutability": "payable",
      "type": "function"
    },
    {
      "inputs": [
        {
          "internalType": "address",
          "name": "from",
          "type": "address"
        }
      ],
      "name": "getNonce",
      "outputs": [
        {
          "internalType": "uint256",
          "name": "",
          "type": "uint256"
        }
      ],
      "stateMutability": "view",
      "type": "function"
    },
    {
      "inputs": [
        {
          "internalType": "bytes32",
          "name": "role",
          "type": "bytes32"
        }
      ],
      "name": "getRoleAdmin",
      "outputs": [
        {
          "internalType": "bytes32",
          "name": "",
          "type": "bytes32"
        }
      ],
      "stateMutability": "view",
      "type": "function"
    },
    {
      "inputs": [
        {
          "internalType": "bytes32",
          "name": "role",
          "type": "bytes32"
        },
        {
          "internalType": "address",
          "name": "account",
          "type": "address"
        }
      ],
      "name": "grantRole",
      "outputs": [],
      "stateMutability": "nonpayable",
      "type": "function"
    },
    {
      "inputs": [
        {
          "internalType": "bytes32",
          "name": "role",
          "type": "bytes32"
        },
        {
          "internalType": "address",
          "name": "account",
          "type": "address"
        }
      ],
      "name": "hasRole",
      "outputs": [
        {
          "internalType": "bool",
          "name": "",
          "type": "bool"
        }
      ],
      "stateMutability": "view",
      "type": "function"
    },
    {
      "inputs": [],
      "name": "proxiableUUID",
      "outputs": [
        {
          "internalType": "bytes32",
          "name": "",
          "type": "bytes32"
        }
      ],
      "stateMutability": "view",
      "type": "function"
    },
    {
      "inputs": [
        {
          "internalType": "bytes32",
          "name": "role",
          "type": "bytes32"
        },
        {
          "internalType": "address",
          "name": "account",
          "type": "address"
        }
      ],
      "name": "renounceRole",
      "outputs": [],
      "stateMutability": "nonpayable",
      "type": "function"
    },
    {
      "inputs": [
        {
          "internalType": "bytes32",
          "name": "role",
          "type": "bytes32"
        },
        {
          "internalType": "address",
          "name": "account",
          "type": "address"
        }
      ],
      "name": "revokeRole",
      "outputs": [],
      "stateMutability": "nonpayable",
      "type": "function"
    },
    {
      "inputs": [
        {
          "internalType": "bytes4",
          "name": "interfaceId",
          "type": "bytes4"
        }
      ],
      "name": "supportsInterface",
      "outputs": [
        {
          "internalType": "bool",
          "name": "",
          "type": "bool"
        }
      ],
      "stateMutability": "view",
      "type": "function"
    },
    {
      "inputs": [
        {
          "internalType": "address",
          "name": "newImplementation",
          "type": "address"
        }
      ],
      "name": "upgradeTo",
      "outputs": [],
      "stateMutability": "nonpayable",
      "type": "function"
    },
    {
      "inputs": [
        {
          "internalType": "address",
          "name": "newImplementation",
          "type": "address"
        },
        {
          "internalType": "bytes",
          "name": "data",
          "type": "bytes"
        }
      ],
      "name": "upgradeToAndCall",
      "outputs": [],
      "stateMutability": "payable",
      "type": "function"
    },
    {
      "inputs": [
        {
          "components": [
            {
              "internalType": "address",
              "name": "from",
              "type": "address"
            },
            {
              "internalType": "address",
              "name": "to",
              "type": "address"
            },
            {
              "internalType": "uint256",
              "name": "value",
              "type": "uint256"
            },
            {
              "internalType": "uint256",
              "name": "gas",
              "type": "uint256"
            },
            {
              "internalType": "uint256",
              "name": "nonce",
              "type": "uint256"
            },
            {
              "internalType": "bytes",
              "name": "data",
              "type": "bytes"
            }
          ],
          "internalType": "struct MinimalForwarderUpgradeable.ForwardRequest",
          "name": "req",
          "type": "tuple"
        },
        {
          "internalType": "bytes",
          "name": "signature",
          "type": "bytes"
        }
      ],
      "name": "verify",
      "outputs": [
        {
          "internalType": "bool",
          "name": "",
          "type": "bool"
        }
      ],
      "stateMutability": "view",
      "type": "function"
    },
    {
      "inputs": [
        {
          "internalType": "address",
          "name": "mpc",
          "type": "address"
        }
      ],
      "name": "initialize",
      "outputs": [],
      "stateMutability": "nonpayable",
      "type": "function"
    }
  ],
  "bytecode": "0x60a06040523060805234801561001457600080fd5b50608051611e2861004c6000396000818161049b015281816104db015281816107100152818161075001526107df0152611e286000f3fe6080604052600436106101095760003560e01c80634f1ef28611610095578063bf5d3bdb11610064578063bf5d3bdb146102e3578063c4d66de814610303578063d539139314610323578063d547741f14610357578063f72c0d8b1461037757600080fd5b80634f1ef2861461028657806352d1902d1461029957806391d14854146102ae578063a217fddf146102ce57600080fd5b806330c7be2c116100dc57806330c7be2c146101da5780633644e5151461020e57806336568abe146102255780633659cfe61461024557806347153f821461026557600080fd5b806301ffc9a71461010e578063248a9ca3146101435780632d0335ab146101825780632f2ff15d146101b8575b600080fd5b34801561011a57600080fd5b5061012e610129366004611846565b6103ab565b60405190151581526020015b60405180910390f35b34801561014f57600080fd5b5061017461015e366004611870565b600090815261012f602052604090206001015490565b60405190815260200161013a565b34801561018e57600080fd5b5061017461019d3660046118a0565b6001600160a01b031660009081526035602052604090205490565b3480156101c457600080fd5b506101d86101d33660046118bb565b6103e2565b005b3480156101e657600080fd5b506101747ff5eb84615c2a00ecaf817d13794ebd6299c9e01c395bf4018453f13f577f544981565b34801561021a57600080fd5b506101746101615481565b34801561023157600080fd5b506101d86102403660046118bb565b61040d565b34801561025157600080fd5b506101d86102603660046118a0565b610490565b6102786102733660046118e7565b610570565b60405161013a9291906119de565b6101d8610294366004611a17565b610705565b3480156102a557600080fd5b506101746107d2565b3480156102ba57600080fd5b5061012e6102c93660046118bb565b610885565b3480156102da57600080fd5b50610174600081565b3480156102ef57600080fd5b5061012e6102fe3660046118e7565b6108b1565b34801561030f57600080fd5b506101d861031e3660046118a0565b610a32565b34801561032f57600080fd5b506101747f9f2df0fed2c77648de5860a4cc508cd0818c85b8b8a1ab4ceeef8d981c8956a681565b34801561036357600080fd5b506101d86103723660046118bb565b610ab0565b34801561038357600080fd5b506101747f189ab7a9244df0848122154315af71fe140f3db0fe014031783b0946b8c9d2e381565b60006001600160e01b03198216637965db0b60e01b14806103dc57506301ffc9a760e01b6001600160e01b03198316145b92915050565b600082815261012f60205260409020600101546103fe81610ad6565b6104088383610ae0565b505050565b6001600160a01b03811633146104825760405162461bcd60e51b815260206004820152602f60248201527f416363657373436f6e74726f6c3a2063616e206f6e6c792072656e6f756e636560448201526e103937b632b9903337b91039b2b63360891b60648201526084015b60405180910390fd5b61048c8282610b67565b5050565b306001600160a01b037f00000000000000000000000000000000000000000000000000000000000000001614156104d95760405162461bcd60e51b815260040161047990611ad9565b7f00000000000000000000000000000000000000000000000000000000000000006001600160a01b0316610522600080516020611dac833981519152546001600160a01b031690565b6001600160a01b0316146105485760405162461bcd60e51b815260040161047990611b25565b61055181610bcf565b6040805160008082526020820190925261056d91839190610bf9565b50565b6000606061057f8585856108b1565b6105e65760405162461bcd60e51b815260206004820152603260248201527f4d696e696d616c466f727761726465723a207369676e617475726520646f6573604482015271081b9bdd081b585d18da081c995c5d595cdd60721b6064820152608401610479565b6105f560808601356001611b87565b6035600061060660208901896118a0565b6001600160a01b03166001600160a01b031681526020019081526020016000208190555060008086602001602081019061064091906118a0565b6001600160a01b03166060880135604089013561066060a08b018b611b9f565b61066d60208d018d6118a0565b60405160200161067f93929190611be6565b60408051601f198184030181529082905261069991611c0c565b600060405180830381858888f193505050503d80600081146106d7576040519150601f19603f3d011682016040523d82523d6000602084013e6106dc565b606091505b5090925090506106f1603f6060890135611c28565b5a116106f957fe5b90969095509350505050565b306001600160a01b037f000000000000000000000000000000000000000000000000000000000000000016141561074e5760405162461bcd60e51b815260040161047990611ad9565b7f00000000000000000000000000000000000000000000000000000000000000006001600160a01b0316610797600080516020611dac833981519152546001600160a01b031690565b6001600160a01b0316146107bd5760405162461bcd60e51b815260040161047990611b25565b6107c682610bcf565b61048c82826001610bf9565b6000306001600160a01b037f000000000000000000000000000000000000000000000000000000000000000016146108725760405162461bcd60e51b815260206004820152603860248201527f555550535570677261646561626c653a206d757374206e6f742062652063616c60448201527f6c6564207468726f7567682064656c656761746563616c6c00000000000000006064820152608401610479565b50600080516020611dac83398151915290565b600091825261012f602090815260408084206001600160a01b0393909316845291905290205460ff1690565b6000806109c484848080601f0160208091040260200160405190810160405280939291908181526020018383808284376000920191909152506109be92507fdd8f4b70b0f4393e889bd39128a30628a78b61816a9eb8199759e7a349657e489150610921905060208a018a6118a0565b61093160408b0160208c016118a0565b60408b013560608c013560808d013561094d60a08f018f611b9f565b60405161095b929190611c4a565b6040805191829003822060208301989098526001600160a01b0396871690820152949093166060850152608084019190915260a083015260c082015260e08101919091526101000160405160208183030381529060405280519060200120610d73565b90610dc1565b90506080850135603560006109dc60208901896118a0565b6001600160a01b03166001600160a01b0316815260200190815260200160002054148015610a275750610a1260208601866118a0565b6001600160a01b0316816001600160a01b0316145b9150505b9392505050565b6000610a3e6001610de5565b90508015610a56576000805461ff0019166101001790555b610a5f82610e72565b610a67610fd4565b801561048c576000805461ff0019169055604051600181527f7f26b83ff96e1f2b6a682f133852f6798a09c465da95921460cefb38474024989060200160405180910390a15050565b600082815261012f6020526040902060010154610acc81610ad6565b6104088383610b67565b61056d8133611041565b610aea8282610885565b61048c57600082815261012f602090815260408083206001600160a01b03851684529091529020805460ff19166001179055610b233390565b6001600160a01b0316816001600160a01b0316837f2f8788117e7eff1d82e926ec794901d17c78024a50270940304540a733656f0d60405160405180910390a45050565b610b718282610885565b1561048c57600082815261012f602090815260408083206001600160a01b0385168085529252808320805460ff1916905551339285917ff6391f5c32d9c69d2a47ea670b442974b53935d1edc7fd64eb21e047a839171b9190a45050565b7f189ab7a9244df0848122154315af71fe140f3db0fe014031783b0946b8c9d2e361048c81610ad6565b7f4910fdfa16fed3260ed0e7147f7cc6da11a60208b5b9406d12a635614ffd91435460ff1615610c2c57610408836110a5565b826001600160a01b03166352d1902d6040518163ffffffff1660e01b815260040160206040518083038186803b158015610c6557600080fd5b505afa925050508015610c95575060408051601f3d908101601f19168201909252610c9291810190611c5a565b60015b610cf85760405162461bcd60e51b815260206004820152602e60248201527f45524331393637557067726164653a206e657720696d706c656d656e7461746960448201526d6f6e206973206e6f74205555505360901b6064820152608401610479565b600080516020611dac8339815191528114610d675760405162461bcd60e51b815260206004820152602960248201527f45524331393637557067726164653a20756e737570706f727465642070726f786044820152681a58589b195555525160ba1b6064820152608401610479565b50610408838383611141565b60006103dc610d8061116c565b8360405161190160f01b6020820152602281018390526042810182905260009060620160405160208183030381529060405280519060200120905092915050565b6000806000610dd085856111ec565b91509150610ddd8161125c565b509392505050565b60008054610100900460ff1615610e2c578160ff166001148015610e085750303b155b610e245760405162461bcd60e51b815260040161047990611c73565b506000919050565b60005460ff808416911610610e535760405162461bcd60e51b815260040161047990611c73565b506000805460ff191660ff92909216919091179055600190565b919050565b610e7a610fd4565b610e85600082610ae0565b610eaf7ff5eb84615c2a00ecaf817d13794ebd6299c9e01c395bf4018453f13f577f544982610ae0565b610ed97f9f2df0fed2c77648de5860a4cc508cd0818c85b8b8a1ab4ceeef8d981c8956a682610ae0565b610f037f189ab7a9244df0848122154315af71fe140f3db0fe014031783b0946b8c9d2e333610ae0565b5060408051808201825260068152651b595b185b9960d21b6020918201528151808301835260018152603160f81b9082015281517f8b73c3c69bb8fe3d512ecc4cf759cc79239f7b179b0ffacaa9a75d522b39400f818301527f314ed1331a8d68d6e7c652158abe27c46bf91bd45ef86ab66f92d6500b1056eb818401527fc89efdaa54c0f20c7adf612882df0950f5a951637e0307cdcb4c672f298b8bc660608201524660808201523060a0808301919091528351808303909101815260c0909101909252815191012061016155565b600054610100900460ff1661103f5760405162461bcd60e51b815260206004820152602b60248201527f496e697469616c697a61626c653a20636f6e7472616374206973206e6f74206960448201526a6e697469616c697a696e6760a81b6064820152608401610479565b565b61104b8282610885565b61048c57611063816001600160a01b03166014611417565b61106e836020611417565b60405160200161107f929190611cc1565b60408051601f198184030181529082905262461bcd60e51b825261047991600401611d36565b6001600160a01b0381163b6111125760405162461bcd60e51b815260206004820152602d60248201527f455243313936373a206e657720696d706c656d656e746174696f6e206973206e60448201526c1bdd08184818dbdb9d1c9858dd609a1b6064820152608401610479565b600080516020611dac83398151915280546001600160a01b0319166001600160a01b0392909216919091179055565b61114a836115b3565b6000825111806111575750805b156104085761116683836115f3565b50505050565b60006111e77f8b73c3c69bb8fe3d512ecc4cf759cc79239f7b179b0ffacaa9a75d522b39400f61119b60015490565b6002546040805160208101859052908101839052606081018290524660808201523060a082015260009060c0016040516020818303038152906040528051906020012090509392505050565b905090565b6000808251604114156112235760208301516040840151606085015160001a611217878285856116e7565b94509450505050611255565b82516040141561124d57602083015160408401516112428683836117d4565b935093505050611255565b506000905060025b9250929050565b600081600481111561127057611270611d49565b14156112795750565b600181600481111561128d5761128d611d49565b14156112db5760405162461bcd60e51b815260206004820152601860248201527f45434453413a20696e76616c6964207369676e617475726500000000000000006044820152606401610479565b60028160048111156112ef576112ef611d49565b141561133d5760405162461bcd60e51b815260206004820152601f60248201527f45434453413a20696e76616c6964207369676e6174757265206c656e677468006044820152606401610479565b600381600481111561135157611351611d49565b14156113aa5760405162461bcd60e51b815260206004820152602260248201527f45434453413a20696e76616c6964207369676e6174757265202773272076616c604482015261756560f01b6064820152608401610479565b60048160048111156113be576113be611d49565b141561056d5760405162461bcd60e51b815260206004820152602260248201527f45434453413a20696e76616c6964207369676e6174757265202776272076616c604482015261756560f01b6064820152608401610479565b60606000611426836002611d5f565b611431906002611b87565b67ffffffffffffffff81111561144957611449611a01565b6040519080825280601f01601f191660200182016040528015611473576020820181803683370190505b509050600360fc1b8160008151811061148e5761148e611d7e565b60200101906001600160f81b031916908160001a905350600f60fb1b816001815181106114bd576114bd611d7e565b60200101906001600160f81b031916908160001a90535060006114e1846002611d5f565b6114ec906001611b87565b90505b6001811115611564576f181899199a1a9b1b9c1cb0b131b232b360811b85600f166010811061152057611520611d7e565b1a60f81b82828151811061153657611536611d7e565b60200101906001600160f81b031916908160001a90535060049490941c9361155d81611d94565b90506114ef565b508315610a2b5760405162461bcd60e51b815260206004820181905260248201527f537472696e67733a20686578206c656e67746820696e73756666696369656e746044820152606401610479565b6115bc816110a5565b6040516001600160a01b038216907fbc7cd75a20ee27fd9adebab32041f755214dbc6bffa90cc0225b39da2e5c2d3b90600090a250565b60606001600160a01b0383163b61165b5760405162461bcd60e51b815260206004820152602660248201527f416464726573733a2064656c65676174652063616c6c20746f206e6f6e2d636f6044820152651b9d1c9858dd60d21b6064820152608401610479565b600080846001600160a01b0316846040516116769190611c0c565b600060405180830381855af49150503d80600081146116b1576040519150601f19603f3d011682016040523d82523d6000602084013e6116b6565b606091505b50915091506116de8282604051806060016040528060278152602001611dcc6027913961180d565b95945050505050565b6000807f7fffffffffffffffffffffffffffffff5d576e7357a4501ddfe92f46681b20a083111561171e57506000905060036117cb565b8460ff16601b1415801561173657508460ff16601c14155b1561174757506000905060046117cb565b6040805160008082526020820180845289905260ff881692820192909252606081018690526080810185905260019060a0016020604051602081039080840390855afa15801561179b573d6000803e3d6000fd5b5050604051601f1901519150506001600160a01b0381166117c4576000600192509250506117cb565b9150600090505b94509492505050565b6000806001600160ff1b038316816117f160ff86901c601b611b87565b90506117ff878288856116e7565b935093505050935093915050565b6060831561181c575081610a2b565b82511561182c5782518084602001fd5b8160405162461bcd60e51b81526004016104799190611d36565b60006020828403121561185857600080fd5b81356001600160e01b031981168114610a2b57600080fd5b60006020828403121561188257600080fd5b5035919050565b80356001600160a01b0381168114610e6d57600080fd5b6000602082840312156118b257600080fd5b610a2b82611889565b600080604083850312156118ce57600080fd5b823591506118de60208401611889565b90509250929050565b6000806000604084860312156118fc57600080fd5b833567ffffffffffffffff8082111561191457600080fd5b9085019060c0828803121561192857600080fd5b9093506020850135908082111561193e57600080fd5b818601915086601f83011261195257600080fd5b81358181111561196157600080fd5b87602082850101111561197357600080fd5b6020830194508093505050509250925092565b60005b838110156119a1578181015183820152602001611989565b838111156111665750506000910152565b600081518084526119ca816020860160208601611986565b601f01601f19169290920160200192915050565b82151581526040602082015260006119f960408301846119b2565b949350505050565b634e487b7160e01b600052604160045260246000fd5b60008060408385031215611a2a57600080fd5b611a3383611889565b9150602083013567ffffffffffffffff80821115611a5057600080fd5b818501915085601f830112611a6457600080fd5b813581811115611a7657611a76611a01565b604051601f8201601f19908116603f01168101908382118183101715611a9e57611a9e611a01565b81604052828152886020848701011115611ab757600080fd5b8260208601602083013760006020848301015280955050505050509250929050565b6020808252602c908201527f46756e6374696f6e206d7573742062652063616c6c6564207468726f7567682060408201526b19195b1959d85d1958d85b1b60a21b606082015260800190565b6020808252602c908201527f46756e6374696f6e206d7573742062652063616c6c6564207468726f7567682060408201526b6163746976652070726f787960a01b606082015260800190565b634e487b7160e01b600052601160045260246000fd5b60008219821115611b9a57611b9a611b71565b500190565b6000808335601e19843603018112611bb657600080fd5b83018035915067ffffffffffffffff821115611bd157600080fd5b60200191503681900382131561125557600080fd5b8284823760609190911b6bffffffffffffffffffffffff19169101908152601401919050565b60008251611c1e818460208701611986565b9190910192915050565b600082611c4557634e487b7160e01b600052601260045260246000fd5b500490565b8183823760009101908152919050565b600060208284031215611c6c57600080fd5b5051919050565b6020808252602e908201527f496e697469616c697a61626c653a20636f6e747261637420697320616c72656160408201526d191e481a5b9a5d1a585b1a5e995960921b606082015260800190565b7f416363657373436f6e74726f6c3a206163636f756e7420000000000000000000815260008351611cf9816017850160208801611986565b7001034b99036b4b9b9b4b733903937b6329607d1b6017918401918201528351611d2a816028840160208801611986565b01602801949350505050565b602081526000610a2b60208301846119b2565b634e487b7160e01b600052602160045260246000fd5b6000816000190483118215151615611d7957611d79611b71565b500290565b634e487b7160e01b600052603260045260246000fd5b600081611da357611da3611b71565b50600019019056fe360894a13ba1a3210667c828492db98dca3e2076cc3735a920a3ca505d382bbc416464726573733a206c6f772d6c6576656c2064656c65676174652063616c6c206661696c6564a26469706673582212208afbd5644c6a16ec3d127685c311e9f73295d7548099cab31e2dcb305c3cda5864736f6c63430008090033",
  "immutableReferences": {
    "1162": [
      {
        "length": 32,
        "start": 1179
      },
      {
        "length": 32,
        "start": 1243
      },
      {
        "length": 32,
        "start": 1808
      },
      {
        "length": 32,
        "start": 1872
      },
      {
        "length": 32,
        "start": 2015
      }
    ]
  },
  "source": "// SPDX-License-Identifier: MIT\npragma solidity 0.8.9;\n\nimport \"@openzeppelin/contracts-upgradeable/proxy/utils/UUPSUpgradeable.sol\";\nimport \"@openzeppelin/contracts-upgradeable/metatx/MinimalForwarderUpgradeable.sol\";\nimport \"../common/MelandAccessRoles.sol\";\n\ncontract MelandForwarder is MinimalForwarderUpgradeable, UUPSUpgradeable, MelandAccessRoles {\n    function initialize(address mpc) public initializer {\n        __MelandAccessRoles_init(mpc);\n        __UUPSUpgradeable_init();\n    }\n\n    function _authorizeUpgrade(address newImplementation)\n        internal\n        override\n        onlyRole(UPGRADER_ROLE)\n    {}\n}\n",
  "sourcePath": "/Users/alberthuang/code/contracts-v2/contracts/metatx/MelandForwarder.sol",
  "compiler": {
    "name": "solc",
    "version": "0.8.9+commit.e5eed63a.Emscripten.clang"
  },
  "schemaVersion": "3.4.5",
  "updatedAt": "2022-05-25T07:43:13.956Z",
  "devdoc": {
    "kind": "dev",
    "methods": {
      "getRoleAdmin(bytes32)": {
        "details": "Returns the admin role that controls `role`. See {grantRole} and {revokeRole}. To change a role's admin, use {_setRoleAdmin}."
      },
      "grantRole(bytes32,address)": {
        "details": "Grants `role` to `account`. If `account` had not been already granted `role`, emits a {RoleGranted} event. Requirements: - the caller must have ``role``'s admin role."
      },
      "hasRole(bytes32,address)": {
        "details": "Returns `true` if `account` has been granted `role`."
      },
      "proxiableUUID()": {
        "details": "Implementation of the ERC1822 {proxiableUUID} function. This returns the storage slot used by the implementation. It is used to validate that the this implementation remains valid after an upgrade. IMPORTANT: A proxy pointing at a proxiable contract should not be considered proxiable itself, because this risks bricking a proxy that upgrades to it, by delegating to itself until out of gas. Thus it is critical that this function revert if invoked through a proxy. This is guaranteed by the `notDelegated` modifier."
      },
      "renounceRole(bytes32,address)": {
        "details": "Revokes `role` from the calling account. Roles are often managed via {grantRole} and {revokeRole}: this function's purpose is to provide a mechanism for accounts to lose their privileges if they are compromised (such as when a trusted device is misplaced). If the calling account had been revoked `role`, emits a {RoleRevoked} event. Requirements: - the caller must be `account`."
      },
      "revokeRole(bytes32,address)": {
        "details": "Revokes `role` from `account`. If `account` had been granted `role`, emits a {RoleRevoked} event. Requirements: - the caller must have ``role``'s admin role."
      },
      "supportsInterface(bytes4)": {
        "details": "See {IERC165-supportsInterface}."
      },
      "upgradeTo(address)": {
        "details": "Upgrade the implementation of the proxy to `newImplementation`. Calls {_authorizeUpgrade}. Emits an {Upgraded} event."
      },
      "upgradeToAndCall(address,bytes)": {
        "details": "Upgrade the implementation of the proxy to `newImplementation`, and subsequently execute the function call encoded in `data`. Calls {_authorizeUpgrade}. Emits an {Upgraded} event."
      }
    },
    "version": 1
  },
  "userdoc": {
    "kind": "user",
    "methods": {},
    "version": 1
  }
}