{
  "contractName": "MelandSwapFactory",
  "abi": [
    {
      "inputs": [
        {
          "internalType": "address",
          "name": "trustedForwarder",
          "type": "address"
        }
      ],
      "stateMutability": "nonpayable",
      "type": "constructor"
    },
    {
      "anonymous": false,
      "inputs": [
        {
          "indexed": false,
          "internalType": "address",
          "name": "previousAdmin",
          "type": "address"
        },
        {
          "indexed": false,
          "internalType": "address",
          "name": "newAdmin",
          "type": "address"
        }
      ],
      "name": "AdminChanged",
      "type": "event"
    },
    {
      "anonymous": false,
      "inputs": [
        {
          "indexed": true,
          "internalType": "address",
          "name": "beacon",
          "type": "address"
        }
      ],
      "name": "BeaconUpgraded",
      "type": "event"
    },
    {
      "anonymous": false,
      "inputs": [
        {
          "indexed": true,
          "internalType": "address",
          "name": "pool",
          "type": "address"
        },
        {
          "indexed": false,
          "internalType": "address",
          "name": "erc20",
          "type": "address"
        },
        {
          "indexed": false,
          "internalType": "bytes32",
          "name": "productId",
          "type": "bytes32"
        }
      ],
      "name": "CreatePool",
      "type": "event"
    },
    {
      "anonymous": false,
      "inputs": [
        {
          "indexed": false,
          "internalType": "uint8",
          "name": "version",
          "type": "uint8"
        }
      ],
      "name": "Initialized",
      "type": "event"
    },
    {
      "anonymous": false,
      "inputs": [
        {
          "indexed": true,
          "internalType": "bytes32",
          "name": "role",
          "type": "bytes32"
        },
        {
          "indexed": true,
          "internalType": "bytes32",
          "name": "previousAdminRole",
          "type": "bytes32"
        },
        {
          "indexed": true,
          "internalType": "bytes32",
          "name": "newAdminRole",
          "type": "bytes32"
        }
      ],
      "name": "RoleAdminChanged",
      "type": "event"
    },
    {
      "anonymous": false,
      "inputs": [
        {
          "indexed": true,
          "internalType": "bytes32",
          "name": "role",
          "type": "bytes32"
        },
        {
          "indexed": true,
          "internalType": "address",
          "name": "account",
          "type": "address"
        },
        {
          "indexed": true,
          "internalType": "address",
          "name": "sender",
          "type": "address"
        }
      ],
      "name": "RoleGranted",
      "type": "event"
    },
    {
      "anonymous": false,
      "inputs": [
        {
          "indexed": true,
          "internalType": "bytes32",
          "name": "role",
          "type": "bytes32"
        },
        {
          "indexed": true,
          "internalType": "address",
          "name": "account",
          "type": "address"
        },
        {
          "indexed": true,
          "internalType": "address",
          "name": "sender",
          "type": "address"
        }
      ],
      "name": "RoleRevoked",
      "type": "event"
    },
    {
      "anonymous": false,
      "inputs": [
        {
          "indexed": true,
          "internalType": "address",
          "name": "implementation",
          "type": "address"
        }
      ],
      "name": "Upgraded",
      "type": "event"
    },
    {
      "inputs": [],
      "name": "DEFAULT_ADMIN_ROLE",
      "outputs": [
        {
          "internalType": "bytes32",
          "name": "",
          "type": "bytes32"
        }
      ],
      "stateMutability": "view",
      "type": "function",
      "constant": true
    },
    {
      "inputs": [],
      "name": "DOMAIN_SEPARATOR",
      "outputs": [
        {
          "internalType": "bytes32",
          "name": "",
          "type": "bytes32"
        }
      ],
      "stateMutability": "view",
      "type": "function",
      "constant": true
    },
    {
      "inputs": [],
      "name": "GM_ROLE",
      "outputs": [
        {
          "internalType": "bytes32",
          "name": "",
          "type": "bytes32"
        }
      ],
      "stateMutability": "view",
      "type": "function",
      "constant": true
    },
    {
      "inputs": [],
      "name": "MINTER_ROLE",
      "outputs": [
        {
          "internalType": "bytes32",
          "name": "",
          "type": "bytes32"
        }
      ],
      "stateMutability": "view",
      "type": "function",
      "constant": true
    },
    {
      "inputs": [],
      "name": "UPGRADER_ROLE",
      "outputs": [
        {
          "internalType": "bytes32",
          "name": "",
          "type": "bytes32"
        }
      ],
      "stateMutability": "view",
      "type": "function",
      "constant": true
    },
    {
      "inputs": [
        {
          "internalType": "bytes32",
          "name": "role",
          "type": "bytes32"
        }
      ],
      "name": "getRoleAdmin",
      "outputs": [
        {
          "internalType": "bytes32",
          "name": "",
          "type": "bytes32"
        }
      ],
      "stateMutability": "view",
      "type": "function",
      "constant": true
    },
    {
      "inputs": [
        {
          "internalType": "bytes32",
          "name": "role",
          "type": "bytes32"
        },
        {
          "internalType": "address",
          "name": "account",
          "type": "address"
        }
      ],
      "name": "grantRole",
      "outputs": [],
      "stateMutability": "nonpayable",
      "type": "function"
    },
    {
      "inputs": [
        {
          "internalType": "bytes32",
          "name": "role",
          "type": "bytes32"
        },
        {
          "internalType": "address",
          "name": "account",
          "type": "address"
        }
      ],
      "name": "hasRole",
      "outputs": [
        {
          "internalType": "bool",
          "name": "",
          "type": "bool"
        }
      ],
      "stateMutability": "view",
      "type": "function",
      "constant": true
    },
    {
      "inputs": [
        {
          "internalType": "address",
          "name": "forwarder",
          "type": "address"
        }
      ],
      "name": "isTrustedForwarder",
      "outputs": [
        {
          "internalType": "bool",
          "name": "",
          "type": "bool"
        }
      ],
      "stateMutability": "view",
      "type": "function",
      "constant": true
    },
    {
      "inputs": [],
      "name": "productManager",
      "outputs": [
        {
          "internalType": "contract IProductManager",
          "name": "",
          "type": "address"
        }
      ],
      "stateMutability": "view",
      "type": "function",
      "constant": true
    },
    {
      "inputs": [],
      "name": "proxiableUUID",
      "outputs": [
        {
          "internalType": "bytes32",
          "name": "",
          "type": "bytes32"
        }
      ],
      "stateMutability": "view",
      "type": "function",
      "constant": true
    },
    {
      "inputs": [
        {
          "internalType": "bytes32",
          "name": "role",
          "type": "bytes32"
        },
        {
          "internalType": "address",
          "name": "account",
          "type": "address"
        }
      ],
      "name": "renounceRole",
      "outputs": [],
      "stateMutability": "nonpayable",
      "type": "function"
    },
    {
      "inputs": [
        {
          "internalType": "bytes32",
          "name": "role",
          "type": "bytes32"
        },
        {
          "internalType": "address",
          "name": "account",
          "type": "address"
        }
      ],
      "name": "revokeRole",
      "outputs": [],
      "stateMutability": "nonpayable",
      "type": "function"
    },
    {
      "inputs": [
        {
          "internalType": "bytes4",
          "name": "interfaceId",
          "type": "bytes4"
        }
      ],
      "name": "supportsInterface",
      "outputs": [
        {
          "internalType": "bool",
          "name": "",
          "type": "bool"
        }
      ],
      "stateMutability": "view",
      "type": "function",
      "constant": true
    },
    {
      "inputs": [
        {
          "internalType": "address",
          "name": "newImplementation",
          "type": "address"
        }
      ],
      "name": "upgradeTo",
      "outputs": [],
      "stateMutability": "nonpayable",
      "type": "function"
    },
    {
      "inputs": [
        {
          "internalType": "address",
          "name": "newImplementation",
          "type": "address"
        },
        {
          "internalType": "bytes",
          "name": "data",
          "type": "bytes"
        }
      ],
      "name": "upgradeToAndCall",
      "outputs": [],
      "stateMutability": "payable",
      "type": "function",
      "payable": true
    },
    {
      "inputs": [
        {
          "internalType": "address",
          "name": "mpc",
          "type": "address"
        },
        {
          "internalType": "contract IProductManager",
          "name": "_pm",
          "type": "address"
        }
      ],
      "name": "initialize",
      "outputs": [],
      "stateMutability": "nonpayable",
      "type": "function"
    },
    {
      "inputs": [
        {
          "internalType": "address",
          "name": "mabyePool",
          "type": "address"
        }
      ],
      "name": "isPool",
      "outputs": [
        {
          "internalType": "bool",
          "name": "",
          "type": "bool"
        }
      ],
      "stateMutability": "view",
      "type": "function",
      "constant": true
    },
    {
      "inputs": [
        {
          "internalType": "contract IERC1155",
          "name": "erc1155",
          "type": "address"
        },
        {
          "internalType": "uint256",
          "name": "tokenId",
          "type": "uint256"
        },
        {
          "internalType": "contract IERC20Metadata",
          "name": "erc20",
          "type": "address"
        },
        {
          "internalType": "uint256",
          "name": "erc20Amount",
          "type": "uint256"
        },
        {
          "internalType": "uint256",
          "name": "erc1155Amount",
          "type": "uint256"
        }
      ],
      "name": "createPoolByCommunity",
      "outputs": [],
      "stateMutability": "nonpayable",
      "type": "function"
    },
    {
      "inputs": [
        {
          "internalType": "bytes32",
          "name": "productId",
          "type": "bytes32"
        },
        {
          "internalType": "contract IERC20Metadata",
          "name": "erc20token",
          "type": "address"
        }
      ],
      "name": "getStock",
      "outputs": [
        {
          "internalType": "uint256",
          "name": "",
          "type": "uint256"
        }
      ],
      "stateMutability": "view",
      "type": "function",
      "constant": true
    },
    {
      "inputs": [
        {
          "internalType": "bytes32",
          "name": "productId",
          "type": "bytes32"
        },
        {
          "internalType": "contract IERC20Metadata",
          "name": "erc20token",
          "type": "address"
        },
        {
          "internalType": "uint256",
          "name": "buyamount",
          "type": "uint256"
        }
      ],
      "name": "getBuyPrice",
      "outputs": [
        {
          "internalType": "uint256",
          "name": "",
          "type": "uint256"
        }
      ],
      "stateMutability": "view",
      "type": "function",
      "constant": true
    },
    {
      "inputs": [
        {
          "internalType": "bytes32",
          "name": "",
          "type": "bytes32"
        },
        {
          "internalType": "contract IERC20Metadata",
          "name": "erc20token",
          "type": "address"
        }
      ],
      "name": "beginBuy",
      "outputs": [],
      "stateMutability": "nonpayable",
      "type": "function"
    },
    {
      "inputs": [
        {
          "internalType": "bytes32",
          "name": "productId",
          "type": "bytes32"
        },
        {
          "internalType": "contract IERC20Metadata",
          "name": "erc20token",
          "type": "address"
        },
        {
          "internalType": "address",
          "name": "buyer",
          "type": "address"
        },
        {
          "internalType": "uint256",
          "name": "buyamount",
          "type": "uint256"
        },
        {
          "internalType": "uint256",
          "name": "tknRate",
          "type": "uint256"
        }
      ],
      "name": "buy",
      "outputs": [],
      "stateMutability": "nonpayable",
      "type": "function"
    }
  ],
  "bytecode": "0x60e06040523060805234801561001457600080fd5b5060405162006088380380620060888339810160408190526100359161004b565b6001600160a01b031660a081905260c05261007b565b60006020828403121561005d57600080fd5b81516001600160a01b038116811461007457600080fd5b9392505050565b60805160a05160c051615fba620000ce600039600061183001526000818161038001526119b00152600081816109b0015281816109f301528181610db801528181610dfb0152610e930152615fba6000f3fe6080604052600436106200015b5760003560e01c80634f1ef28611620000c5578063a217fddf1162000078578063a217fddf1462000438578063b5674881146200044f578063d53913931462000474578063d547741f14620004aa578063f426306f14620004cf578063f72c0d8b146200050b57600080fd5b80634f1ef286146200033057806352d1902d1462000347578063572b6c05146200035f5780635b16ebb714620003b057806372386c8a14620003ee57806391d14854146200041357600080fd5b80633644e515116200011e5780633644e515146200025f57806336568abe14620002775780633659cfe6146200029c57806344d662f714620002c157806346a4988014620002e6578063485cc955146200030b57600080fd5b806301ffc9a71462000160578063248a9ca3146200019a5780632d79471114620001dd5780632f2ff15d146200020457806330c7be2c1462000229575b600080fd5b3480156200016d57600080fd5b50620001856200017f36600462001df8565b62000541565b60405190151581526020015b60405180910390f35b348015620001a757600080fd5b50620001ce620001b936600462001e24565b60009081526065602052604090206001015490565b60405190815260200162000191565b348015620001ea57600080fd5b5062000202620001fc36600462001e54565b62000579565b005b3480156200021157600080fd5b50620002026200022336600462001eab565b620008e3565b3480156200023657600080fd5b50620001ce7ff5eb84615c2a00ecaf817d13794ebd6299c9e01c395bf4018453f13f577f544981565b3480156200026c57600080fd5b50620001ce60975481565b3480156200028457600080fd5b50620002026200029636600462001eab565b62000911565b348015620002a957600080fd5b5062000202620002bb36600462001ede565b620009a5565b348015620002ce57600080fd5b5062000202620002e036600462001eab565b62000a91565b348015620002f357600080fd5b50620001ce6200030536600462001eab565b62000b14565b3480156200031857600080fd5b50620002026200032a36600462001efe565b62000c6b565b620002026200034136600462001f47565b62000dad565b3480156200035457600080fd5b50620001ce62000e86565b3480156200036c57600080fd5b50620001856200037e36600462001ede565b7f00000000000000000000000000000000000000000000000000000000000000006001600160a01b0390811691161490565b348015620003bd57600080fd5b5062000185620003cf36600462001ede565b6001600160a01b03166000908152610130602052604090205460ff1690565b348015620003fb57600080fd5b50620001ce6200040d36600462002017565b62000f3c565b3480156200042057600080fd5b50620001856200043236600462001eab565b62001015565b3480156200044557600080fd5b50620001ce600081565b3480156200045c57600080fd5b50620002026200046e36600462002052565b62001040565b3480156200048157600080fd5b50620001ce7f9f2df0fed2c77648de5860a4cc508cd0818c85b8b8a1ab4ceeef8d981c8956a681565b348015620004b757600080fd5b5062000202620004c936600462001eab565b62001216565b348015620004dc57600080fd5b5061012e54620004f2906001600160a01b031681565b6040516001600160a01b03909116815260200162000191565b3480156200051857600080fd5b50620001ce7f189ab7a9244df0848122154315af71fe140f3db0fe014031783b0946b8c9d2e381565b60006001600160e01b03198216637965db0b60e01b14806200057357506301ffc9a760e01b6001600160e01b03198316145b92915050565b60008211620005df5760405162461bcd60e51b815260206004820152602760248201527f4d656c616e6453776170466163746f7279236275793a20627579616d6f756e74604482015266206c657373203160c81b60648201526084015b60405180910390fd5b6040516370a0823160e01b81523060048201526000906001600160a01b038616906370a082319060240160206040518083038186803b1580156200062257600080fd5b505afa15801562000637573d6000803e3d6000fd5b505050506040513d601f19601f820116820180604052508101906200065d919062002091565b600087815261012f602090815260408083206001600160a01b03808b1685529252909120549192501680620006e45760405162461bcd60e51b815260206004820152602660248201527f4d656c616e6453776170466163746f7279236275793a20706f6f6c206e6f742060448201526565786973747360d01b6064820152608401620005d6565b60405163023536c560e21b81526004810185905281906000906001600160a01b038316906308d4db149060240160606040518083038186803b1580156200072a57600080fd5b505afa1580156200073f573d6000803e3d6000fd5b505050506040513d601f19601f82011682018060405250810190620007659190620020ab565b50509050600061013154856200077c9190620020f0565b9050818114620007df5760405162461bcd60e51b815260206004820152602760248201527f4d656c616e6453776170466163746f7279236275793a206e6f7420656e6f756760448201526634103a37b5b2b760c91b6064820152608401620005d6565b60405163095ea7b360e01b81526001600160a01b038581166004830152602482018490528a169063095ea7b390604401602060405180830381600087803b1580156200082a57600080fd5b505af11580156200083f573d6000803e3d6000fd5b505050506040513d601f19601f820116820180604052508101906200086591906200210a565b506040516370d9fb9d60e11b81526001600160a01b038981166004830152306024830152604482018990526064820188905284169063e1b3f73a90608401600060405180830381600087803b158015620008be57600080fd5b505af1158015620008d3573d6000803e3d6000fd5b5050505050505050505050505050565b60008281526065602052604090206001015462000900816200123f565b6200090c838362001254565b505050565b6200091b620012e0565b6001600160a01b0316816001600160a01b031614620009955760405162461bcd60e51b815260206004820152602f60248201527f416363657373436f6e74726f6c3a2063616e206f6e6c792072656e6f756e636560448201526e103937b632b9903337b91039b2b63360891b6064820152608401620005d6565b620009a18282620012f1565b5050565b306001600160a01b037f0000000000000000000000000000000000000000000000000000000000000000161415620009f15760405162461bcd60e51b8152600401620005d6906200212e565b7f00000000000000000000000000000000000000000000000000000000000000006001600160a01b031662000a3c60008051602062005f3e833981519152546001600160a01b031690565b6001600160a01b03161462000a655760405162461bcd60e51b8152600401620005d6906200217a565b62000a70816200137b565b6040805160008082526020820190925262000a8e91839190620013a7565b50565b6040516370a0823160e01b81523060048201526001600160a01b038216906370a082319060240160206040518083038186803b15801562000ad157600080fd5b505afa15801562000ae6573d6000803e3d6000fd5b505050506040513d601f19601f8201168201806040525081019062000b0c919062002091565b610131555050565b600082815261012f602090815260408083206001600160a01b0380861685529252822054168062000b4a57600091505062000573565b60008190506103e8816001600160a01b03166338ce47436040518163ffffffff1660e01b815260040160206040518083038186803b15801562000b8c57600080fd5b505afa15801562000ba1573d6000803e3d6000fd5b505050506040513d601f19601f8201168201806040525081019062000bc7919062002091565b62000bd590610401620021c6565b62000be19190620021e8565b816001600160a01b031663a4b59c256040518163ffffffff1660e01b815260040160206040518083038186803b15801562000c1b57600080fd5b505afa15801562000c30573d6000803e3d6000fd5b505050506040513d601f19601f8201168201806040525081019062000c56919062002091565b62000c629190620021e8565b95945050505050565b600054610100900460ff161580801562000c8c5750600054600160ff909116105b8062000ca85750303b15801562000ca8575060005460ff166001145b62000d0d5760405162461bcd60e51b815260206004820152602e60248201527f496e697469616c697a61626c653a20636f6e747261637420697320616c72656160448201526d191e481a5b9a5d1a585b1a5e995960921b6064820152608401620005d6565b6000805460ff19166001179055801562000d31576000805461ff0019166101001790555b62000d3b6200152f565b62000d46836200159e565b61012e80546001600160a01b0319166001600160a01b03841617905580156200090c576000805461ff0019169055604051600181527f7f26b83ff96e1f2b6a682f133852f6798a09c465da95921460cefb38474024989060200160405180910390a1505050565b306001600160a01b037f000000000000000000000000000000000000000000000000000000000000000016141562000df95760405162461bcd60e51b8152600401620005d6906200212e565b7f00000000000000000000000000000000000000000000000000000000000000006001600160a01b031662000e4460008051602062005f3e833981519152546001600160a01b031690565b6001600160a01b03161462000e6d5760405162461bcd60e51b8152600401620005d6906200217a565b62000e78826200137b565b620009a182826001620013a7565b6000306001600160a01b037f0000000000000000000000000000000000000000000000000000000000000000161462000f285760405162461bcd60e51b815260206004820152603860248201527f555550535570677261646561626c653a206d757374206e6f742062652063616c60448201527f6c6564207468726f7567682064656c656761746563616c6c00000000000000006064820152608401620005d6565b5060008051602062005f3e83398151915290565b60008162000f4d575060006200100e565b600084815261012f602090815260408083206001600160a01b038088168552925290912054168062000f845760009150506200100e565b60405163023536c560e21b81526004810184905281906000906001600160a01b038316906308d4db149060240160606040518083038186803b15801562000fca57600080fd5b505afa15801562000fdf573d6000803e3d6000fd5b505050506040513d601f19601f82011682018060405250810190620010059190620020ab565b50909450505050505b9392505050565b60009182526065602090815260408084206001600160a01b0393909316845291905290205460ff1690565b7ff5eb84615c2a00ecaf817d13794ebd6299c9e01c395bf4018453f13f577f54496200106c816200123f565b600062001078620012e0565b905060006200108988888862001709565b60405163095ea7b360e01b81526001600160a01b038083166004830152602482018890529192509087169063095ea7b390604401602060405180830381600087803b158015620010d857600080fd5b505af1158015620010ed573d6000803e3d6000fd5b505050506040513d601f19601f820116820180604052508101906200111391906200210a565b506040516323b872dd60e01b81526001600160a01b038381166004830152306024830152604482018790528716906323b872dd90606401602060405180830381600087803b1580156200116557600080fd5b505af11580156200117a573d6000803e3d6000fd5b505050506040513d601f19601f82011682018060405250810190620011a091906200210a565b5060405163525154fb60e11b81526001600160a01b038381166004830152602482018790526044820186905282169063a4a2a9f690606401600060405180830381600087803b158015620011f357600080fd5b505af115801562001208573d6000803e3d6000fd5b505050505050505050505050565b60008281526065602052604090206001015462001233816200123f565b6200090c8383620012f1565b62000a8e816200124e620012e0565b6200193d565b62001260828262001015565b620009a15760008281526065602090815260408083206001600160a01b03851684529091529020805460ff191660011790556200129c620012e0565b6001600160a01b0316816001600160a01b0316837f2f8788117e7eff1d82e926ec794901d17c78024a50270940304540a733656f0d60405160405180910390a45050565b6000620012ec620019ac565b905090565b620012fd828262001015565b15620009a15760008281526065602090815260408083206001600160a01b03851684529091529020805460ff1916905562001337620012e0565b6001600160a01b0316816001600160a01b0316837ff6391f5c32d9c69d2a47ea670b442974b53935d1edc7fd64eb21e047a839171b60405160405180910390a45050565b7f189ab7a9244df0848122154315af71fe140f3db0fe014031783b0946b8c9d2e3620009a1816200123f565b7f4910fdfa16fed3260ed0e7147f7cc6da11a60208b5b9406d12a635614ffd91435460ff1615620013dd576200090c83620019f2565b826001600160a01b03166352d1902d6040518163ffffffff1660e01b815260040160206040518083038186803b1580156200141757600080fd5b505afa9250505080156200144a575060408051601f3d908101601f19168201909252620014479181019062002091565b60015b620014af5760405162461bcd60e51b815260206004820152602e60248201527f45524331393637557067726164653a206e657720696d706c656d656e7461746960448201526d6f6e206973206e6f74205555505360901b6064820152608401620005d6565b60008051602062005f3e8339815191528114620015215760405162461bcd60e51b815260206004820152602960248201527f45524331393637557067726164653a20756e737570706f727465642070726f786044820152681a58589b195555525160ba1b6064820152608401620005d6565b506200090c83838362001a91565b600054610100900460ff166200159c5760405162461bcd60e51b815260206004820152602b60248201527f496e697469616c697a61626c653a20636f6e7472616374206973206e6f74206960448201526a6e697469616c697a696e6760a81b6064820152608401620005d6565b565b620015a86200152f565b620015b560008262001254565b620015e17ff5eb84615c2a00ecaf817d13794ebd6299c9e01c395bf4018453f13f577f54498262001254565b6200160d7f9f2df0fed2c77648de5860a4cc508cd0818c85b8b8a1ab4ceeef8d981c8956a68262001254565b620016397f189ab7a9244df0848122154315af71fe140f3db0fe014031783b0946b8c9d2e33362001254565b5060408051808201825260068152651b595b185b9960d21b6020918201528151808301835260018152603160f81b9082015281517f8b73c3c69bb8fe3d512ecc4cf759cc79239f7b179b0ffacaa9a75d522b39400f818301527f314ed1331a8d68d6e7c652158abe27c46bf91bd45ef86ab66f92d6500b1056eb818401527fc89efdaa54c0f20c7adf612882df0950f5a951637e0307cdcb4c672f298b8bc660608201524660808201523060a0808301919091528351808303909101815260c09091019092528151910120609755565b61012e54604051631e3d5cd960e21b81526001600160a01b0385811660048301526024820185905260009283929116906378f573649060440160206040518083038186803b1580156200175b57600080fd5b505afa15801562001770573d6000803e3d6000fd5b505050506040513d601f19601f8201168201806040525081019062001796919062002091565b600081815261012f602090815260408083206001600160a01b0388811685529252909120549192501615620018285760405162461bcd60e51b815260206004820152603160248201527f4d656c616e6453776170466163746f7279235f637265617465506f6f6c3a20446044820152703ab83634b1b0ba329031b932b0ba34b7b760791b6064820152608401620005d6565b6000858486847f00000000000000000000000000000000000000000000000000000000000000006040516200185d9062001dea565b6001600160a01b039586168152938516602085015260408401929092526060830152909116608082015260a001604051809103906000f080158015620018a7573d6000803e3d6000fd5b50600083815261012f602090815260408083206001600160a01b0389811680865291845282852080546001600160a01b0319169187169182179055808552610130845293829020805460ff19166001179055815190815291820186905292935090917f595dc58b445544a2bb0481b04e04cc98dd021b0fa8c62048c8941d5ff36434c5910160405180910390a295945050505050565b62001949828262001015565b620009a15762001964816001600160a01b0316601462001ac2565b6200197183602062001ac2565b604051602001620019849291906200223a565b60408051601f198184030181529082905262461bcd60e51b8252620005d691600401620022b3565b60007f00000000000000000000000000000000000000000000000000000000000000006001600160a01b0316331415620019ed575060131936013560601c90565b503390565b6001600160a01b0381163b62001a615760405162461bcd60e51b815260206004820152602d60248201527f455243313936373a206e657720696d706c656d656e746174696f6e206973206e60448201526c1bdd08184818dbdb9d1c9858dd609a1b6064820152608401620005d6565b60008051602062005f3e83398151915280546001600160a01b0319166001600160a01b0392909216919091179055565b62001a9c8362001c7c565b60008251118062001aaa5750805b156200090c5762001abc838362001cbe565b50505050565b6060600062001ad3836002620021c6565b62001ae0906002620022e8565b67ffffffffffffffff81111562001afb5762001afb62001f31565b6040519080825280601f01601f19166020018201604052801562001b26576020820181803683370190505b509050600360fc1b8160008151811062001b445762001b4462002303565b60200101906001600160f81b031916908160001a905350600f60fb1b8160018151811062001b765762001b7662002303565b60200101906001600160f81b031916908160001a905350600062001b9c846002620021c6565b62001ba9906001620022e8565b90505b600181111562001c2b576f181899199a1a9b1b9c1cb0b131b232b360811b85600f166010811062001be15762001be162002303565b1a60f81b82828151811062001bfa5762001bfa62002303565b60200101906001600160f81b031916908160001a90535060049490941c9362001c238162002319565b905062001bac565b5083156200100e5760405162461bcd60e51b815260206004820181905260248201527f537472696e67733a20686578206c656e67746820696e73756666696369656e746044820152606401620005d6565b62001c8781620019f2565b6040516001600160a01b038216907fbc7cd75a20ee27fd9adebab32041f755214dbc6bffa90cc0225b39da2e5c2d3b90600090a250565b60606001600160a01b0383163b62001d285760405162461bcd60e51b815260206004820152602660248201527f416464726573733a2064656c65676174652063616c6c20746f206e6f6e2d636f6044820152651b9d1c9858dd60d21b6064820152608401620005d6565b600080846001600160a01b03168460405162001d45919062002333565b600060405180830381855af49150503d806000811462001d82576040519150601f19603f3d011682016040523d82523d6000602084013e62001d87565b606091505b509150915062000c62828260405180606001604052806027815260200162005f5e602791396060831562001dbd5750816200100e565b82511562001dce5782518084602001fd5b8160405162461bcd60e51b8152600401620005d69190620022b3565b613bec806200235283390190565b60006020828403121562001e0b57600080fd5b81356001600160e01b0319811681146200100e57600080fd5b60006020828403121562001e3757600080fd5b5035919050565b6001600160a01b038116811462000a8e57600080fd5b600080600080600060a0868803121562001e6d57600080fd5b85359450602086013562001e818162001e3e565b9350604086013562001e938162001e3e565b94979396509394606081013594506080013592915050565b6000806040838503121562001ebf57600080fd5b82359150602083013562001ed38162001e3e565b809150509250929050565b60006020828403121562001ef157600080fd5b81356200100e8162001e3e565b6000806040838503121562001f1257600080fd5b823562001f1f8162001e3e565b9150602083013562001ed38162001e3e565b634e487b7160e01b600052604160045260246000fd5b6000806040838503121562001f5b57600080fd5b823562001f688162001e3e565b9150602083013567ffffffffffffffff8082111562001f8657600080fd5b818501915085601f83011262001f9b57600080fd5b81358181111562001fb05762001fb062001f31565b604051601f8201601f19908116603f0116810190838211818310171562001fdb5762001fdb62001f31565b8160405282815288602084870101111562001ff557600080fd5b8260208601602083013760006020848301015280955050505050509250929050565b6000806000606084860312156200202d57600080fd5b833592506020840135620020418162001e3e565b929592945050506040919091013590565b600080600080600060a086880312156200206b57600080fd5b8535620020788162001e3e565b945060208601359350604086013562001e938162001e3e565b600060208284031215620020a457600080fd5b5051919050565b600080600060608486031215620020c157600080fd5b8351925060208401519150604084015190509250925092565b634e487b7160e01b600052601160045260246000fd5b600082821015620021055762002105620020da565b500390565b6000602082840312156200211d57600080fd5b815180151581146200100e57600080fd5b6020808252602c908201527f46756e6374696f6e206d7573742062652063616c6c6564207468726f7567682060408201526b19195b1959d85d1958d85b1b60a21b606082015260800190565b6020808252602c908201527f46756e6374696f6e206d7573742062652063616c6c6564207468726f7567682060408201526b6163746976652070726f787960a01b606082015260800190565b6000816000190483118215151615620021e357620021e3620020da565b500290565b6000826200220657634e487b7160e01b600052601260045260246000fd5b500490565b60005b83811015620022285781810151838201526020016200220e565b8381111562001abc5750506000910152565b7f416363657373436f6e74726f6c3a206163636f756e7420000000000000000000815260008351620022748160178501602088016200220b565b7001034b99036b4b9b9b4b733903937b6329607d1b6017918401918201528351620022a78160288401602088016200220b565b01602801949350505050565b6020815260008251806020840152620022d48160408501602087016200220b565b601f01601f19169190910160400192915050565b60008219821115620022fe57620022fe620020da565b500190565b634e487b7160e01b600052603260045260246000fd5b6000816200232b576200232b620020da565b506000190190565b60008251620023478184602087016200220b565b919091019291505056fe61014060405261c350600a55612710600b553480156200001e57600080fd5b5060405162003bec38038062003bec83398101604081905262000041916200045e565b60408051808201909152601181527013595b185b990c8c150c4c4d4d541bdbdb607a1b60208201528190620000778487620000e9565b81516200008c9060039060208501906200039f565b508051620000a29060049060208401906200039f565b5050506001600160a01b0390811660805285811660a052841660c05260e0839052620000cd62000346565b6001600160a01b0316610100525061012052506200074a915050565b6060826000620000fc60206002620004dd565b60ff166001600160401b0381111562000119576200011962000509565b6040519080825280601f01601f19166020018201604052801562000144576020820181803683370190505b5060408051808201909152601081526f181899199a1a9b1b9c1cb0b131b232b360811b602082015290915060005b60208110156200029e578182518583602081106200019457620001946200051f565b620001a29291901a6200054b565b81518110620001b557620001b56200051f565b01602001516001600160f81b03191683620001d283600262000562565b81518110620001e557620001e56200051f565b60200101906001600160f81b031916908160001a9053508182518583602081106200021457620002146200051f565b620002229291901a62000584565b815181106200023557620002356200051f565b01602001516001600160f81b031916836200025283600262000562565b6200025f9060016200059b565b815181106200027257620002726200051f565b60200101906001600160f81b031916908160001a905350806200029581620005b6565b91505062000172565b5081856001600160a01b03166306fdde036040518163ffffffff1660e01b815260040160006040518083038186803b158015620002da57600080fd5b505afa158015620002ef573d6000803e3d6000fd5b505050506040513d6000823e601f3d908101601f1916820160405262000319919081019062000607565b6040516020016200032c929190620006bf565b604051602081830303815290604052935050505092915050565b60006200035d6200036260201b620015311760201c565b905090565b6080516000906001600160a01b031633141562000386575060131936013560601c90565b6200035d6200039b60201b620015761760201c565b3390565b828054620003ad906200070d565b90600052602060002090601f016020900481019282620003d157600085556200041c565b82601f10620003ec57805160ff19168380011785556200041c565b828001600101855582156200041c579182015b828111156200041c578251825591602001919060010190620003ff565b506200042a9291506200042e565b5090565b5b808211156200042a57600081556001016200042f565b6001600160a01b03811681146200045b57600080fd5b50565b600080600080600060a086880312156200047757600080fd5b8551620004848162000445565b6020870151909550620004978162000445565b8094505060408601519250606086015191506080860151620004b98162000445565b809150509295509295909350565b634e487b7160e01b600052601160045260246000fd5b600060ff821660ff84168160ff0481118215151615620005015762000501620004c7565b029392505050565b634e487b7160e01b600052604160045260246000fd5b634e487b7160e01b600052603260045260246000fd5b634e487b7160e01b600052601260045260246000fd5b6000826200055d576200055d62000535565b500490565b60008160001904831182151516156200057f576200057f620004c7565b500290565b60008262000596576200059662000535565b500690565b60008219821115620005b157620005b1620004c7565b500190565b6000600019821415620005cd57620005cd620004c7565b5060010190565b60005b83811015620005f1578181015183820152602001620005d7565b8381111562000601576000848401525b50505050565b6000602082840312156200061a57600080fd5b81516001600160401b03808211156200063257600080fd5b818401915084601f8301126200064757600080fd5b8151818111156200065c576200065c62000509565b604051601f8201601f19908116603f0116810190838211818310171562000687576200068762000509565b81604052828152876020848701011115620006a157600080fd5b620006b4836020830160208801620005d4565b979650505050505050565b61060f60f31b815260008351620006de816002850160208801620005d4565b602d60f81b600291840191820152835162000701816003840160208801620005d4565b01600301949350505050565b600181811c908216806200072257607f821691505b602082108114156200074457634e487b7160e01b600052602260045260246000fd5b50919050565b60805160a05160c05160e05161010051610120516133db62000811600039600061056301526000818161053c01528181610c05015261131b0152600081816102e7015281816109bd01528181610eec0152611a9e01526000818161031601528181611143015281816119cf01528181611d5301528181611f5c015281816120f1015281816121f10152818161245301526125360152600081816104700152818161098c01528181610f2b0152611a6d0152600081816103bc015261153501526133db6000f3fe608060405234801561001057600080fd5b50600436106102485760003560e01c8063947236d51161013b578063c45a0155116100b8578063d79875eb1161007c578063d79875eb146105b4578063dd62ed3e146105c7578063e1b3f73a146105da578063f23a6e61146105ed578063f7083a761461060057600080fd5b8063c45a015514610537578063c5ce39111461055e578063c96b8bcc14610585578063cbfcd6051461058e578063d78276c6146105a157600080fd5b8063a4b59c25116100ff578063a4b59c25146104c9578063a9059cbb146104d2578063abfe8770146104e5578063ba730e53146104f8578063bc197c811461050b57600080fd5b8063947236d51461046b57806395d89b4114610492578063a01f79d41461049a578063a457c2d7146104a3578063a4a2a9f6146104b657600080fd5b806338ce4743116101c95780635ca2e0ae1161018d5780635ca2e0ae146103ec5780636014876d146103f4578063693eb135146104075780636d727d571461041a57806370a082311461044257600080fd5b806338ce474314610372578063395093511461037b57806340993b261461038e578063480b497f146103a3578063572b6c05146103ac57600080fd5b806317d70f7c1161021057806317d70f7c146102e257806318160ddd146103095780631dcea4271461031157806323b872dd14610350578063313ce5671461036357600080fd5b806301ffc9a71461024d57806306fdde031461027557806308d4db141461028a578063095ea7b3146102b857806312f40715146102cb575b600080fd5b61026061025b366004612a60565b610613565b60405190151581526020015b60405180910390f35b61027d61064a565b60405161026c9190612a8a565b61029d610298366004612adf565b6106dc565b6040805193845260208401929092529082015260600161026c565b6102606102c6366004612b14565b610795565b6102d460085481565b60405190815260200161026c565b6102d47f000000000000000000000000000000000000000000000000000000000000000081565b6002546102d4565b6103387f000000000000000000000000000000000000000000000000000000000000000081565b6040516001600160a01b03909116815260200161026c565b61026061035e366004612b3e565b6107b7565b6040516012815260200161026c565b6102d4600b5481565b610260610389366004612b14565b6107e5565b6103a161039c366004612b7a565b610811565b005b6102d460075481565b6102606103ba366004612ba6565b7f00000000000000000000000000000000000000000000000000000000000000006001600160a01b0390811691161490565b6102d46108d4565b6103a1610402366004612bd2565b6108e4565b6103a1610415366004612adf565b610b01565b61042d610428366004612ba6565b610b1b565b6040805192835260208301919091520161026c565b6102d4610450366004612ba6565b6001600160a01b031660009081526020819052604090205490565b6103387f000000000000000000000000000000000000000000000000000000000000000081565b61027d610b6e565b6102d4600a5481565b6102606104b1366004612b14565b610b7d565b6103a16104c4366004612c0b565b610c03565b6102d460095481565b6102606104e0366004612b14565b610c79565b61042d6104f3366004612adf565b610c91565b61029d610506366004612adf565b610d30565b61051e610519366004612d31565b610dda565b6040516001600160e01b0319909116815260200161026c565b6103387f000000000000000000000000000000000000000000000000000000000000000081565b6102d47f000000000000000000000000000000000000000000000000000000000000000081565b6102d460055481565b6103a161059c366004612adf565b611097565b6103a16105af366004612adf565b6110ad565b6103a16105c2366004612de1565b6112d2565b6102d46105d5366004612e03565b6112ee565b6103a16105e8366004612e36565b611319565b61051e6105fb366004612e78565b61137d565b61029d61060e366004612ede565b6114b6565b60006001600160e01b03198216630271189760e51b148061064457506301ffc9a760e01b6001600160e01b03198316145b92915050565b60606003805461065990612f15565b80601f016020809104026020016040519081016040528092919081815260200182805461068590612f15565b80156106d25780601f106106a7576101008083540402835291602001916106d2565b820191906000526020600020905b8154815290600101906020018083116106b557829003601f168201915b5050505050905090565b60008080836106f35750600091508190508061078e565b60006106fe8561157a565b9050621e8480600a54826107129190612f66565b61071c9190612f9b565b9250600061072a8483612faf565b905060008160075461073c9190612f66565b905060008260095461074e9190612fc7565b9050600061075c8284612f9b565b9050621e8480600a54826107709190612f66565b61077a9190612f9b565b95506107868682612faf565b975050505050505b9193909250565b6000806107a061158a565b90506107ad818585611594565b5060019392505050565b6000806107c261158a565b90506107cf8582856116b8565b6107da85858561172c565b506001949350505050565b6000806107f061158a565b90506107ad81858561080285896112ee565b61080c9190612faf565b611594565b600061081b61158a565b90506000610828856106dc565b505090506127108361277461083d9190612f66565b6108479190612f9b565b8111156108c15760405162461bcd60e51b815260206004820152603a60248201527f4d656c616e642e4d61726b6574706c616365236175746f4275793a205468652060448201527f746f74616c207072696365206973206e6f7420636f727265637400000000000060648201526084015b60405180910390fd5b6108cd828387876118fa565b5050505050565b60006108df60025490565b905090565b60006108ee61158a565b90506000806108fd83856114b6565b5091509150858210156109755760405162461bcd60e51b8152602060048201526046602482015260008051602061336683398151915260448201527f7769746864726177455243313135353a20496e73756666696369656e74202062606482015265616c616e636560d01b608482015260a4016108b8565b604051637921219560e11b81526001600160a01b037f0000000000000000000000000000000000000000000000000000000000000000169063f242432a906109e790309087907f0000000000000000000000000000000000000000000000000000000000000000908c90600401612fde565b600060405180830381600087803b158015610a0157600080fd5b505af1158015610a15573d6000803e3d6000fd5b505050506000610a248761157a565b9050610a308282612faf565b9050600060085460055483610a459190612f66565b610a4f9190612f9b565b90508160086000828254610a639190612fc7565b90915550508515610a8957506001600160a01b0384166000908152600660205260409020545b610a938582611bb6565b8215610aa457610aa4858489611c99565b60408051898152600060208201819052818301849052606082015290516001600160a01b038716917f8598e6b147330d38243f9c4cd33d61e208b9015719e977086fa42a0f73b1462b919081900360800190a25050505050505050565b6000610b0b61158a565b9050610b178183611e8f565b5050565b6000806000610b3f846001600160a01b031660009081526020819052604090205490565b90506000610b4b6108d4565b600754610b589084612f66565b610b629190612f9b565b95600095509350505050565b60606004805461065990612f15565b600080610b8861158a565b90506000610b9682866112ee565b905083811015610bf65760405162461bcd60e51b815260206004820152602560248201527f45524332303a2064656372656173656420616c6c6f77616e63652062656c6f77604482015264207a65726f60d81b60648201526084016108b8565b6107da8286868403611594565b7f00000000000000000000000000000000000000000000000000000000000000006001600160a01b0316610c3561158a565b6001600160a01b031614610c5b5760405162461bcd60e51b81526004016108b890613016565b6000610c6561158a565b9050610c73848285856121ef565b50505050565b600080610c8461158a565b90506107ad81858561172c565b60008060006008546009541015610cb557600954600854610cb29190612fc7565b90505b60095460009015610cdd57600954600754610cd09084612f66565b610cda9190612f9b565b90505b600085821015610d14576000610cf38388612fc7565b905060075460095482610d069190612f66565b610d109190612f9b565b9150505b6000610d2182600161261d565b50929792965091945050505050565b6000808083610d475750600091508190508061078e565b621e8480600a5485610d599190612f66565b610d639190612f9b565b91506000610d718386612fc7565b9050600081600754610d839190612f66565b9050600082600954610d959190612faf565b90506000610da38284612f9b565b9050621e8480600a5482610db79190612f66565b610dc19190612f9b565b9450610dcd8582612fc7565b9650505050509193909250565b600080610dea6004828587613073565b610df39161309d565b90506001600160e01b03198116630a72b7c560e21b1480610e2457506001600160e01b0319811663e5d5876d60e01b145b610eaa5760405162461bcd60e51b8152602060048201526058602482015260008051602061338683398151915260448201527f31313535236f6e4552433131353542617463685265636569766564353a20496e60648201527f76616c69642066756e6374696f6e207369676e61747572650000000000000000608482015260a4016108b8565b8551600114610ecb5760405162461bcd60e51b81526004016108b8906130cd565b600086600081518110610ee057610ee061312f565b602002602001015190507f00000000000000000000000000000000000000000000000000000000000000008114610f295760405162461bcd60e51b81526004016108b8906130cd565b7f00000000000000000000000000000000000000000000000000000000000000006001600160a01b0316610f5b61158a565b6001600160a01b031614610fda5760405162461bcd60e51b815260206004820152604c602482015260008051602061338683398151915260448201527f31313535236f6e4552433131353542617463685265636569766564353a20496e60648201526b3b30b634b21039b2b73232b960a11b608482015260a4016108b8565b6001600160e01b03198216630a72b7c560e21b141561101c57611017888760008151811061100a5761100a61312f565b6020026020010151612673565b611082565b6001600160e01b0319821663e5d5876d60e01b14156110825760006110448560048189613073565b8101906110519190612adf565b90506110808961107a8960008151811061106d5761106d61312f565b602002602001015161157a565b83611c99565b505b5063bc197c8160e01b98975050505050505050565b60006110a161158a565b9050610b178183612673565b60006110b761158a565b90506000806110c583610b1b565b91509150838210156111395760405162461bcd60e51b8152602060048201526043602482015260008051602061336683398151915260448201527f776974686472617745524332303a20496e73756666696369656e742062616c616064820152626e636560e81b608482015260a4016108b8565b6001600160a01b037f00000000000000000000000000000000000000000000000000000000000000001663a9059cbb846111738488612faf565b6040516001600160e01b031960e085901b1681526001600160a01b0390921660048301526024820152604401602060405180830381600087803b1580156111b957600080fd5b505af11580156111cd573d6000803e3d6000fd5b505050506040513d601f19601f820116820180604052508101906111f19190613145565b506111fb84612736565b600061121a6112086108d4565b6112129087612f66565b600754612758565b9050846007600082825461122e9190612fc7565b90915550506001600160a01b03841660009081526020819052604090205481111561126e57506001600160a01b0383166000908152602081905260409020545b611278848261278e565b60408051600080825260208201889052818301526060810183905290516001600160a01b038616917f8598e6b147330d38243f9c4cd33d61e208b9015719e977086fa42a0f73b1462b919081900360800190a25050505050565b60006112dc61158a565b90506112e9818484611c99565b505050565b6001600160a01b03918216600090815260016020908152604080832093909416825291909152205490565b7f00000000000000000000000000000000000000000000000000000000000000006001600160a01b031661134b61158a565b6001600160a01b0316146113715760405162461bcd60e51b81526004016108b890613016565b610c73848484846118fa565b60408051600180825281830190925260009182919060208083019080368337505060408051600180825281830190925292935060009291506020808301908036833701905050905086826000815181106113d9576113d961312f565b60200260200101818152505085816000815181106113f9576113f961312f565b602002602001018181525050611413898984848989610dda565b6001600160e01b03191663bc197c8160e01b146114a15760405162461bcd60e51b8152602060048201526052602482015260008051602061338683398151915260448201527f31313535236f6e4552433131353552656365697665643a20494e56414c49445f6064820152714f4e52454345495645445f4d45535341474560701b608482015260a4016108b8565b5063f23a6e6160e01b98975050505050505050565b6001600160a01b0382166000908152600660205260408120546005546008548392839290918391906114e89084612f66565b6114f29190612f9b565b9050600061150182600061261d565b90965090508615611527576115168183612fc7565b945061152185610d30565b50909450505b5050509250925092565b60007f00000000000000000000000000000000000000000000000000000000000000006001600160a01b0316331415611571575060131936013560601c90565b503390565b3390565b6000600b54826106449190612f66565b60006108df611531565b6001600160a01b0383166115f65760405162461bcd60e51b8152602060048201526024808201527f45524332303a20617070726f76652066726f6d20746865207a65726f206164646044820152637265737360e01b60648201526084016108b8565b6001600160a01b0382166116575760405162461bcd60e51b815260206004820152602260248201527f45524332303a20617070726f766520746f20746865207a65726f206164647265604482015261737360f01b60648201526084016108b8565b6001600160a01b0383811660008181526001602090815260408083209487168084529482529182902085905590518481527f8c5be1e5ebec7d5bd14f71427d1e84f3dd0314c0f7b2291e5b200ac8c7c3b925910160405180910390a3505050565b60006116c484846112ee565b90506000198114610c73578181101561171f5760405162461bcd60e51b815260206004820152601d60248201527f45524332303a20696e73756666696369656e7420616c6c6f77616e636500000060448201526064016108b8565b610c738484848403611594565b6001600160a01b0383166117905760405162461bcd60e51b815260206004820152602560248201527f45524332303a207472616e736665722066726f6d20746865207a65726f206164604482015264647265737360d81b60648201526084016108b8565b6001600160a01b0382166117f25760405162461bcd60e51b815260206004820152602360248201527f45524332303a207472616e7366657220746f20746865207a65726f206164647260448201526265737360e81b60648201526084016108b8565b6001600160a01b0383166000908152602081905260409020548181101561186a5760405162461bcd60e51b815260206004820152602660248201527f45524332303a207472616e7366657220616d6f756e7420657863656564732062604482015265616c616e636560d01b60648201526084016108b8565b6001600160a01b038085166000908152602081905260408082208585039055918516815290812080548492906118a1908490612faf565b92505081905550826001600160a01b0316846001600160a01b03167fddf252ad1be2c89b69c2b068fc378daa952ba7f163c4a11628f55a4df523b3ef846040516118ed91815260200190565b60405180910390a3610c73565b60006119058361157a565b905080600954101561196d5760405162461bcd60e51b815260206004820152603a602482015260008051602061336683398151915260448201527f5f6275793a20496e73756666696369656e742062616c616e636500000000000060648201526084016108b8565b600080600061197b866106dc565b92509250925060008061198d836128dc565b9150915060008061199d866128dc565b6040516323b872dd60e01b81526001600160a01b038e81166004830152306024830152604482018b90529294509092507f0000000000000000000000000000000000000000000000000000000000000000909116906323b872dd90606401602060405180830381600087803b158015611a1557600080fd5b505af1158015611a29573d6000803e3d6000fd5b505050506040513d601f19601f82011682018060405250810190611a4d9190613145565b50611a588388612fc7565b600754611a659190612faf565b6007819055507f00000000000000000000000000000000000000000000000000000000000000006001600160a01b031663f242432a308e7f00000000000000000000000000000000000000000000000000000000000000008e6040518563ffffffff1660e01b8152600401611add9493929190612fde565b600060405180830381600087803b158015611af757600080fd5b505af1158015611b0b573d6000803e3d6000fd5b505050508088611b1b9190612faf565b600854611b289190612fc7565b600855611b358689612faf565b600954611b429190612fc7565b600955611b4e84612909565b604080518981526020810189905290810185905260608101839052608081018a90526001600160a01b038d16907f178f20a8980b4e6cdc2c84f3ef670f5047f63638f90a8acc6b724b43f1da778d9060a00160405180910390a2505050505050505050505050565b6001600160a01b038216600090815260066020526040902054811115611c445760405162461bcd60e51b815260206004820152603e60248201527f4d656c616e645377617045786368616e6765506f6f6c32305431313535235f6260448201527f75726e455243313135354c503a205065726d697373696f6e206572726f72000060648201526084016108b8565b80600554611c529190612fc7565b6005556001600160a01b038216600090815260066020526040902054611c79908290612fc7565b6001600160a01b0390921660009081526006602052604090209190915550565b6000806000611ca785610d30565b9250925092508260075411611d0b5760405162461bcd60e51b8152602060048201526036602482015260008051602061336683398151915260448201527517dcd95b1b0e881b9bdd081a5b9a5d1a585b1a5e995960521b60648201526084016108b8565b600080611d17836128dc565b91509150600080611d27866128dc565b60405163a9059cbb60e01b81526001600160a01b038d81166004830152602482018b90529294509092507f00000000000000000000000000000000000000000000000000000000000000009091169063a9059cbb90604401602060405180830381600087803b158015611d9957600080fd5b505af1158015611dad573d6000803e3d6000fd5b505050506040513d601f19601f82011682018060405250810190611dd19190613145565b50611ddc8388612faf565b600754611de99190612fc7565b600755611df6818a612fc7565b600854611e039190612faf565b600855611e10868a612fc7565b600954611e1d9190612faf565b600955611e2984612909565b604080518a81526020810189905290810185905260608101839052608081018990526001600160a01b038b16907f20a7fc03b19d7f251cc907f177ff82194c6aebe9a2b47e1cd734dcb6bf772cc29060a00160405180910390a250505050505050505050565b6000611e9b6000610c91565b5090506000611ea86108d4565b11611ec55760405162461bcd60e51b81526004016108b890613162565b80821115611f355760405162461bcd60e51b8152602060048201526043602482015260008051602061336683398151915260448201527f61646445524332304c69717569646974793a206e6f7420656e6f75676820737060648201526261636560e81b608482015260a4016108b8565b604051636eb1769f60e11b81526001600160a01b03848116600483015230602483015283917f00000000000000000000000000000000000000000000000000000000000000009091169063dd62ed3e9060440160206040518083038186803b158015611fa057600080fd5b505afa158015611fb4573d6000803e3d6000fd5b505050506040513d601f19601f82011682018060405250810190611fd891906131b8565b1015611ff65760405162461bcd60e51b81526004016108b8906131d1565b611fff82612909565b60095460085410156120a15760405162461bcd60e51b815260206004820152606b602482015260008051602061336683398151915260448201527f61646445524332304c69717569646974793a206572633131353552657365727660648201527f65416374697661746564206d757374206265206c657373207468616e2065726360848201526a313135355265736572766560a81b60a482015260c4016108b8565b60006007546120ae6108d4565b6120b89085612f66565b6120c29190612f9b565b6040516323b872dd60e01b81526001600160a01b038681166004830152306024830152604482018690529192507f0000000000000000000000000000000000000000000000000000000000000000909116906323b872dd90606401602060405180830381600087803b15801561213757600080fd5b505af115801561214b573d6000803e3d6000fd5b505050506040513d601f19601f8201168201806040525081019061216f9190613145565b5082600760008282546121829190612faf565b9091555061219290508482612924565b6040805160008082526020820186905291810191909152606081018290526001600160a01b038516907f08d7621a09a86934f387f650007fa17f2413759ca5f2ae0681161b371583a5f5906080015b60405180910390a250505050565b7f00000000000000000000000000000000000000000000000000000000000000006001600160a01b031663313ce5676040518163ffffffff1660e01b815260040160206040518083038186803b15801561224857600080fd5b505afa15801561225c573d6000803e3d6000fd5b505050506040513d601f19601f82011682018060405250810190612280919061323b565b61228b90600a613342565b612296906064612f66565b8210156123265760405162461bcd60e51b815260206004820152605260248201527f4d656c616e645377617045786368616e6765506f6f6c3230543131353523696e60448201527f69744c69717569646974793a206572633230416d6f756e74206d75737420626560648201527102067726561746572207468616e20313030360741b608482015260a4016108b8565b600081116123b85760405162461bcd60e51b815260206004820152605360248201527f4d656c616e642e537761702e45786368616e6765506f6f6c323054313135352e60448201527f696e69744c69717569646974793a2065726331313535416d6f756e74206d75736064820152720742062652067726561746572207468616e203606c1b608482015260a4016108b8565b6123c06108d4565b1561242c5760405162461bcd60e51b8152602060048201526042602482015260008051602061336683398151915260448201527f696e69744c69717569646974793a20616c726561647920696e697469616c697a606482015261195960f21b608482015260a4016108b8565b604051636eb1769f60e11b81526001600160a01b03848116600483015230602483015283917f00000000000000000000000000000000000000000000000000000000000000009091169063dd62ed3e9060440160206040518083038186803b15801561249757600080fd5b505afa1580156124ab573d6000803e3d6000fd5b505050506040513d601f19601f820116820180604052508101906124cf91906131b8565b10156124ed5760405162461bcd60e51b81526004016108b8906131d1565b6124f68161157a565b6008556125028161157a565b60095560078290556040516323b872dd60e01b81526001600160a01b038481166004830152306024830152604482018490527f000000000000000000000000000000000000000000000000000000000000000016906323b872dd90606401602060405180830381600087803b15801561257a57600080fd5b505af115801561258e573d6000803e3d6000fd5b505050506040513d601f19601f820116820180604052508101906125b29190613145565b506125bd8483612924565b6125c98460085461292e565b600854604080518381526020810185905290810191909152606081018390526001600160a01b038516907f08d7621a09a86934f387f650007fa17f2413759ca5f2ae0681161b371583a5f5906080016121e1565b6000806000600b54856126309190612f9b565b905083801561264957506000612647606487613351565b115b1561265c57612659816001612faf565b90505b806126668261157a565b92509250505b9250929050565b6000600554116126955760405162461bcd60e51b81526004016108b890613162565b60006126a08261157a565b90506000600854600554836126b59190612f66565b6126bf9190612f9b565b905081600860008282546126d39190612faf565b909155506126e39050848261292e565b6040805184815260006020820181905291810183905260608101919091526001600160a01b038516907f08d7621a09a86934f387f650007fa17f2413759ca5f2ae0681161b371583a5f5906080016121e1565b600061274182612963565b9050806009546127519190612fc7565b6009555050565b6000806127658385612f9b565b905060006127738486613351565b111561278757612784816001612faf565b90505b9392505050565b6001600160a01b0382166127ee5760405162461bcd60e51b815260206004820152602160248201527f45524332303a206275726e2066726f6d20746865207a65726f206164647265736044820152607360f81b60648201526084016108b8565b6001600160a01b038216600090815260208190526040902054818110156128625760405162461bcd60e51b815260206004820152602260248201527f45524332303a206275726e20616d6f756e7420657863656564732062616c616e604482015261636560f01b60648201526084016108b8565b6001600160a01b0383166000908152602081905260408120838303905560028054849290612891908490612fc7565b90915550506040518281526000906001600160a01b038516907fddf252ad1be2c89b69c2b068fc378daa952ba7f163c4a11628f55a4df523b3ef9060200160405180910390a3505050565b60008060646128ec846050612f66565b6128f69190612f9b565b91506129028284612fc7565b9050915091565b600061291482612963565b9050806009546127519190612faf565b610b178282612981565b8060055461293c9190612faf565b6005556001600160a01b038216600090815260066020526040902054611c79908290612faf565b600080600754600954846129779190612f66565b6127879190612f9b565b6001600160a01b0382166129d75760405162461bcd60e51b815260206004820152601f60248201527f45524332303a206d696e7420746f20746865207a65726f20616464726573730060448201526064016108b8565b80600260008282546129e99190612faf565b90915550506001600160a01b03821660009081526020819052604081208054839290612a16908490612faf565b90915550506040518181526001600160a01b038316906000907fddf252ad1be2c89b69c2b068fc378daa952ba7f163c4a11628f55a4df523b3ef9060200160405180910390a35050565b600060208284031215612a7257600080fd5b81356001600160e01b03198116811461278757600080fd5b600060208083528351808285015260005b81811015612ab757858101830151858201604001528201612a9b565b81811115612ac9576000604083870101525b50601f01601f1916929092016040019392505050565b600060208284031215612af157600080fd5b5035919050565b80356001600160a01b0381168114612b0f57600080fd5b919050565b60008060408385031215612b2757600080fd5b612b3083612af8565b946020939093013593505050565b600080600060608486031215612b5357600080fd5b612b5c84612af8565b9250612b6a60208501612af8565b9150604084013590509250925092565b600080600060608486031215612b8f57600080fd5b505081359360208301359350604090920135919050565b600060208284031215612bb857600080fd5b61278782612af8565b8015158114612bcf57600080fd5b50565b600080600060608486031215612be757600080fd5b83359250602084013591506040840135612c0081612bc1565b809150509250925092565b600080600060608486031215612c2057600080fd5b612c2984612af8565b95602085013595506040909401359392505050565b634e487b7160e01b600052604160045260246000fd5b600082601f830112612c6557600080fd5b8135602067ffffffffffffffff80831115612c8257612c82612c3e565b8260051b604051601f19603f83011681018181108482111715612ca757612ca7612c3e565b604052938452858101830193838101925087851115612cc557600080fd5b83870191505b84821015612ce457813583529183019190830190612ccb565b979650505050505050565b60008083601f840112612d0157600080fd5b50813567ffffffffffffffff811115612d1957600080fd5b60208301915083602082850101111561266c57600080fd5b60008060008060008060a08789031215612d4a57600080fd5b612d5387612af8565b9550612d6160208801612af8565b9450604087013567ffffffffffffffff80821115612d7e57600080fd5b612d8a8a838b01612c54565b95506060890135915080821115612da057600080fd5b612dac8a838b01612c54565b94506080890135915080821115612dc257600080fd5b50612dcf89828a01612cef565b979a9699509497509295939492505050565b60008060408385031215612df457600080fd5b50508035926020909101359150565b60008060408385031215612e1657600080fd5b612e1f83612af8565b9150612e2d60208401612af8565b90509250929050565b60008060008060808587031215612e4c57600080fd5b612e5585612af8565b9350612e6360208601612af8565b93969395505050506040820135916060013590565b60008060008060008060a08789031215612e9157600080fd5b612e9a87612af8565b9550612ea860208801612af8565b94506040870135935060608701359250608087013567ffffffffffffffff811115612ed257600080fd5b612dcf89828a01612cef565b60008060408385031215612ef157600080fd5b612efa83612af8565b91506020830135612f0a81612bc1565b809150509250929050565b600181811c90821680612f2957607f821691505b60208210811415612f4a57634e487b7160e01b600052602260045260246000fd5b50919050565b634e487b7160e01b600052601160045260246000fd5b6000816000190483118215151615612f8057612f80612f50565b500290565b634e487b7160e01b600052601260045260246000fd5b600082612faa57612faa612f85565b500490565b60008219821115612fc257612fc2612f50565b500190565b600082821015612fd957612fd9612f50565b500390565b6001600160a01b0394851681529290931660208301526040820152606081019190915260a06080820181905260009082015260c00190565b6020808252603b908201527f4d656c616e645377617045786368616e6765506f6f6c32305431313535236f6e60408201527f6c79466163746f72793a205065726d697373696f6e206572726f720000000000606082015260800190565b6000808585111561308357600080fd5b8386111561309057600080fd5b5050820193919092039150565b6001600160e01b031981358181169160048510156130c55780818660040360031b1b83161692505b505092915050565b6020808252604e9082015260008051602061338683398151915260408201527f31313535236f6e4552433131353542617463685265636569766564353a20496e60608201526d1d985b1a59081d1bdad95b88125160921b608082015260a00190565b634e487b7160e01b600052603260045260246000fd5b60006020828403121561315757600080fd5b815161278781612bc1565b602080825260429082015260008051602061336683398151915260408201527f61646445524332304c69717569646974793a206e6f7420696e697469616c697a606082015261195960f21b608082015260a00190565b6000602082840312156131ca57600080fd5b5051919050565b602080825260569082015260008051602061336683398151915260408201527f696e69744c69717569646974793a2070726f766964657220646f6573206e6f74606082015275206861766520656e6f75676820616c6c6f77616e636560501b608082015260a00190565b60006020828403121561324d57600080fd5b815160ff8116811461278757600080fd5b600181815b8085111561329957816000190482111561327f5761327f612f50565b8085161561328c57918102915b93841c9390800290613263565b509250929050565b6000826132b057506001610644565b816132bd57506000610644565b81600181146132d357600281146132dd576132f9565b6001915050610644565b60ff8411156132ee576132ee612f50565b50506001821b610644565b5060208310610133831016604e8410600b841016171561331c575081810a610644565b613326838361325e565b806000190482111561333a5761333a612f50565b029392505050565b600061278760ff8416836132a1565b60008261336057613360612f85565b50069056fe4d656c616e642e537761702e45786368616e6765506f6f6c32305431313535234d656c616e642e4d656c616e645377617045786368616e6765506f6f6c323054a2646970667358221220a1e6272464d09bc2a2111e42ac0ed901b4e9a03f9ddc7019dd3dd129266485cc64736f6c63430008090033360894a13ba1a3210667c828492db98dca3e2076cc3735a920a3ca505d382bbc416464726573733a206c6f772d6c6576656c2064656c65676174652063616c6c206661696c6564a2646970667358221220e5f9afec8f6ce59ec690d19dd68df1e6e7c781e87eaf3140b061876b602fc55664736f6c63430008090033",
  "immutableReferences": {
    "566": [
      {
        "length": 32,
        "start": 896
      },
      {
        "length": 32,
        "start": 6576
      }
    ],
    "1390": [
      {
        "length": 32,
        "start": 2480
      },
      {
        "length": 32,
        "start": 2547
      },
      {
        "length": 32,
        "start": 3512
      },
      {
        "length": 32,
        "start": 3579
      },
      {
        "length": 32,
        "start": 3731
      }
    ],
    "13583": [
      {
        "length": 32,
        "start": 6192
      }
    ]
  },
  "source": "// SPDX-License-Identifier: MIT\npragma solidity 0.8.9;\n\nimport \"@openzeppelin/contracts-upgradeable/proxy/utils/UUPSUpgradeable.sol\";\nimport \"@openzeppelin/contracts-upgradeable/metatx/ERC2771ContextUpgradeable.sol\";\nimport \"@openzeppelin/contracts/token/ERC1155/IERC1155.sol\";\nimport \"@openzeppelin/contracts/token/ERC20/extensions/IERC20Metadata.sol\";\nimport \"./MelandSwapExchangePool20T1155.sol\";\nimport \"../common/MelandAccessRoles.sol\";\nimport \"../nft/IProductManager.sol\";\nimport \"./IMelandSwapFactory.sol\";\n\ncontract MelandSwapFactory is\n    MelandAccessRoles,\n    UUPSUpgradeable,\n    IMelandSwapFactory,\n    ERC2771ContextUpgradeable\n{\n    /// @custom:oz-upgrades-unsafe-allow state-variable-immutable\n    address private immutable xtrustedForwarder;\n\n    IProductManager public productManager;\n\n    mapping(bytes32 => mapping(address => address)) private _poolByProductIdAndTKNAddress;\n    mapping(address => bool) private _isPool;\n\n    uint256 internal tokenBanlance;\n\n    /// @custom:oz-upgrades-unsafe-allow constructor\n    constructor(address trustedForwarder)\n        ERC2771ContextUpgradeable(trustedForwarder)\n    {\n        xtrustedForwarder = trustedForwarder;\n    }\n\n    function initialize(address mpc, IProductManager _pm) public initializer {\n        __UUPSUpgradeable_init();\n        __MelandAccessRoles_init(mpc);\n        productManager = _pm;\n    }\n\n    function isPool(address mabyePool) external view returns(bool) {\n        return _isPool[mabyePool];\n    }\n\n    function createPoolByCommunity(\n        IERC1155 erc1155,\n        uint256 tokenId,\n        IERC20Metadata erc20,\n        uint256 erc20Amount,\n        uint256 erc1155Amount\n    ) external onlyRole(GM_ROLE) {\n        address creator = _msgSender();\n        MelandSwapExchangePool20T1155 pool = _createPool(erc1155, tokenId, erc20);\n        erc20.approve(address(pool), erc20Amount);\n        erc20.transferFrom(creator, address(this), erc20Amount);\n        pool.init(creator, erc20Amount, erc1155Amount);\n    }\n\n    function _createPool(\n        IERC1155 erc1155,\n        uint256 tokenId,\n        IERC20Metadata erc20\n    ) internal returns(MelandSwapExchangePool20T1155) {\n        bytes32 productId = productManager.getProductId(address(erc1155), tokenId);\n        require(_poolByProductIdAndTKNAddress[productId][address(erc20)] == address(0), \"MelandSwapFactory#_createPool: Duplicate creation\");\n        MelandSwapExchangePool20T1155 pool = new MelandSwapExchangePool20T1155(\n            erc1155,\n            erc20,\n            tokenId,\n            productId,\n            xtrustedForwarder\n        );\n        _poolByProductIdAndTKNAddress[productId][address(erc20)] = address(pool);\n        _isPool[address(pool)] = true;\n        emit CreatePool(\n            address(pool),\n            address(erc20),\n            productId\n        );\n        return pool;\n    }\n\n    function getStock(bytes32 productId, IERC20Metadata erc20token) external view returns(uint256) {\n        address pooladdress = _poolByProductIdAndTKNAddress[productId][address(erc20token)];\n        if (pooladdress == address(0)) {\n            return 0;\n        }\n        MelandSwapExchangePool20T1155 pool = MelandSwapExchangePool20T1155(pooladdress);\n        return pool.erc1155FragmentReservesActivated() / (pool.nftfragments() * 1025 / 1000);\n    }\n\n    function getBuyPrice(bytes32 productId, IERC20Metadata erc20token, uint256 buyamount) external view returns(uint256) {\n        if (buyamount == 0) {\n            return 0;\n        }\n        address pooladdress = _poolByProductIdAndTKNAddress[productId][address(erc20token)];\n        if (pooladdress == address(0)) {\n            return 0;\n        }\n        MelandSwapExchangePool20T1155 pool = MelandSwapExchangePool20T1155(pooladdress);\n        (uint256 fromUserPrice,,) = pool.getBuyPrice(buyamount);\n        return fromUserPrice;\n    }\n\n    function beginBuy(bytes32, IERC20Metadata erc20token) external {\n        tokenBanlance = erc20token.balanceOf(address(this));\n    }\n\n    function buy(bytes32 productId, IERC20Metadata erc20token, address buyer, uint256 buyamount, uint256 tknRate) external {\n        require(buyamount > 0, \"MelandSwapFactory#buy: buyamount less 1\");\n        uint256 newTokenBanlance = erc20token.balanceOf(address(this));\n        address pooladdress = _poolByProductIdAndTKNAddress[productId][address(erc20token)];\n        require(pooladdress != address(0), \"MelandSwapFactory#buy: pool not exists\");\n        MelandSwapExchangePool20T1155 pool = MelandSwapExchangePool20T1155(pooladdress);\n        (uint256 fromUserPrice,,) = pool.getBuyPrice(buyamount);\n        uint256 diff = newTokenBanlance - tokenBanlance;\n        require(diff == fromUserPrice, \"MelandSwapFactory#buy: not enough token\");\n\n        erc20token.approve(pooladdress, fromUserPrice);\n\n        pool.autoBuy(buyer, address(this), buyamount, tknRate);\n    }\n\n    function _authorizeUpgrade(address newImplementation)\n        internal\n        override\n        onlyRole(UPGRADER_ROLE)\n    {\n        \n    }\n\n    function _msgData()\n        internal\n        view\n        virtual\n        override(ContextUpgradeable, ERC2771ContextUpgradeable)\n        returns (bytes calldata)\n    {\n        return ERC2771ContextUpgradeable._msgData();\n    }\n\n    function _msgSender()\n        internal\n        view\n        virtual\n        override(ContextUpgradeable, ERC2771ContextUpgradeable)\n        returns (address)\n    {\n        return ERC2771ContextUpgradeable._msgSender();\n    }\n}\n",
  "sourcePath": "/Users/alberthuang/code/contracts-v2/contracts/swap/MelandSwapFactory.sol",
  "compiler": {
    "name": "solc",
    "version": "0.8.9+commit.e5eed63a.Emscripten.clang"
  },
  "schemaVersion": "3.4.8",
  "updatedAt": "2022-07-13T06:09:57.552Z",
  "networkType": "ethereum",
  "devdoc": {
    "kind": "dev",
    "methods": {
      "constructor": {
        "custom:oz-upgrades-unsafe-allow": "constructor"
      },
      "getRoleAdmin(bytes32)": {
        "details": "Returns the admin role that controls `role`. See {grantRole} and {revokeRole}. To change a role's admin, use {_setRoleAdmin}."
      },
      "grantRole(bytes32,address)": {
        "details": "Grants `role` to `account`. If `account` had not been already granted `role`, emits a {RoleGranted} event. Requirements: - the caller must have ``role``'s admin role. May emit a {RoleGranted} event."
      },
      "hasRole(bytes32,address)": {
        "details": "Returns `true` if `account` has been granted `role`."
      },
      "proxiableUUID()": {
        "details": "Implementation of the ERC1822 {proxiableUUID} function. This returns the storage slot used by the implementation. It is used to validate that the this implementation remains valid after an upgrade. IMPORTANT: A proxy pointing at a proxiable contract should not be considered proxiable itself, because this risks bricking a proxy that upgrades to it, by delegating to itself until out of gas. Thus it is critical that this function revert if invoked through a proxy. This is guaranteed by the `notDelegated` modifier."
      },
      "renounceRole(bytes32,address)": {
        "details": "Revokes `role` from the calling account. Roles are often managed via {grantRole} and {revokeRole}: this function's purpose is to provide a mechanism for accounts to lose their privileges if they are compromised (such as when a trusted device is misplaced). If the calling account had been revoked `role`, emits a {RoleRevoked} event. Requirements: - the caller must be `account`. May emit a {RoleRevoked} event."
      },
      "revokeRole(bytes32,address)": {
        "details": "Revokes `role` from `account`. If `account` had been granted `role`, emits a {RoleRevoked} event. Requirements: - the caller must have ``role``'s admin role. May emit a {RoleRevoked} event."
      },
      "supportsInterface(bytes4)": {
        "details": "See {IERC165-supportsInterface}."
      },
      "upgradeTo(address)": {
        "details": "Upgrade the implementation of the proxy to `newImplementation`. Calls {_authorizeUpgrade}. Emits an {Upgraded} event."
      },
      "upgradeToAndCall(address,bytes)": {
        "details": "Upgrade the implementation of the proxy to `newImplementation`, and subsequently execute the function call encoded in `data`. Calls {_authorizeUpgrade}. Emits an {Upgraded} event."
      }
    },
    "stateVariables": {
      "xtrustedForwarder": {
        "custom:oz-upgrades-unsafe-allow": "state-variable-immutable"
      }
    },
    "version": 1
  },
  "userdoc": {
    "kind": "user",
    "methods": {},
    "version": 1
  }
}