{
  "contractName": "MelandForwarder",
  "abi": [
    {
      "anonymous": false,
      "inputs": [
        {
          "indexed": false,
          "internalType": "address",
          "name": "previousAdmin",
          "type": "address"
        },
        {
          "indexed": false,
          "internalType": "address",
          "name": "newAdmin",
          "type": "address"
        }
      ],
      "name": "AdminChanged",
      "type": "event"
    },
    {
      "anonymous": false,
      "inputs": [
        {
          "indexed": true,
          "internalType": "address",
          "name": "beacon",
          "type": "address"
        }
      ],
      "name": "BeaconUpgraded",
      "type": "event"
    },
    {
      "anonymous": false,
      "inputs": [
        {
          "indexed": true,
          "internalType": "address",
          "name": "from",
          "type": "address"
        },
        {
          "indexed": false,
          "internalType": "bool",
          "name": "success",
          "type": "bool"
        },
        {
          "indexed": false,
          "internalType": "bytes",
          "name": "returndata",
          "type": "bytes"
        }
      ],
      "name": "Executed",
      "type": "event"
    },
    {
      "anonymous": false,
      "inputs": [
        {
          "indexed": false,
          "internalType": "uint8",
          "name": "version",
          "type": "uint8"
        }
      ],
      "name": "Initialized",
      "type": "event"
    },
    {
      "anonymous": false,
      "inputs": [
        {
          "indexed": true,
          "internalType": "bytes32",
          "name": "role",
          "type": "bytes32"
        },
        {
          "indexed": true,
          "internalType": "bytes32",
          "name": "previousAdminRole",
          "type": "bytes32"
        },
        {
          "indexed": true,
          "internalType": "bytes32",
          "name": "newAdminRole",
          "type": "bytes32"
        }
      ],
      "name": "RoleAdminChanged",
      "type": "event"
    },
    {
      "anonymous": false,
      "inputs": [
        {
          "indexed": true,
          "internalType": "bytes32",
          "name": "role",
          "type": "bytes32"
        },
        {
          "indexed": true,
          "internalType": "address",
          "name": "account",
          "type": "address"
        },
        {
          "indexed": true,
          "internalType": "address",
          "name": "sender",
          "type": "address"
        }
      ],
      "name": "RoleGranted",
      "type": "event"
    },
    {
      "anonymous": false,
      "inputs": [
        {
          "indexed": true,
          "internalType": "bytes32",
          "name": "role",
          "type": "bytes32"
        },
        {
          "indexed": true,
          "internalType": "address",
          "name": "account",
          "type": "address"
        },
        {
          "indexed": true,
          "internalType": "address",
          "name": "sender",
          "type": "address"
        }
      ],
      "name": "RoleRevoked",
      "type": "event"
    },
    {
      "anonymous": false,
      "inputs": [
        {
          "indexed": true,
          "internalType": "address",
          "name": "implementation",
          "type": "address"
        }
      ],
      "name": "Upgraded",
      "type": "event"
    },
    {
      "inputs": [],
      "name": "DEFAULT_ADMIN_ROLE",
      "outputs": [
        {
          "internalType": "bytes32",
          "name": "",
          "type": "bytes32"
        }
      ],
      "stateMutability": "view",
      "type": "function",
      "constant": true
    },
    {
      "inputs": [],
      "name": "DOMAIN_SEPARATOR",
      "outputs": [
        {
          "internalType": "bytes32",
          "name": "",
          "type": "bytes32"
        }
      ],
      "stateMutability": "view",
      "type": "function",
      "constant": true
    },
    {
      "inputs": [],
      "name": "GM_ROLE",
      "outputs": [
        {
          "internalType": "bytes32",
          "name": "",
          "type": "bytes32"
        }
      ],
      "stateMutability": "view",
      "type": "function",
      "constant": true
    },
    {
      "inputs": [],
      "name": "MINTER_ROLE",
      "outputs": [
        {
          "internalType": "bytes32",
          "name": "",
          "type": "bytes32"
        }
      ],
      "stateMutability": "view",
      "type": "function",
      "constant": true
    },
    {
      "inputs": [],
      "name": "UPGRADER_ROLE",
      "outputs": [
        {
          "internalType": "bytes32",
          "name": "",
          "type": "bytes32"
        }
      ],
      "stateMutability": "view",
      "type": "function",
      "constant": true
    },
    {
      "inputs": [
        {
          "components": [
            {
              "internalType": "address",
              "name": "from",
              "type": "address"
            },
            {
              "internalType": "address",
              "name": "to",
              "type": "address"
            },
            {
              "internalType": "uint256",
              "name": "value",
              "type": "uint256"
            },
            {
              "internalType": "uint256",
              "name": "gas",
              "type": "uint256"
            },
            {
              "internalType": "uint256",
              "name": "nonce",
              "type": "uint256"
            },
            {
              "internalType": "bytes",
              "name": "data",
              "type": "bytes"
            }
          ],
          "internalType": "struct MinimalForwarderUpgradeable.ForwardRequest",
          "name": "req",
          "type": "tuple"
        },
        {
          "internalType": "bytes",
          "name": "signature",
          "type": "bytes"
        }
      ],
      "name": "execute",
      "outputs": [
        {
          "internalType": "bool",
          "name": "",
          "type": "bool"
        },
        {
          "internalType": "bytes",
          "name": "",
          "type": "bytes"
        }
      ],
      "stateMutability": "payable",
      "type": "function",
      "payable": true
    },
    {
      "inputs": [
        {
          "internalType": "address",
          "name": "from",
          "type": "address"
        }
      ],
      "name": "getNonce",
      "outputs": [
        {
          "internalType": "uint256",
          "name": "",
          "type": "uint256"
        }
      ],
      "stateMutability": "view",
      "type": "function",
      "constant": true
    },
    {
      "inputs": [
        {
          "internalType": "bytes32",
          "name": "role",
          "type": "bytes32"
        }
      ],
      "name": "getRoleAdmin",
      "outputs": [
        {
          "internalType": "bytes32",
          "name": "",
          "type": "bytes32"
        }
      ],
      "stateMutability": "view",
      "type": "function",
      "constant": true
    },
    {
      "inputs": [
        {
          "internalType": "bytes32",
          "name": "role",
          "type": "bytes32"
        },
        {
          "internalType": "address",
          "name": "account",
          "type": "address"
        }
      ],
      "name": "grantRole",
      "outputs": [],
      "stateMutability": "nonpayable",
      "type": "function"
    },
    {
      "inputs": [
        {
          "internalType": "bytes32",
          "name": "role",
          "type": "bytes32"
        },
        {
          "internalType": "address",
          "name": "account",
          "type": "address"
        }
      ],
      "name": "hasRole",
      "outputs": [
        {
          "internalType": "bool",
          "name": "",
          "type": "bool"
        }
      ],
      "stateMutability": "view",
      "type": "function",
      "constant": true
    },
    {
      "inputs": [],
      "name": "proxiableUUID",
      "outputs": [
        {
          "internalType": "bytes32",
          "name": "",
          "type": "bytes32"
        }
      ],
      "stateMutability": "view",
      "type": "function",
      "constant": true
    },
    {
      "inputs": [
        {
          "internalType": "bytes32",
          "name": "role",
          "type": "bytes32"
        },
        {
          "internalType": "address",
          "name": "account",
          "type": "address"
        }
      ],
      "name": "renounceRole",
      "outputs": [],
      "stateMutability": "nonpayable",
      "type": "function"
    },
    {
      "inputs": [
        {
          "internalType": "bytes32",
          "name": "role",
          "type": "bytes32"
        },
        {
          "internalType": "address",
          "name": "account",
          "type": "address"
        }
      ],
      "name": "revokeRole",
      "outputs": [],
      "stateMutability": "nonpayable",
      "type": "function"
    },
    {
      "inputs": [
        {
          "internalType": "address",
          "name": "newImplementation",
          "type": "address"
        }
      ],
      "name": "upgradeTo",
      "outputs": [],
      "stateMutability": "nonpayable",
      "type": "function"
    },
    {
      "inputs": [
        {
          "internalType": "address",
          "name": "newImplementation",
          "type": "address"
        },
        {
          "internalType": "bytes",
          "name": "data",
          "type": "bytes"
        }
      ],
      "name": "upgradeToAndCall",
      "outputs": [],
      "stateMutability": "payable",
      "type": "function",
      "payable": true
    },
    {
      "inputs": [
        {
          "components": [
            {
              "internalType": "address",
              "name": "from",
              "type": "address"
            },
            {
              "internalType": "address",
              "name": "to",
              "type": "address"
            },
            {
              "internalType": "uint256",
              "name": "value",
              "type": "uint256"
            },
            {
              "internalType": "uint256",
              "name": "gas",
              "type": "uint256"
            },
            {
              "internalType": "uint256",
              "name": "nonce",
              "type": "uint256"
            },
            {
              "internalType": "bytes",
              "name": "data",
              "type": "bytes"
            }
          ],
          "internalType": "struct MinimalForwarderUpgradeable.ForwardRequest",
          "name": "req",
          "type": "tuple"
        },
        {
          "internalType": "bytes",
          "name": "signature",
          "type": "bytes"
        }
      ],
      "name": "verify",
      "outputs": [
        {
          "internalType": "bool",
          "name": "",
          "type": "bool"
        }
      ],
      "stateMutability": "view",
      "type": "function",
      "constant": true
    },
    {
      "inputs": [
        {
          "internalType": "address",
          "name": "mpc",
          "type": "address"
        }
      ],
      "name": "initialize",
      "outputs": [],
      "stateMutability": "nonpayable",
      "type": "function"
    },
    {
      "inputs": [
        {
          "components": [
            {
              "internalType": "address",
              "name": "from",
              "type": "address"
            },
            {
              "internalType": "address",
              "name": "to",
              "type": "address"
            },
            {
              "internalType": "uint256",
              "name": "value",
              "type": "uint256"
            },
            {
              "internalType": "uint256",
              "name": "gas",
              "type": "uint256"
            },
            {
              "internalType": "uint256",
              "name": "nonce",
              "type": "uint256"
            },
            {
              "internalType": "bytes",
              "name": "data",
              "type": "bytes"
            }
          ],
          "internalType": "struct MinimalForwarderUpgradeable.ForwardRequest",
          "name": "req",
          "type": "tuple"
        },
        {
          "internalType": "bytes",
          "name": "signature",
          "type": "bytes"
        }
      ],
      "name": "melandExecute",
      "outputs": [
        {
          "internalType": "bool",
          "name": "",
          "type": "bool"
        },
        {
          "internalType": "bytes",
          "name": "",
          "type": "bytes"
        }
      ],
      "stateMutability": "payable",
      "type": "function",
      "payable": true
    },
    {
      "inputs": [
        {
          "internalType": "bool",
          "name": "success",
          "type": "bool"
        }
      ],
      "name": "setExecuted",
      "outputs": [],
      "stateMutability": "nonpayable",
      "type": "function"
    },
    {
      "inputs": [
        {
          "internalType": "bytes4",
          "name": "interfaceId",
          "type": "bytes4"
        }
      ],
      "name": "supportsInterface",
      "outputs": [
        {
          "internalType": "bool",
          "name": "",
          "type": "bool"
        }
      ],
      "stateMutability": "view",
      "type": "function",
      "constant": true
    }
  ],
  "bytecode": "0x60a06040523060805234801561001457600080fd5b5060805161201461004c600039600081816105a4015281816105e4015281816108190152818161085901526108e801526120146000f3fe60806040526004361061011f5760003560e01c80634f1ef286116100a0578063c4d66de811610064578063c4d66de81461032c578063d53913931461034c578063d547741f14610380578063f72c0d8b146103a0578063fb170fcc146103d457600080fd5b80634f1ef286146102af57806352d1902d146102c257806391d14854146102d7578063a217fddf146102f7578063bf5d3bdb1461030c57600080fd5b806330c7be2c116100e757806330c7be2c146102115780633644e5151461024557806336568abe1461025c5780633659cfe61461027c57806347153f821461029c57600080fd5b806301ffc9a7146101245780631c97b11414610159578063248a9ca31461017a5780632d0335ab146101b95780632f2ff15d146101ef575b600080fd5b34801561013057600080fd5b5061014461013f366004611a0e565b61040d565b60405190151581526020015b60405180910390f35b61016c610167366004611a38565b610453565b604051610150929190611b2f565b34801561018657600080fd5b506101ab610195366004611b52565b600090815261012f602052604090206001015490565b604051908152602001610150565b3480156101c557600080fd5b506101ab6101d4366004611b87565b6001600160a01b031660009081526035602052604090205490565b3480156101fb57600080fd5b5061020f61020a366004611ba2565b6104eb565b005b34801561021d57600080fd5b506101ab7ff5eb84615c2a00ecaf817d13794ebd6299c9e01c395bf4018453f13f577f544981565b34801561025157600080fd5b506101ab6101615481565b34801561026857600080fd5b5061020f610277366004611ba2565b610516565b34801561028857600080fd5b5061020f610297366004611b87565b610599565b61016c6102aa366004611a38565b610679565b61020f6102bd366004611be4565b61080e565b3480156102ce57600080fd5b506101ab6108db565b3480156102e357600080fd5b506101446102f2366004611ba2565b61098e565b34801561030357600080fd5b506101ab600081565b34801561031857600080fd5b50610144610327366004611a38565b6109ba565b34801561033857600080fd5b5061020f610347366004611b87565b610b3b565b34801561035857600080fd5b506101ab7f9f2df0fed2c77648de5860a4cc508cd0818c85b8b8a1ab4ceeef8d981c8956a681565b34801561038c57600080fd5b5061020f61039b366004611ba2565b610c5d565b3480156103ac57600080fd5b506101ab7f189ab7a9244df0848122154315af71fe140f3db0fe014031783b0946b8c9d2e381565b3480156103e057600080fd5b5061020f6103ef366004611ca6565b61016280549115156101000261ffff19909216919091176001179055565b60006001600160e01b0319821663da8def7360e01b148061043e57506001600160e01b03198216633ec5c3f360e21b145b8061044d575061044d82610c83565b92915050565b610162805461ffff19169055600060608180610470878787610679565b61016254919350915060ff16156104905761016254610100900460ff1691505b61049d6020880188611b87565b6001600160a01b03167f8a262fbd1cc9c2cf1380370704a48d37cf08b74d1ab0dd6d8d2fecb32c73c34983836040516104d7929190611b2f565b60405180910390a290969095509350505050565b600082815261012f602052604090206001015461050781610cb8565b6105118383610cc2565b505050565b6001600160a01b038116331461058b5760405162461bcd60e51b815260206004820152602f60248201527f416363657373436f6e74726f6c3a2063616e206f6e6c792072656e6f756e636560448201526e103937b632b9903337b91039b2b63360891b60648201526084015b60405180910390fd5b6105958282610d49565b5050565b306001600160a01b037f00000000000000000000000000000000000000000000000000000000000000001614156105e25760405162461bcd60e51b815260040161058290611cc8565b7f00000000000000000000000000000000000000000000000000000000000000006001600160a01b031661062b600080516020611f98833981519152546001600160a01b031690565b6001600160a01b0316146106515760405162461bcd60e51b815260040161058290611d14565b61065a81610db1565b6040805160008082526020820190925261067691839190610ddb565b50565b600060606106888585856109ba565b6106ef5760405162461bcd60e51b815260206004820152603260248201527f4d696e696d616c466f727761726465723a207369676e617475726520646f6573604482015271081b9bdd081b585d18da081c995c5d595cdd60721b6064820152608401610582565b6106fe60808601356001611d76565b6035600061070f6020890189611b87565b6001600160a01b03166001600160a01b03168152602001908152602001600020819055506000808660200160208101906107499190611b87565b6001600160a01b03166060880135604089013561076960a08b018b611d8e565b61077660208d018d611b87565b60405160200161078893929190611dd5565b60408051601f19818403018152908290526107a291611dfb565b600060405180830381858888f193505050503d80600081146107e0576040519150601f19603f3d011682016040523d82523d6000602084013e6107e5565b606091505b5090925090506107fa603f6060890135611e17565b5a1161080257fe5b90969095509350505050565b306001600160a01b037f00000000000000000000000000000000000000000000000000000000000000001614156108575760405162461bcd60e51b815260040161058290611cc8565b7f00000000000000000000000000000000000000000000000000000000000000006001600160a01b03166108a0600080516020611f98833981519152546001600160a01b031690565b6001600160a01b0316146108c65760405162461bcd60e51b815260040161058290611d14565b6108cf82610db1565b61059582826001610ddb565b6000306001600160a01b037f0000000000000000000000000000000000000000000000000000000000000000161461097b5760405162461bcd60e51b815260206004820152603860248201527f555550535570677261646561626c653a206d757374206e6f742062652063616c60448201527f6c6564207468726f7567682064656c656761746563616c6c00000000000000006064820152608401610582565b50600080516020611f9883398151915290565b600091825261012f602090815260408084206001600160a01b0393909316845291905290205460ff1690565b600080610acd84848080601f016020809104026020016040519081016040528093929190818152602001838380828437600092019190915250610ac792507fdd8f4b70b0f4393e889bd39128a30628a78b61816a9eb8199759e7a349657e489150610a2a905060208a018a611b87565b610a3a60408b0160208c01611b87565b60408b013560608c013560808d0135610a5660a08f018f611d8e565b604051610a64929190611e39565b6040805191829003822060208301989098526001600160a01b0396871690820152949093166060850152608084019190915260a083015260c082015260e08101919091526101000160405160208183030381529060405280519060200120610f55565b90610fa3565b9050608085013560356000610ae56020890189611b87565b6001600160a01b03166001600160a01b0316815260200190815260200160002054148015610b305750610b1b6020860186611b87565b6001600160a01b0316816001600160a01b0316145b9150505b9392505050565b600054610100900460ff1615808015610b5b5750600054600160ff909116105b80610b755750303b158015610b75575060005460ff166001145b610bd85760405162461bcd60e51b815260206004820152602e60248201527f496e697469616c697a61626c653a20636f6e747261637420697320616c72656160448201526d191e481a5b9a5d1a585b1a5e995960921b6064820152608401610582565b6000805460ff191660011790558015610bfb576000805461ff0019166101001790555b610c0482610fc7565b610c0c611129565b610c14611152565b8015610595576000805461ff0019169055604051600181527f7f26b83ff96e1f2b6a682f133852f6798a09c465da95921460cefb38474024989060200160405180910390a15050565b600082815261012f6020526040902060010154610c7981610cb8565b6105118383610d49565b60006001600160e01b03198216637965db0b60e01b148061044d57506301ffc9a760e01b6001600160e01b031983161461044d565b61067681336111c8565b610ccc828261098e565b61059557600082815261012f602090815260408083206001600160a01b03851684529091529020805460ff19166001179055610d053390565b6001600160a01b0316816001600160a01b0316837f2f8788117e7eff1d82e926ec794901d17c78024a50270940304540a733656f0d60405160405180910390a45050565b610d53828261098e565b1561059557600082815261012f602090815260408083206001600160a01b0385168085529252808320805460ff1916905551339285917ff6391f5c32d9c69d2a47ea670b442974b53935d1edc7fd64eb21e047a839171b9190a45050565b7f189ab7a9244df0848122154315af71fe140f3db0fe014031783b0946b8c9d2e361059581610cb8565b7f4910fdfa16fed3260ed0e7147f7cc6da11a60208b5b9406d12a635614ffd91435460ff1615610e0e576105118361122c565b826001600160a01b03166352d1902d6040518163ffffffff1660e01b815260040160206040518083038186803b158015610e4757600080fd5b505afa925050508015610e77575060408051601f3d908101601f19168201909252610e7491810190611e49565b60015b610eda5760405162461bcd60e51b815260206004820152602e60248201527f45524331393637557067726164653a206e657720696d706c656d656e7461746960448201526d6f6e206973206e6f74205555505360901b6064820152608401610582565b600080516020611f988339815191528114610f495760405162461bcd60e51b815260206004820152602960248201527f45524331393637557067726164653a20756e737570706f727465642070726f786044820152681a58589b195555525160ba1b6064820152608401610582565b506105118383836112c8565b600061044d610f626112f3565b8360405161190160f01b6020820152602281018390526042810182905260009060620160405160208183030381529060405280519060200120905092915050565b6000806000610fb28585611373565b91509150610fbf816113e3565b509392505050565b610fcf611129565b610fda600082610cc2565b6110047ff5eb84615c2a00ecaf817d13794ebd6299c9e01c395bf4018453f13f577f544982610cc2565b61102e7f9f2df0fed2c77648de5860a4cc508cd0818c85b8b8a1ab4ceeef8d981c8956a682610cc2565b6110587f189ab7a9244df0848122154315af71fe140f3db0fe014031783b0946b8c9d2e333610cc2565b5060408051808201825260068152651b595b185b9960d21b6020918201528151808301835260018152603160f81b9082015281517f8b73c3c69bb8fe3d512ecc4cf759cc79239f7b179b0ffacaa9a75d522b39400f818301527f314ed1331a8d68d6e7c652158abe27c46bf91bd45ef86ab66f92d6500b1056eb818401527fc89efdaa54c0f20c7adf612882df0950f5a951637e0307cdcb4c672f298b8bc660608201524660808201523060a0808301919091528351808303909101815260c0909101909252815191012061016155565b600054610100900460ff166111505760405162461bcd60e51b815260040161058290611e62565b565b600054610100900460ff166111795760405162461bcd60e51b815260040161058290611e62565b6111506040518060400160405280601081526020016f26b4b734b6b0b62337b93bb0b93232b960811b81525060405180604001604052806005815260200164302e302e3160d81b81525061159e565b6111d2828261098e565b610595576111ea816001600160a01b031660146115df565b6111f58360206115df565b604051602001611206929190611ead565b60408051601f198184030181529082905262461bcd60e51b825261058291600401611f22565b6001600160a01b0381163b6112995760405162461bcd60e51b815260206004820152602d60248201527f455243313936373a206e657720696d706c656d656e746174696f6e206973206e60448201526c1bdd08184818dbdb9d1c9858dd609a1b6064820152608401610582565b600080516020611f9883398151915280546001600160a01b0319166001600160a01b0392909216919091179055565b6112d18361177b565b6000825111806112de5750805b15610511576112ed83836117bb565b50505050565b600061136e7f8b73c3c69bb8fe3d512ecc4cf759cc79239f7b179b0ffacaa9a75d522b39400f61132260015490565b6002546040805160208101859052908101839052606081018290524660808201523060a082015260009060c0016040516020818303038152906040528051906020012090509392505050565b905090565b6000808251604114156113aa5760208301516040840151606085015160001a61139e878285856118af565b945094505050506113dc565b8251604014156113d457602083015160408401516113c986838361199c565b9350935050506113dc565b506000905060025b9250929050565b60008160048111156113f7576113f7611f35565b14156114005750565b600181600481111561141457611414611f35565b14156114625760405162461bcd60e51b815260206004820152601860248201527f45434453413a20696e76616c6964207369676e617475726500000000000000006044820152606401610582565b600281600481111561147657611476611f35565b14156114c45760405162461bcd60e51b815260206004820152601f60248201527f45434453413a20696e76616c6964207369676e6174757265206c656e677468006044820152606401610582565b60038160048111156114d8576114d8611f35565b14156115315760405162461bcd60e51b815260206004820152602260248201527f45434453413a20696e76616c6964207369676e6174757265202773272076616c604482015261756560f01b6064820152608401610582565b600481600481111561154557611545611f35565b14156106765760405162461bcd60e51b815260206004820152602260248201527f45434453413a20696e76616c6964207369676e6174757265202776272076616c604482015261756560f01b6064820152608401610582565b600054610100900460ff166115c55760405162461bcd60e51b815260040161058290611e62565b815160209283012081519190920120600191909155600255565b606060006115ee836002611f4b565b6115f9906002611d76565b67ffffffffffffffff81111561161157611611611bce565b6040519080825280601f01601f19166020018201604052801561163b576020820181803683370190505b509050600360fc1b8160008151811061165657611656611f6a565b60200101906001600160f81b031916908160001a905350600f60fb1b8160018151811061168557611685611f6a565b60200101906001600160f81b031916908160001a90535060006116a9846002611f4b565b6116b4906001611d76565b90505b600181111561172c576f181899199a1a9b1b9c1cb0b131b232b360811b85600f16601081106116e8576116e8611f6a565b1a60f81b8282815181106116fe576116fe611f6a565b60200101906001600160f81b031916908160001a90535060049490941c9361172581611f80565b90506116b7565b508315610b345760405162461bcd60e51b815260206004820181905260248201527f537472696e67733a20686578206c656e67746820696e73756666696369656e746044820152606401610582565b6117848161122c565b6040516001600160a01b038216907fbc7cd75a20ee27fd9adebab32041f755214dbc6bffa90cc0225b39da2e5c2d3b90600090a250565b60606001600160a01b0383163b6118235760405162461bcd60e51b815260206004820152602660248201527f416464726573733a2064656c65676174652063616c6c20746f206e6f6e2d636f6044820152651b9d1c9858dd60d21b6064820152608401610582565b600080846001600160a01b03168460405161183e9190611dfb565b600060405180830381855af49150503d8060008114611879576040519150601f19603f3d011682016040523d82523d6000602084013e61187e565b606091505b50915091506118a68282604051806060016040528060278152602001611fb8602791396119d5565b95945050505050565b6000807f7fffffffffffffffffffffffffffffff5d576e7357a4501ddfe92f46681b20a08311156118e65750600090506003611993565b8460ff16601b141580156118fe57508460ff16601c14155b1561190f5750600090506004611993565b6040805160008082526020820180845289905260ff881692820192909252606081018690526080810185905260019060a0016020604051602081039080840390855afa158015611963573d6000803e3d6000fd5b5050604051601f1901519150506001600160a01b03811661198c57600060019250925050611993565b9150600090505b94509492505050565b6000806001600160ff1b038316816119b960ff86901c601b611d76565b90506119c7878288856118af565b935093505050935093915050565b606083156119e4575081610b34565b8251156119f45782518084602001fd5b8160405162461bcd60e51b81526004016105829190611f22565b600060208284031215611a2057600080fd5b81356001600160e01b031981168114610b3457600080fd5b600080600060408486031215611a4d57600080fd5b833567ffffffffffffffff80821115611a6557600080fd5b9085019060c08288031215611a7957600080fd5b90935060208501359080821115611a8f57600080fd5b818601915086601f830112611aa357600080fd5b813581811115611ab257600080fd5b876020828501011115611ac457600080fd5b6020830194508093505050509250925092565b60005b83811015611af2578181015183820152602001611ada565b838111156112ed5750506000910152565b60008151808452611b1b816020860160208601611ad7565b601f01601f19169290920160200192915050565b8215158152604060208201526000611b4a6040830184611b03565b949350505050565b600060208284031215611b6457600080fd5b5035919050565b80356001600160a01b0381168114611b8257600080fd5b919050565b600060208284031215611b9957600080fd5b610b3482611b6b565b60008060408385031215611bb557600080fd5b82359150611bc560208401611b6b565b90509250929050565b634e487b7160e01b600052604160045260246000fd5b60008060408385031215611bf757600080fd5b611c0083611b6b565b9150602083013567ffffffffffffffff80821115611c1d57600080fd5b818501915085601f830112611c3157600080fd5b813581811115611c4357611c43611bce565b604051601f8201601f19908116603f01168101908382118183101715611c6b57611c6b611bce565b81604052828152886020848701011115611c8457600080fd5b8260208601602083013760006020848301015280955050505050509250929050565b600060208284031215611cb857600080fd5b81358015158114610b3457600080fd5b6020808252602c908201527f46756e6374696f6e206d7573742062652063616c6c6564207468726f7567682060408201526b19195b1959d85d1958d85b1b60a21b606082015260800190565b6020808252602c908201527f46756e6374696f6e206d7573742062652063616c6c6564207468726f7567682060408201526b6163746976652070726f787960a01b606082015260800190565b634e487b7160e01b600052601160045260246000fd5b60008219821115611d8957611d89611d60565b500190565b6000808335601e19843603018112611da557600080fd5b83018035915067ffffffffffffffff821115611dc057600080fd5b6020019150368190038213156113dc57600080fd5b8284823760609190911b6bffffffffffffffffffffffff19169101908152601401919050565b60008251611e0d818460208701611ad7565b9190910192915050565b600082611e3457634e487b7160e01b600052601260045260246000fd5b500490565b8183823760009101908152919050565b600060208284031215611e5b57600080fd5b5051919050565b6020808252602b908201527f496e697469616c697a61626c653a20636f6e7472616374206973206e6f74206960408201526a6e697469616c697a696e6760a81b606082015260800190565b7f416363657373436f6e74726f6c3a206163636f756e7420000000000000000000815260008351611ee5816017850160208801611ad7565b7001034b99036b4b9b9b4b733903937b6329607d1b6017918401918201528351611f16816028840160208801611ad7565b01602801949350505050565b602081526000610b346020830184611b03565b634e487b7160e01b600052602160045260246000fd5b6000816000190483118215151615611f6557611f65611d60565b500290565b634e487b7160e01b600052603260045260246000fd5b600081611f8f57611f8f611d60565b50600019019056fe360894a13ba1a3210667c828492db98dca3e2076cc3735a920a3ca505d382bbc416464726573733a206c6f772d6c6576656c2064656c65676174652063616c6c206661696c6564a26469706673582212204284538678e82d0958813902d6bcea9ffe62ae8f53ae7b61055aed6580493a0c64736f6c63430008090033",
  "immutableReferences": {
    "1390": [
      {
        "length": 32,
        "start": 1444
      },
      {
        "length": 32,
        "start": 1508
      },
      {
        "length": 32,
        "start": 2073
      },
      {
        "length": 32,
        "start": 2137
      },
      {
        "length": 32,
        "start": 2280
      }
    ]
  },
  "source": "// SPDX-License-Identifier: MIT\npragma solidity 0.8.9;\n\nimport \"@openzeppelin/contracts-upgradeable/proxy/utils/UUPSUpgradeable.sol\";\nimport \"@openzeppelin/contracts-upgradeable/metatx/MinimalForwarderUpgradeable.sol\";\nimport \"../common/MelandAccessRoles.sol\";\nimport \"./IMelandForwarder.sol\";\n\ncontract MelandForwarder is\n    IMelandForwarder,\n    MinimalForwarderUpgradeable,\n    UUPSUpgradeable,\n    MelandAccessRoles\n{\n    function initialize(address mpc) public initializer {\n        __MelandAccessRoles_init(mpc);\n        __UUPSUpgradeable_init();\n        __MinimalForwarder_init();\n    }\n\n    bool private _isSetExecuted;\n    bool private _isExecuted;\n\n    function melandExecute(ForwardRequest calldata req, bytes calldata signature)\n        public\n        payable\n        returns (bool, bytes memory)\n    {\n        _isSetExecuted = false;\n        _isExecuted = false;\n        (bool success, bytes memory returndata) = MinimalForwarderUpgradeable\n            .execute(req, signature);\n\n        if (_isSetExecuted) {\n            success = _isExecuted;\n        }\n\n        emit Executed(req.from, success, returndata);\n\n        return (success, returndata);\n    }\n\n    function setExecuted(bool success) external {\n        _isSetExecuted = true;\n        _isExecuted = success;\n    }\n\n    function _authorizeUpgrade(address newImplementation)\n        internal\n        override\n        onlyRole(UPGRADER_ROLE)\n    {}\n\n    /**\n     * @dev See {IERC165-supportsInterface}.\n     */\n    function supportsInterface(bytes4 interfaceId)\n        public\n        view\n        virtual\n        override(AccessControlUpgradeable)\n        returns (bool)\n    {\n        return\n            interfaceId == type(AccessControlUpgradeable).interfaceId ||\n            interfaceId == type(IMelandForwarder).interfaceId ||\n            super.supportsInterface(interfaceId);\n    }\n}\n",
  "sourcePath": "/Users/alberthuang/code/contracts-v2/contracts/metatx/MelandForwarder.sol",
  "compiler": {
    "name": "solc",
    "version": "0.8.9+commit.e5eed63a.Emscripten.clang"
  },
  "schemaVersion": "3.4.8",
  "updatedAt": "2022-07-13T06:08:36.832Z",
  "networkType": "ethereum",
  "devdoc": {
    "kind": "dev",
    "methods": {
      "getRoleAdmin(bytes32)": {
        "details": "Returns the admin role that controls `role`. See {grantRole} and {revokeRole}. To change a role's admin, use {_setRoleAdmin}."
      },
      "grantRole(bytes32,address)": {
        "details": "Grants `role` to `account`. If `account` had not been already granted `role`, emits a {RoleGranted} event. Requirements: - the caller must have ``role``'s admin role. May emit a {RoleGranted} event."
      },
      "hasRole(bytes32,address)": {
        "details": "Returns `true` if `account` has been granted `role`."
      },
      "proxiableUUID()": {
        "details": "Implementation of the ERC1822 {proxiableUUID} function. This returns the storage slot used by the implementation. It is used to validate that the this implementation remains valid after an upgrade. IMPORTANT: A proxy pointing at a proxiable contract should not be considered proxiable itself, because this risks bricking a proxy that upgrades to it, by delegating to itself until out of gas. Thus it is critical that this function revert if invoked through a proxy. This is guaranteed by the `notDelegated` modifier."
      },
      "renounceRole(bytes32,address)": {
        "details": "Revokes `role` from the calling account. Roles are often managed via {grantRole} and {revokeRole}: this function's purpose is to provide a mechanism for accounts to lose their privileges if they are compromised (such as when a trusted device is misplaced). If the calling account had been revoked `role`, emits a {RoleRevoked} event. Requirements: - the caller must be `account`. May emit a {RoleRevoked} event."
      },
      "revokeRole(bytes32,address)": {
        "details": "Revokes `role` from `account`. If `account` had been granted `role`, emits a {RoleRevoked} event. Requirements: - the caller must have ``role``'s admin role. May emit a {RoleRevoked} event."
      },
      "supportsInterface(bytes4)": {
        "details": "See {IERC165-supportsInterface}."
      },
      "upgradeTo(address)": {
        "details": "Upgrade the implementation of the proxy to `newImplementation`. Calls {_authorizeUpgrade}. Emits an {Upgraded} event."
      },
      "upgradeToAndCall(address,bytes)": {
        "details": "Upgrade the implementation of the proxy to `newImplementation`, and subsequently execute the function call encoded in `data`. Calls {_authorizeUpgrade}. Emits an {Upgraded} event."
      }
    },
    "version": 1
  },
  "userdoc": {
    "kind": "user",
    "methods": {},
    "version": 1
  }
}