{
  "contractName": "MelandChainERC1155",
  "abi": [
    {
      "inputs": [
        {
          "internalType": "address",
          "name": "trustedForwarder",
          "type": "address"
        }
      ],
      "stateMutability": "nonpayable",
      "type": "constructor"
    },
    {
      "anonymous": false,
      "inputs": [
        {
          "indexed": false,
          "internalType": "address",
          "name": "previousAdmin",
          "type": "address"
        },
        {
          "indexed": false,
          "internalType": "address",
          "name": "newAdmin",
          "type": "address"
        }
      ],
      "name": "AdminChanged",
      "type": "event"
    },
    {
      "anonymous": false,
      "inputs": [
        {
          "indexed": true,
          "internalType": "address",
          "name": "account",
          "type": "address"
        },
        {
          "indexed": true,
          "internalType": "address",
          "name": "operator",
          "type": "address"
        },
        {
          "indexed": false,
          "internalType": "bool",
          "name": "approved",
          "type": "bool"
        }
      ],
      "name": "ApprovalForAll",
      "type": "event"
    },
    {
      "anonymous": false,
      "inputs": [
        {
          "indexed": true,
          "internalType": "address",
          "name": "beacon",
          "type": "address"
        }
      ],
      "name": "BeaconUpgraded",
      "type": "event"
    },
    {
      "anonymous": false,
      "inputs": [
        {
          "indexed": false,
          "internalType": "uint8",
          "name": "version",
          "type": "uint8"
        }
      ],
      "name": "Initialized",
      "type": "event"
    },
    {
      "anonymous": false,
      "inputs": [
        {
          "indexed": true,
          "internalType": "bytes32",
          "name": "signKeccak256",
          "type": "bytes32"
        },
        {
          "indexed": false,
          "internalType": "bytes",
          "name": "returndata",
          "type": "bytes"
        }
      ],
      "name": "RefundSwapin",
      "type": "event"
    },
    {
      "anonymous": false,
      "inputs": [
        {
          "indexed": true,
          "internalType": "bytes32",
          "name": "role",
          "type": "bytes32"
        },
        {
          "indexed": true,
          "internalType": "bytes32",
          "name": "previousAdminRole",
          "type": "bytes32"
        },
        {
          "indexed": true,
          "internalType": "bytes32",
          "name": "newAdminRole",
          "type": "bytes32"
        }
      ],
      "name": "RoleAdminChanged",
      "type": "event"
    },
    {
      "anonymous": false,
      "inputs": [
        {
          "indexed": true,
          "internalType": "bytes32",
          "name": "role",
          "type": "bytes32"
        },
        {
          "indexed": true,
          "internalType": "address",
          "name": "account",
          "type": "address"
        },
        {
          "indexed": true,
          "internalType": "address",
          "name": "sender",
          "type": "address"
        }
      ],
      "name": "RoleGranted",
      "type": "event"
    },
    {
      "anonymous": false,
      "inputs": [
        {
          "indexed": true,
          "internalType": "bytes32",
          "name": "role",
          "type": "bytes32"
        },
        {
          "indexed": true,
          "internalType": "address",
          "name": "account",
          "type": "address"
        },
        {
          "indexed": true,
          "internalType": "address",
          "name": "sender",
          "type": "address"
        }
      ],
      "name": "RoleRevoked",
      "type": "event"
    },
    {
      "anonymous": false,
      "inputs": [
        {
          "indexed": true,
          "internalType": "bytes32",
          "name": "signKeccak256",
          "type": "bytes32"
        },
        {
          "indexed": false,
          "internalType": "address",
          "name": "to",
          "type": "address"
        },
        {
          "indexed": false,
          "internalType": "uint256",
          "name": "tokenId",
          "type": "uint256"
        },
        {
          "indexed": false,
          "internalType": "uint256",
          "name": "value",
          "type": "uint256"
        }
      ],
      "name": "SwapinWithTokenId",
      "type": "event"
    },
    {
      "anonymous": false,
      "inputs": [
        {
          "indexed": true,
          "internalType": "address",
          "name": "to",
          "type": "address"
        },
        {
          "indexed": false,
          "internalType": "uint256",
          "name": "tokenId",
          "type": "uint256"
        },
        {
          "indexed": false,
          "internalType": "uint256",
          "name": "value",
          "type": "uint256"
        }
      ],
      "name": "SwapoutWithTokenId",
      "type": "event"
    },
    {
      "anonymous": false,
      "inputs": [
        {
          "indexed": true,
          "internalType": "address",
          "name": "operator",
          "type": "address"
        },
        {
          "indexed": true,
          "internalType": "address",
          "name": "from",
          "type": "address"
        },
        {
          "indexed": true,
          "internalType": "address",
          "name": "to",
          "type": "address"
        },
        {
          "indexed": false,
          "internalType": "uint256[]",
          "name": "ids",
          "type": "uint256[]"
        },
        {
          "indexed": false,
          "internalType": "uint256[]",
          "name": "values",
          "type": "uint256[]"
        }
      ],
      "name": "TransferBatch",
      "type": "event"
    },
    {
      "anonymous": false,
      "inputs": [
        {
          "indexed": true,
          "internalType": "address",
          "name": "operator",
          "type": "address"
        },
        {
          "indexed": true,
          "internalType": "address",
          "name": "from",
          "type": "address"
        },
        {
          "indexed": true,
          "internalType": "address",
          "name": "to",
          "type": "address"
        },
        {
          "indexed": false,
          "internalType": "uint256",
          "name": "id",
          "type": "uint256"
        },
        {
          "indexed": false,
          "internalType": "uint256",
          "name": "value",
          "type": "uint256"
        }
      ],
      "name": "TransferSingle",
      "type": "event"
    },
    {
      "anonymous": false,
      "inputs": [
        {
          "indexed": false,
          "internalType": "string",
          "name": "value",
          "type": "string"
        },
        {
          "indexed": true,
          "internalType": "uint256",
          "name": "id",
          "type": "uint256"
        }
      ],
      "name": "URI",
      "type": "event"
    },
    {
      "anonymous": false,
      "inputs": [
        {
          "indexed": true,
          "internalType": "address",
          "name": "implementation",
          "type": "address"
        }
      ],
      "name": "Upgraded",
      "type": "event"
    },
    {
      "inputs": [],
      "name": "DEFAULT_ADMIN_ROLE",
      "outputs": [
        {
          "internalType": "bytes32",
          "name": "",
          "type": "bytes32"
        }
      ],
      "stateMutability": "view",
      "type": "function"
    },
    {
      "inputs": [],
      "name": "DOMAIN_SEPARATOR",
      "outputs": [
        {
          "internalType": "bytes32",
          "name": "",
          "type": "bytes32"
        }
      ],
      "stateMutability": "view",
      "type": "function"
    },
    {
      "inputs": [],
      "name": "GM_ROLE",
      "outputs": [
        {
          "internalType": "bytes32",
          "name": "",
          "type": "bytes32"
        }
      ],
      "stateMutability": "view",
      "type": "function"
    },
    {
      "inputs": [],
      "name": "MINTER_ROLE",
      "outputs": [
        {
          "internalType": "bytes32",
          "name": "",
          "type": "bytes32"
        }
      ],
      "stateMutability": "view",
      "type": "function"
    },
    {
      "inputs": [],
      "name": "UPGRADER_ROLE",
      "outputs": [
        {
          "internalType": "bytes32",
          "name": "",
          "type": "bytes32"
        }
      ],
      "stateMutability": "view",
      "type": "function"
    },
    {
      "inputs": [
        {
          "internalType": "address",
          "name": "account",
          "type": "address"
        },
        {
          "internalType": "uint256",
          "name": "id",
          "type": "uint256"
        }
      ],
      "name": "balanceOf",
      "outputs": [
        {
          "internalType": "uint256",
          "name": "",
          "type": "uint256"
        }
      ],
      "stateMutability": "view",
      "type": "function"
    },
    {
      "inputs": [
        {
          "internalType": "address[]",
          "name": "accounts",
          "type": "address[]"
        },
        {
          "internalType": "uint256[]",
          "name": "ids",
          "type": "uint256[]"
        }
      ],
      "name": "balanceOfBatch",
      "outputs": [
        {
          "internalType": "uint256[]",
          "name": "",
          "type": "uint256[]"
        }
      ],
      "stateMutability": "view",
      "type": "function"
    },
    {
      "inputs": [
        {
          "internalType": "bytes32",
          "name": "role",
          "type": "bytes32"
        }
      ],
      "name": "getRoleAdmin",
      "outputs": [
        {
          "internalType": "bytes32",
          "name": "",
          "type": "bytes32"
        }
      ],
      "stateMutability": "view",
      "type": "function"
    },
    {
      "inputs": [
        {
          "internalType": "bytes32",
          "name": "role",
          "type": "bytes32"
        },
        {
          "internalType": "address",
          "name": "account",
          "type": "address"
        }
      ],
      "name": "grantRole",
      "outputs": [],
      "stateMutability": "nonpayable",
      "type": "function"
    },
    {
      "inputs": [
        {
          "internalType": "bytes32",
          "name": "role",
          "type": "bytes32"
        },
        {
          "internalType": "address",
          "name": "account",
          "type": "address"
        }
      ],
      "name": "hasRole",
      "outputs": [
        {
          "internalType": "bool",
          "name": "",
          "type": "bool"
        }
      ],
      "stateMutability": "view",
      "type": "function"
    },
    {
      "inputs": [
        {
          "internalType": "uint256",
          "name": "",
          "type": "uint256"
        }
      ],
      "name": "holders",
      "outputs": [
        {
          "internalType": "address",
          "name": "",
          "type": "address"
        }
      ],
      "stateMutability": "view",
      "type": "function"
    },
    {
      "inputs": [
        {
          "internalType": "address",
          "name": "account",
          "type": "address"
        },
        {
          "internalType": "address",
          "name": "operator",
          "type": "address"
        }
      ],
      "name": "isApprovedForAll",
      "outputs": [
        {
          "internalType": "bool",
          "name": "",
          "type": "bool"
        }
      ],
      "stateMutability": "view",
      "type": "function"
    },
    {
      "inputs": [
        {
          "internalType": "address",
          "name": "",
          "type": "address"
        }
      ],
      "name": "isHolder",
      "outputs": [
        {
          "internalType": "bool",
          "name": "",
          "type": "bool"
        }
      ],
      "stateMutability": "view",
      "type": "function"
    },
    {
      "inputs": [
        {
          "internalType": "address",
          "name": "forwarder",
          "type": "address"
        }
      ],
      "name": "isTrustedForwarder",
      "outputs": [
        {
          "internalType": "bool",
          "name": "",
          "type": "bool"
        }
      ],
      "stateMutability": "view",
      "type": "function"
    },
    {
      "inputs": [],
      "name": "proxiableUUID",
      "outputs": [
        {
          "internalType": "bytes32",
          "name": "",
          "type": "bytes32"
        }
      ],
      "stateMutability": "view",
      "type": "function"
    },
    {
      "inputs": [
        {
          "internalType": "bytes32",
          "name": "role",
          "type": "bytes32"
        },
        {
          "internalType": "address",
          "name": "account",
          "type": "address"
        }
      ],
      "name": "renounceRole",
      "outputs": [],
      "stateMutability": "nonpayable",
      "type": "function"
    },
    {
      "inputs": [
        {
          "internalType": "bytes32",
          "name": "role",
          "type": "bytes32"
        },
        {
          "internalType": "address",
          "name": "account",
          "type": "address"
        }
      ],
      "name": "revokeRole",
      "outputs": [],
      "stateMutability": "nonpayable",
      "type": "function"
    },
    {
      "inputs": [
        {
          "internalType": "address",
          "name": "from",
          "type": "address"
        },
        {
          "internalType": "address",
          "name": "to",
          "type": "address"
        },
        {
          "internalType": "uint256[]",
          "name": "ids",
          "type": "uint256[]"
        },
        {
          "internalType": "uint256[]",
          "name": "amounts",
          "type": "uint256[]"
        },
        {
          "internalType": "bytes",
          "name": "data",
          "type": "bytes"
        }
      ],
      "name": "safeBatchTransferFrom",
      "outputs": [],
      "stateMutability": "nonpayable",
      "type": "function"
    },
    {
      "inputs": [
        {
          "internalType": "address",
          "name": "from",
          "type": "address"
        },
        {
          "internalType": "address",
          "name": "to",
          "type": "address"
        },
        {
          "internalType": "uint256",
          "name": "id",
          "type": "uint256"
        },
        {
          "internalType": "uint256",
          "name": "amount",
          "type": "uint256"
        },
        {
          "internalType": "bytes",
          "name": "data",
          "type": "bytes"
        }
      ],
      "name": "safeTransferFrom",
      "outputs": [],
      "stateMutability": "nonpayable",
      "type": "function"
    },
    {
      "inputs": [
        {
          "internalType": "address",
          "name": "operator",
          "type": "address"
        },
        {
          "internalType": "bool",
          "name": "approved",
          "type": "bool"
        }
      ],
      "name": "setApprovalForAll",
      "outputs": [],
      "stateMutability": "nonpayable",
      "type": "function"
    },
    {
      "inputs": [
        {
          "internalType": "address",
          "name": "newImplementation",
          "type": "address"
        }
      ],
      "name": "upgradeTo",
      "outputs": [],
      "stateMutability": "nonpayable",
      "type": "function"
    },
    {
      "inputs": [
        {
          "internalType": "address",
          "name": "newImplementation",
          "type": "address"
        },
        {
          "internalType": "bytes",
          "name": "data",
          "type": "bytes"
        }
      ],
      "name": "upgradeToAndCall",
      "outputs": [],
      "stateMutability": "payable",
      "type": "function"
    },
    {
      "inputs": [
        {
          "internalType": "uint256",
          "name": "",
          "type": "uint256"
        }
      ],
      "name": "uri",
      "outputs": [
        {
          "internalType": "string",
          "name": "",
          "type": "string"
        }
      ],
      "stateMutability": "view",
      "type": "function"
    },
    {
      "inputs": [
        {
          "internalType": "address",
          "name": "mpc",
          "type": "address"
        }
      ],
      "name": "initialize",
      "outputs": [],
      "stateMutability": "nonpayable",
      "type": "function"
    },
    {
      "inputs": [
        {
          "internalType": "address",
          "name": "from",
          "type": "address"
        }
      ],
      "name": "getNonce",
      "outputs": [
        {
          "internalType": "uint256",
          "name": "",
          "type": "uint256"
        }
      ],
      "stateMutability": "view",
      "type": "function"
    },
    {
      "inputs": [
        {
          "internalType": "bytes4",
          "name": "interfaceId",
          "type": "bytes4"
        }
      ],
      "name": "supportsInterface",
      "outputs": [
        {
          "internalType": "bool",
          "name": "",
          "type": "bool"
        }
      ],
      "stateMutability": "view",
      "type": "function"
    },
    {
      "inputs": [
        {
          "internalType": "address",
          "name": "holder",
          "type": "address"
        }
      ],
      "name": "addHolder",
      "outputs": [],
      "stateMutability": "nonpayable",
      "type": "function"
    },
    {
      "inputs": [
        {
          "internalType": "address",
          "name": "to",
          "type": "address"
        },
        {
          "internalType": "uint256",
          "name": "tokenId",
          "type": "uint256"
        },
        {
          "internalType": "uint256",
          "name": "value",
          "type": "uint256"
        }
      ],
      "name": "callSwapoutWithTokenId",
      "outputs": [],
      "stateMutability": "nonpayable",
      "type": "function"
    },
    {
      "inputs": [
        {
          "components": [
            {
              "internalType": "address",
              "name": "from",
              "type": "address"
            },
            {
              "internalType": "address",
              "name": "to",
              "type": "address"
            },
            {
              "internalType": "uint256",
              "name": "tokenId",
              "type": "uint256"
            },
            {
              "internalType": "uint256",
              "name": "cid",
              "type": "uint256"
            },
            {
              "internalType": "uint256",
              "name": "value",
              "type": "uint256"
            },
            {
              "internalType": "uint256",
              "name": "nonce",
              "type": "uint256"
            },
            {
              "internalType": "bytes",
              "name": "data",
              "type": "bytes"
            }
          ],
          "internalType": "struct IMelandChainERC1155.SwapinParams",
          "name": "swapinparams",
          "type": "tuple"
        },
        {
          "internalType": "bytes",
          "name": "signature",
          "type": "bytes"
        }
      ],
      "name": "verify",
      "outputs": [
        {
          "internalType": "bool",
          "name": "",
          "type": "bool"
        }
      ],
      "stateMutability": "view",
      "type": "function"
    },
    {
      "inputs": [
        {
          "internalType": "bytes",
          "name": "signature",
          "type": "bytes"
        },
        {
          "components": [
            {
              "internalType": "address",
              "name": "from",
              "type": "address"
            },
            {
              "internalType": "address",
              "name": "to",
              "type": "address"
            },
            {
              "internalType": "uint256",
              "name": "tokenId",
              "type": "uint256"
            },
            {
              "internalType": "uint256",
              "name": "cid",
              "type": "uint256"
            },
            {
              "internalType": "uint256",
              "name": "value",
              "type": "uint256"
            },
            {
              "internalType": "uint256",
              "name": "nonce",
              "type": "uint256"
            },
            {
              "internalType": "bytes",
              "name": "data",
              "type": "bytes"
            }
          ],
          "internalType": "struct IMelandChainERC1155.SwapinParams",
          "name": "swapinparams",
          "type": "tuple"
        }
      ],
      "name": "callSwapinWithTokenId",
      "outputs": [],
      "stateMutability": "nonpayable",
      "type": "function"
    },
    {
      "inputs": [
        {
          "internalType": "uint256",
          "name": "tokenId",
          "type": "uint256"
        }
      ],
      "name": "getCidByTokenId",
      "outputs": [
        {
          "internalType": "uint256",
          "name": "",
          "type": "uint256"
        }
      ],
      "stateMutability": "view",
      "type": "function"
    }
  ],
  "bytecode": "0x60c0604052306080523480156200001557600080fd5b50604051620035623803806200356283398101604081905262000038916200004a565b6001600160a01b031660a0526200007c565b6000602082840312156200005d57600080fd5b81516001600160a01b03811681146200007557600080fd5b9392505050565b60805160a05161349d620000c5600039600081816104b7015261207d015260008181610cb701528181610cf701528181610ec001528181610f000152610f8f015261349d6000f3fe6080604052600436106101d75760003560e01c80634e1273f411610102578063ac1e17df11610095578063d547741f11610064578063d547741f14610601578063e985e9c514610621578063f242432a1461066a578063f72c0d8b1461068a57600080fd5b8063ac1e17df1461055c578063c4d66de81461057c578063d4d7b19a1461059c578063d5391393146105cd57600080fd5b806391d14854116100d157806391d14854146104e7578063a217fddf14610507578063a22cb4651461051c578063a7edb5de1461053c57600080fd5b80634e1273f4146104455780634f1ef2861461047257806352d1902d14610485578063572b6c051461049a57600080fd5b80632d0335ab1161017a5780633644e515116101495780633644e515146103c157806336568abe146103d75780633659cfe6146103f75780633ef780bc1461041757600080fd5b80632d0335ab146103165780632eb2c2d61461034d5780632f2ff15d1461036d57806330c7be2c1461038d57600080fd5b80630e89341c116101b65780630e89341c14610261578063123422871461028e578063248a9ca3146102ae5780632a11ced0146102de57600080fd5b8062fdd58e146101dc57806301ffc9a71461020f5780630cdab6ec1461023f575b600080fd5b3480156101e857600080fd5b506101fc6101f73660046127a3565b6106be565b6040519081526020015b60405180910390f35b34801561021b57600080fd5b5061022f61022a3660046127e3565b610757565b6040519015158152602001610206565b34801561024b57600080fd5b5061025f61025a3660046129af565b6107d3565b005b34801561026d57600080fd5b5061028161027c366004612a17565b610a7a565b6040516102069190612a88565b34801561029a57600080fd5b5061022f6102a9366004612a9b565b610b0e565b3480156102ba57600080fd5b506101fc6102c9366004612a17565b60009081526065602052604090206001015490565b3480156102ea57600080fd5b506102fe6102f9366004612a17565b610b20565b6040516001600160a01b039091168152602001610206565b34801561032257600080fd5b506101fc610331366004612b03565b6001600160a01b03166000908152610197602052604090205490565b34801561035957600080fd5b5061025f610368366004612bb2565b610b4b565b34801561037957600080fd5b5061025f610388366004612c5b565b610bf4565b34801561039957600080fd5b506101fc7ff5eb84615c2a00ecaf817d13794ebd6299c9e01c395bf4018453f13f577f544981565b3480156103cd57600080fd5b506101fc60975481565b3480156103e357600080fd5b5061025f6103f2366004612c5b565b610c1e565b34801561040357600080fd5b5061025f610412366004612b03565b610cac565b34801561042357600080fd5b506101fc610432366004612a17565b6000908152610196602052604090205490565b34801561045157600080fd5b50610465610460366004612c87565b610d8c565b6040516102069190612d8c565b61025f610480366004612d9f565b610eb5565b34801561049157600080fd5b506101fc610f82565b3480156104a657600080fd5b5061022f6104b5366004612b03565b7f00000000000000000000000000000000000000000000000000000000000000006001600160a01b0390811691161490565b3480156104f357600080fd5b5061022f610502366004612c5b565b611036565b34801561051357600080fd5b506101fc600081565b34801561052857600080fd5b5061025f610537366004612df0565b611061565b34801561054857600080fd5b5061025f610557366004612e27565b611073565b34801561056857600080fd5b5061025f610577366004612b03565b611091565b34801561058857600080fd5b5061025f610597366004612b03565b611124565b3480156105a857600080fd5b5061022f6105b7366004612b03565b6101946020526000908152604090205460ff1681565b3480156105d957600080fd5b506101fc7f9f2df0fed2c77648de5860a4cc508cd0818c85b8b8a1ab4ceeef8d981c8956a681565b34801561060d57600080fd5b5061025f61061c366004612c5b565b6111ef565b34801561062d57600080fd5b5061022f61063c366004612e5a565b6001600160a01b03918216600090815260996020908152604080832093909416825291909152205460ff1690565b34801561067657600080fd5b5061025f610685366004612e84565b611214565b34801561069657600080fd5b506101fc7f189ab7a9244df0848122154315af71fe140f3db0fe014031783b0946b8c9d2e381565b60006001600160a01b03831661072f5760405162461bcd60e51b815260206004820152602b60248201527f455243313135353a2062616c616e636520717565727920666f7220746865207a60448201526a65726f206164647265737360a81b60648201526084015b60405180910390fd5b5060009081526098602090815260408083206001600160a01b03949094168352929052205490565b60006001600160e01b03198216636cdb3d1360e11b148061078857506001600160e01b031982166303a24d0760e21b145b806107a357506001600160e01b0319821663559b819960e11b145b806107be57506001600160e01b03198216630fbde02f60e21b145b806107cd57506107cd826112ad565b92915050565b6107de818484610b0e565b61085e5760405162461bcd60e51b815260206004820152604560248201527f4d656c616e642e61692e4d656c616e64436861696e455243313135352363616c60448201527f6c53776170696e57697468546f6b656e49643a20496e76616c6964207369676e606482015264617475726560d81b608482015260a401610726565b60a081015161086e906001612efe565b81516001600160a01b03166000908152610197602052604081209190915561089684846112ed565b90508160600151610196600084604001518152602001908152602001600020819055506000600190506108e083600001518460200151856040015186608001518760c0015161130f565b801561094457602080840151604080860151608087015182516001600160a01b0390941684529383015281019190915282907fc3918c655f8ff86af93d311c098b5a4ef906fcb2ea62c45ca4480f1ae2a7446d9060600160405180910390a2610987565b817faca83ef47ce8a0118394ef5dfe68d0626c923f7e4eafb019a94c951079ad9dc360405161097e90602080825260009082015260400190565b60405180910390a25b33803b15158015610a1157506040516301ffc9a760e01b8152633ec5c3f360e21b60048201526001600160a01b038216906301ffc9a79060240160206040518083038186803b1580156109d957600080fd5b505afa1580156109ed573d6000803e3d6000fd5b505050506040513d601f19601f82011682018060405250810190610a119190612f16565b15610a7257604051633ec5c3f360e21b815282151560048201526001600160a01b0382169063fb170fcc90602401600060405180830381600087803b158015610a5957600080fd5b505af1158015610a6d573d6000803e3d6000fd5b505050505b505050505050565b6060609a8054610a8990612f33565b80601f0160208091040260200160405190810160405280929190818152602001828054610ab590612f33565b8015610b025780601f10610ad757610100808354040283529160200191610b02565b820191906000526020600020905b815481529060010190602001808311610ae557829003601f168201915b50505050509050919050565b6001610b19565b9150505b9392505050565b6101958181548110610b3157600080fd5b6000918252602090912001546001600160a01b0316905081565b610b5361145e565b6001600160a01b0316856001600160a01b03161480610b795750610b798561063c61145e565b610be05760405162461bcd60e51b815260206004820152603260248201527f455243313135353a207472616e736665722063616c6c6572206973206e6f74206044820152711bdddb995c881b9bdc88185c1c1c9bdd995960721b6064820152608401610726565b610bed858585858561146d565b5050505050565b600082815260656020526040902060010154610c0f8161165e565b610c19838361166f565b505050565b610c2661145e565b6001600160a01b0316816001600160a01b031614610c9e5760405162461bcd60e51b815260206004820152602f60248201527f416363657373436f6e74726f6c3a2063616e206f6e6c792072656e6f756e636560448201526e103937b632b9903337b91039b2b63360891b6064820152608401610726565b610ca882826116f6565b5050565b306001600160a01b037f0000000000000000000000000000000000000000000000000000000000000000161415610cf55760405162461bcd60e51b815260040161072690612f6e565b7f00000000000000000000000000000000000000000000000000000000000000006001600160a01b0316610d3e600080516020613421833981519152546001600160a01b031690565b6001600160a01b031614610d645760405162461bcd60e51b815260040161072690612fba565b610d6d8161177b565b60408051600080825260208201909252610d89918391906117a5565b50565b60608151835114610df15760405162461bcd60e51b815260206004820152602960248201527f455243313135353a206163636f756e747320616e6420696473206c656e677468604482015268040dad2e6dac2e8c6d60bb1b6064820152608401610726565b600083516001600160401b03811115610e0c57610e0c612841565b604051908082528060200260200182016040528015610e35578160200160208202803683370190505b50905060005b8451811015610ead57610e80858281518110610e5957610e59613006565b6020026020010151858381518110610e7357610e73613006565b60200260200101516106be565b828281518110610e9257610e92613006565b6020908102919091010152610ea68161301c565b9050610e3b565b509392505050565b306001600160a01b037f0000000000000000000000000000000000000000000000000000000000000000161415610efe5760405162461bcd60e51b815260040161072690612f6e565b7f00000000000000000000000000000000000000000000000000000000000000006001600160a01b0316610f47600080516020613421833981519152546001600160a01b031690565b6001600160a01b031614610f6d5760405162461bcd60e51b815260040161072690612fba565b610f768261177b565b610ca8828260016117a5565b6000306001600160a01b037f000000000000000000000000000000000000000000000000000000000000000016146110225760405162461bcd60e51b815260206004820152603860248201527f555550535570677261646561626c653a206d757374206e6f742062652063616c60448201527f6c6564207468726f7567682064656c656761746563616c6c00000000000000006064820152608401610726565b506000805160206134218339815191525b90565b60009182526065602090815260408084206001600160a01b0393909316845291905290205460ff1690565b610ca861106c61145e565b838361191f565b600061107d61145e565b905061108b81858585611a00565b50505050565b7ff5eb84615c2a00ecaf817d13794ebd6299c9e01c395bf4018453f13f577f54496110bb8161165e565b506001600160a01b0316600081815261019460205260408120805460ff19166001908117909155610195805491820181559091527f54034dca961b61bc2a3147cc0c1986762915b42723ed64155364f17a2e2967700180546001600160a01b0319169091179055565b60006111306001611a55565b90508015611148576000805461ff0019166101001790555b61115182611ae2565b611159611c43565b6111a6604051806040016040528060128152602001714d656c616e64436861696e4552433131353560701b815250604051806040016040528060018152602001603160f81b815250611c6c565b8015610ca8576000805461ff0019169055604051600181527f7f26b83ff96e1f2b6a682f133852f6798a09c465da95921460cefb38474024989060200160405180910390a15050565b60008281526065602052604090206001015461120a8161165e565b610c1983836116f6565b61121c61145e565b6001600160a01b0316856001600160a01b0316148061124257506112428561063c61145e565b6112a05760405162461bcd60e51b815260206004820152602960248201527f455243313135353a2063616c6c6572206973206e6f74206f776e6572206e6f7260448201526808185c1c1c9bdd995960ba1b6064820152608401610726565b610bed8585858585611c9d565b60006001600160e01b03198216636cdb3d1360e11b14806112de57506001600160e01b031982166303a24d0760e21b145b806107cd57506107cd82611de4565b600082826040516112ff929190613037565b6040518091039020905092915050565b6001600160a01b03841661136f5760405162461bcd60e51b815260206004820152602160248201527f455243313135353a206d696e7420746f20746865207a65726f206164647265736044820152607360f81b6064820152608401610726565b836001600160a01b0316856001600160a01b0316141561138e57600094505b600061139861145e565b905060006113a585611e19565b905060006113b285611e19565b905060008681526098602090815260408083206001600160a01b038b168452909152812080548792906113e6908490612efe565b909155505060408051878152602081018790526001600160a01b03808a16928b821692918716917fc3d58168c5ae7397731d063d5bbf3d657854427343f4c083240f7aacaa2d0f62910160405180910390a4611446838989858589611e64565b611454838989898989611efe565b5050505050505050565b6000611468612079565b905090565b81518351146114cf5760405162461bcd60e51b815260206004820152602860248201527f455243313135353a2069647320616e6420616d6f756e7473206c656e677468206044820152670dad2e6dac2e8c6d60c31b6064820152608401610726565b6001600160a01b0384166114f55760405162461bcd60e51b815260040161072690613047565b60006114ff61145e565b905060005b84518110156115ea57600085828151811061152157611521613006565b60200260200101519050600085838151811061153f5761153f613006565b60209081029190910181015160008481526098835260408082206001600160a01b038e1683529093529190912054909150818110156115905760405162461bcd60e51b81526004016107269061308c565b60008381526098602090815260408083206001600160a01b038e8116855292528083208585039055908b168252812080548492906115cf908490612efe565b92505081905550505050806115e39061301c565b9050611504565b50846001600160a01b0316866001600160a01b0316826001600160a01b03167f4a39dc06d4c0dbc64b70af90fd698a233a518aa5d07e595d983b8c0526c8f7fb878760405161163a9291906130d6565b60405180910390a4611650818787878787611e64565b610a728187878787876120be565b610d898161166a61145e565b612188565b6116798282611036565b610ca85760008281526065602090815260408083206001600160a01b03851684529091529020805460ff191660011790556116b261145e565b6001600160a01b0316816001600160a01b0316837f2f8788117e7eff1d82e926ec794901d17c78024a50270940304540a733656f0d60405160405180910390a45050565b6117008282611036565b15610ca85760008281526065602090815260408083206001600160a01b03851684529091529020805460ff1916905561173761145e565b6001600160a01b0316816001600160a01b0316837ff6391f5c32d9c69d2a47ea670b442974b53935d1edc7fd64eb21e047a839171b60405160405180910390a45050565b7f189ab7a9244df0848122154315af71fe140f3db0fe014031783b0946b8c9d2e3610ca88161165e565b7f4910fdfa16fed3260ed0e7147f7cc6da11a60208b5b9406d12a635614ffd91435460ff16156117d857610c19836121ec565b826001600160a01b03166352d1902d6040518163ffffffff1660e01b815260040160206040518083038186803b15801561181157600080fd5b505afa925050508015611841575060408051601f3d908101601f1916820190925261183e918101906130fb565b60015b6118a45760405162461bcd60e51b815260206004820152602e60248201527f45524331393637557067726164653a206e657720696d706c656d656e7461746960448201526d6f6e206973206e6f74205555505360901b6064820152608401610726565b60008051602061342183398151915281146119135760405162461bcd60e51b815260206004820152602960248201527f45524331393637557067726164653a20756e737570706f727465642070726f786044820152681a58589b195555525160ba1b6064820152608401610726565b50610c19838383612288565b816001600160a01b0316836001600160a01b031614156119935760405162461bcd60e51b815260206004820152602960248201527f455243313135353a2073657474696e6720617070726f76616c20737461747573604482015268103337b91039b2b63360b91b6064820152608401610726565b6001600160a01b03838116600081815260996020908152604080832094871680845294825291829020805460ff191686151590811790915591519182527f17307eab39ab6107e8899845ad3d59bd9653f200f220920489ca2b5937696c31910160405180910390a3505050565b611a0b8483836122ad565b60408051838152602081018390526001600160a01b038516917f1ec25b5cb6b929928b07334300639c678b32a51550e0e63d57ffb623cd2ce27b910160405180910390a250505050565b60008054610100900460ff1615611a9c578160ff166001148015611a785750303b155b611a945760405162461bcd60e51b815260040161072690613114565b506000919050565b60005460ff808416911610611ac35760405162461bcd60e51b815260040161072690613114565b506000805460ff191660ff92909216919091179055600190565b919050565b611aea611c43565b611af560008261166f565b611b1f7ff5eb84615c2a00ecaf817d13794ebd6299c9e01c395bf4018453f13f577f54498261166f565b611b497f9f2df0fed2c77648de5860a4cc508cd0818c85b8b8a1ab4ceeef8d981c8956a68261166f565b611b737f189ab7a9244df0848122154315af71fe140f3db0fe014031783b0946b8c9d2e33361166f565b5060408051808201825260068152651b595b185b9960d21b6020918201528151808301835260018152603160f81b9082015281517f8b73c3c69bb8fe3d512ecc4cf759cc79239f7b179b0ffacaa9a75d522b39400f818301527f314ed1331a8d68d6e7c652158abe27c46bf91bd45ef86ab66f92d6500b1056eb818401527fc89efdaa54c0f20c7adf612882df0950f5a951637e0307cdcb4c672f298b8bc660608201524660808201523060a0808301919091528351808303909101815260c09091019092528151910120609755565b600054610100900460ff16611c6a5760405162461bcd60e51b815260040161072690613162565b565b600054610100900460ff16611c935760405162461bcd60e51b815260040161072690613162565b610ca88282612441565b6001600160a01b038416611cc35760405162461bcd60e51b815260040161072690613047565b6000611ccd61145e565b90506000611cda85611e19565b90506000611ce785611e19565b905060008681526098602090815260408083206001600160a01b038c16845290915290205485811015611d2c5760405162461bcd60e51b81526004016107269061308c565b60008781526098602090815260408083206001600160a01b038d8116855292528083208985039055908a16825281208054889290611d6b908490612efe565b909155505060408051888152602081018890526001600160a01b03808b16928c821692918816917fc3d58168c5ae7397731d063d5bbf3d657854427343f4c083240f7aacaa2d0f62910160405180910390a4611dcb848a8a86868a611e64565b611dd9848a8a8a8a8a611efe565b505050505050505050565b60006001600160e01b03198216637965db0b60e01b14806107cd57506301ffc9a760e01b6001600160e01b03198316146107cd565b60408051600180825281830190925260609160009190602080830190803683370190505090508281600081518110611e5357611e53613006565b602090810291909101015292915050565b6001600160a01b03841615801590611e9657506001600160a01b0384166000908152610194602052604090205460ff16155b15611ef95760005b8351811015611ef757611ee58586868481518110611ebe57611ebe613006565b6020026020010151868581518110611ed857611ed8613006565b6020026020010151611a00565b80611eef8161301c565b915050611e9e565b505b610a72565b6001600160a01b0384163b15610a725760405163f23a6e6160e01b81526001600160a01b0385169063f23a6e6190611f4290899089908890889088906004016131ad565b602060405180830381600087803b158015611f5c57600080fd5b505af1925050508015611f8c575060408051601f3d908101601f19168201909252611f89918101906131f2565b60015b61203957611f9861320f565b806308c379a01415611fd25750611fad61322a565b80611fb85750611fd4565b8060405162461bcd60e51b81526004016107269190612a88565b505b60405162461bcd60e51b815260206004820152603460248201527f455243313135353a207472616e7366657220746f206e6f6e20455243313135356044820152732932b1b2b4bb32b91034b6b83632b6b2b73a32b960611b6064820152608401610726565b6001600160e01b0319811663f23a6e6160e01b146120695760405162461bcd60e51b8152600401610726906132b3565b50505050505050565b9250929050565b60007f00000000000000000000000000000000000000000000000000000000000000006001600160a01b03163314156120b9575060131936013560601c90565b503390565b6001600160a01b0384163b15610a725760405163bc197c8160e01b81526001600160a01b0385169063bc197c819061210290899089908890889088906004016132fb565b602060405180830381600087803b15801561211c57600080fd5b505af192505050801561214c575060408051601f3d908101601f19168201909252612149918101906131f2565b60015b61215857611f9861320f565b6001600160e01b0319811663bc197c8160e01b146120695760405162461bcd60e51b8152600401610726906132b3565b6121928282611036565b610ca8576121aa816001600160a01b03166014612484565b6121b5836020612484565b6040516020016121c6929190613359565b60408051601f198184030181529082905262461bcd60e51b825261072691600401612a88565b6001600160a01b0381163b6122595760405162461bcd60e51b815260206004820152602d60248201527f455243313936373a206e657720696d706c656d656e746174696f6e206973206e60448201526c1bdd08184818dbdb9d1c9858dd609a1b6064820152608401610726565b60008051602061342183398151915280546001600160a01b0319166001600160a01b0392909216919091179055565b6122918361261f565b60008251118061229e5750805b15610c195761108b838361265f565b6001600160a01b03831661230f5760405162461bcd60e51b815260206004820152602360248201527f455243313135353a206275726e2066726f6d20746865207a65726f206164647260448201526265737360e81b6064820152608401610726565b600061231961145e565b9050600061232684611e19565b9050600061233384611e19565b6040805160208082018352600091829052888252609881528282206001600160a01b038b16835290522054909150848110156123bd5760405162461bcd60e51b8152602060048201526024808201527f455243313135353a206275726e20616d6f756e7420657863656564732062616c604482015263616e636560e01b6064820152608401610726565b60008681526098602090815260408083206001600160a01b038b81168086529184528285208a8703905582518b81529384018a90529092908816917fc3d58168c5ae7397731d063d5bbf3d657854427343f4c083240f7aacaa2d0f62910160405180910390a461206984886000868660405180602001604052806000815250611e64565b600054610100900460ff166124685760405162461bcd60e51b815260040161072690613162565b81516020928301208151919092012061012e9190915561012f55565b606060006124938360026133ce565b61249e906002612efe565b6001600160401b038111156124b5576124b5612841565b6040519080825280601f01601f1916602001820160405280156124df576020820181803683370190505b509050600360fc1b816000815181106124fa576124fa613006565b60200101906001600160f81b031916908160001a905350600f60fb1b8160018151811061252957612529613006565b60200101906001600160f81b031916908160001a905350600061254d8460026133ce565b612558906001612efe565b90505b60018111156125d0576f181899199a1a9b1b9c1cb0b131b232b360811b85600f166010811061258c5761258c613006565b1a60f81b8282815181106125a2576125a2613006565b60200101906001600160f81b031916908160001a90535060049490941c936125c9816133ed565b905061255b565b508315610b195760405162461bcd60e51b815260206004820181905260248201527f537472696e67733a20686578206c656e67746820696e73756666696369656e746044820152606401610726565b612628816121ec565b6040516001600160a01b038216907fbc7cd75a20ee27fd9adebab32041f755214dbc6bffa90cc0225b39da2e5c2d3b90600090a250565b60606001600160a01b0383163b6126c75760405162461bcd60e51b815260206004820152602660248201527f416464726573733a2064656c65676174652063616c6c20746f206e6f6e2d636f6044820152651b9d1c9858dd60d21b6064820152608401610726565b600080846001600160a01b0316846040516126e29190613404565b600060405180830381855af49150503d806000811461271d576040519150601f19603f3d011682016040523d82523d6000602084013e612722565b606091505b509150915061274a828260405180606001604052806027815260200161344160279139612753565b95945050505050565b60608315612762575081610b19565b8251156127725782518084602001fd5b8160405162461bcd60e51b81526004016107269190612a88565b80356001600160a01b0381168114611add57600080fd5b600080604083850312156127b657600080fd5b6127bf8361278c565b946020939093013593505050565b6001600160e01b031981168114610d8957600080fd5b6000602082840312156127f557600080fd5b8135610b19816127cd565b60008083601f84011261281257600080fd5b5081356001600160401b0381111561282957600080fd5b60208301915083602082850101111561207257600080fd5b634e487b7160e01b600052604160045260246000fd5b601f8201601f191681016001600160401b038111828210171561287c5761287c612841565b6040525050565b60405160e081016001600160401b03811182821017156128a5576128a5612841565b60405290565b600082601f8301126128bc57600080fd5b81356001600160401b038111156128d5576128d5612841565b6040516128ec601f8301601f191660200182612857565b81815284602083860101111561290157600080fd5b816020850160208301376000918101602001919091529392505050565b600060e0828403121561293057600080fd5b612938612883565b90506129438261278c565b81526129516020830161278c565b602082015260408201356040820152606082013560608201526080820135608082015260a082013560a082015260c08201356001600160401b0381111561299757600080fd5b6129a3848285016128ab565b60c08301525092915050565b6000806000604084860312156129c457600080fd5b83356001600160401b03808211156129db57600080fd5b6129e787838801612800565b90955093506020860135915080821115612a0057600080fd5b50612a0d8682870161291e565b9150509250925092565b600060208284031215612a2957600080fd5b5035919050565b60005b83811015612a4b578181015183820152602001612a33565b8381111561108b5750506000910152565b60008151808452612a74816020860160208601612a30565b601f01601f19169290920160200192915050565b602081526000610b196020830184612a5c565b600080600060408486031215612ab057600080fd5b83356001600160401b0380821115612ac757600080fd5b612ad38783880161291e565b94506020860135915080821115612ae957600080fd5b50612af686828701612800565b9497909650939450505050565b600060208284031215612b1557600080fd5b610b198261278c565b60006001600160401b03821115612b3757612b37612841565b5060051b60200190565b600082601f830112612b5257600080fd5b81356020612b5f82612b1e565b604051612b6c8282612857565b83815260059390931b8501820192828101915086841115612b8c57600080fd5b8286015b84811015612ba75780358352918301918301612b90565b509695505050505050565b600080600080600060a08688031215612bca57600080fd5b612bd38661278c565b9450612be16020870161278c565b935060408601356001600160401b0380821115612bfd57600080fd5b612c0989838a01612b41565b94506060880135915080821115612c1f57600080fd5b612c2b89838a01612b41565b93506080880135915080821115612c4157600080fd5b50612c4e888289016128ab565b9150509295509295909350565b60008060408385031215612c6e57600080fd5b82359150612c7e6020840161278c565b90509250929050565b60008060408385031215612c9a57600080fd5b82356001600160401b0380821115612cb157600080fd5b818501915085601f830112612cc557600080fd5b81356020612cd282612b1e565b604051612cdf8282612857565b83815260059390931b8501820192828101915089841115612cff57600080fd5b948201945b83861015612d2457612d158661278c565b82529482019490820190612d04565b96505086013592505080821115612d3a57600080fd5b50612d4785828601612b41565b9150509250929050565b600081518084526020808501945080840160005b83811015612d8157815187529582019590820190600101612d65565b509495945050505050565b602081526000610b196020830184612d51565b60008060408385031215612db257600080fd5b612dbb8361278c565b915060208301356001600160401b03811115612dd657600080fd5b612d47858286016128ab565b8015158114610d8957600080fd5b60008060408385031215612e0357600080fd5b612e0c8361278c565b91506020830135612e1c81612de2565b809150509250929050565b600080600060608486031215612e3c57600080fd5b612e458461278c565b95602085013595506040909401359392505050565b60008060408385031215612e6d57600080fd5b612e768361278c565b9150612c7e6020840161278c565b600080600080600060a08688031215612e9c57600080fd5b612ea58661278c565b9450612eb36020870161278c565b9350604086013592506060860135915060808601356001600160401b03811115612edc57600080fd5b612c4e888289016128ab565b634e487b7160e01b600052601160045260246000fd5b60008219821115612f1157612f11612ee8565b500190565b600060208284031215612f2857600080fd5b8151610b1981612de2565b600181811c90821680612f4757607f821691505b60208210811415612f6857634e487b7160e01b600052602260045260246000fd5b50919050565b6020808252602c908201527f46756e6374696f6e206d7573742062652063616c6c6564207468726f7567682060408201526b19195b1959d85d1958d85b1b60a21b606082015260800190565b6020808252602c908201527f46756e6374696f6e206d7573742062652063616c6c6564207468726f7567682060408201526b6163746976652070726f787960a01b606082015260800190565b634e487b7160e01b600052603260045260246000fd5b600060001982141561303057613030612ee8565b5060010190565b8183823760009101908152919050565b60208082526025908201527f455243313135353a207472616e7366657220746f20746865207a65726f206164604082015264647265737360d81b606082015260800190565b6020808252602a908201527f455243313135353a20696e73756666696369656e742062616c616e636520666f60408201526939103a3930b739b332b960b11b606082015260800190565b6040815260006130e96040830185612d51565b8281036020840152610b158185612d51565b60006020828403121561310d57600080fd5b5051919050565b6020808252602e908201527f496e697469616c697a61626c653a20636f6e747261637420697320616c72656160408201526d191e481a5b9a5d1a585b1a5e995960921b606082015260800190565b6020808252602b908201527f496e697469616c697a61626c653a20636f6e7472616374206973206e6f74206960408201526a6e697469616c697a696e6760a81b606082015260800190565b6001600160a01b03868116825285166020820152604081018490526060810183905260a0608082018190526000906131e790830184612a5c565b979650505050505050565b60006020828403121561320457600080fd5b8151610b19816127cd565b600060033d11156110335760046000803e5060005160e01c90565b600060443d10156132385790565b6040516003193d81016004833e81513d6001600160401b03816024840111818411171561326757505050505090565b828501915081518181111561327f5750505050505090565b843d87010160208285010111156132995750505050505090565b6132a860208286010187612857565b509095945050505050565b60208082526028908201527f455243313135353a204552433131353552656365697665722072656a656374656040820152676420746f6b656e7360c01b606082015260800190565b6001600160a01b0386811682528516602082015260a06040820181905260009061332790830186612d51565b82810360608401526133398186612d51565b9050828103608084015261334d8185612a5c565b98975050505050505050565b7f416363657373436f6e74726f6c3a206163636f756e7420000000000000000000815260008351613391816017850160208801612a30565b7001034b99036b4b9b9b4b733903937b6329607d1b60179184019182015283516133c2816028840160208801612a30565b01602801949350505050565b60008160001904831182151516156133e8576133e8612ee8565b500290565b6000816133fc576133fc612ee8565b506000190190565b60008251613416818460208701612a30565b919091019291505056fe360894a13ba1a3210667c828492db98dca3e2076cc3735a920a3ca505d382bbc416464726573733a206c6f772d6c6576656c2064656c65676174652063616c6c206661696c6564a26469706673582212206f8ea2edea725dcbb255fa849ca1c63c5d9416fbb04510ebd4e2f3fc705336cc64736f6c63430008090033",
  "immutableReferences": {
    "434": [
      {
        "length": 32,
        "start": 1207
      },
      {
        "length": 32,
        "start": 8317
      }
    ],
    "1249": [
      {
        "length": 32,
        "start": 3255
      },
      {
        "length": 32,
        "start": 3319
      },
      {
        "length": 32,
        "start": 3776
      },
      {
        "length": 32,
        "start": 3840
      },
      {
        "length": 32,
        "start": 3983
      }
    ]
  },
  "source": "// SPDX-License-Identifier: MIT\npragma solidity 0.8.9;\n\nimport \"./IMelandChainERC1155.sol\";\nimport \"@openzeppelin/contracts-upgradeable/proxy/utils/UUPSUpgradeable.sol\";\nimport \"@openzeppelin/contracts-upgradeable/token/ERC1155/IERC1155ReceiverUpgradeable.sol\";\nimport \"@openzeppelin/contracts-upgradeable/token/ERC1155/extensions/IERC1155MetadataURIUpgradeable.sol\";\nimport \"@openzeppelin/contracts-upgradeable/utils/AddressUpgradeable.sol\";\nimport \"@openzeppelin/contracts-upgradeable/utils/introspection/ERC165Upgradeable.sol\";\nimport \"@openzeppelin/contracts-upgradeable/metatx/ERC2771ContextUpgradeable.sol\";\nimport \"@openzeppelin/contracts-upgradeable/utils/cryptography/ECDSAUpgradeable.sol\";\nimport \"@openzeppelin/contracts-upgradeable/utils/cryptography/draft-EIP712Upgradeable.sol\";\nimport \"./IMelandCID.sol\";\nimport \"../metatx/IMelandForwarder.sol\";\nimport \"./ERC1155Upgradeable.sol\";\nimport \"../common/MelandAccessRoles.sol\";\n\n// Cross-chain NFT of Meland subchains.\n// Implemented to allow NFTs from the Meland subchain to circulate and be traded on the public chain.\n// Allowing a part of contracts, marketplace, AMM exchange to construct it based on user's signature and meland mpc's signature.\n// Then when the user buys it, it is charged to the Meland subchain\ncontract MelandChainERC1155 is\n    Initializable,\n    MelandAccessRoles,\n    ERC1155Upgradeable,\n    IMelandChainERC1155,\n    IMelandCID,\n    UUPSUpgradeable,\n    EIP712Upgradeable,\n    ERC2771ContextUpgradeable\n{\n    using ECDSAUpgradeable for bytes32;\n    using AddressUpgradeable for address;\n\n    bytes32 private constant _TYPEHASH =\n        keccak256(\n            \"SwapinParams(address from,address to,uint256 tokenId,uint256 cid,uint256 value,uint256 nonce,bytes data)\"\n        );\n\n    // set of holders, can be this bridge or other bridges\n    mapping(address => bool) public isHolder;\n    address[] public holders;\n    mapping(uint256 => uint256) private cidByTokenId;\n\n    mapping(address => uint256) private _nonces;\n\n    /// @custom:oz-upgrades-unsafe-allow constructor\n    constructor(address trustedForwarder)\n        ERC2771ContextUpgradeable(trustedForwarder)\n    {}\n\n    function initialize(address mpc) public initializer {\n        __MelandAccessRoles_init(mpc);\n        __UUPSUpgradeable_init();\n        __EIP712_init(\"MelandChainERC1155\", \"1\");\n    }\n\n    function getNonce(address from) public view returns (uint256) {\n        return _nonces[from];\n    }\n\n    /**\n     * @dev See {IERC165-supportsInterface}.\n     */\n    function supportsInterface(bytes4 interfaceId)\n        public\n        view\n        virtual\n        override(\n            AccessControlUpgradeable,\n            ERC1155Upgradeable,\n            IERC165Upgradeable\n        )\n        returns (bool)\n    {\n        return\n            interfaceId == type(IERC1155Upgradeable).interfaceId ||\n            interfaceId == type(IERC1155MetadataURIUpgradeable).interfaceId ||\n            interfaceId == type(IMelandChainERC1155).interfaceId ||\n            interfaceId == type(IMelandCID).interfaceId ||\n            super.supportsInterface(interfaceId);\n    }\n\n    function addHolder(address holder) public onlyRole(GM_ROLE) {\n        isHolder[holder] = true;\n        holders.push(holder);\n    }\n\n    function callSwapoutWithTokenId(\n        address to,\n        uint256 tokenId,\n        uint256 value\n    ) external {\n        address from = _msgSender();\n        _callSwapoutWithTokenId(from, to, tokenId, value);\n    }\n\n    function _callSwapoutWithTokenId(\n        address from,\n        address to,\n        uint256 tokenId,\n        uint256 value\n    ) internal {\n        _burn(from, tokenId, value);\n        emit SwapoutWithTokenId(to, tokenId, value);\n    }\n\n    function _MPCPermit2Keccak256(bytes calldata signature)\n        internal\n        pure\n        returns (bytes32)\n    {\n        return keccak256(signature);\n    }\n\n    function verify(SwapinParams memory swapinparams, bytes calldata signature)\n        public\n        view\n        returns (bool)\n    {\n        // TODO\n        return true;\n        // \"SwapinParams(address from,address to,uint256 tokenId,uint256 cid,uint256 value,uint256 nonce,bytes data)\"\n        address signer = _hashTypedDataV4(\n            keccak256(\n                abi.encode(\n                    _TYPEHASH,\n                    swapinparams.from,\n                    swapinparams.to,\n                    swapinparams.tokenId,\n                    swapinparams.cid,\n                    swapinparams.value,\n                    swapinparams.nonce,\n                    keccak256(swapinparams.data)\n                )\n            )\n        ).recover(signature);\n        return\n            _nonces[swapinparams.from] == swapinparams.nonce &&\n            hasRole(MINTER_ROLE, signer);\n    }\n\n    function callSwapinWithTokenId(\n        bytes calldata signature,\n        SwapinParams memory swapinparams\n    ) external {\n        require(\n            verify(swapinparams, signature),\n            \"Meland.ai.MelandChainERC1155#callSwapinWithTokenId: Invalid signature\"\n        );\n        _nonces[swapinparams.from] = swapinparams.nonce + 1;\n        bytes32 signatureKeccak256 = _MPCPermit2Keccak256(signature);\n        cidByTokenId[swapinparams.tokenId] = swapinparams.cid;\n\n        // TODO test\n        bool success = true;\n        _mint(\n            swapinparams.from,\n            swapinparams.to,\n            swapinparams.tokenId,\n            swapinparams.value,\n            swapinparams.data\n        );\n        if (success) {\n            emit SwapinWithTokenId(\n                signatureKeccak256,\n                swapinparams.to,\n                swapinparams.tokenId,\n                swapinparams.value\n            );\n        } else {\n            emit RefundSwapin(signatureKeccak256, \"\");\n        }\n\n        address realsender = msg.sender;\n        if (\n            realsender.isContract() &&\n            IERC165Upgradeable(realsender).supportsInterface(\n                type(IMelandForwarder).interfaceId\n            )\n        ) {\n            IMelandForwarder(realsender).setExecuted(success);\n        }\n    }\n\n    function _authorizeUpgrade(address newImplementation)\n        internal\n        override\n        onlyRole(UPGRADER_ROLE)\n    {}\n\n    function _msgData()\n        internal\n        view\n        virtual\n        override(ContextUpgradeable, ERC2771ContextUpgradeable)\n        returns (bytes calldata)\n    {\n        return ERC2771ContextUpgradeable._msgData();\n    }\n\n    function _msgSender()\n        internal\n        view\n        virtual\n        override(ContextUpgradeable, ERC2771ContextUpgradeable)\n        returns (address)\n    {\n        return ERC2771ContextUpgradeable._msgSender();\n    }\n\n    function getCidByTokenId(uint256 tokenId) external view returns (uint256) {\n        return cidByTokenId[tokenId];\n    }\n\n    // The following functions are overrides required by Solidity.\n    function _afterTokenTransfer(\n        address operator,\n        address from,\n        address to,\n        uint256[] memory ids,\n        uint256[] memory amounts,\n        bytes memory data\n    ) internal override(ERC1155Upgradeable) {\n        if (to != address(0) && !isHolder[to]) {\n            for (uint256 i = 0; i < ids.length; i++) {\n                _callSwapoutWithTokenId(to, to, ids[i], amounts[i]);\n            }\n        }\n        super._afterTokenTransfer(operator, from, to, ids, amounts, data);\n    }\n}\n",
  "sourcePath": "/Users/alberthuang/code/contracts-v2/contracts/nft/MelandChainERC1155.sol",
  "compiler": {
    "name": "solc",
    "version": "0.8.9+commit.e5eed63a.Emscripten.clang"
  },
  "schemaVersion": "3.4.5",
  "updatedAt": "2022-07-04T14:08:58.051Z",
  "devdoc": {
    "kind": "dev",
    "methods": {
      "balanceOf(address,uint256)": {
        "details": "See {IERC1155-balanceOf}. Requirements: - `account` cannot be the zero address."
      },
      "balanceOfBatch(address[],uint256[])": {
        "details": "See {IERC1155-balanceOfBatch}. Requirements: - `accounts` and `ids` must have the same length."
      },
      "constructor": {
        "custom:oz-upgrades-unsafe-allow": "constructor"
      },
      "getRoleAdmin(bytes32)": {
        "details": "Returns the admin role that controls `role`. See {grantRole} and {revokeRole}. To change a role's admin, use {_setRoleAdmin}."
      },
      "grantRole(bytes32,address)": {
        "details": "Grants `role` to `account`. If `account` had not been already granted `role`, emits a {RoleGranted} event. Requirements: - the caller must have ``role``'s admin role."
      },
      "hasRole(bytes32,address)": {
        "details": "Returns `true` if `account` has been granted `role`."
      },
      "isApprovedForAll(address,address)": {
        "details": "See {IERC1155-isApprovedForAll}."
      },
      "proxiableUUID()": {
        "details": "Implementation of the ERC1822 {proxiableUUID} function. This returns the storage slot used by the implementation. It is used to validate that the this implementation remains valid after an upgrade. IMPORTANT: A proxy pointing at a proxiable contract should not be considered proxiable itself, because this risks bricking a proxy that upgrades to it, by delegating to itself until out of gas. Thus it is critical that this function revert if invoked through a proxy. This is guaranteed by the `notDelegated` modifier."
      },
      "renounceRole(bytes32,address)": {
        "details": "Revokes `role` from the calling account. Roles are often managed via {grantRole} and {revokeRole}: this function's purpose is to provide a mechanism for accounts to lose their privileges if they are compromised (such as when a trusted device is misplaced). If the calling account had been revoked `role`, emits a {RoleRevoked} event. Requirements: - the caller must be `account`."
      },
      "revokeRole(bytes32,address)": {
        "details": "Revokes `role` from `account`. If `account` had been granted `role`, emits a {RoleRevoked} event. Requirements: - the caller must have ``role``'s admin role."
      },
      "safeBatchTransferFrom(address,address,uint256[],uint256[],bytes)": {
        "details": "See {IERC1155-safeBatchTransferFrom}."
      },
      "safeTransferFrom(address,address,uint256,uint256,bytes)": {
        "details": "See {IERC1155-safeTransferFrom}."
      },
      "setApprovalForAll(address,bool)": {
        "details": "See {IERC1155-setApprovalForAll}."
      },
      "supportsInterface(bytes4)": {
        "details": "See {IERC165-supportsInterface}."
      },
      "upgradeTo(address)": {
        "details": "Upgrade the implementation of the proxy to `newImplementation`. Calls {_authorizeUpgrade}. Emits an {Upgraded} event."
      },
      "upgradeToAndCall(address,bytes)": {
        "details": "Upgrade the implementation of the proxy to `newImplementation`, and subsequently execute the function call encoded in `data`. Calls {_authorizeUpgrade}. Emits an {Upgraded} event."
      },
      "uri(uint256)": {
        "details": "See {IERC1155MetadataURI-uri}. This implementation returns the same URI for *all* token types. It relies on the token type ID substitution mechanism https://eips.ethereum.org/EIPS/eip-1155#metadata[defined in the EIP]. Clients calling this function must replace the `\\{id\\}` substring with the actual token type ID."
      }
    },
    "version": 1
  },
  "userdoc": {
    "kind": "user",
    "methods": {},
    "version": 1
  }
}