{
  "contractName": "Migrations",
  "abi": [
    {
      "inputs": [
        {
          "internalType": "address",
          "name": "_deployder",
          "type": "address"
        }
      ],
      "stateMutability": "nonpayable",
      "type": "constructor"
    },
    {
      "inputs": [],
      "name": "deployder",
      "outputs": [
        {
          "internalType": "address",
          "name": "",
          "type": "address"
        }
      ],
      "stateMutability": "view",
      "type": "function",
      "constant": true
    },
    {
      "inputs": [],
      "name": "last_completed_migration",
      "outputs": [
        {
          "internalType": "uint256",
          "name": "",
          "type": "uint256"
        }
      ],
      "stateMutability": "view",
      "type": "function",
      "constant": true
    },
    {
      "inputs": [],
      "name": "owner",
      "outputs": [
        {
          "internalType": "address",
          "name": "",
          "type": "address"
        }
      ],
      "stateMutability": "view",
      "type": "function",
      "constant": true
    },
    {
      "inputs": [
        {
          "internalType": "uint256",
          "name": "completed",
          "type": "uint256"
        }
      ],
      "name": "setCompleted",
      "outputs": [],
      "stateMutability": "nonpayable",
      "type": "function"
    },
    {
      "inputs": [
        {
          "internalType": "string",
          "name": "name",
          "type": "string"
        }
      ],
      "name": "getProxy",
      "outputs": [
        {
          "internalType": "address",
          "name": "",
          "type": "address"
        }
      ],
      "stateMutability": "view",
      "type": "function",
      "constant": true
    },
    {
      "inputs": [
        {
          "internalType": "string",
          "name": "name",
          "type": "string"
        },
        {
          "internalType": "bytes",
          "name": "_code",
          "type": "bytes"
        },
        {
          "internalType": "bytes",
          "name": "_data",
          "type": "bytes"
        }
      ],
      "name": "deploy",
      "outputs": [
        {
          "internalType": "contract ERC1967Proxy",
          "name": "",
          "type": "address"
        }
      ],
      "stateMutability": "nonpayable",
      "type": "function"
    },
    {
      "inputs": [
        {
          "internalType": "string",
          "name": "name",
          "type": "string"
        },
        {
          "internalType": "bytes",
          "name": "_code",
          "type": "bytes"
        }
      ],
      "name": "upgrade",
      "outputs": [
        {
          "internalType": "contract ERC1967Proxy",
          "name": "",
          "type": "address"
        }
      ],
      "stateMutability": "nonpayable",
      "type": "function"
    }
  ],
  "bytecode": "0x6080604052600080546001600160a01b0319163317905534801561002257600080fd5b5060405161110438038061110483398101604081905261004191610066565b600180546001600160a01b0319166001600160a01b0392909216919091179055610096565b60006020828403121561007857600080fd5b81516001600160a01b038116811461008f57600080fd5b9392505050565b61105f806100a56000396000f3fe60806040523480156200001157600080fd5b5060043610620000875760003560e01c80638da5cb5b11620000625780638da5cb5b14620000ed57806397d7246d1462000101578063fdacd5761462000118578063fdf77192146200013157600080fd5b806318433e83146200008c578063445df0ac14620000bd57806366f433a014620000d6575b600080fd5b600154620000a0906001600160a01b031681565b6040516001600160a01b0390911681526020015b60405180910390f35b620000c760025481565b604051908152602001620000b4565b620000a0620000e736600462000602565b62000148565b600054620000a0906001600160a01b031681565b620000a06200011236600462000643565b62000179565b6200012f62000129366004620006d5565b62000223565b005b620000a062000142366004620006ef565b6200026b565b600060036000620001598462000435565b81526020810191909152604001600020546001600160a01b031692915050565b600080546001600160a01b03163314806200019e57506001546001600160a01b031633145b620001c65760405162461bcd60e51b8152600401620001bd906200075a565b60405180910390fd5b60008084604051602001620001dc919062000818565b604051602081830303815290604052805190602001209050808551602087016000f59150813b6200020c57600080fd5b6200021986838662000467565b9695505050505050565b6000546001600160a01b03163314806200024757506001546001600160a01b031633145b620002665760405162461bcd60e51b8152600401620001bd906200075a565b600255565b600080546001600160a01b03163314806200029057506001546001600160a01b031633145b620002af5760405162461bcd60e51b8152600401620001bd906200075a565b6000620002bc8462000148565b90506001600160a01b038116620003085760405162461bcd60e51b815260206004820152600f60248201526e141c9bde1e481b9bdd08199bdd5b99608a1b6044820152606401620001bd565b600080846040516020016200031e919062000818565b604051602081830303815290604052805190602001209050808551602087016000f59150813b6200034e57600080fd5b6040516001600160a01b0383811660248301526000919085169060440160408051601f198184030181529181526020820180516001600160e01b0316631b2ce7f360e11b17905251620003a2919062000834565b6000604051808303816000865af19150503d8060008114620003e1576040519150601f19603f3d011682016040523d82523d6000602084013e620003e6565b606091505b50509050806200042a5760405162461bcd60e51b815260206004820152600e60248201526d155c19dc9859194819985a5b195960921b6044820152606401620001bd565b509195945050505050565b6000816040516020016200044a919062000818565b604051602081830303815290604052805190602001209050919050565b600080620004758562000435565b6000818152600360205260409020549091506001600160a01b031615620004d65760405162461bcd60e51b815260206004820152601460248201527350726f787920616c72656164792065786973747360601b6044820152606401620001bd565b6000818585604051620004e99062000549565b620004f692919062000852565b8190604051809103906000f590508015801562000517573d6000803e3d6000fd5b5060009283526003602052604090922080546001600160a01b0319166001600160a01b03841617905550949350505050565b6107b1806200087983390190565b634e487b7160e01b600052604160045260246000fd5b600082601f8301126200057f57600080fd5b813567ffffffffffffffff808211156200059d576200059d62000557565b604051601f8301601f19908116603f01168101908282118183101715620005c857620005c862000557565b81604052838152866020858801011115620005e257600080fd5b836020870160208301376000602085830101528094505050505092915050565b6000602082840312156200061557600080fd5b813567ffffffffffffffff8111156200062d57600080fd5b6200063b848285016200056d565b949350505050565b6000806000606084860312156200065957600080fd5b833567ffffffffffffffff808211156200067257600080fd5b62000680878388016200056d565b945060208601359150808211156200069757600080fd5b620006a5878388016200056d565b93506040860135915080821115620006bc57600080fd5b50620006cb868287016200056d565b9150509250925092565b600060208284031215620006e857600080fd5b5035919050565b600080604083850312156200070357600080fd5b823567ffffffffffffffff808211156200071c57600080fd5b6200072a868387016200056d565b935060208501359150808211156200074157600080fd5b5062000750858286016200056d565b9150509250929050565b6020808252603f908201527f546869732066756e6374696f6e206973207265737472696374656420746f207460408201527f686520636f6e74726163742773206f776e6572206f72206465706c6f79657200606082015260800190565b60005b83811015620007d4578181015183820152602001620007ba565b83811115620007e4576000848401525b50505050565b6000815180845262000804816020860160208601620007b7565b601f01601f19169290920160200192915050565b6020815260006200082d6020830184620007ea565b9392505050565b6000825162000848818460208701620007b7565b9190910192915050565b6001600160a01b03831681526040602082018190526000906200063b90830184620007ea56fe60806040526040516107b13803806107b183398101604081905261002291610349565b61004d60017f360894a13ba1a3210667c828492db98dca3e2076cc3735a920a3ca505d382bbd610417565b60008051602061076a833981519152146100695761006961043c565b6100758282600061007c565b50506104a1565b610085836100b2565b6000825111806100925750805b156100ad576100ab83836100f260201b6100291760201c565b505b505050565b6100bb8161011e565b6040516001600160a01b038216907fbc7cd75a20ee27fd9adebab32041f755214dbc6bffa90cc0225b39da2e5c2d3b90600090a250565b6060610117838360405180606001604052806027815260200161078a602791396101de565b9392505050565b610131816102bc60201b6100551760201c565b6101985760405162461bcd60e51b815260206004820152602d60248201527f455243313936373a206e657720696d706c656d656e746174696f6e206973206e60448201526c1bdd08184818dbdb9d1c9858dd609a1b60648201526084015b60405180910390fd5b806101bd60008051602061076a83398151915260001b6102cb60201b6100641760201c565b80546001600160a01b0319166001600160a01b039290921691909117905550565b60606001600160a01b0384163b6102465760405162461bcd60e51b815260206004820152602660248201527f416464726573733a2064656c65676174652063616c6c20746f206e6f6e2d636f6044820152651b9d1c9858dd60d21b606482015260840161018f565b600080856001600160a01b0316856040516102619190610452565b600060405180830381855af49150503d806000811461029c576040519150601f19603f3d011682016040523d82523d6000602084013e6102a1565b606091505b5090925090506102b28282866102ce565b9695505050505050565b6001600160a01b03163b151590565b90565b606083156102dd575081610117565b8251156102ed5782518084602001fd5b8160405162461bcd60e51b815260040161018f919061046e565b634e487b7160e01b600052604160045260246000fd5b60005b83811015610338578181015183820152602001610320565b838111156100ab5750506000910152565b6000806040838503121561035c57600080fd5b82516001600160a01b038116811461037357600080fd5b60208401519092506001600160401b038082111561039057600080fd5b818501915085601f8301126103a457600080fd5b8151818111156103b6576103b6610307565b604051601f8201601f19908116603f011681019083821181831017156103de576103de610307565b816040528281528860208487010111156103f757600080fd5b61040883602083016020880161031d565b80955050505050509250929050565b60008282101561043757634e487b7160e01b600052601160045260246000fd5b500390565b634e487b7160e01b600052600160045260246000fd5b6000825161046481846020870161031d565b9190910192915050565b602081526000825180602084015261048d81604085016020870161031d565b601f01601f19169190910160400192915050565b6102ba806104b06000396000f3fe60806040523661001357610011610017565b005b6100115b610027610022610067565b61009f565b565b606061004e838360405180606001604052806027815260200161025e602791396100c3565b9392505050565b6001600160a01b03163b151590565b90565b600061009a7f360894a13ba1a3210667c828492db98dca3e2076cc3735a920a3ca505d382bbc546001600160a01b031690565b905090565b3660008037600080366000845af43d6000803e8080156100be573d6000f35b3d6000fd5b60606001600160a01b0384163b6101305760405162461bcd60e51b815260206004820152602660248201527f416464726573733a2064656c65676174652063616c6c20746f206e6f6e2d636f6044820152651b9d1c9858dd60d21b60648201526084015b60405180910390fd5b600080856001600160a01b03168560405161014b919061020e565b600060405180830381855af49150503d8060008114610186576040519150601f19603f3d011682016040523d82523d6000602084013e61018b565b606091505b509150915061019b8282866101a5565b9695505050505050565b606083156101b457508161004e565b8251156101c45782518084602001fd5b8160405162461bcd60e51b8152600401610127919061022a565b60005b838110156101f95781810151838201526020016101e1565b83811115610208576000848401525b50505050565b600082516102208184602087016101de565b9190910192915050565b60208152600082518060208401526102498160408501602087016101de565b601f01601f1916919091016040019291505056fe416464726573733a206c6f772d6c6576656c2064656c65676174652063616c6c206661696c6564a26469706673582212206a99b83505c08050563fe1c0be965df19794e0665589aa5074b00dd832c415d464736f6c63430008090033360894a13ba1a3210667c828492db98dca3e2076cc3735a920a3ca505d382bbc416464726573733a206c6f772d6c6576656c2064656c65676174652063616c6c206661696c6564a26469706673582212201ce8308a04d5b1c8bc67f228c7b0da169c1ac3d476f42ce9e22fb045dcc2990864736f6c63430008090033",
  "immutableReferences": {},
  "source": "// SPDX-License-Identifier: MIT\npragma solidity 0.8.9;\n\nimport \"@openzeppelin/contracts/proxy/ERC1967/ERC1967Proxy.sol\";\n\ncontract Migrations {\n    address public owner = msg.sender;\n    address public deployder;\n    uint256 public last_completed_migration;\n\n    mapping(bytes32 => address) private _addressBySalt;\n\n    constructor(address _deployder) {\n        deployder = _deployder;\n    }\n\n    modifier restricted() {\n        require(\n            msg.sender == owner || msg.sender == deployder,\n            \"This function is restricted to the contract's owner or deployer\"\n        );\n        _;\n    }\n\n    function setCompleted(uint256 completed) public restricted {\n        last_completed_migration = completed;\n    }\n\n    function getProxy(string memory name) public view returns (address) {\n        return _addressBySalt[name2salt(name)];\n    }\n\n    function name2salt(string memory name) internal pure returns (bytes32) {\n        return keccak256(abi.encode(name));\n    }\n\n    function deploy(\n        string memory name,\n        bytes memory _code,\n        bytes memory _data\n    ) public restricted returns (ERC1967Proxy) {\n        address logicaddr;\n        bytes32 salt = keccak256(abi.encode(_code));\n        assembly {\n            logicaddr := create2(0, add(_code, 0x20), mload(_code), salt)\n            if iszero(extcodesize(logicaddr)) {\n                revert(0, 0)\n            }\n        }\n        return _createProxy(name, logicaddr, _data);\n    }\n\n    function upgrade(string memory name, bytes memory _code)\n        public\n        restricted\n        returns (ERC1967Proxy)\n    {\n        address proxy = getProxy(name);\n        require(proxy != address(0), \"Proxy not found\");\n        address logicaddr;\n        bytes32 salt = keccak256(abi.encode(_code));\n        assembly {\n            logicaddr := create2(0, add(_code, 0x20), mload(_code), salt)\n            if iszero(extcodesize(logicaddr)) {\n                revert(0, 0)\n            }\n        }\n        (bool success, ) = proxy.call(\n            abi.encodeWithSignature(\"upgradeTo(address)\", logicaddr)\n        );\n        require(success, \"Upgrade failed\");\n        return ERC1967Proxy(payable(proxy));\n    }\n\n    function _createProxy(\n        string memory name,\n        address logic,\n        bytes memory initdata\n    ) internal returns (ERC1967Proxy) {\n        bytes32 salt = name2salt(name);\n        require(_addressBySalt[salt] == address(0), \"Proxy already exists\");\n        ERC1967Proxy proxy = new ERC1967Proxy{salt: salt}(logic, initdata);\n        _addressBySalt[salt] = address(proxy);\n        return proxy;\n    }\n}\n",
  "sourcePath": "/Users/alberthuang/code/contracts-v2/contracts/common/Migrations.sol",
  "compiler": {
    "name": "solc",
    "version": "0.8.9+commit.e5eed63a.Emscripten.clang"
  },
  "schemaVersion": "3.4.5",
  "updatedAt": "2022-05-25T07:00:23.162Z",
  "networkType": "ethereum",
  "devdoc": {
    "kind": "dev",
    "methods": {},
    "version": 1
  },
  "userdoc": {
    "kind": "user",
    "methods": {},
    "version": 1
  }
}