{
  "contractName": "ProductManager",
  "abi": [
    {
      "anonymous": false,
      "inputs": [
        {
          "indexed": false,
          "internalType": "address",
          "name": "previousAdmin",
          "type": "address"
        },
        {
          "indexed": false,
          "internalType": "address",
          "name": "newAdmin",
          "type": "address"
        }
      ],
      "name": "AdminChanged",
      "type": "event"
    },
    {
      "anonymous": false,
      "inputs": [
        {
          "indexed": true,
          "internalType": "address",
          "name": "beacon",
          "type": "address"
        }
      ],
      "name": "BeaconUpgraded",
      "type": "event"
    },
    {
      "anonymous": false,
      "inputs": [
        {
          "indexed": false,
          "internalType": "uint8",
          "name": "version",
          "type": "uint8"
        }
      ],
      "name": "Initialized",
      "type": "event"
    },
    {
      "anonymous": false,
      "inputs": [
        {
          "indexed": true,
          "internalType": "bytes32",
          "name": "role",
          "type": "bytes32"
        },
        {
          "indexed": true,
          "internalType": "bytes32",
          "name": "previousAdminRole",
          "type": "bytes32"
        },
        {
          "indexed": true,
          "internalType": "bytes32",
          "name": "newAdminRole",
          "type": "bytes32"
        }
      ],
      "name": "RoleAdminChanged",
      "type": "event"
    },
    {
      "anonymous": false,
      "inputs": [
        {
          "indexed": true,
          "internalType": "bytes32",
          "name": "role",
          "type": "bytes32"
        },
        {
          "indexed": true,
          "internalType": "address",
          "name": "account",
          "type": "address"
        },
        {
          "indexed": true,
          "internalType": "address",
          "name": "sender",
          "type": "address"
        }
      ],
      "name": "RoleGranted",
      "type": "event"
    },
    {
      "anonymous": false,
      "inputs": [
        {
          "indexed": true,
          "internalType": "bytes32",
          "name": "role",
          "type": "bytes32"
        },
        {
          "indexed": true,
          "internalType": "address",
          "name": "account",
          "type": "address"
        },
        {
          "indexed": true,
          "internalType": "address",
          "name": "sender",
          "type": "address"
        }
      ],
      "name": "RoleRevoked",
      "type": "event"
    },
    {
      "anonymous": false,
      "inputs": [
        {
          "indexed": true,
          "internalType": "address",
          "name": "implementation",
          "type": "address"
        }
      ],
      "name": "Upgraded",
      "type": "event"
    },
    {
      "inputs": [],
      "name": "DEFAULT_ADMIN_ROLE",
      "outputs": [
        {
          "internalType": "bytes32",
          "name": "",
          "type": "bytes32"
        }
      ],
      "stateMutability": "view",
      "type": "function"
    },
    {
      "inputs": [],
      "name": "DOMAIN_SEPARATOR",
      "outputs": [
        {
          "internalType": "bytes32",
          "name": "",
          "type": "bytes32"
        }
      ],
      "stateMutability": "view",
      "type": "function"
    },
    {
      "inputs": [],
      "name": "GM_ROLE",
      "outputs": [
        {
          "internalType": "bytes32",
          "name": "",
          "type": "bytes32"
        }
      ],
      "stateMutability": "view",
      "type": "function"
    },
    {
      "inputs": [],
      "name": "MINTER_ROLE",
      "outputs": [
        {
          "internalType": "bytes32",
          "name": "",
          "type": "bytes32"
        }
      ],
      "stateMutability": "view",
      "type": "function"
    },
    {
      "inputs": [],
      "name": "UPGRADER_ROLE",
      "outputs": [
        {
          "internalType": "bytes32",
          "name": "",
          "type": "bytes32"
        }
      ],
      "stateMutability": "view",
      "type": "function"
    },
    {
      "inputs": [
        {
          "internalType": "bytes32",
          "name": "role",
          "type": "bytes32"
        }
      ],
      "name": "getRoleAdmin",
      "outputs": [
        {
          "internalType": "bytes32",
          "name": "",
          "type": "bytes32"
        }
      ],
      "stateMutability": "view",
      "type": "function"
    },
    {
      "inputs": [
        {
          "internalType": "bytes32",
          "name": "role",
          "type": "bytes32"
        },
        {
          "internalType": "address",
          "name": "account",
          "type": "address"
        }
      ],
      "name": "grantRole",
      "outputs": [],
      "stateMutability": "nonpayable",
      "type": "function"
    },
    {
      "inputs": [
        {
          "internalType": "bytes32",
          "name": "role",
          "type": "bytes32"
        },
        {
          "internalType": "address",
          "name": "account",
          "type": "address"
        }
      ],
      "name": "hasRole",
      "outputs": [
        {
          "internalType": "bool",
          "name": "",
          "type": "bool"
        }
      ],
      "stateMutability": "view",
      "type": "function"
    },
    {
      "inputs": [],
      "name": "proxiableUUID",
      "outputs": [
        {
          "internalType": "bytes32",
          "name": "",
          "type": "bytes32"
        }
      ],
      "stateMutability": "view",
      "type": "function"
    },
    {
      "inputs": [
        {
          "internalType": "bytes32",
          "name": "role",
          "type": "bytes32"
        },
        {
          "internalType": "address",
          "name": "account",
          "type": "address"
        }
      ],
      "name": "renounceRole",
      "outputs": [],
      "stateMutability": "nonpayable",
      "type": "function"
    },
    {
      "inputs": [
        {
          "internalType": "bytes32",
          "name": "role",
          "type": "bytes32"
        },
        {
          "internalType": "address",
          "name": "account",
          "type": "address"
        }
      ],
      "name": "revokeRole",
      "outputs": [],
      "stateMutability": "nonpayable",
      "type": "function"
    },
    {
      "inputs": [
        {
          "internalType": "bytes4",
          "name": "interfaceId",
          "type": "bytes4"
        }
      ],
      "name": "supportsInterface",
      "outputs": [
        {
          "internalType": "bool",
          "name": "",
          "type": "bool"
        }
      ],
      "stateMutability": "view",
      "type": "function"
    },
    {
      "inputs": [
        {
          "internalType": "address",
          "name": "newImplementation",
          "type": "address"
        }
      ],
      "name": "upgradeTo",
      "outputs": [],
      "stateMutability": "nonpayable",
      "type": "function"
    },
    {
      "inputs": [
        {
          "internalType": "address",
          "name": "newImplementation",
          "type": "address"
        },
        {
          "internalType": "bytes",
          "name": "data",
          "type": "bytes"
        }
      ],
      "name": "upgradeToAndCall",
      "outputs": [],
      "stateMutability": "payable",
      "type": "function"
    },
    {
      "inputs": [
        {
          "internalType": "address",
          "name": "mpc",
          "type": "address"
        }
      ],
      "name": "initialize",
      "outputs": [],
      "stateMutability": "nonpayable",
      "type": "function"
    },
    {
      "inputs": [
        {
          "internalType": "contract IProductRepository",
          "name": "repository",
          "type": "address"
        }
      ],
      "name": "addRepository",
      "outputs": [],
      "stateMutability": "nonpayable",
      "type": "function"
    },
    {
      "inputs": [
        {
          "internalType": "address",
          "name": "nft",
          "type": "address"
        },
        {
          "internalType": "uint256",
          "name": "tokenId",
          "type": "uint256"
        }
      ],
      "name": "getProductId",
      "outputs": [
        {
          "internalType": "bytes32",
          "name": "",
          "type": "bytes32"
        }
      ],
      "stateMutability": "view",
      "type": "function"
    },
    {
      "inputs": [
        {
          "internalType": "address",
          "name": "nft",
          "type": "address"
        },
        {
          "internalType": "uint256",
          "name": "tokenId",
          "type": "uint256"
        }
      ],
      "name": "getCategory",
      "outputs": [
        {
          "internalType": "string",
          "name": "",
          "type": "string"
        }
      ],
      "stateMutability": "view",
      "type": "function"
    }
  ],
  "bytecode": "0x60a06040523060805234801561001457600080fd5b5060805161198061004c6000396000818161050b0152818161054b015281816105eb0152818161062b01526106ba01526119806000f3fe6080604052600436106101095760003560e01c806352d1902d11610095578063c4d66de811610064578063c4d66de8146102ca578063d5391393146102ea578063d547741f1461031e578063f72c0d8b1461033e578063fc8c27aa1461037257600080fd5b806352d1902d1461026057806378f573641461027557806391d1485414610295578063a217fddf146102b557600080fd5b806330c7be2c116100dc57806330c7be2c146101c35780633644e515146101f757806336568abe1461020d5780633659cfe61461022d5780634f1ef2861461024d57600080fd5b806301ffc9a71461010e578063248a9ca314610143578063262d5068146101815780632f2ff15d146101a3575b600080fd5b34801561011a57600080fd5b5061012e6101293660046113e6565b61039f565b60405190151581526020015b60405180910390f35b34801561014f57600080fd5b5061017361015e366004611410565b60009081526065602052604090206001015490565b60405190815260200161013a565b34801561018d57600080fd5b506101a161019c36600461143e565b6103d6565b005b3480156101af57600080fd5b506101a16101be36600461145b565b610453565b3480156101cf57600080fd5b506101737ff5eb84615c2a00ecaf817d13794ebd6299c9e01c395bf4018453f13f577f544981565b34801561020357600080fd5b5061017360975481565b34801561021957600080fd5b506101a161022836600461145b565b61047d565b34801561023957600080fd5b506101a161024836600461143e565b610500565b6101a161025b3660046114fa565b6105e0565b34801561026c57600080fd5b506101736106ad565b34801561028157600080fd5b5061017361029036600461158d565b610760565b3480156102a157600080fd5b5061012e6102b036600461145b565b6108a0565b3480156102c157600080fd5b50610173600081565b3480156102d657600080fd5b506101a16102e536600461143e565b6108cb565b3480156102f657600080fd5b506101737f9f2df0fed2c77648de5860a4cc508cd0818c85b8b8a1ab4ceeef8d981c8956a681565b34801561032a57600080fd5b506101a161033936600461145b565b610949565b34801561034a57600080fd5b506101737f189ab7a9244df0848122154315af71fe140f3db0fe014031783b0946b8c9d2e381565b34801561037e57600080fd5b5061039261038d36600461158d565b61096e565b60405161013a91906115e5565b60006001600160e01b03198216637965db0b60e01b14806103d057506301ffc9a760e01b6001600160e01b03198316145b92915050565b7ff5eb84615c2a00ecaf817d13794ebd6299c9e01c395bf4018453f13f577f544961040081610ab5565b5060fc80546001810182556000919091527f371f36870d18f32a11fea0f144b021c8b407bb50f8e0267c711123f454b963c00180546001600160a01b0319166001600160a01b0392909216919091179055565b60008281526065602052604090206001015461046e81610ab5565b6104788383610abf565b505050565b6001600160a01b03811633146104f25760405162461bcd60e51b815260206004820152602f60248201527f416363657373436f6e74726f6c3a2063616e206f6e6c792072656e6f756e636560448201526e103937b632b9903337b91039b2b63360891b60648201526084015b60405180910390fd5b6104fc8282610b45565b5050565b306001600160a01b037f00000000000000000000000000000000000000000000000000000000000000001614156105495760405162461bcd60e51b81526004016104e990611618565b7f00000000000000000000000000000000000000000000000000000000000000006001600160a01b0316610592600080516020611904833981519152546001600160a01b031690565b6001600160a01b0316146105b85760405162461bcd60e51b81526004016104e990611664565b6105c181610bac565b604080516000808252602082019092526105dd91839190610bd6565b50565b306001600160a01b037f00000000000000000000000000000000000000000000000000000000000000001614156106295760405162461bcd60e51b81526004016104e990611618565b7f00000000000000000000000000000000000000000000000000000000000000006001600160a01b0316610672600080516020611904833981519152546001600160a01b031690565b6001600160a01b0316146106985760405162461bcd60e51b81526004016104e990611664565b6106a182610bac565b6104fc82826001610bd6565b6000306001600160a01b037f0000000000000000000000000000000000000000000000000000000000000000161461074d5760405162461bcd60e51b815260206004820152603860248201527f555550535570677261646561626c653a206d757374206e6f742062652063616c60448201527f6c6564207468726f7567682064656c656761746563616c6c000000000000000060648201526084016104e9565b5060008051602061190483398151915290565b6000805b60fc5481101561083a5760008060fc8381548110610784576107846116b0565b600091825260209091200154604051631e3d5cd960e21b81526001600160a01b03888116600483015260248201889052909116906378f5736490604401604080518083038186803b1580156107d857600080fd5b505afa1580156107ec573d6000803e3d6000fd5b505050506040513d601f19601f8201168201806040525081019061081091906116d6565b909250905081156108255792506103d0915050565b5050808061083290611718565b915050610764565b5060405162461bcd60e51b815260206004820152603460248201527f4d656c616e642e50726f647563744d616e616765722367657450726f6475637460448201527312590e881b9bc81c1c9bd91d58dd08199bdd5b9960621b60648201526084016104e9565b60009182526065602090815260408084206001600160a01b0393909316845291905290205460ff1690565b60006108d76001610d50565b905080156108ef576000805461ff0019166101001790555b6108f882610ddd565b610900610f3e565b80156104fc576000805461ff0019169055604051600181527f7f26b83ff96e1f2b6a682f133852f6798a09c465da95921460cefb38474024989060200160405180910390a15050565b60008281526065602052604090206001015461096481610ab5565b6104788383610b45565b606060005b60fc54811015610a4f576000606060fc8381548110610994576109946116b0565b600091825260209091200154604051637e4613d560e11b81526001600160a01b038881166004830152602482018890529091169063fc8c27aa9060440160006040518083038186803b1580156109e957600080fd5b505afa1580156109fd573d6000803e3d6000fd5b505050506040513d6000823e601f3d908101601f19168201604052610a259190810190611733565b90925090508115610a3a5792506103d0915050565b50508080610a4790611718565b915050610973565b5060405162461bcd60e51b815260206004820152603460248201527f4d656c616e642e50726f647563744d616e616765722367657443617465676f726044820152731e4e881b9bc818d85d1959dbdc9e48199bdd5b9960621b60648201526084016104e9565b6105dd8133610fab565b610ac982826108a0565b6104fc5760008281526065602090815260408083206001600160a01b03851684529091529020805460ff19166001179055610b013390565b6001600160a01b0316816001600160a01b0316837f2f8788117e7eff1d82e926ec794901d17c78024a50270940304540a733656f0d60405160405180910390a45050565b610b4f82826108a0565b156104fc5760008281526065602090815260408083206001600160a01b0385168085529252808320805460ff1916905551339285917ff6391f5c32d9c69d2a47ea670b442974b53935d1edc7fd64eb21e047a839171b9190a45050565b7f189ab7a9244df0848122154315af71fe140f3db0fe014031783b0946b8c9d2e36104fc81610ab5565b7f4910fdfa16fed3260ed0e7147f7cc6da11a60208b5b9406d12a635614ffd91435460ff1615610c09576104788361100f565b826001600160a01b03166352d1902d6040518163ffffffff1660e01b815260040160206040518083038186803b158015610c4257600080fd5b505afa925050508015610c72575060408051601f3d908101601f19168201909252610c6f918101906117bd565b60015b610cd55760405162461bcd60e51b815260206004820152602e60248201527f45524331393637557067726164653a206e657720696d706c656d656e7461746960448201526d6f6e206973206e6f74205555505360901b60648201526084016104e9565b6000805160206119048339815191528114610d445760405162461bcd60e51b815260206004820152602960248201527f45524331393637557067726164653a20756e737570706f727465642070726f786044820152681a58589b195555525160ba1b60648201526084016104e9565b506104788383836110ab565b60008054610100900460ff1615610d97578160ff166001148015610d735750303b155b610d8f5760405162461bcd60e51b81526004016104e9906117d6565b506000919050565b60005460ff808416911610610dbe5760405162461bcd60e51b81526004016104e9906117d6565b506000805460ff191660ff92909216919091179055600190565b919050565b610de5610f3e565b610df0600082610abf565b610e1a7ff5eb84615c2a00ecaf817d13794ebd6299c9e01c395bf4018453f13f577f544982610abf565b610e447f9f2df0fed2c77648de5860a4cc508cd0818c85b8b8a1ab4ceeef8d981c8956a682610abf565b610e6e7f189ab7a9244df0848122154315af71fe140f3db0fe014031783b0946b8c9d2e333610abf565b5060408051808201825260068152651b595b185b9960d21b6020918201528151808301835260018152603160f81b9082015281517f8b73c3c69bb8fe3d512ecc4cf759cc79239f7b179b0ffacaa9a75d522b39400f818301527f314ed1331a8d68d6e7c652158abe27c46bf91bd45ef86ab66f92d6500b1056eb818401527fc89efdaa54c0f20c7adf612882df0950f5a951637e0307cdcb4c672f298b8bc660608201524660808201523060a0808301919091528351808303909101815260c09091019092528151910120609755565b600054610100900460ff16610fa95760405162461bcd60e51b815260206004820152602b60248201527f496e697469616c697a61626c653a20636f6e7472616374206973206e6f74206960448201526a6e697469616c697a696e6760a81b60648201526084016104e9565b565b610fb582826108a0565b6104fc57610fcd816001600160a01b031660146110d6565b610fd88360206110d6565b604051602001610fe9929190611824565b60408051601f198184030181529082905262461bcd60e51b82526104e9916004016115e5565b6001600160a01b0381163b61107c5760405162461bcd60e51b815260206004820152602d60248201527f455243313936373a206e657720696d706c656d656e746174696f6e206973206e60448201526c1bdd08184818dbdb9d1c9858dd609a1b60648201526084016104e9565b60008051602061190483398151915280546001600160a01b0319166001600160a01b0392909216919091179055565b6110b483611279565b6000825111806110c15750805b15610478576110d083836112b9565b50505050565b606060006110e5836002611899565b6110f09060026118b8565b67ffffffffffffffff8111156111085761110861148b565b6040519080825280601f01601f191660200182016040528015611132576020820181803683370190505b509050600360fc1b8160008151811061114d5761114d6116b0565b60200101906001600160f81b031916908160001a905350600f60fb1b8160018151811061117c5761117c6116b0565b60200101906001600160f81b031916908160001a90535060006111a0846002611899565b6111ab9060016118b8565b90505b6001811115611223576f181899199a1a9b1b9c1cb0b131b232b360811b85600f16601081106111df576111df6116b0565b1a60f81b8282815181106111f5576111f56116b0565b60200101906001600160f81b031916908160001a90535060049490941c9361121c816118d0565b90506111ae565b5083156112725760405162461bcd60e51b815260206004820181905260248201527f537472696e67733a20686578206c656e67746820696e73756666696369656e7460448201526064016104e9565b9392505050565b6112828161100f565b6040516001600160a01b038216907fbc7cd75a20ee27fd9adebab32041f755214dbc6bffa90cc0225b39da2e5c2d3b90600090a250565b60606001600160a01b0383163b6113215760405162461bcd60e51b815260206004820152602660248201527f416464726573733a2064656c65676174652063616c6c20746f206e6f6e2d636f6044820152651b9d1c9858dd60d21b60648201526084016104e9565b600080846001600160a01b03168460405161133c91906118e7565b600060405180830381855af49150503d8060008114611377576040519150601f19603f3d011682016040523d82523d6000602084013e61137c565b606091505b50915091506113a48282604051806060016040528060278152602001611924602791396113ad565b95945050505050565b606083156113bc575081611272565b8251156113cc5782518084602001fd5b8160405162461bcd60e51b81526004016104e991906115e5565b6000602082840312156113f857600080fd5b81356001600160e01b03198116811461127257600080fd5b60006020828403121561142257600080fd5b5035919050565b6001600160a01b03811681146105dd57600080fd5b60006020828403121561145057600080fd5b813561127281611429565b6000806040838503121561146e57600080fd5b82359150602083013561148081611429565b809150509250929050565b634e487b7160e01b600052604160045260246000fd5b604051601f8201601f1916810167ffffffffffffffff811182821017156114ca576114ca61148b565b604052919050565b600067ffffffffffffffff8211156114ec576114ec61148b565b50601f01601f191660200190565b6000806040838503121561150d57600080fd5b823561151881611429565b9150602083013567ffffffffffffffff81111561153457600080fd5b8301601f8101851361154557600080fd5b8035611558611553826114d2565b6114a1565b81815286602083850101111561156d57600080fd5b816020840160208301376000602083830101528093505050509250929050565b600080604083850312156115a057600080fd5b82356115ab81611429565b946020939093013593505050565b60005b838110156115d45781810151838201526020016115bc565b838111156110d05750506000910152565b60208152600082518060208401526116048160408501602087016115b9565b601f01601f19169190910160400192915050565b6020808252602c908201527f46756e6374696f6e206d7573742062652063616c6c6564207468726f7567682060408201526b19195b1959d85d1958d85b1b60a21b606082015260800190565b6020808252602c908201527f46756e6374696f6e206d7573742062652063616c6c6564207468726f7567682060408201526b6163746976652070726f787960a01b606082015260800190565b634e487b7160e01b600052603260045260246000fd5b80518015158114610dd857600080fd5b600080604083850312156116e957600080fd5b6116f2836116c6565b9150602083015190509250929050565b634e487b7160e01b600052601160045260246000fd5b600060001982141561172c5761172c611702565b5060010190565b6000806040838503121561174657600080fd5b61174f836116c6565b9150602083015167ffffffffffffffff81111561176b57600080fd5b8301601f8101851361177c57600080fd5b805161178a611553826114d2565b81815286602083850101111561179f57600080fd5b6117b08260208301602086016115b9565b8093505050509250929050565b6000602082840312156117cf57600080fd5b5051919050565b6020808252602e908201527f496e697469616c697a61626c653a20636f6e747261637420697320616c72656160408201526d191e481a5b9a5d1a585b1a5e995960921b606082015260800190565b7f416363657373436f6e74726f6c3a206163636f756e742000000000000000000081526000835161185c8160178501602088016115b9565b7001034b99036b4b9b9b4b733903937b6329607d1b601791840191820152835161188d8160288401602088016115b9565b01602801949350505050565b60008160001904831182151516156118b3576118b3611702565b500290565b600082198211156118cb576118cb611702565b500190565b6000816118df576118df611702565b506000190190565b600082516118f98184602087016115b9565b919091019291505056fe360894a13ba1a3210667c828492db98dca3e2076cc3735a920a3ca505d382bbc416464726573733a206c6f772d6c6576656c2064656c65676174652063616c6c206661696c6564a2646970667358221220af2d508b4921c264657ffc21ee251c2f5c796e1e7b46a9948fec9d9d17a7b38664736f6c63430008090033",
  "immutableReferences": {
    "1061": [
      {
        "length": 32,
        "start": 1291
      },
      {
        "length": 32,
        "start": 1355
      },
      {
        "length": 32,
        "start": 1515
      },
      {
        "length": 32,
        "start": 1579
      },
      {
        "length": 32,
        "start": 1722
      }
    ]
  },
  "source": "// SPDX-License-Identifier: MIT\npragma solidity 0.8.9;\n\nimport \"@openzeppelin/contracts-upgradeable/access/AccessControlUpgradeable.sol\";\nimport \"@openzeppelin/contracts-upgradeable/proxy/utils/Initializable.sol\";\nimport \"@openzeppelin/contracts-upgradeable/proxy/utils/UUPSUpgradeable.sol\";\nimport \"@openzeppelin/contracts-upgradeable/security/PausableUpgradeable.sol\";\nimport \"@openzeppelin/contracts-upgradeable/utils/CountersUpgradeable.sol\";\nimport \"@openzeppelin/contracts-upgradeable/utils/math/SafeMathUpgradeable.sol\";\nimport \"@openzeppelin/contracts-upgradeable/utils/AddressUpgradeable.sol\";\nimport \"../common/MelandAccessRoles.sol\";\nimport \"./IProductManager.sol\";\nimport \"./IProductRepository.sol\";\n\ncontract ProductManager is Initializable, MelandAccessRoles, UUPSUpgradeable, IProductManager {\n    using AddressUpgradeable for address;\n    using SafeMathUpgradeable for uint256;\n\n    IProductRepository[] private _productRepositories;\n\n    function initialize(address mpc) public initializer {\n        __MelandAccessRoles_init(mpc);\n        __UUPSUpgradeable_init();\n    }\n\n    function addRepository(IProductRepository repository) external onlyRole(GM_ROLE) {\n        _productRepositories.push(repository);\n    }\n\n    // NFTtokenId\n    // id.\n    // bool -> \n    // bytes32 -> id\n    function getProductId(address nft, uint256 tokenId) external view returns(bytes32) {\n        for (uint256 i = 0; i < _productRepositories.length; i++) {\n            bool rmatch;\n            bytes32 productId;\n            (rmatch, productId) = _productRepositories[i].getProductId(nft, tokenId);\n            if (rmatch) {\n                return productId;\n            }\n        }\n        revert(\"Meland.ProductManager#getProductId: no product found\");\n    }\n\n    // NFTtokenId\n    // \n    // bool -> \n    function getCategory(address nft, uint256 tokenId) external view returns(string memory) {\n        for (uint256 i = 0; i < _productRepositories.length; i++) {\n            bool rmatch;\n            string memory category;\n            (rmatch, category) = _productRepositories[i].getCategory(nft, tokenId);\n            if (rmatch) {\n                return category;\n            }\n        }\n        revert(\"Meland.ProductManager#getCategory: no category found\");\n    }\n\n    function _authorizeUpgrade(address newImplementation)\n        internal\n        override\n        onlyRole(UPGRADER_ROLE)\n    {\n        \n    }\n}\n",
  "sourcePath": "/Users/alberthuang/code/contracts-v2/contracts/nft/ProductManager.sol",
  "compiler": {
    "name": "solc",
    "version": "0.8.9+commit.e5eed63a.Emscripten.clang"
  },
  "schemaVersion": "3.4.5",
  "updatedAt": "2022-05-25T07:00:07.376Z",
  "devdoc": {
    "kind": "dev",
    "methods": {
      "getRoleAdmin(bytes32)": {
        "details": "Returns the admin role that controls `role`. See {grantRole} and {revokeRole}. To change a role's admin, use {_setRoleAdmin}."
      },
      "grantRole(bytes32,address)": {
        "details": "Grants `role` to `account`. If `account` had not been already granted `role`, emits a {RoleGranted} event. Requirements: - the caller must have ``role``'s admin role."
      },
      "hasRole(bytes32,address)": {
        "details": "Returns `true` if `account` has been granted `role`."
      },
      "proxiableUUID()": {
        "details": "Implementation of the ERC1822 {proxiableUUID} function. This returns the storage slot used by the implementation. It is used to validate that the this implementation remains valid after an upgrade. IMPORTANT: A proxy pointing at a proxiable contract should not be considered proxiable itself, because this risks bricking a proxy that upgrades to it, by delegating to itself until out of gas. Thus it is critical that this function revert if invoked through a proxy. This is guaranteed by the `notDelegated` modifier."
      },
      "renounceRole(bytes32,address)": {
        "details": "Revokes `role` from the calling account. Roles are often managed via {grantRole} and {revokeRole}: this function's purpose is to provide a mechanism for accounts to lose their privileges if they are compromised (such as when a trusted device is misplaced). If the calling account had been revoked `role`, emits a {RoleRevoked} event. Requirements: - the caller must be `account`."
      },
      "revokeRole(bytes32,address)": {
        "details": "Revokes `role` from `account`. If `account` had been granted `role`, emits a {RoleRevoked} event. Requirements: - the caller must have ``role``'s admin role."
      },
      "supportsInterface(bytes4)": {
        "details": "See {IERC165-supportsInterface}."
      },
      "upgradeTo(address)": {
        "details": "Upgrade the implementation of the proxy to `newImplementation`. Calls {_authorizeUpgrade}. Emits an {Upgraded} event."
      },
      "upgradeToAndCall(address,bytes)": {
        "details": "Upgrade the implementation of the proxy to `newImplementation`, and subsequently execute the function call encoded in `data`. Calls {_authorizeUpgrade}. Emits an {Upgraded} event."
      }
    },
    "version": 1
  },
  "userdoc": {
    "kind": "user",
    "methods": {},
    "version": 1
  }
}