{
  "contractName": "ProductManager",
  "abi": [
    {
      "anonymous": false,
      "inputs": [
        {
          "indexed": false,
          "internalType": "address",
          "name": "previousAdmin",
          "type": "address"
        },
        {
          "indexed": false,
          "internalType": "address",
          "name": "newAdmin",
          "type": "address"
        }
      ],
      "name": "AdminChanged",
      "type": "event"
    },
    {
      "anonymous": false,
      "inputs": [
        {
          "indexed": true,
          "internalType": "address",
          "name": "beacon",
          "type": "address"
        }
      ],
      "name": "BeaconUpgraded",
      "type": "event"
    },
    {
      "anonymous": false,
      "inputs": [
        {
          "indexed": false,
          "internalType": "uint8",
          "name": "version",
          "type": "uint8"
        }
      ],
      "name": "Initialized",
      "type": "event"
    },
    {
      "anonymous": false,
      "inputs": [
        {
          "indexed": true,
          "internalType": "bytes32",
          "name": "role",
          "type": "bytes32"
        },
        {
          "indexed": true,
          "internalType": "bytes32",
          "name": "previousAdminRole",
          "type": "bytes32"
        },
        {
          "indexed": true,
          "internalType": "bytes32",
          "name": "newAdminRole",
          "type": "bytes32"
        }
      ],
      "name": "RoleAdminChanged",
      "type": "event"
    },
    {
      "anonymous": false,
      "inputs": [
        {
          "indexed": true,
          "internalType": "bytes32",
          "name": "role",
          "type": "bytes32"
        },
        {
          "indexed": true,
          "internalType": "address",
          "name": "account",
          "type": "address"
        },
        {
          "indexed": true,
          "internalType": "address",
          "name": "sender",
          "type": "address"
        }
      ],
      "name": "RoleGranted",
      "type": "event"
    },
    {
      "anonymous": false,
      "inputs": [
        {
          "indexed": true,
          "internalType": "bytes32",
          "name": "role",
          "type": "bytes32"
        },
        {
          "indexed": true,
          "internalType": "address",
          "name": "account",
          "type": "address"
        },
        {
          "indexed": true,
          "internalType": "address",
          "name": "sender",
          "type": "address"
        }
      ],
      "name": "RoleRevoked",
      "type": "event"
    },
    {
      "anonymous": false,
      "inputs": [
        {
          "indexed": true,
          "internalType": "address",
          "name": "implementation",
          "type": "address"
        }
      ],
      "name": "Upgraded",
      "type": "event"
    },
    {
      "inputs": [],
      "name": "DEFAULT_ADMIN_ROLE",
      "outputs": [
        {
          "internalType": "bytes32",
          "name": "",
          "type": "bytes32"
        }
      ],
      "stateMutability": "view",
      "type": "function",
      "constant": true
    },
    {
      "inputs": [],
      "name": "DOMAIN_SEPARATOR",
      "outputs": [
        {
          "internalType": "bytes32",
          "name": "",
          "type": "bytes32"
        }
      ],
      "stateMutability": "view",
      "type": "function",
      "constant": true
    },
    {
      "inputs": [],
      "name": "GM_ROLE",
      "outputs": [
        {
          "internalType": "bytes32",
          "name": "",
          "type": "bytes32"
        }
      ],
      "stateMutability": "view",
      "type": "function",
      "constant": true
    },
    {
      "inputs": [],
      "name": "MINTER_ROLE",
      "outputs": [
        {
          "internalType": "bytes32",
          "name": "",
          "type": "bytes32"
        }
      ],
      "stateMutability": "view",
      "type": "function",
      "constant": true
    },
    {
      "inputs": [],
      "name": "UPGRADER_ROLE",
      "outputs": [
        {
          "internalType": "bytes32",
          "name": "",
          "type": "bytes32"
        }
      ],
      "stateMutability": "view",
      "type": "function",
      "constant": true
    },
    {
      "inputs": [
        {
          "internalType": "bytes32",
          "name": "role",
          "type": "bytes32"
        }
      ],
      "name": "getRoleAdmin",
      "outputs": [
        {
          "internalType": "bytes32",
          "name": "",
          "type": "bytes32"
        }
      ],
      "stateMutability": "view",
      "type": "function",
      "constant": true
    },
    {
      "inputs": [
        {
          "internalType": "bytes32",
          "name": "role",
          "type": "bytes32"
        },
        {
          "internalType": "address",
          "name": "account",
          "type": "address"
        }
      ],
      "name": "grantRole",
      "outputs": [],
      "stateMutability": "nonpayable",
      "type": "function"
    },
    {
      "inputs": [
        {
          "internalType": "bytes32",
          "name": "role",
          "type": "bytes32"
        },
        {
          "internalType": "address",
          "name": "account",
          "type": "address"
        }
      ],
      "name": "hasRole",
      "outputs": [
        {
          "internalType": "bool",
          "name": "",
          "type": "bool"
        }
      ],
      "stateMutability": "view",
      "type": "function",
      "constant": true
    },
    {
      "inputs": [],
      "name": "proxiableUUID",
      "outputs": [
        {
          "internalType": "bytes32",
          "name": "",
          "type": "bytes32"
        }
      ],
      "stateMutability": "view",
      "type": "function",
      "constant": true
    },
    {
      "inputs": [
        {
          "internalType": "bytes32",
          "name": "role",
          "type": "bytes32"
        },
        {
          "internalType": "address",
          "name": "account",
          "type": "address"
        }
      ],
      "name": "renounceRole",
      "outputs": [],
      "stateMutability": "nonpayable",
      "type": "function"
    },
    {
      "inputs": [
        {
          "internalType": "bytes32",
          "name": "role",
          "type": "bytes32"
        },
        {
          "internalType": "address",
          "name": "account",
          "type": "address"
        }
      ],
      "name": "revokeRole",
      "outputs": [],
      "stateMutability": "nonpayable",
      "type": "function"
    },
    {
      "inputs": [
        {
          "internalType": "bytes4",
          "name": "interfaceId",
          "type": "bytes4"
        }
      ],
      "name": "supportsInterface",
      "outputs": [
        {
          "internalType": "bool",
          "name": "",
          "type": "bool"
        }
      ],
      "stateMutability": "view",
      "type": "function",
      "constant": true
    },
    {
      "inputs": [
        {
          "internalType": "address",
          "name": "newImplementation",
          "type": "address"
        }
      ],
      "name": "upgradeTo",
      "outputs": [],
      "stateMutability": "nonpayable",
      "type": "function"
    },
    {
      "inputs": [
        {
          "internalType": "address",
          "name": "newImplementation",
          "type": "address"
        },
        {
          "internalType": "bytes",
          "name": "data",
          "type": "bytes"
        }
      ],
      "name": "upgradeToAndCall",
      "outputs": [],
      "stateMutability": "payable",
      "type": "function",
      "payable": true
    },
    {
      "inputs": [
        {
          "internalType": "address",
          "name": "mpc",
          "type": "address"
        }
      ],
      "name": "initialize",
      "outputs": [],
      "stateMutability": "nonpayable",
      "type": "function"
    },
    {
      "inputs": [
        {
          "internalType": "contract IProductRepository",
          "name": "repository",
          "type": "address"
        }
      ],
      "name": "addRepository",
      "outputs": [],
      "stateMutability": "nonpayable",
      "type": "function"
    },
    {
      "inputs": [
        {
          "internalType": "address",
          "name": "nft",
          "type": "address"
        },
        {
          "internalType": "uint256",
          "name": "tokenId",
          "type": "uint256"
        }
      ],
      "name": "getProductId",
      "outputs": [
        {
          "internalType": "bytes32",
          "name": "",
          "type": "bytes32"
        }
      ],
      "stateMutability": "view",
      "type": "function",
      "constant": true
    }
  ],
  "bytecode": "0x60a06040523060805234801561001457600080fd5b5060805161191b61004c600039600081816104d301528181610513015281816105b3015281816105f30152610682015261191b6000f3fe6080604052600436106100fe5760003560e01c80634f1ef28611610095578063a217fddf11610064578063a217fddf146102aa578063c4d66de8146102bf578063d5391393146102df578063d547741f14610313578063f72c0d8b1461033357600080fd5b80634f1ef2861461024257806352d1902d1461025557806378f573641461026a57806391d148541461028a57600080fd5b806330c7be2c116100d157806330c7be2c146101b85780633644e515146101ec57806336568abe146102025780633659cfe61461022257600080fd5b806301ffc9a714610103578063248a9ca314610138578063262d5068146101765780632f2ff15d14610198575b600080fd5b34801561010f57600080fd5b5061012361011e3660046113f6565b610367565b60405190151581526020015b60405180910390f35b34801561014457600080fd5b50610168610153366004611420565b60009081526065602052604090206001015490565b60405190815260200161012f565b34801561018257600080fd5b5061019661019136600461144e565b61039e565b005b3480156101a457600080fd5b506101966101b336600461146b565b61041b565b3480156101c457600080fd5b506101687ff5eb84615c2a00ecaf817d13794ebd6299c9e01c395bf4018453f13f577f544981565b3480156101f857600080fd5b5061016860975481565b34801561020e57600080fd5b5061019661021d36600461146b565b610445565b34801561022e57600080fd5b5061019661023d36600461144e565b6104c8565b6101966102503660046114b1565b6105a8565b34801561026157600080fd5b50610168610675565b34801561027657600080fd5b50610168610285366004611575565b610728565b34801561029657600080fd5b506101236102a536600461146b565b610884565b3480156102b657600080fd5b50610168600081565b3480156102cb57600080fd5b506101966102da36600461144e565b6108af565b3480156102eb57600080fd5b506101687f9f2df0fed2c77648de5860a4cc508cd0818c85b8b8a1ab4ceeef8d981c8956a681565b34801561031f57600080fd5b5061019661032e36600461146b565b61092d565b34801561033f57600080fd5b506101687f189ab7a9244df0848122154315af71fe140f3db0fe014031783b0946b8c9d2e381565b60006001600160e01b03198216637965db0b60e01b148061039857506301ffc9a760e01b6001600160e01b03198316145b92915050565b7ff5eb84615c2a00ecaf817d13794ebd6299c9e01c395bf4018453f13f577f54496103c881610952565b5060fc80546001810182556000919091527f371f36870d18f32a11fea0f144b021c8b407bb50f8e0267c711123f454b963c00180546001600160a01b0319166001600160a01b0392909216919091179055565b60008281526065602052604090206001015461043681610952565b610440838361095c565b505050565b6001600160a01b03811633146104ba5760405162461bcd60e51b815260206004820152602f60248201527f416363657373436f6e74726f6c3a2063616e206f6e6c792072656e6f756e636560448201526e103937b632b9903337b91039b2b63360891b60648201526084015b60405180910390fd5b6104c482826109e2565b5050565b306001600160a01b037f00000000000000000000000000000000000000000000000000000000000000001614156105115760405162461bcd60e51b81526004016104b1906115a1565b7f00000000000000000000000000000000000000000000000000000000000000006001600160a01b031661055a60008051602061189f833981519152546001600160a01b031690565b6001600160a01b0316146105805760405162461bcd60e51b81526004016104b1906115ed565b61058981610a49565b604080516000808252602082019092526105a591839190610a73565b50565b306001600160a01b037f00000000000000000000000000000000000000000000000000000000000000001614156105f15760405162461bcd60e51b81526004016104b1906115a1565b7f00000000000000000000000000000000000000000000000000000000000000006001600160a01b031661063a60008051602061189f833981519152546001600160a01b031690565b6001600160a01b0316146106605760405162461bcd60e51b81526004016104b1906115ed565b61066982610a49565b6104c482826001610a73565b6000306001600160a01b037f000000000000000000000000000000000000000000000000000000000000000016146107155760405162461bcd60e51b815260206004820152603860248201527f555550535570677261646561626c653a206d757374206e6f742062652063616c60448201527f6c6564207468726f7567682064656c656761746563616c6c000000000000000060648201526084016104b1565b5060008051602061189f83398151915290565b60008060006107378585610bed565b9092509050811561074b5791506103989050565b60005b60fc5481101561081e5760fc818154811061076b5761076b611639565b600091825260209091200154604051631e3d5cd960e21b81526001600160a01b03888116600483015260248201889052909116906378f5736490604401604080518083038186803b1580156107bf57600080fd5b505afa1580156107d3573d6000803e3d6000fd5b505050506040513d601f19601f820116820180604052508101906107f7919061165f565b9093509150821561080c575091506103989050565b80610816816116a1565b91505061074e565b5060405162461bcd60e51b815260206004820152603460248201527f4d656c616e642e50726f647563744d616e616765722367657450726f6475637460448201527312590e881b9bc81c1c9bd91d58dd08199bdd5b9960621b60648201526084016104b1565b60009182526065602090815260408084206001600160a01b0393909316845291905290205460ff1690565b60006108bb6001610d60565b905080156108d3576000805461ff0019166101001790555b6108dc82610ded565b6108e4610f4e565b80156104c4576000805461ff0019169055604051600181527f7f26b83ff96e1f2b6a682f133852f6798a09c465da95921460cefb38474024989060200160405180910390a15050565b60008281526065602052604090206001015461094881610952565b61044083836109e2565b6105a58133610fbb565b6109668282610884565b6104c45760008281526065602090815260408083206001600160a01b03851684529091529020805460ff1916600117905561099e3390565b6001600160a01b0316816001600160a01b0316837f2f8788117e7eff1d82e926ec794901d17c78024a50270940304540a733656f0d60405160405180910390a45050565b6109ec8282610884565b156104c45760008281526065602090815260408083206001600160a01b0385168085529252808320805460ff1916905551339285917ff6391f5c32d9c69d2a47ea670b442974b53935d1edc7fd64eb21e047a839171b9190a45050565b7f189ab7a9244df0848122154315af71fe140f3db0fe014031783b0946b8c9d2e36104c481610952565b7f4910fdfa16fed3260ed0e7147f7cc6da11a60208b5b9406d12a635614ffd91435460ff1615610aa6576104408361101f565b826001600160a01b03166352d1902d6040518163ffffffff1660e01b815260040160206040518083038186803b158015610adf57600080fd5b505afa925050508015610b0f575060408051601f3d908101601f19168201909252610b0c918101906116bc565b60015b610b725760405162461bcd60e51b815260206004820152602e60248201527f45524331393637557067726164653a206e657720696d706c656d656e7461746960448201526d6f6e206973206e6f74205555505360901b60648201526084016104b1565b60008051602061189f8339815191528114610be15760405162461bcd60e51b815260206004820152602960248201527f45524331393637557067726164653a20756e737570706f727465642070726f786044820152681a58589b195555525160ba1b60648201526084016104b1565b506104408383836110bb565b60408051808201825260098152686d656c616e642e616960b81b602082015290516301ffc9a760e01b8152630fbde02f60e21b6004820152600091829185906001600160a01b038216906301ffc9a79060240160206040518083038186803b158015610c5857600080fd5b505afa158015610c6c573d6000803e3d6000fd5b505050506040513d601f19601f82011682018060405250810190610c9091906116d5565b15610d4f57604051630fbde02f60e21b8152600481018690526000906001600160a01b03881690633ef780bc9060240160206040518083038186803b158015610cd857600080fd5b505afa158015610cec573d6000803e3d6000fd5b505050506040513d601f19601f82011682018060405250810190610d1091906116bc565b905060008382604051602001610d2792919061171c565b6040516020818303038152906040528051906020012090506001819550955050505050610d59565b5060009250829150505b9250929050565b60008054610100900460ff1615610da7578160ff166001148015610d835750303b155b610d9f5760405162461bcd60e51b81526004016104b19061173e565b506000919050565b60005460ff808416911610610dce5760405162461bcd60e51b81526004016104b19061173e565b506000805460ff191660ff92909216919091179055600190565b919050565b610df5610f4e565b610e0060008261095c565b610e2a7ff5eb84615c2a00ecaf817d13794ebd6299c9e01c395bf4018453f13f577f54498261095c565b610e547f9f2df0fed2c77648de5860a4cc508cd0818c85b8b8a1ab4ceeef8d981c8956a68261095c565b610e7e7f189ab7a9244df0848122154315af71fe140f3db0fe014031783b0946b8c9d2e33361095c565b5060408051808201825260068152651b595b185b9960d21b6020918201528151808301835260018152603160f81b9082015281517f8b73c3c69bb8fe3d512ecc4cf759cc79239f7b179b0ffacaa9a75d522b39400f818301527f314ed1331a8d68d6e7c652158abe27c46bf91bd45ef86ab66f92d6500b1056eb818401527fc89efdaa54c0f20c7adf612882df0950f5a951637e0307cdcb4c672f298b8bc660608201524660808201523060a0808301919091528351808303909101815260c09091019092528151910120609755565b600054610100900460ff16610fb95760405162461bcd60e51b815260206004820152602b60248201527f496e697469616c697a61626c653a20636f6e7472616374206973206e6f74206960448201526a6e697469616c697a696e6760a81b60648201526084016104b1565b565b610fc58282610884565b6104c457610fdd816001600160a01b031660146110e6565b610fe88360206110e6565b604051602001610ff992919061178c565b60408051601f198184030181529082905262461bcd60e51b82526104b191600401611801565b6001600160a01b0381163b61108c5760405162461bcd60e51b815260206004820152602d60248201527f455243313936373a206e657720696d706c656d656e746174696f6e206973206e60448201526c1bdd08184818dbdb9d1c9858dd609a1b60648201526084016104b1565b60008051602061189f83398151915280546001600160a01b0319166001600160a01b0392909216919091179055565b6110c483611289565b6000825111806110d15750805b15610440576110e083836112c9565b50505050565b606060006110f5836002611834565b611100906002611853565b67ffffffffffffffff8111156111185761111861149b565b6040519080825280601f01601f191660200182016040528015611142576020820181803683370190505b509050600360fc1b8160008151811061115d5761115d611639565b60200101906001600160f81b031916908160001a905350600f60fb1b8160018151811061118c5761118c611639565b60200101906001600160f81b031916908160001a90535060006111b0846002611834565b6111bb906001611853565b90505b6001811115611233576f181899199a1a9b1b9c1cb0b131b232b360811b85600f16601081106111ef576111ef611639565b1a60f81b82828151811061120557611205611639565b60200101906001600160f81b031916908160001a90535060049490941c9361122c8161186b565b90506111be565b5083156112825760405162461bcd60e51b815260206004820181905260248201527f537472696e67733a20686578206c656e67746820696e73756666696369656e7460448201526064016104b1565b9392505050565b6112928161101f565b6040516001600160a01b038216907fbc7cd75a20ee27fd9adebab32041f755214dbc6bffa90cc0225b39da2e5c2d3b90600090a250565b60606001600160a01b0383163b6113315760405162461bcd60e51b815260206004820152602660248201527f416464726573733a2064656c65676174652063616c6c20746f206e6f6e2d636f6044820152651b9d1c9858dd60d21b60648201526084016104b1565b600080846001600160a01b03168460405161134c9190611882565b600060405180830381855af49150503d8060008114611387576040519150601f19603f3d011682016040523d82523d6000602084013e61138c565b606091505b50915091506113b482826040518060600160405280602781526020016118bf602791396113bd565b95945050505050565b606083156113cc575081611282565b8251156113dc5782518084602001fd5b8160405162461bcd60e51b81526004016104b19190611801565b60006020828403121561140857600080fd5b81356001600160e01b03198116811461128257600080fd5b60006020828403121561143257600080fd5b5035919050565b6001600160a01b03811681146105a557600080fd5b60006020828403121561146057600080fd5b813561128281611439565b6000806040838503121561147e57600080fd5b82359150602083013561149081611439565b809150509250929050565b634e487b7160e01b600052604160045260246000fd5b600080604083850312156114c457600080fd5b82356114cf81611439565b9150602083013567ffffffffffffffff808211156114ec57600080fd5b818501915085601f83011261150057600080fd5b8135818111156115125761151261149b565b604051601f8201601f19908116603f0116810190838211818310171561153a5761153a61149b565b8160405282815288602084870101111561155357600080fd5b8260208601602083013760006020848301015280955050505050509250929050565b6000806040838503121561158857600080fd5b823561159381611439565b946020939093013593505050565b6020808252602c908201527f46756e6374696f6e206d7573742062652063616c6c6564207468726f7567682060408201526b19195b1959d85d1958d85b1b60a21b606082015260800190565b6020808252602c908201527f46756e6374696f6e206d7573742062652063616c6c6564207468726f7567682060408201526b6163746976652070726f787960a01b606082015260800190565b634e487b7160e01b600052603260045260246000fd5b80518015158114610de857600080fd5b6000806040838503121561167257600080fd5b61167b8361164f565b9150602083015190509250929050565b634e487b7160e01b600052601160045260246000fd5b60006000198214156116b5576116b561168b565b5060010190565b6000602082840312156116ce57600080fd5b5051919050565b6000602082840312156116e757600080fd5b6112828261164f565b60005b8381101561170b5781810151838201526020016116f3565b838111156110e05750506000910152565b6000835161172e8184602088016116f0565b9190910191825250602001919050565b6020808252602e908201527f496e697469616c697a61626c653a20636f6e747261637420697320616c72656160408201526d191e481a5b9a5d1a585b1a5e995960921b606082015260800190565b7f416363657373436f6e74726f6c3a206163636f756e74200000000000000000008152600083516117c48160178501602088016116f0565b7001034b99036b4b9b9b4b733903937b6329607d1b60179184019182015283516117f58160288401602088016116f0565b01602801949350505050565b60208152600082518060208401526118208160408501602087016116f0565b601f01601f19169190910160400192915050565b600081600019048311821515161561184e5761184e61168b565b500290565b600082198211156118665761186661168b565b500190565b60008161187a5761187a61168b565b506000190190565b600082516118948184602087016116f0565b919091019291505056fe360894a13ba1a3210667c828492db98dca3e2076cc3735a920a3ca505d382bbc416464726573733a206c6f772d6c6576656c2064656c65676174652063616c6c206661696c6564a26469706673582212207168f9f765fcd7d6eb72df653168053d445627312bf747d8347ba4bdbfc4a99a64736f6c63430008090033",
  "immutableReferences": {
    "1249": [
      {
        "length": 32,
        "start": 1235
      },
      {
        "length": 32,
        "start": 1299
      },
      {
        "length": 32,
        "start": 1459
      },
      {
        "length": 32,
        "start": 1523
      },
      {
        "length": 32,
        "start": 1666
      }
    ]
  },
  "source": "// SPDX-License-Identifier: MIT\npragma solidity 0.8.9;\n\nimport \"@openzeppelin/contracts-upgradeable/access/AccessControlUpgradeable.sol\";\nimport \"@openzeppelin/contracts-upgradeable/proxy/utils/Initializable.sol\";\nimport \"@openzeppelin/contracts-upgradeable/proxy/utils/UUPSUpgradeable.sol\";\nimport \"@openzeppelin/contracts-upgradeable/security/PausableUpgradeable.sol\";\nimport \"@openzeppelin/contracts-upgradeable/utils/CountersUpgradeable.sol\";\nimport \"@openzeppelin/contracts-upgradeable/utils/math/SafeMathUpgradeable.sol\";\nimport \"@openzeppelin/contracts-upgradeable/utils/AddressUpgradeable.sol\";\nimport \"../common/MelandAccessRoles.sol\";\nimport \"./IProductManager.sol\";\nimport \"./IProductRepository.sol\";\nimport \"./IMelandCID.sol\";\n\ncontract ProductManager is\n    Initializable,\n    MelandAccessRoles,\n    UUPSUpgradeable,\n    IProductManager\n{\n    using AddressUpgradeable for address;\n    using SafeMathUpgradeable for uint256;\n\n    IProductRepository[] private _productRepositories;\n\n    function initialize(address mpc) public initializer {\n        __MelandAccessRoles_init(mpc);\n        __UUPSUpgradeable_init();\n    }\n\n    // \n    function addRepository(IProductRepository repository)\n        external\n        onlyRole(GM_ROLE)\n    {\n        _productRepositories.push(repository);\n    }\n\n    // \n    function getDefaultProductId(address nft, uint256 tokenId)\n        internal\n        view\n        returns (bool, bytes32)\n    {\n        string memory tag = \"meland.ai\";\n        ERC165Upgradeable nftDetect = ERC165Upgradeable(nft);\n        if (nftDetect.supportsInterface(type(IMelandCID).interfaceId)) {\n            uint256 cid = IMelandCID(nft).getCidByTokenId(tokenId);\n            bytes32 productId = keccak256(abi.encodePacked(tag, cid));\n            return (true, productId);\n        }\n        return (false, bytes32(0));\n    }\n\n    // NFTtokenId\n    // id.\n    // bool -> \n    // bytes32 -> id\n    function getProductId(address nft, uint256 tokenId)\n        external\n        view\n        returns (bytes32)\n    {\n        bool rmatch;\n        bytes32 productId;\n\n        (rmatch, productId) = getDefaultProductId(nft, tokenId);\n\n        if (rmatch) {\n            return productId;\n        }\n\n        for (uint256 i = 0; i < _productRepositories.length; i++) {\n            (rmatch, productId) = _productRepositories[i].getProductId(\n                nft,\n                tokenId\n            );\n            if (rmatch) {\n                return productId;\n            }\n        }\n        revert(\"Meland.ProductManager#getProductId: no product found\");\n    }\n\n    function _authorizeUpgrade(address newImplementation)\n        internal\n        override\n        onlyRole(UPGRADER_ROLE)\n    {}\n}\n",
  "sourcePath": "/Users/alberthuang/code/contracts-v2/contracts/nft/ProductManager.sol",
  "compiler": {
    "name": "solc",
    "version": "0.8.9+commit.e5eed63a.Emscripten.clang"
  },
  "schemaVersion": "3.4.5",
  "updatedAt": "2022-07-04T06:51:40.695Z",
  "networkType": "ethereum",
  "devdoc": {
    "kind": "dev",
    "methods": {
      "getRoleAdmin(bytes32)": {
        "details": "Returns the admin role that controls `role`. See {grantRole} and {revokeRole}. To change a role's admin, use {_setRoleAdmin}."
      },
      "grantRole(bytes32,address)": {
        "details": "Grants `role` to `account`. If `account` had not been already granted `role`, emits a {RoleGranted} event. Requirements: - the caller must have ``role``'s admin role."
      },
      "hasRole(bytes32,address)": {
        "details": "Returns `true` if `account` has been granted `role`."
      },
      "proxiableUUID()": {
        "details": "Implementation of the ERC1822 {proxiableUUID} function. This returns the storage slot used by the implementation. It is used to validate that the this implementation remains valid after an upgrade. IMPORTANT: A proxy pointing at a proxiable contract should not be considered proxiable itself, because this risks bricking a proxy that upgrades to it, by delegating to itself until out of gas. Thus it is critical that this function revert if invoked through a proxy. This is guaranteed by the `notDelegated` modifier."
      },
      "renounceRole(bytes32,address)": {
        "details": "Revokes `role` from the calling account. Roles are often managed via {grantRole} and {revokeRole}: this function's purpose is to provide a mechanism for accounts to lose their privileges if they are compromised (such as when a trusted device is misplaced). If the calling account had been revoked `role`, emits a {RoleRevoked} event. Requirements: - the caller must be `account`."
      },
      "revokeRole(bytes32,address)": {
        "details": "Revokes `role` from `account`. If `account` had been granted `role`, emits a {RoleRevoked} event. Requirements: - the caller must have ``role``'s admin role."
      },
      "supportsInterface(bytes4)": {
        "details": "See {IERC165-supportsInterface}."
      },
      "upgradeTo(address)": {
        "details": "Upgrade the implementation of the proxy to `newImplementation`. Calls {_authorizeUpgrade}. Emits an {Upgraded} event."
      },
      "upgradeToAndCall(address,bytes)": {
        "details": "Upgrade the implementation of the proxy to `newImplementation`, and subsequently execute the function call encoded in `data`. Calls {_authorizeUpgrade}. Emits an {Upgraded} event."
      }
    },
    "version": 1
  },
  "userdoc": {
    "kind": "user",
    "methods": {},
    "version": 1
  }
}