{
  "contractName": "TestToken",
  "abi": [
    {
      "anonymous": false,
      "inputs": [
        {
          "indexed": false,
          "internalType": "address",
          "name": "previousAdmin",
          "type": "address"
        },
        {
          "indexed": false,
          "internalType": "address",
          "name": "newAdmin",
          "type": "address"
        }
      ],
      "name": "AdminChanged",
      "type": "event"
    },
    {
      "anonymous": false,
      "inputs": [
        {
          "indexed": true,
          "internalType": "address",
          "name": "owner",
          "type": "address"
        },
        {
          "indexed": true,
          "internalType": "address",
          "name": "spender",
          "type": "address"
        },
        {
          "indexed": false,
          "internalType": "uint256",
          "name": "value",
          "type": "uint256"
        }
      ],
      "name": "Approval",
      "type": "event"
    },
    {
      "anonymous": false,
      "inputs": [
        {
          "indexed": true,
          "internalType": "address",
          "name": "beacon",
          "type": "address"
        }
      ],
      "name": "BeaconUpgraded",
      "type": "event"
    },
    {
      "anonymous": false,
      "inputs": [
        {
          "indexed": false,
          "internalType": "uint8",
          "name": "version",
          "type": "uint8"
        }
      ],
      "name": "Initialized",
      "type": "event"
    },
    {
      "anonymous": false,
      "inputs": [
        {
          "indexed": false,
          "internalType": "address",
          "name": "_newImplementation",
          "type": "address"
        },
        {
          "indexed": false,
          "internalType": "uint256",
          "name": "createdAt",
          "type": "uint256"
        }
      ],
      "name": "NewPrepareUpgradeImpl",
      "type": "event"
    },
    {
      "anonymous": false,
      "inputs": [
        {
          "indexed": false,
          "internalType": "uint256",
          "name": "deplay",
          "type": "uint256"
        }
      ],
      "name": "NewUpgradeDelay",
      "type": "event"
    },
    {
      "anonymous": false,
      "inputs": [
        {
          "indexed": true,
          "internalType": "address",
          "name": "previousOwner",
          "type": "address"
        },
        {
          "indexed": true,
          "internalType": "address",
          "name": "newOwner",
          "type": "address"
        }
      ],
      "name": "OwnershipTransferred",
      "type": "event"
    },
    {
      "anonymous": false,
      "inputs": [
        {
          "indexed": true,
          "internalType": "address",
          "name": "from",
          "type": "address"
        },
        {
          "indexed": true,
          "internalType": "address",
          "name": "to",
          "type": "address"
        },
        {
          "indexed": false,
          "internalType": "uint256",
          "name": "value",
          "type": "uint256"
        }
      ],
      "name": "Transfer",
      "type": "event"
    },
    {
      "anonymous": false,
      "inputs": [
        {
          "indexed": true,
          "internalType": "address",
          "name": "implementation",
          "type": "address"
        }
      ],
      "name": "Upgraded",
      "type": "event"
    },
    {
      "inputs": [
        {
          "internalType": "address",
          "name": "owner",
          "type": "address"
        },
        {
          "internalType": "address",
          "name": "spender",
          "type": "address"
        }
      ],
      "name": "allowance",
      "outputs": [
        {
          "internalType": "uint256",
          "name": "",
          "type": "uint256"
        }
      ],
      "stateMutability": "view",
      "type": "function"
    },
    {
      "inputs": [
        {
          "internalType": "address",
          "name": "spender",
          "type": "address"
        },
        {
          "internalType": "uint256",
          "name": "amount",
          "type": "uint256"
        }
      ],
      "name": "approve",
      "outputs": [
        {
          "internalType": "bool",
          "name": "",
          "type": "bool"
        }
      ],
      "stateMutability": "nonpayable",
      "type": "function"
    },
    {
      "inputs": [
        {
          "internalType": "address",
          "name": "account",
          "type": "address"
        }
      ],
      "name": "balanceOf",
      "outputs": [
        {
          "internalType": "uint256",
          "name": "",
          "type": "uint256"
        }
      ],
      "stateMutability": "view",
      "type": "function"
    },
    {
      "inputs": [
        {
          "internalType": "uint256",
          "name": "amount",
          "type": "uint256"
        }
      ],
      "name": "burn",
      "outputs": [],
      "stateMutability": "nonpayable",
      "type": "function"
    },
    {
      "inputs": [
        {
          "internalType": "address",
          "name": "account",
          "type": "address"
        },
        {
          "internalType": "uint256",
          "name": "amount",
          "type": "uint256"
        }
      ],
      "name": "burnFrom",
      "outputs": [],
      "stateMutability": "nonpayable",
      "type": "function"
    },
    {
      "inputs": [],
      "name": "decimals",
      "outputs": [
        {
          "internalType": "uint8",
          "name": "",
          "type": "uint8"
        }
      ],
      "stateMutability": "view",
      "type": "function"
    },
    {
      "inputs": [
        {
          "internalType": "address",
          "name": "spender",
          "type": "address"
        },
        {
          "internalType": "uint256",
          "name": "subtractedValue",
          "type": "uint256"
        }
      ],
      "name": "decreaseAllowance",
      "outputs": [
        {
          "internalType": "bool",
          "name": "",
          "type": "bool"
        }
      ],
      "stateMutability": "nonpayable",
      "type": "function"
    },
    {
      "inputs": [
        {
          "internalType": "address",
          "name": "spender",
          "type": "address"
        },
        {
          "internalType": "uint256",
          "name": "addedValue",
          "type": "uint256"
        }
      ],
      "name": "increaseAllowance",
      "outputs": [
        {
          "internalType": "bool",
          "name": "",
          "type": "bool"
        }
      ],
      "stateMutability": "nonpayable",
      "type": "function"
    },
    {
      "inputs": [],
      "name": "name",
      "outputs": [
        {
          "internalType": "string",
          "name": "",
          "type": "string"
        }
      ],
      "stateMutability": "view",
      "type": "function"
    },
    {
      "inputs": [],
      "name": "owner",
      "outputs": [
        {
          "internalType": "address",
          "name": "",
          "type": "address"
        }
      ],
      "stateMutability": "view",
      "type": "function"
    },
    {
      "inputs": [],
      "name": "proxiableUUID",
      "outputs": [
        {
          "internalType": "bytes32",
          "name": "",
          "type": "bytes32"
        }
      ],
      "stateMutability": "view",
      "type": "function"
    },
    {
      "inputs": [],
      "name": "renounceOwnership",
      "outputs": [],
      "stateMutability": "nonpayable",
      "type": "function"
    },
    {
      "inputs": [],
      "name": "symbol",
      "outputs": [
        {
          "internalType": "string",
          "name": "",
          "type": "string"
        }
      ],
      "stateMutability": "view",
      "type": "function"
    },
    {
      "inputs": [],
      "name": "totalSupply",
      "outputs": [
        {
          "internalType": "uint256",
          "name": "",
          "type": "uint256"
        }
      ],
      "stateMutability": "view",
      "type": "function"
    },
    {
      "inputs": [
        {
          "internalType": "address",
          "name": "to",
          "type": "address"
        },
        {
          "internalType": "uint256",
          "name": "amount",
          "type": "uint256"
        }
      ],
      "name": "transfer",
      "outputs": [
        {
          "internalType": "bool",
          "name": "",
          "type": "bool"
        }
      ],
      "stateMutability": "nonpayable",
      "type": "function"
    },
    {
      "inputs": [
        {
          "internalType": "address",
          "name": "from",
          "type": "address"
        },
        {
          "internalType": "address",
          "name": "to",
          "type": "address"
        },
        {
          "internalType": "uint256",
          "name": "amount",
          "type": "uint256"
        }
      ],
      "name": "transferFrom",
      "outputs": [
        {
          "internalType": "bool",
          "name": "",
          "type": "bool"
        }
      ],
      "stateMutability": "nonpayable",
      "type": "function"
    },
    {
      "inputs": [
        {
          "internalType": "address",
          "name": "newOwner",
          "type": "address"
        }
      ],
      "name": "transferOwnership",
      "outputs": [],
      "stateMutability": "nonpayable",
      "type": "function"
    },
    {
      "inputs": [
        {
          "internalType": "address",
          "name": "newImplementation",
          "type": "address"
        }
      ],
      "name": "upgradeTo",
      "outputs": [],
      "stateMutability": "nonpayable",
      "type": "function"
    },
    {
      "inputs": [
        {
          "internalType": "address",
          "name": "newImplementation",
          "type": "address"
        },
        {
          "internalType": "bytes",
          "name": "data",
          "type": "bytes"
        }
      ],
      "name": "upgradeToAndCall",
      "outputs": [],
      "stateMutability": "payable",
      "type": "function"
    },
    {
      "inputs": [],
      "name": "initialize",
      "outputs": [],
      "stateMutability": "nonpayable",
      "type": "function"
    },
    {
      "inputs": [],
      "name": "getMaxMints",
      "outputs": [
        {
          "internalType": "uint256",
          "name": "",
          "type": "uint256"
        }
      ],
      "stateMutability": "view",
      "type": "function"
    },
    {
      "inputs": [
        {
          "internalType": "uint256",
          "name": "amount",
          "type": "uint256"
        }
      ],
      "name": "mint",
      "outputs": [],
      "stateMutability": "nonpayable",
      "type": "function"
    },
    {
      "inputs": [
        {
          "internalType": "address",
          "name": "_newImplementation",
          "type": "address"
        }
      ],
      "name": "setPrepareUpgrade",
      "outputs": [],
      "stateMutability": "nonpayable",
      "type": "function"
    },
    {
      "inputs": [
        {
          "internalType": "uint256",
          "name": "_delay",
          "type": "uint256"
        }
      ],
      "name": "setUpgradeDelay",
      "outputs": [],
      "stateMutability": "nonpayable",
      "type": "function"
    }
  ],
  "bytecode": "0x60a06040523060805234801561001457600080fd5b50608051611e2161004c6000396000818161059a015281816105e3015281816106af015281816106ef01526107820152611e216000f3fe60806040526004361061014b5760003560e01c806370a08231116100b65780639606d2011161006f5780639606d20114610382578063a0712d68146103a2578063a457c2d7146103c2578063a9059cbb146103e2578063dd62ed3e14610402578063f2fde38b1461042257600080fd5b806370a08231146102c5578063715018a6146102fb57806379cc6790146103105780638129fc1c146103305780638da5cb5b1461034557806395d89b411461036d57600080fd5b80633659cfe6116101085780633659cfe614610228578063395093511461024857806342966c68146102685780634f1ef2861461028857806352d1902d1461029b5780635bdf01c8146102b057600080fd5b806306fdde0314610150578063095ea7b31461017b57806318160ddd146101ab5780631a31bd41146101ca57806323b872dd146101ec578063313ce5671461020c575b600080fd5b34801561015c57600080fd5b50610165610442565b6040516101729190611906565b60405180910390f35b34801561018757600080fd5b5061019b610196366004611955565b6104d4565b6040519015158152602001610172565b3480156101b757600080fd5b506035545b604051908152602001610172565b3480156101d657600080fd5b506101ea6101e536600461197f565b6104ee565b005b3480156101f857600080fd5b5061019b61020736600461199a565b610569565b34801561021857600080fd5b5060405160128152602001610172565b34801561023457600080fd5b506101ea61024336600461197f565b61058f565b34801561025457600080fd5b5061019b610263366004611955565b610678565b34801561027457600080fd5b506101ea6102833660046119d6565b61069a565b6101ea610296366004611a05565b6106a4565b3480156102a757600080fd5b506101bc610775565b3480156102bc57600080fd5b506101bc610828565b3480156102d157600080fd5b506101bc6102e036600461197f565b6001600160a01b031660009081526033602052604090205490565b34801561030757600080fd5b506101ea610849565b34801561031c57600080fd5b506101ea61032b366004611955565b61085d565b34801561033c57600080fd5b506101ea610872565b34801561035157600080fd5b506065546040516001600160a01b039091168152602001610172565b34801561037957600080fd5b506101656109f4565b34801561038e57600080fd5b506101ea61039d3660046119d6565b610a03565b3480156103ae57600080fd5b506101ea6103bd3660046119d6565b610a8d565b3480156103ce57600080fd5b5061019b6103dd366004611955565b610b11565b3480156103ee57600080fd5b5061019b6103fd366004611955565b610b97565b34801561040e57600080fd5b506101bc61041d366004611ac7565b610ba5565b34801561042e57600080fd5b506101ea61043d36600461197f565b610bd0565b60606036805461045190611afa565b80601f016020809104026020016040519081016040528092919081815260200182805461047d90611afa565b80156104ca5780601f1061049f576101008083540402835291602001916104ca565b820191906000526020600020905b8154815290600101906020018083116104ad57829003601f168201915b5050505050905090565b6000336104e2818585610c46565b60019150505b92915050565b6104f6610d6a565b6040805180820182526001600160a01b03831680825242602092830181905261012e80546001600160a01b0319168317905561012f8190558351918252918101919091527fcf33b9b7b71796171975286c240694dbc88ef404a7dafb7943c812b2d2ea2fb991015b60405180910390a150565b600033610577858285610dc4565b610582858585610e3e565b60019150505b9392505050565b306001600160a01b037f00000000000000000000000000000000000000000000000000000000000000001614156105e15760405162461bcd60e51b81526004016105d890611b35565b60405180910390fd5b7f00000000000000000000000000000000000000000000000000000000000000006001600160a01b031661062a600080516020611da5833981519152546001600160a01b031690565b6001600160a01b0316146106505760405162461bcd60e51b81526004016105d890611b81565b6106598161100c565b6040805160008082526020820190925261067591839190611104565b50565b6000336104e281858561068b8383610ba5565b6106959190611be3565b610c46565b6106753382611283565b306001600160a01b037f00000000000000000000000000000000000000000000000000000000000000001614156106ed5760405162461bcd60e51b81526004016105d890611b35565b7f00000000000000000000000000000000000000000000000000000000000000006001600160a01b0316610736600080516020611da5833981519152546001600160a01b031690565b6001600160a01b03161461075c5760405162461bcd60e51b81526004016105d890611b81565b6107658261100c565b61077182826001611104565b5050565b6000306001600160a01b037f000000000000000000000000000000000000000000000000000000000000000016146108155760405162461bcd60e51b815260206004820152603860248201527f555550535570677261646561626c653a206d757374206e6f742062652063616c60448201527f6c6564207468726f7567682064656c656761746563616c6c000000000000000060648201526084016105d8565b50600080516020611da583398151915290565b60006108366012600a611cdf565b610844906377359400611cee565b905090565b610851610d6a565b61085b60006113d1565b565b610868823383610dc4565b6107718282611283565b600054610100900460ff16158080156108925750600054600160ff909116105b806108ac5750303b1580156108ac575060005460ff166001145b61090f5760405162461bcd60e51b815260206004820152602e60248201527f496e697469616c697a61626c653a20636f6e747261637420697320616c72656160448201526d191e481a5b9a5d1a585b1a5e995960921b60648201526084016105d8565b6000805460ff191660011790558015610932576000805461ff0019166101001790555b6109816040518060400160405280600c81526020016b5465737445524332302e696f60a01b815250604051806040016040528060098152602001682a32b9ba2a37b5b2b760b91b815250611423565b610989611454565b61099161147b565b610999611454565b6212750061012d556109b2336109ad610828565b6114aa565b8015610675576000805461ff0019169055604051600181527f7f26b83ff96e1f2b6a682f133852f6798a09c465da95921460cefb38474024989060200161055e565b60606037805461045190611afa565b610a0b610d6a565b6202a300811015610a575760405162461bcd60e51b81526020600482015260166024820152754d696e696d756d2074696d652069732032206461797360501b60448201526064016105d8565b61012d8190556040518181527f09325ac6d11927d197b5283bc2e7490442ea8a033a071589b8a7a0653587d5129060200161055e565b610a95610d6a565b610a9d610828565b603554610aaa9083611be3565b1115610b075760405162461bcd60e51b815260206004820152602660248201527f4578636565647320746865206d6178696d756d206e756d626572206f66206d696044820152656e7461626c6560d01b60648201526084016105d8565b61067533826114aa565b60003381610b1f8286610ba5565b905083811015610b7f5760405162461bcd60e51b815260206004820152602560248201527f45524332303a2064656372656173656420616c6c6f77616e63652062656c6f77604482015264207a65726f60d81b60648201526084016105d8565b610b8c8286868403610c46565b506001949350505050565b6000336104e2818585610e3e565b6001600160a01b03918216600090815260346020908152604080832093909416825291909152205490565b610bd8610d6a565b6001600160a01b038116610c3d5760405162461bcd60e51b815260206004820152602660248201527f4f776e61626c653a206e6577206f776e657220697320746865207a65726f206160448201526564647265737360d01b60648201526084016105d8565b610675816113d1565b6001600160a01b038316610ca85760405162461bcd60e51b8152602060048201526024808201527f45524332303a20617070726f76652066726f6d20746865207a65726f206164646044820152637265737360e01b60648201526084016105d8565b6001600160a01b038216610d095760405162461bcd60e51b815260206004820152602260248201527f45524332303a20617070726f766520746f20746865207a65726f206164647265604482015261737360f01b60648201526084016105d8565b6001600160a01b0383811660008181526034602090815260408083209487168084529482529182902085905590518481527f8c5be1e5ebec7d5bd14f71427d1e84f3dd0314c0f7b2291e5b200ac8c7c3b925910160405180910390a3505050565b6065546001600160a01b0316331461085b5760405162461bcd60e51b815260206004820181905260248201527f4f776e61626c653a2063616c6c6572206973206e6f7420746865206f776e657260448201526064016105d8565b6000610dd08484610ba5565b90506000198114610e385781811015610e2b5760405162461bcd60e51b815260206004820152601d60248201527f45524332303a20696e73756666696369656e7420616c6c6f77616e636500000060448201526064016105d8565b610e388484848403610c46565b50505050565b6001600160a01b038316610ea25760405162461bcd60e51b815260206004820152602560248201527f45524332303a207472616e736665722066726f6d20746865207a65726f206164604482015264647265737360d81b60648201526084016105d8565b6001600160a01b038216610f045760405162461bcd60e51b815260206004820152602360248201527f45524332303a207472616e7366657220746f20746865207a65726f206164647260448201526265737360e81b60648201526084016105d8565b6001600160a01b03831660009081526033602052604090205481811015610f7c5760405162461bcd60e51b815260206004820152602660248201527f45524332303a207472616e7366657220616d6f756e7420657863656564732062604482015265616c616e636560d01b60648201526084016105d8565b6001600160a01b03808516600090815260336020526040808220858503905591851681529081208054849290610fb3908490611be3565b92505081905550826001600160a01b0316846001600160a01b03167fddf252ad1be2c89b69c2b068fc378daa952ba7f163c4a11628f55a4df523b3ef84604051610fff91815260200190565b60405180910390a3610e38565b611014610d6a565b61012e546001600160a01b038281169116146110875760405162461bcd60e51b815260206004820152602c60248201527f5570677261646520636f6e74726163747320617265206e6f7420696e2074686560448201526b20726561647920717565756560a01b60648201526084016105d8565b61012d5461012f5461109a904290611589565b116106755760405162461bcd60e51b815260206004820152603460248201527f5570677261646520636f6e747261637473206d7573742062652070726570617260448201527365642032206461797320696e20616476616e636560601b60648201526084016105d8565b7f4910fdfa16fed3260ed0e7147f7cc6da11a60208b5b9406d12a635614ffd91435460ff161561113c5761113783611595565b505050565b826001600160a01b03166352d1902d6040518163ffffffff1660e01b815260040160206040518083038186803b15801561117557600080fd5b505afa9250505080156111a5575060408051601f3d908101601f191682019092526111a291810190611d0d565b60015b6112085760405162461bcd60e51b815260206004820152602e60248201527f45524331393637557067726164653a206e657720696d706c656d656e7461746960448201526d6f6e206973206e6f74205555505360901b60648201526084016105d8565b600080516020611da583398151915281146112775760405162461bcd60e51b815260206004820152602960248201527f45524331393637557067726164653a20756e737570706f727465642070726f786044820152681a58589b195555525160ba1b60648201526084016105d8565b50611137838383611631565b6001600160a01b0382166112e35760405162461bcd60e51b815260206004820152602160248201527f45524332303a206275726e2066726f6d20746865207a65726f206164647265736044820152607360f81b60648201526084016105d8565b6001600160a01b038216600090815260336020526040902054818110156113575760405162461bcd60e51b815260206004820152602260248201527f45524332303a206275726e20616d6f756e7420657863656564732062616c616e604482015261636560f01b60648201526084016105d8565b6001600160a01b0383166000908152603360205260408120838303905560358054849290611386908490611d26565b90915550506040518281526000906001600160a01b038516907fddf252ad1be2c89b69c2b068fc378daa952ba7f163c4a11628f55a4df523b3ef9060200160405180910390a3505050565b606580546001600160a01b038381166001600160a01b0319831681179093556040519116919082907f8be0079c531659141344cd1fd0a4f28419497f9722a3daafe3b4186f6b6457e090600090a35050565b600054610100900460ff1661144a5760405162461bcd60e51b81526004016105d890611d3d565b6107718282611656565b600054610100900460ff1661085b5760405162461bcd60e51b81526004016105d890611d3d565b600054610100900460ff166114a25760405162461bcd60e51b81526004016105d890611d3d565b61085b6116a4565b6001600160a01b0382166115005760405162461bcd60e51b815260206004820152601f60248201527f45524332303a206d696e7420746f20746865207a65726f20616464726573730060448201526064016105d8565b80603560008282546115129190611be3565b90915550506001600160a01b0382166000908152603360205260408120805483929061153f908490611be3565b90915550506040518181526001600160a01b038316906000907fddf252ad1be2c89b69c2b068fc378daa952ba7f163c4a11628f55a4df523b3ef9060200160405180910390a35050565b60006105888284611d26565b6001600160a01b0381163b6116025760405162461bcd60e51b815260206004820152602d60248201527f455243313936373a206e657720696d706c656d656e746174696f6e206973206e60448201526c1bdd08184818dbdb9d1c9858dd609a1b60648201526084016105d8565b600080516020611da583398151915280546001600160a01b0319166001600160a01b0392909216919091179055565b61163a836116d4565b6000825111806116475750805b1561113757610e388383611714565b600054610100900460ff1661167d5760405162461bcd60e51b81526004016105d890611d3d565b8151611690906036906020850190611841565b508051611137906037906020840190611841565b600054610100900460ff166116cb5760405162461bcd60e51b81526004016105d890611d3d565b61085b336113d1565b6116dd81611595565b6040516001600160a01b038216907fbc7cd75a20ee27fd9adebab32041f755214dbc6bffa90cc0225b39da2e5c2d3b90600090a250565b60606001600160a01b0383163b61177c5760405162461bcd60e51b815260206004820152602660248201527f416464726573733a2064656c65676174652063616c6c20746f206e6f6e2d636f6044820152651b9d1c9858dd60d21b60648201526084016105d8565b600080846001600160a01b0316846040516117979190611d88565b600060405180830381855af49150503d80600081146117d2576040519150601f19603f3d011682016040523d82523d6000602084013e6117d7565b606091505b50915091506117ff8282604051806060016040528060278152602001611dc560279139611808565b95945050505050565b60608315611817575081610588565b8251156118275782518084602001fd5b8160405162461bcd60e51b81526004016105d89190611906565b82805461184d90611afa565b90600052602060002090601f01602090048101928261186f57600085556118b5565b82601f1061188857805160ff19168380011785556118b5565b828001600101855582156118b5579182015b828111156118b557825182559160200191906001019061189a565b506118c19291506118c5565b5090565b5b808211156118c157600081556001016118c6565b60005b838110156118f55781810151838201526020016118dd565b83811115610e385750506000910152565b60208152600082518060208401526119258160408501602087016118da565b601f01601f19169190910160400192915050565b80356001600160a01b038116811461195057600080fd5b919050565b6000806040838503121561196857600080fd5b61197183611939565b946020939093013593505050565b60006020828403121561199157600080fd5b61058882611939565b6000806000606084860312156119af57600080fd5b6119b884611939565b92506119c660208501611939565b9150604084013590509250925092565b6000602082840312156119e857600080fd5b5035919050565b634e487b7160e01b600052604160045260246000fd5b60008060408385031215611a1857600080fd5b611a2183611939565b9150602083013567ffffffffffffffff80821115611a3e57600080fd5b818501915085601f830112611a5257600080fd5b813581811115611a6457611a646119ef565b604051601f8201601f19908116603f01168101908382118183101715611a8c57611a8c6119ef565b81604052828152886020848701011115611aa557600080fd5b8260208601602083013760006020848301015280955050505050509250929050565b60008060408385031215611ada57600080fd5b611ae383611939565b9150611af160208401611939565b90509250929050565b600181811c90821680611b0e57607f821691505b60208210811415611b2f57634e487b7160e01b600052602260045260246000fd5b50919050565b6020808252602c908201527f46756e6374696f6e206d7573742062652063616c6c6564207468726f7567682060408201526b19195b1959d85d1958d85b1b60a21b606082015260800190565b6020808252602c908201527f46756e6374696f6e206d7573742062652063616c6c6564207468726f7567682060408201526b6163746976652070726f787960a01b606082015260800190565b634e487b7160e01b600052601160045260246000fd5b60008219821115611bf657611bf6611bcd565b500190565b600181815b80851115611c36578160001904821115611c1c57611c1c611bcd565b80851615611c2957918102915b93841c9390800290611c00565b509250929050565b600082611c4d575060016104e8565b81611c5a575060006104e8565b8160018114611c705760028114611c7a57611c96565b60019150506104e8565b60ff841115611c8b57611c8b611bcd565b50506001821b6104e8565b5060208310610133831016604e8410600b8410161715611cb9575081810a6104e8565b611cc38383611bfb565b8060001904821115611cd757611cd7611bcd565b029392505050565b600061058860ff841683611c3e565b6000816000190483118215151615611d0857611d08611bcd565b500290565b600060208284031215611d1f57600080fd5b5051919050565b600082821015611d3857611d38611bcd565b500390565b6020808252602b908201527f496e697469616c697a61626c653a20636f6e7472616374206973206e6f74206960408201526a6e697469616c697a696e6760a81b606082015260800190565b60008251611d9a8184602087016118da565b919091019291505056fe360894a13ba1a3210667c828492db98dca3e2076cc3735a920a3ca505d382bbc416464726573733a206c6f772d6c6576656c2064656c65676174652063616c6c206661696c6564a2646970667358221220f21b27b57928070578ed8cf5c856792731716a94289fbace170bef4d88e59d8f64736f6c63430008090033",
  "immutableReferences": {
    "1390": [
      {
        "length": 32,
        "start": 1434
      },
      {
        "length": 32,
        "start": 1507
      },
      {
        "length": 32,
        "start": 1711
      },
      {
        "length": 32,
        "start": 1775
      },
      {
        "length": 32,
        "start": 1922
      }
    ]
  },
  "source": "// SPDX-License-Identifier: MIT\npragma solidity 0.8.9;\n\nimport \"@openzeppelin/contracts-upgradeable/token/ERC20/ERC20Upgradeable.sol\";\nimport \"@openzeppelin/contracts-upgradeable/token/ERC20/extensions/ERC20BurnableUpgradeable.sol\";\nimport \"@openzeppelin/contracts-upgradeable/proxy/utils/Initializable.sol\";\nimport \"@openzeppelin/contracts-upgradeable/access/OwnableUpgradeable.sol\";\nimport \"@openzeppelin/contracts-upgradeable/proxy/utils/UUPSUpgradeable.sol\";\nimport \"@openzeppelin/contracts-upgradeable/utils/math/SafeMathUpgradeable.sol\";\n\ncontract TestToken is\n    Initializable,\n    ERC20Upgradeable,\n    OwnableUpgradeable,\n    ERC20BurnableUpgradeable,\n    UUPSUpgradeable\n{\n    using SafeMathUpgradeable for uint256;\n\n    uint256 upgradeDelay;\n\n    PrepareUpgradeImpl prepareUpgradeImpl;\n    struct PrepareUpgradeImpl {\n        address newImplementation;\n        // Ready to upgrade creation time\n        uint256 createdAt;\n    }\n\n    event NewUpgradeDelay(uint256 deplay);\n    event NewPrepareUpgradeImpl(address _newImplementation, uint256 createdAt);\n\n    function initialize() public initializer {\n        __ERC20_init(\"TestERC20.io\", \"TestToken\");\n        __ERC20Burnable_init();\n        __Ownable_init();\n        __UUPSUpgradeable_init();\n        upgradeDelay = 14 days;\n\n        _mint(msg.sender, getMaxMints());\n    }\n\n    function getMaxMints() public view returns (uint256) {\n        return 2000000000 * 10**decimals();\n    }\n\n    function mint(uint256 amount) public onlyOwner {\n        require(\n            amount + totalSupply() <= getMaxMints(),\n            \"Exceeds the maximum number of mintable\"\n        );\n        _mint(msg.sender, amount);\n    }\n\n    function _beforeTokenTransfer(\n        address _from,\n        address _to,\n        uint256 _amount\n    ) internal override {\n        super._beforeTokenTransfer(_from, _to, _amount);\n    }\n\n    function setPrepareUpgrade(address _newImplementation) public onlyOwner {\n        prepareUpgradeImpl = PrepareUpgradeImpl(\n            _newImplementation,\n            block.timestamp\n        );\n        emit NewPrepareUpgradeImpl(_newImplementation, block.timestamp);\n    }\n\n    function setUpgradeDelay(uint256 _delay) public onlyOwner {\n        require(_delay >= 2 days, \"Minimum time is 2 days\");\n        upgradeDelay = _delay;\n        emit NewUpgradeDelay(_delay);\n    }\n\n    function _authorizeUpgrade(address _newImplementation)\n        internal\n        view\n        override\n        onlyOwner\n    {\n        require(\n            _newImplementation == prepareUpgradeImpl.newImplementation,\n            \"Upgrade contracts are not in the ready queue\"\n        );\n        require(\n            block.timestamp.sub(prepareUpgradeImpl.createdAt) > upgradeDelay,\n            \"Upgrade contracts must be prepared 2 days in advance\"\n        );\n    }\n}\n",
  "sourcePath": "/Users/alberthuang/code/contracts-v2/contracts/token/TestToken.sol",
  "compiler": {
    "name": "solc",
    "version": "0.8.9+commit.e5eed63a.Emscripten.clang"
  },
  "schemaVersion": "3.4.8",
  "updatedAt": "2022-07-13T06:01:47.661Z",
  "devdoc": {
    "kind": "dev",
    "methods": {
      "allowance(address,address)": {
        "details": "See {IERC20-allowance}."
      },
      "approve(address,uint256)": {
        "details": "See {IERC20-approve}. NOTE: If `amount` is the maximum `uint256`, the allowance is not updated on `transferFrom`. This is semantically equivalent to an infinite approval. Requirements: - `spender` cannot be the zero address."
      },
      "balanceOf(address)": {
        "details": "See {IERC20-balanceOf}."
      },
      "burn(uint256)": {
        "details": "Destroys `amount` tokens from the caller. See {ERC20-_burn}."
      },
      "burnFrom(address,uint256)": {
        "details": "Destroys `amount` tokens from `account`, deducting from the caller's allowance. See {ERC20-_burn} and {ERC20-allowance}. Requirements: - the caller must have allowance for ``accounts``'s tokens of at least `amount`."
      },
      "decimals()": {
        "details": "Returns the number of decimals used to get its user representation. For example, if `decimals` equals `2`, a balance of `505` tokens should be displayed to a user as `5.05` (`505 / 10 ** 2`). Tokens usually opt for a value of 18, imitating the relationship between Ether and Wei. This is the value {ERC20} uses, unless this function is overridden; NOTE: This information is only used for _display_ purposes: it in no way affects any of the arithmetic of the contract, including {IERC20-balanceOf} and {IERC20-transfer}."
      },
      "decreaseAllowance(address,uint256)": {
        "details": "Atomically decreases the allowance granted to `spender` by the caller. This is an alternative to {approve} that can be used as a mitigation for problems described in {IERC20-approve}. Emits an {Approval} event indicating the updated allowance. Requirements: - `spender` cannot be the zero address. - `spender` must have allowance for the caller of at least `subtractedValue`."
      },
      "increaseAllowance(address,uint256)": {
        "details": "Atomically increases the allowance granted to `spender` by the caller. This is an alternative to {approve} that can be used as a mitigation for problems described in {IERC20-approve}. Emits an {Approval} event indicating the updated allowance. Requirements: - `spender` cannot be the zero address."
      },
      "name()": {
        "details": "Returns the name of the token."
      },
      "owner()": {
        "details": "Returns the address of the current owner."
      },
      "proxiableUUID()": {
        "details": "Implementation of the ERC1822 {proxiableUUID} function. This returns the storage slot used by the implementation. It is used to validate that the this implementation remains valid after an upgrade. IMPORTANT: A proxy pointing at a proxiable contract should not be considered proxiable itself, because this risks bricking a proxy that upgrades to it, by delegating to itself until out of gas. Thus it is critical that this function revert if invoked through a proxy. This is guaranteed by the `notDelegated` modifier."
      },
      "renounceOwnership()": {
        "details": "Leaves the contract without owner. It will not be possible to call `onlyOwner` functions anymore. Can only be called by the current owner. NOTE: Renouncing ownership will leave the contract without an owner, thereby removing any functionality that is only available to the owner."
      },
      "symbol()": {
        "details": "Returns the symbol of the token, usually a shorter version of the name."
      },
      "totalSupply()": {
        "details": "See {IERC20-totalSupply}."
      },
      "transfer(address,uint256)": {
        "details": "See {IERC20-transfer}. Requirements: - `to` cannot be the zero address. - the caller must have a balance of at least `amount`."
      },
      "transferFrom(address,address,uint256)": {
        "details": "See {IERC20-transferFrom}. Emits an {Approval} event indicating the updated allowance. This is not required by the EIP. See the note at the beginning of {ERC20}. NOTE: Does not update the allowance if the current allowance is the maximum `uint256`. Requirements: - `from` and `to` cannot be the zero address. - `from` must have a balance of at least `amount`. - the caller must have allowance for ``from``'s tokens of at least `amount`."
      },
      "transferOwnership(address)": {
        "details": "Transfers ownership of the contract to a new account (`newOwner`). Can only be called by the current owner."
      },
      "upgradeTo(address)": {
        "details": "Upgrade the implementation of the proxy to `newImplementation`. Calls {_authorizeUpgrade}. Emits an {Upgraded} event."
      },
      "upgradeToAndCall(address,bytes)": {
        "details": "Upgrade the implementation of the proxy to `newImplementation`, and subsequently execute the function call encoded in `data`. Calls {_authorizeUpgrade}. Emits an {Upgraded} event."
      }
    },
    "version": 1
  },
  "userdoc": {
    "kind": "user",
    "methods": {},
    "version": 1
  }
}